:020000040800F2
:1010000000500020C5760008C1760008BF760008B1
:10101000BF760008BF760008BF7600080000000019
:10102000000000000000000000000000C176000881
:10103000C176000800000000C1760008C1760008F3
:10104000BF760008BF760008BF760008BF760008AC
:10105000BF760008BF760008BF760008BF7600089C
:10106000BF760008BF760008BF760008BF7600088C
:10107000BF760008BF760008BF760008BF7600087C
:10108000BF760008BF760008BF760008F935000873
:10109000D9350008E9350008BF760008C9130008F3
:1010A000BF760008BF760008BF760008BF7600084C
:1010B000BF760008B913000801140008BF760008C5
:1010C000BF760008BF760008BF760008BF7600082C
:1010D000BF760008BF760008BF760008BF7600081C
:1010E000BF760008BF760008BF760008BF7600080C
:1010F000BF760008BF760008BF760008BF760008FC
:10110000BF760008BF760008BF760008BF760008EB
:10111000BF760008BF760008BF760008BF760008DB
:10112000BF760008BF760008BF760008BF760008CB
:10113000BF760008BF760008BF7600082736000893
:101140000736000817360008BF760008BF7600088B
:1011500008B58446084611461A46DCF8043098471C
:1011600008BD08B58368984708BD00B54FF0000C6E
:10117000E64604E000BF1CF1010C4EF1000E4B01ED
:1011800043EAD0634201121A63EB01039B0043EA76
:1011900092739200121841EB03031B0143EA12738E
:1011A000120194457EEB0303E4DB00BD08B5034B5D
:1011B0009988186805F095FD08BD00BF8C080020CF
:1011C00010B505F097FD164B186800F03EFE06F0CE
:1011D000E1FF144907F0E6F80146382000F0ACFEC4
:1011E000114801F0EBFD06F0D1FF104907F0DAF8E5
:1011F0000146372000F0A0FE05F0AAFF01F0D4FE62
:101200000B4C206804F058FC206804F0E5F804F06A
:10121000D9F904F0CBFF074B186802F0A1FA10BD12
:10122000A807002000002041FC08002000004B43DC
:10123000A4070020A007002008B503F053FF08BD55
:1012400008B503460846B3F5E66F11D009D840F259
:101250002722934210D0B3F52A7F0BD104F064F813
:1012600008E040F23172934204D104F0DFFB01E068
:1012700004F0DAFB002008BD04F08EF8FAE7000065
:1012800010B50D4C00224FF4E661206802F0F9F928
:10129000002240F23171206802F0F3F9002240F29E
:1012A0002721206802F0EDF900224FF42A7120680E
:1012B00002F0E7F910BD00BFA407002010B50446F6
:1012C0008188006805F00AFD003818BF0120A37965
:1012D000181A18BF012010BD08B5022000F0FCFD4F
:1012E0001E4A1378002818BF43F00103137005F05D
:1012F0002FFF1B4B1B68D3F8F830C01A312802D9D6
:10130000164B1B780BBB1748FFF7D8FF014626206A
:1013100000F004FE1448FFF7D1FF0146272000F03B
:10132000FDFD1248FFF7CAFF0146252000F0F6FD3B
:101330000F48FFF7C3FF0146282000F0EFFD0D4BDB
:1013400019680B2000F0EAFD08BD0021022000F022
:10135000E5FD012001F02EFED5E700BF800700204B
:10136000A4070020F407002004080020FC07002048
:10137000D408002094070020FEE7000038B560B1D3
:10138000012814D10A4B1B681C46012000F0A4FD63
:10139000C1B2204602F08AFF09E0064B1C682368B0
:1013A0001B681D4600F098FDC1B22046A84738BD15
:1013B0009C070020A407002008B5024B186800F025
:1013C0000BFD08BDA807002008B54FF4807005F09C
:1013D00097FB50B1084B1B7843B1084A136801339F
:1013E00013604FF4807005F085FB08BD034A136855
:1013F000013B1360F5E700BF4A0700209407002077
:1014000008B508212D4805F005FF28B910212B4803
:1014100005F000FF48BB08BD0221284806F065F82A
:10142000274B1B788BB9274A1368C31A26490B60D0
:1014300010600122224B1A700221204805F0DAFECA
:1014400008211E4805F0ECFEE0E71E4B1B68C01AA1
:101450001E4B186000221A4B1A700221174805F023
:10146000C9FE1B4B01221A70EAE70321134806F05C
:101470003CF8184B1B788BB9174A1368C31A1749E5
:101480000B6010600122134B1A7003210B4805F00A
:10149000B1FE1021094805F0C3FEBCE70E4B1B68E6
:1014A000C01A0F4B186000220A4B1A700321034820
:1014B00005F0A0FE0B4B01221A70EAE7000800407D
:1014C000780700207C0700208C0700209007002070
:1014D0008207002070070020740700208407002086
:1014E00088070020810700202DE9F041ADF6180D96
:1014F00000F066FA00F00DFBD34E00223146D348CF
:1015000001F0A0FC01223146D14801F09BFC0222EF
:101510003146D04801F096FC03223146CE4801F016
:1015200091FC04223146CD4801F08CFC0522314665
:10153000CB4801F087FCCB4C00222146CA4801F081
:1015400081FCCA4D00222946C94801F07BFC0122DA
:101550002946C84801F076FC02222946C64801F017
:1015600071FC03222946C54801F06CFC042229467F
:10157000C34801F067FC05222946C24801F062FC1D
:1015800004234FF480723146BF4801F008F9072365
:101590004FF400423146BD4801F001F902231A46DA
:1015A0002146BB4801F0FBF8002304222146B9483C
:1015B00001F0F5F8072308222146B74801F0EFF8BB
:1015C000072310222146B54801F0E9F8072320221D
:1015D0002146B34801F0E3F8092340222146B148EF
:1015E00001F0DDF8092380222146AF4801F0D7F849
:1015F00004234FF480722146AC4801F0D0F8042354
:101600004FF400722146AA4801F0C9F809234FF4AB
:1016100000622146A74801F0C2F807234FF4804238
:101620002146A54801F0BBF807234FF48062294604
:10163000A24801F0B4F807234FF400622946A048FD
:1016400001F0ADF807234FF4805229469D4801F080
:10165000A6F807234FF4005229469B4801F09FF853
:1016600007234FF480422946984801F098F804F582
:101670000064072301222146954801F090F80723D2
:1016800002222146934801F08AF8072304222146CA
:10169000914801F084F80723082221468F4801F081
:1016A0007EF80723102221468D4801F078F80723A1
:1016B000202221468B4801F072F807234022214660
:1016C000894801F06CF8072380222146874801F001
:1016D00066F804F58064072304222146844801F05B
:1016E0005EF8072308222146824801F058F80723B4
:1016F00010222146804801F052F800234FF48072F6
:1017000021467E4801F04BF800234FF40072214639
:101710007B4801F044F800234FF480622146794869
:1017200001F03DF807234FF400622146764801F0AE
:1017300036F801F0BBFA00F099F900F0D3F901F0A6
:1017400005FC00F0F1F90DF2EC540126019600962B
:1017500000236E4A6E49204600F092FC6D4B1C60DF
:101760000DF5BC656C4BCDF8E0356C4BCDF8E03534
:101770006B4BCDF8E4356B4BCDF8E835002000F02D
:10178000ABFBE1AC0023C2B26749204601F06AFE20
:10179000664B1C602946204601F064FFFFF770FD90
:1017A00032AD32462146284602F0F4FCDFF8808153
:1017B000C8F800505F4B1D600FAF2A4621463846DF
:1017C00002F042FD5C4B1F60304600F085FBC1B269
:1017D000384602F06BFDD8F80020584B1A60584D7F
:1017E00005AC2946204600F09DFA564B1968C1F316
:1017F0005911554BA3FB013189090139284605F0E0
:1018000030FD524B1C6003225149204600F0AEFAD5
:1018100014225049204600F0A9FAC8224E49204619
:1018200000F0A4FA4FF4C8724C49204600F09EFA2A
:101830000021352000F072FB3920FFF79FFD0A20C0
:101840000021FFF792FC8BE00008014028090020EE
:1018500024090020200900201C090020180900206C
:1018600014090020000C0140100900200010014064
:101870000C090020080900200409002000090020AC
:10188000FC080020F8080020EC080020E4080020F4
:10189000DC080020D4080020CC080020C408002068
:1018A000BC080020B4080020AC080020A4080020D8
:1018B0009C080020940800208C0800208408002048
:1018C0007C080020740800206C08002064080020B8
:1018D0005C080020540800204C0800204408002028
:1018E0003C080020340800202C0800202408002098
:1018F0001C080020140800200C0800200408002008
:10190000FC070020F4070020EC0700206892000884
:1019100000380140980700205C8600086C860008AB
:10192000411200088112000800640040A407002052
:10193000A0070020900A00209C0700208C0A0020AD
:10194000000400406C070020632D3E05A80700201E
:1019500039120008D9120008C1110008AD110008A1
:1019600003F05AFC13E01C4619E004300DF10B01A2
:1019700003F08EF85CB103AB94E8030083E8030046
:10198000204602F00BFF21460FA802F0B8FC00220F
:101990008DF80B209DF8C430002BE4D02FAC064B03
:1019A000186800F057FD054B18684369002BE1D11A
:1019B0000028DAD1DAE700BF980700209C07002052
:1019C00008B5274805F0E4FA4FF0E023254AC3F8AC
:1019D0000C2D40F2023005F039FB40F2033005F0E7
:1019E00035FB4FF4417005F031FB40F2053005F056
:1019F0002DFB40F2063005F029FB40F20E3005F0D9
:101A000025FB40F20B3005F021FB4FF4607005F030
:101A10001DFB40F2813005F019FB40F2823005F0E9
:101A200015FB4FF4207005F011FB40F2093005F072
:101A30000DFB40F2862005F009FB4FF4407005F0E5
:101A400005FB40F2993005F001FB074B5A6842F064
:101A5000C0025A605A6842F400725A6008BD00BF62
:101A6000609600080003FA050000014030B597B009
:101A700004F0B4FF00F5FF3505F2FD15AD0201AC31
:101A800014220021204600F084FE154B01931823F8
:101A9000ADF8083001238DF80A3000238DF80B30A3
:101AA00004F080FF1421204604F08AFF15902B6D6E
:101AB000834201D117B030BD05F0B0F8284605F0DB
:101AC00069F8002407E001AB53F8241005EB84000B
:101AD00005F0BEF80134142CF5D905F0ABF8E9E7B0
:101AE0000010014008B51D2005F058FE00211D2002
:101AF00005F060FE1E2005F051FE01211E2005F0BC
:101B000059FE172005F04AFE0221172005F052FE6B
:101B100008BD08B54FF41C71032005F051FB0020EF
:101B200005F020FB08BD000038B57B4C204605F0D1
:101B300093FB0021204605F094FB0021204605F090
:101B400077FB40F60F61204605F08DFB204605F03F
:101B50006AFB4FF4006302221146704805F084F8D6
:101B600006220221204605F080FB0221204605F0D6
:101B700042FC0221204605F058FC0221204605F0D7
:101B800079FC00220221204605F099FC204605F050
:101B90005EFB4FF0804005F05FFB0A214FF0804074
:101BA00005F05FFB00214FF0804005F041FB4FF650
:101BB000FF714FF0804005F056FB4FF0804005F07C
:101BC00032FB574D4FF4006302221146284605F0C0
:101BD0004BF8062211464FF0804005F046FB0621E7
:101BE0004FF0804005F007FC06214FF0804005F0E3
:101BF0001CFC06214FF0804005F03CFC0022062131
:101C00004FF0804005F05BFC4FF0804005F01FFB7B
:101C1000A4F59234204605F01FFB4721204605F02D
:101C200020FB40F2E731204605F01DFB204605F081
:101C300009FB0421204605F0D2FC0121204605F0D5
:101C4000C5FC5021204605F0D2FC0F22022120467F
:101C500005F05AFC05220221204605F07DFC0022F9
:101C60000221204605F0C6FA0221204605F0A7FC15
:101C70000F220321204605F047FC062203212046BF
:101C800005F06AFC00220321204605F0B3FA032187
:101C9000204605F094FC402302221146284604F019
:101CA000E3FF06220021204605F0DFFA002120464E
:101CB00005F0A1FB0021204605F0B7FB00212046DE
:101CC00005F0D8FB00221146204605F0F8FB8023E2
:101CD00002221146284604F0C7FF062202212046B0
:101CE00005F0C3FA0221204605F085FB02212046BB
:101CF00005F09BFB0221204605F0BCFB00220221DF
:101D0000204605F0DCFB0121204605F0E8FB2046DB
:101D100005F09DFA38BD00BF002C014000180140BD
:101D2000000C014038B505460C460162084605F036
:101D30007AFA204605F086FA0A4B1968C1F31A119F
:101D4000094BA3FB0131C9090139204605F089FA85
:101D50004FF6FF71204605F086FA00236B62284695
:101D600038BD00BF6C070020C55A7C0AF8B5436A2D
:101D7000032B00DDF8BD04460D461646006A05F04B
:101D80006BFA636A0122134FF95C206A05F06DFA61
:101D9000636A0022F95C206A05F091FB636A44F8EB
:101DA000235003F1080106EB860202EB8202920047
:101DB00024F8112002219940206A05F027FA002119
:101DC000206A05F09FFB206A05F041FA636A01333F
:101DD0006362CFE774860008F8B5054600242AE060
:101DE0000226A6403146286A05F014FA40B3286A54
:101DF00005F079FB87B22B6A03EB84035A6B04F17D
:101E0000080135F811100A445A6355F824309847F0
:101E1000286A05F068FBC01B04F10C0325F81300C9
:101E20003146286A05F0FCF904E00221A140286A45
:101E300005F0F6F90134032C06DC6B6AA342CFDC13
:101E40006B6AA342F6DCF0E7F8BD014600221046BB
:101E50000FE002F10C0331F813304FF47A7C0CFBE5
:101E600003F302F1080C31F81CC093FBFCF3184497
:101E700001324B6A9342ECDC70470000024B1A6857
:101E8000024BC3F8F025704740070020E400002013
:101E900008B5C0EBC0020B4B03EB8203DB688B423F
:101EA0000EDC084B03EB82031B698B4201DAFF2037
:101EB00007E0054B43F82010FFF760FA002000E030
:101EC000FF2008BDE400002000000020014B53F873
:101ED0002000704700000020024B53F82000401102
:101EE000704700BF0000002008B5054B53F82000E4
:101EF00006F050F94FF0745106F0A0F908BD00BF8C
:101F000000000020044B53F820004011012814BFAA
:101F100000200120704700BF000000204901024B53
:101F200043F82010704700BF00000020014B43F829
:101F3000201070470000002010B5044608464FF0FE
:101F4000844106F07BF906F03FFB024B43F8240086
:101F500010BD00BF0000002070B506460024074DEC
:101F6000382C09DC3146686800F072FB10B101348E
:101F70001C35F5E7E0B270BD3A20FCE7E400002034
:101F80000023064A382B07DC118B814202D0013333
:101F90001C32F7E7D8B270473A207047E4000020BF
:101FA000C0EBC000014B03EB80007047E400002051
:101FB00038B50024074D01E001341C35382C07DC0E
:101FC0002B8B002BF8D06969E0B2FFF7AFFFF3E786
:101FD00038BD00BFE4000020014B1954704700BF1A
:101FE000AC070020024A135C0B431354704700BF38
:101FF000AC070020024A135C23EA01031354704724
:10200000AC070020014B185C704700BFAC070020F4
:10201000C0EBC000024B03EB8003987E704700BF0B
:10202000E400002000487047F26B010008B5FFF79C
:1020300025FF08BD08B52021806805F03AFB08BDE2
:1020400008B5806805F02DFB08BD10B5044643684F
:10205000597A586804F026FD636804F12A02597A17
:10206000586804F031FD63688022597A586804F09A
:102070003BFD6368597A586804F00BFD10BD000001
:1020800070B504460D4653490160534901608560AF
:10209000037302610121017541758175002282611E
:1020A000C26180F82020426280F828109DF810104C
:1020B00080F829109DF8141080F82A1247494160D1
:1020C000032A07D861680868A84203D01C31616000
:1020D0000132F5E7424A1460002B74D062685069FF
:1020E000002B73D063681B8B0222032104F0BCFD1C
:1020F0004FF4E131284605F083FA0821284605F01F
:1021000091FA4FF40051284605F095FA0C21284623
:1021100005F09DFA0021284605F093FA0021284693
:1021200005F09BFA284605F0AEFA284605F0B0FA0D
:102130006368197A586804F057FC6368197A58681C
:1021400004F09EFC63682E1D3246197A586804F02C
:10215000B2FC63680022197A586804F06FFC636867
:102160000022197A586804F05DFC6368197A58688F
:1021700004F070FC6368597A586804F035FC6368B1
:102180003246597A586804F096FC63680022597AFE
:10219000586804F053FC63680022597A586804F0C8
:1021A00041FC6368597A586804F054FC6368597AB2
:1021B000586804F06EFC2046FFF747FF284605F0FC
:1021C00052FA204670BD6268D06889E763681B8A4E
:1021D0008AE700BFE8910008F4910008F891000830
:1021E000E807002038B50D460469437D3BB12168FE
:1021F00039B1284600F02CFA18B10834F7E71C462C
:1022000001E023680BB1204638BD1C46FBE738B51A
:1022100004460D4601E0002373B163680222197A77
:10222000586804F0F6FB0028F5D194F828300BB17B
:102230000346F1E70123EFE76368197A586804F071
:1022400031FC6368AAB2197A586804F04DFC6368DF
:1022500094F82020D201A83222440232197A586818
:1022600004F032FC63680222197A586804F0CCFB4F
:102270006368197A586804F00CFC94F82030B3FABB
:1022800083F35B0984F82030002384F8283038BDBC
:1022900010B50446837D73B10A2910D0436A7F2BA1
:1022A0000DD090F8202000EBC2121A4482F8AA1038
:1022B0000133436210BD806805F0DAF9FAE794F85B
:1022C0002030626A04EBC313134483F8AA10511C34
:1022D0002046FFF79CFF00236362EBE710B50C4636
:1022E000802A28BF802211464FF0000C0AE090F8A7
:1022F000203014F80CE000EBC313634483F8AAE029
:102300000CF1010C8C45F2D3FFF781FF10BD38B5FD
:1023100005460C46084600F0B2F90246214628461A
:10232000FFF7DCFF38BD000010B50446084600F09A
:10233000F9F900F0DEF9237D83420DD000236375A7
:10234000237B0BB3626850690BB363681B8B01225C
:10235000002104F089FC10BD01236375237B6BB160
:10236000626850696BB163681B8B0222032104F021
:102370007BFC08492046FFF7CAFFECE76268D0689B
:10238000F0E763681B8AF0E76268D068DCE763689F
:102390001B8ADCE7C48E000830B585B004460846C9
:1023A00000F0C0F90378302B13D0322B0ED04FF44D
:1023B00061231D46637D83B92946A06805F020F995
:1023C0000021A06805F037F905B030BD0E4B1D4661
:1023D000F0E74FF4E1331D46ECE70A22294601A855
:1023E00000F05DF909492046FFF791FF08492046B2
:1023F000FFF78DFF01A92046FFF789FF0549204619
:10240000FFF785FFD8E700BF10552200808C000839
:10241000888C00088891000810B50446084600F032
:1024200081F9037823B1303B18BF012384F82930A8
:1024300094F8293023B105492046FFF768FF10BD05
:1024400003492046FFF763FFF9E700BF988C0008B7
:10245000A48C0008F8B504464368597A586804F01B
:102460003CFB0646C0F1800558B92046FFF7EDFD5C
:1024700007E05A1CE261234493F82A10A06805F093
:10248000F7F894F8293013B1E369AB42F1DB082186
:10249000A06805F00EF9E0B97F2E28DCC6F17F03B5
:1024A000234493F82A300A2B17D00D2B15D094F81B
:1024B0002A30212B1BD1A369CBB12046FFF7C5FDE4
:1024C0000023E361A3695B6804F5D5712046984752
:1024D0000DE0A06805F0E5F8DEE76368597A586812
:1024E00004F0E0FA7E2E03DD2046FFF7AEFDF8BDD6
:1024F0006319002283F82A20E26104F12A072021CF
:10250000384600F0C3F80646037823BB0A21384654
:1025100000F0BCF80646002384F8AA31337803B3F0
:1025200000233370A3612A49384600F091F806462B
:10253000E8B904F5D5712046FFF7F6FEA369002B34
:102540003CD0A06805F0B1F8A3695B6804F5D571CB
:1025500020469847C8E7411C04F5D57000F086F87E
:10256000DCE70D21384600F091F80646D8E7194916
:10257000384600F06DF8064668B994F82A322BB157
:1025800004F5D5712046FFF707FFD7E7124920462B
:10259000FFF7BDFED2E71149384600F059F806466C
:1025A00028B904F5D5712046FFF736FFC6E739464E
:1025B0002046FFF717FEA0612E46BFE7012E93DDF0
:1025C000637D002B90D006492046FFF7A0FE8BE7E5
:1025D000B08C0008BC8C0008C88C0008E48C000893
:1025E000EC8C000808B5044B1B681A681268C1B26D
:1025F0001846904708BD00BFE8070020704708B59F
:1026000000F032FD08BD000000B583B00649D1F8E6
:10261000F027D1F8EC37D1F8E8170091034900F022
:10262000EBFA03B000BD00BF00F0FF1F088D0008EB
:1026300010B50446FFF7BCFC0249204600F0DCFA66
:1026400010BD00BF1C8D000808B502F021FA08BDBE
:10265000431E013913F8010F11F8012F10B10AB10F
:102660009042F7D0801A18BF01207047013911F845
:10267000013F0BB90370704700F8013BF7E70023F7
:10268000C25C0AB9184670470133F9E703461A7865
:1026900018461AB18A4203F10103F8D170470029A4
:1026A00070B51EDA2D23012400F8013B494206468D
:1026B00091FBF2F302FB131130313170191E3546D4
:1026C00006F10106F4DC00220346201A3044327081
:1026D000AB420BD21A78297803F8011B05F80129BF
:1026E000F6E704D1302341700370012070BD00244F
:1026F000DDE730B503782D2B11D14FF0FF340130D9
:1027000000210A25431E01E005FB012113F8012FDA
:10271000303AD0B20928F7D904FB01F030BD0124CA
:10272000EEE7000010B5144C02780146A2F10A034E
:10273000DBB2162B1BD824FA03F3DA0700F10100F1
:10274000F2D40846FFF79BFF013808448142044653
:102750000AD203780A3BDBB2162B05D8064A0138A9
:1027600022FA03F3DB07F1D40023637001E0002AAF
:10277000E7D1084610BD00BF09004000002310B596
:10278000934200D110BD51F8234040F8234001335B
:10279000F6E702B97047013A40F8041BF9E7F8B5CB
:1027A0000D4616461C460160828000238371052C6D
:1027B00030D00AD9082C32D01AD8062C41D0072C98
:1027C00042D1002403231F4630E0032C1CD009D83B
:1027D000012C13D0022C02D100231F4622E0022438
:1027E0001F4623E0042C28D1012400231F461DE0AE
:1027F000092C2DD1022403231F4617E001238371E6
:10280000022400231F4611E00123837102240023C8
:102810001F4607E00124847100231F4606E00124BF
:1028200003231F463146284604F053FA3346224616
:102830003946284604F018FAF8BD022400231F4642
:10284000F4E700242746F1E7022400231F46EDE7C2
:10285000022400231F46E9E7024B4FF400421A808E
:10286000704700BFF408002008B5FFF7F5FF08BD6A
:1028700070B50C1EACBF01234FF0FF335C43013336
:10288000064608BF2D234FF0640208BF06F8013B3F
:10289000611104F01F040546544330460A22FFF735
:1028A000FEFE2E226411092C3254D8BF302206EBD2
:1028B0000003D8BF5A7021464FF00A02CCBF581C03
:1028C000981CFFF7ECFE284670BDF0B50278034671
:1028D0002D2A13D14FF0FF30013300250A2702E0E3
:1028E00007FB052501331C78A4F13002D6B2092E6E
:1028F000F6D9A4B98D4025446843F0BD0120ECE72A
:102900008A4002EB660292FBF6F20CFB06F61444D8
:1029100013F8012F303AD7B2092FF1D9EAE70A2686
:102920000024B446F4E72DE9F04105460F46161E93
:1029300002DD0A46002108E04FF0200813F00104F0
:102940001BD0002422E00131013210780028FAD196
:10295000B14206DA761A13F0020F04D14FF02008C4
:10296000ECE70026F7E74FF03008E7E72B681B6835
:102970004146284698470134013E002EF6DC05E02A
:102980002B681B682846984701340137397800299D
:10299000F6D106E02B681B6841462846984701346B
:1029A000013E002EF6DC2046BDE8F08170B584B013
:1029B0000646DDF828C059B11D460B4615B10A2A56
:1029C00011D0002500218DF80D100DF10D0416E039
:1029D00030238DF800308DF80110099B089A694664
:1029E000FFF7A1FF32E0002901DB0025EAE74B42B7
:1029F0000125E7E7303104F8011DB3FBF2F34BB1D9
:102A0000B3FBF2F102FB11310929F3DDACF13A001D
:102A10000144EFE79DB1089B63B1099B13F0020FDE
:102A200008D0304633681B682D219847089B013B2E
:102A3000089304E02D2304F8013C013C0025099B88
:102A4000089A21463046FFF76EFF284404B070BD57
:102A500008B50846FFF7C6FD08BDF0B585B00746C6
:102A600016461D466846FFF703FF2B463246694669
:102A70003846FFF758FF05B0F0BD000070B588B0CC
:102A800006460C460592002587E0A21C012391E032
:102A900000222178A1F1300C5FFA8CFCBCF1090F07
:102AA00006D802EB8202303901EB42020134F0E732
:102AB00073291AD0642923D0782930D058293DD0E1
:102AC00075294AD0662957D0632965D10599081D13
:102AD000059009688DF81C1000218DF81D1007A9BC
:102AE0003046FFF720FF054456E00599081D059084
:102AF000096801B935493046FFF715FF05444BE039
:102B00000599081D059009686120029001930092C3
:102B100001230A223046FFF749FF05443CE00599AE
:102B2000081D05900968612002900193009200231E
:102B300010223046FFF73AFF05442DE00599081DA5
:102B40000590096841200290019300920023102211
:102B50003046FFF72BFF05441EE00599081D059040
:102B60000968612002900193009200230A223046F6
:102B7000FFF71CFF05440FE00599081D0590096843
:102B80003046FFF76AFF054406E0144633681B68C9
:102B90002178304698470135013423789BB1252BA5
:102BA000F4D1621C637873B1252BEED02D2B3FF44A
:102BB0006CAF002314462278302A7FF469AF0134C9
:102BC00043F00203F7E7284608B070BD908D000877
:102BD0000FB400B583B004AA52F8041B054B01934F
:102BE000009201A8FFF74AFF03B05DF804EB04B0C0
:102BF000704700BFE09200080EB400B582B003AA8F
:102C000052F8041B0192FFF739FF02B05DF804EBA4
:102C100003B07047174B184A1360991C174A11608C
:102C2000191D174A1160991D164A116003F1080118
:102C3000154A116003F10A01144A116003F10C01F5
:102C4000134A116003F10E01124A116003F11001E1
:102C5000114A116003F11201104A116003F11401CD
:102C60000F4A116003F116010E4A116018330E4A23
:102C7000136070472C090020280900202409002037
:102C8000200900201C090020180900201409002038
:102C9000100900200C090020080900200409002068
:102CA00000090020FC080020F808002030B583B09F
:102CB000334B93E8030002AB03E903000025002D2A
:102CC0002CDD304C304A0121204603F0F4FE2F4A1F
:102CD0000121204603F0F8FE4FF4807201212046C6
:102CE00003F0ACFE4FF480620121204603F09AFE0F
:102CF0009C220121204603F0F7FE0121204603F02B
:102D0000A9FE0121204603F0AEFE0121204603F07A
:102D1000C0FE1F4803F03EFC03B030BD02AB03EB26
:102D2000850353F8084C204603F0F2FB204603F0DD
:102D3000F4FB204603F0FBFB204603F0F3FB0121EC
:102D4000204603F0D0FB204603F093FB204603F01F
:102D5000ADFB204603F0BDFB05EB450305EB83030C
:102D60000C4A1A440D21204603F0E6FB204603F0EE
:102D70001BFC4FF46021204603F08EFB01359EE7DB
:102D8000E4920008000002404C2401402C0900207D
:102D900000240140640A0020884205DD914209DCDC
:102DA00090420ADD10467047904206DC914203DDF6
:102DB00010467047084670470846704730B583B0E4
:102DC000046800250BE0A28E618B2088FFF7E4FFEA
:102DD00002AB03EB450323F8080C01354E34032DF9
:102DE000F1DDBDF80000BDF802301844BDF8043034
:102DF0001844BDF806301844C0F38F0003B030BD4E
:102E000008B50F4B98420BD003F58063984211D060
:102E1000A3F50063984205D1072903DCC8B204E09A
:102E2000012903DD03F02EFB102008BDC9B20831D3
:102E3000C8B2FAE70529F5DCC9B20A31C8B2F4E72D
:102E4000000C014070B505460E4614460123934020
:102E50009BB200221146304603F006FF2B68054A5C
:102E60009B1A5D1021463046FFF7CAFFABB2024AFB
:102E7000D05470BD2C090020640A002008B5FFF76B
:102E8000C9FE08BD08B503F0A9FD00F5FF3000F24A
:102E9000FF10800208BD2DE9F043ADF2044DFFF7AD
:102EA000F1FF0646024600234FF0FF3503E052F8DB
:102EB000041B0D400133FF2BF9DD03F073FD4FF4CC
:102EC00080724FF0FF316846FFF763FC002400E09A
:102ED0000134382C1AD8E7B23846FFF799F80028A1
:102EE000F6D13846FFF75CF880463846FFF78AF897
:102EF0000DEBC40989F80300B8F818202DF8342028
:102F00003846FEF7E3FFC9F80400E1E7FE21684612
:102F100003F056FDFE9003F081FEB5F1FF3F01D1B5
:102F200000240AE0304603F035FEF9E75DF824108E
:102F300006EB840003F08CFE0134FF2CF6D903F07D
:102F400079FEFE980DF2044DBDE8F083F8B5FFF769
:102F500099FF064603F026FDFE21304603F030FDC2
:102F6000D6F8F833834201D1002503E04FF0FF305B
:102F700019E001357E2D15D836F83500FFF700F839
:102F800004463A28F5D0FFF743F80028F1D106EBC4
:102F9000C50779682046FEF7C9FFF9782046FFF794
:102FA0001BF8E6E70020F8BD014B1860704700BF32
:102FB0007C0A00200D4B1B5CB3B90D4B196899B10D
:102FC0000C4B1870DFF830C0DCF800300B4A02F808
:102FD000330002EBC3025160044A012111540B4437
:102FE00003F00303CCF80030704700BF740A0020E0
:102FF0007C0A0020760A0020780A002020070020A2
:1030000003280AD8064B03EBC0035B680BB91846CC
:103010007047034B13F8300070470020704700BF23
:1030200020070020032801D900207047024B03EB42
:10303000C0035868704700BF2007002008B5074B41
:1030400003EBC10292F804C053F83130044A52F83D
:103050002C2001460348FFF7BBFD08BDF89200088D
:10306000EC920008988D000810B50C4B5B680BB112
:10307000002409E00A48FFF7ABFD10BD074B13F829
:103080003410FFF7DBFF0134032CF6D8034B03EBBE
:10309000C40358680028F1D1EFE700BF20070020E3
:1030A000A88D000800B58BB0104B01EB410203EB7B
:1030B000820C53F82220DCF804C001EB410103EB41
:1030C00081039B68D0F8580200210891079106936C
:1030D000CDF814C0049203910291019100910B4626
:1030E000012203F073FA0BB000BD00BF1C9300086F
:1030F000F0B583B004460D4616461F4672B6012150
:10310000D0F8580203F075FB019600970023B5F53F
:10311000006F34BF002201222946D4F8580203F080
:103120006DFB002806DBD4F85432002B18DC62B6A5
:1031300003B0F0BDD4F85432132BF4DC03F11102C8
:1031400004EB021255609760316804EB0312C2F879
:103150001C117168C2F820110133C4F85432E2E73F
:103160000121D4F8580203F040FBE0E7012801DD1B
:1031700000207047014B53F820007047800A002060
:1031800030B58BB004460D460AE09DF8213006AA02
:103190000999204600F0B2FA03F0DAFFC4F8F8000B
:1031A0000023059306AB04930DF12103039308ABB1
:1031B00002930DF1220301930DF12303009309AB58
:1031C0000122E9B2D4F8580203F08DFB0028DCD1CB
:1031D0000BB030BD30B583B0044600F58A7504E00D
:1031E000D4F85432013BC4F85432D4F85432002B92
:1031F00017DD03F18053013B1A0105EB0313A958B6
:103200005A6808330193D2B200920023B1F5006FDF
:1032100034BF00220122D4F8580203F0EFFA00284C
:10322000DEDAD4F854320BB103B030BD0121D4F84A
:10323000580203F0DEFAF7E770B584B00E46154683
:103240001C461068B3F800C05A889B88B4F806E0A2
:103250005B019BB2520192B24FEA4C1C1FFA8CF1F7
:103260004FF0010CCDF808C000EA0C0CCDF804C0FA
:103270004FEA4E1C1FFA8CFCCDF800C003F098FA00
:10328000002333602A6801322A60E380A3806380D0
:10329000238004B070BD70B584B00E4615461C4640
:1032A0001068B3F800C05A889B88B4F806E05B0148
:1032B0009BB2520192B24FEA4C1C1FFA8CF14FF0B4
:1032C000010CCDF808C000EA0C0CCDF804C04FEAA0
:1032D0004E1C1FFA8CFCCDF800C003F059FA0023F5
:1032E00033602A6801322A60A380238040F2FF7392
:1032F000E380638004B070BD70B582B00E461546A1
:103300001C4610681968C9005A68D200012300934E
:10331000034042F0040241F0040103F059FA002393
:1033200033602A6801322A606360236002B070BD96
:1033300030B58BB00546002308930993474906AA88
:1033400003C982E803000493059303930293019356
:10335000D5F85822424B9A420AD0A3F58063D3F89D
:10336000003AC3F3052300930024C2F81C4221E075
:103370000023F8E704F11E0205EB8202516871B3E5
:10338000029A501C02900DF1280C0CEB420C2CF808
:10339000103C023202920AAB03EB400020F8101CF2
:1033A000039B042B24D0029B022B28D0019B022BD1
:1033B0002CD00134D5F8F430A3422EDD05EB840384
:1033C0005B68B3F5006FD5D3019A23F060430AA977
:1033D00001EB820141F8183C01320192E0E7039AC7
:1033E0000AA901EB420121F8083C01320392D7E718
:1033F00008AB6A4603A92846FFF71EFFD3E706ABD2
:103400006A4602A92846FFF746FFCFE704AB6A46A3
:1034100001A92846FFF770FFCBE7039B002B07DCD1
:10342000029B002B0BDC019B002B0FDC0BB030BD93
:1034300008AB6A4603A92846FFF7FEFEF0E706AB95
:103440006A4601A92846FFF726FFECE704AB6A4667
:1034500001A92846FFF750FFE8E700BF589300088E
:1034600000640040F8B504460D4616461F4600F0BD
:10347000E3F8544B23600023C4F85432C4F8585284
:10348000514B9D422FD003F580639D4258D1002FB0
:1034900000F082804D4D202302220021284603F0B7
:1034A000E3FB2021284603F014FC402302220321E1
:1034B000284603F0D9FB402004F070F9F0214020A9
:1034C00004F078F9412004F069F9F021412004F07A
:1034D00071F93F2004F062F9F0213F2004F06AF90D
:1034E0003B4B5C602CE0002F41D0384D4FF4807393
:1034F00002220021284603F0B7FB4FF480712846D2
:1035000003F0E7FB4FF4007302220321284603F087
:10351000ABFB142004F042F9F021142004F04AF926
:10352000152004F03BF9F021152004F043F9132095
:1035300004F034F9F021132004F03CF9244B1C6012
:10354000D4F8580203F036F831462046FFF7AAFDBA
:103550002046FFF7EDFE0221D4F8580203F045F9AA
:103560001021D4F8580203F040F92046F8BD194D57
:103570004FF4006302220021284603F075FB4FF44C
:103580000061284603F0A5FB4FF48053022203217B
:10359000284603F069FBBCE70C4D4FF48053022230
:1035A0000021284603F060FB4FF48051284603F0C9
:1035B00090FB4FF4005302220321284603F054FBF2
:1035C00079E700BF1093000800640040000C014040
:1035D000800A00200008014008B50020FFF7C6FD62
:1035E0000021FFF7CDFD08BD08B50020FFF7BEFDA7
:1035F0000121FFF7C5FD08BD08B50020FFF7B6FDA6
:10360000FFF7E8FD08BD08B50120FFF7AFFD002179
:10361000FFF7B6FD08BD08B50120FFF7A7FD0121A2
:10362000FFF7AEFD08BD08B50120FFF79FFDFFF7CE
:10363000D1FD08BD70477047084B03600023C0F8F8
:10364000F430C0F8FC3005E003F14002044940F8D2
:1036500022100133042BF7DD704700BF6893000888
:1036600044070020D0F8FC30042B01DD0020704717
:1036700003F1400240F822100133C0F8FC30012071
:10368000704710B51446D0F8F4201D2A0CDD002038
:1036900010BD01339A420ADD00EB830CDCF8041004
:1036A0007145F6D10020F3E78E460023F2E700EBE8
:1036B0008203C3F804E002F11E0300EB83035C60A5
:1036C0000132C0F8F42003689B6898470120DFE7C7
:1036D00038B505460024C0F8F44003689B68984755
:1036E00007E004F1400355F8230003685B6898473E
:1036F0000134D5F8FC30A342F3DC38BD2DE9F843A2
:103700000546894690461F4600240AE004F140031E
:1037100055F8230003681E683B4642464946B047B9
:103720000134D5F8FC00A042F0DCBDE8F88370B5A8
:10373000054600F1300634460BE034F8043BC3F391
:10374000C02123F40063002203EB41716868FFF796
:1037500098FFA31B242B02DCA378322BEDD170BD84
:103760002DE9F04182B0054600F108073E46F31B03
:10377000242B00F39380B378322B00F08F8000234A
:1037800000930193B37803EB4304A40058342C4412
:103790001AE0C0F307231B0443EA0063C0F30742A7
:1037A00043EA022343EA1063E2791F2A3DD8C2F1BB
:1037B0001F0223FA02F2009B13430093647A04EB86
:1037C0004404A40058342C44637AFF2B5DD0354B5D
:1037D0001B78002B62D12079FEF786FB014620681A
:1037E00004F02CFD804694F9060004F0D3FC414619
:1037F00004F01CFC04F0E8FE94F908C08CEAEC71BB
:10380000A1EBEC71C9B24FF0FF328A4020EA02000E
:10381000BCF1000FBDDBE2791F2A20D9203A00FA63
:1038200002F2019B13430193C8E79444BCF11E0FBD
:1038300007DDC2F13F0223FA02F2019B1343019319
:10384000BCE7A2F11F0003FA00F0009901430091C8
:10385000C2F13F02D340019A1A430192AEE702EB54
:103860000C03202B05DC00FA02F2009B13430093AB
:10387000A4E700FA02F1009B0B430093C2F120027F
:10388000D040019B0343019398E7686803685C6834
:1038900008236A4636F8041BA04768E702B0BDE873
:1038A000F08100BF880A002010B509B302F10C0EA8
:1038B00000EB8E0E0A2A46D89EF80210322944D018
:1038C00001EB410C4FEA8C0C0CF1580C84440021A4
:1038D0000C469CF80910FF2933D073B1013BDBB2D1
:1038E00001EB410189005831644600EB010CF0E71F
:1038F00002F1020E00EB8E0EDCE72CB16172FF23A9
:103900008CF8093001201FE0322904D08EF8021013
:10391000F5E70133DBB29918092904DC0EEB8301CA
:1039200089783229F5D1013BDBB20EEB8302917825
:103930008EF802103EF82330AEF800303223937038
:10394000DDE7002000E0002010BD0020FCE7F8B516
:1039500000F1080300263446354637463DBB1A467B
:103960002C46A2EB030CBCF1240F27DC92F802C01A
:10397000BCF1320F22D00CEB4C0E4FEA8E0E0EF142
:10398000580E8644002609E00136F6B20CEB4C0CCA
:103990004FEA8C0C0CF1580C00EB0C0E9EF809C091
:1039A000BCF1FF0F06D0BEF804E08E45ECD15DB14E
:1039B0000020F8BD0134E4B20432D2E700F1300354
:1039C0003D4601221746C9E7334622463946FFF7EE
:1039D0006BFFEEE770B514461E460023079A13707E
:1039E00000F10805002B46D12A46531B242B3ADC54
:1039F00092F802C0BCF1320F35D00CEB4C0E4FEAFE
:103A00008E0E0EF1580E864407E00CEB4C0C4FEA7C
:103A10008C0C0CF1580C00EB0C0E9EF809C0BCF19C
:103A2000FF0F1ED0BEF804308B42EED11388C3F3D3
:103A3000C022236023F40063236043EA42732360BF
:103A40009EF8073033709EF90820049B1A70DEF848
:103A50000020059B1A609EF90620069B1A70012023
:103A600070BD0432C1E7079B1B780122079D2A70B5
:103A700000F13005B6E70020F2E78446D9B102F143
:103A80000C0100EB81010A2A27D88A78322A26D035
:103A900002EB4202920058320CEB0200427AFF2AFB
:103AA00019D063B1013BDBB202EB42029200583203
:103AB0000CEB0200F2E7911C00EB8101E3E70B88BD
:103AC000C3F3C02200990B6023F400630B6043EA48
:103AD00042730B6070470020704700207047002041
:103AE00070472DE9F04385B00646884600F1080985
:103AF00000273B462FE02B88C3F3C02C23F4006142
:103B000094F90830E2792079029794F906E0CDF82B
:103B100004E0D4F800E0CDF800E041EA4C71C04781
:103B2000647A04EB4404A40058343444637AFF2BD1
:103B3000E1D10435A5EB0903242B08DCAB78322B4B
:103B400005D003EB4304A40058343444EEE706F1F7
:103B500030093B4601270BB94D46EBE705B0BDE800
:103B6000F083002306E001EB83024FF0320C82F871
:103B700002C00133092BF6DD002307E003EB43020B
:103B800000EB8202FF2182F861100133322BF5DD58
:103B9000704710B5044600F10801FFF7E2FF04F199
:103BA00030012046FFF7DDFF6068FFF791FD10BD93
:103BB0002DE9F0410F4615461E460024A0460AE0B6
:103BC000286802F0F7FE804655F8041B07EB8400D6
:103BD00003F03EF80134B442F2DB4046BDE8F08128
:103BE000084600E00430431A242B0ADC8378322B89
:103BF00005D00388534033F40063F3D102E0002082
:103C000070470020704700004B4B1B7803B1704792
:103C10002DE9F041054616460A4600F13001FFF74E
:103C2000DFFF002800F08580837803EB4304A400C5
:103C300058342C4442E01F2B53D83068C0F307227D
:103C4000120442EA0062C0F3074742EA072242EA4E
:103C50001062C3F11F03DBB201208840013822FA51
:103C600003F3184004F092FA074694F9060004F0B2
:103C700091FA394604F0DAF90146206804F0DEFAD8
:103C800007462079FEF7C4F920B12079FEF7C0F984
:103C9000012849D1B4F804804FF08441384604F03B
:103CA000CDFA04F091FC01465FFA88F0FEF7F0F8D7
:103CB000647A04EB4404A40058342C44637AFF2B48
:103CC00037D0E37994F9082082EAE271A1EBE2713E
:103CD000C9B2002AAFDB1F2B18D97268203BDBB2B8
:103CE000BAE71A441F2A03DD7068203BDBB2A5E760
:103CF0005B1ADBB20133DBB23068D8407268C3F1C3
:103D000020039A4010434B1EDBB297E71A44202A47
:103D100001DC3268A0E73268DA407068C3F1200342
:103D200098400243002397E739462079FEF704F9CB
:103D3000BEE7BDE8F08100BF880A00202DE9F84306
:103D40009DF820709DF92460002E76D004460D4623
:103D50009146984686EAE673A3EBE673DBB2202B26
:103D60006ED8002E0BDDBB19402B6CDC4246294679
:103D70002046FFF735FF844658B100221BE03F2F55
:103D800064D87BB23344B3F1FF3FEFDA6FF0010048
:103D900051E00021092907DC05EB81039A78322ADA
:103DA00001D00131F6E79C46BCF1000F51D0ACF8D0
:103DB0000080E2E70132312A07DC02EB420304EB28
:103DC000830393F86130FF2BF4D1322A44D09CF85E
:103DD000023000210AE003EB4301890058312144FD
:103DE00003EB430304EB830393F86130322BF2D1EE
:103DF00002EB420304EB8304A4F85C900A9BA365E6
:103E00009DF92C3084F85E3084F85F7084F860602F
:103E1000322384F8613019B14A722B46002004E045
:103E20008CF80220F9E7013004335A1B242A02DC03
:103E30009A78322AF7D1BDE8F8836FF00200FAE7EA
:103E40006FF00200F7E76FF00100F4E76FF0010098
:103E5000F1E76FF00300EEE76FF00400EBE7B2F577
:103E6000006F16D200B585B09DF920C0CDF80CC00A
:103E7000DDF81CC0CDF808C09DF918C0CDF804C00D
:103E8000009313460A4600F10801FFF757FF05B0FB
:103E900000BD4FF0FF30704770B584B00546144642
:103EA000C2F3407022F00052B2F5006F1DD29DF9AE
:103EB00028C0CDF80CC0DDF824C0CDF808C09DF9AD
:103EC00020C0CDF804C0009342EAC0230A4605F1A1
:103ED00030012846FFF732FF064600222146686877
:103EE000FFF7CFFB304604B070BD4FF0FF331E46E6
:103EF000F8E72DE9F04F89B08346059206938A468C
:103F0000079131E0B4F9020004F044F9002303936F
:103F10000290CDF8048000953B46049A05993046FE
:103F2000FFF70CFF0634A4EB09032A2B1ADC94F9E3
:103F30000530002B16DD2088FEF722F80490DBF810
:103F40000060BAF80070257994F90580069B002B73
:103F5000D8D0B4F9020004F01DF94FF0745104F008
:103F60006DF9D3E70AF1320A079BAAEB0303B3F515
:103F7000E17F0ADCBAF800104FF6FF73994204D0D3
:103F80000AF102052C46A946CDE709B0BDE8F08F3D
:103F900008B502F023FD00F5FF3000F5FF70800248
:103FA00008BD70B582B006460190FFF7F1FF0446E8
:103FB000D0F8E85302F0F6FCFA21204602F000FDAA
:103FC000854202D0002002B070BD01AD0023324610
:103FD000083221462846FFF78CFF01233246303253
:103FE00004F5FA712846FFF784FF0120EBE7F8B5E6
:103FF00005460F460E460EE02079FDF7D1FF038BF4
:10400000A380647A04EB4404A40058342C44637AFB
:10401000FF2BF1D10436F31B242B08DCB378322BB1
:1040200005D003EB4304A40058342C44EFE7F8BD5B
:10403000F8B505460F460E460DE0A088FDF7A0FF37
:10404000A080647A04EB4404A40058342C44637ABE
:10405000FF2BF2D10436F31B242B08DCB378322B70
:1040600005D003EB4304A40058342C44EFE7F8BD1B
:10407000F0B583B00546FFF78BFF064602462A4B94
:104080000121197000234FF0FF3403E052F8041BA4
:104090000C400133FF2BF9DD02F084FC02F0BEFD81
:1040A000022002F0B1FDB4F1FF3F38D105F108075D
:1040B00039462846FFF79BFF05F130042146284684
:1040C000FFF795FF0A233A4631462846FFF770FD71
:1040D0000A23224606F128012846FFF769FD0190D0
:1040E000962305F1580206F150012846FFF760FDBE
:1040F0000190012301AA06F52D712846FFF758FD0E
:1041000002F098FD39462846FFF792FF21462846DF
:10411000FFF78EFF044B00221A7003B0F0BD30464B
:1041200002F038FDC2E700BF880A0020F8B5064655
:10413000FFF72EFF0446D0F8B45202F033FCAA2158
:10414000204602F03DFC854203D03046FFF729FFB0
:10415000F8BD06F108070A2221463846FEF70EFB95
:1041600006F130050A2204F128012846FEF706FB75
:10417000962204F1500106F15800FEF7FFFA394685
:104180003046FFF755FF29463046FFF751FF012023
:10419000DEE7000038B50446084615460D4B23609F
:1041A0000D4B236061602146FFF75CFA04F10801C2
:1041B0002046FFF7D6FC04F130012046FFF7D1FC82
:1041C00025B92046FFF7B3FA204638BD2046FFF751
:1041D000ADFFF6E75C8600088C930008036ED3B150
:1041E0004FF47A73036604E0036E002B07DD0123AE
:1041F0003BB1826DC36D9A42F6D00023F8E70023ED
:10420000F6E7836D5A1C826503F03F030344197679
:104210004FF0FF3343617047A0F10400FFF7DEBFAA
:1042200010B50446017C002201F5C0618068FFF7EB
:1042300028FA617C3F2900D910BD002201F5B06148
:10424000A068FFF71EFAF7E710B504460846144BBE
:104250002360144B6360144B236014336360A160CC
:10426000E26001232374FF2363744FF0FF33636123
:104270000023A3654022E2654FF47A7222663A2257
:1042800084F86420A36684F87830E36784F8883083
:104290002146FFF7E7F92046FFF7C2FF204610BD91
:1042A0005C860008E89100089C93000808B501743A
:1042B0008068FFF70DFA08BD10B582B004468DF88E
:1042C0000010ADF801309DF810308DF80330059BDB
:1042D0000193437C93420DD1002384F87830A06889
:1042E000617C03685C6808236A4601F5C061A047E9
:1042F00002B010BD42748068FFF7EAF9ECE738B508
:1043000004460A468068217C03685D68082301F53D
:10431000B061A847002384F8883038BDB1F8012087
:1043200045F201039A4211D0012380F888300B78BE
:1043300080F88030B1F80130A0F88130CB7880F877
:1043400083304B68C0F88430002070470B78402BD6
:1043500001D0002070474FF0FF330B714B710023E9
:104360008B71CB7141220A704FF47A7202668365B9
:104370004023C365CB784361012070472DE9F041AC
:1043800084B007460C46B1F80120C2F3C0131E46A4
:10439000CD7825B1013D05EBD575C5F3470503ABD8
:1043A00000932B4602F03F023146F868FFF765FBA9
:1043B00080462378402B0DD0232B3DD080232370C3
:1043C0000023237163710223A3710623E37104B0F8
:1043D000BDE8F08130B30079FDF7E2FD028BE378B0
:1043E00023B9039B636043232370F0E713F0010FAD
:1043F00009D098F8073042EA034298F9083042EAB7
:1044000003626260EFE71549D8F8000003F016FF79
:1044100004F0DAF820F07F4398F9062043EA0263BB
:104420006360E0E78023237000232371637102231C
:10443000A3710623E371CAE70028BFD06368002B8D
:10444000BCD1B4F801202B4602F03F023146F86897
:10445000FFF72AFA60232370B9E700BF00007A440F
:104460000B78232B00D070472DE9F04184B005462E
:104470000C461646CB7883B94B68B3F1005F04D382
:1044800023F00052B2F5006F03D2AB6660232370B5
:1044900019E04FF0FF3383660CE0826E1746B2F1ED
:1044A000FF3F01D0012B11D095F9742090460AB13D
:1044B000022B1DD0802323700023237163710223FC
:1044C000A3710623E37104B0BDE8F081486880B2AF
:1044D000FDF756FDA5F870006368C3F3054385F842
:1044E000733063681B1685F874303828CED9E1E73D
:1044F000606840F3170003F04DFE154903F052FFCA
:10450000E86663681B1685F87230A6B102930190C5
:10451000CDF8008095F873303A4695F87010E86849
:10452000FFF7BAFC002385F874304FF0FF33AB6619
:104530000028ABDABEE702930190CDF8008095F831
:1045400073303A4695F87010E868FFF788FCE9E7A1
:1045500000007A4438B504460D460A7802F060033C
:10456000602B31D0B1F80130B3F5005F5AD003F4BD
:104570007F40B0F5045F55D0E16819B1B3F5405FF5
:1045800000F0858021B143F2010C634500F0858085
:1045900019B1B0F5445F00F0868045F203018B420B
:1045A00000F0868045F204018B4240F09B80402A57
:1045B00000F0918080232B7000232B716B710223FC
:1045C000AB710623EB7119E002F010020A700122B0
:1045D000072A0EDCE36DA16D5B1A402B09D0E36D59
:1045E000591CE16503F03F0323441B7EAB540132A9
:1045F000EEE7E36DA16D5B1A402B09D0A068217C2A
:1046000003685C6808232A4601F5B061A04738BDFD
:104610002B7843F001032B70C2F1080243EA4203F6
:104620002B70EBE7E87803F47F42B2F5045F0CD01F
:10463000382822D82B78232B0DD0402BDED1FDF744
:1046400045FC686043232B70D8E71B029BB21844DB
:10465000FDF796FCECE76968FDF71AFC10B96023DA
:104660002B70CBE780232B7030232B7100236B71D1
:104670000923AB710623EB71C0E780232B70002365
:104680002B716B710223AB710623EB71B6E700222D
:1046900029462046FFF7E4FEB0E7012229462046DE
:1046A000FFF7DEFEAAE729462046FFF767FEA5E7EB
:1046B000402A09D080232B7000232B716B710223B9
:1046C000AB710623EB7199E7E878FEF799FC686017
:1046D00043232B7092E7E878FEF7A4FC686043233D
:1046E0002B708BE729462046FFF718FE002885D15E
:1046F0008DE70000F0B583B004461546037C03F552
:10470000C0638B4207D0437C1E4603F5B0638B42E7
:1047100005D003B0F0BD1146FFF71CFFF9E7B2F872
:1047200001301F46A3F540539BB2012B08D92B78CB
:10473000803B18BF012384F878306B68E367E8E7B3
:10474000D378ABB1012BF2D11349C06E03F076FDE3
:1047500003F03AFF94F9723040EA036301930223B5
:1047600000933B46324623212046FFF7A5FDDEE7B6
:10477000B0F8703090F8732043EA024390F9742047
:1047800043EA02630193012300933B46324623210F
:10479000FFF792FDCBE700BF00007A4410B5044656
:1047A000B0F80130B3F5A04F0DD045F202029342AC
:1047B00034D0802323700023237163710223A371FB
:1047C0000623E37110BD0278402AEED14323037023
:1047D000C378022B13D007D863B1012B14D12E4B11
:1047E000D3F8EC374360EDE7032B0DD1FDF71AFC4E
:1047F0006060E7E7284BD3F8E8374360E2E7264BF1
:10480000D3F8F0374360DDE7802323700023237162
:1048100063710223A3710623E371D3E72378232B6B
:10482000C7D160232370E378012B21D009D9022B53
:1048300026D0032B26D1FDF7BBFB3920FCF79EFDCC
:10484000C0E7FBB9154B1B784BB172B6144B186817
:1048500008B1FFF70DFCFEF71EFB62B6B2E780233E
:104860002370002323716371A3710823E371A9E707
:1048700072B6FEF76BFB62B63920FCF77FFDA1E74D
:1048800002F084FF802323700023237163710223CD
:10489000A3710623E37195E700F0FF1F480700208E
:1048A0008C0A00202DE9F04184B00E461746984648
:1048B0009DF83040FDF774FB43681D461449154BC5
:1048C0001868FEF799F9ECB11349124B1868FEF716
:1048D00093F94FF084410A9803F0B0FC0D4B1C682B
:1048E0009DF92C30039303F06FFE0290CDF8048005
:1048F000009733462A4609492046FEF77DF904B061
:10490000BDE8F0810649034B1868FEF775F9E0E74A
:10491000F08D0008940A0020F88D0008008E000831
:10492000FC8D000870B505460846FDF7FBFE0646FF
:104930002021FDF7ABFE0378A3B1002300F8013B73
:104940000521FDF7C2FF04463046FDF705FB3A2876
:1049500012D02146FDF79CFA48B90A492846FEF7CD
:104960004BF903E008492846FEF746F970BD0749B0
:104970002846FEF741F9F9E7324605492846FEF791
:104980003BF9F3E7308E0008148E00083C8E0008D7
:10499000548E0008F8B507460846FDF7C3FE0546E5
:1049A00009E02A460F493846FEF726F9254605F85C
:1049B000016B2C2E14D12C212846FDF767FE0446EE
:1049C0000678002303702846FDF7C6FA3A28E8D097
:1049D000FDF77CFA024604493846FEF70DF9E5E793
:1049E000F8BD00BF748E00086C8E00082DE9F04100
:1049F00006460846FDF796FE07462021FDF746FECF
:104A000003789BB104460546002305F8013B384670
:104A1000FDF7A2FA80463A2829D06378212B0AD0E4
:104A20007E2B08D02F2B06D0002406E013493046F9
:104A3000FEF7E2F80FE0A51C012429461048FDF717
:104A400007FE50B974B101214046FDF7D3FA0D4974
:104A50003046FEF7D1F8BDE8F0810B493046FEF74D
:104A6000CBF8F8E701214046FDF7BCFAEFE73A46FC
:104A700006493046FEF7C0F8EDE700BF908E00080B
:104A8000A08E0008B88E0008A88E0008548E00087A
:104A90002DE9F04F8BB007460846FDF743FE03783B
:104AA000059346493846FEF7A7F800264FF0200840
:104AB00022E0434A039202930190CDF800A04B46B6
:104AC000424640493846FEF797F82846FDF7A0FAD7
:104AD00020B12846FDF79CFA01285AD1E2682369E3
:104AE0006169206802960190009137493846FEF7C7
:104AF00083F84FF02C080136382E51D8F5B22846ED
:104B0000FDF74EFA04462846FDF77CFA10F0010F37
:104B100002D0059B682BEED1D4F80490D4F808A0FD
:104B2000B4F818B02846FDF7D1F90290CDF804B0DA
:104B3000CDF800A04B46424624493846FEF75CF8C3
:104B40000DF11F0303930DF11E03029309AB0193B3
:104B50000DF11D03009307AB08AA29461C48006805
:104B6000FEF738FF0028B0D0DDF820809DF81C90BB
:104B70009DF91DA04FF08441099803F05FFB03F0FD
:104B800023FD9DF91E309DF81F20002A91D0114A67
:104B900090E711493846FEF72FF84FF02C08AAE7A6
:104BA0000E4BD3F8F0270E493846FEF725F80D498D
:104BB0003846FEF721F80BB0BDE8F08FDC8E000818
:104BC000D48E0008108F0008748F0008E08E000853
:104BD000900A0020CC8E0008608F000800F0FF1FB4
:104BE000C48F0008009000082DE9F0478AB00746FE
:104BF0000023059306930793089309930846FDF74E
:104C000091FD0478702C38D0632C44D02021FDF71E
:104C10003DFD0378002B47D0FDF784FD064620219B
:104C2000FDF734FD03780BB9642C44D1054600230D
:104C300005F8013B3046FDF78FF9064681462846C8
:104C4000FDF770FD80463A2E3AD0642C3DD000230B
:104C50001D464FF07E539A46042D62DC20214046CB
:104C6000FDF714FD06460378002B39D1022D37DC01
:104C700059493846FDF7C0FF1AE0584B1B68002B16
:104C8000FBD1564C27605649564B1868FEF729FF52
:104C9000002323600CE0534B1868FEF77AFF52495B
:104CA0003846FDF7A9FF03E04B493846FDF7A4FF5E
:104CB0000AB0BDE8F08748493846FDF79DFFF7E7A1
:104CC0004A493846FDF798FFF2E73146454B1868E8
:104CD000FEF73DFE024646493846FDF78DFFE7E701
:104CE000002333704046FDF704FD032D0DD00AABC1
:104CF00003EB850343F8140C30460130FDF712FD39
:104D000080462B4601331D46A6E710214046FDF79D
:104D1000DCFD03F03FFA4FF05E5103F08FFA82465C
:104D2000EAE7742C1FD09DF924300293CDF804A03B
:104D30009DF91C3000939DF81830059A4946294882
:104D40000068FFF7A9F810F1030F2ED01CDD10F159
:104D5000020F24D0B0F1FF3F33D1059A25493846E0
:104D6000FDF74AFFA4E79DF924300293CDF804A093
:104D70009DF91C3000939DF81830059A4946194852
:104D80000068FFF76CF8DEE710F1050F13D010F1A3
:104D9000040F16D118493846FDF72EFF88E7069A0A
:104DA00016493846FDF728FF82E7079A1449384626
:104DB000FDF722FF7CE7059A12493846FDF71CFFF4
:104DC00076E7012806DD104B024610493846FDF70C
:104DD00013FF6DE70E4BF7E730900008940A0020B0
:104DE000A5480008900A00200C9000084490000894
:104DF0005890000870900008D49000088490000833
:104E000098900008AC90000808900008F090000806
:104E1000C88E000810B50D4B1B7893B1044672B6CE
:104E20000B4B1868FFF724F90A492046FDF7E4FE0A
:104E3000FEF731F8024662B607492046FDF7DCFE70
:104E400010BD0649FDF7D8FEFAE700BF490700206C
:104E5000900A00201C9100082C910008489100083D
:104E600010B5044672B6FEF771F862B638B939204B
:104E7000FCF784FA04492046FDF7BEFE10BD034945
:104E80002046FDF7B9FEF9E78C910008A0910008D3
:104E900008B502F07BFC2DE9F84305468846174625
:104EA000002604E023782C2B16D1BE4214D22C21EC
:104EB0002846FDF7EBFB044690F8009000230370B2
:104EC0002846FDF749F8254605F8019B3A28E9D020
:104ED00008F806000136E5E73046BDE8F883000033
:104EE0002DE9F04184B006460846FDF71BFC044658
:104EF000FDF7FFFB804620212046FDF7C7FB037826
:104F00004BB10A2201A90130FFF7C5FF0746304621
:104F1000FDF796F820E018493046FDF76DFE04B025
:104F2000BDE8F08104F110036B4413F80C0CFCF79E
:104F3000CDFF03462A4611493046FDF75DFE013498
:104F40000F4DBC42EEDB0F493046FDF755FEB8F180
:104F5000FF3F01D008F1FF383046FDF76BF800281D
:104F6000DDD1804502DD084D0024EAE7B8F1FF3FBE
:104F7000D5D1054D0024E4E7B8910008D891000888
:104F8000E08D000888910008C88E000808B5042844
:104F900056D019DC02282FD003283FD0012811D188
:104FA000394B3A4A1A603A4B3A4A1A603A4B3B4AF2
:104FB0001A6011203A4B1860FCF78EFF394B1860CD
:104FC000012008BD0020FCE705284BD0062811D1A0
:104FD0002D4B354A1A602E4B344A1A602E4B344AF8
:104FE0001A6016202E4B1860FCF776FF2D4B1860C8
:104FF0000120E6E70020E4E7234B2E4A1A60244B09
:105000002D4A1A60244B2D4A1A601220244B186036
:10501000FCF762FF234B18600120D2E71A4B284AA5
:105020001A601B4B274A1A601B4B274A1A60132031
:105030001B4B1860FCF750FF1A4B18600120C0E7AB
:10504000114B224A1A60124B214A1A60124B214A14
:105050001A601420124B1860FCF73EFF114B1860C9
:105060000120AEE7084B1C4A1A60094B1B4A1A6024
:10507000094B1B4A1A601520094B1860FCF72CFFDE
:10508000084B186001209CE7A00A00201C080020A3
:105090009C0A00200C080020980A00201408002018
:1050A000C40A0020C80A0020340800202408002078
:1050B0002C080020CC080020BC080020C4080020D8
:1050C000E40800207C0800208408002074080020E8
:1050D000540800205C0800204C0800203C080020F8
:1050E0004408002070B500240FE0174B1B68998816
:1050F000186801F0F0FD154B1B689988186801F0DD
:10510000E8FD134B00221A702C46042C1BDC651C96
:105110002846FFF73BFFB0B10E4B53F82430002B6D
:10512000E3DD094E33689988186801F0DAFD3068CC
:10513000FCF7C4F80028E7D0064A52F82430013BB7
:1051400042F82430E0E770BD980A00209C0A002055
:10515000A80A0020AC0A00202DE9F04104460D46C3
:10516000FFF714FF48B1274B1B7833B9631E1A466B
:105170001E46254B53F822300BB1BDE8F081234B7E
:105180001878FCF7A9FE0746C4B2FF220021284682
:1051900000F0FCFB8046C3B21D469C4219D3AC42D2
:1051A000EBD91B4B1B689988186801F094FD194BCB
:1051B0001B689988186801F08EFD5FFA88F1FBB2D0
:1051C0005B1A114A42F82630104B1878FCF7A6FEFD
:1051D000D3E70F4B1B689988186801F07CFD0D4BD5
:1051E0001B689988186801F074FD5FFA88F1FBB2BA
:1051F000CB1A054A42F82630044B1878FCF78EFE8D
:10520000CDE700BFA80A0020AC0A0020C40A002095
:105210009C0A0020A00A0020F8B5134B01221A7046
:105220000024042C1EDC651C2846FFF7AFFEC8B125
:105230000E4F002647F824600D4B1B6899881868AC
:1052400001F049FD0B4B1B689988186801F043FD7C
:10525000FF2347F824303146074B1878FCF75EFEF1
:105260002C46DEE7F8BD00BFA80A0020AC0A0020EB
:105270009C0A0020A00A0020C40A002008B5054BA3
:105280009988186801F027FD00211720FCF746FED9
:1052900008BD00BFEC07002008B5054B99881868C9
:1052A00001F017FD01211720FCF738FE08BD00BFF3
:1052B000EC07002010B5044601460C20FCF72EFE3A
:1052C0000B20FCF709FE134B1860A04204D005DB4D
:1052D000104B1B68A3420FDC002010BD0E4B0122B7
:1052E0001A700E4B9988186801F0F3FC0C4B9988E2
:1052F000186801F0F0FCEBE7074B00221A70074B2F
:105300009988186801F0E7FC054B9988186801F046
:10531000E0FCE1E7A40A00204A0700206C08002016
:10532000640800200000000010B5044601784378AE
:105330001B0203F4E063194301EB810149002E20B5
:10534000FCF7ECFD6378A078400140EAD300C0F39D
:10535000090002F099FB0EA3D3E9002302F0FEFB43
:1053600002F00EFE01463020FCF7E6FDA378E1785E
:10537000890041EA931123799B0203F48063194366
:1053800001EB810149003220FCF7C8FD10BD00BFD0
:105390009A9999999999B93F10B50446C078A3781C
:1053A00043EA002002F070FB09A3D3E9002302F0D6
:1053B000D5FB02F0E5FD01463020FCF7BDFD21796B
:1053C00028393120FCF7AAFD10BD00BFAFF30080E3
:1053D0009A9999999999B93F30B583B005460A20B1
:1053E000FCF77AFD04462F20FCF776FD8DF80000CF
:1053F00003128DF801308DF8024024128DF803401D
:1054000000238DF80430984211DD01238DF805301A
:1054100000238DF806308DF807302B685C68082370
:105420006A4640F281212846A04703B030BD0023E0
:10543000ECE708B56422002100F0A8FA00EB800038
:1054400041002F20FCF76AFD08BD08B53020FCF7AD
:1054500043FD08BD10B5044601462A20FCF75EFD59
:1054600050220021204600F091FA40F2E73300225A
:105470000249C0B200F094FA10BD00BF000800401D
:1054800010B5044601462C20FCF748FD50220021AF
:10549000204600F07BFA40F2E73302220249C0B214
:1054A00000F07EFA10BD00BF0008004038B50024AF
:1054B000304D22462B46304800F024FC22462B4635
:1054C0002E4800F01FFC22462B462D4800F01AFC07
:1054D00022462B462B4800F015FC22462B462A4834
:1054E00000F010FC22462B46284800F00BFC224618
:1054F0002B46274800F006FC22462B46254800F0A4
:1055000001FC22462B46244800F0FCFB22462B4699
:10551000224800F0F7FB22462B46214800F0F2FB20
:1055200022462B461F4800F0EDFB22462B461E4824
:1055300000F0E8FB22462B461C4800F0E3FB224625
:105540002B461B4800F0DEFB22462B46194800F094
:10555000D9FB22462B46184800F0D4FB22462B46A6
:10556000164800F0CFFB22462B46154800F0CAFB38
:1055700038BD00BF0000E03F880C0020700C002008
:10558000580C0020400C0020280C0020100C00209B
:10559000F80B0020E00B0020C80B0020B00B00200F
:1055A000980B0020800B0020680B0020500B00207F
:1055B000380B0020200B0020080B0020F00A0020F0
:1055C000D80A00202DE9F04F83B0B948FDF7F6FB6B
:1055D00002F0DCFD0646B748FDF7F0FB02F0D6FD11
:1055E0008246B548FDF7EAFB02F0D0FD05464FF0D4
:1055F00000084FF08B47DFF8C492B14C236800934A
:1056000043463A464946304600F0A4F98346AD4E3B
:105610003368009343463A46AB49504600F09AF946
:1056200082462368009343463A464946284600F09E
:1056300091F98046206802F0C7FF0546584602F0FF
:10564000C3FF2A46002100F0A1F902F0A3FD07469E
:10565000306802F0B9FF0546504602F0B5FF2A4611
:10566000002100F093F902F095FD0546206802F054
:10567000ABFF0446404602F0A7FF2246002100F09F
:1056800085F902F087FD0446384602F00FFA02461B
:105690000B468E4800F047FB02F072FC01461820D2
:1056A000FCF74AFC284602F001FA02460B468848FD
:1056B00000F039FB02F064FC01461920FCF73CFCC9
:1056C000204602F0F3F902460B46824800F02BFB1D
:1056D00002F056FC01461A20FCF72EFC7E48FDF72E
:1056E0006DFB042100F09CFA02F0E0F902460B4643
:1056F0007A4800F018FB04460D46794B186802F012
:10570000D5F902460B462046294602F06FF802F012
:1057100037FC01461B20FCF70FFC7248FDF74EFBDF
:10572000042100F07DFA02F0C1F902460B466E48F2
:1057300000F0F9FA04460D466C4B186802F0B6F911
:1057400002460B462046294602F050F802F018FCAB
:1057500001461C20FCF7F0FB6548FDF72FFB0421F8
:1057600000F05EFA02F0A2F902460B46614800F032
:10577000DAFA04460D46604B186802F097F90246C3
:105780000B462046294602F031F802F0F9FB0146AB
:105790001D20FCF7D1FB5948FDF710FB042100F058
:1057A0003FFA02F083F902460B46554800F0BBFA77
:1057B00004460D46534B186802F078F902460B4632
:1057C0002046294602F012F802F0DAFB01461E20BC
:1057D000FCF7B2FB4C48FDF7F1FA042100F020FA87
:1057E00002F064F902460B46484800F09CFA044671
:1057F0000D46474B186802F059F902460B46204601
:10580000294601F0F3FF02F0BBFB01461F20FCF725
:1058100093FB4048FDF7D2FA042100F001FA02F0B0
:1058200045F902460B463C4800F07DFA02F0A8FB21
:1058300001462120FCF780FB3848FDF7BFFA042120
:1058400000F0EEF902F032F902460B46344800F05F
:105850006AFA02F095FB01462020FCF76DFB314807
:10586000FDF7ACFA042100F0DBF902F01FF9024663
:105870000B462D4800F057FA02F082FB0146222029
:10588000FCF75AFB2948FDF799FA042100F0C8F902
:1058900002F00CF902460B46254800F044FA02F0EB
:1058A0006FFB01462320FCF747FB03B0BDE8F08FF8
:1058B000000900202809002024090020008013444A
:1058C000580700205C0700200000B943880C002026
:1058D000700C0020580C00200C090020400C002007
:1058E0005407002008090020280C00205007002041
:1058F00004090020100C00204C0700201009002093
:10590000F80B0020D00A0020F8080020E00B00204F
:10591000CC0A002020090020500B00201C09002088
:10592000380B002018090020F00A0020140900207C
:10593000D80A002008B5FFF7B9FD08BDA0EB010C9F
:105940000098C01A00FB0CFC521A9CFBF2FC0CEBFA
:1059500003007047F8B50F4616461C4602F064FB7C
:1059600005462146069802F05FFB0146284602F0F4
:1059700065FC05463946304602F056FB014628468E
:1059800002F010FD214602F051FBF8BD904202DC0E
:10599000884202DB70471046704708467047000097
:1059A00038B58446084611461A46BCF1640F01D941
:1059B0004FF0640C541CACFB04C4CCF3130E4FEA40
:1059C0001C5343EA0433C3F313039E44C4F3132369
:1059D0009E440EEB147E114BA3FB0E53DB0803EB2E
:1059E000830303EB8303AEEB030EBCEB0E0C64F1FD
:1059F0000004DFF82CE00B4B03FB0CF30EFB04332D
:105A0000ACFB0ECE73444FEA9C0C4CEA837C62459F
:105A100000D3624601F053FD38BD00BF1F85EB5136
:105A2000295C8FC2F5285C8F7047000010B50446D2
:105A30000220FCF751FA012800D010BD207802F0B6
:105A4000A5FB1C4902F0F0FA01462220FCF774FA8B
:105A50000320FCF7A5FAC168026952114911607868
:105A6000FFF794FF02F096FB01460320FCF764FA6F
:105A70000820FCF795FAC168026952114911E078D3
:105A8000FFF784FF02F086FB01460820FCF754FA7A
:105A90000920FCF785FAC168026952114911607941
:105AA000FFF774FF02F076FB01460920FCF744FA89
:105AB000C3E700BF00002042F0B585B004462E20A9
:105AC000FCF70AFA07461B20FCF706FAFF22002122
:105AD0002830FFF75BFF8DF808001C20FCF7FCF96D
:105AE000FF2200212830FFF751FF8DF809001D200B
:105AF000FCF7F2F9FF2200212830FFF747FF8DF86D
:105B00000A001820FCF7E8F9FF22002100EB8000D2
:105B1000FFF73CFF8DF80B001920FCF7DDF9FF22A1
:105B2000002100EB8000FFF731FF8DF80C001A20F8
:105B3000FCF7D2F9FF22002100EB8000FFF726FFDF
:105B40008DF80D002920FCF7C7F900EB8000FF223B
:105B500000214000FFF71AFF8DF80E002B20FCF704
:105B6000BBF900EB8000FF2200214000FFF70EFF91
:105B70008DF80F0002AD23685E6808232A4640F2C4
:105B800032712046B0471E20FCF7A6F9FF22002103
:105B90002830FFF7FBFE8DF808001F20FCF79CF96A
:105BA000FF2200212830FFF7F1FE8DF809002420A4
:105BB000FCF792F9FF220021FFF7E8FE8DF80A00BA
:105BC00028238DF80B303320FCF786F9FF220021C3
:105BD0002830FFF7DBFE8DF80C000B20FCF77CF97A
:105BE000FF220021FFF7D2FE8DF80E00FA2300936A
:105BF00014234FF4FA524FF448713846FFF79EFED3
:105C0000FF220021FFF7C2FE8DF80F0023685E68B7
:105C100008232A4640F233712046B04705B0F0BD54
:105C200005296AD82DE9F0470C46002398461D4601
:105C300039E087424ADB4DE0012E27D0C01B02F03D
:105C4000A9FA8146012E26D04346D81B02F0A2FABB
:105C50008246670004EB4403DFF8A48008EB83036B
:105C60001E79304602F096FA494602F0E7FA5146AC
:105C700002F098FB8146274438F9270005FB06000F
:105C800002F088FA494602F0CFF934E0381A02F0FF
:105C900081FA8146D6E74346F81A02F07BFA82463B
:105CA000D7E70135B84604EB4402154B03EB8203FA
:105CB0005B79AB4218D904EB4402114B03EB82032E
:105CC0009A6832F815709E79012EB2D0002EE8D174
:105CD0008742E6DC002DAFD104EB4404084B33F9D6
:105CE000240002F057FA06E0054B03EB8203B3F9F8
:105CF000020002F04FFABDE8F0870020704700BFB5
:105D0000B49300084DF804BD93469C46002200233E
:105D1000C0E90023C0E9022300230374C0E902BCE8
:105D20005DF804BB70472DE9F04104461046194662
:105D3000237CCBB1D4E90278D4E900562A46334615
:105D400001F054FD02460B463846414601F006FF7D
:105D500002460B462846314601F04AFDC4E90001DF
:105D6000D4E90001BDE8F081C4E9000101232374F6
:105D7000F6E770B516461C465A2B02D84F2C1AD996
:105D800070BD0920FCF7A8F805461C20FCF7A4F814
:105D9000281A02F0FFF94FF0804102F00BFC0028B6
:105DA000ECD03378053BDAB213F0800F01D03270BB
:105DB000E6E78022FBE70420FCF78EF80446222069
:105DC000FCF78AF8201A02F0E5F94FF0804102F062
:105DD000F1FB0028D4D0337805333370D0E770B5A9
:105DE0000E4614465A2A02D84F2C14D970BD1B20D7
:105DF000FCF772F805460820FCF76EF8281A02F046
:105E0000C9F94FF0804102F0D5FB0028ECD033787F
:105E1000053B3370EAE72220FCF75EF804460520D4
:105E2000FCF75AF8201A02F0B5F94FF0804102F061
:105E3000C1FB0028DAD0337805333370D6E770B56C
:105E4000044600260660C0F803602620FCF75AF8D6
:105E500020702720FCF756F860702520FCF752F8D8
:105E6000A0702220FCF738F805460420FCF734F82F
:105E7000A842D4BF00200120E0700520FCF72CF8D8
:105E8000A842ACBF0020012020712320FCF724F899
:105E900005460720FCF720F8A842ACBF00230123E9
:105EA0006371A671A378CBB10122237903B10223D8
:105EB0001A43A84214DA04231343227802B10822B9
:105EC0001A43637803B110231343E27852B12021BF
:105ED00019431020FCF722F8204670BD1A46E4E76B
:105EE0000023E9E71146F3E72DE9F04180460C462F
:105EF00015462020FBF7F0FF02F04CF90646222061
:105F0000FBF7EAFF02F046F907461C20FBF7E4FF27
:105F100002F040F998F8032082F001020123236087
:105F20002271A7600021E160237466610222A261F0
:105F30002377206298F804205A402B602A71AF60C2
:105F4000E9602B746E61BDE8F08100002DE9F04737
:105F500082460D460024174B9946264600E0013440
:105F6000022C15DC04EB44039F0005EB83031A7934
:105F7000002AF4D09968504602F056F8804601464F
:105F8000484602F017FB0028E9D0EE59C146E6E783
:105F90002020FBF7A1FF02F0FDF8074902F0ECFA20
:105FA00030B931460F20FBF7B9FF3046BDE8F08726
:105FB0000226F6E7FFFF7F7F0000A0C12DE9F04732
:105FC00082460D4600246FF400039946264600E001
:105FD0000134012C15DC04EB44039F0005EB830323
:105FE0001A79002AF4D09968504602F01DF88046CC
:105FF0000146484602F0C0FA0028E9D0EE59C146F1
:10600000E6E731460E20FBF789FF3046BDE8F08712
:106010002DE9F041074688461920FBF75DFF02F0A5
:10602000B9F804461A20FBF757FF02F0B3F805460B
:10603000FFF70BFA06465649204602F0BBFA002845
:1060400066D14FF07E51284602F096FA002871D1B1
:106050004146384601F0E8FF05464E4B196802F00C
:10606000EDF84D4C216801F0E1FF064620604B4BF6
:106070001968284602F0E2F8002102F07DFA0028B3
:106080006AD1464B1D60444B1B681E464449184666
:1060900002F0D4F8294601F0C9FF0446414902F054
:1060A0006BFA00B93F4C0021204602F083FA00B998
:1060B00000243C49204602F073FA78B12946394859
:1060C00001F0B2FF364902F06DF90146074630464D
:1060D00002F070FA002846D12F4B1E6000212046A6
:1060E00002F054FA002840D1204602F093FAC0B2E0
:1060F000FFF79FF92C49204602F0A0F802F08AFA37
:10610000FF220521C0B2FFF741FCC0B2BDE8F0811B
:10611000F0B2441E002C00DC0024E0B2FFF789F945
:10612000204602F037F8204902F088F802F072FAAF
:10613000C0B2EBE7F0B2441E002C00DC0024E0B259
:10614000FFF777F9204602F025F8174902F076F8B4
:1061500002F060FAC0B2D9E74FF07C51304602F04D
:106160006DF820608DE73E46B6E705F100400C492A
:1061700002F018F90646084B1B681D46194602F046
:1061800019FA10B9044B1D60AEE73546FAE700BFB7
:106190000000F04160070020A40C0020A00C0020AB
:1061A000CDCCCC3D0000C8423333234070B594B011
:1061B00012AC2046FFF743FE03AA09A92046FFF7C9
:1061C00093FE2020FBF788FE01F0E4FF02F0FCF9CB
:1061D00004464623009332230A226FF01301FFF78F
:1061E000ADFB0546452800DD4625322D00DC322575
:1061F0000A230093052332221E212046FFF79EFB2F
:106200000446092800DD0A24052C00DC0524284664
:1062100001F0C0FF09A9FFF799FE0546204601F0ED
:10622000B9FF03A9FFF7CAFE06462F20FBF754FE6D
:1062300050221E21FFF7AAFBC4B22046FFF720F927
:106240002046FFF707F99DF84C3013B19DF84D201B
:1062500052BB9DF84A2002B136B39DF8481011B9DF
:106260009DF8490008B1012D1ED029B99DF84900BB
:1062700010B99DF84B0008B1002D7BD00AB1012E5A
:1062800078D029B99DF8491011B99DF84B1009B182
:10629000022D73D002B953B19DF84B303BB936B9DA
:1062A0000520FFF707F802E00220FFF703F89DF84A
:1062B000483053B99DF849303BB99DF84B30002B1D
:1062C00062D09DF84A30002B5ED101210D20FBF7F2
:1062D00025FE0920FBF700FE01F05CFF04461C20B0
:1062E000FBF7FAFD01F056FF01462046FFF790FE4E
:1062F0000446FFF7AAF8C3B29DF8482002B1FF2276
:106300008DF809209DF8492002B1FF228DF80A205E
:106310009DF84B2002B1FF228DF80B200DF10B02EE
:106320000DF10A010DF10900FFF723FDFEF7B4FF9F
:106330009DF80B100220FEF70FFF9DF80A100320B6
:10634000FEF70AFF9DF809100420FEF705FF022D55
:1063500018D021460520FEF7FFFE00210620FEF79B
:10636000FBFE022D00D0002421460120FEF7F4FEA2
:1063700014B070BD0320FEF79DFF98E70420FEF7E0
:1063800099FF94E70021E5E79DF84A3033B99DF87D
:106390004C301BB99DF84D30002B48D002210D2008
:1063A000FBF7BCFD0820FBF797FD01F0F3FE044668
:1063B0001B20FBF791FD01F0EDFE01462046FFF7A3
:1063C00027FE0446FFF741F8C2B29DF84A3003B1F8
:1063D00023468DF80A309DF84C301BB99DF84D309E
:1063E00003B91C468DF80B400DF10B010DF10A00AD
:1063F000FFF7F5FCFEF742FF00210220FEF7ACFE9E
:1064000000210320FEF7A8FE00210420FEF7A4FED1
:106410009DF80B100520FEF79FFE9DF80A10062040
:10642000FEF79AFE00210120FEF796FEA0E719462E
:106430000D20FBF773FDFEF721FFFF210220FEF781
:106440008BFEFF210320FEF787FEFF210420FEF7CD
:1064500083FEFF210520FEF77FFEFF210620FEF7C9
:106460007BFEFF210120FEF777FE0020FEF7E1FF13
:106470007EE78368DB075EBF836843F001038360C8
:1064800070470000034AD2F8083443F40003C2F80E
:106490000834704700200140836823F460230B43D5
:1064A0008360836843F4801383607047836800F1DE
:1064B000080243F00803836013681B07FCD470478D
:1064C000836843F00403836070478068C0F38000F2
:1064D000704708B50246FFF7F3FF1046FFF7F5FFD8
:1064E0000028FAD108BD0022134610B501FA02F4C3
:1064F00003321E2A43EA0403F8D10022036101FAA1
:1065000002F40332182A43EA0403F8D1C36010BD31
:10651000836823F0010383607047436843F480730A
:1065200043607047836823F4006383607047836827
:1065300043F00203836070471029F0B510D80023A0
:106540004FF0010E1F469C461D465FFA8EF6B14283
:1065500007D2013945EA0155C562C0F830C047632A
:10656000F0BDBEF1060F147806D89C4027430EF10B
:10657000010E01320533E8E7073E052E95BFA3F172
:106580001E06A3F13C06B440B44094BF4CEA040C90
:106590002543ECE7836800F1080243F4800383603D
:1065A00013685B02FCD47047836843F48073836094
:1065B00070470000044B98420CBF40F2192040F293
:1065C0001A2000F050BD00BF006400402DE9F341E7
:1065D00004689DF8208024F00204046004689DF89B
:1065E00024E044F0010404604FF6FF749DF828C0D5
:1065F0009DF83C609DF840700194019C051D013C94
:10660000019414B14468E407F7D54468E40770D5F1
:106610000024C461002951D0016841F0800101606B
:10662000002A4FD0026842F040020260002B4DD099
:10663000036843F0200303600368B8F1000F49D0FA
:1066400043F0100303600368BEF1000F45D043F030
:10665000080303600368BCF1000F41D043F004035A
:106660000360C369002F3ED043F00043C361C36998
:10667000002E3BD043F08043C3610E9B0D99013B3C
:10668000C3F309030B430C99C2690B430B990B43EA
:106690001343C361036823F0010303604FF6FF73E4
:1066A0000193019B013B019313B12B68DB07F8D4E5
:1066B000406800F0010002B0BDE8F081016821F0FF
:1066C0008001ACE7026822F04002AEE7036823F0E5
:1066D0002003B0E723F01003B4E723F00803B8E782
:1066E00023F00403BCE723F00043BFE723F080431B
:1066F000C2E70120DFE70000F0B50125234C9DF83B
:106700001C70D4F80066854046F00106C4F80066A7
:10671000D4F81C6626EA0506C4F81C6639B3D4F81A
:106720000C162943C4F80C1632B3D4F804262A43B5
:1067300000F1006000F6C840C4F80426C000036001
:10674000069A059B4360114BDAB1D3F814262A430D
:10675000C3F8142627B1D3F81C262A43C3F81C26F5
:10676000D3F8002622F00102C3F80026F0BDD4F8C9
:106770000C1621EA0501D5E7D4F8042622EA050221
:10678000D6E7D3F8142622EA0502E1E700600040CC
:1067900030B4BDF808409DF8105043EA044302931A
:1067A00041EA024300220495114630BCFFF7A4BF22
:1067B00030B4BDF808409DF8105044EA03440495F5
:1067C00042EA01430294012230BC0021FFF794BF4A
:1067D0001FB5009201229DF81840CDE901340B4607
:1067E0001146FFF789FF04B010BD43690B434361B5
:1067F0007047436923EA0103436170472DE9F04183
:10680000064680689DF818804701079D26D4B06829
:10681000040127D4B068C00050D54FF4D0770220CF
:10682000BC191AB3C90041F00401B9511BB1236866
:1068300043F002032360636823F00F036360626820
:1068400008F00F031343636008F1FF33072B2BD8C5
:10685000DFE803F02724211C1916130E4FF4C0772C
:106860000020DDE74FF4C8770120D9E74905DCE7D0
:106870004FF0000CEB7963F31F6CAB7963F3174CAB
:106880006B7963F30F2C2B7963F3070C4FF0000E39
:10689000EB7863F31F6EAB7863F3174E6B7863F39B
:1068A0000F2E2B7863F3070EC4F808E0C4F80CC071
:1068B000236843F001032360BDE8F0814FF0FF300F
:1068C000FAE721B9C36843F02003C3607047036946
:1068D00043F020030361704719B9C06800F003005A
:1068E00070470069FAE72DE9F341DDF8208004469E
:1068F000DDE90C57FFF7F0FF4FF4D87C06464FF464
:10690000E070CDE900C002A800EB810050F808EC6F
:1069100054F80E0004EB0E0C10F0040015BF01201B
:1069200088F8000088F8000054F80E0016BF54F8EC
:106930000E00400DC008186054F80E00099BC0F30B
:1069400040001870DCF804000A9B000A1870DCF89C
:1069500004000B9B00F00F0018701FB1DCF804302E
:106960001B0C3B80DCF80800DCF80C30C0F3072778
:1069700028706F70C0F30747C0F30760E870C3F377
:1069800007202B716871C3F30740C3F30763AF702F
:10699000A871EB7112B12046FFF793FF304602B0A9
:1069A000BDE8F081024A936843F0010393607047A9
:1069B00000300240014B18601868704700300240F8
:1069C000002310B5044A8B4201DB106810BD50F85B
:1069D000234001331460F6E700300240014BB3F866
:1069E000E007704700F0FF1F14230022013903FB6A
:1069F00001039A60DA601A615A610F2342688900C4
:106A00008B40134343607047013989008A404260DC
:106A100070470139036889008A401A4214BF012077
:106A20000020704714230139594308300B5823F4D0
:106A300040630B500B5813430B507047142301391C
:106A4000594308300B5823F440730B500B58134331
:106A50000B50704714230139594308300B5843F049
:106A600080030B50704714230139594308300B58E9
:106A700043F020030B500B5823F480430B50704716
:106A800014230139594308300B5843F010030B50BD
:106A9000704714230139594308300B5843F0010360
:106AA0000B50704714230139594308300B5823F019
:106AB00001030B5070471423013903FB0100836865
:106AC000DB0758BF026170471423013903FB010043
:106AD0008368DB0758BF426170471423013959436B
