:020000040800F2
:1010000000500020FD820008F9820008F7820008E5
:10101000F7820008F7820008F7820008000000004D
:10102000000000000000000000000000F98200083D
:10103000F982000800000000F9820008F982000827
:10104000F7820008F7820008F7820008F78200089C
:10105000F7820008F7820008F7820008F78200088C
:10106000F7820008F7820008F7820008F78200087C
:10107000F7820008F7820008F7820008F78200086C
:10108000F7820008F7820008F78200086936000836
:101090004936000859360008F7820008591400083C
:1010A000F7820008F7820008F7820008F78200083C
:1010B000F78200084914000891140008F78200081C
:1010C000F7820008F7820008F7820008F78200081C
:1010D000F7820008F7820008F7820008F78200080C
:1010E000F7820008F7820008F7820008F7820008FC
:1010F000F7820008F7820008F7820008F7820008EC
:10110000F7820008F7820008F7820008F7820008DB
:10111000F7820008F7820008F7820008F7820008CB
:10112000F7820008F7820008F7820008F7820008BB
:10113000F7820008F7820008F78200089736000857
:101140007736000887360008F7820008F782000823
:1011500008B58446084611461A46DCF8043098471C
:1011600008BD08B58368984708BD00B54FF0000C6E
:10117000E64604E000BF1CF1010C4EF1000E4B01ED
:1011800043EAD0634201121A63EB01039B0043EA76
:1011900092739200121841EB03031B0143EA12738E
:1011A000120194457EEB0303E4DB00BD10B506F0AD
:1011B000D7FB1D4B186800F080FE07F007FE1B49A7
:1011C00007F00CFF0146482000F0EEFE184801F041
:1011D0002DFE07F0F7FD174907F000FF01464720F5
:1011E00000F0E2FE06F0EAFD01F016FF124C206866
:1011F00005F038FA206804F0A7FC04F0D1FE05F0F1
:101200005FFD0E4B186802F0E3FA0D4B1B782BB90B
:101210000B4A137883F00103137010BD094B9988B2
:10122000186806F094FBF3E7F8090020000020415D
:10123000540B002000004B43F4090020F00900206B
:10124000D8090020EC0A002008B5024B186804F009
:10125000ADFC08BDF409002008B503F07BFF08BD14
:1012600008B50346084640F2C722934239D0B3F589
:10127000327F0BD340F2A132934216D023D840F2F2
:101280006632934215D104F023FC25E040F2A622F9
:10129000934223D040F2A722934202D104F09EFB56
:1012A0001AE040F22122934216D1184604F036FC8F
:1012B00012E011D840F2D1229342F6D040F221320E
:1012C0009342F2D008E040F245529342EDD0B3F59C
:1012D000DC6F01D105F08CF9002008BD04F0E0FBC3
:1012E000FAE704F00AFCF7E710B51F4C00224FF4B0
:1012F000DC61206802F0FDF9002240F2A72120689D
:1013000002F0F7F9002240F2A621206802F0F1F97C
:10131000002240F2C721206802F0EBF9002240F2DF
:101320006631206802F0E5F9002240F221212068B0
:1013300002F0DFF9002240F2D121206802F0D9F951
:10134000002240F22131206802F0D3F9002240F25D
:10135000A131206802F0CDF9002240F24551206809
:1013600002F0C7F910BD00BFF409002010B5044613
:101370008188006806F0E8FA003818BF0120A379D8
:10138000181A18BF012010BD08B5214B1B6833B1D6
:1013900006F014FD1E4B1B68C01AC7281BD91D4838
:1013A000FFF7E4FF01462A2000F0F0FD1A48FFF79E
:1013B000DDFF01462B2000F0E9FD1848FFF7D6FFBE
:1013C0000146292000F0E2FD1548FFF7CFFF014656
:1013D0002C2000F0DBFD04F02FFC07F011FF01468C
:1013E0002D2000F0D3FD04F03BFC07F009FF01467F
:1013F0002F2000F0CBFD04F047FC03F0ABFF04F01E
:1014000077F801460E2000F0C1FD04F055FD08BD3F
:101410004C0F0020540A0020640A00205C0A0020BF
:10142000340B0020FEE7000000B1704710B5054BFB
:101430001B681C4600F088FDC1B2204602F06EFF1A
:1014400010BD00BFEC09002008B5024B186800F081
:10145000FBFC08BDF809002008B54FF4807006F0C9
:1014600035F950B1084B1B7843B1084A1368013372
:1014700013604FF4807006F023F908BD034A136827
:10148000013B1360F5E700BFAA090020E409002032
:1014900008B50821214806F0F3FC28B910211F489F
:1014A00006F0EEFCE8B908BD02211C4806F053FE28
:1014B0001B4B1B683BB183420CD8C31A194A1360FB
:1014C000194B01221A70164B18600821134806F0B8
:1014D000DDFCE3E7C31A03F543435033114A1360BD
:1014E000EEE703210D4806F036FE104B1B683BB1BA
:1014F00083420CD8C31A0E4A13600E4B01221A7095
:101500000A4B18601021054806F0C0FCCBE7C31A4F
:1015100003F543435033064A1360EEE700080040EA
:10152000D4090020E0090020DA090020D0090020B9
:10153000DC090020D9090020F0B5ADF61C0D00F043
:101540005DFA00F021FBD24E00223146D14801F075
:10155000B1FC01223146D04801F0ACFC02223146F8
:10156000CE4801F0A7FC03223146CD4801F0A2FC91
:1015700004223146CB4801F09DFC05223146CA4881
:1015800001F098FCC94D00222946C94801F092FC9F
:10159000C84C00222146C84801F08CFC012221469B
:1015A000C64801F087FC02222146C54801F082FCB2
:1015B00003222146C34801F07DFC04222146C24893
:1015C00001F078FC05222146C04801F073FC042399
:1015D0004FF480723146BE4801F019F907234FF4E9
:1015E00000423146BB4801F012F90023042229468B
:1015F000B94801F00CF9072308222946B74801F041
:1016000006F9072310222946B54801F000F90723FF
:1016100020222946B34801F0FAF80923402229463E
:10162000B14801F0F4F8092380222946AF4801F0BF
:10163000EEF804234FF480722946AD4801F0E7F834
:1016400004234FF400722946AA4801F0E0F8092368
:101650004FF400622946A84801F0D9F807234FF457
:1016600080422946A54801F0D2F807234FF4806252
:101670002146A34801F0CBF807234FF4006221462E
:10168000A04801F0C4F807234FF4805221469E4839
:1016900001F0BDF807234FF4005221469B4801F0AA
:1016A000B6F807234FF480422146994801F0AFF87D
:1016B00004F58064072301222146964801F0A7F82B
:1016C000072302222146944801F0A1F807230422AF
:1016D0002146924801F09BF80723082221469048B2
:1016E00001F095F80723102221468E4801F08FF86B
:1016F0000723202221468C4801F089F80723402245
:1017000021468A4801F083F8072380222146884831
:1017100001F07DF804F58064072304222146854802
:1017200001F075F8072308222146834801F06FF87D
:10173000072310222146814801F069F800234FF465
:10174000807221467E4801F062F800234FF4007257
:1017500021467C4801F05BF800234FF4806221466B
:10176000794801F054F807234FF400622146774886
:1017700001F04DF801F0D2FA00F0DAFA00F094F935
:1017800000F0DAF901F01AFC00F008FA0DF2EC545E
:1017900001260196009600236D4A6E49204600F00E
:1017A000A7FC6D4B1C600DF5BC656C4BCDF8E035AE
:1017B0006B4BCDF8E0356B4BCDF8E4356A4BCDF88B
:1017C000E835E1AC002302226849204601F082FEA0
:1017D000674B1C602946204601F07CFFFFF784FD23
:1017E00032AD32462146284602F00CFD614F3D6085
:1017F000614B1D600FAE2A462146304602F05CFD6B
:101800005E4B1E60002000F09FFBC1B2304602F02C
:1018100085FD3A685A4B1A605A4D05AC2946204658
:1018200000F0B8FA584B1968C1F35911574BA3FB94
:10183000013189090139284606F049FB544B1C60E7
:1018400003225449204600F0C9FA14225249204686
:1018500000F0C4FA64225149204600F0BFFAC822C1
:101860004F49204600F0BAFA0021452000F08EFBD7
:101870004920FFF7D9FD0A200021FFF776FC03F08D
:1018800003FD64200021FFF770FC03F037FE9DE0AC
:1018900000080140800B00207C0B0020780B00200A
:1018A000740B0020700B00206C0B0020000C01401A
:1018B000680B002000100140640B0020600B00202A
:1018C0005C0B0020580B0020540B0020500B002014
:1018D000440B00203C0B0020340B00202C0B00207C
:1018E000240B00201C0B0020140B00200C0B0020EC
:1018F000040B0020FC0A0020F40A0020EC0A00205F
:10190000E40A0020DC0A0020D40A0020CC0A0020CF
:10191000C40A0020BC0A0020B40A0020AC0A00203F
:10192000A40A00209C0A0020940A00208C0A0020AF
:10193000840A00207C0A0020740A00206C0A00201F
:10194000640A00205C0A0020540A00204C0A00208F
:10195000FCA1000800380140E80900209C92000822
:10196000AC92000861120008E9120008006400400F
:10197000F4090020F0090020F00C0020EC09002000
:10198000EC0C002000040040CC090020632D3E0533
:10199000F8090020591200088913000849120008AC
:1019A000AD1100081C4619E004300DF10B0103F0E5
:1019B000A7F85CB103AB94E8030083E8030020467A
:1019C00002F024FF21460FA802F0D1FC00228DF87E
:1019D0000B209DF8C430002BE4D02FAC054B1868C9
:1019E00000F070FD044B18684369002BE1D100281A
:1019F000DAD1DAE7E8090020EC09002008B5274829
:101A000006F0FCF84FF0E023254AC3F80C2D40F215
:101A1000023006F051F940F2033006F04DF94FF470
:101A2000417006F049F940F2053006F045F940F200
:101A3000063006F041F940F20E3006F03DF940F272
:101A40000B3006F039F94FF4607006F035F940F2CA
:101A5000813006F031F940F2823006F02DF94FF472
:101A6000207006F029F940F2093006F025F940F21D
:101A70000A3006F021F940F2862006F01DF94FF4F5
:101A8000407006F019F940F2993006F015F9054A50
:101A9000536843F40073536008BD00BFB8A6000844
:101AA0000003FA050000014030B597B005F04AFD8B
:101AB00000F5FF3505F2FD15AD0201AC1422002141
:101AC000204600F09EFE1A4B01931823ADF8083013
:101AD00001238DF80A3000228DF80B20154903915F
:101AE0004FF44071ADF810108DF812208DF81330BE
:101AF00005F00CFD1421204605F016FD15902B6D08
:101B0000834201D117B030BD05F0BEFE284605F076
:101B100077FE002407E001AB53F8241005EB8400A6
:101B200005F0CCFE0134142CF5D905F0B9FEE9E737
:101B300000100140000C014008B51D2006F04AFCD1
:101B400000211D2006F052FC1E2006F043FC01215E
:101B50001E2006F04BFC0B494FF4807005F0BEFDD3
:101B600002214FF4807005F079FD4FF4807005F08C
:101B700099FD172006F02EFC0221172006F036FCF6
:101B800008BD00BF0008014008B54FF41C710320D8
:101B900006F04CF9002006F01BF908BD38B54FF0EF
:101BA000804006F08FF90A214FF0804006F08FF94F
:101BB00000214FF0804006F071F94FF6FF714FF0B1
:101BC000804006F086F94FF0804006F062F9564DED
:101BD0004FF4006302221146284605F07BFE0622E0
:101BE00011464FF0804006F076F906214FF0804014
:101BF00006F037FA06214FF0804006F04CFA062135
:101C00004FF0804006F06CFA002206214FF0804031
:101C100006F08BFA4FF0804006F04FF94FF4407316
:101C200001220021284605F055FE404C204606F0D2
:101C300049F98F21204606F04AF94CF250312046EE
:101C400006F047F9204606F033F90F22022120461C
:101C500006F090FA05220221204606F0B3FA00228F
:101C60000221204606F0FCF80221204606F0DDFAAB
:101C70000821204606F000F900220321204606F044
:101C800079FA06220321204606F09CFA002203215D
:101C9000204606F0E5F80321204606F0C6FA10219A
:101CA000204606F0E9F8402302221146284605F0B6
:101CB00011FE06220021204606F00DF900212046E3
:101CC00006F0CFF90021204606F0E5F90021204674
:101CD00006F006FA00221146204606F026FA802376
:101CE00002221146284605F0F5FD06220221204673
:101CF00006F0F1F80221204606F0B3F90221204651
:101D000006F0C9F90221204606F0EAF90022022174
:101D1000204606F00AFA0121204606F016FA20466F
:101D200006F0CBF838BD00BF000C014000080040B1
:101D300010B582B009238DF80730154C204605F008
:101D40008BF9204605F092F9204605F0A4F9072109
:101D5000204605F06CF90DF107020121204605F03F
:101D60009FF94FF46021204605F03AF9204605F02E
:101D700025F9002301E000BF0133772BFBDD044C84
:101D8000204605F037F9204605F047F902B010BDAE
:101D90000028014038B505460C460162084606F0A9
:101DA00078F8204606F084F80A4B1968C1F31A1136
:101DB000094BA3FB0131C9090139204606F087F818
:101DC0004FF6FF71204606F084F800236B62284628
:101DD00038BD00BFCC090020C55A7C0AF8B5436A5B
:101DE000032B00DDF8BD04460D461646006A06F0DA
:101DF00069F8636A0122134FF95C206A06F06BF8F8
:101E0000636A0022F95C206A06F08FF9636A44F87D
:101E1000235003F1080106EB860202EB82029200D6
:101E200024F8112002219940206A06F025F80021AB
:101E3000206A06F09DF9206A06F03FF8636A0133D4
:101E40006362CFE7B4920008F8B5054600242AE0A3
:101E50000226A6403146286A06F012F840B3286AE6
:101E600006F077F987B22B6A03EB84035A6B04F10F
:101E7000080135F811100A445A6355F82430984780
:101E8000286A06F066F9C01B04F10C0325F813005C
:101E90003146286A05F0FAFF04E00221A140286AD1
:101EA00005F0F4FF0134032C06DC6B6AA342CFDC9F
:101EB0006B6AA342F6DCF0E7F8BD0146002210464B
:101EC0000FE002F10C0331F813304FF47A7C0CFB75
:101ED00003F302F1080C31F81CC093FBFCF3184427
:101EE00001324B6A9342ECDC70470000024B1A68E7
:101EF000024BC3F8B0277047A0090020240100203E
:101F000008B5C0EBC0020B4B03EB8203DB688B42CE
:101F10000EDC084B03EB82031B698B4201DAFF20C6
:101F200007E0054B43F82010FFF77EFA002000E0A1
:101F3000FF2008BD2401002000000020014B53F8C1
:101F40002000704700000020024B53F82000401191
:101F5000704700BF0000002008B5054B53F8200073
:101F600006F034FF4FF0745106F084FF08BD00BF47
:101F700000000020044B53F820004011012814BF3A
:101F800000200120704700BF000000204901024BE3
:101F900043F82010704700BF00000020014B43F8B9
:101FA000201070470000002010B5044608464FF08E
:101FB000844106F05FFF07F023F9024B43F8240049
:101FC00010BD00BF0000002070B506460024074D7C
:101FD000482C09DC3146686800F072FB10B101340E
:101FE0001C35F5E7E0B270BD4A20FCE72401002073
:101FF0000023064A482B07DC118B814202D00133B3
:102000001C32F7E7D8B270474A20704724010020FD
:10201000C0EBC000014B03EB80007047240100209F
:1020200038B50024074D05E06969E0B2FFF7B6FF57
:1020300001341C35482C03DC2B8B002BF8D0F3E744
:1020400038BD00BF24010020014B1954704700BF68
:10205000FC090020024A135C0B431354704700BF75
:10206000FC090020024A135C23EA01031354704761
:10207000FC090020014B185C704700BFFC090020E0
:10208000C0EBC000024B03EB8003987E704700BF9B
:102090002401002000487047ABD4010008B5FFF7C9
:1020A00025FF08BD08B52021806806F01EF908BD8F
:1020B00008B5806806F011F908BD10B504464368FC
:1020C000597A586805F0A2FA636804F12A02597A2D
:1020D000586805F0ADFA63688022597A586805F0AF
:1020E000B7FA6368597A586805F087FA10BD00009E
:1020F00070B504460D46534901605349016085603F
:1021000003730261012101754175817500228261AD
:10211000C26180F82020426280F828109DF81010DB
:1021200080F829109DF8141080F82A124749416060
:10213000032A07D861680868A84203D01C3161608F
:102140000132F5E7424A1460002B74D0626850698E
:10215000002B73D063681B8B0222032105F0BAFBAE
:102160004FF4E131284606F067F80821284606F0CA
:1021700075F84FF40051284606F079F80C212846EE
:1021800006F081F80021284606F077F8002128465D
:1021900006F07FF8284606F092F8284606F094F8F4
:1021A0006368197A586805F0D3F96368197A586832
:1021B00005F01AFA63682E1D3246197A586805F040
:1021C0002EFA63680022197A586805F0EBF9636803
:1021D0000022197A586805F0D9F96368197A5868A5
:1021E00005F0ECF96368597A586805F0B1F963684D
:1021F0003246597A586805F012FA63680022597A13
:10220000586805F0CFF963680022597A586805F0DC
:10221000BDF96368597A586805F0D0F96368597A4E
:10222000586805F0EAF92046FFF747FF284606F010
:1022300036F8204670BD6268D06889E763681B8AFB
:102240008AE700BF7CA1000888A100088CA10008D3
:10225000480A002038B50D460469437D3BB121682A
:1022600039B1284600F02CFA18B10834F7E71C46BB
:1022700001E023680BB1204638BD1C46FBE738B5AA
:1022800004460D4601E0002373B163680222197A07
:10229000586805F072F90028F5D194F828300BB190
:1022A0000346F1E70123EFE76368197A586805F000
:1022B000ADF96368AAB2197A586805F0C9F963687C
:1022C00094F82020D201A83222440232197A5868A8
:1022D00005F0AEF963680222197A586805F048F9EA
:1022E0006368197A586805F088F994F82030B3FAD1
:1022F00083F35B0984F82030002384F8283038BD4C
:1023000010B50446837D73B10A2910D0436A7F2B30
:102310000DD090F8202000EBC2121A4482F8AA10C7
:102320000133436210BD806805F0BEFFFAE794F800
:102330002030626A04EBC313134483F8AA10511CC3
:102340002046FFF79CFF00236362EBE710B50C46C5
:10235000802A28BF802211464FF0000C0AE090F836
:10236000203014F80CE000EBC313634483F8AAE0B8
:102370000CF1010C8C45F2D3FFF781FF10BD38B58D
:1023800005460C46084600F0B2F9024621462846AA
:10239000FFF7DCFF38BD000010B50446084600F02A
:1023A000F9F900F0DEF9237D83420DD00023637537
:1023B000237B0BB3626850690BB363681B8B0122EC
:1023C000002105F087FA10BD01236375237B6BB1F3
:1023D000626850696BB163681B8B0222032105F0B0
:1023E00079FA08492046FFF7CAFFECE76268D0682F
:1023F000F0E763681B8AF0E76268D068DCE763682F
:102400001B8ADCE7589E000830B585B004460846B4
:1024100000F0C0F90378302B13D0322B0ED04FF4DC
:1024200061231D46637D83B92946A06805F004FF3A
:102430000021A06805F01BFF05B030BD0E4B1D4606
:10244000F0E74FF4E1331D46ECE70A22294601A8E4
:1024500000F05DF909492046FFF791FF0849204641
:10246000FFF78DFF01A92046FFF789FF05492046A8
:10247000FFF785FFD8E700BF10552200989A0008A3
:10248000A09A00081CA1000810B50446084600F0F8
:1024900081F9037823B1303B18BF012384F8293038
:1024A00094F8293023B105492046FFF768FF10BD95
:1024B00003492046FFF763FFF9E700BFB09A000821
:1024C000BC9A0008F8B504464368597A586805F084
:1024D000B8F80646C0F1800558B92046FFF7EDFD73
:1024E00007E05A1CE261234493F82A10A06805F023
:1024F000DBFE94F8293013B1E369AB42F1DB08212C
:10250000A06805F0F2FEE0B97F2E28DCC6F17F035B
:10251000234493F82A300A2B17D00D2B15D094F8AA
:102520002A30212B1BD1A369CBB12046FFF7C5FD73
:102530000023E361A3695B6804F5D57120469847E1
:102540000DE0A06805F0C9FEDEE76368597A5868B7
:1025500005F05CF87E2E03DD2046FFF7AEFDF8BDEA
:102560006319002283F82A20E26104F12A0720215E
:10257000384600F0C3F80646037823BB0A213846E4
:1025800000F0BCF80646002384F8AA31337803B380
:1025900000233370A3612A49384600F091F80646BB
:1025A000E8B904F5D5712046FFF7F6FEA369002BC4
:1025B0003CD0A06805F095FEA3695B6804F5D57171
:1025C00020469847C8E7411C04F5D57000F086F80E
:1025D000DCE70D21384600F091F80646D8E71949A6
:1025E000384600F06DF8064668B994F82A322BB1E7
:1025F00004F5D5712046FFF707FFD7E712492046BB
:10260000FFF7BDFED2E71149384600F059F80646FB
:1026100028B904F5D5712046FFF736FFC6E73946DD
:102620002046FFF717FEA0612E46BFE7012E93DD7F
:10263000637D002B90D006492046FFF7A0FE8BE774
:10264000C89A0008D49A0008E09A0008FC9A00088A
:10265000049B000808B5044B1B681A681268C1B2D5
:102660001846904708BD00BF480A0020704708B5CB
:1026700000F032FD08BD000000B583B00649D1F876
:10268000F027D1F8EC37D1F8E8170091034900F0B2
:10269000EBFA03B000BD00BF00F0FF1F209B000855
:1026A00010B50446FFF7BCFC0249204600F0DCFAF6
:1026B00010BD00BF349B000808B502F021FA08BD28
:1026C000431E013913F8010F11F8012F10B10AB19F
:1026D0009042F7D0801A18BF01207047013911F8D5
:1026E000013F0BB90370704700F8013BF7E7002387
:1026F000C25C0AB9184670470133F9E703461A78F5
:1027000018461AB18A4203F10103F8D17047002933
:1027100070B51EDA2D23012400F8013B494206461C
:1027200091FBF2F302FB131130313170191E354663
:1027300006F10106F4DC00220346201A3044327010
:10274000AB420BD21A78297803F8011B05F801294E
:10275000F6E704D1302341700370012070BD0024DE
:10276000DDE730B503782D2B11D14FF0FF34013068
:1027700000210A25431E01E005FB012113F8012F6A
:10278000303AD0B20928F7D904FB01F030BD01245A
:10279000EEE7000010B5144C02780146A2F10A03DE
:1027A000DBB2162B1BD824FA03F3DA0700F1010081
:1027B000F2D40846FFF79BFF0138084481420446E3
:1027C0000AD203780A3BDBB2162B05D8064A013839
:1027D00022FA03F3DB07F1D40023637001E0002A3F
:1027E000E7D1084610BD00BF09004000002310B526
:1027F000934200D110BD51F8234040F823400133EB
:10280000F6E702B97047013A40F8041BF9E7F8B55A
:102810000D4616461C460160828000238371052CFC
:1028200030D00AD9082C32D01AD8062C41D0072C27
:1028300042D1002403231F4630E0032C1CD009D8CA
:10284000012C13D0022C02D100231F4622E00224C7
:102850001F4623E0042C28D1012400231F461DE03D
:10286000092C2DD1022403231F4617E00123837175
:10287000022400231F4611E0012383710224002358
:102880001F4607E00124847100231F4606E001244F
:1028900003231F463146284605F051F833462246A9
:1028A0003946284605F016F8F8BD022400231F46D5
:1028B000F4E700242746F1E7022400231F46EDE752
:1028C000022400231F46E9E7024B4FF400421A801E
:1028D000704700BF4C0B002008B5FFF7F5FF08BD9F
:1028E00070B50C1EACBF01234FF0FF335C430133C6
:1028F000064608BF2D234FF0640208BF06F8013BCF
:10290000611104F01F040546544330460A22FFF7C4
:10291000FEFE2E226411092C3254D8BF302206EB61
:102920000003D8BF5A7021464FF00A02CCBF581C92
:10293000981CFFF7ECFE284670BDF0B50278034600
:102940002D2A13D14FF0FF30013300250A2702E072
:1029500007FB052501331C78A4F13002D6B2092EFD
:10296000F6D9A4B98D4025446843F0BD0120ECE7B9
:102970008A4002EB660292FBF6F20CFB06F6144468
:1029800013F8012F303AD7B2092FF1D9EAE70A2616
:102990000024B446F4E72DE9F04105460F46161E23
:1029A00002DD0A46002108E04FF0200813F0010480
:1029B0001BD0002422E00131013210780028FAD126
:1029C000B14206DA761A13F0020F04D14FF0200854
:1029D000ECE70026F7E74FF03008E7E72B681B68C5
:1029E0004146284698470134013E002EF6DC05E0BA
:1029F0002B681B682846984701340137397800292D
:102A0000F6D106E02B681B684146284698470134FA
:102A1000013E002EF6DC2046BDE8F08170B584B0A2
:102A20000646DDF828C059B11D460B4615B10A2AE5
:102A300011D0002500218DF80D100DF10D0416E0C8
:102A400030238DF800308DF80110099B089A6946F3
:102A5000FFF7A1FF32E0002901DB0025EAE74B4246
:102A60000125E7E7303104F8011DB3FBF2F34BB168
:102A7000B3FBF2F102FB11310929F3DDACF13A00AD
:102A80000144EFE79DB1089B63B1099B13F0020F6E
:102A900008D0304633681B682D219847089B013BBE
:102AA000089304E02D2304F8013C013C0025099B18
:102AB000089A21463046FFF76EFF284404B070BDE7
:102AC00008B50846FFF7C6FD08BDF0B585B0074656
:102AD00016461D466846FFF703FF2B4632466946F9
:102AE0003846FFF758FF05B0F0BD000070B588B05C
:102AF00006460C460592002587E0A21C012391E0C2
:102B000000222178A1F1300C5FFA8CFCBCF1090F96
:102B100006D802EB8202303901EB42020134F0E7C1
:102B200073291AD0642923D0782930D058293DD070
:102B300075294AD0662957D0632965D10599081DA2
:102B4000059009688DF81C1000218DF81D1007A94B
:102B50003046FFF720FF054456E00599081D059013
:102B6000096801B935493046FFF715FF05444BE0C8
:102B70000599081D05900968612002900193009253
:102B800001230A223046FFF749FF05443CE005993E
:102B9000081D0590096861200290019300920023AE
:102BA00010223046FFF73AFF05442DE00599081D35
:102BB00005900968412002900193009200231022A1
:102BC0003046FFF72BFF05441EE00599081D0590D0
:102BD0000968612002900193009200230A22304686
:102BE000FFF71CFF05440FE00599081D05900968D3
:102BF0003046FFF76AFF054406E0144633681B6859
:102C00002178304698470135013423789BB1252B34
:102C1000F4D1621C637873B1252BEED02D2B3FF4D9
:102C20006CAF002314462278302A7FF469AF013458
:102C300043F00203F7E7284608B070BDA89B0008E0
:102C40000FB400B583B004AA52F8041B054B0193DE
:102C5000009201A8FFF74AFF03B05DF804EB04B04F
:102C6000704700BF74A200080EB400B582B003AA7A
:102C700052F8041B0192FFF739FF02B05DF804EB34
:102C800003B07047174B184A1360991C174A11601C
:102C9000191D174A1160991D164A116003F10801A8
:102CA000154A116003F10A01144A116003F10C0185
:102CB000134A116003F10E01124A116003F1100171
:102CC000114A116003F11201104A116003F114015D
:102CD0000F4A116003F116010E4A116018330E4AB3
:102CE00013607047840B0020800B00207C0B0020B9
:102CF000780B0020740B0020700B00206C0B002060
:102D0000680B0020640B0020600B00205C0B00208F
:102D1000580B0020540B0020500B002030B583B01E
:102D2000334B93E8030002AB03E903000025002DB9
:102D30002CDD304C304A0121204604F070FC2F4A33
:102D40000121204604F074FC4FF4807201212046DA
:102D500004F028FC4FF480620121204604F016FCA8
:102D60009C220121204604F073FC0121204604F03E
:102D700025FC0121204604F02AFC0121204604F014
:102D80003CFC1F4804F0BAF903B030BD02AB03EBC2
:102D9000850353F8084C204604F05EF9204604F001
:102DA00060F9204604F072F9204604F064F901212C
:102DB000204604F03CF9204604F000F9204604F0D7
:102DC00019F9204604F029F905EB450305EB8303C7
:102DD0000C4A1A440D21204604F062F9204604F002
:102DE00097F94FF46021204604F0FAF801359EE788
:102DF00078A20008000002404C240140840B00200F
:102E000000240140BC0C0020884205DD914209DC11
:102E100090420ADD10467047904206DC914203DD85
:102E200010467047084670470846704730B583B073
:102E3000046800250BE0A28E618B2088FFF7E4FF79
:102E400002AB03EB450323F8080C01354E34032D88
:102E5000F1DDBDF80000BDF802301844BDF80430C3
:102E60001844BDF806301844C0F38F0003B030BDDD
:102E700008B50F4B98420BD003F58063984211D0F0
:102E8000A3F50063984205D1072903DCC8B204E02A
:102E9000012903DD04F09AF8102008BDC9B20831F9
:102EA000C8B2FAE70529F5DCC9B20A31C8B2F4E7BD
:102EB000000C014070B505460E46144601239340B0
:102EC0009BB200221146304604F004FD2B68054AEF
:102ED0009B1A5D1021463046FFF7CAFFABB2024A8B
:102EE000D05470BD840B0020BC0C002008B5FFF747
:102EF000C9FE08BD08B504F025FB00F5FF3000F25F
:102F0000FF10800208BD2DE9F043ADF2044DFFF73C
:102F1000F1FF0746024600234FF0FF3603E052F868
:102F2000041B0E400133FF2BF9DD04F0EFFA4FF4E0
:102F300080724FF0FF316846FFF763FC002400E029
:102F40000134482C1AD8E5B22846FFF799F8002832
:102F5000F6D12846FFF75CF880462846FFF78AF846
:102F60000DEBC40989F80300B8F818202DF83420B7
:102F70002846FEF7E3FFC9F80400E1E7FE216846B2
:102F800004F0D2FAFE9004F07FFCB6F1FF3F01D1CD
:102F900000240AE0384604F033FCF9E75DF8241019
:102FA00007EB840004F08AFC0134FF2CF6D904F00E
:102FB00077FCFE980DF2044DBDE8F083F8B5FFF7FD
:102FC00099FF064604F0A2FAFE21304604F0ACFA5E
:102FD000D6F8F833834201D1002503E04FF0FF30EB
:102FE00019E001357E2D15D836F83500FFF700F8C9
:102FF00004464A28F5D0FFF743F80028F1D106EB44
:10300000C50779682046FEF7C9FFF9782046FFF723
:103010001BF8E6E70020F8BD014B1860704700BFC1
:10302000DC0C00200D4B1B5CB3B90D4B196899B13A
:103030000C4B1870DFF830C0DCF800300B4A02F897
:10304000330002EBC3025160044A012111540B44C6
:1030500003F00F03CCF80030704700BFCC0C002009
:10306000DC0C0020D70C0020D80C00202009002008
:103070000F280AD8064B03EBC0035B680BB9184650
:103080007047034B13F8300070470020704700BFB3
:10309000200900200F2801D900207047024B03EBC4
:1030A000C0035868704700BF2009002008B5074BCF
:1030B00003EBC10292F804C053F83130044A52F8CD
:1030C0002C2001460348FFF7BBFD08BD8CA2000879
:1030D00080A20008B09B000810B50C4B5B680BB1D8
:1030E000002409E00A48FFF7ABFD0DE0074B13F899
:1030F0003410FFF7DBFF01340F2C05D8034B03EB33
:10310000C40358680028F1D110BD00BF2009002079
:10311000C09B000800B58BB0104B01EB410203EBE4
:10312000820C53F82220DCF804C001EB410103EBD0
:1031300081039B68D0F858020021089107910693FB
:10314000CDF814C0049203910291019100910B46B5
:10315000012203F0EFFF0BB000BD00BFF8A2000892
:10316000F0B583B004460D4616461F4672B60121DF
:10317000D0F8580204F0F1F8019600970023B5F555
:10318000006F34BF002201222946D4F8580204F00F
:10319000E9F8002806DBD4F85432002B18DC62B6BC
:1031A00003B0F0BDD4F85432132BF4DC03F1110258
:1031B00004EB021255609760316804EB0312C2F809
:1031C0001C117168C2F820110133C4F85432E2E7CF
:1031D0000121D4F8580204F0BCF8E0E7012801DD31
:1031E00000207047014B53F820007047E00C00208E
:1031F00030B58BB004460D460AE09DF8213006AA92
:103200000999204600F0B2FA04F0D8FDC4F8F8009D
:103210000023059306AB04930DF12103039308AB40
:1032200002930DF1220301930DF12303009309ABE7
:103230000122E9B2D4F8580204F009F90028DCD1DF
:103240000BB030BD30B583B0044600F58A7504E09C
:10325000D4F85432013BC4F85432D4F85432002B21
:1032600017DD03F18053013B1A0105EB0313A95845
:103270005A6808330193D2B200920023B1F5006F6F
:1032800034BF00220122D4F8580204F06BF8002861
:10329000DEDAD4F854320BB103B030BD0121D4F8DA
:1032A000580204F05AF8F7E770B584B00E46154698
:1032B0001C461068B3F800C05A889B88B4F806E032
:1032C0005B019BB2520192B24FEA4C1C1FFA8CF187
:1032D0004FF0010CCDF808C000EA0C0CCDF804C08A
:1032E0004FEA4E1C1FFA8CFCCDF800C004F014F815
:1032F000002333602A6801322A60E380A380638060
:10330000238004B070BD70B584B00E4615461C46CF
:103310001068B3F800C05A889B88B4F806E05B01D7
:103320009BB2520192B24FEA4C1C1FFA8CF14FF043
:10333000010CCDF808C000EA0C0CCDF804C04FEA2F
:103340004E1C1FFA8CFCCDF800C003F0D5FF002303
:1033500033602A6801322A60A380238040F2FF7321
:10336000E380638004B070BD70B582B00E46154630
:103370001C4610681968C9005A68D20001230093DE
:10338000034042F0040241F0040103F0D5FF0023A2
:1033900033602A6801322A606360236002B070BD26
:1033A00030B58BB00546002308930993474906AA18
:1033B00003C982E8030004930593039302930193E6
:1033C000D5F85822424B9A420AD0A3F58063D3F82D
:1033D000003AC3F3052300930024C2F81C4221E005
:1033E0000023F8E704F11E0205EB8202516871B375
:1033F000029A501C02900DF1280C0CEB420C2CF898
:10340000103C023202920AAB03EB400020F8101C81
:10341000039B042B24D0029B022B28D0019B022B60
:103420002CD00134D5F8F430A3422EDD05EB840313
:103430005B68B3F5006FD5D3019A23F060430AA906
:1034400001EB820141F8183C01320192E0E7039A56
:103450000AA901EB420121F8083C01320392D7E7A7
:1034600008AB6A4603A92846FFF71EFFD3E706AB61
:103470006A4602A92846FFF746FFCFE704AB6A4633
:1034800001A92846FFF770FFCBE7039B002B07DC61
:10349000029B002B0BDC019B002B0FDC0BB030BD23
:1034A00008AB6A4603A92846FFF7FEFEF0E706AB25
:1034B0006A4601A92846FFF726FFECE704AB6A46F7
:1034C00001A92846FFF750FFE8E700BF34A3000832
:1034D00000640040F8B504460D4616461F4600F04D
:1034E000E3F8544B23600023C4F85432C4F8585214
:1034F000514B9D422FD003F580639D4258D1002F40
:1035000000F082804D4D202302220021284604F045
:10351000E1F92021284604F012FA40230222032177
:10352000284604F0D7F9402004F054FFF021402051
:1035300004F05CFF412004F04DFFF021412004F035
:1035400055FF3F2004F046FFF0213F2004F04EFFDE
:103550003B4B5C602CE0002F41D0384D4FF4807322
:1035600002220021284604F0B5F94FF48071284664
:1035700004F0E5F94FF4007302220321284604F019
:10358000A9F9142004F026FFF021142004F02EFFE6
:10359000152004F01FFFF021152004F027FF132051
:1035A00004F018FFF021132004F020FF244B1C60CE
:1035B000D4F8580203F0B2FD31462046FFF7AAFDC9
:1035C0002046FFF7EDFE0221D4F8580203F0C1FEB9
:1035D0001021D4F8580203F0BCFE2046F8BD194D66
:1035E0004FF4006302220021284604F073F94FF4DF
:1035F0000061284604F0A3F94FF48053022203210E
:10360000284604F067F9BCE70C4D4FF480530222C2
:103610000021284604F05EF94FF48051284604F05A
:103620008EF94FF4005302220321284604F052F988
:1036300079E700BFECA2000800640040000C0140E4
:10364000E00C00200008014008B50020FFF7C6FD8F
:103650000021FFF7CDFD08BD08B50020FFF7BEFD36
:103660000121FFF7C5FD08BD08B50020FFF7B6FD35
:10367000FFF7E8FD08BD08B50120FFF7AFFD002109
:10368000FFF7B6FD08BD08B50120FFF7A7FD012132
:10369000FFF7AEFD08BD08B50120FFF79FFDFFF75E
:1036A000D1FD08BD70477047084B03600023C0F888
:1036B000F430C0F8FC3005E003F14002044940F862
:1036C00022100133042BF7DD704700BF44A300082C
:1036D000A4090020D0F8FC30042B01DD0020704745
:1036E00003F1400240F822100133C0F8FC30012001
:1036F000704710B51446D0F8F4201D2A0CDD0020C8
:1037000010BD01339A420ADD00EB830CDCF8041093
:103710007145F6D10020F3E78E460023F2E700EB77
:103720008203C3F804E002F11E0300EB83035C6034
:103730000132C0F8F42003689B6898470120DFE756
:1037400038B505460024C0F8F44003689B689847E4
:1037500007E004F1400355F8230003685B689847CD
:103760000134D5F8FC30A342F3DC38BD2DE9F84331
:103770000546894690461F4600240AE004F14003AE
:1037800055F8230003681E683B4642464946B04749
:103790000134D5F8FC00A042F0DCBDE8F88370B538
:1037A000054600F1300634460BE034F8043BC3F321
:1037B000C02123F40063002203EB41716868FFF726
:1037C00098FFA31B242B02DCA378322BEDD170BD14
:1037D0002DE9F04182B0054600F108073E46F31B93
:1037E000242B00F39380B378322B00F08F800023DA
:1037F00000930193B37803EB4304A40058342C44A2
:103800001AE0C0F307231B0443EA0063C0F3074236
:1038100043EA022343EA1063E2791F2A3DD8C2F14A
:103820001F0223FA02F2009B13430093647A04EB15
:103830004404A40058342C44637AFF2B5DD0354BEC
:103840001B78002B62D12079FEF786FB01462068A9
:1038500005F010FB804694F9060005F0B7FA4146E2
:1038600005F000FA05F0CCFC94F908C08CEAEC7184
:10387000A1EBEC71C9B24FF0FF328A4020EA02009E
:10388000BCF1000FBDDBE2791F2A20D9203A00FAF3
:1038900002F2019B13430193C8E79444BCF11E0F4D
:1038A00007DDC2F13F0223FA02F2019B13430193A9
:1038B000BCE7A2F11F0003FA00F000990143009158
:1038C000C2F13F02D340019A1A430192AEE702EBE4
:1038D0000C03202B05DC00FA02F2009B134300933B
:1038E000A4E700FA02F1009B0B430093C2F120020F
:1038F000D040019B0343019398E7686803685C68C4
:1039000008236A4636F8041BA04768E702B0BDE802
:10391000F08100BFE80C002010B509B302F10C0ED5
:1039200000EB8E0E0A2A46D89EF80210322944D0A7
:1039300001EB410C4FEA8C0C0CF1580C8444002133
:103940000C469CF80910FF2933D073B1013BDBB260
:1039500001EB410189005831644600EB010CF0E7AE
:1039600002F1020E00EB8E0EDCE72CB16172FF2338
:103970008CF8093001201FE0322904D08EF80210A3
:10398000F5E70133DBB29918092904DC0EEB83015A
:1039900089783229F5D1013BDBB20EEB83029178B5
:1039A0008EF802103EF82330AEF8003032239370C8
:1039B000DDE7002000E0002010BD0020FCE7F8B5A6
:1039C00000F1080300263446354637463DBB1A460B
:1039D0002C46A2EB030CBCF1240F27DC92F802C0AA
:1039E000BCF1320F22D00CEB4C0E4FEA8E0E0EF1D2
:1039F000580E8644002609E00136F6B20CEB4C0C5A
:103A00004FEA8C0C0CF1580C00EB0C0E9EF809C020
:103A1000BCF1FF0F06D0BEF804E08E45ECD15DB1DD
:103A20000020F8BD0134E4B20432D2E700F13003E3
:103A30003D4601221746C9E7334622463946FFF77D
:103A40006BFFEEE770B514461E460023079A13700D
:103A500000F10805002B46D12A46531B242B3ADCE3
:103A600092F802C0BCF1320F35D00CEB4C0E4FEA8D
:103A70008E0E0EF1580E864407E00CEB4C0C4FEA0C
:103A80008C0C0CF1580C00EB0C0E9EF809C0BCF12C
:103A9000FF0F1ED0BEF804308B42EED11388C3F363
:103AA000C022236023F40063236043EA427323604F
:103AB0009EF8073033709EF90820049B1A70DEF8D8
:103AC0000020059B1A609EF90620069B1A700120B3
:103AD00070BD0432C1E7079B1B780122079D2A7045
:103AE00000F13005B6E70020F2E78446D9B102F1D3
:103AF0000C0100EB81010A2A27D88A78322A26D0C5
:103B000002EB4202920058320CEB0200427AFF2A8A
:103B100019D063B1013BDBB202EB42029200583292
:103B20000CEB0200F2E7911C00EB8101E3E70B884C
:103B3000C3F3C02200990B6023F400630B6043EAD7
:103B400042730B60704700207047002070470020D0
:103B500070472DE9F04385B00646884600F1080914
:103B600000273B462FE02B88C3F3C02C23F40061D1
:103B700094F90830E2792079029794F906E0CDF8BB
:103B800004E0D4F800E0CDF800E041EA4C71C04711
:103B9000647A04EB4404A40058343444637AFF2B61
:103BA000E1D10435A5EB0903242B08DCAB78322BDB
:103BB00005D003EB4304A40058343444EEE706F187
:103BC00030093B4601270BB94D46EBE705B0BDE890
:103BD000F083002306E001EB83024FF0320C82F801
:103BE00002C00133092BF6DD002307E003EB43029B
:103BF00000EB8202FF2182F861100133322BF5DDE8
:103C0000704710B5044600F10801FFF7E2FF04F128
:103C100030012046FFF7DDFF6068FFF791FD10BD22
:103C20002DE9F0410F4615461E460024A0460AE045
:103C3000286803F073FC804655F8041B07EB8400EA
:103C400003F03CFE0134B442F2DB4046BDE8F081B3
:103C5000084600E00430431A242B0ADC8378322B18
:103C600005D00388534033F40063F3D102E0002011
:103C700070470020704700004B4B1B7803B1704722
:103C80002DE9F041054616460A4600F13001FFF7DE
:103C9000DFFF002800F08580837803EB4304A40055
:103CA00058342C4442E01F2B53D83068C0F307220D
:103CB000120442EA0062C0F3074742EA072242EADE
:103CC0001062C3F11F03DBB201208840013822FAE1
:103CD00003F3184005F076F8074694F9060005F05E
:103CE00075F8394604F0BEFF0146206805F0C2F8B9
:103CF00007462079FEF7C4F920B12079FEF7C0F914
:103D0000012849D1B4F804804FF08441384605F0C9
:103D1000B1F805F075FA01465FFA88F0FEF7F0F8A1
:103D2000647A04EB4404A40058342C44637AFF2BD7
:103D300037D0E37994F9082082EAE271A1EBE271CD
:103D4000C9B2002AAFDB1F2B18D97268203BDBB247
:103D5000BAE71A441F2A03DD7068203BDBB2A5E7EF
:103D60005B1ADBB20133DBB23068D8407268C3F152
:103D700020039A4010434B1EDBB297E71A44202AD7
:103D800001DC3268A0E73268DA407068C3F12003D2
:103D900098400243002397E739462079FEF704F95B
:103DA000BEE7BDE8F08100BFE80C00202DE9F84334
:103DB0009DF820709DF92460002E76D004460D46B3
:103DC0009146984686EAE673A3EBE673DBB2202BB6
:103DD0006ED8002E0BDDBB19402B6CDC4246294609
:103DE0002046FFF735FF844658B100221BE03F2FE5
:103DF00064D87BB23344B3F1FF3FEFDA6FF00100D8
:103E000051E00021092907DC05EB81039A78322A69
:103E100001D00131F6E79C46BCF1000F51D0ACF85F
:103E20000080E2E70132312A07DC02EB420304EBB7
:103E3000830393F86130FF2BF4D1322A44D09CF8ED
:103E4000023000210AE003EB43018900583121448C
:103E500003EB430304EB830393F86130322BF2D17D
:103E600002EB420304EB8304A4F85C900A9BA36575
:103E70009DF92C3084F85E3084F85F7084F86060BF
:103E8000322384F8613019B14A722B46002004E0D5
:103E90008CF80220F9E7013004335A1B242A02DC93
:103EA0009A78322AF7D1BDE8F8836FF00200FAE77A
:103EB0006FF00200F7E76FF00100F4E76FF0010028
:103EC000F1E76FF00300EEE76FF00400EBE7B2F507
:103ED000006F16D200B585B09DF920C0CDF80CC09A
:103EE000DDF81CC0CDF808C09DF918C0CDF804C09D
:103EF000009313460A4600F10801FFF757FF05B08B
:103F000000BD4FF0FF30704770B584B005461446D1
:103F1000C2F3407022F00052B2F5006F1DD29DF93D
:103F200028C0CDF80CC0DDF824C0CDF808C09DF93C
:103F300020C0CDF804C0009342EAC0230A4605F130
:103F400030012846FFF732FF064600222146686806
:103F5000FFF7CFFB304604B070BD4FF0FF331E4675
:103F6000F8E72DE9F04F89B08346059206938A461B
:103F7000079131E0B4F9020004F028FF0023039315
:103F80000290CDF8048000953B46049A059930468E
:103F9000FFF70CFF0634A4EB09032A2B1ADC94F973
:103FA0000530002B16DD2088FEF722F80490DBF8A0
:103FB0000060BAF80070257994F90580069B002B03
:103FC000D8D0B4F9020004F001FF4FF0745104F0AE
:103FD00051FFD3E70AF1320A079BAAEB0303B3F5BB
:103FE000E17F0ADCBAF800104FF6FF73994204D063
:103FF0000AF102052C46A946CDE709B0BDE8F08FCD
:1040000008B503F09FFA00F5FF3000F5FF7080025D
:1040100008BD70B582B006460190FFF7F1FF044677
:10402000D0F8E85303F072FAFA21204603F07CFA44
:10403000854202D0002002B070BD01AD002332469F
:10404000083221462846FFF78CFF012332463032E2
:1040500004F5FA712846FFF784FF0120EBE7F8B575
:1040600005460F460E460EE02079FDF7D1FF038B83
:10407000A380647A04EB4404A40058342C44637A8B
:10408000FF2BF1D10436F31B242B08DCB378322B41
:1040900005D003EB4304A40058342C44EFE7F8BDEB
:1040A000F8B505460F460E460DE0A088FDF7A0FFC7
:1040B000A080647A04EB4404A40058342C44637A4E
:1040C000FF2BF2D10436F31B242B08DCB378322B00
:1040D00005D003EB4304A40058342C44EFE7F8BDAB
:1040E000F0B583B00546FFF78BFF064602462A4B24
:1040F0000121197000234FF0FF3403E052F8041B34
:104100000C400133FF2BF9DD03F000FA03F0BCFB98
:10411000022003F0AFFBB4F1FF3F38D105F10807EF
:1041200039462846FFF79BFF05F130042146284613
:10413000FFF795FF0A233A4631462846FFF770FD00
:104140000A23224606F128012846FFF769FD01905F
:10415000962305F1580206F150012846FFF760FD4D
:104160000190012301AA06F52D712846FFF758FD9D
:1041700003F096FB39462846FFF792FF2146284672
:10418000FFF78EFF044B00221A7003B0F0BD3046DB
:1041900003F036FBC2E700BFE80C0020F8B5064686
:1041A000FFF72EFF0446D0F8B45203F0AFF9AA216E
:1041B000204603F0B9F9854203D03046FFF729FFC6
:1041C000F8BD06F108070A2221463846FEF70EFB25
:1041D00006F130050A2204F128012846FEF706FB05
:1041E000962204F1500106F15800FEF7FFFA394615
:1041F0003046FFF755FF29463046FFF751FF0120B3
:10420000DEE7000038B50446084615460D4B23602E
:104210000D4B236061602146FFF75CFA04F1080151
:104220002046FFF7D6FC04F130012046FFF7D1FC11
:1042300025B92046FFF7B3FA204638BD2046FFF7E0
:10424000ADFFF6E79C92000868A30008036ED3B1A7
:104250004FF47A73036604E0036E002B07DD01233D
:104260003BB1826DC36D9A42F6D00023F8E700237C
:10427000F6E7836D5A1C826503F03F030344197609
:104280004FF0FF3343617047A0F10400FFF7DEBF3A
:1042900010B50446017C002201F5C0618068FFF77B
:1042A00028FA617C3F2900D910BD002201F5B061D8
:1042B000A068FFF71EFAF7E710B504460846144B4E
:1042C0002360144B6360144B236014336360A1605C
:1042D000E26001232374FF2363744FF0FF336361B3
:1042E0000023A3654022E2654FF47A7222664A22D7
:1042F00084F86420A36684F87830E36784F8883013
:104300002146FFF7E7F92046FFF7C2FF204610BD20
:104310009C9200087CA1000878A3000808B50174ED
:104320008068FFF70DFA08BD10B582B004468DF81D
:104330000010ADF801309DF810308DF80330059B6A
:104340000193437C93420DD1002384F87830A06818
:10435000617C03685C6808236A4601F5C061A04778
:1043600002B010BD42748068FFF7EAF9ECE738B597
:1043700004460A468068217C03685D68082301F5CD
:10438000B061A847002384F8883038BDB1F8012017
:1043900045F201039A4211D0012380F888300B784E
:1043A00080F88030B1F80130A0F88130CB7880F807
:1043B00083304B68C0F88430002070470B78402B66
:1043C00001D0002070474FF0FF330B714B71002379
:1043D0008B71CB7141220A704FF47A720266836549
:1043E0004023C365CB784361012070472DE9F0413C
:1043F00084B007460C46B1F80120C2F3C0131E4634
:10440000CD7825B1013D05EBD575C5F3470503AB67
:1044100000932B4602F03F023146F868FFF765FB38
:1044200080462378402B0DD0232B3DD08023237052
:104430000023237163710223A3710623E37104B087
:10444000BDE8F08130B30079FDF7E2FD028BE3783F
:1044500023B9039B636043232370F0E713F0010F3C
:1044600009D098F8073042EA034298F9083042EA46
:1044700003626260EFE71549D8F8000004F0FAFC27
:1044800004F0BEFE20F07F4398F9062043EA026361
:104490006360E0E7802323700023237163710223AC
:1044A000A3710623E371CAE70028BFD06368002B1D
:1044B000BCD1B4F801202B4602F03F023146F86827
:1044C000FFF72AFA60232370B9E700BF00007A449F
:1044D0000B78232B00D070472DE9F04184B00546BE
:1044E0000C461646CB7883B94B68B3F1005F04D312
:1044F00023F00052B2F5006F03D2AB666023237045
:1045000019E04FF0FF3383660CE0826E1746B2F17C
:10451000FF3F01D0012B11D095F9742090460AB1CC
:10452000022B1DD08023237000232371637102238B
:10453000A3710623E37104B0BDE8F081486880B23E
:10454000FDF756FDA5F870006368C3F3054385F8D1
:10455000733063681B1685F874304828CED9E1E7BC
:10456000606840F3170004F031FC154904F036FD93
:10457000E86663681B1685F87230A6B10293019055
:10458000CDF8008095F873303A4695F87010E868D9
:10459000FFF7BAFC002385F874304FF0FF33AB66A9
:1045A0000028ABDABEE702930190CDF8008095F8C1
:1045B00073303A4695F87010E868FFF788FCE9E731
:1045C00000007A4438B504460D460A7802F06003CC
:1045D000602B31D0B1F80130B3F5005F5AD003F44D
:1045E0007F40B0F5045F55D0E16819B1B3F5405F85
:1045F00000F0858021B143F2010C634500F0858015
:1046000019B1B0F5445F00F0868045F203018B429A
:1046100000F0868045F204018B4240F09B80402AE6
:1046200000F0918080232B7000232B716B7102238B
:10463000AB710623EB7119E002F010020A7001223F
:10464000072A0EDCE36DA16D5B1A402B09D0E36DE8
:10465000591CE16503F03F0323441B7EAB54013238
:10466000EEE7E36DA16D5B1A402B09D0A068217CB9
:1046700003685C6808232A4601F5B061A04738BD8D
:104680002B7843F001032B70C2F1080243EA420386
:104690002B70EBE7E87803F47F42B2F5045F0CD0AF
:1046A000482822D82B78232B0DD0402BDED1FDF7C4
:1046B00045FC686043232B70D8E71B029BB218446B
:1046C000FDF796FCECE76968FDF71AFC10B960236A
:1046D0002B70CBE780232B7030232B7100236B7161
:1046E0000923AB710623EB71C0E780232B700023F5
:1046F0002B716B710223AB710623EB71B6E70022BD
:1047000029462046FFF7E4FEB0E70122294620466D
:10471000FFF7DEFEAAE729462046FFF767FEA5E77A
:10472000402A09D080232B7000232B716B71022348
:10473000AB710623EB7199E7E878FEF799FC6860A6
:1047400043232B7092E7E878FEF7A4FC68604323CC
:104750002B708BE729462046FFF718FE002885D1ED
:104760008DE70000F0B583B004461546037C03F5E1
:10477000C0638B4207D0437C1E4603F5B0638B4277
:1047800005D003B0F0BD1146FFF71CFFF9E7B2F802
:1047900001301F46A3F540539BB2012B08D92B785B
:1047A000803B18BF012384F878306B68E367E8E743
:1047B000D378ABB1012BF2D11349C06E04F05AFB90
:1047C00004F01EFD94F9723040EA03630193022362
:1047D00000933B46324623212046FFF7A5FDDEE746
:1047E000B0F8703090F8732043EA024390F97420D7
:1047F00043EA02630193012300933B46324623219F
:10480000FFF792FDCBE700BF00007A4410B50446E5
:10481000B0F80130B3F5A04F0DD045F2020293423B
:1048200034D0802323700023237163710223A3718A
:104830000623E37110BD0278402AEED143230370B2
:10484000C378022B13D007D863B1012B14D12E4BA0
:10485000D3F8EC374360EDE7032B0DD1FDF71AFCDD
:104860006060E7E7284BD3F8E8374360E2E7264B80
:10487000D3F8F0374360DDE78023237000232371F2
:1048800063710223A3710623E371D3E72378232BFB
:10489000C7D160232370E378012B21D009D9022BE3
:1048A00026D0032B26D1FDF7BBFB4920FCF7BCFD2E
:1048B000C0E7FBB9154B1B784BB172B6144B1868A7
:1048C00008B1FFF70DFCFEF71EFB62B6B2E78023CE
:1048D0002370002323716371A3710823E371A9E797
:1048E00072B6FEF76BFB62B64920FCF79DFDA1E7AF
:1048F00003F068FD8023237000232371637102237A
:10490000A3710623E37195E700F0FF1FA8090020BB
:10491000EC0C00202DE9F04184B00E461746984675
:104920009DF83040FDF774FB43681D461449154B54
:104930001868FEF799F9ECB11349124B1868FEF7A5
:1049400093F94FF084410A9804F094FA0D4B1C68D7
:104950009DF92C30039304F053FC0290CDF80480B1
:10496000009733462A4609492046FEF77DF904B0F0
:10497000BDE8F0810649034B1868FEF775F9E0E7DA
:10498000849D0008F40C00208C9D0008949D000874
:10499000909D000870B505460846FDF7FBFE0646EB
:1049A0002021FDF7ABFE0378A3B1002300F8013B03
:1049B0000521FDF7C2FF04463046FDF705FB4A28F6
:1049C00012D02146FDF79CFA48B90A492846FEF75D
:1049D0004BF903E008492846FEF746F970BD074940
:1049E0002846FEF741F9F9E7324605492846FEF721
:1049F0003BF9F3E7C49D0008A89D0008D09D00087E
:104A0000E89D0008F8B507460846FDF7C3FE0546D1
:104A100009E02A460F493846FEF726F9254605F8EB
:104A2000016B2C2E14D12C212846FDF767FE04467D
:104A30000678002303702846FDF7C6FA4A28E8D016
:104A4000FDF77CFA024604493846FEF70DF9E5E722
:104A5000F8BD00BF089E0008009E00082DE9F04147
:104A600006460846FDF796FE07462021FDF746FE5E
:104A700003789BB104460546002305F8013B384600
:104A8000FDF7A2FA80464A2829D06378212B0AD064
:104A90007E2B08D02F2B06D0002406E01349304689
:104AA000FEF7E2F80FE0A51C012429461048FDF7A7
:104AB00007FE50B974B101214046FDF7D3FA0D4904
:104AC0003046FEF7D1F8BDE8F0810B493046FEF7DD
:104AD000CBF8F8E701214046FDF7BCFAEFE73A468C
:104AE00006493046FEF7C0F8EDE700BF249E0008F7
:104AF000349E00084C9E00083C9E0008E89D00087B
:104B00002DE9F04F8BB007460846FDF743FE0378CA
:104B1000059346493846FEF7A7F800264FF02008CF
:104B200022E0434A039202930190CDF800A04B4645
:104B3000424640493846FEF797F82846FDF7A0FA66
:104B400020B12846FDF79CFA01285AD1E268236972
:104B50006169206802960190009137493846FEF756
:104B600083F84FF02C080136482E51D8F5B228466C
:104B7000FDF74EFA04462846FDF77CFA10F0010FC7
:104B800002D0059B682BEED1D4F80490D4F808A08D
:104B9000B4F818B02846FDF7D1F90290CDF804B06A
:104BA000CDF800A04B46424624493846FEF75CF853
:104BB0000DF11F0303930DF11E03029309AB019343
:104BC0000DF11D03009307AB08AA29461C48006895
:104BD000FEF738FF0028B0D0DDF820809DF81C904B
:104BE0009DF91DA04FF08441099804F043F904F0A9
:104BF00007FB9DF91E309DF81F20002A91D0114A15
:104C000090E711493846FEF72FF84FF02C08AAE735
:104C10000E4BD3F8F0270E493846FEF725F80D491C
:104C20003846FEF721F80BB0BDE8F08F709E000803
:104C3000689E0008A49E0008089F0008749E000853
:104C4000F00C0020609E0008F49E000800F0FF1F9A
:104C5000589F0008949F00082DE9F0478AB0074646
:104C60000023059306930793089309930846FDF7DD
:104C700091FD0478702C38D0632C44D02021FDF7AE
:104C80003DFD0378002B47D0FDF784FD064620212B
:104C9000FDF734FD03780BB9642C44D1054600239D
:104CA00005F8013B3046FDF78FF906468146284658
:104CB000FDF770FD80464A2E3AD0642C3DD000238B
:104CC0001D464FF07E539A46042D62DC202140465B
:104CD000FDF714FD06460378002B39D1022D37DC91
:104CE00059493846FDF7C0FF1AE0584B1B68002BA6
:104CF000FBD1564C27605649564B1868FEF729FFE2
:104D0000002323600CE0534B1868FEF77AFF5249EA
:104D10003846FDF7A9FF03E04B493846FDF7A4FFED
:104D20000AB0BDE8F08748493846FDF79DFFF7E730
:104D30004A493846FDF798FFF2E73146454B186877
:104D4000FEF73DFE024646493846FDF78DFFE7E790
:104D5000002333704046FDF704FD032D0DD00AAB50
:104D600003EB850343F8140C30460130FDF712FDC8
:104D700080462B4601331D46A6E710214046FDF72D
:104D8000DCFD04F023F84FF05E5104F073F8824626
:104D9000EAE7742C1FD09DF924300293CDF804A0CB
:104DA0009DF91C3000939DF81830059A4946294812
:104DB0000068FFF7A9F810F1030F2ED01CDD10F1E9
:104DC000020F24D0B0F1FF3F33D1059A2549384670
:104DD000FDF74AFFA4E79DF924300293CDF804A023
:104DE0009DF91C3000939DF81830059A49461948E2
:104DF0000068FFF76CF8DEE710F1050F13D010F133
:104E0000040F16D118493846FDF72EFF88E7069A99
:104E100016493846FDF728FF82E7079A14493846B5
:104E2000FDF722FF7CE7059A12493846FDF71CFF83
:104E300076E7012806DD104B024610493846FDF79B
:104E400013FF6DE70E4BF7E7C49F0008F40C00203A
:104E500015490008F00C0020A09F0008D89F00080A
:104E6000EC9F000804A0000868A0000818A0000833
:104E70002CA0000840A000089C9F000884A0000807
:104E80005C9E000810B50D4B1B7893B1044672B6BA
:104E90000B4B1868FFF724F90A492046FDF7E4FE9A
:104EA000FEF731F8024662B607492046FDF7DCFE00
:104EB00010BD0649FDF7D8FEFAE700BFA90900209A
:104EC000F00C0020B0A00008C0A00008DCA0000882
:104ED00010B5044672B6FEF771F862B638B94920CB
:104EE000FCF7A2FA04492046FDF7BEFE10BD0349B7
:104EF0002046FDF7B9FEF9E720A1000834A100081B
:104F000008B503F05FFA2DE9F843054688461746D1
:104F1000002604E023782C2B16D1BE4214D22C217B
:104F20002846FDF7EBFB044690F800900023037041
:104F30002846FDF749F8254605F8019B4A28E9D09F
:104F400008F806000136E5E73046BDE8F8830000C2
:104F50002DE9F04184B006460846FDF71BFC0446E7
:104F6000FDF7FFFB804620212046FDF7C7FB0378B5
:104F70004BB10A2201A90130FFF7C5FF07463046B1
:104F8000FDF796F820E018493046FDF76DFE04B0B5
:104F9000BDE8F08104F110036B4413F80C0CFCF72E
:104FA000CDFF03462A4611493046FDF75DFE013428
:104FB0000F4DBC42EEDB0F493046FDF755FEB8F110
:104FC000FF3F01D008F1FF383046FDF76BF80028AD
:104FD000DDD1804502DD084D0024EAE7B8F1FF3F4E
:104FE000D5D1054D0024E4E74CA100086CA10008D0
:104FF000A09E00081CA100085C9E000808B50428BB
:1050000056D019DC02282FD003283FD0012811D117
:10501000394B3A4A1A603A4B3A4A1A603A4B3B4A81
:105020001A6018203A4B1860FCF78EFF394B186055
:10503000012008BD0020FCE705284BD0062811D12F
:105040002D4B354A1A602E4B344A1A602E4B344A87
:105050001A6016202E4B1860FCF776FF2D4B186057
:105060000120E6E70020E4E7234B2E4A1A60244B98
:105070002D4A1A60244B2D4A1A601920244B1860BF
:10508000FCF762FF234B18600120D2E71A4B284A35
:105090001A601B4B274A1A601B4B274A1A601420C0
:1050A0001B4B1860FCF750FF1A4B18600120C0E73B
:1050B000114B224A1A60124B214A1A60124B214AA4
:1050C0001A601520124B1860FCF73EFF114B186058
:1050D0000120AEE7084B1C4A1A60094B1B4A1A60B4
:1050E000094B1B4A1A601720094B1860FCF72CFF6C
:1050F000084B186001209CE7000D00207C0A00206E
:10510000FC0C00206C0A0020F80C0020740A00201F
:10511000340D0020380D0020940A0020840A00205D
:105120008C0A00202C0B00201C0B0020240B0020DC
:105130003C0B0020DC0A0020E40A0020D40A0020F6
:10514000B40A0020BC0A0020AC0A00209C0A0020FF
:10515000A40A002070B500240FE0174B1B68998843
:10516000186802F0EEFB154B1B689988186802F06E
:10517000E6FB134B00221A702C46052C1BDC651C29
:105180002846FFF73BFFB0B10E4B53F82430002BFD
:10519000E3DD094E33689988186802F0D8FB30685F
:1051A000FCF7E4F80028E7D0064A52F82430013B27
:1051B00042F82430E0E770BDF80C0020FC0C002021
:1051C000180D00201C0D00202DE9F04104460D466D
:1051D000FFF714FF48B1274B1B7833B9631E1A46FB
:1051E0001E46254B53F822300BB1BDE8F081234B0E
:1051F0001878FCF7A9FE0746C4B2FF220021284612
:1052000001F0A8F98046C3B21D469C4219D3AC42B6
:10521000EBD91B4B1B689988186802F092FB194B5D
:105220001B689988186802F08CFB5FFA88F1FBB262
:105230005B1A114A42F82630104B1878FCF7A6FE8C
:10524000D3E70F4B1B689988186802F07AFB0D4B67
:105250001B689988186802F072FB5FFA88F1FBB24C
:10526000CB1A054A42F82630044B1878FCF78EFE1C
:10527000CDE700BF180D00201C0D0020340D0020CC
:10528000FC0C0020000D0020F8B5134B01221A7011
:105290000024052C1EDC651C2846FFF7AFFEC8B1B4
:1052A0000E4F002647F824600D4B1B68998818683C
:1052B00002F047FB0B4B1B689988186802F041FB12
:1052C000FF2347F824303146074B1878FCF75EFE81
:1052D0002C46DEE7F8BD00BF180D00201C0D002095
:1052E000FC0C0020000D0020340D002008B5054BFB
:1052F0009988186802F025FB00211A20FCF746FE69
:1053000008BD00BF4C0A002008B5054B99881868F5
:1053100002F015FB01211A20FCF738FE08BD00BF82
:105320004C0A002008B5094B1B784BB901460528EB
:1053300009D8074B18600F20FCF728FE002008BD95
:105340004FF0FF30FBE74FF0FF30F8E70C0D002087
:10535000140D0020F8B55C4B1E68304603F096FF34
:105360000546022401231F4600E00134052C0ADC17
:10537000564B53F82400301A03F088FF8542F4DDC1
:1053800005462746F1E7524B1F60524B1B7833BB53
:10539000514B1B68002B42D04C4A52F82340A41BAF
:1053A000204603F073FF0A287DDD02F007FD4B4B1A
:1053B0001B68B34244D0494B1E60494B1860002C17
:1053C00063DD484B01221A70474B9988186802F038
:1053D000B6FA464B9988186802F0B3FA2FE002F04B
:1053E000EDFC3E4B1B68B34204D03C4B1E603C4B73
:1053F000186024E03A4B1B68C01A63281FD93A4B47
:105400009988186802F09DFA384B9988186802F05C
:1054100098FA00232C4A13602E4A13700FE0324B87
:105420009988186802F08DFA304B9988186802F054
:1054300088FA2A4B1E6002F0C1FC294B1860F8BDA7
:10544000274B1B68C01A6328B9D9274B998818685D
:1054500002F077FA254B9988186802F072FA1E4B11
:105460001B68012B06D0052B0BD1174B40F2B6322F
:105470001A6002E0144B00221A60174B00221A60D7
:10548000DDE70A20FDF7CEFDF7E7164B00221A7084
:10549000154B9988186802F054FA144B99881868CB
:1054A00002F04DFACBE7104B9988186802F049FAE0
:1054B0000E4B9988186802F044FA084B1E6002F0FF
:1054C0007DFC074B1860BAE7E409002090A30008B0
:1054D000100D00200C0D0020140D0020040D0020E4
:1054E000080D0020AA090020CC0A0020C40A0020D0
:1054F000014B1868704700BF100D002008B50D4B18
:1055000001221A7000230C4A13600C4A13700C4BD2
:105510009988186802F015FA0A4B9988186802F001
:105520000EFA02F04BFC084B1860084B1A68084B47
:105530001A6008BD0C0D0020140D0020AA090020DF
:10554000CC0A0020C40A0020080D0020E409002035
:10555000040D0020CBB203EB1123002203E0815C99
:105560000B449BB20132062AF9DDD8B2704710B560
:1055700004464FF0000C60460FE00CEB010E4FEAC2
:10558000EE03E35C0EF0070E43FA0EF303F00103A3
:1055900003FA0CF318430CF1010C9445EDDB10BD3C
:1055A00008B50021024B19700B20FCF7EFFC08BD79
:1055B000480D002008B559B10122824009490B78F5
:1055C00013430B70074B19783720FCF7DFFC08BD3D
:1055D00001238340DB435BB202490A7813400B701E
:1055E000F0E700BF4E0D002030B583B005460B201C
:1055F000FCF7AAFC20B32B4B1B7823B32A4A137861
:105600000133DBB21370032B2AD9134600221A7020
:10561000264B1B889BB241F27072934239D0244AC8
:10562000138801339CB21480204B00221A800D2075
:10563000FCF78AFC844213DDFFF7B2FF002026E06E
:10564000184B187023E0174B01221A700C20FCF73E
:105650007BFC174B18800023134A1370134A1380E6
:10566000134C21883E20FCF791FC6A4600230093EE
:10567000019370238DF8023017238DF803302846EC
:105680002B68D3F804C008232188E047012003B029
:1056900030BD074B19880A20FCF778FCFFF780FF24
:1056A0000020F4E7480D0020450D0020640D002087
:1056B000460D002008B50820FCF746FC002800DD58
:1056C00008BD41F6FF70FBE770B582B006460A20C0
:1056D000FCF73AFC08B902B070BD0546FFF7EAFFD7
:1056E00004463320FCF730FC8DF8000003128DF8DF
:1056F00001308DF8024023128DF8033000238DF81D
:105700000430984210DD01238DF8053000238DF818
:1057100006308DF80730304633685B681C46082336
:105720006A462946A047D6E70023EDE710B50446B0
:105730000920FCF709FC01280ED002280ED002F047
:105740003DFB95280CD9094B53F8243053B1C01AAE
:10575000322809D9012002E0012000E0002010BD1C
:105760000020FCE70120FAE70020F8E7500D0020B8
:1057700030B583B004460120FFF7D8FF054668B175
:1057800040F2FF13009300230193204623685B68D7
:105790001C4602236A4640F2D121A0472946012037
:1057A000FFF708FF03B030BD30B583B0044689234E
:1057B0008DF8003042238DF8013072238DF80230CD
:1057C00085238DF8033001238DF804302C238DF8C8
:1057D0000530144B1B781B0143F002038DF8063093
:1057E00040F2A1316846FFF7B5FE8DF807000320AF
:1057F000FFF79CFF054640B1204623685B681C46C6
:1058000008236A4640F2A131A04729460320FFF74A
:10581000D1FE044A1378013303F00F03137003B071
:1058200030BD00BF4B0D002030B583B004460220D0
:10583000FFF77CFF054668B1094B6A4693E8030011
:10584000CDE90001204623685B681C46082340F22E
:105850002131A04729460220FFF7ACFE03B030BD3E
:10586000B4A3000830B583B005460023009301932C
:10587000274B1B78A3BB41238DF8003001238DF803
:10588000013005238DF80230224B1B781B018DF867
:10589000063040F221216846FFF75CFE8DF80700D4
:1058A0000020FFF743FF044640B128462B685B68A1
:1058B0009C4608236A4640F22121E0472146002009
:1058C000FFF778FE124A1378B3FA83F35B0913707B
:1058D000104A1378013303F00F03137003B030BD87
:1058E00040238DF8003041238DF8013005238DF8D9
:1058F000023015238DF8033050238DF80530054B09
:105900001B781B0143F001038DF80630C1E700BF8F
:105910004D0D00204C0D002030B583B005462D4BB9
:105920001B78002B3CD103238DF8003019238DF810
:10593000013064228DF8022032228DF803208DF888
:10594000043000238DF80530234B1B781B018DF8A4
:10595000063040F245516846FFF7FCFD8DF8070020
:105960000420FFF7E3FE044640B128462B685B683D
:105970009C4608236A4640F24551E04721460420F0
:10598000FFF718FE134A1378B3FA83F35B09137019
:10599000114A1378013303F00F03137003B030BDC5
:1059A00014238DF8003000238DF801303F238DF84B
:1059B000023070238DF803309F238DF804300123CB
:1059C0008DF80530044B1B781B0143F00A038DF85A
:1059D0000630BEE74A0D0020490D002038B50446C8
:1059E00002F0ECF92C4B1860042238212046FFF716
:1059F000BEFD05460B2200212046FFF7B8FD00EB57
:105A0000800041003220FCF7C1FA0A220B21204617
:105A1000FFF7ADFD03F0D6F9204903F02BFA01465C
:105A20003420FCF7C1FA0B2229212046FFF79FFD05
:105A300003F0C8F94FF07C5103F01CFA01463A20FC
:105A4000FCF7B2FA29463820FCF7A0FA01223F21E0
:105A50002046FFF78CFD01463920FCF797FA01221A
:105A60003E212046FFF783FD01463B20FCF78EFADE
:105A70000B2215212046FFF77AFD00EB8000410044
:105A80003520FCF783FA032D02D00F2D00D038BD4E
:105A90000220FDF7C7FAFAE7680D0020CDCCCC3D17
:105AA00010B58478C37844EA0324084B1C8021464F
:105AB0003C20FCF76BFA41F6FF739C4204D00121B5
:105AC0003D20FCF763FA10BD0021F9E7640D0020CA
:105AD00003780A2B00D0704710B50446037941794A
:105AE00043EA01213F20FCF751FAA379E17943EA27
:105AF00001214020FCF74AFA10BD10B50446417858
:105B00004120FCF743FA617928394220FCF73EFA3C
:105B1000A17928394320FCF739FA10BD10B50024CB
:105B2000042C0BDC064B33F81430834201D00134D3
:105B3000F6E702F043F9034B43F8240010BD00BF21
:105B4000A8A30008500D002010B50446154B1B6893
:105B50008BB92046FFF748FDC0B12046FFF708FE8D
:105B60002046FFF721FE104A13780133DBB2137091
:105B7000092B0FD810BD02F021F90A4B1B68C01A7F
:105B80003128E6D90120FDF74DFAE2E72046FFF77C
:105B90009BFDE2E7134600221A702046FFF744FE01
:105BA000E8E700BF680D0020440D002010B5044652
:105BB000FFF758FE2046FFF7AFFE10BD08B5642280
:105BC000002100F0C7FC00EB800041003320FCF70F
:105BD000DDF908BD08B53420FCF7B6F908BD0000B2
:105BE00010B5044601462E20FCF7D0F950220021C2
:105BF000204600F0AFFC4CF2503300220249C0B204
:105C000000F0B2FC10BD00BF0008004010B5044613
:105C100001463020FCF7BAF950220021204600F05E
:105C200099FC4CF2503302220249C0B200F09CFCB5
:105C300010BD00BF0008004008B5074B1B6843B10A
:105C4000054B186803F0BEF80146044803F0C6F996
:105C500008BD0020FCE700BFE0090020C0E1E44BE4
:105C600008B5074B1B6843B1054B186803F0AAF849
:105C70000146044803F0B2F908BD0020FCE700BF6C
:105C8000DC090020C0E1E44B10B502F097F80446AF
:105C9000164B1B7823B1154B00221A70144B186059
:105CA000144B1B7823B1134B00221A70124B1C604B
:105CB0002E20FCF749F9052804DD0D4B1B68E31A7B
:105CC000C72B0AD83020FCF73FF9052804DD0A4B22
:105CD0001B68E41AC72C04D810BD0820FDF7A2F9F0
:105CE000F0E70920FDF79EF9F6E700BFDA0900208A
:105CF000400D0020D90900203C0D002010B50446BD
:105D00000A4903F069FA50B90949204603F064FAD8
:105D100038B90849204603F05FFA20B910BD0320C6
:105D2000FCE70220FAE70120F8E700BF0000C041CD
:105D30000000A8410000204108B5022300221146BE
:105D4000074801F0C7FD074801F0D8F9054801F000
:105D500097F90028FAD0034801F096F980B208BDFF
:105D6000000C01400028014010B504460223002227
:105D70001946074801F0AEFD24B10221044801F0A4
:105D8000DEFD10BD0221024801F0DBFDF9E700BF96
:105D9000000C01400000000038B50024324D2246BE
:105DA0002B46324800F032FD22462B46304800F0A8
:105DB0002DFD22462B462F4800F028FD22462B467B
:105DC0002D4800F023FD22462B462C4800F01EFDF6
:105DD00022462B462A4800F019FD22462B46294828
:105DE00000F014FD22462B46274800F00FFD1CA3AF
:105DF000D3E90023254800F009FD22462B4624481C
:105E000000F004FD22462B46224800F0FFFC22460B
:105E10002B46214800F0FAFC22462B461F4800F092
:105E2000F5FC22462B461E4800F0F0FC22462B468D
:105E30001C4800F0EBFC22462B461B4800F0E6FC19
:105E400022462B46194800F0E1FC22462B46184812
:105E500000F0DCFC22462B46164800F0D7FC38BD8B
:105E6000333333333333D33F0000E03F300F002070
:105E7000180F0020000F0020E80E0020D00E002098
:105E8000B80E0020A00E0020880E0020700E00200A
:105E9000580E0020400E0020280E0020100E00207A
:105EA000F80D0020E00D0020C80D0020B00D0020EE
:105EB000980D0020800D002038B501F07FFF0446CA
:105EC000304B1B78012B0BD0022B17D03BB9184657
:105ED000FFF74AFF2C4B1C602A4B01221A7038BD79
:105EE000294B1B68C31A632BF9D90120FFF73CFF2C
:105EF000254B1C60234B02221A70F0E7FFF71CFFB2
:105F0000214B1B68E31A1A461D4640F2DB539842A8
:105F100001D8632A31D90020FFF726FF1A4B1C60F5
:105F2000184B01221A70284602F04CFF174902F064
:105F3000A1FF174903F052F8164902F09BFF1649DA
:105F400002F098FF02F0CEFB02460B46134800F029
:105F50006EFC02F031FE0546FFF7D0FE04462946EE
:105F60002820FCF721F821462720FCF70FF8012C08
:105F7000B5D80720FDF756F8B1E70120FFF7F4FE8A
:105F8000ADE700BF740D0020700D00200AD7233C40
:105F900000401C460024744985EB513F700E0020E0
:105FA0002DE9F04F89B0C648FCF740FF059002F09C
:105FB00009FF0746C348FCF739FF069002F002FFCD
:105FC0008146C148FCF732FF079002F0FBFE834692
:105FD00000264FF08B45DFF8F482BD4C2368009318
:105FE00033462A464146384600F098FA8246B94F71
:105FF0003B68009333462A46B749484600F08EFA7C
:1060000081462368009333462A464146584600F0AD
:1060100085FA0546206803F0F3F80646504603F07B
:10602000EFF83246002100F095FA02F0CFFE064666
:10603000386803F0E5F80746484603F0E1F83A46C9
:10604000002100F087FA02F0C1FE0746206803F045
:10605000D7F80446284603F0D3F82246002100F082
:1060600079FA02F0B3FE0446304602F03BFB0246EA
:106070000B469A4800F0DBFB02F09EFD01461B2018
:10608000FBF792FF384602F02DFB02460B46944880
:1060900000F0CDFB02F090FD01461C20FBF784FFD1
:1060A000204602F01FFB02460B468E4800F0BFFB65
:1060B00002F082FD01461D20FBF776FF8A48FCF7BF
:1060C000B5FE042100F030FB04468848FCF7AEFE24
:1060D000042100F029FB05468548FCF7A7FE0421B2
:1060E00000F022FB80468348FCF7A0FE062100F06A
:1060F0001BFB02908048FCF799FE062100F014FB80
:1061000003907E48FCF792FE062100F00DFB049000
:106110007B48FCF78BFE062100F006FB834679489E
:10612000FCF784FE062100F0FFFA82467648FCF771
:106130007DFE062100F0F8FA8146204602F0D2FAF0
:1061400002460B46714800F072FB06460F46704B44
:10615000186802F0C7FA02460B463046394602F08C
:1061600061F902F029FD01461E20FBF71DFF2846BC
:1061700002F0B8FA02460B46664800F058FB0646A5
:106180000F46654B186802F0ADFA02460B463046E2
:10619000394602F047F902F00FFD01461F20FBF7D8
:1061A00003FF404602F09EFA02460B465B4800F0B1
:1061B0003EFB06460F465A4B186802F093FA024619
:1061C0000B463046394602F02DF902F0F5FC014647
:1061D0002020FBF7E9FE029802F084FA02460B4603
:1061E000504800F024FB06460F464F4B186802F05B
:1061F00079FA02460B463046394602F013F902F0AE
:10620000DBFC01462120FBF7CFFE039802F06AFA7F
:1062100002460B46454800F00AFB06460F46444B33
:10622000186802F05FFA02460B463046394602F023
:10623000F9F802F0C1FC01462220FBF7B5FE0498F4
:1062400002F050FA02460B463A4800F0F0FA02F02B
:10625000B3FC01462420FBF7A7FE584602F042FAA1
:1062600002460B46344800F0E2FA02F0A5FC014673
:106270002320FBF799FE504602F034FA02460B4603
:106280002E4800F0D4FA02F097FC01462520FBF7D7
:106290008BFE484602F026FA02460B46284800F0DC
:1062A000C6FA02F089FC01462620FBF77DFE059A1E
:1062B000052A53D940F6F9739A4200F2C38041E0AF
:1062C000580B0020800B00207C0B00200080134422
:1062D000B8090020BC0900200000B943300F00209D
:1062E000180F0020000F0020640B0020600B00201E
:1062F0005C0B0020680B0020500B0020780B002066
:10630000740B0020700B00206C0B0020E80E0020A6
:10631000B4090020D00E0020B0090020B80E0020E3
:10632000AC090020A00E00207C0D0020880E00206B
:10633000780D0020F80D0020E00D0020980D0020C1
:10634000800D0020069A052A7ED99A427ED8079AA7
:10635000052A7DD99A427DD8002600E001266149B0
:10636000204602F02FFF002876D15F49204602F038
:1063700033FF002840F087805A49284602F022FF68
:10638000002840F082805849284602F025FF002866
:106390007DD15449404602F015FF002879D1524979
:1063A000404602F019FF002875D15049029C204652
:1063B00002F008FF002870D14D49204602F00CFF82
:1063C00000286CD14949039C204602F0FBFE0028BE
:1063D00067D14749204602F0FFFE002863D14349B8
:1063E000049C204602F0EEFE00285ED14049204683
:1063F00002F0F2FE00285AD13C49584602F0E2FE73
:10640000002856D13A49584602F0E6FE002852D1FB
:106410003649504602F0D6FE00284ED13449504647
:1064200002F0DAFE00284AD13049484602F0CAFE9E
:10643000002846D12E49484602F0CEFE002842D11F
:1064400004460AE001268AE7012688E7012686E756
:10645000012684E7012682E70124002E35D0254B52
:106460001B8801339BB2234A1380132B2FD894B37C
:10647000214B1B8801339BB21F4A1380132B2CD84E
:1064800009B0BDE8F08F0124E7E70124E5E7012426
:10649000E3E70124E1E70124DFE70124DDE701244C
:1064A000DBE70124D9E70124D7E70124D5E701245C
:1064B000D3E70124D1E70124CFE70124CDE701246C
:1064C000CBE70124C9E70124C7E73346CBE7052022
:1064D000FCF7A8FDCBE72346CEE70620FCF7A2FD9C
:1064E000CEE700BF0000F0C10000DC42000020C287
:1064F0000000F0426E0D00206C0D002008B5FFF783
:106500004BFC08BDA0EB010C0098C01A00FB0CFC72
:10651000521A9CFBF2FC0CEB03007047F8B50F46D7
:1065200016461C4602F09CFB05462146069802F0E2
:1065300097FB0146284602F09DFC05463946304649
:1065400002F08EFB0146284602F048FD214602F08B
:1065500089FBF8BD904202DC884202DB704710469E
:10656000704708467047000038B584460846114613
:106570001A46BCF1640F01D94FF0640C541CACFBFB
:1065800004C4CCF3130E4FEA1C5343EA0433C3F3A1
:1065900013039E44C4F313239E440EEB147E114B4D
:1065A000A3FB0E53DB0803EB830303EB8303AEEB88
:1065B000030EBCEB0E0C64F10004DFF82CE00B4B77
:1065C00003FB0CF30EFB0433ACFB0ECE73444FEA1B
:1065D0009C0C4CEA837C624500D3624601F0A5FD29
:1065E00038BD00BF1F85EB51295C8FC2F5285C8F39
:1065F00010B5044601F0E2FB184B18602178292001
:10660000FBF7C4FC61782A20FBF7C0FCA1782B20A3
:10661000FBF7BCFCE1782C20FBF7B8FC2079431E8B
:10662000DBB2FD2B05D96079431EDBB2FD2B0AD905
:1066300010BD02F0C7FB0A4902F012FB01462520FB
:10664000FBF7B2FCEFE702F0BDFB054902F008FBE7
:1066500001462620FBF7A8FCEAE700BF4C0F00200C
:1066600000002042F0B583B0074600260096019650
:106670004420FBF769FC00F003053820FBF764FCBD
:1066800004461020FBF760FCA30003F03C032B43FF
:1066900043EA80138DF80030344601E00134E4B25F
:1066A0000F2C12D82046FCF7E3FC05462046FCF7E9
:1066B000F1FC0028F2D0002DF0D0102DEED8013DD5
:1066C0000123AB4033439EB2E8E78DF80160360A00
:1066D0008DF802601320FBF737FC8DF8030035209E
:1066E000FBF732FC00F132030D4880FB0320DB177F
:1066F000FF220021C3EB6010FFF72CFF8DF8040090
:10670000084A1378591C11708DF805303B685C6895
:1067100006236A4640F2E1613846A04703B0F0BD67
:106720001F85EB51480F002006296AD82DE9F04754
:106730000C46002398461D4639E087424ADB4DE06F
:10674000012E27D0C01B02F041FB8146012E26D02E
:106750004346D81B02F03AFB8246670004EB440331
:10676000DFF8A48008EB83031E79304602F02EFB8D
:10677000494602F07FFB514602F030FC8146274437
:1067800038F9270005FB060002F020FB494602F01D
:1067900067FA34E0381A02F019FB8146D6E743461F
:1067A000F81A02F013FB8246D7E70135B84604EB2E
:1067B0004402154B03EB82035B79AB4218D904EB1F
:1067C0004402114B03EB82039A6832F815709E79EC
:1067D000012EB2D0002EE8D18742E6DC002DAFD1E9
:1067E00004EB4404084B33F9240002F0EFFA06E00E
:1067F000054B03EB8203B3F9020002F0E7FABDE8B0
:10680000F0870020704700BFBCA300084DF804BD0E
:1068100093469C4600220023C0E90023C0E90223DE
:1068200000230374C0E902BC5DF804BB70472DE986
:10683000F041044610461946237CCBB1D4E90278D6
:10684000D4E900562A46334601F0ECFD02460B46D9
:106850003846414601F09EFF02460B462846314627
:1068600001F0E2FDC4E90001D4E90001BDE8F081D6
:10687000C4E9000101232374F6E770B516461C46EF
:106880005A2B02D84F2C1AD970BD0720FBF75CFB9E
:1068900005461F20FBF758FB281A02F097FA4FF025
:1068A000804102F0A3FC0028ECD03378053BDAB23B
:1068B00013F0800F01D03270E6E78022FBE7022060
:1068C000FBF742FB04462520FBF73EFB201A02F0B3
:1068D0007DFA4FF0804102F089FC0028D4D0337853
:1068E00005333370D0E770B50E4614465A2A02D8E5
:1068F0004F2C14D970BD1E20FBF726FB0546062041
:10690000FBF722FB281A02F061FA4FF0804102F0F7
:106910006DFC0028ECD03378053B3370EAE7252086
:10692000FBF712FB04460320FBF70EFB201A02F0D4
:106930004DFA4FF0804102F059FC0028DAD033784C
:1069400005333370D6E770B5044600260660C0F8FC
:1069500003602A20FBF70EFB20702B20FBF70AFBBD
:1069600060702920FBF706FBA0702520FBF7ECFAEE
:1069700005460220FBF7E8FAA842D4BF0020012018
:10698000E0700320FBF7E0FAA842ACBF0020012032
:1069900020712620FBF7D8FA05460520FBF7D4FA2C
:1069A000A842ACBF002301236371A671A378CBB1C9
:1069B0000122237903B102231A43A84214DA0423E3
:1069C0001343227802B108221A43637803B11023DB
:1069D0001343E27852B1202119431320FBF7D6FA72
:1069E000204670BD1A46E4E70023E9E71146F3E7C5
:1069F0002DE9F04180460C4615462320FBF7A4FA0A
:106A000002F0E4F906462520FBF79EFA02F0DEF9D3
:106A100007461F20FBF798FA02F0D8F998F80320F0
:106A200082F00102012323602271A7600021E1604E
:106A3000237466610222A2612377206298F8042001
:106A40005A402B602A71AF60E9602B746E61BDE81B
:106A5000F08100002DE9F04782460D460024174BD7
:106A60009946264600E00134022C15DC04EB440371
:106A70009F0005EB83031A79002AF4D099685046E9
:106A800002F0EEF880460146484602F0AFFB0028CF
:106A9000E9D0EE59C146E6E72320FBF755FA02F0AC
:106AA00095F9074902F084FB30B931461220FBF713
:106AB0006DFA3046BDE8F0870226F6E7FFFF7F7FDC
:106AC0000000A0C12DE9F04782460D4600246FF476
:106AD00000039946264600E00134012C15DC04EB46
