:020000040800F2
:1010000000500020A9750008A5750008A375000808
:10101000A3750008A3750008A37500080000000070
:10102000000000000000000000000000A57500089E
:10103000A575000800000000A5750008A57500084A
:10104000A3750008A3750008A3750008A375000820
:10105000A3750008A3750008A3750008A375000810
:10106000A3750008A3750008A3750008A375000800
:10107000A3750008A3750008A3750008A3750008F0
:10108000A3750008A3750008A3750008A53600081D
:101090008536000895360008A37500082514000859
:1010A000A3750008A3750008A3750008A3750008C0
:1010B000A3750008151400085D140008A375000846
:1010C000A3750008A3750008A3750008A3750008A0
:1010D000A3750008A3750008A3750008A375000890
:1010E000A3750008A3750008A3750008A375000880
:1010F000A3750008A3750008A3750008A375000870
:10110000A3750008A3750008A3750008A37500085F
:10111000A3750008A3750008A3750008A37500084F
:10112000A3750008A3750008A3750008A37500083F
:10113000A3750008A3750008A3750008D33600083E
:10114000B3360008C3360008A3750008A37500086D
:1011500008B58446084611461A46DCF8043098471C
:1011600008BD08B58368984708BD00B54FF0000C6E
:10117000E64604E000BF1CF1010C4EF1000E4B01ED
:1011800043EAD0634201121A63EB01039B0043EA76
:1011900092739200121841EB03031B0143EA12738E
:1011A000120194457EEB0303E4DB00BD08B5034B5D
:1011B0009988186805F021FD08BD00BF480A002085
:1011C00010B505F023FD164B186800F0A0FE06F0E0
:1011D00053FF144907F058F80146462000F002FF7B
:1011E000114801F041FE06F043FF104907F04CF8AA
:1011F0000146452000F0F6FE05F036FF01F02AFF1B
:101200000B4C206804F070FE206804F019FA04F01A
:10121000F1FB04F0C6FF074B186802F0F7FA10BDA7
:101220005809002000002041B00A002000004B4374
:10123000540900205009002008B503F0A9FF08BD9B
:1012400008B503460846B3F5E66F11D009D840F259
:101250002722934210D0B3F52A7F0BD104F098F9DE
:1012600008E040F23172934204D104F0F7FD01E04E
:1012700004F0F2FD002008BD04F0C2F9FAE7000016
:1012800010B50D4C00224FF4E661206802F04FFAD1
:10129000002240F23171206802F049FA002240F247
:1012A0002721206802F043FA00224FF42A712068B7
:1012B00002F03DFA10BD00BF5409002010B50446ED
:1012C0008188006805F096FC003818BF0120A379DA
:1012D000181A18BF012010BD08B5022000F05EFEEC
:1012E000284A1378002818BF43F00103137005F053
:1012F000BBFE254B1B68D3F8F830C01A312802D941
:10130000204B1B78B3BB2148FFF7D8FF01463420A0
:1013100000F05AFE1E48FFF7D1FF0146352000F0CD
:1013200053FE1C48FFF7CAFF0146332000F04CFE75
:101330001948FFF7C3FF0146362000F045FE04F0D0
:10134000E5F907F0B3F80146372000F03DFE04F060
:10135000F1F907F0ABF80146392000F035FE04F052
:1013600017F804F0E1F80146182000F02DFE04F013
:10137000D3FA08BD0021022000F026FE012001F072
:101380006FFEC0E73809002054090020B009002092
:10139000C0090020B8090020900A0020FEE70000E4
:1013A00038B5162826D00DD8C8B1012821D1174B41
:1013B0001B681C46012000F0F1FDC1B2204602F07E
:1013C000CBFF16E0172814D1172000F0E7FD80B1FD
:1013D00004F0B0F80021172000F0F6FD09E00C4BF6
:1013E0001C6823681B681D4600F0D8FDC1B220466A
:1013F000A84738BD162000F0D1FD0028F9D003F031
:1014000061FF0021162000F0DFFDF2E74C0900200B
:101410005409002008B5024B186800F03FFD08BDD4
:101420005809002008B54FF4807005F0A5FA50B1B6
:10143000084B1B7843B1084A1368013313604FF41B
:10144000807005F093FA08BD034A1368013B1360EE
:10145000F5E700BF0A0900204409002008B508216B
:10146000214805F063FE28B910211F4805F05EFEF3
:10147000E8B908BD02211C4805F0C3FF1B4B1B68DF
:101480003BB183420CD8C31A194A1360194B01228D
:101490001A70164B18600821134805F04DFEE3E75B
:1014A000C31A03F543435033114A1360EEE7032197
:1014B0000D4805F0A6FF104B1B683BB183420CD8CA
:1014C000C31A0E4A13600E4B01221A700A4B1860A1
:1014D0001021054805F030FECBE7C31A03F543435E
:1014E0005033064A1360EEE700080040340900203C
:1014F000400900203A090020300900203C09002062
:10150000390900202DE9F041ADF6180D00F066FA1A
:1015100000F02EFBD44E00223146D44801F0E8FC06
:1015200001223146D24801F0E3FC02223146D14883
:1015300001F0DEFC03223146CF4801F0D9FC042241
:101540003146CE4801F0D4FC05223146CC4801F0AA
:10155000CFFCCC4D00222946CB4801F0C9FCCB4C36
:1015600000222146CA4801F0C3FC01222146C94895
:1015700001F0BEFC02222146C74801F0B9FC03225B
:101580002146C64801F0B4FC04222146C44801F0BB
:10159000AFFC05222146C34801F0AAFC04234FF406
:1015A00080723146C04801F050F907234FF40042E1
:1015B0003146BE4801F049F9002304222946BC48BF
:1015C00001F043F9072308222946BA4801F03DF902
:1015D000072310222946B84801F037F907232022B3
:1015E0002946B64801F031F9092340222946B4487A
:1015F00001F02BF9092380222946B24801F025F990
:1016000004234FF480722946AF4801F01EF90423E9
:101610004FF400722946AD4801F017F909234FF441
:1016200000622946AA4801F010F907234FF48042CE
:101630002946A84801F009F907234FF480622146A2
:10164000A54801F002F907234FF400622146A348A0
:1016500001F0FBF807234FF480522146A04801F027
:10166000F4F807234FF4005221469E4801F0EDF8AC
:1016700007234FF4804221469B4801F0E6F804F529
:101680008064072301222146984801F0DEF80723F1
:1016900002222146964801F0D8F807230422214669
:1016A000944801F0D2F8072308222146924801F01D
:1016B000CCF8072310222146904801F0C6F80723F2
:1016C000202221468E4801F0C0F8072340222146FF
:1016D0008C4801F0BAF80723802221468A4801F09D
:1016E000B4F804F58064072304222146874801F0FA
:1016F000ACF8072308222146854801F0A6F8072305
:1017000010222146834801F0A0F800234FF4807294
:101710002146814801F099F800234FF400722146D8
:101720007E4801F092F800234FF4806221467C4805
:1017300001F08BF807234FF400622146794801F04D
:1017400084F801F009FB00F01DFB00F0A1F900F0A6
:10175000E7F901F051FC00F015FA0DF2EC54012606
:10176000019600960023704A7049204600F0DEFC86
:101770006F4B1C600DF5BC656E4BCDF8E0356E4BC4
:10178000CDF8E0356D4BCDF8E4356D4BCDF8E8354F
:10179000002000F003FCE1AC0023C2B269492046FE
:1017A00001F0B6FE684B1C602946204601F0B0FFF0
:1017B000FFF766FD32AD32462146284602F040FD75
:1017C000DFF88881C8F80050614B1D600FAF2A46D2
:1017D0002146384602F08EFD5E4B1F60304600F019
:1017E000DDFBC1B2384602F0B7FDD8F800205A4BF5
:1017F0001A605A4D05AC2946204600F0F5FA584BC0
:101800001968C1F35911574BA3FB013189090139FB
:10181000284605F0B2FC544B1C6003225349204675
:1018200000F006FB14225249204600F001FBC822BA
:101830005049204600F0FCFA4FF4C8724E49204649
:1018400000F0F6FA0021432000F0BEFB4720FFF72E
:10185000A7FD0A200021FFF788FC03F033FD642078
:101860000021FFF782FC89E000080140DC0A00202B
:10187000D80A0020D40A0020D00A0020CC0A002078
:10188000C80A0020000C0140C40A002000100140DA
:10189000C00A0020BC0A0020B80A0020B40A0020B8
:1018A000B00A0020AC0A0020A00A0020980A0020FC
:1018B000900A0020880A0020800A0020780A002070
:1018C000700A0020680A0020600A0020580A0020E0
:1018D000500A0020480A0020400A0020380A002050
:1018E000300A0020280A0020200A0020180A0020C0
:1018F000100A0020080A0020000A0020F809002031
:10190000F0090020E8090020E0090020D8090020A3
:10191000D0090020C8090020C0090020B809002013
:10192000B0090020A8090020749200080038014086
:1019300048090020088500081885000841120008A1
:101940008112000800640040540900205009002062
:10195000440C00204C090020400C002000040040F2
:1019600028090020632D3E0558090020391200087F
:10197000D9120008C1110008AD11000803F0DAFD0A
:1019800013E01C4619E004300DF10B0103F0D6F80A
:101990005CB103AB94E8030083E80300204602F047
:1019A00053FF21460FA802F000FD00228DF80B2006
:1019B0009DF8C430002BE4D02FAC064B186800F023
:1019C0009FFD054B18684369002BE1D10028DAD14F
:1019D000DAE700BF480900204C09002008B5294873
:1019E00005F062FA4FF0E023274AC3F80C2D40F2CD
:1019F000023005F0B7FA40F2033005F0B3FA4FF4C5
:101A0000417005F0AFFA40F2053005F0ABFA40F254
:101A1000063005F0A7FA40F20E3005F0A3FA40F2C6
:101A20000B3005F09FFA4FF4607005F09BFA40F21E
:101A3000813005F097FA40F2823005F093FA4FF4C6
:101A4000207005F08FFA40F2093005F08BFA40F271
:101A50000A3005F087FA40F2862005F083FA4FF449
:101A6000407005F07FFA40F2993005F07BFA074BA1
:101A70005A6842F0C0025A605A6842F400725A60D2
:101A800008BD00BFD49600080003FA05000001401D
:101A900030B597B004F0ACFE00F5FF3505F2FD154A
:101AA000AD0201AC14220021204600F0C8FE1A4B02
:101AB00001931823ADF8083001238DF80A30002275
:101AC0008DF80B20154903914FF44071ADF81010BB
:101AD0008DF812208DF8133004F06EFE142120468C
:101AE00004F078FE15902B6D834201D117B030BD04
:101AF00005F020F8284604F0D9FF002407E001ABE8
:101B000053F8241005EB840005F02EF80134142C52
:101B1000F5D905F01BF8E9E700100140000C014081
:101B200008B51D2005F0ACFD00211D2005F0B4FD19
:101B30001E2005F0A5FD01211E2005F0ADFD0B497D
:101B40004FF4807004F020FF02214FF4807004F005
:101B5000DBFE4FF4807004F0FBFE172005F090FDD3
:101B60000221172005F098FD08BD00BF00080140C4
:101B700008B54FF41C71032005F0AEFA002005F003
:101B80007DFA08BD38B57C4C204605F0F1FA0021FD
:101B9000204605F0F2FA0021204605F0D5FA40F67D
:101BA0000F61204605F0EBFA204605F0C8FA4FF425
:101BB000006302221146714804F0E2FF062202216E
:101BC000204605F0DEFA0221204605F0A0FB0221A6
:101BD000204605F0B6FB0221204605F0D7FB002287
:101BE0000221204605F0F7FB204605F0BCFA4FF035
:101BF000804005F0BDFA0A214FF0804005F0BDFAA3
:101C000000214FF0804005F09FFA4FF6FF714FF032
:101C1000804005F0B4FA4FF0804005F090FA584D3E
:101C20004FF4006302221146284604F0A9FF062261
:101C300011464FF0804005F0A4FA06214FF0804095
:101C400005F065FB06214FF0804005F07AFB062188
:101C50004FF0804005F09AFB002206214FF08040B3
:101C600005F0B9FB4FF0804005F07DFA4FF440736A
:101C700001220021284604F083FFA4F59234204677
:101C800005F076FA8F21204605F077FA4CF25031B4
:101C9000204605F074FA204605F060FA0F22022172
:101CA000204605F0BDFB05220221204605F0E0FBA1
:101CB00000220221204605F029FA0221204605F0E3
:101CC0000AFC0821204605F02DFA002203212046B7
:101CD00005F0A6FB06220321204605F0C9FB0022E1
:101CE0000321204605F012FA0321204605F0F3FBFC
:101CF0001021204605F016FA4023022211462846FC
:101D000004F03EFF06220021204605F03AFA0021A9
:101D1000204605F0FCFA0021204605F012FB0021C8
:101D2000204605F033FB00221146204605F053FB08
:101D3000802302221146284604F022FF06220221B7
:101D4000204605F01EFA0221204605F0E0FA0221A5
:101D5000204605F0F6FA0221204605F017FB002286
:101D60000221204605F037FB0121204605F043FB08
:101D7000204605F0F8F938BD002C0140001801405C
:101D8000000C014010B582B009238DF80730154CC6
:101D9000204604F0B7FA204604F0BEFA204604F0CC
:101DA000D0FA0721204604F098FA0DF1070201212C
:101DB000204604F0CBFA4FF46021204604F066FA86
:101DC000204604F051FA002301E000BF0133772BD5
:101DD000FBDD044C204604F063FA204604F073FA5D
:101DE00002B010BD0028014038B505460C4601621E
:101DF000084605F0A4F9204605F0B0F90A4B196829
:101E0000C1F31A11094BA3FB0131C909013920465D
:101E100005F0B3F94FF6FF71204605F0B0F9002345
:101E20006B62284638BD00BF28090020C55A7C0ACD
:101E3000F8B5436A032B00DDF8BD04460D4616468F
:101E4000006A05F095F9636A0122134FF95C206A74
:101E500005F097F9636A0022F95C206A05F0BBFA85
:101E6000636A44F8235003F1080106EB860202EB93
:101E70008202920024F8112002219940206A05F084
:101E800051F90021206A05F0C9FA206A05F06BF9C2
:101E9000636A01336362CFE720850008F8B5054621
:101EA00000242AE00226A6403146286A05F03EF9C1
:101EB00040B3286A05F0A3FA87B22B6A03EB8403C8
:101EC0005A6B04F1080135F811100A445A6355F8A9
:101ED00024309847286A05F092FAC01B04F10C03DD
:101EE00025F813003146286A05F026F904E002219E
:101EF000A140286A05F020F90134032C06DC6B6A46
:101F0000A342CFDC6B6AA342F6DCF0E7F8BD0146E2
:101F1000002210460FE002F10C0331F813304FF4A9
:101F20007A7C0CFB03F302F1080C31F81CC093FB24
:101F3000FCF3184401324B6A9342ECDC704700001A
:101F4000024B1A68024BC3F878277047000900203B
:101F50001C01002008B5C0EBC0020B4B03EB820351
:101F6000DB688B420EDC084B03EB82031B698B4260
:101F700001DAFF2007E0054B43F82010FFF710FAC5
:101F8000002000E0FF2008BD1C0100200000002010
:101F9000014B53F82000704700000020024B53F81B
:101FA00020004011704700BF0000002008B5054B1D
:101FB00053F8200006F060F84FF0745106F0B0F8C6
:101FC00008BD00BF000000204901024B43F820106B
:101FD000704700BF00000020014B43F820107047FD
:101FE0000000002010B5044608464FF0844106F07A
:101FF00097F806F05BFA024B43F8240010BD00BFCF
:102000000000002070B506460024074D462C09DC70
:102010003146686800F072FB10B101341C35F5E7F9
:10202000E0B270BD4820FCE71C0100200023064AF6
:10203000462B07DC118B814202D001331C32F7E7BB
:10204000D8B27047482070471C010020C0EBC00088
:10205000014B03EB800070471C01002038B50024C1
:10206000074D05E06969E0B2FFF7B6FF01341C35A2
:10207000462C03DC2B8B002BF8D0F3E738BD00BFD8
:102080001C010020014B1954704700BF5C0900205F
:10209000024A135C0B431354704700BF5C090020D5
:1020A000024A135C23EA0103135470475C090020C1
:1020B000014B185C704700BF5C090020C0EBC000FA
:1020C000024B03EB8003987E704700BF1C01002089
:1020D00000487047D074010008B5FFF731FF08BD14
:1020E00008B52021806805F056FA08BD08B580685B
:1020F00005F049FA08BD10B504464368597A586896
:1021000004F0DAFB636804F12A02597A586804F093
:10211000E5FB63688022597A586804F0EFFB636836
:10212000597A586804F0BFFB10BD000070B5044632
:102130000D46534901605349016085600373026194
:10214000012101754175817500228261C26180F8AB
:102150002020426280F828109DF8101080F8291085
:102160009DF8141080F82A1247494160032A07D8C5
:1021700061680868A84203D01C3161600132F5E74C
:10218000424A1460002B74D062685069002B73D0EF
:1021900063681B8B0222032104F0F2FC4FF4E1314F
:1021A000284605F09FF90821284605F0ADF94FF4BF
:1021B0000051284605F0B1F90C21284605F0B9F97F
:1021C0000021284605F0AFF90021284605F0B7F9AF
:1021D000284605F0CAF9284605F0CCF96368197A53
:1021E000586804F00BFB6368197A586804F052FBD6
:1021F00063682E1D3246197A586804F066FB6368DE
:102200000022197A586804F023FB63680022197AC7
:10221000586804F011FB6368197A586804F024FBCD
:102220006368597A586804F0E9FA63683246597A63
:10223000586804F04AFB63680022597A586804F031
:1022400007FB63680022597A586804F0F5FA63685E
:10225000597A586804F008FB6368597A586804F0A2
:1022600022FB2046FFF747FF284605F06EF920467F
:1022700070BD6268D06889E763681B8A8AE700BF1F
:10228000F49100080092000804920008A4090020BC
:1022900038B50D460469437D3BB1216839B1284604
:1022A00000F02CFA18B10834F7E71C4601E0236867
:1022B0000BB1204638BD1C46FBE738B504460D4639
:1022C00001E0002373B163680222197A586804F0B0
:1022D000AAFA0028F5D194F828300BB10346F1E7AB
:1022E0000123EFE76368197A586804F0E5FA636838
:1022F000AAB2197A586804F001FB636894F82020A8
:10230000D201A83222440232197A586804F0E6FA5F
:1023100063680222197A586804F080FA6368197AAF
:10232000586804F0C0FA94F82030B3FA83F35B09DC
:1023300084F82030002384F8283038BD10B50446D6
:10234000837D73B10A2910D0436A7F2B0DD090F89A
:10235000202000EBC2121A4482F8AA100133436213
:1023600010BD806805F0F6F8FAE794F82030626A4C
:1023700004EBC313134483F8AA10511C2046FFF743
:102380009CFF00236362EBE710B50C46802A28BF50
:10239000802211464FF0000C0AE090F8203014F82B
:1023A0000CE000EBC313634483F8AAE00CF1010CCA
:1023B0008C45F2D3FFF781FF10BD38B505460C46BA
:1023C000084600F0B2F9024621462846FFF7DCFF36
:1023D00038BD000010B50446084600F0F9F900F0D9
:1023E000DEF9237D83420DD000236375237B0BB37D
:1023F000626850690BB363681B8B0122002104F0F3
:10240000BFFB10BD01236375237B6BB1626850690C
:102410006BB163681B8B0222032104F0B1FB0849F6
:102420002046FFF7CAFFECE76268D068F0E7636810
:102430001B8AF0E76268D068DCE763681B8ADCE728
:10244000D48E000830B585B00446084600F0C0F9C7
:102450000378302B13D0322B0ED04FF461231D465E
:10246000637D83B92946A06805F03CF80021A06887
:1024700005F053F805B030BD0E4B1D46F0E74FF4A4
:10248000E1331D46ECE70A22294601A800F05DF978
:1024900009492046FFF791FF08492046FFF78DFFC5
:1024A00001A92046FFF789FF05492046FFF785FF70
:1024B000D8E700BF10552200908C0008988C0008C7
:1024C0009491000810B50446084600F081F903789D
:1024D00023B1303B18BF012384F8293094F8293008
:1024E00023B105492046FFF768FF10BD0349204688
:1024F000FFF763FFF9E700BFA88C0008B48C000861
:10250000F8B504464368597A586804F0F0F906466D
:10251000C0F1800558B92046FFF7EDFD07E05A1CD1
:10252000E261234493F82A10A06805F013F894F8A8
:10253000293013B1E369AB42F1DB0821A06805F053
:102540002AF8E0B97F2E28DCC6F17F03234493F8F4
:102550002A300A2B17D00D2B15D094F82A30212BB6
:102560001BD1A369CBB12046FFF7C5FD0023E36172
:10257000A3695B6804F5D571204698470DE0A06813
:1025800005F001F8DEE76368597A586804F094F9B9
:102590007E2E03DD2046FFF7AEFDF8BD6319002255
:1025A00083F82A20E26104F12A072021384600F04E
:1025B000C3F80646037823BB0A21384600F0BCF86E
:1025C0000646002384F8AA31337803B3002333701E
:1025D000A3612A49384600F091F80646E8B904F5A7
:1025E000D5712046FFF7F6FEA369002B3CD0A0680A
:1025F00004F0CDFFA3695B6804F5D57120469847C8
:10260000C8E7411C04F5D57000F086F8DCE70D2121
:10261000384600F091F80646D8E71949384600F0E8
:102620006DF8064668B994F82A322BB104F5D571D5
:102630002046FFF707FFD7E712492046FFF7BDFE08
:10264000D2E71149384600F059F8064628B904F592
:10265000D5712046FFF736FFC6E739462046FFF71B
:1026600017FEA0612E46BFE7012E93DD637D002B90
:1026700090D006492046FFF7A0FE8BE7C08C0008EB
:10268000CC8C0008D88C0008F48C0008FC8C000866
:1026900008B5044B1B681A681268C1B21846904707
:1026A00008BD00BFA4090020704708B500F032FD46
:1026B00008BD000000B583B00649D1F8F027D1F875
:1026C000EC37D1F8E8170091034900F0EBFA03B0BA
:1026D00000BD00BF00F0FF1F188D000810B50446B4
:1026E000FFF7BCFC0249204600F0DCFA10BD00BF39
:1026F0002C8D000808B502F021FA08BD431E0139EF
:1027000013F8010F11F8012F10B10AB19042F7D060
:10271000801A18BF01207047013911F8013F0BB929
:102720000370704700F8013BF7E70023C25C0AB969
:10273000184670470133F9E703461A7818461AB16C
:102740008A4203F10103F8D17047002970B51EDAFF
:102750002D23012400F8013B4942064691FBF2F388
:1027600002FB131130313170191E354606F1010696
:10277000F4DC00220346201A30443270AB420BD204
:102780001A78297803F8011B05F80129F6E704D126
:10279000302341700370012070BD0024DDE730B5A7
:1027A00003782D2B11D14FF0FF34013000210A2581
:1027B000431E01E005FB012113F8012F303AD0B28E
:1027C0000928F7D904FB01F030BD0124EEE7000031
:1027D00010B5144C02780146A2F10A03DBB2162BA5
:1027E0001BD824FA03F3DA0700F10100F2D40846FB
:1027F000FFF79BFF01380844814204460AD2037860
:102800000A3BDBB2162B05D8064A013822FA03F33D
:10281000DB07F1D40023637001E0002AE7D108460A
:1028200010BD00BF09004000002310B5934200D145
:1028300010BD51F8234040F823400133F6E702B9B8
:102840007047013A40F8041BF9E7F8B50D46164603
:102850001C460160828000238371052C30D00AD988
:10286000082C32D01AD8062C41D0072C42D1002493
:1028700003231F4630E0032C1CD009D8012C13D0B1
:10288000022C02D100231F4622E002241F4623E02F
:10289000042C28D1012400231F461DE0092C2DD132
:1028A000022403231F4617E001238371022400231F
:1028B0001F4611E001238371022400231F4607E015
:1028C0000124847100231F4606E0012403231F46D0
:1028D0003146284604F089F93346224639462846CF
:1028E00004F04EF9F8BD022400231F46F4E700244B
:1028F0002746F1E7022400231F46EDE702240023C8
:102900001F46E9E7024B4FF400421A80704700BFB0
:10291000A80A002008B5FFF7F5FF08BD70B50C1E2A
:10292000ACBF01234FF0FF335C430133064608BFC1
:102930002D234FF0640208BF06F8013B611104F03B
:102940001F040546544330460A22FFF7FEFE2E229E
:102950006411092C3254D8BF302206EB0003D8BFD3
:102960005A7021464FF00A02CCBF581C981CFFF742
:10297000ECFE284670BDF0B5027803462D2A13D12F
:102980004FF0FF30013300250A2702E007FB052541
:1029900001331C78A4F13002D6B2092EF6D9A4B9BD
:1029A0008D4025446843F0BD0120ECE78A4002EBEE
:1029B000660292FBF6F20CFB06F6144413F8012FA4
:1029C000303AD7B2092FF1D9EAE70A260024B446F3
:1029D000F4E72DE9F04105460F46161E02DD0A46D2
:1029E000002108E04FF0200813F001041BD0002460
:1029F00022E00131013210780028FAD1B14206DA22
:102A0000761A13F0020F04D14FF02008ECE70026ED
:102A1000F7E74FF03008E7E72B681B684146284688
:102A200098470134013E002EF6DC05E02B681B6858
:102A3000284698470134013739780029F6D106E055
:102A40002B681B684146284698470134013E002EFA
:102A5000F6DC2046BDE8F08170B584B00646DDF8AE
:102A600028C059B11D460B4615B10A2A11D00025C0
:102A700000218DF80D100DF10D0416E030238DF8B6
:102A800000308DF80110099B089A6946FFF7A1FFF5
:102A900032E0002901DB0025EAE74B420125E7E7A8
:102AA000303104F8011DB3FBF2F34BB1B3FBF2F18B
:102AB00002FB11310929F3DDACF13A000144EFE7E3
:102AC0009DB1089B63B1099B13F0020F08D03046FB
:102AD00033681B682D219847089B013B089304E04D
:102AE0002D2304F8013C013C0025099B089A21464E
:102AF0003046FFF76EFF284404B070BD08B50846A5
:102B0000FFF7C6FD08BDF0B585B0074616461D4661
:102B10006846FFF703FF2B46324669463846FFF703
:102B200058FF05B0F0BD000070B588B006460C46F1
:102B30000592002587E0A21C012391E00022217864
:102B4000A1F1300C5FFA8CFCBCF1090F06D802EB46
:102B50008202303901EB42020134F0E773291AD0C6
:102B6000642923D0782930D058293DD075294AD0FE
:102B7000662957D0632965D10599081D0590096814
:102B80008DF81C1000218DF81D1007A93046FFF7A5
:102B900020FF054456E00599081D0590096801B914
:102BA00035493046FFF715FF05444BE00599081DF0
:102BB00005900968612002900193009201230A2286
:102BC0003046FFF749FF05443CE00599081D059094
:102BD0000968612002900193009200231022304680
:102BE000FFF73AFF05442DE00599081D0590096897
:102BF0004120029001930092002310223046FFF7FB
:102C00002BFF05441EE00599081D05900968612009
:102C100002900193009200230A223046FFF71CFF26
:102C200005440FE00599081D059009683046FFF737
:102C30006AFF054406E0144633681B682178304675
:102C400098470135013423789BB1252BF4D1621CC0
:102C5000637873B1252BEED02D2B3FF46CAF00239E
:102C600014462278302A7FF469AF013443F002031E
:102C7000F7E7284608B070BDA08D00080FB400B576
:102C800083B004AA52F8041B054B0193009201A8DB
:102C9000FFF74AFF03B05DF804EB04B0704700BFD4
:102CA000EC9200080EB400B582B003AA52F8041BDF
:102CB0000192FFF739FF02B05DF804EB03B07047F3
:102CC000174B184A1360991C174A1160191D174AAF
:102CD0001160991D164A116003F10801154A11602F
:102CE00003F10A01144A116003F10C01134A116047
:102CF00003F10E01124A116003F11001114A116033
:102D000003F11201104A116003F114010F4A11601E
:102D100003F116010E4A116018330E4A1360704712
:102D2000E00A0020DC0A0020D80A0020D40A002093
:102D3000D00A0020CC0A0020C80A0020C40A0020C3
:102D4000C00A0020BC0A0020B80A0020B40A0020F3
:102D5000B00A0020AC0A002030B583B0334B93E8B2
:102D6000030002AB03E903000025002D2CDD304CED
:102D7000304A0121204603F0A8FD2F4A01212046B8
:102D800003F0ACFD4FF480720121204603F060FD9A
:102D90004FF480620121204603F04EFD9C22012168
:102DA000204603F0ABFD0121204603F05DFD01212B
:102DB000204603F062FD0121204603F074FD1F4808
:102DC00003F0F2FA03B030BD02AB03EB850353F816
:102DD000084C204603F096FA204603F098FA204665
:102DE00003F0AAFA204603F09CFA0121204603F0E2
:102DF00074FA204603F038FA204603F051FA2046D0
:102E000003F061FA05EB450305EB83030C4A1A4412
:102E10000D21204603F09AFA204603F0CFFA4FF432
:102E20006021204603F032FA01359EE7F092000857
:102E3000000002404C240140E00A00200024014030
:102E4000180C0020884205DD914209DC90420ADD21
:102E500010467047904206DC914203DD10467047F1
:102E6000084670470846704730B583B004680025AF
:102E70000BE0A28E618B2088FFF7E4FF02AB03EB2F
:102E8000450323F8080C01354E34032DF1DDBDF860
:102E90000000BDF802301844BDF804301844BDF8F5
:102EA00006301844C0F38F0003B030BD08B50F4B97
:102EB00098420BD003F58063984211D0A3F50063CC
:102EC000984205D1072903DCC8B204E0012903DDDB
:102ED00003F0D2F9102008BDC9B20831C8B2FAE730
:102EE0000529F5DCC9B20A31C8B2F4E7000C01408B
:102EF00070B505460E461446012393409BB200224E
:102F00001146304603F03CFE2B68054A9B1A5D10C3
:102F100021463046FFF7CAFFABB2024AD05470BD1B
:102F2000E00A0020180C002008B5FFF7C9FE08BD14
:102F300008B503F05DFC00F5FF3000F2FF108002E1
:102F400008BD2DE9F043ADF2044DFFF7F1FF074650
:102F5000024600234FF0FF3603E052F8041B0E40F8
:102F60000133FF2BF9DD03F027FC4FF480724FF0A3
:102F7000FF316846FFF763FC002400E00134462C73
:102F80001AD8E5B22846FFF799F80028F6D1284666
:102F9000FFF75CF880462846FFF78AF80DEBC40976
:102FA00089F80300B8F818202DF834202846FEF7D9
:102FB000EFFFC9F80400E1E7FE21684603F00AFCD0
:102FC000FE9003F0B7FDB6F1FF3F01D100240AE007
:102FD000384603F06BFDF9E75DF8241007EB840039
:102FE00003F0C2FD0134FF2CF6D903F0AFFDFE98CB
:102FF0000DF2044DBDE8F083F8B5FFF799FF0646E2
:1030000003F0DAFBFE21304603F0E4FBD6F8F83398
:10301000834201D1002503E04FF0FF3019E0013574
:103020007E2D15D836F83500FFF700F804464828FD
:10303000F5D0FFF743F80028F1D106EBC507796812
:103040002046FEF7C9FFF9782046FFF71BF8E6E7B0
:103050000020F8BD014B1860704700BF300C002005
:103060000D4B1B5CB3B90D4B196899B10C4B187023
:10307000DFF830C0DCF800300B4A02F8330002EB16
:10308000C3025160044A012111540B4403F00303AD
:10309000CCF80030704700BF280C0020300C002016
:1030A0002A0C00202C0C0020E008002003280AD85D
:1030B000064B03EBC0035B680BB918467047034B24
:1030C00013F8300070470020704700BFE008002070
:1030D000032801D900207047024B03EBC003586856
:1030E000704700BFE008002008B5074B03EBC102A2
:1030F00092F804C053F83130044A52F82C200146AB
:103100000348FFF7BBFD08BD04930008F8920008D0
:10311000A88D000810B50C4B5B680BB1002409E0CA
:103120000A48FFF7ABFD10BD074B13F83410FFF74B
:10313000DBFF0134032CF6D8034B03EBC4035868C0
:103140000028F1D1EFE700BFE0080020B88D0008AB
:1031500000B58BB0104B01EB410203EB820C53F82E
:103160002220DCF804C001EB410103EB81039B68E2
:10317000D0F858020021089107910693CDF814C0A9
:10318000049203910291019100910B46012203F0F8
:1031900027F90BB000BD00BF28930008F0B583B03D
:1031A00004460D4616461F4672B60121D0F8580255
:1031B00003F029FA019600970023B5F5006F34BF9C
:1031C000002201222946D4F8580203F021FA0028EF
:1031D00006DBD4F85432002B18DC62B603B0F0BD25
:1031E000D4F85432132BF4DC03F1110204EB021275
:1031F00055609760316804EB0312C2F81C117168C6
:10320000C2F820110133C4F85432E2E70121D4F8A6
:10321000580203F0F4F9E0E7012801DD00207047CF
:10322000014B53F820007047340C002030B58BB0B0
:1032300004460D460AE09DF8213006AA0999204669
:1032400000F0B2FA03F010FFC4F8F8000023059371
:1032500006AB04930DF12103039308AB02930DF128
:10326000220301930DF12303009309AB0122E9B27C
:10327000D4F8580203F041FA0028DCD10BB030BD7D
:1032800030B583B0044600F58A7504E0D4F85432B2
:10329000013BC4F85432D4F85432002B17DD03F14B
:1032A0008053013B1A0105EB0313A9585A680833F0
:1032B0000193D2B200920023B1F5006F34BF002217
:1032C0000122D4F8580203F0A3F90028DEDAD4F87A
:1032D00054320BB103B030BD0121D4F8580203F0D1
:1032E00092F9F7E770B584B00E4615461C46106893
:1032F000B3F800C05A889B88B4F806E05B019BB223
:10330000520192B24FEA4C1C1FFA8CF14FF0010CA3
:10331000CDF808C000EA0C0CCDF804C04FEA4E1CF2
:103320001FFA8CFCCDF800C003F04CF90023336089
:103330002A6801322A60E380A3806380238004B07E
:1033400070BD70B584B00E4615461C461068B3F8C3
:1033500000C05A889B88B4F806E05B019BB252011A
:1033600092B24FEA4C1C1FFA8CF14FF0010CCDF8D1
:1033700008C000EA0C0CCDF804C04FEA4E1C1FFA3E
:103380008CFCCDF800C003F00DF9002333602A68EF
:1033900001322A60A380238040F2FF73E3806380C0
:1033A00004B070BD70B582B00E4615461C4610685C
:1033B0001968C9005A68D20001230093034042F003
:1033C000040241F0040103F00DF9002333602A6880
:1033D00001322A606360236002B070BD30B58BB0EB
:1033E0000546002308930993474906AA03C982E8C2
:1033F000030004930593039302930193D5F8582295
:10340000424B9A420AD0A3F58063D3F8003AC3F343
:10341000052300930024C2F81C4221E00023F8E7B2
:1034200004F11E0205EB8202516871B3029A501C2E
:1034300002900DF1280C0CEB420C2CF8103C0232DF
:1034400002920AAB03EB400020F8101C039B042BF4
:1034500024D0029B022B28D0019B022B2CD00134BC
:10346000D5F8F430A3422EDD05EB84035B68B3F599
:10347000006FD5D3019A23F060430AA901EB8201C2
:1034800041F8183C01320192E0E7039A0AA901EBE6
:10349000420121F8083C01320392D7E708AB6A46A3
:1034A00003A92846FFF71EFFD3E706AB6A4602A929
:1034B0002846FFF746FFCFE704AB6A4601A9284636
:1034C000FFF770FFCBE7039B002B07DC029B002B71
:1034D0000BDC019B002B0FDC0BB030BD08AB6A4648
:1034E00003A92846FFF7FEFEF0E706AB6A4601A9EE
:1034F0002846FFF726FFECE704AB6A4601A92846F9
:10350000FFF750FFE8E700BF649300080064004045
:10351000F8B504460D4616461F4600F0E3F8544B36
:1035200023600023C4F85432C4F85852514B9D42D2
:103530002FD003F580639D4258D1002F00F0828088
:103540004D4D202302220021284603F019FB2021A3
:10355000284603F04AFB402302220321284603F0B9
:103560000FFB402004F08CF8F021402004F094F888
:10357000412004F085F8F021412004F08DF83F202F
:1035800004F07EF8F0213F2004F086F83B4B5C60AD
:103590002CE0002F41D0384D4FF4807302220021DF
:1035A000284603F0EDFA4FF48071284603F01DFB26
:1035B0004FF4007302220321284603F0E1FA14209D
:1035C00004F05EF8F021142004F066F8152004F0F1
:1035D00057F8F021152004F05FF8132004F050F89C
:1035E000F021132004F058F8244B1C60D4F8580242
:1035F00002F0EAFE31462046FFF7AAFD2046FFF71B
:10360000EDFE0221D4F8580202F0F9FF1021D4F89F
:10361000580202F0F4FF2046F8BD194D4FF4006344
:1036200002220021284603F0ABFA4FF4006128463D
:1036300003F0DBFA4FF4805302220321284603F003
:103640009FFABCE70C4D4FF480530222002128461C
:1036500003F096FA4FF48051284603F0C6FA4FF46F
:10366000005302220321284603F08AFA79E700BFBB
:103670001C93000800640040000C0140340C002042
:103680000008014008B50020FFF7C6FD0021FFF744
:10369000CDFD08BD08B50020FFF7BEFD0121FFF7F5
:1036A000C5FD08BD08B50020FFF7B6FDFFF7E8FD32
:1036B00008BD08B50120FFF7AFFD0021FFF7B6FDFB
:1036C00008BD08B50120FFF7A7FD0121FFF7AEFDFA
:1036D00008BD08B50120FFF79FFDFFF7D1FD08BD2C
:1036E00070477047084B03600023C0F8F430C0F8FF
:1036F000FC3005E003F14002044940F82210013398
:10370000042BF7DD704700BF749300080409002004
:10371000D0F8FC30042B01DD0020704703F140029B
:1037200040F822100133C0F8FC300120704710B57A
:103730001446D0F8F4201D2A0CDD002010BD013302
:103740009A420ADD00EB830CDCF804107145F6D1D7
:103750000020F3E78E460023F2E700EB8203C3F874
:1037600004E002F11E0300EB83035C600132C0F849
:10377000F42003689B6898470120DFE738B50546C9
:103780000024C0F8F44003689B68984707E004F100
:10379000400355F8230003685B6898470134D5F867
:1037A000FC30A342F3DC38BD2DE9F84305468946D9
:1037B00090461F4600240AE004F1400355F8230018
:1037C00003681E683B4642464946B0470134D5F877
:1037D000FC00A042F0DCBDE8F88370B5054600F1BE
:1037E000300634460BE034F8043BC3F3C02123F425
:1037F0000063002203EB41716868FFF798FFA31B89
:10380000242B02DCA378322BEDD170BD2DE9F041E1
:1038100082B0054600F108073E46F31B242B00F357
:103820009380B378322B00F08F80002300930193B4
:10383000B37803EB4304A40058342C441AE0C0F3DB
:1038400007231B0443EA0063C0F3074243EA022351
:1038500043EA1063E2791F2A3DD8C2F11F0223FA1E
:1038600002F2009B13430093647A04EB4404A40027
:1038700058342C44637AFF2B5DD0354B1B78002BDA
:1038800062D12079FEF792FB0146206804F048FCE3
:10389000804694F9060004F0EFFB414604F038FB43
:1038A00004F004FE94F908C08CEAEC71A1EBEC7111
:1038B000C9B24FF0FF328A4020EA0200BCF1000F8B
:1038C000BDDBE2791F2A20D9203A00FA02F2019BDF
:1038D00013430193C8E79444BCF11E0F07DDC2F106
:1038E0003F0223FA02F2019B13430193BCE7A2F1CA
:1038F0001F0003FA00F0009901430091C2F13F025A
:10390000D340019A1A430192AEE702EB0C03202B3D
:1039100005DC00FA02F2009B13430093A4E700FACF
:1039200002F1009B0B430093C2F12002D040019BA7
:103930000343019398E7686803685C6808236A4654
:1039400036F8041BA04768E702B0BDE8F08100BF6D
:103950003C0C002010B509B302F10C0E00EB8E0EEA
:103960000A2A46D89EF80210322944D001EB410CB5
:103970004FEA8C0C0CF1580C844400210C469CF846
:103980000910FF2933D073B1013BDBB201EB4101D8
:1039900089005831644600EB010CF0E702F1020E99
:1039A00000EB8E0EDCE72CB16172FF238CF809303E
:1039B00001201FE0322904D08EF80210F5E7013310
:1039C000DBB29918092904DC0EEB830189783229CE
:1039D000F5D1013BDBB20EEB830291788EF8021039
:1039E0003EF82330AEF8003032239370DDE700203C
:1039F00000E0002010BD0020FCE7F8B500F108034E
:103A000000263446354637463DBB1A462C46A2EBC7
:103A1000030CBCF1240F27DC92F802C0BCF1320F7A
:103A200022D00CEB4C0E4FEA8E0E0EF1580E86444F
:103A3000002609E00136F6B20CEB4C0C4FEA8C0C78
:103A40000CF1580C00EB0C0E9EF809C0BCF1FF0FF6
:103A500006D0BEF804E08E45ECD15DB10020F8BD83
:103A60000134E4B20432D2E700F130033D460122D2
:103A70001746C9E7334622463946FFF76BFFEEE7A4
:103A800070B514461E460023079A137000F108050E
:103A9000002B46D12A46531B242B3ADC92F802C055
:103AA000BCF1320F35D00CEB4C0E4FEA8E0E0EF1FE
:103AB000580E864407E00CEB4C0C4FEA8C0C0CF1D2
:103AC000580C00EB0C0E9EF809C0BCF1FF0F1ED085
:103AD000BEF804308B42EED11388C3F3C0222360BA
:103AE00023F40063236043EA427323609EF80730A7
:103AF00033709EF90820049B1A70DEF80020059BA5
:103B00001A609EF90620069B1A70012070BD0432CF
:103B1000C1E7079B1B780122079D2A7000F1300541
:103B2000B6E70020F2E78446D9B102F10C0100EBC0
:103B300081010A2A27D88A78322A26D002EB42024B
:103B4000920058320CEB0200427AFF2A19D063B17E
:103B5000013BDBB202EB4202920058320CEB020056
:103B6000F2E7911C00EB8101E3E70B88C3F3C0226D
:103B700000990B6023F400630B6043EA42730B600F
:103B800070470020704700207047002070472DE9E3
:103B9000F04385B00646884600F1080900273B46F9
:103BA0002FE02B88C3F3C02C23F4006194F9083074
:103BB000E2792079029794F906E0CDF804E0D4F890
:103BC00000E0CDF800E041EA4C71C047647A04EBB4
:103BD0004404A40058343444637AFF2BE1D1043503
:103BE000A5EB0903242B08DCAB78322B05D003EBC3
:103BF0004304A40058343444EEE706F130093B4650
:103C000001270BB94D46EBE705B0BDE8F083002373
:103C100006E001EB83024FF0320C82F802C0013360
:103C2000092BF6DD002307E003EB430200EB8202E1
:103C3000FF2182F861100133322BF5DD704710B59A
:103C4000044600F10801FFF7E2FF04F130012046CD
:103C5000FFF7DDFF6068FFF791FD10BD2DE9F04132
:103C60000F4615461E460024A0460AE0286802F0CA
:103C7000ABFD804655F8041B07EB840002F074FF8F
:103C80000134B442F2DB4046BDE8F081084600E072
:103C90000430431A242B0ADC8378322B05D00388A6
:103CA000534033F40063F3D102E00020704700205A
:103CB000704700004B4B1B7803B170472DE9F04172
:103CC000054616460A4600F13001FFF7DFFF0028DF
:103CD00000F08580837803EB4304A40058342C441F
:103CE00042E01F2B53D83068C0F30722120442EA87
:103CF0000062C0F3074742EA072242EA1062C3F1BA
:103D00001F03DBB201208840013822FA03F3184078
:103D100004F0AEF9074694F9060004F0ADF939460F
:103D200004F0F6F80146206804F0FAF90746207915
:103D3000FEF7C4F920B12079FEF7C0F9012849D176
:103D4000B4F804804FF08441384604F0E9F904F0F7
:103D5000ADFB01465FFA88F0FEF7FCF8647A04EBED
:103D60004404A40058342C44637AFF2B37D0E37901
:103D700094F9082082EAE271A1EBE271C9B2002A4B
:103D8000AFDB1F2B18D97268203BDBB2BAE71A44AD
:103D90001F2A03DD7068203BDBB2A5E75B1ADBB2AC
:103DA0000133DBB23068D8407268C3F120039A4017
:103DB00010434B1EDBB297E71A44202A01DC32681D
:103DC000A0E73268DA407068C3F1200398400243EC
:103DD000002397E739462079FEF704F9BEE7BDE8EE
:103DE000F08100BF3C0C00202DE9F8439DF82070C5
:103DF0009DF92460002E76D004460D4691469846E3
:103E000086EAE673A3EBE673DBB2202B6ED8002EB6
:103E10000BDDBB19402B6CDC424629462046FFF7E0
:103E200035FF844658B100221BE03F2F64D87BB297
:103E30003344B3F1FF3FEFDA6FF0010051E00021AE
:103E4000092907DC05EB81039A78322A01D0013178
:103E5000F6E79C46BCF1000F51D0ACF80080E2E7D9
:103E60000132312A07DC02EB420304EB830393F8AF
:103E70006130FF2BF4D1322A44D09CF8023000216B
:103E80000AE003EB430189005831214403EB43036B
:103E900004EB830393F86130322BF2D102EB42033F
:103EA00004EB8304A4F85C900A9BA3659DF92C3075
:103EB00084F85E3084F85F7084F86060322384F8A0
:103EC000613019B14A722B46002004E08CF80220C0
:103ED000F9E7013004335A1B242A02DC9A78322A8B
:103EE000F7D1BDE8F8836FF00200FAE76FF0020047
:103EF000F7E76FF00100F4E76FF00100F1E76FF012
:103F00000300EEE76FF00400EBE7B2F5006F16D2A6
:103F100000B585B09DF920C0CDF80CC0DDF81CC0FF
:103F2000CDF808C09DF918C0CDF804C00093134621
:103F30000A4600F10801FFF757FF05B000BD4FF03A
:103F4000FF30704770B584B005461446C2F3407028
:103F500022F00052B2F5006F1DD29DF928C0CDF8B5
:103F60000CC0DDF824C0CDF808C09DF920C0CDF804
:103F700004C0009342EAC0230A4605F130012846F6
:103F8000FFF732FF0646002221466868FFF7CFFBA5
:103F9000304604B070BD4FF0FF331E46F8E72DE900
:103FA000F04F89B08346059206938A46079131E027
:103FB000B4F9020004F060F8002303930290CDF8F6
:103FC000048000953B46049A05993046FFF70CFFA4
:103FD0000634A4EB09032A2B1ADC94F90530002BD4
:103FE00016DD2088FEF722F80490DBF80060BAF8AE
:103FF0000070257994F90580069B002BD8D0B4F980
:10400000020004F039F84FF0745104F089F8D3E756
:104010000AF1320A079BAAEB0303B3F5E17F0ADC3E
:10402000BAF800104FF6FF73994204D00AF1020566
:104030002C46A946CDE709B0BDE8F08F08B502F0DF
:10404000D7FB00F5FF3000F5FF70800208BD70B5AA
:1040500082B006460190FFF7F1FF0446D0F8E8531E
:1040600002F0AAFBFA21204602F0B4FB854202D0FE
:10407000002002B070BD01AD002332460832214657
:104080002846FFF78CFF01233246303204F5FA71DF
:104090002846FFF784FF0120EBE7F8B505460F46F9
:1040A0000E460EE02079FDF7D1FF038BA380647AE2
:1040B00004EB4404A40058342C44637AFF2BF1D160
:1040C0000436F31B242B08DCB378322B05D003EB2A
:1040D0004304A40058342C44EFE7F8BDF8B5054676
:1040E0000F460E460DE0A088FDF7A0FFA080647A81
:1040F00004EB4404A40058342C44637AFF2BF2D11F
:104100000436F31B242B08DCB378322B05D003EBE9
:104110004304A40058342C44EFE7F8BDF0B583B055
:104120000546FFF78BFF064602462A4B0121197010
:1041300000234FF0FF3403E052F8041B0C4001331E
:10414000FF2BF9DD02F038FB02F0F4FC022002F054
:10415000E7FCB4F1FF3F38D105F10807394628469E
:10416000FFF79BFF05F1300421462846FFF795FF36
:104170000A233A4631462846FFF770FD0A232246B5
:1041800006F128012846FFF769FD0190962305F105
:10419000580206F150012846FFF760FD0190012307
:1041A00001AA06F52D712846FFF758FD02F0CEFC56
:1041B00039462846FFF792FF21462846FFF78EFF33
:1041C000044B00221A7003B0F0BD304602F06EFCC2
:1041D000C2E700BF3C0C0020F8B50646FFF72EFFF3
:1041E0000446D0F8B45202F0E7FAAA21204602F0C1
:1041F000F1FA854203D03046FFF729FFF8BD06F1FA
:1042000008070A2221463846FEF70EFB06F1300564
:104210000A2204F128012846FEF706FB962204F143
:10422000500106F15800FEF7FFFA39463046FFF715
:1042300055FF29463046FFF751FF0120DEE7000019
:1042400038B50446084615460D4B23600D4B2360D8
:1042500061602146FFF75CFA04F108012046FFF790
:10426000D6FC04F130012046FFF7D1FC25B92046E9
:10427000FFF7B3FA204638BD2046FFF7ADFFF6E75B
:104280000885000898930008036ED3B14FF47A7341
:10429000036604E0036E002B07DD01233BB1826D52
:1042A000C36D9A42F6D00023F8E70023F6E7836D4A
:1042B0005A1C826503F03F03034419764FF0FF3325
:1042C00043617047A0F10400FFF7DEBF10B504465C
:1042D000017C002201F5C0618068FFF728FA617C4B
:1042E0003F2900D910BD002201F5B061A068FFF799
:1042F0001EFAF7E710B504460846144B2360144B2A
:104300006360144B236014336360A160E260012397
:104310002374FF2363744FF0FF3363610023A365AD
:104320004022E2654FF47A722266482284F86420C3
:10433000A36684F87830E36784F888302146FFF775
:10434000E7F92046FFF7C2FF204610BD08850008A8
:10435000F4910008A893000808B501748068FFF77D
:104360000DFA08BD10B582B004468DF80010ADF806
:1043700001309DF810308DF80330059B0193437C8C
:1043800093420DD1002384F87830A068617C0368E3
:104390005C6808236A4601F5C061A04702B010BD01
:1043A00042748068FFF7EAF9ECE738B504460A463C
:1043B0008068217C03685D68082301F5B061A84727
:1043C000002384F8883038BDB1F8012045F201039C
:1043D0009A4211D0012380F888300B7880F8803021
:1043E000B1F80130A0F88130CB7880F883304B6889
:1043F000C0F88430002070470B78402B01D000209B
:1044000070474FF0FF330B714B7100238B71CB71F1
:1044100041220A704FF47A72026683654023C365B5
:10442000CB784361012070472DE9F04184B0074605
:104430000C46B1F80120C2F3C0131E46CD7825B159
:10444000013D05EBD575C5F3470503AB00932B463E
:1044500002F03F023146F868FFF765FB804623789B
:10446000402B0DD0232B3DD08023237000232371BC
:1044700063710223A3710623E37104B0BDE8F081E8
:1044800030B30079FDF7E2FD028BE37823B9039B9B
:10449000636043232370F0E713F0010F09D098F80D
:1044A000073042EA034298F9083042EA0362626048
:1044B000EFE71549D8F8000003F032FE03F0F6FFED
:1044C00020F07F4398F9062043EA02636360E0E747
:1044D000802323700023237163710223A3710623B9
:1044E000E371CAE70028BFD06368002BBCD1B4F8E1
:1044F00001202B4602F03F023146F868FFF72AFA06
:1045000060232370B9E700BF00007A440B78232BA7
:1045100000D070472DE9F04184B005460C461646A0
:10452000CB7883B94B68B3F1005F04D323F000521A
:10453000B2F5006F03D2AB666023237019E04FF031
:10454000FF3383660CE0826E1746B2F1FF3F01D065
:10455000012B11D095F9742090460AB1022B1DD081
:10456000802323700023237163710223A371062328
:10457000E37104B0BDE8F081486880B2FDF756FDF4
:10458000A5F870006368C3F3054385F8733063686A
:104590001B1685F874304628CED9E1E7606840F3F1
:1045A000170003F069FD154903F06EFEE8666368C5
:1045B0001B1685F87230A6B102930190CDF80080E9
:1045C00095F873303A4695F87010E868FFF7BAFC32
:1045D000002385F874304FF0FF33AB660028ABDA68
:1045E000BEE702930190CDF8008095F873303A460B
:1045F00095F87010E868FFF788FCE9E700007A4456
:1046000038B504460D460A7802F06003602B31D0BD
:10461000B1F80130B3F5005F5AD003F47F40B0F534
:10462000045F55D0E16819B1B3F5405F00F08580B3
:1046300021B143F2010C634500F0858019B1B0F55A
:10464000445F00F0868045F203018B4200F08680D3
:1046500045F204018B4240F09B80402A00F091809B
:1046600080232B7000232B716B710223AB71062307
:10467000EB7119E002F010020A700122072A0EDC29
:10468000E36DA16D5B1A402B09D0E36D591CE16508
:1046900003F03F0323441B7EAB540132EEE7E36D8E
:1046A000A16D5B1A402B09D0A068217C03685C686F
:1046B00008232A4601F5B061A04738BD2B7843F0A6
:1046C00001032B70C2F1080243EA42032B70EBE7AF
:1046D000E87803F47F42B2F5045F0CD0462822D874
:1046E0002B78232B0DD0402BDED1FDF751FC6860D9
:1046F00043232B70D8E71B029BB21844FDF796FCAE
:10470000ECE76968FDF726FC10B960232B70CBE756
:1047100080232B7030232B7100236B710923AB7125
:104720000623EB71C0E780232B7000232B716B7184
:104730000223AB710623EB71B6E70022294620461F
:10474000FFF7E4FEB0E7012229462046FFF7DEFE30
:10475000AAE729462046FFF767FEA5E7402A09D0C9
:1047600080232B7000232B716B710223AB71062306
:10477000EB7199E7E878FEF799FC686043232B70AA
:1047800092E7E878FEF7A4FC686043232B708BE780
:1047900029462046FFF718FE002885D18DE7000046
:1047A000F0B583B004461546037C03F5C0638B4225
:1047B00007D0437C1E4603F5B0638B4205D003B09F
:1047C000F0BD1146FFF71CFFF9E7B2F801301F46B4
:1047D000A3F540539BB2012B08D92B78803B18BF1F
:1047E000012384F878306B68E367E8E7D378ABB1EE
:1047F000012BF2D11349C06E03F092FC03F056FE78
:1048000094F9723040EA03630193022300933B461C
:10481000324623212046FFF7A5FDDEE7B0F87030D1
:1048200090F8732043EA024390F9742043EA02634C
:104830000193012300933B4632462321FFF792FD6B
:10484000CBE700BF00007A4410B50446B0F8013051
:10485000B3F5A04F0DD045F20202934234D080232D
:1048600023700023237163710223A3710623E37174
:1048700010BD0278402AEED143230370C378022B87
:1048800013D007D863B1012B14D12E4BD3F8EC37DA
:104890004360EDE7032B0DD1FDF71AFC6060E7E7FD
:1048A000284BD3F8E8374360E2E7264BD3F8F037DC
:1048B0004360DDE7802323700023237163710223AB
:1048C000A3710623E371D3E72378232BC7D1602399
:1048D0002370E378012B21D009D9022B26D0032B9A
:1048E00026D1FDF7BBFB4720FCF75AFDC0E7FBB91B
:1048F000154B1B784BB172B6144B186808B1FFF713
:104900000DFCFEF71EFB62B6B2E780232370002386
:1049100023716371A3710823E371A9E772B6FEF7EF
:104920006BFB62B64720FCF73BFDA1E702F0A0FE5F
:10493000802323700023237163710223A371062354
:10494000E37195E700F0FF1F08090020400C0020EC
:104950002DE9F04184B00E46174698469DF8304048
:10496000FDF774FB43681D461449154B1868FEF7A4
:1049700099F9ECB11349124B1868FEF793F94FF00F
:1049800084410A9803F0CCFB0D4B1C689DF92C3038
:10499000039303F08BFD0290CDF80480009733461B
:1049A0002A4609492046FEF77DF904B0BDE8F081AA
:1049B0000649034B1868FEF775F9E0E7008E00081A
:1049C000480C0020088E0008108E00080C8E00088D
:1049D00070B505460846FDF7FBFE06462021FDF7AB
:1049E000ABFE0378A3B1002300F8013B0521FDF7DE
:1049F000C2FF04463046FDF705FB482812D0214689
:104A0000FDF7A8FA48B90A492846FEF74BF903E032
:104A100008492846FEF746F970BD07492846FEF7C3
:104A200041F9F9E7324605492846FEF73BF9F3E735
:104A3000408E0008248E00084C8E0008648E00080A
:104A4000F8B507460846FDF7C3FE054609E02A46C5
:104A50000F493846FEF726F9254605F8016B2C2E3E
:104A600014D12C212846FDF767FE04460678002362
:104A700003702846FDF7C6FA4828E8D0FDF788FA03
:104A8000024604493846FEF70DF9E5E7F8BD00BFD8
:104A9000848E00087C8E00082DE9F0410646084609
:104AA000FDF796FE07462021FDF746FE03789BB1F1
:104AB00004460546002305F8013B3846FDF7A2FAF7
:104AC0008046482829D06378212B0AD07E2B08D035
:104AD0002F2B06D0002406E013493046FEF7E2F8FB
:104AE0000FE0A51C012429461048FDF707FE50B928
:104AF00074B101214046FDF7D3FA0D493046FEF767
:104B0000D1F8BDE8F0810B493046FEF7CBF8F8E765
:104B100001214046FDF7BCFAEFE73A460649304628
:104B2000FEF7C0F8EDE700BFA08E0008B08E0008C9
:104B3000C88E0008B88E0008648E00082DE9F04F7A
:104B40008BB007460846FDF743FE037805934649B8
:104B50003846FEF7A7F800264FF0200822E0434A27
:104B6000039202930190CDF800A04B464246404983
:104B70003846FEF797F82846FDF7A0FA20B12846F8
:104B8000FDF79CFA01285AD1E2682369616920681F
:104B900002960190009137493846FEF783F84FF0AE
:104BA0002C080136462E51D8F5B22846FDF74EFAAC
:104BB00004462846FDF77CFA10F0010F02D0059B51
:104BC000682BEED1D4F80490D4F808A0B4F818B04B
:104BD0002846FDF7DDF90290CDF804B0CDF800A02D
:104BE0004B46424624493846FEF75CF80DF11F0358
:104BF00003930DF11E03029309AB01930DF11D0305
:104C0000009307AB08AA29461C480068FEF738FF46
:104C10000028B0D0DDF820809DF81C909DF91DA0E3
:104C20004FF08441099803F07BFA03F03FFC9DF9B3
:104C30001E309DF81F20002A91D0114A90E711499B
:104C40003846FEF72FF84FF02C08AAE70E4BD3F8A2
:104C5000F0270E493846FEF725F80D493846FEF78D
:104C600021F80BB0BDE8F08FEC8E0008E48E000850
:104C7000208F0008848F0008F08E0008440C00206C
:104C8000DC8E0008708F000800F0FF1FD48F000832
:104C9000109000082DE9F0478AB0074600230593DD
:104CA00006930793089309930846FDF791FD04784E
:104CB000702C38D0632C44D02021FDF73DFD0378C3
:104CC000002B47D0FDF784FD06462021FDF734FD7B
:104CD00003780BB9642C44D10546002305F8013B49
:104CE0003046FDF78FF9064681462846FDF770FDF0
:104CF0008046482E3AD0642C3DD000231D464FF00C
:104D00007E539A46042D62DC20214046FDF714FDB7
:104D100006460378002B39D1022D37DC5949384635
:104D2000FDF7C0FF1AE0584B1B68002BFBD1564C17
:104D300027605649564B1868FEF729FF0023236069
:104D40000CE0534B1868FEF77AFF52493846FDF7DE
:104D5000A9FF03E04B493846FDF7A4FF0AB0BDE8C0
:104D6000F08748493846FDF79DFFF7E74A4938463E
:104D7000FDF798FFF2E73146454B1868FEF73DFE18
:104D8000024646493846FDF78DFFE7E700233370BA
:104D90004046FDF704FD032D0DD00AAB03EB850360
:104DA00043F8140C30460130FDF712FD80462B46C7
:104DB00001331D46A6E710214046FDF7DCFD03F058
:104DC0005BF94FF05E5103F0ABF98246EAE7742CD1
:104DD0001FD09DF924300293CDF804A09DF91C301A
:104DE00000939DF81830059A494629480068FFF756
:104DF000A9F810F1030F2ED01CDD10F1020F24D002
:104E0000B0F1FF3F33D1059A25493846FDF74AFFF7
:104E1000A4E79DF924300293CDF804A09DF91C303D
:104E200000939DF81830059A494619480068FFF725
:104E30006CF8DEE710F1050F13D010F1040F16D156
:104E400018493846FDF72EFF88E7069A1649384676
:104E5000FDF728FF82E7079A14493846FDF722FF3D
:104E60007CE7059A12493846FDF71CFF76E70128D2
:104E700006DD104B024610493846FDF713FF6DE77B
:104E80000E4BF7E73C900008480C00205149000801
:104E9000440C00201890000850900008649000080E
:104EA0007C900008E090000890900008A490000812
:104EB000B890000844870008FC900008D88E0008CD
:104EC00010B50D4B1B7893B1044672B60B4B1868A6
:104ED000FFF724F90A492046FDF7E4FEFEF731F812
:104EE000024662B607492046FDF7DCFE10BD0649C2
:104EF000FDF7D8FEFAE700BF09090020440C0020A6
:104F000028910008389100085491000810B5044613
:104F100072B6FEF771F862B638B94720FCF740FA6E
:104F200004492046FDF7BEFE10BD03492046FDF7AB
:104F3000B9FEF9E798910008AC91000808B502F0B5
:104F400097FB2DE9F843054688461746002604E0FE
:104F500023782C2B16D1BE4214D22C212846FDF7E3
:104F6000EBFB044690F80090002303702846FDF701
:104F700049F8254605F8019B4828E9D008F80600BD
:104F80000136E5E73046BDE8F88300002DE9F04141
:104F900084B006460846FDF71BFC0446FDF7FFFB00
:104FA000804620212046FDF7C7FB03784BB10A223B
:104FB00001A90130FFF7C5FF07463046FDF796F817
:104FC00020E018493046FDF76DFE04B0BDE8F081E1
:104FD00004F110036B4413F80C0CFCF7D9FF0346E3
:104FE0002A4611493046FDF75DFE01340F4DBC42A3
:104FF000EEDB0F493046FDF755FEB8F1FF3F01D01B
:1050000008F1FF383046FDF76BF80028DDD1804508
:1050100002DD084D0024EAE7B8F1FF3FD5D1054D88
:105020000024E4E7C4910008E4910008F08D000832
:1050300094910008D88E000808B5042856D019DCD1
:1050400002282FD003283FD0012811D1394B3A4AEA
:105050001A603A4B3A4A1A603A4B3B4A1A6022208D
:105060003A4B1860FCF79AFF394B1860012008BDD5
:105070000020FCE705284BD0062811D12D4B354ADE
:105080001A602E4B344A1A602E4B344A1A60202084
:105090002E4B1860FCF782FF2D4B18600120E6E7CD
:1050A0000020E4E7234B2E4A1A60244B2D4A1A6055
:1050B000244B2D4A1A602320244B1860FCF76EFF06
:1050C000234B18600120D2E71A4B284A1A601B4B69
:1050D000274A1A601B4B274A1A601E201B4B186078
:1050E000FCF75CFF1A4B18600120C0E7114B224A05
:1050F0001A60124B214A1A60124B214A1A601F2073
:10510000124B1860FCF74AFF114B18600120AEE704
:10511000084B1C4A1A60094B1B4A1A60094B1B4A70
:105120001A602120094B1860FCF738FF084B186003
:1051300001209CE7540C0020D8090020500C0020CE
:10514000C80900204C0C0020D0090020880C002049
:105150008C0C0020F0090020E0090020E809002064
:10516000880A0020780A0020800A0020980A00207F
:10517000380A0020400A0020300A0020100A0020CF
:10518000180A0020080A0020F8090020000A002060
:1051900070B500240FE0174B1B689988186801F060
:1051A00026FD154B1B689988186801F01EFD134BEE
:1051B00000221A702C46052C1BDC651C2846FFF7C4
:1051C0003BFFB0B10E4B53F82430002BE3DD094E0A
:1051D00033689988186801F010FD3068FCF76EF8A4
:1051E0000028E7D0064A52F82430013B42F8243028
:1051F000E0E770BD4C0C0020500C00206C0C00202F
:10520000700C00202DE9F04104460D46FFF714FF15
:1052100048B1274B1B7833B9631E1A461E46254BEF
:1052200053F822300BB1BDE8F081234B1878FCF71E
:10523000B5FE0746C4B2FF220021284600F0BEFD9D
:105240008046C3B21D469C4219D3AC42EBD91B4BDE
:105250001B689988186801F0CAFC194B1B6899886B
:10526000186801F0C4FC5FFA88F1FBB25B1A114ABE
:1052700042F82630104B1878FCF7A6FED3E70F4B08
:105280001B689988186801F0B2FC0D4B1B6899885F
:10529000186801F0AAFC5FFA88F1FBB2CB1A054A44
:1052A00042F82630044B1878FCF78EFECDE700BF9D
:1052B0006C0C0020700C0020880C0020500C00208A
:1052C000540C0020F8B5134B01221A700024052C51
:1052D0001EDC651C2846FFF7AFFEC8B10E4F002646
:1052E00047F824600D4B1B689988186801F07FFC13
:1052F0000B4B1B689988186801F079FCFF2347F86D
:1053000024303146074B1878FCF75EFE2C46DEE76A
:10531000F8BD00BF6C0C0020700C0020500C002069
:10532000540C0020880C002008B5054B998818689B
:1053300001F05DFC00212420FCF746FE08BD00BF03
:10534000A809002008B5054B9988186801F04DFCA4
:1053500001212420FCF738FE08BD00BFA809002069
:1053600008B5094B1B784BB90146052809D8074BEE
:1053700018601920FCF728FE002008BD4FF0FF3010
:10538000FBE74FF0FF30F8E7600C0020680C0020CE
:10539000F8B55B4B1E68304603F0AEF805460224B4
:1053A00001231F4600E00134052C0ADC554B53F85D
:1053B0002400301A03F0A0F88542F4DD05462746A4
:1053C000F1E7514B1F60514B1B7833BB504B1B68AF
:1053D000002B42D04B4A52F82340A41B204603F036
:1053E0008BF80A287ADD01F03FFE4A4B1B68B34276
:1053F00044D0484B1E60484B1860002C60DD474B82
:1054000001221A70464B9988186801F0EEFB454B53
:105410009988186801F0EBFB2FE001F025FE3D4B69
:105420001B68B34204D03B4B1E603B4B186024E02A
:10543000394B1B68C01A63281FD9394B99881868E3
:1054400001F0D5FB374B9988186801F0D0FB002399
:105450002B4A13602D4A13700FE0314B998818685E
:1054600001F0C5FB2F4B9988186801F0C0FB294B50
:105470001E6001F0F9FD284B1860F8BD264B1B6833
:10548000C01A6328B9D9264B9988186801F0AFFB78
:10549000244B9988186801F0AAFB1D4B1B68012B4F
:1054A00005D0052B07D01A4B00221A60E5E7144BF4
:1054B00000221A60F7E7124B40F2B6321A60F2E7A8
:1054C000164B00221A70164B9988186801F08FFB52
:1054D000144B9988186801F088FBCEE7104B998827
:1054E000186801F084FB0F4B9988186801F07FFB66
:1054F000084B1E6001F0B8FD074B1860BDE700BF08
:1055000044090020C0930008640C0020600C0020B7
:10551000680C0020580C00205C0C00200A090020B8
:10552000280A0020200A0020014B1868704700BF9D
:10553000640C002008B50D4B01221A7000230C4AA0
:1055400013600C4A13700C4B9988186801F04FFBDC
:105550000A4B9988186801F048FB01F085FD084B5B
:105560001860084B1A68084B1A6008BD600C0020D0
:10557000680C00200A090020280A0020200A0020C8
:105580005C0C002044090020580C002000000000A2
:1055900010B50446017843781B0203F4E063194315
:1055A00001EB810149003C20FCF70EFD6378A078F7
:1055B000400140EAD300C0F3090002F0D7F90EA37E
:1055C000D3E9002302F03CFA02F04CFC01463E20F5
:1055D000FCF708FDA378E178890041EA931123796B
:1055E0009B0203F48063194301EB810149004020D1
:1055F000FCF7EAFC10BD00BF9A9999999999B93FB7
:1056000010B50446C078A37843EA002002F0AEF952
:1056100009A3D3E9002302F013FA02F023FC0146A8
:105620003E20FCF7DFFC217928393F20FCF7CCFC39
:1056300010BD00BFAFF300809A9999999999B93F2D
:1056400030B583B005460A20FCF7A8FC04463D208F
:10565000FCF7A4FC8DF8000003128DF801308DF8E2
:10566000024024128DF8034000238DF80430984244
:1056700011DD01238DF8053000238DF806308DF8FB
:1056800007302B685C6808236A4640F2812128466F
:10569000A04703B030BD0023ECE708B56422002129
:1056A00000F08CFB00EB800041003D20FCF78CFCFF
:1056B00008BD000010B5044601463820FCF784FC04
:1056C00050220021204600F079FB4CF2503300229A
:1056D0000249C0B200F07CFB10BD00BF00080040D2
:1056E00010B5044601463A20FCF76EFC502200211A
:1056F000204600F063FB4CF2503302220249C0B254
:1057000000F066FB10BD00BF0008004008B5074B65
:105710001B6843B1054B186802F0AAFC0146044817
:1057200002F0B2FD08BD0020FCE700BF40090020E8
:10573000C0E1E44B08B5074B1B6843B1054B186843
:1057400002F096FC0146044802F09EFD08BD0020D0
:10575000FCE700BF3C090020C0E1E44B10B5044663
:105760000A4902F08FFE50B90949204602F08AFE2C
:1057700038B90849204602F085FE20B910BD032043
:10578000FCE70220FAE70120F8E700BF0000C04173
:105790000000A8410000204108B502230022114664
:1057A000074801F0EDF9074800F0FEFD054800F05C
:1057B000BDFD0028FAD0034800F0BCFD80B208BD52
:1057C000000C01400028014010B5044602230022CD
:1057D0001946074801F0D4F924B10221044801F028
:1057E00004FA10BD0221024801F001FAF9E700BFF6
:1057F000000C01400000000038B50024324D224664
:105800002B46324800F096FC22462B46304800F0EA
:1058100091FC22462B462F4800F08CFC22462B465A
:105820002D4800F087FC22462B462C4800F082FCD5
:1058300022462B462A4800F07DFC22462B4629486A
:1058400000F078FC22462B46274800F073FC1CA38E
:10585000D3E90023254800F06DFC22462B4624485E
:1058600000F068FC22462B46224800F063FC2246EA
:105870002B46214800F05EFC22462B461F4800F0D4
:1058800059FC22462B461E4800F054FC22462B466B
:105890001C4800F04FFC22462B461B4800F04AFCF7
:1058A00022462B46194800F045FC22462B46184854
:1058B00000F040FC22462B46164800F03BFC38BD69
:1058C000333333333333D33F0000E03F500E0020F7
:1058D000380E0020200E0020080E0020F00D0020C1
:1058E000D80D0020C00D0020A80D0020900D002034
:1058F000780D0020600D0020480D0020300D0020A4
:10590000180D0020000D0020E80C0020D00C002015
:10591000B80C0020A00C002038B501F0A5FB04460F
:105920002D4B1B78012B0BD0022B17D03BB91846FF
:10593000FFF74AFF294B1C60274B01221A7038BD24
:10594000264B1B68C31A632BF9D90120FFF73CFFD4
:10595000224B1C60204B02221A70F0E7FFF71CFF5D
:105960001E4B1B68E31A1A461D4640F2DB53984251
:1059700001D8632A2CD90020FFF726FF174B1C60A3
:10598000154B01221A70284602F072FB144902F0EE
:10599000C7FB144902F078FC134902F0C1FB13491C
:1059A00002F0BEFB01F0F4FF02460B46104800F087
:1059B000D2FB02F057FA044601463220FCF712FBF4
:1059C0002046FFF7CBFE01463120FCF7FDFAB6E793
:1059D0000120FFF7F9FEB2E7940C0020900C0020A4
:1059E0000AD7233C00401C460024744985EB513FF4
:1059F000900D00202DE9F04F83B0B948FDF734FA3F
:105A000002F036FB0646B748FDF72EFA02F030FBEF
:105A10008246B548FDF728FA02F02AFB05464FF00A
:105A200000084FF08B47DFF8C492B14C2368009315
:105A300043463A464946304600F0A4F98346AD4E07
:105A40003368009343463A46AB49504600F09AF912
:105A500082462368009343463A464946284600F06A
:105A600091F98046206802F021FD0546584602F073
:105A70001DFD2A46002100F0A1F902F0FDFA0746BB
:105A8000306802F013FD0546504602F00FFD2A462D
:105A9000002100F093F902F0EFFA0546206802F0C9
:105AA00005FD0446404602F001FD2246002100F0BB
:105AB00085F902F0E1FA0446384601F069FF024632
:105AC0000B468E4800F047FB02F0CCF9014625203A
:105AD000FCF788FA284601F05BFF02460B4688482F
:105AE00000F039FB02F0BEF901462620FCF77AFAF5
:105AF000204601F04DFF02460B46824800F02BFB8A
:105B000002F0B0F901462720FCF76CFA7E48FDF759
:105B1000ABF9042100F09CFA01F03AFF02460B4673
:105B20007A4800F018FB04460D46794B186801F0DE
:105B30002FFF02460B462046294601F0C9FD02F020
:105B400091F901462820FCF74DFA7248FDF78CF9CF
:105B5000042100F07DFA01F01BFF02460B466E485F
:105B600000F0F9FA04460D466C4B186801F010FF7E
:105B700002460B462046294601F0AAFD02F072F9C2
:105B800001462920FCF72EFA6548FDF76DF904213E
:105B900000F05EFA01F0FCFE02460B46614800F0A0
:105BA000DAFA04460D46604B186801F0F1FE024631
:105BB0000B462046294601F08BFD02F053F90146C1
:105BC0002A20FCF70FFA5948FDF74EF9042100F09E
:105BD0003FFA01F0DDFE02460B46554800F0BBFAE5
:105BE00004460D46534B186801F0D2FE02460B46A0
:105BF0002046294601F06CFD02F034F901462B20C5
:105C0000FCF7F0F94C48FDF72FF9042100F020FAD9
:105C100001F0BEFE02460B46484800F09CFA0446DE
:105C20000D46474B186801F0B3FE02460B4620466E
:105C3000294601F04DFD02F015F901462C20FCF734
:105C4000D1F94048FDF710F9042100F001FA01F004
:105C50009FFE02460B463C4800F07DFA02F002F936
:105C600001462E20FCF7BEF93848FDF7FDF8042167
:105C700000F0EEF901F08CFE02460B46344800F0CD
:105C80006AFA02F0EFF801462D20FCF7ABF9314833
:105C9000FDF7EAF8042100F0DBF901F079FE024695
:105CA0000B462D4800F057FA02F0DCF801462F2091
:105CB000FCF798F92948FDF7D7F8042100F0C8F956
:105CC00001F066FE02460B46254800F044FA02F059
:105CD000C9F801463020FCF785F903B0BDE8F08F24
:105CE000B40A0020DC0A0020D80A002000801344F7
:105CF000180900201C0900200000B943500E0020A4
:105D0000380E0020200E0020C00A0020080E0020BF
:105D100014090020BC0A0020F00D0020100900200A
:105D2000B80A0020D80D00200C090020C40A002069
:105D3000C00D00209C0C0020AC0A0020A80D002003
:105D4000980C0020D40A0020180D0020D00A002052
:105D5000000D0020CC0A0020B80C0020C80A00204A
:105D6000A00C002008B5FFF747FD08BDA0EB010C13
:105D70000098C01A00FB0CFC521A9CFBF2FC0CEBC6
:105D800003007047F8B50F4616461C4602F0BEF8F1
:105D900005462146069802F0B9F80146284602F069
:105DA000BFF905463946304602F0B0F801462846AC
:105DB00002F06AFA214602F0ABF8F8BD904202DC2C
:105DC000884202DB70471046704708467047000063
:105DD00038B58446084611461A46BCF1640F01D90D
:105DE0004FF0640C541CACFB04C4CCF3130E4FEA0C
:105DF0001C5343EA0433C3F313039E44C4F3132335
:105E00009E440EEB147E114BA3FB0E53DB0803EBF9
:105E1000830303EB8303AEEB030EBCEB0E0C64F1C8
:105E20000004DFF82CE00B4B03FB0CF30EFB0433F8
:105E3000ACFB0ECE73444FEA9C0C4CEA837C62456B
:105E400000D3624601F0C7FA38BD00BF1F85EB5191
:105E5000295C8FC2F5285C8F7047000010B504469E
:105E60000220FCF79BF8012800D010BD207802F03A
:105E7000FFF81C4902F04AF801462F20FCF7B2F85F
:105E80000320FCF7E3F8C1680269521149116078F8
:105E9000FFF794FF02F0F0F801460320FCF7A2F8A8
:105EA0000820FCF7D3F8C168026952114911E07863
:105EB000FFF784FF02F0E0F801460820FCF792F8B3
:105EC0000920FCF7C3F8C1680269521149116079D1
:105ED000FFF774FF02F0D0F801460920FCF782F8C2
:105EE000C3E700BF00002042F0B585B004463C2067
:105EF000FCF754F807462820FCF750F8FF22002151
:105F00002830FFF75BFF8DF808002920FCF746F8E2
:105F1000FF2200212830FFF751FF8DF809002A20C9
:105F2000FCF73CF8FF2200212830FFF747FF8DF8EF
:105F30000A002520FCF732F8FF22002100EB800048
:105F4000FFF73CFF8DF80B002620FCF727F8FF2217
:105F5000002100EB8000FFF731FF8DF80C002720B7
:105F6000FCF71CF8FF22002100EB8000FFF726FF62
:105F70008DF80D003720FCF711F800EB8000FF22B0
:105F800000214000FFF71AFF8DF80E003920FCF7C2
:105F900005F800EB8000FF2200214000FFF70EFF14
:105FA0008DF80F0002AD23685E6808232A4640F290
:105FB00032712046B0472B20FBF7F0FFFF22002173
:105FC0002830FFF7FBFE8DF808002C20FBF7E6FFDA
:105FD000FF2200212830FFF7F1FE8DF80900312063
:105FE000FBF7DCFFFF220021FFF7E8FE8DF80A0037
:105FF00028238DF80B304120FBF7D0FFFF22002132
:106000002830FFF7DBFE8DF80C001820FBF7C6FFE9
:10601000FF220021FFF7D2FE8DF80E00FA23009335
:1060200014234FF4FA524FF448713846FFF79EFE9E
:10603000FF220021FFF7C2FE8DF80F0023685E6883
:1060400008232A4640F233712046B04705B0F0BD20
:1060500006296AD82DE9F0470C46002398461D46CC
:1060600039E087424ADB4DE0012E27D0C01B02F009
:1060700003F88146012E26D04346D81B01F0FCFFD1
:106080008246670004EB4403DFF8A48008EB830337
:106090001E79304601F0F0FF494602F041F85146C2
:1060A00002F0F2F88146274438F9270005FB060084
:1060B00001F0E2FF494601F029FF34E0381A01F00F
:1060C000DBFF8146D6E74346F81A01F0D5FF82464A
:1060D000D7E70135B84604EB4402154B03EB8203C6
:1060E0005B79AB4218D904EB4402114B03EB8203FA
:1060F0009A6832F815709E79012EB2D0002EE8D140
:106100008742E6DC002DAFD104EB4404084B33F9A1
:10611000240001F0B1FF06E0054B03EB8203B3F965
:10612000020001F0A9FFBDE8F0870020704700BF22
:10613000D89300084DF804BD93469C4600220023E6
:10614000C0E90023C0E9022300230374C0E902BCB4
:106150005DF804BB70472DE9F0410446104619462E
:10616000237CCBB1D4E90278D4E900562A463346E1
:1061700001F0AEFA02460B463846414601F060FC9B
:1061800002460B462846314601F0A4FAC4E9000154
:10619000D4E90001BDE8F081C4E9000101232374C2
:1061A000F6E710B50B20FBF7F9FEC1B20120FFF7AF
:1061B00029F80C20FBF7F2FEC1B20220FFF722F80B
:1061C0000D20FBF7EBFEC1B20320FFF71BF80E20FA
:1061D000FBF7E4FEC1B20420FFF714F80F20FBF731
:1061E000DDFEC1B20520FFF70DF81020FBF7D6FE4B
:1061F000C1B20620FFF706F81120FBF7CFFE18BB4F
:10620000FFF792F81420FBF7C9FEFFF7A9F8122058
:10621000FBF7C4FEC0B2FFF74DFA1320FBF7BEFE3A
:10622000C0B2FFF75DFA1520FBF7B8FE04460B205D
:10623000FBF7B4FE27280ADC0023002C00DD7BB12D
:106240002046FFF72AFA10BDFFF77CF8DAE70E20A8
:10625000FBF7A4FE272801DD0123EEE70023ECE78E
:106260001846FFF71AFAEEE78368DB075EBF83681C
:1062700043F0010383607047034AD2F8083443F4C3
:106280000003C2F80834704700200140836823F4FB
:1062900060230B438360836843F4801383607047FB
:1062A000836800F1080243F00803836013681B074A
:1062B000FCD47047836843F00403836070478068B0
:1062C000C0F38000704708B50246FFF7F3FF1046A1
:1062D000FFF7F5FF0028FAD108BD0022134610B5DC
:1062E00001FA02F403321E2A43EA0403F8D1002221
:1062F000036101FA02F40332182A43EA0403F8D1D5
:10630000C36010BD836823F0010383607047436856
:1063100043F4807343607047436823F480734360A1
:106320007047836823F40063836070470068C0F39C
:1063300040007047C06C7047836843F0020383607D
:106340007047836823F00203836070471029F0B51B
:1063500010D800234FF0010E1F469C461D465FFAE1
:106360008EF6B14207D2013945EA0155C562C0F83F
:1063700030C04763F0BDBEF1060F147806D89C40CC
:1063800027430EF1010E01320533E8E7073E052EE3
:1063900095BFA3F11E06A3F13C06B440B44094BFE0
:1063A0004CEA040C2543ECE7836800F1080243F44F
:1063B0008003836013685B02FCD47047836843F4F6
:1063C0008073836070470000044B98420CBF40F21A
:1063D000192040F21A2000F0D2BD00BF0064004036
:1063E0002DE9F34104689DF8208024F00204046044
:1063F00004689DF824E044F0010404604FF6FF7443
:106400009DF828C09DF83C609DF840700194019C67
:10641000051D013C019414B14468E407F7D54468B4
:10642000E40770D50024C461002951D0016841F00F
:1064300080010160002A4FD0026842F040020260F1
:10644000002B4DD0036843F0200303600368B8F1CC
:10645000000F49D043F0100303600368BEF1000F42
:1064600045D043F0080303600368BCF1000F41D03E
:1064700043F004030360C369002F3ED043F00043A0
:10648000C361C369002E3BD043F08043C3610E9BC0
:106490000D99013BC3F309030B430C99C2690B43EC
:1064A0000B990B431343C361036823F0010303609B
:1064B0004FF6FF730193019B013B019313B12B68CE
:1064C000DB07F8D4406800F0010002B0BDE8F081BD
:1064D000016821F08001ACE7026822F04002AEE7DB
:1064E000036823F02003B0E723F01003B4E723F0A0
:1064F0000803B8E723F00403BCE723F00043BFE739
:1065000023F08043C2E70120DFE70000F0B501255A
:10651000234C9DF81C70D4F80066854046F00106B7
:10652000C4F80066D4F81C6626EA0506C4F81C66A2
:1065300039B3D4F80C162943C4F80C1632B3D4F886
:1065400004262A4300F1006000F6C840C4F804267F
:10655000C0000360069A059B4360114BDAB1D3F883
:1065600014262A43C3F8142627B1D3F81C262A433D
:10657000C3F81C26D3F8002622F00102C3F8002637
:10658000F0BDD4F80C1621EA0501D5E7D4F80426AD
:1065900022EA0502D6E7D3F8142622EA0502E1E74B
:1065A0000060004030B4BDF808409DF8105043EA48
:1065B0000443029341EA024300220495114630BC91
:1065C000FFF7A4BF30B4BDF808409DF8105044EA6E
:1065D0000344049542EA01430294012230BC0021A5
:1065E000FFF794BF1FB5009201229DF81840CDE936
:1065F00001340B461146FFF789FF04B010BD436913
:106600000B4343617047436923EA010343617047C9
:106610002DE9F041064680689DF818804701079DE6
:1066200026D4B068040127D4B068C00050D54FF418
:10663000D0770220BC191AB3C90041F00401B95146
:106640001BB1236843F002032360636823F00F0348
:106650006360626808F00F031343636008F1FF335F
:10666000072B2BD8DFE803F02724211C1916130E63
:106670004FF4C0770020DDE74FF4C8770120D9E759
:106680004905DCE74FF0000CEB7963F31F6CAB7945
:1066900063F3174C6B7963F30F2C2B7963F3070CBF
:1066A0004FF0000EEB7863F31F6EAB7863F3174E79
:1066B0006B7863F30F2E2B7863F3070EC4F808E0B2
:1066C000C4F80CC0236843F001032360BDE8F081E7
:1066D0004FF0FF30FAE721B9C36843F02003C360ED
:1066E0007047036943F020030361704719B9C0681C
:1066F00000F0030070470069FAE72DE9F341DDF887
:1067000020800446DDE90C57FFF7F0FF4FF4D87CFA
:1067100006464FF4E070CDE900C002A800EB81000E
:1067200050F808EC54F80E0004EB0E0C10F00400C6
:1067300015BF012088F8000088F8000054F80E000A
:1067400016BF54F80E00400DC008186054F80E0033
:10675000099BC0F340001870DCF804000A9B000A93
:106760001870DCF804000B9B00F00F0018701FB1CC
:10677000DCF804301B0C3B80DCF80800DCF80C3043
:10678000C0F3072728706F70C0F30747C0F3076096
:10679000E870C3F307202B716871C3F30740C3F39C
:1067A0000763AF70A871EB7112B12046FFF793FF3A
:1067B000304602B0BDE8F081024A936843F001031D
:1067C0009360704700300240014B186018687047B2
:1067D00000300240002310B5044A8B4201DB1068F0
:1067E00010BD50F8234001331460F6E7003002403A
:1067F000014BB3F8E007704700F0FF1F142300229D
:10680000013903FB01039A60DA601A615A610F23B0
:10681000426889008B401343436070470139890007
:106820008A40426070470139036889008A401A42F1
:1068300014BF012000207047142301395943083048
:106840000B5823F440630B500B5813430B50704705
:1068500014230139594308300B5823F440730B506B
:106860000B5813430B507047142301395943083018
:106870000B5843F080030B507047142301395943E0
:1068800008300B5843F020030B500B5823F480437F
:106890000B50704714230139594308300B5843F00B
:1068A00010030B50704714230139594308300B581B
:1068B00043F001030B50704714230139594308304A
:1068C0000B5823F001030B5070471423013903FBCD
:1068D00001008368DB0758BF026170471423013948
:1068E00003FB01008368DB0758BF42617047142334
:1068F000013959430C30085880B2704714230139CC
:1069000059430C300A50704701290FD0022918D082
:1069100059B90E4BD3F808240243C3F80824D3F81E
:106920000C2422EA0002C3F80C247047074BD3F86A
:10693000082422EA0002C3F80824D3F80C240243F6
:10694000F1E7024BD3F808240243F4E700000140CA
:10695000054BD3F800240243C3F80024D3F80424E1
:106960000243C3F80424704700000140014BC3F800
:106970001404704700000140024BD3F8143418404F
:10698000704700BF000001402DE9F04F00224FF09A
:10699000010C0F27DFF874E0DFF87480DFF87490E3
:1069A000DFF874A00CFA02F303421AD01B4B994291
:1069B00024D01BD8414523D0494523D0A1EB0A045C
:1069C00063426341164C02F0030604EB9205AD00EE
:1069D0002C68B60007FA06FB24EA0B04B3401C43FC
:1069E0002C600132102ADDD1BDE8F08F0D4B9942A9
:1069F0000AD071450CBF06230023E3E70423E1E737
:106A00000223DFE70323DDE70523DBE70020014066
:106A10000010014000140140000C0140001801402A
:106A200002400010001C014038B5064DEC68FFF72D
:106A3000DFFEB0F5007F84BFEB6C1C4304F0350033
:106A400038BD00BF0020024038B504460D4600F0B6
:106A500085F8FFF7CDFEB0F5007F124B17D9124A2B
:106A6000944214D91A6D42F001021A65258000F093
:106A700075F8FFF7BDFEB0F5007F0A4B0CD90A4A46
:106A8000944209D91A6D22F001021A6538BD1A69BB
:106A900042F001021A61E9E71A6922F001021A6163
:106AA000F4E700BF00200240FFFF070810B50446CE
:106AB00000F054F8FFF79CFEB0F5007F164B1BD991
:106AC000164A944218D91A6D42F002021A655C65A2
:106AD0001A6D42F040021A6500F040F8FFF788FE98
