:020000040800F2
:1010000000500020D9760008D5760008D376000875
:10101000D3760008D3760008D376000800000000DD
:10102000000000000000000000000000D57600086D
:10103000D576000800000000D5760008D5760008B7
:10104000D3760008D3760008D3760008D37600085C
:10105000D3760008D3760008D3760008D37600084C
:10106000D3760008D3760008D3760008D37600083C
:10107000D3760008D3760008D3760008D37600082C
:10108000D3760008D3760008D3760008F53500083B
:10109000D5350008E5350008D3760008E9130008C7
:1010A000D3760008D3760008D3760008D3760008FC
:1010B000D3760008D913000821140008D37600085D
:1010C000D3760008D3760008D3760008D3760008DC
:1010D000D3760008D3760008D3760008D3760008CC
:1010E000D3760008D3760008D3760008D3760008BC
:1010F000D3760008D3760008D3760008D3760008AC
:10110000D3760008D3760008D3760008D37600089B
:10111000D3760008D3760008D3760008D37600088B
:10112000D3760008D3760008D3760008D37600087B
:10113000D3760008D3760008D3760008233600085B
:101140000336000813360008D3760008D37600086B
:1011500008B58446084611461A46DCF8043098471C
:1011600008BD08B58368984708BD00B54FF0000C6E
:10117000E64604E000BF1CF1010C4EF1000E4B01ED
:1011800043EAD0634201121A63EB01039B0043EA76
:1011900092739200121841EB03031B0143EA12738E
:1011A000120194457EEB0303E4DB00BD08B5034B5D
:1011B0009988186805F0B9FD08BD00BF7C080020BB
:1011C00010B505F0BBFD164B186800F03CFE06F0AC
:1011D000EBFF144907F0F0F80146382000F0AAFEB2
:1011E000114801F0E9FD06F0DBFF104907F0E4F8D3
:1011F0000146372000F09EFE05F0CEFF01F0D2FE42
:101200000B4C206804F07CFC206804F0E1F804F04A
:10121000FDF904F0EFFF074B186802F09FFA10BDCC
:101220009807002000002041EC08002000004B43FC
:10123000940700209007002008B503F051FF08BD77
:1012400008B503460846B3F5E66F11D009D840F259
:101250002722934210D0B3F52A7F0BD104F060F817
:1012600008E040F23172934204D104F003FC01E043
:1012700004F0FEFB002008BD04F08AF8FAE7000045
:1012800010B50D4C00224FF4E661206802F0F7F92A
:10129000002240F23171206802F0F1F9002240F2A0
:1012A0002721206802F0EBF900224FF42A71206810
:1012B00002F0E5F910BD00BF9407002010B5044608
:1012C0008188006805F02EFD003818BF0120A37941
:1012D000181A18BF012010BD08B5022000F0FAFD51
:1012E000264A1378002818BF43F00103137005F055
:1012F00053FF234B1B68D3F8F830C01A312802D9AA
:101300001E4B1B788BBB1F48FFF7D8FF01462620DA
:1013100000F002FE1C48FFF7D1FF0146272000F035
:10132000FBFD1A48FFF7CAFF0146252000F0F4FD37
:101330001748FFF7C3FF0146282000F0EDFD04F039
:10134000B1F807F04BF90146292000F0E5FD04F063
:10135000BDF807F043F901462B2000F0DDFD0D4BF1
:1013600019680B2000F0D8FD08BD0021022000F014
:10137000D3FD012001F01CFEC5E700BF7807002067
:1013800094070020E4070020F4070020EC07002069
:10139000C408002084070020FEE7000038B560B1D3
:1013A000012814D10A4B1B681C46012000F092FD55
:1013B000C1B2204602F078FF09E0064B1C682368A2
:1013C0001B681D4600F086FDC1B22046A84738BD07
:1013D0008C0700209407002008B5024B186800F025
:1013E000F9FC08BD9807002008B54FF4807005F09F
:1013F000ABFB50B1084B1B7843B1084A136801336B
:1014000013604FF4807005F099FB08BD034A136820
:10141000013B1360F5E700BF4A0700208407002066
:1014200008B50821214805F019FF28B910211F48E7
:1014300005F014FFE8B908BD02211C4806F079F850
:101440001B4B1B683BB183420CD8C31A194A13606B
:10145000194B01221A70164B18600821134805F029
:1014600003FFE3E7C31A03F543435033114A136004
:10147000EEE703210D4806F05CF8104B1B683BB10A
:1014800083420CD8C31A0E4A13600E4B01221A7005
:101490000A4B18601021054805F0E6FECBE7C31A99
:1014A00003F543435033064A1360EEE7000800405B
:1014B00074070020800700207A07002070070020B2
:1014C0007C070020790700202DE9F041ADF6180DCA
:1014D00000F066FA00F019FBD34E00223146D348E3
:1014E00001F0AEFC01223146D14801F0A9FC0222F4
:1014F0003146D04801F0A4FC03223146CE4801F029
:101500009FFC04223146CD4801F09AFC0522314669
:10151000CB4801F095FCCB4C00222146CA4801F093
:101520008FFCCA4D00222946C94801F089FC0122DE
:101530002946C84801F084FC02222946C64801F029
:101540007FFC03222946C54801F07AFC0422294683
:10155000C34801F075FC05222946C24801F070FC21
:1015600004234FF480723146BF4801F016F9072377
:101570004FF400423146BD4801F00FF902231A46EC
:101580002146BB4801F009F9002304222146B9484D
:1015900001F003F9072308222146B74801F0FDF8BE
:1015A000072310222146B54801F0F7F8072320222F
:1015B0002146B34801F0F1F8092340222146B14801
:1015C00001F0EBF8092380222146AF4801F0E5F84D
:1015D00004234FF480722146AC4801F0DEF8042366
:1015E0004FF400722146AA4801F0D7F809234FF4BE
:1015F00000622146A74801F0D0F807234FF480424B
:101600002146A54801F0C9F807234FF48062294616
:10161000A24801F0C2F807234FF400622946A0480F
:1016200001F0BBF807234FF4805229469D4801F092
:10163000B4F807234FF4005229469B4801F0ADF857
:1016400007234FF480422946984801F0A6F804F594
:101650000064072301222146954801F09EF80723E4
:1016600002222146934801F098F8072304222146DC
:10167000914801F092F80723082221468F4801F093
:101680008CF80723102221468D4801F086F80723A5
:10169000202221468B4801F080F807234022214672
:1016A000894801F07AF8072380222146874801F013
:1016B00074F804F58064072304222146844801F06D
:1016C0006CF8072308222146824801F066F80723B8
:1016D00010222146804801F060F800234FF4807208
:1016E00021467E4801F059F800234FF4007221464C
:1016F0007B4801F052F800234FF48062214679487C
:1017000001F04BF807234FF400622146764801F0C0
:1017100044F801F0C9FA00F099F900F0DFF901F09E
:1017200013FC00F0FDF90DF2EC5401260196009631
:1017300000236E4A6E49204600F0A0FC6D4B1C60F1
:101740000DF5BC656C4BCDF8E0356C4BCDF8E03554
:101750006B4BCDF8E4356B4BCDF8E835002000F04D
:10176000B9FBE1AC0023C2B26749204601F078FE24
:10177000664B1C602946204601F072FFFFF780FD92
:1017800032AD32462146284602F002FDDFF8808164
:10179000C8F800505F4B1D600FAF2A4621463846FF
:1017A00002F050FD5C4B1F60304600F093FBC1B26D
:1017B000384602F079FDD8F80020584B1A60584D91
:1017C00005AC2946204600F0ABFA564B1968C1F328
:1017D0005911554BA3FB013189090139284605F000
:1017E00064FD524B1C6003225149204600F0BCFAB4
:1017F00014225049204600F0B7FAC8224E4920462C
:1018000000F0B2FA4FF4C8724C49204600F0ACFA2E
:101810000021352000F080FB3920FFF7BFFD0A20B2
:101820000021FFF7A2FC8BE000080140180900200E
:1018300014090020100900200C09002008090020CC
:1018400004090020000C01400009002000100140A4
:10185000FC080020F8080020F4080020F008002010
:10186000EC080020E8080020DC080020D408002054
:10187000CC080020C4080020BC080020B4080020C8
:10188000AC080020A40800209C0800209408002038
:101890008C080020840800207C08002074080020A8
:1018A0006C080020640800205C0800205408002018
:1018B0004C080020440800203C0800203408002088
:1018C0002C080020240800201C08002014080020F8
:1018D0000C08002004080020FC070020F40700206A
:1018E000EC070020E4070020DC0700208C920008B1
:1018F00000380140880700207086000880860008B4
:101900004112000881120008006400409407002082
:1019100090070020800A00208C0700207C0A00200D
:10192000000400406C070020632D3E05980700204E
:1019300039120008D9120008C1110008AD110008C1
:1019400003F068FC13E01C4619E004300DF10B01B4
:1019500003F09CF85CB103AB94E8030083E8030058
:10196000204602F019FF21460FA802F0C6FC002213
:101970008DF80B209DF8C430002BE4D02FAC064B23
:10198000186800F065FD054B18684369002BE1D12C
:101990000028DAD1DAE700BF880700208C07002092
:1019A00008B5274805F018FB4FF0E023254AC3F897
:1019B0000C2D40F2023005F06DFB40F2033005F0D3
:1019C00069FB4FF4417005F065FB40F2053005F00E
:1019D00061FB40F2063005F05DFB40F20E3005F091
:1019E00059FB40F20B3005F055FB4FF4607005F0E9
:1019F00051FB40F2813005F04DFB40F2823005F0A2
:101A000049FB4FF4207005F045FB40F2093005F02A
:101A100041FB40F2862005F03DFB4FF4407005F09D
:101A200039FB40F2993005F035FB074B5A6842F01C
:101A3000C0025A605A6842F400725A6008BD00BF82
:101A4000849600080003FA050000014030B597B005
:101A500004F0E8FF00F5FF3505F2FD15AD0201AC1D
:101A600014220021204600F092FE1A4B0193182305
:101A7000ADF8083001238DF80A3000228DF80B20D4
:101A8000154903914FF44071ADF810108DF81220F4
:101A90008DF8133004F0AAFF1421204604F0B4FF9F
:101AA00015902B6D834201D117B030BD05F0DAF8E7
:101AB000284605F093F8002407E001AB53F8241002
:101AC00005EB840005F0E8F80134142CF5D905F095
:101AD000D5F8E9E700100140000C014008B51D20D1
:101AE00005F066FE00211D2005F06EFE1E2005F0AB
:101AF0005FFE01211E2005F067FE172005F058FE4D
:101B00000221172005F060FE08BD08B54FF41C71D6
:101B1000032005F079FB002005F048FB08BD00001C
:101B200038B57C4C204605F0BBFB0021204605F073
:101B3000BCFB0021204605F09FFB40F60F612046CC
:101B400005F0B5FB204605F092FB4FF4006302223E
:101B50001146714805F0ACF806220221204605F036
:101B6000A8FB0221204605F06AFC0221204605F070
:101B700080FC0221204605F0A1FC00220221204623
:101B800005F0C1FC204605F086FB4FF0804005F0D3
:101B900087FB0A214FF0804005F087FB00214FF0C2
:101BA000804005F069FB4FF6FF714FF0804005F073
:101BB0007EFB4FF0804005F05AFB584D4FF4006318
:101BC00002221146284605F073F8062211464FF00E
:101BD000804005F06EFB06214FF0804005F02FFCA1
:101BE00006214FF0804005F044FC06214FF0804074
:101BF00005F064FC002206214FF0804005F083FCD4
:101C00004FF0804005F047FB4FF440730122002164
:101C1000284605F04DF8A4F59234204605F040FB27
:101C20008F21204605F041FB4CF25031204605F053
:101C30003EFB204605F02AFB0F220221204605F03C
:101C400087FC05220221204605F0AAFC0022022181
:101C5000204605F0F3FA0221204605F0D4FC0821C5
:101C6000204605F0F7FA00220321204605F070FC1B
:101C700006220321204605F093FC00220321204682
:101C800005F0DCFA0321204605F0BDFC10212046BA
:101C900005F0E0FA402302221146284605F008F834
:101CA00006220021204605F004FB0021204605F015
:101CB000C6FB0021204605F0DCFB0021204605F094
:101CC000FDFB00221146204605F01DFC8023022268
:101CD0001146284604F0ECFF06220221204605F0BA
:101CE000E8FA0221204605F0AAFB0221204605F071
:101CF000C0FB0221204605F0E1FB00220221204624
:101D000005F001FC0121204605F00DFC204605F000
:101D1000C2FA38BD002C014000180140000C0140FF
:101D200038B505460C460162084605F0A0FA204683
:101D300005F0ACFA0A4B1968C1F31A11094BA3FB61
:101D40000131C9090139204605F0AFFA4FF6FF719C
:101D5000204605F0ACFA00236B62284638BD00BF70
:101D60006C070020C55A7C0AF8B5436A032B00DDD6
:101D7000F8BD04460D461646006A05F091FA636AFE
:101D80000122134FF95C206A05F093FA636A00227E
:101D9000F95C206A05F0B7FB636A44F8235003F14D
:101DA000080106EB860202EB8202920024F8112061
:101DB00002219940206A05F04DFA0021206A05F0C1
:101DC000C5FB206A05F067FA636A01336362CFE7F7
:101DD00088860008F8B5054600242AE00226A640B9
:101DE0003146286A05F03AFA40B3286A05F09FFBAD
:101DF00087B22B6A03EB84035A6B04F1080135F8B0
:101E000011100A445A6355F824309847286A05F09F
:101E10008EFBC01B04F10C0325F813003146286A21
:101E200005F022FA04E00221A140286A05F01CFA1C
:101E30000134032C06DC6B6AA342CFDC6B6AA3423D
:101E4000F6DCF0E7F8BD0146002210460FE002F193
:101E50000C0331F813304FF47A7C0CFB03F302F1DE
:101E6000080C31F81CC093FBFCF3184401324B6A98
:101E70009342ECDC70470000024B1A68024BC3F837
:101E8000F025704740070020E400002008B5C0EBB3
:101E9000C0020B4B03EB8203DB688B420EDC084B6A
:101EA00003EB82031B698B4201DAFF2007E0054B3D
:101EB00043F82010FFF772FA002000E0FF2008BD71
:101EC000E400002000000020014B53F82000704780
:101ED00000000020024B53F820004011704700BF63
:101EE0000000002008B5054B53F8200006F05CF90F
:101EF0004FF0745106F0ACF908BD00BF000000209F
:101F0000044B53F820004011012814BF0020012089
:101F1000704700BF000000204901024B43F8201029
:101F2000704700BF00000020014B43F820107047AD
:101F30000000002010B5044608464FF0844106F02A
:101F400087F906F04BFB024B43F8240010BD00BF9D
:101F50000000002070B506460024074D382C09DC2F
:101F60003146686800F072FB10B101341C35F5E7AA
:101F7000E0B270BD3A20FCE7E40000200023064AEE
:101F8000382B07DC118B814202D001331C32F7E77A
:101F9000D8B270473A207047E4000020C0EBC00080
:101FA000014B03EB80007047E400002038B50024AB
:101FB000074D01E001341C35382C07DC2B8B002B3E
:101FC000F8D06969E0B2FFF7AFFFF3E738BD00BFB3
:101FD000E4000020014B1954704700BF9C0700200B
:101FE000024A135C0B431354704700BF9C07002048
:101FF000024A135C23EA0103135470479C07002034
:10200000014B185C704700BF9C070020C0EBC0006C
:10201000024B03EB8003987E704700BFE400002072
:1020200000487047F26B010008B5FFF725FF08BDB7
:1020300008B52021806805F046FB08BD08B580681A
:1020400005F039FB08BD10B504464368597A586855
:1020500004F04CFD636804F12A02597A586804F0D0
:1020600057FD63688022597A586804F061FD6368FF
:10207000597A586804F031FD10BD000070B504466F
:102080000D46534901605349016085600373026145
:10209000012101754175817500228261C26180F85C
:1020A0002020426280F828109DF8101080F8291036
:1020B0009DF8141080F82A1247494160032A07D876
:1020C00061680868A84203D01C3161600132F5E7FD
:1020D000424A1460002B74D062685069002B73D0A0
:1020E00063681B8B0222032104F0E2FD4FF4E1310F
:1020F000284605F08FFA0821284605F09DFA4FF48E
:102100000051284605F0A1FA0C21284605F0A9FA4D
:102110000021284605F09FFA0021284605F0A7FA7D
:10212000284605F0BAFA284605F0BCFA6368197A21
:10213000586804F07DFC6368197A586804F0C4FCA0
:1021400063682E1D3246197A586804F0D8FC63681B
:102150000022197A586804F095FC63680022197A05
:10216000586804F083FC6368197A586804F096FC98
:102170006368597A586804F05BFC63683246597AA0
:10218000586804F0BCFC63680022597A586804F06F
:1021900079FC63680022597A586804F067FC636828
:1021A000597A586804F07AFC6368597A586804F0E0
:1021B00094FC2046FFF747FF284605F05EFA2046CC
:1021C00070BD6268D06889E763681B8A8AE700BFD0
:1021D0000C920008189200081C920008D8070020F2
:1021E00038B50D460469437D3BB1216839B12846B5
:1021F00000F02CFA18B10834F7E71C4601E0236818
:102200000BB1204638BD1C46FBE738B504460D46E9
:1022100001E0002373B163680222197A586804F060
:102220001CFC0028F5D194F828300BB10346F1E7E7
:102230000123EFE76368197A586804F057FC636874
:10224000AAB2197A586804F073FC636894F82020E5
:10225000D201A83222440232197A586804F058FC9C
:1022600063680222197A586804F0F2FB6368197AED
:10227000586804F032FC94F82030B3FA83F35B0919
:1022800084F82030002384F8283038BD10B5044687
:10229000837D73B10A2910D0436A7F2B0DD090F84B
:1022A000202000EBC2121A4482F8AA1001334362C4
:1022B00010BD806805F0E6F9FAE794F82030626A0C
:1022C00004EBC313134483F8AA10511C2046FFF7F4
:1022D0009CFF00236362EBE710B50C46802A28BF01
:1022E000802211464FF0000C0AE090F8203014F8DC
:1022F0000CE000EBC313634483F8AAE00CF1010C7B
:102300008C45F2D3FFF781FF10BD38B505460C466A
:10231000084600F0B2F9024621462846FFF7DCFFE6
:1023200038BD000010B50446084600F0F9F900F089
:10233000DEF9237D83420DD000236375237B0BB32D
:10234000626850690BB363681B8B0122002104F0A3
:10235000AFFC10BD01236375237B6BB162685069CC
:102360006BB163681B8B0222032104F0A1FC0849B6
:102370002046FFF7CAFFECE76268D068F0E76368C1
:102380001B8AF0E76268D068DCE763681B8ADCE7D9
:10239000E88E000830B585B00446084600F0C0F964
:1023A0000378302B13D0322B0ED04FF461231D460F
:1023B000637D83B92946A06805F02CF90021A06847
:1023C00005F043F905B030BD0E4B1D46F0E74FF464
:1023D000E1331D46ECE70A22294601A800F05DF929
:1023E00009492046FFF791FF08492046FFF78DFF76
:1023F00001A92046FFF789FF05492046FFF785FF21
:10240000D8E700BF10552200A48C0008AC8C00084F
:10241000AC91000810B50446084600F081F9037835
:1024200023B1303B18BF012384F8293094F82930B8
:1024300023B105492046FFF768FF10BD0349204638
:10244000FFF763FFF9E700BFBC8C0008C88C0008E9
:10245000F8B504464368597A586804F062FB0646AA
:10246000C0F1800558B92046FFF7EDFD07E05A1C82
:10247000E261234493F82A10A06805F003F994F868
:10248000293013B1E369AB42F1DB0821A06805F004
:102490001AF9E0B97F2E28DCC6F17F03234493F8B4
:1024A0002A300A2B17D00D2B15D094F82A30212B67
:1024B0001BD1A369CBB12046FFF7C5FD0023E36123
:1024C000A3695B6804F5D571204698470DE0A068C4
:1024D00005F0F1F8DEE76368597A586804F006FB06
:1024E0007E2E03DD2046FFF7AEFDF8BD6319002206
:1024F00083F82A20E26104F12A072021384600F0FF
:10250000C3F80646037823BB0A21384600F0BCF81E
:102510000646002384F8AA31337803B300233370CE
:10252000A3612A49384600F091F80646E8B904F557
:10253000D5712046FFF7F6FEA369002B3CD0A068BA
:1025400005F0BDF8A3695B6804F5D571204698478E
:10255000C8E7411C04F5D57000F086F8DCE70D21D2
:10256000384600F091F80646D8E71949384600F099
:102570006DF8064668B994F82A322BB104F5D57186
:102580002046FFF707FFD7E712492046FFF7BDFEB9
:10259000D2E71149384600F059F8064628B904F543
:1025A000D5712046FFF736FFC6E739462046FFF7CC
:1025B00017FEA0612E46BFE7012E93DD637D002B41
:1025C00090D006492046FFF7A0FE8BE7D48C000888
:1025D000E08C0008EC8C0008088D0008108D0008C5
:1025E00008B5044B1B681A681268C1B218469047B8
:1025F00008BD00BFD8070020704708B500F032FDC5
:1026000008BD000000B583B00649D1F8F027D1F825
:10261000EC37D1F8E8170091034900F0EBFA03B06A
:1026200000BD00BF00F0FF1F2C8D000810B5044650
:10263000FFF7BCFC0249204600F0DCFA10BD00BFE9
:10264000408D000808B502F021FA08BD431E01398B
:1026500013F8010F11F8012F10B10AB19042F7D011
:10266000801A18BF01207047013911F8013F0BB9DA
:102670000370704700F8013BF7E70023C25C0AB91A
:10268000184670470133F9E703461A7818461AB11D
:102690008A4203F10103F8D17047002970B51EDAB0
:1026A0002D23012400F8013B4942064691FBF2F339
:1026B00002FB131130313170191E354606F1010647
:1026C000F4DC00220346201A30443270AB420BD2B5
:1026D0001A78297803F8011B05F80129F6E704D1D7
:1026E000302341700370012070BD0024DDE730B558
:1026F00003782D2B11D14FF0FF34013000210A2532
:10270000431E01E005FB012113F8012F303AD0B23E
:102710000928F7D904FB01F030BD0124EEE70000E1
:1027200010B5144C02780146A2F10A03DBB2162B55
:102730001BD824FA03F3DA0700F10100F2D40846AB
:10274000FFF79BFF01380844814204460AD2037810
:102750000A3BDBB2162B05D8064A013822FA03F3EE
:10276000DB07F1D40023637001E0002AE7D10846BB
:1027700010BD00BF09004000002310B5934200D1F6
:1027800010BD51F8234040F823400133F6E702B969
:102790007047013A40F8041BF9E7F8B50D461646B4
:1027A0001C460160828000238371052C30D00AD939
:1027B000082C32D01AD8062C41D0072C42D1002444
:1027C00003231F4630E0032C1CD009D8012C13D062
:1027D000022C02D100231F4622E002241F4623E0E0
:1027E000042C28D1012400231F461DE0092C2DD1E3
:1027F000022403231F4617E00123837102240023D0
:102800001F4611E001238371022400231F4607E0C5
:102810000124847100231F4606E0012403231F4680
:102820003146284604F079FA33462246394628468E
:1028300004F03EFAF8BD022400231F46F4E700240A
:102840002746F1E7022400231F46EDE70224002378
:102850001F46E9E7024B4FF400421A80704700BF61
:10286000E408002008B5FFF7F5FF08BD70B50C1EA1
:10287000ACBF01234FF0FF335C430133064608BF72
:102880002D234FF0640208BF06F8013B611104F0EC
:102890001F040546544330460A22FFF7FEFE2E224F
:1028A0006411092C3254D8BF302206EB0003D8BF84
:1028B0005A7021464FF00A02CCBF581C981CFFF7F3
:1028C000ECFE284670BDF0B5027803462D2A13D1E0
:1028D0004FF0FF30013300250A2702E007FB0525F2
:1028E00001331C78A4F13002D6B2092EF6D9A4B96E
:1028F0008D4025446843F0BD0120ECE78A4002EB9F
:10290000660292FBF6F20CFB06F6144413F8012F54
:10291000303AD7B2092FF1D9EAE70A260024B446A3
:10292000F4E72DE9F04105460F46161E02DD0A4682
:10293000002108E04FF0200813F001041BD0002410
:1029400022E00131013210780028FAD1B14206DAD2
:10295000761A13F0020F04D14FF02008ECE700269E
:10296000F7E74FF03008E7E72B681B684146284639
:1029700098470134013E002EF6DC05E02B681B6809
:10298000284698470134013739780029F6D106E006
:102990002B681B684146284698470134013E002EAB
:1029A000F6DC2046BDE8F08170B584B00646DDF85F
:1029B00028C059B11D460B4615B10A2A11D0002571
:1029C00000218DF80D100DF10D0416E030238DF867
:1029D00000308DF80110099B089A6946FFF7A1FFA6
:1029E00032E0002901DB0025EAE74B420125E7E759
:1029F000303104F8011DB3FBF2F34BB1B3FBF2F13C
:102A000002FB11310929F3DDACF13A000144EFE793
:102A10009DB1089B63B1099B13F0020F08D03046AB
:102A200033681B682D219847089B013B089304E0FD
:102A30002D2304F8013C013C0025099B089A2146FE
:102A40003046FFF76EFF284404B070BD08B5084655
:102A5000FFF7C6FD08BDF0B585B0074616461D4612
:102A60006846FFF703FF2B46324669463846FFF7B4
:102A700058FF05B0F0BD000070B588B006460C46A2
:102A80000592002587E0A21C012391E00022217815
:102A9000A1F1300C5FFA8CFCBCF1090F06D802EBF7
:102AA0008202303901EB42020134F0E773291AD077
:102AB000642923D0782930D058293DD075294AD0AF
:102AC000662957D0632965D10599081D05900968C5
:102AD0008DF81C1000218DF81D1007A93046FFF756
:102AE00020FF054456E00599081D0590096801B9C5
:102AF00035493046FFF715FF05444BE00599081DA1
:102B000005900968612002900193009201230A2236
:102B10003046FFF749FF05443CE00599081D059044
:102B20000968612002900193009200231022304630
:102B3000FFF73AFF05442DE00599081D0590096847
:102B40004120029001930092002310223046FFF7AB
:102B50002BFF05441EE00599081D059009686120BA
:102B600002900193009200230A223046FFF71CFFD7
:102B700005440FE00599081D059009683046FFF7E8
:102B80006AFF054406E0144633681B682178304626
:102B900098470135013423789BB1252BF4D1621C71
:102BA000637873B1252BEED02D2B3FF46CAF00234F
:102BB00014462278302A7FF469AF013443F00203CF
:102BC000F7E7284608B070BDB48D00080FB400B513
:102BD00083B004AA52F8041B054B0193009201A88C
:102BE000FFF74AFF03B05DF804EB04B0704700BF85
:102BF000049300080EB400B582B003AA52F8041B77
:102C00000192FFF739FF02B05DF804EB03B07047A3
:102C1000174B184A1360991C174A1160191D174A5F
:102C20001160991D164A116003F10801154A1160DF
:102C300003F10A01144A116003F10C01134A1160F7
:102C400003F10E01124A116003F11001114A1160E3
:102C500003F11201104A116003F114010F4A1160CF
:102C600003F116010E4A116018330E4A13607047C3
:102C70001C09002018090020140900201009002058
:102C80000C09002008090020040900200009002088
:102C9000FC080020F8080020F4080020F0080020BC
:102CA000EC080020E808002030B583B0334B93E8EF
:102CB000030002AB03E903000025002D2CDD304C9E
:102CC000304A0121204603F01AFF2F4A01212046F5
:102CD00003F01EFF4FF480720121204603F0D2FE64
:102CE0004FF480620121204603F0C0FE9C220121A6
:102CF000204603F01DFF0121204603F0CFFE0121F5
:102D0000204603F0D4FE0121204603F0E6FE1F48D2
:102D100003F064FC03B030BD02AB03EB850353F852
:102D2000084C204603F018FC204603F01AFC20460D
:102D300003F021FC204603F019FC0121204603F09A
:102D4000F6FB204603F0B9FB204603F0D3FB2046F8
:102D500003F0E3FB05EB450305EB83030C4A1A4440
:102D60000D21204603F00CFC204603F041FC4FF4FB
:102D70006021204603F0B4FB01359EE7089300086C
:102D8000000002404C2401401C09002000240140A6
:102D9000540A0020884205DD914209DC90420ADD98
:102DA00010467047904206DC914203DD10467047A2
:102DB000084670470846704730B583B00468002560
:102DC0000BE0A28E618B2088FFF7E4FF02AB03EBE0
:102DD000450323F8080C01354E34032DF1DDBDF811
:102DE0000000BDF802301844BDF804301844BDF8A6
:102DF00006301844C0F38F0003B030BD08B50F4B48
:102E000098420BD003F58063984211D0A3F500637C
:102E1000984205D1072903DCC8B204E0012903DD8B
:102E200003F054FB102008BDC9B20831C8B2FAE75C
:102E30000529F5DCC9B20A31C8B2F4E7000C01403B
:102E400070B505460E461446012393409BB20022FE
:102E50001146304603F02CFF2B68054A9B1A5D1083
:102E600021463046FFF7CAFFABB2024AD05470BDCC
:102E70001C090020540A002008B5FFF7C9FE08BD50
:102E800008B503F0CFFD00F5FF3000F2FF1080021F
:102E900008BD2DE9F043ADF2044DFFF7F1FF064602
:102EA000024600234FF0FF3503E052F8041B0D40AB
:102EB0000133FF2BF9DD03F099FD4FF480724FF0E1
:102EC000FF316846FFF763FC002400E00134382C32
:102ED0001AD8E7B23846FFF799F80028F6D13846F5
:102EE000FFF75CF880463846FFF78AF80DEBC40917
:102EF00089F80300B8F818202DF834203846FEF77A
:102F0000E3FFC9F80400E1E7FE21684603F07CFD19
:102F1000FE9003F0A7FEB5F1FF3F01D100240AE0C7
:102F2000304603F05BFEF9E75DF8241006EB840001
:102F300003F0B2FE0134FF2CF6D903F09FFEFE9899
:102F40000DF2044DBDE8F083F8B5FFF799FF064692
:102F500003F04CFDFE21304603F056FDD6F8F83361
:102F6000834201D1002503E04FF0FF3019E0013525
:102F70007E2D15D836F83500FFF700F804463A28BC
:102F8000F5D0FFF743F80028F1D106EBC5077968C3
:102F90002046FEF7C9FFF9782046FFF71BF8E6E761
:102FA0000020F8BD014B1860704700BF6C0A00207C
:102FB0000D4B1B5CB3B90D4B196899B10C4B1870D4
:102FC000DFF830C0DCF800300B4A02F8330002EBC7
:102FD000C3025160044A012111540B4403F003035E
:102FE000CCF80030704700BF640A00206C0A002053
:102FF000660A0020680A00202007002003280AD85B
:10300000064B03EBC0035B680BB918467047034BD4
:1030100013F8300070470020704700BF20070020E1
:10302000032801D900207047024B03EBC003586806
:10303000704700BF2007002008B5074B03EBC10213
:1030400092F804C053F83130044A52F82C2001465B
:103050000348FFF7BBFD08BD1C9300081093000850
:10306000BC8D000810B50C4B5B680BB1002409E067
:103070000A48FFF7ABFD10BD074B13F83410FFF7FC
:10308000DBFF0134032CF6D8034B03EBC403586871
:103090000028F1D1EFE700BF20070020CC8D000809
:1030A00000B58BB0104B01EB410203EB820C53F8DF
:1030B0002220DCF804C001EB410103EB81039B6893
:1030C000D0F858020021089107910693CDF814C05A
:1030D000049203910291019100910B46012203F0A9
:1030E00099FA0BB000BD00BF40930008F0B583B063
:1030F00004460D4616461F4672B60121D0F8580206
:1031000003F09BFB019600970023B5F5006F34BFD9
:10311000002201222946D4F8580203F093FB00282C
:1031200006DBD4F85432002B18DC62B603B0F0BDD5
:10313000D4F85432132BF4DC03F1110204EB021225
:1031400055609760316804EB0312C2F81C11716876
:10315000C2F820110133C4F85432E2E70121D4F857
:10316000580203F066FBE0E7012801DD002070470C
:10317000014B53F820007047700A002030B58BB027
:1031800004460D460AE09DF8213006AA099920461A
:1031900000F0B2FA04F000F8C4F8F8000023059338
:1031A00006AB04930DF12103039308AB02930DF1D9
:1031B000220301930DF12303009309AB0122E9B22D
:1031C000D4F8580203F0B3FB0028DCD10BB030BDBB
:1031D00030B583B0044600F58A7504E0D4F8543263
:1031E000013BC4F85432D4F85432002B17DD03F1FC
:1031F0008053013B1A0105EB0313A9585A680833A1
:103200000193D2B200920023B1F5006F34BF0022C7
:103210000122D4F8580203F015FB0028DEDAD4F8B6
:1032200054320BB103B030BD0121D4F8580203F081
:1032300004FBF7E770B584B00E4615461C461068CF
:10324000B3F800C05A889B88B4F806E05B019BB2D3
:10325000520192B24FEA4C1C1FFA8CF14FF0010C54
:10326000CDF808C000EA0C0CCDF804C04FEA4E1CA3
:103270001FFA8CFCCDF800C003F0BEFA00233360C7
:103280002A6801322A60E380A3806380238004B02F
:1032900070BD70B584B00E4615461C461068B3F874
:1032A00000C05A889B88B4F806E05B019BB25201CB
:1032B00092B24FEA4C1C1FFA8CF14FF0010CCDF882
:1032C00008C000EA0C0CCDF804C04FEA4E1C1FFAEF
:1032D0008CFCCDF800C003F07FFA002333602A682D
:1032E00001322A60A380238040F2FF73E380638071
:1032F00004B070BD70B582B00E4615461C4610680D
:103300001968C9005A68D20001230093034042F0B3
:10331000040241F0040103F07FFA002333602A68BD
:1033200001322A606360236002B070BD30B58BB09B
:103330000546002308930993474906AA03C982E872
:10334000030004930593039302930193D5F8582245
:10335000424B9A420AD0A3F58063D3F8003AC3F3F4
:10336000052300930024C2F81C4221E00023F8E763
:1033700004F11E0205EB8202516871B3029A501CDF
:1033800002900DF1280C0CEB420C2CF8103C023290
:1033900002920AAB03EB400020F8101C039B042BA5
:1033A00024D0029B022B28D0019B022B2CD001346D
:1033B000D5F8F430A3422EDD05EB84035B68B3F54A
:1033C000006FD5D3019A23F060430AA901EB820173
:1033D00041F8183C01320192E0E7039A0AA901EB97
:1033E000420121F8083C01320392D7E708AB6A4654
:1033F00003A92846FFF71EFFD3E706AB6A4602A9DA
:103400002846FFF746FFCFE704AB6A4601A92846E6
:10341000FFF770FFCBE7039B002B07DC029B002B21
:103420000BDC019B002B0FDC0BB030BD08AB6A46F8
:1034300003A92846FFF7FEFEF0E706AB6A4601A99E
:103440002846FFF726FFECE704AB6A4601A92846A9
:10345000FFF750FFE8E700BF7C93000800640040DE
:10346000F8B504460D4616461F4600F0E3F8544BE7
:1034700023600023C4F85432C4F85852514B9D4283
:103480002FD003F580639D4258D1002F00F0828039
:103490004D4D202302220021284603F009FC202163
:1034A000284603F03AFC402302220321284603F079
:1034B000FFFB402004F07CF9F021402004F084F967
:1034C000412004F075F9F021412004F07DF93F20FE
:1034D00004F06EF9F0213F2004F076F93B4B5C607C
:1034E0002CE0002F41D0384D4FF480730222002190
:1034F000284603F0DDFB4FF48071284603F00DFCF5
:103500004FF4007302220321284603F0D1FB14205C
:1035100004F04EF9F021142004F056F9152004F0BF
:1035200047F9F021152004F04FF9132004F040F979
:10353000F021132004F048F9244B1C60D4F8580201
:1035400003F05CF831462046FFF7AAFD2046FFF75E
:10355000EDFE0221D4F8580203F06BF91021D4F8E3
:10356000580203F066F92046F8BD194D4FF4006388
:1035700002220021284603F09BFB4FF400612846FD
:1035800003F0CBFB4FF4805302220321284603F0C3
:103590008FFBBCE70C4D4FF48053022200212846DC
:1035A00003F086FB4FF48051284603F0B6FB4FF43E
:1035B000005302220321284603F07AFB79E700BF7B
:1035C0003493000800640040000C0140700A0020A1
:1035D0000008014008B50020FFF7C6FD0021FFF7F5
:1035E000CDFD08BD08B50020FFF7BEFD0121FFF7A6
:1035F000C5FD08BD08B50020FFF7B6FDFFF7E8FDE3
:1036000008BD08B50120FFF7AFFD0021FFF7B6FDAB
:1036100008BD08B50120FFF7A7FD0121FFF7AEFDAA
:1036200008BD08B50120FFF79FFDFFF7D1FD08BDDC
:1036300070477047084B03600023C0F8F430C0F8AF
:10364000FC3005E003F14002044940F82210013348
:10365000042BF7DD704700BF8C930008440700205F
:10366000D0F8FC30042B01DD0020704703F140024C
:1036700040F822100133C0F8FC300120704710B52B
:103680001446D0F8F4201D2A0CDD002010BD0133B3
:103690009A420ADD00EB830CDCF804107145F6D188
:1036A0000020F3E78E460023F2E700EB8203C3F825
:1036B00004E002F11E0300EB83035C600132C0F8FA
:1036C000F42003689B6898470120DFE738B505467A
:1036D0000024C0F8F44003689B68984707E004F1B1
:1036E000400355F8230003685B6898470134D5F818
:1036F000FC30A342F3DC38BD2DE9F843054689468A
:1037000090461F4600240AE004F1400355F82300C8
:1037100003681E683B4642464946B0470134D5F827
:10372000FC00A042F0DCBDE8F88370B5054600F16E
:10373000300634460BE034F8043BC3F3C02123F4D5
:103740000063002203EB41716868FFF798FFA31B39
:10375000242B02DCA378322BEDD170BD2DE9F04192
:1037600082B0054600F108073E46F31B242B00F308
:103770009380B378322B00F08F8000230093019365
:10378000B37803EB4304A40058342C441AE0C0F38C
:1037900007231B0443EA0063C0F3074243EA022302
:1037A00043EA1063E2791F2A3DD8C2F11F0223FACF
:1037B00002F2009B13430093647A04EB4404A400D8
:1037C00058342C44637AFF2B5DD0354B1B78002B8B
:1037D00062D12079FEF786FB0146206804F038FDAF
:1037E000804694F9060004F0DFFC414604F028FC12
:1037F00004F0F4FE94F908C08CEAEC71A1EBEC71D2
:10380000C9B24FF0FF328A4020EA0200BCF1000F3B
:10381000BDDBE2791F2A20D9203A00FA02F2019B8F
:1038200013430193C8E79444BCF11E0F07DDC2F1B6
:103830003F0223FA02F2019B13430193BCE7A2F17A
:103840001F0003FA00F0009901430091C2F13F020A
:10385000D340019A1A430192AEE702EB0C03202BEE
:1038600005DC00FA02F2009B13430093A4E700FA80
:1038700002F1009B0B430093C2F12002D040019B58
:103880000343019398E7686803685C6808236A4605
:1038900036F8041BA04768E702B0BDE8F08100BF1E
:1038A000780A002010B509B302F10C0E00EB8E0E61
:1038B0000A2A46D89EF80210322944D001EB410C66
:1038C0004FEA8C0C0CF1580C844400210C469CF8F7
:1038D0000910FF2933D073B1013BDBB201EB410189
:1038E00089005831644600EB010CF0E702F1020E4A
:1038F00000EB8E0EDCE72CB16172FF238CF80930EF
:1039000001201FE0322904D08EF80210F5E70133C0
:10391000DBB29918092904DC0EEB8301897832297E
:10392000F5D1013BDBB20EEB830291788EF80210E9
:103930003EF82330AEF8003032239370DDE70020EC
:1039400000E0002010BD0020FCE7F8B500F10803FE
:1039500000263446354637463DBB1A462C46A2EB78
:10396000030CBCF1240F27DC92F802C0BCF1320F2B
:1039700022D00CEB4C0E4FEA8E0E0EF1580E864400
:10398000002609E00136F6B20CEB4C0C4FEA8C0C29
:103990000CF1580C00EB0C0E9EF809C0BCF1FF0FA7
:1039A00006D0BEF804E08E45ECD15DB10020F8BD34
:1039B0000134E4B20432D2E700F130033D46012283
:1039C0001746C9E7334622463946FFF76BFFEEE755
:1039D00070B514461E460023079A137000F10805BF
:1039E000002B46D12A46531B242B3ADC92F802C006
:1039F000BCF1320F35D00CEB4C0E4FEA8E0E0EF1AF
:103A0000580E864407E00CEB4C0C4FEA8C0C0CF182
:103A1000580C00EB0C0E9EF809C0BCF1FF0F1ED035
:103A2000BEF804308B42EED11388C3F3C02223606A
:103A300023F40063236043EA427323609EF8073057
:103A400033709EF90820049B1A70DEF80020059B55
:103A50001A609EF90620069B1A70012070BD043280
:103A6000C1E7079B1B780122079D2A7000F13005F2
:103A7000B6E70020F2E78446D9B102F10C0100EB71
:103A800081010A2A27D88A78322A26D002EB4202FC
:103A9000920058320CEB0200427AFF2A19D063B12F
:103AA000013BDBB202EB4202920058320CEB020007
:103AB000F2E7911C00EB8101E3E70B88C3F3C0221E
:103AC00000990B6023F400630B6043EA42730B60C0
:103AD00070470020704700207047002070472DE994
:103AE000F04385B00646884600F1080900273B46AA
:103AF0002FE02B88C3F3C02C23F4006194F9083025
:103B0000E2792079029794F906E0CDF804E0D4F840
:103B100000E0CDF800E041EA4C71C047647A04EB64
:103B20004404A40058343444637AFF2BE1D10435B3
:103B3000A5EB0903242B08DCAB78322B05D003EB73
:103B40004304A40058343444EEE706F130093B4600
:103B500001270BB94D46EBE705B0BDE8F083002324
:103B600006E001EB83024FF0320C82F802C0013311
:103B7000092BF6DD002307E003EB430200EB820292
:103B8000FF2182F861100133322BF5DD704710B54B
:103B9000044600F10801FFF7E2FF04F1300120467E
:103BA000FFF7DDFF6068FFF791FD10BD2DE9F041E3
:103BB0000F4615461E460024A0460AE0286802F07B
:103BC0001DFF804655F8041B07EB840003F064F8E2
:103BD0000134B442F2DB4046BDE8F081084600E023
:103BE0000430431A242B0ADC8378322B05D0038857
:103BF000534033F40063F3D102E00020704700200B
:103C0000704700004B4B1B7803B170472DE9F04122
:103C1000054616460A4600F13001FFF7DFFF00288F
:103C200000F08580837803EB4304A40058342C44CF
:103C300042E01F2B53D83068C0F30722120442EA37
:103C40000062C0F3074742EA072242EA1062C3F16A
:103C50001F03DBB201208840013822FA03F3184029
:103C600004F09EFA074694F9060004F09DFA3946DE
:103C700004F0E6F90146206804F0EAFA07462079E4
:103C8000FEF7C4F920B12079FEF7C0F9012849D127
:103C9000B4F804804FF08441384604F0D9FA04F0B7
:103CA0009DFC01465FFA88F0FEF7F0F8647A04EBB9
:103CB0004404A40058342C44637AFF2B37D0E379B2
:103CC00094F9082082EAE271A1EBE271C9B2002AFC
:103CD000AFDB1F2B18D97268203BDBB2BAE71A445E
:103CE0001F2A03DD7068203BDBB2A5E75B1ADBB25D
:103CF0000133DBB23068D8407268C3F120039A40C8
:103D000010434B1EDBB297E71A44202A01DC3268CD
:103D1000A0E73268DA407068C3F12003984002439C
:103D2000002397E739462079FEF704F9BEE7BDE89E
:103D3000F08100BF780A00202DE9F8439DF820703B
:103D40009DF92460002E76D004460D469146984693
:103D500086EAE673A3EBE673DBB2202B6ED8002E67
:103D60000BDDBB19402B6CDC424629462046FFF791
:103D700035FF844658B100221BE03F2F64D87BB248
:103D80003344B3F1FF3FEFDA6FF0010051E000215F
:103D9000092907DC05EB81039A78322A01D0013129
:103DA000F6E79C46BCF1000F51D0ACF80080E2E78A
:103DB0000132312A07DC02EB420304EB830393F860
:103DC0006130FF2BF4D1322A44D09CF8023000211C
:103DD0000AE003EB430189005831214403EB43031C
:103DE00004EB830393F86130322BF2D102EB4203F0
:103DF00004EB8304A4F85C900A9BA3659DF92C3026
:103E000084F85E3084F85F7084F86060322384F850
:103E1000613019B14A722B46002004E08CF8022070
:103E2000F9E7013004335A1B242A02DC9A78322A3B
:103E3000F7D1BDE8F8836FF00200FAE76FF00200F7
:103E4000F7E76FF00100F4E76FF00100F1E76FF0C2
:103E50000300EEE76FF00400EBE7B2F5006F16D257
:103E600000B585B09DF920C0CDF80CC0DDF81CC0B0
:103E7000CDF808C09DF918C0CDF804C000931346D2
:103E80000A4600F10801FFF757FF05B000BD4FF0EB
:103E9000FF30704770B584B005461446C2F34070D9
:103EA00022F00052B2F5006F1DD29DF928C0CDF866
:103EB0000CC0DDF824C0CDF808C09DF920C0CDF8B5
:103EC00004C0009342EAC0230A4605F130012846A7
:103ED000FFF732FF0646002221466868FFF7CFFB56
:103EE000304604B070BD4FF0FF331E46F8E72DE9B1
:103EF000F04F89B08346059206938A46079131E0D8
:103F0000B4F9020004F050F9002303930290CDF8B5
:103F1000048000953B46049A05993046FFF70CFF54
:103F20000634A4EB09032A2B1ADC94F90530002B84
:103F300016DD2088FEF722F80490DBF80060BAF85E
:103F40000070257994F90580069B002BD8D0B4F930
:103F5000020004F029F94FF0745104F079F9D3E725
:103F60000AF1320A079BAAEB0303B3F5E17F0ADCEF
:103F7000BAF800104FF6FF73994204D00AF1020517
:103F80002C46A946CDE709B0BDE8F08F08B502F090
:103F900049FD00F5FF3000F5FF70800208BD70B5E7
:103FA00082B006460190FFF7F1FF0446D0F8E853CF
:103FB00002F01CFDFA21204602F026FD854202D0C7
:103FC000002002B070BD01AD002332460832214608
:103FD0002846FFF78CFF01233246303204F5FA7190
:103FE0002846FFF784FF0120EBE7F8B505460F46AA
:103FF0000E460EE02079FDF7D1FF038BA380647A93
:1040000004EB4404A40058342C44637AFF2BF1D110
:104010000436F31B242B08DCB378322B05D003EBDA
:104020004304A40058342C44EFE7F8BDF8B5054626
:104030000F460E460DE0A088FDF7A0FFA080647A31
:1040400004EB4404A40058342C44637AFF2BF2D1CF
:104050000436F31B242B08DCB378322B05D003EB9A
:104060004304A40058342C44EFE7F8BDF0B583B006
:104070000546FFF78BFF064602462A4B01211970C1
:1040800000234FF0FF3403E052F8041B0C400133CF
:10409000FF2BF9DD02F0AAFC02F0E4FD022002F0A1
:1040A000D7FDB4F1FF3F38D105F10807394628465E
:1040B000FFF79BFF05F1300421462846FFF795FFE7
:1040C0000A233A4631462846FFF770FD0A23224666
:1040D00006F128012846FFF769FD0190962305F1B6
:1040E000580206F150012846FFF760FD01900123B8
:1040F00001AA06F52D712846FFF758FD02F0BEFD16
:1041000039462846FFF792FF21462846FFF78EFFE3
:10411000044B00221A7003B0F0BD304602F05EFD81
:10412000C2E700BF780A0020F8B50646FFF72EFF69
:104130000446D0F8B45202F059FCAA21204602F0FD
:1041400063FC854203D03046FFF729FFF8BD06F136
:1041500008070A2221463846FEF70EFB06F1300515
:104160000A2204F128012846FEF706FB962204F1F4
:10417000500106F15800FEF7FFFA39463046FFF7C6
:1041800055FF29463046FFF751FF0120DEE70000CA
:1041900038B50446084615460D4B23600D4B236089
:1041A00061602146FFF75CFA04F108012046FFF741
:1041B000D6FC04F130012046FFF7D1FC25B920469A
:1041C000FFF7B3FA204638BD2046FFF7ADFFF6E70C
:1041D00070860008B0930008036ED3B14FF47A7371
:1041E000036604E0036E002B07DD01233BB1826D03
:1041F000C36D9A42F6D00023F8E70023F6E7836DFB
:104200005A1C826503F03F03034419764FF0FF33D5
:1042100043617047A0F10400FFF7DEBF10B504460C
:10422000017C002201F5C0618068FFF728FA617CFB
:104230003F2900D910BD002201F5B061A068FFF749
:104240001EFAF7E710B504460846144B2360144BDA
:104250006360144B236014336360A160E260012348
:104260002374FF2363744FF0FF3363610023A3655E
:104270004022E2654FF47A7222663A2284F8642082
:10428000A36684F87830E36784F888302146FFF726
:10429000E7F92046FFF7C2FF204610BD70860008F0
:1042A0000C920008C093000808B501748068FFF7FD
:1042B0000DFA08BD10B582B004468DF80010ADF8B7
:1042C00001309DF810308DF80330059B0193437C3D
:1042D00093420DD1002384F87830A068617C036894
:1042E0005C6808236A4601F5C061A04702B010BDB2
:1042F00042748068FFF7EAF9ECE738B504460A46ED
:104300008068217C03685D68082301F5B061A847D7
:10431000002384F8883038BDB1F8012045F201034C
:104320009A4211D0012380F888300B7880F88030D1
:10433000B1F80130A0F88130CB7880F883304B6839
:10434000C0F88430002070470B78402B01D000204B
:1043500070474FF0FF330B714B7100238B71CB71A2
:1043600041220A704FF47A72026683654023C36566
:10437000CB784361012070472DE9F04184B00746B6
:104380000C46B1F80120C2F3C0131E46CD7825B10A
:10439000013D05EBD575C5F3470503AB00932B46EF
:1043A00002F03F023146F868FFF765FB804623784C
:1043B000402B0DD0232B3DD080232370002323716D
:1043C00063710223A3710623E37104B0BDE8F08199
:1043D00030B30079FDF7E2FD028BE37823B9039B4C
:1043E000636043232370F0E713F0010F09D098F8BE
:1043F000073042EA034298F9083042EA03626260F9
:10440000EFE71549D8F8000003F022FF04F0E6F8C2
:1044100020F07F4398F9062043EA02636360E0E7F7
:10442000802323700023237163710223A371062369
:10443000E371CAE70028BFD06368002BBCD1B4F891
:1044400001202B4602F03F023146F868FFF72AFAB6
:1044500060232370B9E700BF00007A440B78232B58
:1044600000D070472DE9F04184B005460C46164651
:10447000CB7883B94B68B3F1005F04D323F00052CB
:10448000B2F5006F03D2AB666023237019E04FF0E2
:10449000FF3383660CE0826E1746B2F1FF3F01D016
:1044A000012B11D095F9742090460AB1022B1DD032
:1044B000802323700023237163710223A3710623D9
:1044C000E37104B0BDE8F081486880B2FDF756FDA5
:1044D000A5F870006368C3F3054385F8733063681B
:1044E0001B1685F874303828CED9E1E7606840F3B0
:1044F000170003F059FE154903F05EFFE866636894
:104500001B1685F87230A6B102930190CDF8008099
:1045100095F873303A4695F87010E868FFF7BAFCE2
:10452000002385F874304FF0FF33AB660028ABDA18
:10453000BEE702930190CDF8008095F873303A46BB
:1045400095F87010E868FFF788FCE9E700007A4406
:1045500038B504460D460A7802F06003602B31D06E
:10456000B1F80130B3F5005F5AD003F47F40B0F5E5
:10457000045F55D0E16819B1B3F5405F00F0858064
:1045800021B143F2010C634500F0858019B1B0F50B
:10459000445F00F0868045F203018B4200F0868084
:1045A00045F204018B4240F09B80402A00F091804C
:1045B00080232B7000232B716B710223AB710623B8
:1045C000EB7119E002F010020A700122072A0EDCDA
:1045D000E36DA16D5B1A402B09D0E36D591CE165B9
:1045E00003F03F0323441B7EAB540132EEE7E36D3F
:1045F000A16D5B1A402B09D0A068217C03685C6820
:1046000008232A4601F5B061A04738BD2B7843F056
:1046100001032B70C2F1080243EA42032B70EBE75F
:10462000E87803F47F42B2F5045F0CD0382822D832
:104630002B78232B0DD0402BDED1FDF745FC686095
:1046400043232B70D8E71B029BB21844FDF796FC5E
:10465000ECE76968FDF71AFC10B960232B70CBE713
:1046600080232B7030232B7100236B710923AB71D6
:104670000623EB71C0E780232B7000232B716B7135
:104680000223AB710623EB71B6E7002229462046D0
:10469000FFF7E4FEB0E7012229462046FFF7DEFEE1
:1046A000AAE729462046FFF767FEA5E7402A09D07A
:1046B00080232B7000232B716B710223AB710623B7
:1046C000EB7199E7E878FEF799FC686043232B705B
:1046D00092E7E878FEF7A4FC686043232B708BE731
:1046E00029462046FFF718FE002885D18DE70000F7
:1046F000F0B583B004461546037C03F5C0638B42D6
:1047000007D0437C1E4603F5B0638B4205D003B04F
:10471000F0BD1146FFF71CFFF9E7B2F801301F4664
:10472000A3F540539BB2012B08D92B78803B18BFCF
:10473000012384F878306B68E367E8E7D378ABB19E
:10474000012BF2D11349C06E03F082FD03F046FF46
:1047500094F9723040EA03630193022300933B46CD
:10476000324623212046FFF7A5FDDEE7B0F8703082
:1047700090F8732043EA024390F9742043EA0263FD
:104780000193012300933B4632462321FFF792FD1C
:10479000CBE700BF00007A4410B50446B0F8013002
:1047A000B3F5A04F0DD045F20202934234D08023DE
:1047B00023700023237163710223A3710623E37125
:1047C00010BD0278402AEED143230370C378022B38
:1047D00013D007D863B1012B14D12E4BD3F8EC378B
:1047E0004360EDE7032B0DD1FDF71AFC6060E7E7AE
:1047F000284BD3F8E8374360E2E7264BD3F8F0378D
:104800004360DDE78023237000232371637102235B
:10481000A3710623E371D3E72378232BC7D1602349
:104820002370E378012B21D009D9022B26D0032B4A
:1048300026D1FDF7BBFB3920FCF7B0FDC0E7FBB983
:10484000154B1B784BB172B6144B186808B1FFF7C3
:104850000DFCFEF71EFB62B6B2E780232370002337
:1048600023716371A3710823E371A9E772B6FEF7A0
:104870006BFB62B63920FCF791FDA1E702F090FFD7
:10488000802323700023237163710223A371062305
:10489000E37195E700F0FF1F480700207C0A002025
:1048A0002DE9F04184B00E46174698469DF83040F9
:1048B000FDF774FB43681D461449154B1868FEF755
:1048C00099F9ECB11349124B1868FEF793F94FF0C0
:1048D00084410A9803F0BCFC0D4B1C689DF92C30F8
:1048E000039303F07BFE0290CDF8048000973346DB
:1048F0002A4609492046FEF77DF904B0BDE8F0815B
:104900000649034B1868FEF775F9E0E7148E0008B6
:10491000840A00201C8E0008248E0008208E0008C7
:1049200070B505460846FDF7FBFE06462021FDF75B
:10493000ABFE0378A3B1002300F8013B0521FDF78E
:10494000C2FF04463046FDF705FB3A2812D0214647
:10495000FDF79CFA48B90A492846FEF74BF903E0EF
:1049600008492846FEF746F970BD07492846FEF774
:1049700041F9F9E7324605492846FEF73BF9F3E7E6
:10498000548E0008388E0008608E0008788E00086B
:10499000F8B507460846FDF7C3FE054609E02A4676
:1049A0000F493846FEF726F9254605F8016B2C2EEF
:1049B00014D12C212846FDF767FE04460678002313
:1049C00003702846FDF7C6FA3A28E8D0FDF77CFACE
:1049D000024604493846FEF70DF9E5E7F8BD00BF89
:1049E000988E0008908E00082DE9F0410646084692
:1049F000FDF796FE07462021FDF746FE03789BB1A2
:104A000004460546002305F8013B3846FDF7A2FAA7
:104A100080463A2829D06378212B0AD07E2B08D0F3
:104A20002F2B06D0002406E013493046FEF7E2F8AB
:104A30000FE0A51C012429461048FDF707FE50B9D8
:104A400074B101214046FDF7D3FA0D493046FEF717
:104A5000D1F8BDE8F0810B493046FEF7CBF8F8E716
:104A600001214046FDF7BCFAEFE73A4606493046D9
:104A7000FEF7C0F8EDE700BFB48E0008C48E000852
:104A8000DC8E0008CC8E0008788E00082DE9F04FEF
:104A90008BB007460846FDF743FE03780593464969
:104AA0003846FEF7A7F800264FF0200822E0434AD8
:104AB000039202930190CDF800A04B464246404934
:104AC0003846FEF797F82846FDF7A0FA20B12846A9
:104AD000FDF79CFA01285AD1E268236961692068D0
:104AE00002960190009137493846FEF783F84FF05F
:104AF0002C080136382E51D8F5B22846FDF74EFA6B
:104B000004462846FDF77CFA10F0010F02D0059B01
:104B1000682BEED1D4F80490D4F808A0B4F818B0FB
:104B20002846FDF7D1F90290CDF804B0CDF800A0E9
:104B30004B46424624493846FEF75CF80DF11F0308
:104B400003930DF11E03029309AB01930DF11D03B5
:104B5000009307AB08AA29461C480068FEF738FFF7
:104B60000028B0D0DDF820809DF81C909DF91DA094
:104B70004FF08441099803F06BFB03F02FFD9DF982
:104B80001E309DF81F20002A91D0114A90E711494C
:104B90003846FEF72FF84FF02C08AAE70E4BD3F853
:104BA000F0270E493846FEF725F80D493846FEF73E
:104BB00021F80BB0BDE8F08F008F0008F88E0008D8
:104BC000348F0008988F0008048F0008800A0020A6
:104BD000F08E0008848F000800F0FF1FE88F0008A7
:104BE000249000082DE9F0478AB00746002305937A
:104BF00006930793089309930846FDF791FD0478FF
:104C0000702C38D0632C44D02021FDF73DFD037873
:104C1000002B47D0FDF784FD06462021FDF734FD2B
:104C200003780BB9642C44D10546002305F8013BF9
:104C30003046FDF78FF9064681462846FDF770FDA0
:104C400080463A2E3AD0642C3DD000231D464FF0CA
:104C50007E539A46042D62DC20214046FDF714FD68
:104C600006460378002B39D1022D37DC59493846E6
:104C7000FDF7C0FF1AE0584B1B68002BFBD1564CC8
:104C800027605649564B1868FEF729FF002323601A
:104C90000CE0534B1868FEF77AFF52493846FDF78F
:104CA000A9FF03E04B493846FDF7A4FF0AB0BDE871
:104CB000F08748493846FDF79DFFF7E74A493846EF
:104CC000FDF798FFF2E73146454B1868FEF73DFEC9
:104CD000024646493846FDF78DFFE7E7002333706B
:104CE0004046FDF704FD032D0DD00AAB03EB850311
:104CF00043F8140C30460130FDF712FD80462B4678
:104D000001331D46A6E710214046FDF7DCFD03F008
:104D10004BFA4FF05E5103F09BFA8246EAE7742C9F
:104D20001FD09DF924300293CDF804A09DF91C30CA
:104D300000939DF81830059A494629480068FFF706
:104D4000A9F810F1030F2ED01CDD10F1020F24D0B2
:104D5000B0F1FF3F33D1059A25493846FDF74AFFA8
:104D6000A4E79DF924300293CDF804A09DF91C30EE
:104D700000939DF81830059A494619480068FFF7D6
:104D80006CF8DEE710F1050F13D010F1040F16D107
:104D900018493846FDF72EFF88E7069A1649384627
:104DA000FDF728FF82E7079A14493846FDF722FFEE
:104DB0007CE7059A12493846FDF71CFF76E7012883
:104DC00006DD104B024610493846FDF713FF6DE72C
:104DD0000E4BF7E754900008840A0020A148000811
:104DE000800A002030900008689000087C9000083D
:104DF00094900008F8900008A8900008BC90000863
:104E0000D09000082C90000814910008EC8E000847
:104E100010B50D4B1B7893B1044672B60B4B186856
:104E2000FFF724F90A492046FDF7E4FEFEF731F8C2
:104E3000024662B607492046FDF7DCFE10BD064972
:104E4000FDF7D8FEFAE700BF49070020800A0020DE
:104E500040910008509100086C91000810B504467C
:104E600072B6FEF771F862B638B93920FCF796FAD7
:104E700004492046FDF7BEFE10BD03492046FDF75C
:104E8000B9FEF9E7B0910008C491000808B502F036
:104E900087FC2DE9F843054688461746002604E0BE
:104EA00023782C2B16D1BE4214D22C212846FDF794
:104EB000EBFB044690F80090002303702846FDF7B2
:104EC00049F8254605F8019B3A28E9D008F806007C
:104ED0000136E5E73046BDE8F88300002DE9F041F2
:104EE00084B006460846FDF71BFC0446FDF7FFFBB1
:104EF000804620212046FDF7C7FB03784BB10A22EC
:104F000001A90130FFF7C5FF07463046FDF796F8C7
:104F100020E018493046FDF76DFE04B0BDE8F08191
:104F200004F110036B4413F80C0CFCF7CDFF03469F
:104F30002A4611493046FDF75DFE01340F4DBC4253
:104F4000EEDB0F493046FDF755FEB8F1FF3F01D0CB
:104F500008F1FF383046FDF76BF80028DDD18045B9
:104F600002DD084D0024EAE7B8F1FF3FD5D1054D39
:104F70000024E4E7DC910008FC910008048E00089E
:104F8000AC910008EC8E000808B5042856D019DC56
:104F900002282FD003283FD0012811D1394B3A4A9B
:104FA0001A603A4B3A4A1A603A4B3B4A1A6011204F
:104FB0003A4B1860FCF78EFF394B1860012008BD92
:104FC0000020FCE705284BD0062811D12D4B354A8F
:104FD0001A602E4B344A1A602E4B344A1A6016203F
:104FE0002E4B1860FCF776FF2D4B18600120E6E78A
:104FF0000020E4E7234B2E4A1A60244B2D4A1A6006
:10500000244B2D4A1A601220244B1860FCF762FFD3
:10501000234B18600120D2E71A4B284A1A601B4B19
:10502000274A1A601B4B274A1A6013201B4B186033
:10503000FCF750FF1A4B18600120C0E7114B224AC1
:105040001A60124B214A1A60124B214A1A6014202E
:10505000124B1860FCF73EFF114B18600120AEE7C1
:10506000084B1C4A1A60094B1B4A1A60094B1B4A21
:105070001A601520094B1860FCF72CFF084B1860CC
:1050800001209CE7900A00200C0800208C0A0020D8
:10509000FC070020880A002004080020B40A002031
:1050A000B80A002024080020140800201C08002052
:1050B000BC080020AC080020B4080020D408002060
:1050C0006C080020740800206408002044080020B8
:1050D0004C0800203C0800202C0800203408002048
:1050E00070B500240FE0174B1B689988186801F011
:1050F00016FE154B1B689988186801F00EFE134BBD
:1051000000221A702C46042C1BDC651C2846FFF775
:105110003BFFB0B10E4B53F82430002BE3DD094EBA
:1051200033689988186801F000FE3068FCF7C6F80B
:105130000028E7D0064A52F82430013B42F82430D8
:10514000E0E770BD880A00208C0A0020980A002041
:105150009C0A00202DE9F04104460D46FFF714FF9C
:1051600048B1274B1B7833B9631E1A461E46254BA0
:1051700053F822300BB1BDE8F081234B1878FCF7CF
:10518000A9FE0746C4B2FF220021284600F022FCF7
:105190008046C3B21D469C4219D3AC42EBD91B4B8F
:1051A0001B689988186801F0BAFD194B1B6899882B
:1051B000186801F0B4FD5FFA88F1FBB25B1A114A7E
:1051C00042F82630104B1878FCF7A6FED3E70F4BB9
:1051D0001B689988186801F0A2FD0D4B1B6899881F
:1051E000186801F09AFD5FFA88F1FBB2CB1A054A04
:1051F00042F82630044B1878FCF78EFECDE700BF4E
:10520000980A00209C0A0020B40A00208C0A002082
:10521000900A0020F8B5134B01221A700024042CC8
:105220001EDC651C2846FFF7AFFEC8B10E4F0026F6
:1052300047F824600D4B1B689988186801F06FFDD2
:105240000B4B1B689988186801F069FDFF2347F82C
:1052500024303146074B1878FCF75EFE2C46DEE71B
:10526000F8BD00BF980A00209C0A00208C0A00208C
:10527000900A0020B40A002008B5054B99881868E8
:1052800001F04DFD00211720FCF746FE08BD00BFD0
:10529000DC07002008B5054B9988186801F03DFD32
:1052A00001211720FCF738FE08BD00BFDC070020F5
:1052B00010B5044601460C20FCF72EFE0B20FCF72F
:1052C00009FE134B1860A04204D005DB104B1B688D
:1052D000A3420FDC002010BD0E4B01221A700E4BB2
:1052E0009988186801F019FD0C4B9988186801F02D
:1052F00016FDEBE7074B00221A70074B99881868D8
:1053000001F00DFD054B9988186801F006FDE1E7F5
:10531000940A00204A0700205C080020540800205E
:1053200010B50446017843781B0203F4E063194387
:1053300001EB810149002E20FCF7EEFD6378A07897
:10534000400140EAD300C0F3090002F0A7FB0EA31E
:10535000D3E9002302F00CFC02F01CFE01463020D1
:10536000FCF7E8FDA378E178890041EA93112379FD
:105370009B0203F48063194301EB81014900322051
:10538000FCF7CAFD10BD00BF9A9999999999B93F48
:1053900010B50446C078A37843EA002002F07EFBF3
:1053A00009A3D3E9002302F0E3FB02F0F3FD014679
:1053B0003020FCF7BFFD217928393120FCF7ACFD06
:1053C00010BD00BFAFF300809A9999999999B93FA0
:1053D00030B583B005460A20FCF77CFD04462F203B
:1053E000FCF778FD8DF8000003128DF801308DF880
:1053F000024024128DF8034000238DF804309842B7
:1054000011DD01238DF8053000238DF806308DF86D
:1054100007302B685C6808236A4640F281212846E1
:10542000A04703B030BD0023ECE708B5642200219B
:1054300000F0D0FA00EB800041002F20FCF76CFD5B
:1054400008BD08B53020FCF745FD08BD10B5044681
:1054500001462A20FCF760FD50220021204600F082
:10546000B9FA4CF2503300220249C0B200F0BCFA43
:1054700010BD00BF0008004010B5044601462C20B6
:10548000FCF74AFD50220021204600F0A3FA4CF21E
:10549000503302220249C0B200F0A6FA10BD00BF8C
:1054A0000008004008B5074B1B6843B1054B18685E
:1054B00002F076FE0146044802F07EFF08BD00209F
:1054C000FCE700BF80070020C0E1E44B08B5074BB4
:1054D0001B6843B1054B186802F062FE01460448A0
:1054E00002F06AFF08BD0020FCE700BF7C07002037
:1054F000C0E1E44B38B50024304D22462B463048FD
:1055000000F024FC22462B462E4800F01FFC2246C9
:105510002B462D4800F01AFC22462B462B4800F063
:1055200015FC22462B462A4800F010FC22462B464A
:10553000284800F00BFC22462B46274800F006FCCA
:1055400022462B46254800F001FC22462B462448E3
:1055500000F0FCFB22462B46224800F0F7FB2246D7
:105560002B46214800F0F2FB22462B461F4800F054
:10557000EDFB22462B461E4800F0E8FB22462B4658
:105580001C4800F0E3FB22462B461B4800F0DEFBE4
:1055900022462B46194800F0D9FB22462B461848D4
:1055A00000F0D4FB22462B46164800F0CFFB2246E3
:1055B0002B46154800F0CAFB38BD00BF0000E03F95
:1055C000780C0020600C0020480C0020300C0020DB
:1055D000180C0020000C0020E80B0020D00B00204D
:1055E000B80B0020A00B0020880B0020700B0020BF
:1055F000580B0020400B0020280B0020100B00202F
:10560000F80A0020E00A0020C80A00202DE9F04F27
:1056100083B0B948FDF7D0FB02F0C2FD0646B7489B
:10562000FDF7CAFB02F0BCFD8246B548FDF7C4FB9E
:1056300002F0B6FD05464FF000084FF08B47DFF84B
:10564000C492B14C2368009343463A4649463046DB
:1056500000F0A4F98346AD4E3368009343463A46C2
:10566000AB49504600F09AF98246236800934346BE
:105670003A464946284600F091F98046206802F0F3
:10568000ADFF0546584602F0A9FF2A46002100F06A
:10569000A1F902F089FD0746306802F09FFF054638
:1056A000504602F09BFF2A46002100F093F902F0D9
:1056B0007BFD0546206802F091FF0446404602F05B
:1056C0008DFF2246002100F085F902F06DFD0446B1
:1056D000384602F0F5F902460B468E4800F047FBCB
:1056E00002F058FC01461820FCF724FC284602F082
:1056F000E7F902460B46884800F039FB02F04AFC05
:1057000001461920FCF716FC204602F0D9F90246A2
:105710000B46824800F02BFB02F03CFC01461A20AD
:10572000FCF708FC7E48FDF747FB042100F09CFADB
:1057300002F0C6F902460B467A4800F018FB044610
:105740000D46794B186802F0BBF902460B4620461D
:10575000294602F055F802F01DFC01461B20FCF71B
:10576000E9FB7248FDF728FB042100F07DFA02F006
:10577000A7F902460B466E4800F0F9FA04460D46BA
:105780006C4B186802F09CF902460B4620462946ED
:1057900002F036F802F0FEFB01461C20FCF7CAFBC3
:1057A0006548FDF709FB042100F05EFA02F088F974
:1057B00002460B46614800F0DAFA04460D46604B9B
:1057C000186802F07DF902460B462046294602F091
:1057D00017F802F0DFFB01461D20FCF7ABFB594830
:1057E000FDF7EAFA042100F03FFA02F069F90246F7
:1057F0000B46554800F0BBFA04460D46534B18685B
:1058000002F05EF902460B462046294601F0F8FFF9
:1058100002F0C0FB01461E20FCF78CFB4C48FDF754
:10582000CBFA042100F020FA02F04AF902460B46B6
:10583000484800F09CFA04460D46474B186802F0B1
:105840003FF902460B462046294601F0D9FF02F0F7
:10585000A1FB01461F20FCF76DFB4048FDF7ACFAA9
:10586000042100F001FA02F02BF902460B463C48F5
:1058700000F07DFA02F08EFB01462120FCF75AFB76
:105880003848FDF799FA042100F0EEF902F018F912
:1058900002460B46344800F06AFA02F07BFB0146F0
:1058A0002020FCF747FB3148FDF786FA042100F081
:1058B000DBF902F005F902460B462D4800F057FAD5
:1058C00002F068FB01462220FCF734FB2948FDF773
:1058D00073FA042100F0C8F902F0F2F802460B4610
:1058E000254800F044FA02F055FB01462320FCF75E
:1058F00021FB03B0BDE8F08FF0080020180900205C
:105900001409002000801344580700205C07002081
:105910000000B943780C0020600C0020480C0020E7
:10592000FC080020300C002054070020F80800205C
:10593000180C002050070020F4080020000C002064
:105940004C07002000090020E80B0020C00A0020BE
:10595000E8080020D00B0020BC0A0020100900201D
:10596000400B00200C090020280B00200809002013
:10597000E00A002004090020C80A002008B5FFF74B
:10598000B9FD08BDA0EB010C0098C01A00FB0CFC8F
:10599000521A9CFBF2FC0CEB03007047F8B50F4663
:1059A00016461C4602F04AFB05462146069802F0C0
:1059B00045FB0146284602F04BFC05463946304679
:1059C00002F03CFB0146284602F0F6FC214602F0BC
:1059D00037FBF8BD904202DC884202DB704710467C
:1059E000704708467047000038B58446084611469F
:1059F0001A46BCF1640F01D94FF0640C541CACFB87
:105A000004C4CCF3130E4FEA1C5343EA0433C3F32C
:105A100013039E44C4F313239E440EEB147E114BD8
:105A2000A3FB0E53DB0803EB830303EB8303AEEB13
:105A3000030EBCEB0E0C64F10004DFF82CE00B4B02
:105A400003FB0CF30EFB0433ACFB0ECE73444FEAA6
:105A50009C0C4CEA837C624500D3624601F053FD06
:105A600038BD00BF1F85EB51295C8FC2F5285C8FC4
:105A70007047000010B504460220FCF72BFA0128FD
:105A800000D010BD207802F08BFB1C4902F0D6FA42
:105A900001462220FCF74EFA0320FCF77FFAC1688A
:105AA0000269521149116078FFF794FF02F07CFB04
:105AB00001460320FCF73EFA0820FCF76FFAC168A4
:105AC000026952114911E078FFF784FF02F06CFB84
:105AD00001460820FCF72EFA0920FCF75FFAC1689E
:105AE0000269521149116079FFF774FF02F05CFB03
:105AF00001460920FCF71EFAC3E700BF0000204260
:105B0000F0B585B004462E20FCF7E4F907461B20CB
:105B1000FCF7E0F9FF2200212830FFF75BFF8DF84A
:105B200008001C20FCF7D6F9FF2200212830FFF7DF
:105B300051FF8DF809001D20FCF7CCF9FF22002150
:105B40002830FFF747FF8DF80A001820FCF7C2F94C
:105B5000FF22002100EB8000FFF73CFF8DF80B00D7
:105B60001920FCF7B7F9FF22002100EB8000FFF7B6
:105B700031FF8DF80C001A20FCF7ACF9FF22002150
:105B800000EB8000FFF726FF8DF80D002920FCF7C1
:105B9000A1F900EB8000FF2200214000FFF71AFF6F
:105BA0008DF80E002B20FCF795F900EB8000FF220A
:105BB00000214000FFF70EFF8DF80F0002AD2368B3
:105BC0005E6808232A4640F232712046B0471E2004
:105BD000FCF780F9FF2200212830FFF7FBFE8DF84B
:105BE00008001F20FCF776F9FF2200212830FFF77C
:105BF000F1FE8DF809002420FCF76CF9FF2200214A
:105C0000FFF7E8FE8DF80A0028238DF80B303320CB
:105C1000FCF760F9FF2200212830FFF7DBFE8DF84A
:105C20000C000B20FCF756F9FF220021FFF7D2FEF3
:105C30008DF80E00FA23009314234FF4FA524FF418
:105C400048713846FFF79EFEFF220021FFF7C2FE93
:105C50008DF80F0023685E6808232A4640F23371EE
:105C60002046B04705B0F0BD05296AD82DE9F047B8
:105C70000C46002398461D4639E087424ADB4DE03A
:105C8000012E27D0C01B02F08FFA8146012E26D0AC
:105C90004346D81B02F088FA8246670004EB4403AF
:105CA000DFF8A48008EB83031E79304602F07CFA0B
:105CB000494602F0CDFA514602F07EFB8146274468
:105CC00038F9270005FB060002F06EFA494602F09B
:105CD000B5F934E0381A02F067FA8146D6E7434650
:105CE000F81A02F061FA8246D7E70135B84604EBAC
:105CF0004402154B03EB82035B79AB4218D904EBEA
:105D00004402114B03EB82039A6832F815709E79B6
:105D1000012EB2D0002EE8D18742E6DC002DAFD1B3
:105D200004EB4404084B33F9240002F03DFA06E08A
:105D3000054B03EB8203B3F9020002F035FABDE82C
:105D4000F0870020704700BFD89300084DF804BDCD
:105D500093469C4600220023C0E90023C0E90223A9
:105D600000230374C0E902BC5DF804BB70472DE951
:105D7000F041044610461946237CCBB1D4E90278A1
:105D8000D4E900562A46334601F03AFD02460B4656
:105D90003846414601F0ECFE02460B4628463146A5
:105DA00001F030FDC4E90001D4E90001BDE8F08153
:105DB000C4E9000101232374F6E770B516461C46BA
:105DC0005A2B02D84F2C1AD970BD0920FCF782F843
:105DD00005461C20FCF77EF8281A02F0E5F94FF082
:105DE000804102F0F1FB0028ECD03378053BDAB2B9
:105DF00013F0800F01D03270E6E78022FBE7042029
:105E0000FCF768F804462220FCF764F8201A02F038
:105E1000CBF94FF0804102F0D7FB0028D4D0337883
:105E200005333370D0E770B50E4614465A2A02D8AF
:105E30004F2C14D970BD1B20FCF74CF805460820E8
:105E4000FCF748F8281A02F0AFF94FF0804102F051
:105E5000BBFB0028ECD03378053B3370EAE7222007
:105E6000FCF738F804460520FCF734F8201A02F055
:105E70009BF94FF0804102F0A7FB0028DAD033787D
:105E800005333370D6E770B5044600260660C0F8C7
:105E900003602620FCF734F820702720FCF730F848
:105EA00060702520FCF72CF8A0702220FCF712F877
:105EB00005460420FCF70EF8A842D4BF00200120BC
:105EC000E0700520FCF706F8A842ACBF00200120D6
:105ED00020712320FBF7FEFF05460720FBF7FAFFA2
:105EE000A842ACBF002301236371A671A378CBB194
:105EF0000122237903B102231A43A84214DA0423AE
:105F00001343227802B108221A43637803B11023A5
:105F10001343E27852B1202119431020FBF7FCFF14
:105F2000204670BD1A46E4E70023E9E71146F3E78F
:105F30002DE9F04180460C4615462020FBF7CAFFAC
:105F400002F032F906462220FBF7C4FF02F02CF9DA
:105F500007461C20FBF7BEFF02F026F998F8032045
:105F600082F00102012323602271A7600021E16019
:105F7000237466610222A2612377206298F80420CC
:105F80005A402B602A71AF60E9602B746E61BDE8E6
:105F9000F08100002DE9F04782460D460024174BA2
:105FA0009946264600E00134022C15DC04EB44033C
:105FB0009F0005EB83031A79002AF4D099685046B4
:105FC00002F03CF880460146484602F0FDFA0028FF
:105FD000E9D0EE59C146E6E72020FBF77BFF02F04F
:105FE000E3F8074902F0D2FA30B931460F20FBF747
:105FF00093FF3046BDE8F0870226F6E7FFFF7F7F7C
:106000000000A0C12DE9F04782460D4600246FF440
:1060100000039946264600E00134012C15DC04EB10
:1060200044039F0005EB83031A79002AF4D0996892
:10603000504602F003F880460146484602F0A6FAB0
:106040000028E9D0EE59C146E6E731460E20FBF7BD
:1060500063FF3046BDE8F0872DE9F04107468846EA
:106060001920FBF737FF02F09FF804461A20FBF7D0
:1060700031FF02F099F80546FFF7E3F90646564965
:10608000204602F0A1FA002866D14FF07E51284642
:1060900002F07CFA002871D14146384601F0CEFF6B
:1060A00005464E4B196802F0D3F84D4C216801F0BB
:1060B000C7FF064620604B4B1968284602F0C8F817
:1060C000002102F063FA00286AD1464B1D60444B60
:1060D0001B681E464449184602F0BAF8294601F0EA
:1060E000AFFF0446414902F051FA00B93F4C00218C
:1060F000204602F069FA00B900243C49204602F02B
:1061000059FA78B12946394801F098FF364902F02A
:1061100053F901460746304602F056FA002846D1A8
:106120002F4B1E600021204602F03AFA002840D191
:10613000204602F079FAC0B2FFF777F92C492046E1
:1061400002F086F802F070FAFF220521C0B2FFF7D4
:1061500041FCC0B2BDE8F081F0B2441E002C00DC6E
:106160000024E0B2FFF761F9204602F01DF8204953
:1061700002F06EF802F058FAC0B2EBE7F0B2441E3B
:10618000002C00DC0024E0B2FFF74FF9204602F0BB
:106190000BF8174902F05CF802F046FAC0B2D9E7F2
:1061A0004FF07C51304602F053F820608DE73E46B8
:1061B000B6E705F100400C4902F0FEF80646084B30
:1061C0001B681D46194602F0FFF910B9044B1D600B
:1061D000AEE73546FAE700BF0000F0416007002057
:1061E000940C0020900C0020CDCCCC3D0000C84287
:1061F0003333234070B594B012AC2046FFF743FE12
:1062000003AA09A92046FFF793FE2020FBF762FEB0
:1062100001F0CAFF02F0E2F904464623009332235C
:106220000A226FF01301FFF7ADFB0546452800DD9C
:106230004625322D00DC32250A2300930523322225
:106240001E212046FFF79EFB0446092800DD0A2494
:10625000052C00DC0524284601F0A6FF09A9FFF75C
:1062600099FE0546204601F09FFF03A9FFF7CAFEED
:1062700006462F20FBF72EFE50221E21FFF7AAFB19
:10628000C4B22046FFF7F8F82046FFF7DFF89DF884
:106290004C3013B19DF84D2052BB9DF84A2002B1FD
:1062A00036B39DF8481011B99DF8490008B1012D89
:1062B0001ED029B99DF8490010B99DF84B0008B1CE
:1062C000002D7BD00AB1012E78D029B99DF8491054
:1062D00011B99DF84B1009B1022D73D002B953B119
:1062E0009DF84B303BB936B90520FEF7E1FF02E0DF
:1062F0000220FEF7DDFF9DF8483053B99DF8493084
:106300003BB99DF84B30002B62D09DF84A30002BF2
:106310005ED101210D20FBF7FFFD0920FBF7DAFD1F
:1063200001F042FF04461C20FBF7D4FD01F03CFFC6
:1063300001462046FFF790FE0446FFF782F8C3B2FD
:106340009DF8482002B1FF228DF809209DF84920D0
:1063500002B1FF228DF80A209DF84B2002B1FF22E6
:106360008DF80B200DF10B020DF10A010DF1090062
:10637000FFF723FDFEF78EFF9DF80B100220FEF7BE
:10638000E9FE9DF80A100320FEF7E4FE9DF80910CF
:106390000420FEF7DFFE022D18D021460520FEF76F
:1063A000D9FE00210620FEF7D5FE022D00D00024E4
:1063B00021460120FEF7CEFE14B070BD0320FEF78B
:1063C00077FF98E70420FEF773FF94E70021E5E7E5
:1063D0009DF84A3033B99DF84C301BB99DF84D30CB
:1063E000002B48D002210D20FBF796FD0820FBF77B
:1063F00071FD01F0D9FE04461B20FBF76BFD01F097
:10640000D3FE01462046FFF727FE0446FFF719F8A2
:10641000C2B29DF84A3003B123468DF80A309DF888
:106420004C301BB99DF84D3003B91C468DF80B401C
:106430000DF10B010DF10A00FFF7F5FCFEF71CFF53
:1064400000210220FEF786FE00210320FEF782FED7
:1064500000210420FEF77EFE9DF80B100520FEF7BC
:1064600079FE9DF80A100620FEF774FE0021012037
:10647000FEF770FEA0E719460D20FBF74DFDFEF775
:10648000FBFEFF210220FEF765FEFF210320FEF741
:1064900061FEFF210420FEF75DFEFF210520FEF7CF
:1064A00059FEFF210620FEF755FEFF210120FEF7D1
:1064B00051FE0020FEF7B9FF7EE78368DB075EBF71
:1064C000836843F00103836070470000034AD2F8F9
:1064D000083443F40003C2F8083470470020014038
:1064E000836823F460230B438360836843F4801341
:1064F00083607047836800F1080243F008038360FB
:1065000013681B07FCD47047836843F0040383605F
:1065100070478068C0F38000704708B50246FFF7F7
:10652000F3FF1046FFF7F5FF0028FAD108BD00225F
:10653000134610B501FA02F403321E2A43EA04039B
:10654000F8D10022036101FA02F40332182A43EA67
:106550000403F8D1C36010BD836823F00103836096
:106560007047436843F4807343607047836823F443
:10657000006383607047836843F002038360704761
:106580001029F0B510D800234FF0010E1F469C468D
:106590001D465FFA8EF6B14207D2013945EA015530
:1065A000C562C0F830C04763F0BDBEF1060F147875
:1065B00006D89C4027430EF1010E01320533E8E76F
:1065C000073E052E95BFA3F11E06A3F13C06B4407D
:1065D000B44094BF4CEA040C2543ECE7836800F117
:1065E000080243F48003836013685B02FCD47047A5
:1065F000836843F48073836070470000044B9842C3
:106600000CBF40F2192040F21A2000F050BD00BF2C
:10661000006400402DE9F34104689DF8208024F0D7
:106620000204046004689DF824E044F0010404605E
:106630004FF6FF749DF828C09DF83C609DF84070AF
:106640000194019C051D013C019414B14468E407C8
:10665000F7D54468E40770D50024C461002951D0FF
:10666000016841F080010160002A4FD0026842F0C9
:1066700040020260002B4DD0036843F0200303600A
:106680000368B8F1000F49D043F0100303600368BA
:10669000BEF1000F45D043F0080303600368BCF16E
:1066A000000F41D043F004030360C369002F3ED0C4
:1066B00043F00043C361C369002E3BD043F08043E5
:1066C000C3610E9B0D99013BC3F309030B430C9966
:1066D000C2690B430B990B431343C361036823F057
:1066E000010303604FF6FF730193019B013B01938C
:1066F00013B12B68DB07F8D4406800F0010002B04A
:10670000BDE8F081016821F08001ACE7026822F069
:106710004002AEE7036823F02003B0E723F0100344
:10672000B4E723F00803B8E723F00403BCE723F041
:106730000043BFE723F08043C2E70120DFE700000A
:10674000F0B50125234C9DF81C70D4F800668540F7
:1067500046F00106C4F80066D4F81C6626EA050671
:10676000C4F81C6639B3D4F80C162943C4F80C16C7
:1067700032B3D4F804262A4300F1006000F6C84082
:10678000C4F80426C0000360069A059B4360114BC1
:10679000DAB1D3F814262A43C3F8142627B1D3F864
:1067A0001C262A43C3F81C26D3F8002622F0010237
:1067B000C3F80026F0BDD4F80C1621EA0501D5E790
:1067C000D4F8042622EA0502D6E7D3F8142622EAF2
:1067D0000502E1E70060004030B4BDF808409DF8D4
:1067E000105043EA0443029341EA02430022049515
:1067F000114630BCFFF7A4BF30B4BDF808409DF887
:10680000105044EA0344049542EA014302940122F1
:1068100030BC0021FFF794BF1FB5009201229DF804
:106820001840CDE901340B461146FFF789FF04B04B
:1068300010BD43690B4343617047436923EA010379
:10684000436170472DE9F041064680689DF8188045
:106850004701079D26D4B068040127D4B068C00062
:1068600050D54FF4D0770220BC191AB3C90041F0BB
:106870000401B9511BB1236843F00203236063682C
:1068800023F00F036360626808F00F031343636033
:1068900008F1FF33072B2BD8DFE803F02724211C56
:1068A0001916130E4FF4C0770020DDE74FF4C877B8
:1068B0000120D9E74905DCE74FF0000CEB7963F3E1
:1068C0001F6CAB7963F3174C6B7963F30F2C2B7947
:1068D00063F3070C4FF0000EEB7863F31F6EAB7899
:1068E00063F3174E6B7863F30F2E2B7863F3070E69
:1068F000C4F808E0C4F80CC0236843F00103236027
:10690000BDE8F0814FF0FF30FAE721B9C36843F0EA
:106910002003C3607047036943F02003036170479D
:1069200019B9C06800F0030070470069FAE72DE963
:10693000F341DDF820800446DDE90C57FFF7F0FF56
:106940004FF4D87C06464FF4E070CDE900C002A8B1
:1069500000EB810050F808EC54F80E0004EB0E0C2C
:1069600010F0040015BF012088F8000088F800002E
:1069700054F80E0016BF54F80E00400DC008186001
:1069800054F80E00099BC0F340001870DCF80400B6
:106990000A9B000A1870DCF804000B9B00F00F0043
:1069A00018701FB1DCF804301B0C3B80DCF80800C9
:1069B000DCF80C30C0F3072728706F70C0F307476E
:1069C000C0F30760E870C3F307202B716871C3F34D
:1069D0000740C3F30763AF70A871EB7112B1204693
:1069E000FFF793FF304602B0BDE8F081024A93689A
:1069F00043F001039360704700300240014B186080
:106A00001868704700300240002310B5044A8B42DA
:106A100001DB106810BD50F8234001331460F6E725
:106A200000300240014BB3F8E007704700F0FF1F51
:106A300014230022013903FB01039A60DA601A6112
:106A40005A610F23426889008B40134343607047AB
:106A5000013989008A404260704701390368890022
:106A60008A401A4214BF01200020704714230139C4
:106A7000594308300B5823F440630B500B58134311
:106A80000B50704714230139594308300B5823F435
:106A900040730B500B5813430B50704714230139AC
:106AA000594308300B5843F080030B5070471423B0
:106AB0000139594308300B5843F020030B500B5851
:106AC00023F480430B507047142301395943083095
:106AD0000B5843F010030B507047142301395943EE
