:020000040800F2
:1010000000500020C5810008C1810008BF81000890
:10101000BF810008BF810008BF81000800000000F8
:10102000000000000000000000000000C181000876
:10103000C181000800000000C1810008C1810008D2
:10104000BF810008BF810008BF810008BF81000880
:10105000BF810008BF810008BF810008BF81000870
:10106000BF810008BF810008BF810008BF81000860
:10107000BF810008BF810008BF810008BF81000850
:10108000BF810008BF810008BF81000855360008F5
:101090003536000845360008BF81000841140008B5
:1010A000BF810008BF810008BF810008BF81000820
:1010B000BF8100083114000879140008BF810008BE
:1010C000BF810008BF810008BF810008BF81000800
:1010D000BF810008BF810008BF810008BF810008F0
:1010E000BF810008BF810008BF810008BF810008E0
:1010F000BF810008BF810008BF810008BF810008D0
:10110000BF810008BF810008BF810008BF810008BF
:10111000BF810008BF810008BF810008BF810008AF
:10112000BF810008BF810008BF810008BF8100089F
:10113000BF810008BF810008BF8100088336000816
:101140006336000873360008BF810008BF810008BD
:1011500008B58446084611461A46DCF8043098471C
:1011600008BD08B58368984708BD00B54FF0000C6E
:10117000E64604E000BF1CF1010C4EF1000E4B01ED
:1011800043EAD0634201121A63EB01039B0043EA76
:1011900092739200121841EB03031B0143EA12738E
:1011A000120194457EEB0303E4DB00BD10B506F0AD
:1011B0003BFB1D4B186800F074FE07F06BFD1B49EC
:1011C00007F070FE0146412000F0E2FE184801F0F1
:1011D00023FE07F05BFD174907F064FE014640203F
:1011E00000F0D6FE06F04EFD01F00CFF124C206818
:1011F00005F09CF9206804F011FC04F035FE05F0C0
:10120000C3FC0E4B186802F0D9FA0D4B1B782BB9B2
:101210000B4A137883F00103137010BD094B9988B2
:10122000186806F0F8FAF3E71809002000002041DA
:101230006C0A002000004B43140900201009002014
:10124000F8080020040A002008B5024B186804F0D2
:1012500011FC08BD1409002008B503F071FF08BD9A
:1012600008B5034640F22132904223D008460BD9FC
:1012700040F2455293421DD025D840F26632934247
:101280001CD104F075FB23E040F2C722934221D029
:10129000B3F5327F0AD240F2212293420AD040F2C3
:1012A000A722934214D104F0F9FA11E040F2D122BE
:1012B00093420DD1184604F09BFB09E040F2A132A5
:1012C000934205D1F6E7B3F5DC6F01D105F0F4F8F0
:1012D000002008BD04F062FBFAE7000010B51C4CCA
:1012E00000224FF4DC61206802F0F9F9002240F29C
:1012F000A721206802F0F3F9002240F2C7212068FC
:1013000002F0EDF9002240F26631206802F0E7F9C0
:10131000002240F22121206802F0E1F9002240F28F
:10132000D121206802F0DBF9002240F2213120684F
:1013300002F0D5F9002240F2A131206802F0CFF985
:10134000002240F24551206802F0C9F910BD00BFEB
:101350001409002010B504468188006806F058FA88
:10136000003818BF0120A379181A18BF012010BD3A
:1013700008B5214B1B6833B106F084FC1E4B1B687B
:10138000C01AC7281BD91D48FFF7E4FF01462620D5
:1013900000F0F0FD1A48FFF7DDFF0146272000F0BE
:1013A000E9FD1848FFF7D6FF0146252000F0E2FDD1
:1013B0001548FFF7CFFF0146282000F0DBFD04F0C1
:1013C0009FFB07F081FE0146292000F0D3FD04F0C9
:1013D000ABFB07F079FE01462B2000F0CBFD04F0BB
:1013E000B7FB03F0ADFF04F079F801460A2000F0E6
:1013F000C1FD04F0C5FC08BD640E00206C0900208E
:101400007C090020740900204C0A0020FEE700003F
:1014100000B1704710B5054B1B681C4600F088FDF5
:10142000C1B2204602F070FF10BD00BF0C090020C1
:1014300008B5024B186800F0FBFC08BD1809002035
:1014400008B54FF4807006F0A5F850B1084B1B7832
:1014500043B1084A1368013313604FF4807006F0FB
:1014600093F808BD034A1368013B1360F5E700BF1A
:10147000CA0800200409002008B50821214806F008
:1014800063FC28B910211F4806F05EFCE8B908BDCE
:1014900002211C4806F0C3FD1B4B1B683BB1834275
:1014A0000CD8C31A194A1360194B01221A70164B33
:1014B00018600821134806F04DFCE3E7C31A03F552
:1014C00043435033114A1360EEE703210D4806F001
:1014D000A6FD104B1B683BB183420CD8C31A0E4AC1
:1014E00013600E4B01221A700A4B18601021054838
:1014F00006F030FCCBE7C31A03F543435033064AEA
:101500001360EEE700080040F40800200009002006
:10151000FA080020F0080020FC080020F90800204C
:10152000F0B5ADF61C0D00F05DFA00F021FBD24ED7
:1015300000223146D14801F0B3FC01223146D048A7
:1015400001F0AEFC02223146CE4801F0A9FC032294
:101550003146CD4801F0A4FC04223146CB4801F0CD
:101560009FFC05223146CA4801F09AFCC94D002271
:101570002946C94801F094FCC84C00222146C848BD
:1015800001F08EFC01222146C64801F089FC0222AE
:101590002146C54801F084FC03222146C34801F0DE
:1015A0007FFC04222146C24801F07AFC0522214634
:1015B000C04801F075FC04234FF480723146BE48E8
:1015C00001F01BF907234FF400423146BB4801F0FC
:1015D00014F9002304222946B94801F00EF9072323
:1015E00008222946B74801F008F9072310222946A6
:1015F000B54801F002F9072320222946B34801F03B
:10160000FCF8092340222946B14801F0F6F80923E5
:1016100080222946AF4801F0F0F804234FF480728D
:101620002946AD4801F0E9F804234FF40072294639
:10163000AA4801F0E2F809234FF400622946A848BD
:1016400001F0DBF807234FF480422946A54801F05A
:10165000D4F807234FF480622146A34801F0CDF867
:1016600007234FF400622146A04801F0C6F8072383
:101670004FF4805221469E4801F0BFF807234FF4F3
:10168000005221469B4801F0B8F807234FF48042EE
:101690002146994801F0B1F804F58064072301223E
:1016A0002146964801F0A9F80723022221469448D2
:1016B00001F0A3F8072304222146924801F09DF887
:1016C000072308222146904801F097F807231022AB
:1016D00021468E4801F091F80723202221468C48AC
:1016E00001F08BF80723402221468A4801F085F853
:1016F000072380222146884801F07FF804F58064A2
:10170000072304222146854801F077F807230822A1
:101710002146834801F071F80723102221468148B1
:1017200001F06BF800234FF4807221467E4801F0EF
:1017300064F800234FF4007221467C4801F05DF804
:1017400000234FF480622146794801F056F80723C0
:101750004FF400622146774801F04FF801F0D4FAC7
:1017600000F0DAFA00F094F900F0DAF901F01CFC6C
:1017700000F008FA0DF2EC540126019600960023C1
:101780006D4A6E49204600F0A9FC6D4B1C600DF5BA
:10179000BC656C4BCDF8E0356B4BCDF8E0356B4B51
:1017A000CDF8E4356A4BCDF8E835E1AC00230222F0
:1017B0006849204601F084FE674B1C60294620469C
:1017C00001F07EFFFFF78AFD32AD32462146284602
:1017D00002F00EFD614F3D60614B1D600FAE2A4669
:1017E0002146304602F05EFD5E4B1E60002000F098
:1017F0009FFBC1B2304602F087FD3A685A4B1A602F
:101800005A4D05AC2946204600F0B8FA584B1968E5
:10181000C1F35911574BA3FB0131890901392846FE
:1018200006F0B9FA544B1C6003225449204600F0DC
:10183000C9FA14225249204600F0C4FA64225149E0
:10184000204600F0BFFAC8224F49204600F0BAFAFD
:1018500000213E2000F08EFB4220FFF7D9FD0A2038
:101860000021FFF782FC03F005FD64200021FFF753
:101870007CFC03F039FE9DE000080140980A00203E
:10188000940A0020900A00208C0A0020880A002078
:10189000840A0020000C0140800A00200010014052
:1018A0007C0A0020780A0020740A0020700A0020B8
:1018B0006C0A0020680A00205C0A0020540A0020FC
:1018C0004C0A0020440A00203C0A0020340A002070
:1018D0002C0A0020240A00201C0A0020140A0020E0
:1018E0000C0A0020040A0020FC090020F409002052
:1018F000EC090020E4090020DC090020D4090020C4
:10190000CC090020C4090020BC090020B409002033
:10191000AC090020A40900209C09002094090020A3
:101920008C090020840900207C0900207409002013
:101930006C090020640900203CA000080038014028
:1019400008090020649100087491000861120008E1
:10195000DD12000800640040140900201009002076
:10196000080C00200C090020040C0020000400409A
:10197000EC080020632D3E051809002059120008CC
:101980007113000849120008AD1100081C4619E047
:1019900004300DF10B0103F0A9F85CB103AB94E83E
:1019A000030083E80300204602F026FF21460FA82B
:1019B00002F0D3FC00228DF80B209DF8C430002BE0
:1019C000E4D02FAC054B186800F072FD044B18688A
:1019D0004369002BE1D10028DAD1DAE708090020B9
:1019E0000C09002008B5274806F06CF84FF0E023FA
:1019F000254AC3F80C2D40F2023006F0C1F840F23F
:101A0000033006F0BDF84FF4417006F0B9F840F22B
:101A1000053006F0B5F840F2063006F0B1F840F2B5
:101A20000E3006F0ADF840F20B3006F0A9F84FF496
:101A3000607006F0A5F840F2813006F0A1F840F29F
:101A4000823006F09DF84FF4207006F099F840F2CD
:101A5000093006F095F840F20A3006F091F840F2AD
:101A6000862006F08DF84FF4407006F089F840F2B9
:101A7000993006F085F8054A536843F400735360C3
:101A800008BD00BFF8A400080003FA0500000140EB
:101A900030B597B005F0BAFC00F5FF3505F2FD153D
:101AA000AD0201AC14220021204600F0A0FE1A4B2A
:101AB00001931823ADF8083001238DF80A30002275
:101AC0008DF80B20154903914FF44071ADF81010BB
:101AD0008DF812208DF8133005F07CFC142120467F
:101AE00005F086FC15902B6D834201D117B030BDF7
:101AF00005F02EFE284605F0E7FD002407E001ABC7
:101B000053F8241005EB840005F03CFE0134142C3E
:101B1000F5D905F029FEE9E700100140000C01406D
:101B200008B51D2006F0BAFB00211D2006F0C2FBFF
:101B30001E2006F0B3FB01211E2006F0BBFB0B4963
:101B40004FF4807005F02EFD02214FF4807005F0F7
:101B5000E9FC4FF4807005F009FD172006F09EFBAC
:101B60000221172006F0A6FB08BD00BF00080140B7
:101B700008B54FF41C71032006F0BCF8002006F0F5
:101B80008BF808BD38B54FF0804006F0FFF80A2109
:101B90004FF0804006F0FFF800214FF0804006F043
:101BA000E1F84FF6FF714FF0804006F0F6F84FF085
:101BB000804006F0D2F8564D4FF4006302221146E1
:101BC000284605F0EBFD062211464FF0804006F056
:101BD000E6F806214FF0804006F0A7F906214FF005
:101BE000804006F0BCF906214FF0804006F0DCF999
:101BF000002206214FF0804006F0FBF94FF08040B4
:101C000006F0BFF84FF4407301220021284605F08A
:101C1000C5FD404C204606F0B9F88F21204606F05D
:101C2000BAF84CF25031204606F0B7F8204606F0DC
:101C3000A3F80F220221204606F000FA0522022115
:101C4000204606F023FA00220221204606F06CF816
:101C50000221204606F04DFA0821204606F070F8D1
:101C600000220321204606F0E9F90622032120463E
:101C700006F00CFA00220321204606F055F8032155
:101C8000204606F036FA1021204606F059F8402387
:101C900002221146284605F081FD06220021204639
:101CA00006F07DF80021204606F03FF9002120468D
:101CB00006F055F90021204606F076F9002211467B
:101CC000204606F096F9802302221146284605F0A8
:101CD00065FD06220221204606F061F80221204619
:101CE00006F023F90221204606F039F902212046A8
:101CF00006F05AF900220221204606F07AF9012165
:101D0000204606F086F9204606F03BF838BD00BFB5
:101D1000000C01400008004010B582B009238DF886
:101D20000730154C204605F0FBF8204605F002F977
:101D3000204605F014F90721204605F0DCF80DF1E6
:101D400007020121204605F00FF94FF460212046DB
:101D500005F0AAF8204605F095F8002301E000BF41
:101D60000133772BFBDD044C204605F0A7F8204615
:101D700005F0B7F802B010BD0028014038B505469F
:101D80000C460162084605F0E8FF204605F0F4FF26
:101D90000A4B1968C1F31A11094BA3FB0131C90998
:101DA0000139204605F0F7FF4FF6FF71204605F098
:101DB000F4FF00236B62284638BD00BFEC0800200A
:101DC000C55A7C0AF8B5436A032B00DDF8BD04460A
:101DD0000D461646006A05F0D9FF636A0122134FCB
:101DE000F95C206A05F0DBFF636A0022F95C206A77
:101DF00006F0FFF8636A44F8235003F1080106EB8C
:101E0000860202EB8202920024F8112002219940FE
:101E1000206A05F095FF0021206A06F00DF9206A7E
:101E200005F0AFFF636A01336362CFE77C9100087E
:101E3000F8B5054600242AE00226A6403146286A65
:101E400005F082FF40B3286A06F0E7F887B22B6AF4
:101E500003EB84035A6B04F1080135F811100A44AE
:101E60005A6355F824309847286A06F0D6F8C01B04
:101E700004F10C0325F813003146286A05F06AFFC7
:101E800004E00221A140286A05F064FF0134032C1C
:101E900006DC6B6AA342CFDC6B6AA342F6DCF0E798
:101EA000F8BD0146002210460FE002F10C0331F8A4
:101EB00013304FF47A7C0CFB03F302F1080C31F879
:101EC0001CC093FBFCF3184401324B6A9342ECDCD8
:101ED00070470000024B1A68024BC3F8EC267047AB
:101EE000C00800200801002008B5C0EBC0020B4B61
:101EF00003EB8203DB688B420EDC084B03EB8203AF
:101F00001B698B4201DAFF2007E0054B43F82010E4
:101F1000FFF77EFA002000E0FF2008BD0801002046
:101F200000000020014B53F8200070470000002003
:101F3000024B53F820004011704700BF0000002002
:101F400008B5054B53F8200006F0A4FE4FF074517D
:101F500006F0F4FE08BD00BF00000020044B53F85B
:101F600020004011012814BF00200120704700BF4D
:101F7000000000204901024B43F82010704700BFC9
:101F800000000020014B43F82010704700000020A3
:101F900010B5044608464FF0844106F0CFFE07F026
:101FA00093F8024B43F8240010BD00BF000000204E
:101FB00070B506460024084D01E001341C35412C63
:101FC00007DC3146686800F071FB0028F5D1E0B20B
:101FD00070BD4320FCE700BF080100200023064A33
:101FE00001E001331C32412B04DC118B8142F8D11A
:101FF000D8B270474320704708010020C0EBC000F2
:10200000014B03EB800070470801002038B5002425
:10201000074D01E001341C35412C07DC2B8B002BD4
:10202000F8D06969E0B2FFF7ADFFF3E738BD00BF54
:1020300008010020014B1954704700BF1C09002003
:10204000024A135C0B431354704700BF1C09002065
:10205000024A135C23EA0103135470471C09002051
:10206000014B185C704700BF1C090020C0EBC0008A
:10207000024B03EB8003987E704700BF08010020ED
:102080000048704768BC010008B5FFF723FF08BD92
:1020900008B52021806806F08CF808BD08B5806876
:1020A00006F07FF808BD10B504464368597A5868B1
:1020B00005F010FA636804F12A02597A586805F0AD
:1020C0001BFA63688022597A586805F025FA63681C
:1020D000597A586805F0F5F910BD000070B504464E
:1020E0000D465349016053490160856003730261E5
:1020F000012101754175817500228261C26180F8FC
:102100002020426280F828109DF8101080F82910D5
:102110009DF8141080F82A1247494160032A07D815
:1021200061680868A84203D01C3161600132F5E79C
:10213000424A1460002B74D062685069002B73D03F
:1021400063681B8B0222032105F028FB4FF4E13169
:10215000284605F0D5FF0821284605F0E3FF4FF497
:102160000051284605F0E7FF0C21284605F0EFFF57
:102170000021284605F0E5FF0021284605F0EDFF87
:10218000284606F000F8284606F002F86368197A37
:10219000586805F041F96368197A586805F088F9BC
:1021A00063682E1D3246197A586805F09CF96368F9
:1021B0000022197A586805F059F963680022197AE3
:1021C000586805F047F96368197A586805F05AF9B4
:1021D0006368597A586805F01FF963683246597A7E
:1021E000586805F080F963680022597A586805F04C
:1021F0003DF963680022597A586805F02BF9636845
:10220000597A586805F03EF96368597A586805F0BC
:1022100058F92046FFF747FF284605F0A4FF20465F
:1022200070BD6268D06889E763681B8A8AE700BF6F
:10223000BC9F0008C89F0008CC9F000860090020D0
:1022400038B50D460469437D3BB1216839B1284654
:1022500000F02CFA18B10834F7E71C4601E02368B7
:102260000BB1204638BD1C46FBE738B504460D4689
:1022700001E0002373B163680222197A586805F0FF
:10228000E0F80028F5D194F828300BB10346F1E7C7
:102290000123EFE76368197A586805F01BF9636852
:1022A000AAB2197A586805F037F9636894F82020C3
:1022B000D201A83222440232197A586805F01CF97A
:1022C00063680222197A586805F0B6F86368197ACB
:1022D000586805F0F6F894F82030B3FA83F35B09F8
:1022E00084F82030002384F8283038BD10B5044627
:1022F000837D73B10A2910D0436A7F2B0DD090F8EB
:10230000202000EBC2121A4482F8AA100133436263
:1023100010BD806805F02CFFFAE794F82030626A5F
:1023200004EBC313134483F8AA10511C2046FFF793
:102330009CFF00236362EBE710B50C46802A28BFA0
:10234000802211464FF0000C0AE090F8203014F87B
:102350000CE000EBC313634483F8AAE00CF1010C1A
:102360008C45F2D3FFF781FF10BD38B505460C460A
:10237000084600F0B2F9024621462846FFF7DCFF86
:1023800038BD000010B50446084600F0F9F900F029
:10239000DEF9237D83420DD000236375237B0BB3CD
:1023A000626850690BB363681B8B0122002105F042
:1023B000F5F910BD01236375237B6BB16268506929
:1023C0006BB163681B8B0222032105F0E7F9084912
:1023D0002046FFF7CAFFECE76268D068F0E7636861
:1023E0001B8AF0E76268D068DCE763681B8ADCE779
:1023F000989C000830B585B00446084600F0C0F946
:102400000378302B13D0322B0ED04FF461231D46AE
:10241000637D83B92946A06805F072FE0021A0689B
:1024200005F089FE05B030BD0E4B1D46F0E74FF4B8
:10243000E1331D46ECE70A22294601A800F05DF9C8
:1024400009492046FFF791FF08492046FFF78DFF15
:1024500001A92046FFF789FF05492046FFF785FFC0
:10246000D8E700BF10552200D8980008E09800086F
:102470005C9F000810B50446084600F081F9037817
:1024800023B1303B18BF012384F8293094F8293058
:1024900023B105492046FFF768FF10BD03492046D8
:1024A000FFF763FFF9E700BFF0980008FC98000809
:1024B000F8B504464368597A586805F026F8064688
:1024C000C0F1800558B92046FFF7EDFD07E05A1C22
:1024D000E261234493F82A10A06805F049FE94F8BD
:1024E000293013B1E369AB42F1DB0821A06805F0A4
:1024F00060FEE0B97F2E28DCC6F17F03234493F809
:102500002A300A2B17D00D2B15D094F82A30212B06
:102510001BD1A369CBB12046FFF7C5FD0023E361C2
:10252000A3695B6804F5D571204698470DE0A06863
:1025300005F037FEDEE76368597A586804F0CAFF91
:102540007E2E03DD2046FFF7AEFDF8BD63190022A5
:1025500083F82A20E26104F12A072021384600F09E
:10256000C3F80646037823BB0A21384600F0BCF8BE
:102570000646002384F8AA31337803B3002333706E
:10258000A3612A49384600F091F80646E8B904F5F7
:10259000D5712046FFF7F6FEA369002B3CD0A0685A
:1025A00005F003FEA3695B6804F5D57120469847E2
:1025B000C8E7411C04F5D57000F086F8DCE70D2172
:1025C000384600F091F80646D8E71949384600F039
:1025D0006DF8064668B994F82A322BB104F5D57126
:1025E0002046FFF707FFD7E712492046FFF7BDFE59
:1025F000D2E71149384600F059F8064628B904F5E3
:10260000D5712046FFF736FFC6E739462046FFF76B
:1026100017FEA0612E46BFE7012E93DD637D002BE0
:1026200090D006492046FFF7A0FE8BE708990008E6
:1026300014990008209900083C9900084499000862
:1026400008B5044B1B681A681268C1B21846904757
:1026500008BD00BF60090020704708B500F032FDDA
:1026600008BD000000B583B00649D1F8F027D1F8C5
:10267000EC37D1F8E8170091034900F0EBFA03B00A
:1026800000BD00BF00F0FF1F6099000810B50446B0
:10269000FFF7BCFC0249204600F0DCFA10BD00BF89
:1026A0007499000808B502F021FA08BD431E0139EB
:1026B00013F8010F11F8012F10B10AB19042F7D0B1
:1026C000801A18BF01207047013911F8013F0BB97A
:1026D0000370704700F8013BF7E70023C25C0AB9BA
:1026E000184670470133F9E703461A7818461AB1BD
:1026F0008A4203F10103F8D17047002970B51EDA50
:102700002D23012400F8013B4942064691FBF2F3D8
:1027100002FB131130313170191E354606F10106E6
:10272000F4DC00220346201A30443270AB420BD254
:102730001A78297803F8011B05F80129F6E704D176
:10274000302341700370012070BD0024DDE730B5F7
:1027500003782D2B11D14FF0FF34013000210A25D1
:10276000431E01E005FB012113F8012F303AD0B2DE
:102770000928F7D904FB01F030BD0124EEE7000081
:1027800010B5144C02780146A2F10A03DBB2162BF5
:102790001BD824FA03F3DA0700F10100F2D408464B
:1027A000FFF79BFF01380844814204460AD20378B0
:1027B0000A3BDBB2162B05D8064A013822FA03F38E
:1027C000DB07F1D40023637001E0002AE7D108465B
:1027D00010BD00BF09004000002310B5934200D196
:1027E00010BD51F8234040F823400133F6E702B909
:1027F0007047013A40F8041BF9E7F8B50D46164654
:102800001C460160828000238371052C30D00AD9D8
:10281000082C32D01AD8062C41D0072C42D10024E3
:1028200003231F4630E0032C1CD009D8012C13D001
:10283000022C02D100231F4622E002241F4623E07F
:10284000042C28D1012400231F461DE0092C2DD182
:10285000022403231F4617E001238371022400236F
:102860001F4611E001238371022400231F4607E065
:102870000124847100231F4606E0012403231F4620
:102880003146284604F0BFFF3346224639462846E3
:1028900004F084FFF8BD022400231F46F4E700245F
:1028A0002746F1E7022400231F46EDE70224002318
:1028B0001F46E9E7024B4FF400421A80704700BF01
:1028C000640A002008B5FFF7F5FF08BD70B50C1EBF
:1028D000ACBF01234FF0FF335C430133064608BF12
:1028E0002D234FF0640208BF06F8013B611104F08C
:1028F0001F040546544330460A22FFF7FEFE2E22EF
:102900006411092C3254D8BF302206EB0003D8BF23
:102910005A7021464FF00A02CCBF581C981CFFF792
:10292000ECFE284670BDF0B5027803462D2A13D17F
:102930004FF0FF30013300250A2702E007FB052591
:1029400001331C78A4F13002D6B2092EF6D9A4B90D
:102950008D4025446843F0BD0120ECE78A4002EB3E
:10296000660292FBF6F20CFB06F6144413F8012FF4
:10297000303AD7B2092FF1D9EAE70A260024B44643
:10298000F4E72DE9F04105460F46161E02DD0A4622
:10299000002108E04FF0200813F001041BD00024B0
:1029A00022E00131013210780028FAD1B14206DA72
:1029B000761A13F0020F04D14FF02008ECE700263E
:1029C000F7E74FF03008E7E72B681B6841462846D9
:1029D00098470134013E002EF6DC05E02B681B68A9
:1029E000284698470134013739780029F6D106E0A6
:1029F0002B681B684146284698470134013E002E4B
:102A0000F6DC2046BDE8F08170B584B00646DDF8FE
:102A100028C059B11D460B4615B10A2A11D0002510
:102A200000218DF80D100DF10D0416E030238DF806
:102A300000308DF80110099B089A6946FFF7A1FF45
:102A400032E0002901DB0025EAE74B420125E7E7F8
:102A5000303104F8011DB3FBF2F34BB1B3FBF2F1DB
:102A600002FB11310929F3DDACF13A000144EFE733
:102A70009DB1089B63B1099B13F0020F08D030464B
:102A800033681B682D219847089B013B089304E09D
:102A90002D2304F8013C013C0025099B089A21469E
:102AA0003046FFF76EFF284404B070BD08B50846F5
:102AB000FFF7C6FD08BDF0B585B0074616461D46B2
:102AC0006846FFF703FF2B46324669463846FFF754
:102AD00058FF05B0F0BD000070B588B006460C4642
:102AE0000592002587E0A21C012391E000222178B5
:102AF000A1F1300C5FFA8CFCBCF1090F06D802EB97
:102B00008202303901EB42020134F0E773291AD016
:102B1000642923D0782930D058293DD075294AD04E
:102B2000662957D0632965D10599081D0590096864
:102B30008DF81C1000218DF81D1007A93046FFF7F5
:102B400020FF054456E00599081D0590096801B964
:102B500035493046FFF715FF05444BE00599081D40
:102B600005900968612002900193009201230A22D6
:102B70003046FFF749FF05443CE00599081D0590E4
:102B800009686120029001930092002310223046D0
:102B9000FFF73AFF05442DE00599081D05900968E7
:102BA0004120029001930092002310223046FFF74B
:102BB0002BFF05441EE00599081D0590096861205A
:102BC00002900193009200230A223046FFF71CFF77
:102BD00005440FE00599081D059009683046FFF788
:102BE0006AFF054406E0144633681B6821783046C6
:102BF00098470135013423789BB1252BF4D1621C11
:102C0000637873B1252BEED02D2B3FF46CAF0023EE
:102C100014462278302A7FF469AF013443F002036E
:102C2000F7E7284608B070BDE89900080FB400B572
:102C300083B004AA52F8041B054B0193009201A82B
:102C4000FFF74AFF03B05DF804EB04B0704700BF24
:102C5000B4A000080EB400B582B003AA52F8041B59
:102C60000192FFF739FF02B05DF804EB03B0704743
:102C7000174B184A1360991C174A1160191D174AFF
:102C80001160991D164A116003F10801154A11607F
:102C900003F10A01144A116003F10C01134A116097
:102CA00003F10E01124A116003F11001114A116083
:102CB00003F11201104A116003F114010F4A11606F
:102CC00003F116010E4A116018330E4A1360704763
:102CD0009C0A0020980A0020940A0020900A0020F4
:102CE0008C0A0020880A0020840A0020800A002024
:102CF0007C0A0020780A0020740A0020700A002054
:102D00006C0A0020680A002030B583B0334B93E88A
:102D1000030002AB03E903000025002D2CDD304C3D
:102D2000304A0121204604F0DEFB2F4A01212046D3
:102D300004F0E2FB4FF480720121204604F096FB80
:102D40004FF480620121204604F084FB9C22012183
:102D5000204604F0E1FB0121204604F093FB012111
:102D6000204604F098FB0121204604F0AAFB1F48EE
:102D700004F028F903B030BD02AB03EB850353F830
:102D8000084C204604F0CCF8204604F0CEF820464B
:102D900004F0E0F8204604F0D2F80121204604F0C7
:102DA000AAF8204604F06EF8204604F087F8204682
:102DB00004F097F805EB450305EB83030C4A1A442E
:102DC0000D21204604F0D0F8204604F005F94FF418
:102DD0006021204604F068F801359EE7B8A000089D
:102DE000000002404C2401409C0A002000240140C5
:102DF000D40B0020884205DD914209DC90420ADDB7
:102E000010467047904206DC914203DD1046704741
:102E1000084670470846704730B583B004680025FF
:102E20000BE0A28E618B2088FFF7E4FF02AB03EB7F
:102E3000450323F8080C01354E34032DF1DDBDF8B0
:102E40000000BDF802301844BDF804301844BDF845
:102E500006301844C0F38F0003B030BD08B50F4BE7
:102E600098420BD003F58063984211D0A3F500631C
:102E7000984205D1072903DCC8B204E0012903DD2B
:102E800004F008F8102008BDC9B20831C8B2FAE74A
:102E90000529F5DCC9B20A31C8B2F4E7000C0140DB
:102EA00070B505460E461446012393409BB200229E
:102EB0001146304604F072FC2B68054A9B1A5D10DF
:102EC00021463046FFF7CAFFABB2024AD05470BD6C
:102ED0009C0A0020D40B002008B5FFF7C9FE08BDEE
:102EE00008B504F093FA00F5FF3000F2FF108002FD
:102EF00008BD2DE9F043ADF2044DFFF7F1FF0646A2
:102F0000024600234FF0FF3503E052F8041B0D404A
:102F10000133FF2BF9DD04F05DFA4FF480724FF0BE
:102F2000FF316846FFF763FC002400E00134412CC8
:102F30001AD8E7B23846FFF799F80028F6D1384694
:102F4000FFF75CF880463846FFF78AF80DEBC409B6
:102F500089F80300B8F818202DF834203846FEF719
:102F6000E1FFC9F80400E1E7FE21684604F040FAF9
:102F7000FE9004F0EDFBB5F1FF3F01D100240AE023
:102F8000304604F0A1FBF9E75DF8241006EB84005D
:102F900004F0F8FB0134FF2CF6D904F0E5FBFE98B1
:102FA0000DF2044DBDE8F083F8B5FFF799FF064632
:102FB00004F010FAFE21304604F01AFAD6F8F8337D
:102FC000834201D1002503E04FF0FF3019E00135C5
:102FD0007E2D15D836F83500FFF700F80446432853
:102FE000F5D0FFF743F80028F1D106EBC507796863
:102FF0002046FEF7C7FFF9782046FFF71BF8E6E703
:103000000020F8BD014B1860704700BFF40B002092
:103010000D4B1B5CB3B90D4B196899B10C4B187073
:10302000DFF830C0DCF800300B4A02F8330002EB66
:10303000C3025160044A012111540B4403F00F03F1
:10304000CCF80030704700BFE40B0020F40B0020E8
:10305000EF0B0020F00B0020400800200F280AD8BA
:10306000064B03EBC0035B680BB918467047034B74
:1030700013F8300070470020704700BF4008002060
:103080000F2801D900207047024B03EBC00358689A
:10309000704700BF4008002008B5074B03EBC10292
:1030A00092F804C053F83130044A52F82C200146FB
:1030B0000348FFF7BBFD08BDCCA00008C0A0000876
:1030C000F099000810B50C4B5B680BB1002409E0C7
:1030D0000A48FFF7ABFD0DE0074B13F83410FFF77C
:1030E000DBFF01340F2C05D8034B03EBC4035868F6
:1030F0000028F1D110BD00BF40080020009A000850
:1031000000B58BB0104B01EB410203EB820C53F87E
:103110002220DCF804C001EB410103EB81039B6832
:10312000D0F858020021089107910693CDF814C0F9
:10313000049203910291019100910B46012203F048
:103140005DFF0BB000BD00BF38A10008F0B583B033
:1031500004460D4616461F4672B60121D0F85802A5
:1031600004F05FF8019600970023B5F5006F34BFB7
:10317000002201222946D4F8580204F057F800280A
:1031800006DBD4F85432002B18DC62B603B0F0BD75
:10319000D4F85432132BF4DC03F1110204EB0212C5
:1031A00055609760316804EB0312C2F81C11716816
:1031B000C2F820110133C4F85432E2E70121D4F8F7
:1031C000580204F02AF8E0E7012801DD00207047EA
:1031D000014B53F820007047F80B002030B58BB03E
:1031E00004460D460AE09DF8213006AA09992046BA
:1031F00000F0B2FA04F046FDC4F8F800002305938D
:1032000006AB04930DF12103039308AB02930DF178
:10321000220301930DF12303009309AB0122E9B2CC
:10322000D4F8580204F077F80028DCD10BB030BD98
:1032300030B583B0044600F58A7504E0D4F8543202
:10324000013BC4F85432D4F85432002B17DD03F19B
:103250008053013B1A0105EB0313A9585A68083340
:103260000193D2B200920023B1F5006F34BF002267
:103270000122D4F8580203F0D9FF0028DEDAD4F88E
:1032800054320BB103B030BD0121D4F8580203F021
:10329000C8FFF7E770B584B00E4615461C461068A7
:1032A000B3F800C05A889B88B4F806E05B019BB273
:1032B000520192B24FEA4C1C1FFA8CF14FF0010CF4
:1032C000CDF808C000EA0C0CCDF804C04FEA4E1C43
:1032D0001FFA8CFCCDF800C003F082FF002333609E
:1032E0002A6801322A60E380A3806380238004B0CF
:1032F00070BD70B584B00E4615461C461068B3F814
:1033000000C05A889B88B4F806E05B019BB252016A
:1033100092B24FEA4C1C1FFA8CF14FF0010CCDF821
:1033200008C000EA0C0CCDF804C04FEA4E1C1FFA8E
:103330008CFCCDF800C003F043FF002333602A6803
:1033400001322A60A380238040F2FF73E380638010
:1033500004B070BD70B582B00E4615461C461068AC
:103360001968C9005A68D20001230093034042F053
:10337000040241F0040103F043FF002333602A6894
:1033800001322A606360236002B070BD30B58BB03B
:103390000546002308930993474906AA03C982E812
:1033A000030004930593039302930193D5F85822E5
:1033B000424B9A420AD0A3F58063D3F8003AC3F394
:1033C000052300930024C2F81C4221E00023F8E703
:1033D00004F11E0205EB8202516871B3029A501C7F
:1033E00002900DF1280C0CEB420C2CF8103C023230
:1033F00002920AAB03EB400020F8101C039B042B45
:1034000024D0029B022B28D0019B022B2CD001340C
:10341000D5F8F430A3422EDD05EB84035B68B3F5E9
:10342000006FD5D3019A23F060430AA901EB820112
:1034300041F8183C01320192E0E7039A0AA901EB36
:10344000420121F8083C01320392D7E708AB6A46F3
:1034500003A92846FFF71EFFD3E706AB6A4602A979
:103460002846FFF746FFCFE704AB6A4601A9284686
:10347000FFF770FFCBE7039B002B07DC029B002BC1
:103480000BDC019B002B0FDC0BB030BD08AB6A4698
:1034900003A92846FFF7FEFEF0E706AB6A4601A93E
:1034A0002846FFF726FFECE704AB6A4601A9284649
:1034B000FFF750FFE8E700BF74A100080064004078
:1034C000F8B504460D4616461F4600F0E3F8544B87
:1034D00023600023C4F85432C4F85852514B9D4223
:1034E0002FD003F580639D4258D1002F00F08280D9
:1034F0004D4D202302220021284604F04FF92021BF
:10350000284604F080F9402302220321284604F0D3
:1035100045F9402004F0C2FEF021402004F0CAFE2C
:10352000412004F0BBFEF021412004F0C3FE3F2007
:1035300004F0B4FEF0213F2004F0BCFE3B4B5C6085
:103540002CE0002F41D0384D4FF48073022200212F
:10355000284604F023F94FF48071284604F053F90B
:103560004FF4007302220321284604F017F91420B7
:1035700004F094FEF021142004F09CFE152004F0C9
:103580008DFEF021152004F095FE132004F086FE38
:10359000F021132004F08EFE244B1C60D4F8580256
:1035A00003F020FD31462046FFF7AAFD2046FFF735
:1035B000EDFE0221D4F8580203F02FFE1021D4F8BA
:1035C000580203F02AFE2046F8BD194D4FF400635F
:1035D00002220021284604F0E1F84FF40061284659
:1035E00004F011F94FF4805302220321284604F01D
:1035F000D5F8BCE70C4D4FF4805302220021284639
:1036000004F0CCF84FF48051284604F0FCF84FF455
:10361000005302220321284604F0C0F879E700BFD6
:103620002CA1000800640040000C0140F80B0020B1
:103630000008014008B50020FFF7C6FD0021FFF794
:10364000CDFD08BD08B50020FFF7BEFD0121FFF745
:10365000C5FD08BD08B50020FFF7B6FDFFF7E8FD82
:1036600008BD08B50120FFF7AFFD0021FFF7B6FD4B
:1036700008BD08B50120FFF7A7FD0121FFF7AEFD4A
:1036800008BD08B50120FFF79FFDFFF7D1FD08BD7C
:1036900070477047084B03600023C0F8F430C0F84F
:1036A000FC3005E003F14002044940F822100133E8
:1036B000042BF7DD704700BF84A10008C408002078
:1036C000D0F8FC30042B01DD0020704703F14002EC
:1036D00040F822100133C0F8FC300120704710B5CB
:1036E0001446D0F8F4201D2A0CDD002010BD013353
:1036F0009A420ADD00EB830CDCF804107145F6D128
:103700000020F3E78E460023F2E700EB8203C3F8C4
:1037100004E002F11E0300EB83035C600132C0F899
:10372000F42003689B6898470120DFE738B5054619
:103730000024C0F8F44003689B68984707E004F150
:10374000400355F8230003685B6898470134D5F8B7
:10375000FC30A342F3DC38BD2DE9F8430546894629
:1037600090461F4600240AE004F1400355F8230068
:1037700003681E683B4642464946B0470134D5F8C7
:10378000FC00A042F0DCBDE8F88370B5054600F10E
:10379000300634460BE034F8043BC3F3C02123F475
:1037A0000063002203EB41716868FFF798FFA31BD9
:1037B000242B02DCA378322BEDD170BD2DE9F04132
:1037C00082B0054600F108073E46F31B242B00F3A8
:1037D0009380B378322B00F08F8000230093019305
:1037E000B37803EB4304A40058342C441AE0C0F32C
:1037F00007231B0443EA0063C0F3074243EA0223A2
:1038000043EA1063E2791F2A3DD8C2F11F0223FA6E
:1038100002F2009B13430093647A04EB4404A40077
:1038200058342C44637AFF2B5DD0354B1B78002B2A
:1038300062D12079FEF784FB0146206805F07EFA0C
:10384000804694F9060005F025FA414605F06EF928
:1038500005F03AFC94F908C08CEAEC71A1EBEC712C
:10386000C9B24FF0FF328A4020EA0200BCF1000FDB
:10387000BDDBE2791F2A20D9203A00FA02F2019B2F
:1038800013430193C8E79444BCF11E0F07DDC2F156
:103890003F0223FA02F2019B13430193BCE7A2F11A
:1038A0001F0003FA00F0009901430091C2F13F02AA
:1038B000D340019A1A430192AEE702EB0C03202B8E
:1038C00005DC00FA02F2009B13430093A4E700FA20
:1038D00002F1009B0B430093C2F12002D040019BF8
:1038E0000343019398E7686803685C6808236A46A5
:1038F00036F8041BA04768E702B0BDE8F08100BFBE
:10390000000C002010B509B302F10C0E00EB8E0E76
:103910000A2A46D89EF80210322944D001EB410C05
:103920004FEA8C0C0CF1580C844400210C469CF896
:103930000910FF2933D073B1013BDBB201EB410128
:1039400089005831644600EB010CF0E702F1020EE9
:1039500000EB8E0EDCE72CB16172FF238CF809308E
:1039600001201FE0322904D08EF80210F5E7013360
:10397000DBB29918092904DC0EEB8301897832291E
:10398000F5D1013BDBB20EEB830291788EF8021089
:103990003EF82330AEF8003032239370DDE700208C
:1039A00000E0002010BD0020FCE7F8B500F108039E
:1039B00000263446354637463DBB1A462C46A2EB18
:1039C000030CBCF1240F27DC92F802C0BCF1320FCB
:1039D00022D00CEB4C0E4FEA8E0E0EF1580E8644A0
:1039E000002609E00136F6B20CEB4C0C4FEA8C0CC9
:1039F0000CF1580C00EB0C0E9EF809C0BCF1FF0F47
:103A000006D0BEF804E08E45ECD15DB10020F8BDD3
:103A10000134E4B20432D2E700F130033D46012222
:103A20001746C9E7334622463946FFF76BFFEEE7F4
:103A300070B514461E460023079A137000F108055E
:103A4000002B46D12A46531B242B3ADC92F802C0A5
:103A5000BCF1320F35D00CEB4C0E4FEA8E0E0EF14E
:103A6000580E864407E00CEB4C0C4FEA8C0C0CF122
:103A7000580C00EB0C0E9EF809C0BCF1FF0F1ED0D5
:103A8000BEF804308B42EED11388C3F3C02223600A
:103A900023F40063236043EA427323609EF80730F7
:103AA00033709EF90820049B1A70DEF80020059BF5
:103AB0001A609EF90620069B1A70012070BD043220
:103AC000C1E7079B1B780122079D2A7000F1300592
:103AD000B6E70020F2E78446D9B102F10C0100EB11
:103AE00081010A2A27D88A78322A26D002EB42029C
:103AF000920058320CEB0200427AFF2A19D063B1CF
:103B0000013BDBB202EB4202920058320CEB0200A6
:103B1000F2E7911C00EB8101E3E70B88C3F3C022BD
:103B200000990B6023F400630B6043EA42730B605F
:103B300070470020704700207047002070472DE933
:103B4000F04385B00646884600F1080900273B4649
:103B50002FE02B88C3F3C02C23F4006194F90830C4
:103B6000E2792079029794F906E0CDF804E0D4F8E0
:103B700000E0CDF800E041EA4C71C047647A04EB04
:103B80004404A40058343444637AFF2BE1D1043553
:103B9000A5EB0903242B08DCAB78322B05D003EB13
:103BA0004304A40058343444EEE706F130093B46A0
:103BB00001270BB94D46EBE705B0BDE8F0830023C4
:103BC00006E001EB83024FF0320C82F802C00133B1
:103BD000092BF6DD002307E003EB430200EB820232
:103BE000FF2182F861100133322BF5DD704710B5EB
:103BF000044600F10801FFF7E2FF04F1300120461E
:103C0000FFF7DDFF6068FFF791FD10BD2DE9F04182
:103C10000F4615461E460024A0460AE0286803F019
:103C2000E1FB804655F8041B07EB840003F0AAFD76
:103C30000134B442F2DB4046BDE8F081084600E0C2
:103C40000430431A242B0ADC8378322B05D00388F6
:103C5000534033F40063F3D102E0002070470020AA
:103C6000704700004B4B1B7803B170472DE9F041C2
:103C7000054616460A4600F13001FFF7DFFF00282F
:103C800000F08580837803EB4304A40058342C446F
:103C900042E01F2B53D83068C0F30722120442EAD7
:103CA0000062C0F3074742EA072242EA1062C3F10A
:103CB0001F03DBB201208840013822FA03F31840C9
:103CC00004F0E4FF074694F9060004F0E3FF3946E8
:103CD00004F02CFF0146206805F030F807462079F3
:103CE000FEF7C4F920B12079FEF7C0F9012849D1C7
:103CF000B4F804804FF08441384605F01FF805F011
:103D0000E3F901465FFA88F0FEF7EEF8647A04EB17
:103D10004404A40058342C44637AFF2B37D0E37951
:103D200094F9082082EAE271A1EBE271C9B2002A9B
:103D3000AFDB1F2B18D97268203BDBB2BAE71A44FD
:103D40001F2A03DD7068203BDBB2A5E75B1ADBB2FC
:103D50000133DBB23068D8407268C3F120039A4067
:103D600010434B1EDBB297E71A44202A01DC32686D
:103D7000A0E73268DA407068C3F12003984002433C
:103D8000002397E739462079FEF702F9BEE7BDE840
:103D9000F08100BF000C00202DE9F8439DF8207051
:103DA0009DF92460002E76D004460D469146984633
:103DB00086EAE673A3EBE673DBB2202B6ED8002E07
:103DC0000BDDBB19402B6CDC424629462046FFF731
:103DD00035FF844658B100221BE03F2F64D87BB2E8
:103DE0003344B3F1FF3FEFDA6FF0010051E00021FF
:103DF000092907DC05EB81039A78322A01D00131C9
:103E0000F6E79C46BCF1000F51D0ACF80080E2E729
:103E10000132312A07DC02EB420304EB830393F8FF
:103E20006130FF2BF4D1322A44D09CF802300021BB
:103E30000AE003EB430189005831214403EB4303BB
:103E400004EB830393F86130322BF2D102EB42038F
:103E500004EB8304A4F85C900A9BA3659DF92C30C5
:103E600084F85E3084F85F7084F86060322384F8F0
:103E7000613019B14A722B46002004E08CF8022010
:103E8000F9E7013004335A1B242A02DC9A78322ADB
:103E9000F7D1BDE8F8836FF00200FAE76FF0020097
:103EA000F7E76FF00100F4E76FF00100F1E76FF062
:103EB0000300EEE76FF00400EBE7B2F5006F16D2F7
:103EC00000B585B09DF920C0CDF80CC0DDF81CC050
:103ED000CDF808C09DF918C0CDF804C00093134672
:103EE0000A4600F10801FFF757FF05B000BD4FF08B
:103EF000FF30704770B584B005461446C2F3407079
:103F000022F00052B2F5006F1DD29DF928C0CDF805
:103F10000CC0DDF824C0CDF808C09DF920C0CDF854
:103F200004C0009342EAC0230A4605F13001284646
:103F3000FFF732FF0646002221466868FFF7CFFBF5
:103F4000304604B070BD4FF0FF331E46F8E72DE950
:103F5000F04F89B08346059206938A46079131E077
:103F6000B4F9020004F096FE002303930290CDF80A
:103F7000048000953B46049A05993046FFF70CFFF4
:103F80000634A4EB09032A2B1ADC94F90530002B24
:103F900016DD2088FEF722F80490DBF80060BAF8FE
:103FA0000070257994F90580069B002BD8D0B4F9D0
:103FB000020004F06FFE4FF0745104F0BFFED3E72F
:103FC0000AF1320A079BAAEB0303B3F5E17F0ADC8F
:103FD000BAF800104FF6FF73994204D00AF10205B7
:103FE0002C46A946CDE709B0BDE8F08F08B503F02F
:103FF0000DFA00F5FF3000F5FF70800208BD70B5C6
:1040000082B006460190FFF7F1FF0446D0F8E8536E
:1040100003F0E0F9FA21204603F0EAF9854202D0E4
:10402000002002B070BD01AD0023324608322146A7
:104030002846FFF78CFF01233246303204F5FA712F
:104040002846FFF784FF0120EBE7F8B505460F4649
:104050000E460EE02079FDF7D1FF038BA380647A32
:1040600004EB4404A40058342C44637AFF2BF1D1B0
:104070000436F31B242B08DCB378322B05D003EB7A
:104080004304A40058342C44EFE7F8BDF8B50546C6
:104090000F460E460DE0A088FDF7A0FFA080647AD1
:1040A00004EB4404A40058342C44637AFF2BF2D16F
:1040B0000436F31B242B08DCB378322B05D003EB3A
:1040C0004304A40058342C44EFE7F8BDF0B583B0A6
:1040D0000546FFF78BFF064602462A4B0121197061
:1040E00000234FF0FF3403E052F8041B0C4001336F
:1040F000FF2BF9DD03F06EF903F02AFB022003F039
:104100001DFBB4F1FF3F38D105F1080739462846B9
:10411000FFF79BFF05F1300421462846FFF795FF86
:104120000A233A4631462846FFF770FD0A23224605
:1041300006F128012846FFF769FD0190962305F155
:10414000580206F150012846FFF760FD0190012357
:1041500001AA06F52D712846FFF758FD03F004FB70
:1041600039462846FFF792FF21462846FFF78EFF83
:10417000044B00221A7003B0F0BD304603F0A4FADD
:10418000C2E700BF000C0020F8B50646FFF72EFF7F
:104190000446D0F8B45203F01DF9AA21204603F0DA
:1041A00027F9854203D03046FFF729FFF8BD06F115
:1041B00008070A2221463846FEF70EFB06F13005B5
:1041C0000A2204F128012846FEF706FB962204F194
:1041D000500106F15800FEF7FFFA39463046FFF766
:1041E00055FF29463046FFF751FF0120DEE700006A
:1041F00038B50446084615460D4B23600D4B236029
:1042000061602146FFF75CFA04F108012046FFF7E0
:10421000D6FC04F130012046FFF7D1FC25B9204639
:10422000FFF7B3FA204638BD2046FFF7ADFFF6E7AB
:1042300064910008A8A10008036ED3B14FF47A730B
:10424000036604E0036E002B07DD01233BB1826DA2
:10425000C36D9A42F6D00023F8E70023F6E7836D9A
:104260005A1C826503F03F03034419764FF0FF3375
:1042700043617047A0F10400FFF7DEBF10B50446AC
:10428000017C002201F5C0618068FFF728FA617C9B
:104290003F2900D910BD002201F5B061A068FFF7E9
:1042A0001EFAF7E710B504460846144B2360144B7A
:1042B0006360144B236014336360A160E2600123E8
:1042C0002374FF2363744FF0FF3363610023A365FE
:1042D0004022E2654FF47A722266432284F8642019
:1042E000A36684F87830E36784F888302146FFF7C6
:1042F000E7F92046FFF7C2FF204610BD6491000891
:10430000BC9F0008B8A1000808B501748068FFF7D9
:104310000DFA08BD10B582B004468DF80010ADF856
:1043200001309DF810308DF80330059B0193437CDC
:1043300093420DD1002384F87830A068617C036833
:104340005C6808236A4601F5C061A04702B010BD51
:1043500042748068FFF7EAF9ECE738B504460A468C
:104360008068217C03685D68082301F5B061A84777
:10437000002384F8883038BDB1F8012045F20103EC
:104380009A4211D0012380F888300B7880F8803071
:10439000B1F80130A0F88130CB7880F883304B68D9
:1043A000C0F88430002070470B78402B01D00020EB
:1043B00070474FF0FF330B714B7100238B71CB7142
:1043C00041220A704FF47A72026683654023C36506
:1043D000CB784361012070472DE9F04184B0074656
:1043E0000C46B1F80120C2F3C0131E46CD7825B1AA
:1043F000013D05EBD575C5F3470503AB00932B468F
:1044000002F03F023146F868FFF765FB80462378EB
:10441000402B0DD0232B3DD080232370002323710C
:1044200063710223A3710623E37104B0BDE8F08138
:1044300030B30079FDF7E2FD028BE37823B9039BEB
:10444000636043232370F0E713F0010F09D098F85D
:10445000073042EA034298F9083042EA0362626098
:10446000EFE71549D8F8000004F068FC04F02CFED2
:1044700020F07F4398F9062043EA02636360E0E797
:10448000802323700023237163710223A371062309
:10449000E371CAE70028BFD06368002BBCD1B4F831
:1044A00001202B4602F03F023146F868FFF72AFA56
:1044B00060232370B9E700BF00007A440B78232BF8
:1044C00000D070472DE9F04184B005460C461646F1
:1044D000CB7883B94B68B3F1005F04D323F000526B
:1044E000B2F5006F03D2AB666023237019E04FF082
:1044F000FF3383660CE0826E1746B2F1FF3F01D0B6
:10450000012B11D095F9742090460AB1022B1DD0D1
:10451000802323700023237163710223A371062378
:10452000E37104B0BDE8F081486880B2FDF756FD44
:10453000A5F870006368C3F3054385F873306368BA
:104540001B1685F874304128CED9E1E7606840F346
:10455000170004F09FFB154904F0A4FCE8666368AB
:104560001B1685F87230A6B102930190CDF8008039
:1045700095F873303A4695F87010E868FFF7BAFC82
:10458000002385F874304FF0FF33AB660028ABDAB8
:10459000BEE702930190CDF8008095F873303A465B
:1045A00095F87010E868FFF788FCE9E700007A44A6
:1045B00038B504460D460A7802F06003602B31D00E
:1045C000B1F80130B3F5005F5AD003F47F40B0F585
:1045D000045F55D0E16819B1B3F5405F00F0858004
:1045E00021B143F2010C634500F0858019B1B0F5AB
:1045F000445F00F0868045F203018B4200F0868024
:1046000045F204018B4240F09B80402A00F09180EB
:1046100080232B7000232B716B710223AB71062357
:10462000EB7119E002F010020A700122072A0EDC79
:10463000E36DA16D5B1A402B09D0E36D591CE16558
:1046400003F03F0323441B7EAB540132EEE7E36DDE
:10465000A16D5B1A402B09D0A068217C03685C68BF
:1046600008232A4601F5B061A04738BD2B7843F0F6
:1046700001032B70C2F1080243EA42032B70EBE7FF
:10468000E87803F47F42B2F5045F0CD0412822D8C9
:104690002B78232B0DD0402BDED1FDF743FC686037
:1046A00043232B70D8E71B029BB21844FDF796FCFE
:1046B000ECE76968FDF718FC10B960232B70CBE7B5
:1046C00080232B7030232B7100236B710923AB7176
:1046D0000623EB71C0E780232B7000232B716B71D5
:1046E0000223AB710623EB71B6E700222946204670
:1046F000FFF7E4FEB0E7012229462046FFF7DEFE81
:10470000AAE729462046FFF767FEA5E7402A09D019
:1047100080232B7000232B716B710223AB71062356
:10472000EB7199E7E878FEF799FC686043232B70FA
:1047300092E7E878FEF7A4FC686043232B708BE7D0
:1047400029462046FFF718FE002885D18DE7000096
:10475000F0B583B004461546037C03F5C0638B4275
:1047600007D0437C1E4603F5B0638B4205D003B0EF
:10477000F0BD1146FFF71CFFF9E7B2F801301F4604
:10478000A3F540539BB2012B08D92B78803B18BF6F
:10479000012384F878306B68E367E8E7D378ABB13E
:1047A000012BF2D11349C06E04F0C8FA04F08CFC5E
:1047B00094F9723040EA03630193022300933B466D
:1047C000324623212046FFF7A5FDDEE7B0F8703022
:1047D00090F8732043EA024390F9742043EA02639D
:1047E0000193012300933B4632462321FFF792FDBC
:1047F000CBE700BF00007A4410B50446B0F80130A2
:10480000B3F5A04F0DD045F20202934234D080237D
:1048100023700023237163710223A3710623E371C4
:1048200010BD0278402AEED143230370C378022BD7
:1048300013D007D863B1012B14D12E4BD3F8EC372A
:104840004360EDE7032B0DD1FDF71AFC6060E7E74D
:10485000284BD3F8E8374360E2E7264BD3F8F0372C
:104860004360DDE7802323700023237163710223FB
:10487000A3710623E371D3E72378232BC7D16023E9
:104880002370E378012B21D009D9022B26D0032BEA
:1048900026D1FDF7BBFB4220FCF7BAFDC0E7FBB910
:1048A000154B1B784BB172B6144B186808B1FFF763
:1048B0000DFCFEF71EFB62B6B2E7802323700023D7
:1048C00023716371A3710823E371A9E772B6FEF740
:1048D0006BFB62B64220FCF79BFDA1E703F0D6FC20
:1048E000802323700023237163710223A3710623A5
:1048F000E37195E700F0FF1FC8080020040C0020BA
:104900002DE9F04184B00E46174698469DF8304098
:10491000FDF774FB43681D461449154B1868FEF7F4
:1049200099F9ECB11349124B1868FEF793F94FF05F
:1049300084410A9804F002FA0D4B1C689DF92C3052
:10494000039304F0C1FB0290CDF804800097334636
:104950002A4609492046FEF77DF904B0BDE8F081FA
:104960000649034B1868FEF775F9E0E7C49B000899
:104970000C0C0020CC9B0008D49B0008D09B0008A6
:1049800070B505460846FDF7FBFE06462021FDF7FB
:10499000ABFE0378A3B1002300F8013B0521FDF72E
:1049A000C2FF04463046FDF703FB432812D02146E0
:1049B000FDF79AFA48B90A492846FEF74BF903E091
:1049C00008492846FEF746F970BD07492846FEF714
:1049D00041F9F9E7324605492846FEF73BF9F3E786
:1049E000049C0008E89B0008109C0008289C000814
:1049F000F8B507460846FDF7C3FE054609E02A4616
:104A00000F493846FEF726F9254605F8016B2C2E8E
:104A100014D12C212846FDF767FE044606780023B2
:104A200003702846FDF7C4FA4328E8D0FDF77AFA68
:104A3000024604493846FEF70DF9E5E7F8BD00BF28
:104A4000489C0008409C00082DE9F04106460846B5
:104A5000FDF796FE07462021FDF746FE03789BB141
:104A600004460546002305F8013B3846FDF7A0FA49
:104A70008046432829D06378212B0AD07E2B08D08A
:104A80002F2B06D0002406E013493046FEF7E2F84B
:104A90000FE0A51C012429461048FDF707FE50B978
:104AA00074B101214046FDF7D3FA0D493046FEF7B7
:104AB000D1F8BDE8F0810B493046FEF7CBF8F8E7B6
:104AC00001214046FDF7BCFAEFE73A460649304679
:104AD000FEF7C0F8EDE700BF649C0008749C000876
:104AE0008C9C00087C9C0008289C00082DE9F04F55
:104AF0008BB007460846FDF743FE03780593464909
:104B00003846FEF7A7F800264FF0200822E0434A77
:104B1000039202930190CDF800A04B4642464049D3
:104B20003846FEF797F82846FDF7A0FA20B1284648
:104B3000FDF79CFA01285AD1E2682369616920686F
:104B400002960190009137493846FEF783F84FF0FE
:104B50002C080136412E51D8F5B22846FDF74EFA01
:104B600004462846FDF77CFA10F0010F02D0059BA1
:104B7000682BEED1D4F80490D4F808A0B4F818B09B
:104B80002846FDF7CFF90290CDF804B0CDF800A08B
:104B90004B46424624493846FEF75CF80DF11F03A8
:104BA00003930DF11E03029309AB01930DF11D0355
:104BB000009307AB08AA29461C480068FEF738FF97
:104BC0000028B0D0DDF820809DF81C909DF91DA034
:104BD0004FF08441099804F0B1F804F075FA9DF99A
:104BE0001E309DF81F20002A91D0114A90E71149EC
:104BF0003846FEF72FF84FF02C08AAE70E4BD3F8F3
:104C0000F0270E493846FEF725F80D493846FEF7DD
:104C100021F80BB0BDE8F08FB09C0008A89C0008FC
:104C2000E49C0008489D0008B49C0008080C002083
:104C3000A09C0008349D000800F0FF1F989D00080C
:104C4000D49D00082DE9F0478AB00746002305935C
:104C500006930793089309930846FDF791FD04789E
:104C6000702C38D0632C44D02021FDF73DFD037813
:104C7000002B47D0FDF784FD06462021FDF734FDCB
:104C800003780BB9642C44D10546002305F8013B99
:104C90003046FDF78DF9064681462846FDF770FD42
:104CA0008046432E3AD0642C3DD000231D464FF061
:104CB0007E539A46042D62DC20214046FDF714FD08
:104CC00006460378002B39D1022D37DC5949384686
:104CD000FDF7C0FF1AE0584B1B68002BFBD1564C68
:104CE00027605649564B1868FEF729FF00232360BA
:104CF0000CE0534B1868FEF77AFF52493846FDF72F
:104D0000A9FF03E04B493846FDF7A4FF0AB0BDE810
:104D1000F08748493846FDF79DFFF7E74A4938468E
:104D2000FDF798FFF2E73146454B1868FEF73DFE68
:104D3000024646493846FDF78DFFE7E7002333700A
:104D40004046FDF704FD032D0DD00AAB03EB8503B0
:104D500043F8140C30460130FDF712FD80462B4617
:104D600001331D46A6E710214046FDF7DCFD03F0A8
:104D700091FF4FF05E5103F0E1FF8246EAE7742CA9
:104D80001FD09DF924300293CDF804A09DF91C306A
:104D900000939DF81830059A494629480068FFF7A6
:104DA000A9F810F1030F2ED01CDD10F1020F24D052
:104DB000B0F1FF3F33D1059A25493846FDF74AFF48
:104DC000A4E79DF924300293CDF804A09DF91C308E
:104DD00000939DF81830059A494619480068FFF776
:104DE0006CF8DEE710F1050F13D010F1040F16D1A7
:104DF00018493846FDF72EFF88E7069A16493846C7
:104E0000FDF728FF82E7079A14493846FDF722FF8D
:104E10007CE7059A12493846FDF71CFF76E7012822
:104E200006DD104B024610493846FDF713FF6DE7CB
:104E30000E4BF7E7049E00080C0C00200149000807
:104E4000080C0020E09D0008189E00082C9E000819
:104E5000449E0008A89E0008589E00086C9E00080A
:104E6000809E0008DC9D0008C49E00089C9C0008F1
:104E700010B50D4B1B7893B1044672B60B4B1868F6
:104E8000FFF724F90A492046FDF7E4FEFEF731F862
:104E9000024662B607492046FDF7DCFE10BD064912
:104EA000FDF7D8FEFAE700BFC9080020080C002073
:104EB000F09E0008009F00081C9F000810B50446E3
:104EC00072B6FEF771F862B638B94220FCF7A0FA64
:104ED00004492046FDF7BEFE10BD03492046FDF7FC
:104EE000B9FEF9E7609F0008749F000808B503F059
:104EF000CDF92DE9F843054688461746002604E01B
:104F000023782C2B16D1BE4214D22C212846FDF733
:104F1000EBFB044690F80090002303702846FDF751
:104F200047F8254605F8019B4328E9D008F8060014
:104F30000136E5E73046BDE8F88300002DE9F04191
:104F400084B006460846FDF71BFC0446FDF7FFFB50
:104F5000804620212046FDF7C7FB03784BB10A228B
:104F600001A90130FFF7C5FF07463046FDF796F867
:104F700020E018493046FDF76DFE04B0BDE8F08131
:104F800004F110036B4413F80C0CFCF7CBFF034641
:104F90002A4611493046FDF75DFE01340F4DBC42F3
:104FA000EEDB0F493046FDF755FEB8F1FF3F01D06B
:104FB00008F1FF383046FDF76BF80028DDD1804559
:104FC00002DD084D0024EAE7B8F1FF3FD5D1054DD9
:104FD0000024E4E78C9F0008AC9F0008E09C0008D8
:104FE0005C9F00089C9C000808B5042856D019DC7A
:104FF00002282FD003283FD0012811D1394B3A4A3B
:105000001A603A4B3A4A1A603A4B3B4A1A601420EB
:105010003A4B1860FCF78CFF394B1860012008BD33
:105020000020FCE705284BD0062811D12D4B354A2E
:105030001A602E4B344A1A602E4B344A1A601220E2
:105040002E4B1860FCF774FF2D4B18600120E6E72B
:105050000020E4E7234B2E4A1A60244B2D4A1A60A5
:10506000244B2D4A1A601520244B1860FCF760FF72
:10507000234B18600120D2E71A4B284A1A601B4BB9
:10508000274A1A601B4B274A1A6010201B4B1860D6
:10509000FCF74EFF1A4B18600120C0E7114B224A63
:1050A0001A60124B214A1A60124B214A1A601120D1
:1050B000124B1860FCF73CFF114B18600120AEE763
:1050C000084B1C4A1A60094B1B4A1A60094B1B4AC1
:1050D0001A601320094B1860FCF72AFF084B186070
:1050E00001209CE7180C002094090020140C0020DB
:1050F00084090020100C00208C0900204C0C00209A
:10510000500C0020AC0900209C090020A4090020BC
:10511000440A0020340A00203C0A0020540A0020DF
:10512000F4090020FC090020EC090020CC09002033
:10513000D4090020C4090020B4090020BC090020C3
:1051400070B500240FE0174B1B689988186802F0AF
:105150005CFB154B1B689988186802F054FB134BD5
:1051600000221A702C46052C1BDC651C2846FFF714
:105170003BFFB0B10E4B53F82430002BE3DD094E5A
:1051800033689988186802F046FB3068FCF7E2F84B
:105190000028E7D0064A52F82430013B42F8243078
:1051A000E0E770BD100C0020140C0020300C002033
:1051B000340C00202DE9F04104460D46FFF714FFA2
:1051C00048B1274B1B7833B9631E1A461E46254B40
:1051D00053F822300BB1BDE8F081234B1878FCF76F
:1051E000A7FE0746C4B2FF220021284601F016F9A7
:1051F0008046C3B21D469C4219D3AC42EBD91B4B2F
:105200001B689988186802F000FB194B1B68998885
:10521000186802F0FAFA5FFA88F1FBB25B1A114AD9
:1052200042F82630104B1878FCF7A4FED3E70F4B5A
:105230001B689988186802F0E8FA0D4B1B6899887A
:10524000186802F0E0FA5FFA88F1FBB2CB1A054A5F
:1052500042F82630044B1878FCF78CFECDE700BFEF
:10526000300C0020340C00204C0C0020140C0020CA
:10527000180C0020F8B5134B01221A700024052CDD
:105280001EDC651C2846FFF7AFFEC8B10E4F002696
:1052900047F824600D4B1B689988186802F0B5FA2E
:1052A0000B4B1B689988186802F0AFFAFF2347F888
:1052B00024303146074B1878FCF75CFE2C46DEE7BD
:1052C000F8BD00BF300C0020340C0020140C00206E
:1052D000180C00204C0C002008B5054B9988186864
:1052E00002F091FA00211620FCF744FE08BD00BF31
:1052F0006409002008B5054B9988186802F085FA02
:1053000001211620FCF736FE08BD00BF640900200D
:1053100008B5094B1B784BB90146052809D8074B3E
:1053200018600B20FCF726FE002008BD4FF0FF3070
:10533000FBE74FF0FF30F8E7240C00202C0C002096
:10534000F8B55C4B1E68304603F004FF05460224A6
:1053500001231F4600E00134052C0ADC564B53F8AC
:105360002400301A03F0F6FE8542F4DD0546274698
:10537000F1E7524B1F60524B1B7833BB514B1B68FC
:10538000002B42D04C4A52F82340A41B204603F085
:10539000E1FE0A287DDD02F075FC4B4B1B68B34231
:1053A00044D0494B1E60494B1860002C63DD484BCC
:1053B00001221A70474B9988186802F024FA464B6C
:1053C0009988186802F021FA2FE002F05BFC3E4B4E
:1053D0001B68B34204D03C4B1E603C4B186024E079
:1053E0003A4B1B68C01A63281FD93A4B9988186832
:1053F00002F00BFA384B9988186802F006FA00237D
:105400002C4A13602E4A13700FE0324B99881868AB
:1054100002F0FBF9304B9988186802F0F6F92A4B34
:105420001E6002F02FFC294B1860F8BD274B1B684B
:10543000C01A6328B9D9274B9988186802F0E5F992
:10544000254B9988186802F0E0F91E4B1B68012B68
:1054500006D0052B0BD1174B40F2B6321A6002E092
:10546000144B00221A60174B00221A60DDE70A2055
:10547000FDF7CEFDF7E7164B00221A70154B998801
:10548000186802F0C2F9144B9988186802F0BBF949
:10549000CBE7104B9988186802F0B7F90E4B998842
:1054A000186802F0B2F9084B1E6002F0EBFB074BE4
:1054B0001860BAE704090020D0A10008280C0020D9
:1054C000240C00202C0C00201C0C0020200C0020A0
:1054D000CA080020E4090020DC090020014B1868FC
:1054E000704700BF280C002008B50D4B01221A7030
:1054F00000230C4A13600C4A13700C4B99881868EF
:1055000002F083F90A4B9988186802F07CF902F0DE
:10551000B9FB084B1860084B1A68084B1A6008BDA5
:10552000240C00202C0C0020CA080020E4090020D4
:10553000DC090020200C0020040900201C0C0020A5
:10554000CBB203EB1123002203E0815C0B449BB23E
:105550000132062AF9DDD8B27047000008B559B10A
:105560000122824009490B7813430B70074B1978CD
:105570003320FCF7FFFC08BD01238340DB435BB213
:1055800002490A7813400B70F0E700BF620C00205C
:1055900030B583B005460820FCF7CAFC044630202D
:1055A000FCF7C6FC8DF8000003128DF801308DF871
:1055B000024024128DF8034000238DF804309842F5
:1055C00011DD01238DF8053000238DF806308DF8AC
:1055D00007302B685C6808236A4640F2A121284600
:1055E000A04703B030BD0023ECE7000010B504462F
:1055F0000920FCF79DFC01280ED002280ED002F0F5
:1056000041FB95280CD9094B53F8243053B1C01AEB
:10561000322809D9012002E0012000E0002010BD5D
:105620000020FCE70120FAE70020F8E7640C0020E6
:1056300030B583B004460120FFF7D8FF054668B1B6
:1056400040F2FF13009300230193204623685B6818
:105650001C4602236A4640F2D121A0472946012078
:10566000FFF77CFF03B030BD30B583B0044689231B
:105670008DF8003042238DF8013072238DF802300E
:1056800085238DF8033001238DF804302C238DF809
:105690000530144B1B781B0143F002038DF80630D4
:1056A00040F2A1316846FFF74BFF8DF80700032059
:1056B000FFF79CFF054640B1204623685B681C4607
:1056C00008236A4640F2A131A04729460320FFF78C
:1056D00045FF044A1378013303F00F03137003B03E
:1056E00030BD00BF5F0C002030B583B004460220FF
:1056F000FFF77CFF054668B1094B6A4693E8030053
:10570000CDE90001204623685B681C46082340F26F
:105710002131A04729460220FFF720FF03B030BD0A
:10572000F4A1000830B583B005460023009301932F
:10573000274B1B78A3BB41238DF8003001238DF844
:10574000013005238DF80230224B1B781B018DF8A8
:10575000063040F221216846FFF7F2FE8DF807007F
:105760000020FFF743FF044640B128462B685B68E2
:105770009C4608236A4640F22121E047214600204A
:10578000FFF7ECFE124A1378B3FA83F35B09137048
:10579000104A1378013303F00F03137003B030BDC8
:1057A00040238DF8003041238DF8013005238DF81A
:1057B000023015238DF8033050238DF80530054B4A
:1057C0001B781B0143F001038DF80630C1E700BFD1
:1057D000610C0020600C002030B583B005462D4BD5
:1057E0001B78002B3CD103238DF8003019238DF852
:1057F000013064228DF8022032228DF803208DF8CA
:10580000043000238DF80530234B1B781B018DF8E5
:10581000063040F245516846FFF792FE8DF80700CA
:105820000420FFF7E3FE044640B128462B685B687E
:105830009C4608236A4640F24551E0472146042031
:10584000FFF78CFE134A1378B3FA83F35B091370E6
:10585000114A1378013303F00F03137003B030BD06
:1058600014238DF8003000238DF801303F238DF88C
:10587000023070238DF803309F238DF8043001230C
:105880008DF80530044B1B781B0143F00A038DF89B
:105890000630BEE75E0C00205D0C00202DE9F843C9
:1058A000044602F0EFF9304B18602178607803026B
:1058B00003F4E0631943A278530103F4787343EAD5
:1058C000D007E578ED0045EA521520796279130298
:1058D00003F4807340EA0308A379DB0103F4F06367
:1058E00043EA5209E67906F00F0601EB810149000F
:1058F0002F20FCF73FFB384603F0CCF91B4903F09F
:105900001DFA01463120FCF743FB404603F0C2F983
:10591000164903F013FA01463720FCF739FB4846D5
:1059200003F0B8F94FF07C5103F008FA0146362035
:10593000FCF72EFB31463420FCF71CFBE179C9094A
:105940003520FCF717FB05EB850569003220FCF7D5
:1059500011FB032E03D00F2E01D0BDE8F8830220E7
:10596000FDF756FBF9E700BF7C0C0020CDCCCC3D09
:1059700003780A2B00D0704710B5044603794179AB
:1059800043EA01213820FCF7F5FAA379E17943EAEB
:1059900001213920FCF7EEFA10BD000010B50446D5
:1059A00041783A20FCF7E6FA617928393B20FCF788
:1059B000E1FAA17928393C20FCF7DCFA637813F08E
:1059C000010F03D1094B00221A6010BD02F05AF9F1
:1059D000064B1B6813B9054B1860F6E7C01A64281C
:1059E000F3D90120FDF714FBEFE700BF780C00208E
:1059F00010B50024042C0BDC064B33F81430834222
:105A000001D00134F6E702F03DF9034B43F82400DE
:105A100010BD00BFE8A10008640C002010B50446CA
:105A2000124B1B6883B92046FFF7B2FD2046FFF7F3
:105A3000FFFD2046FFF718FE0D4A13780133DBB255
:105A40001370092B0BD810BD02F01CF9074B1B6813
:105A5000C01A3128E7D90120FDF7DAFAE3E7134647
:105A600000221A702046FFF73FFEECE77C0C002076
:105A70005C0C002010B50446FFF754FE2046FFF7EB
:105A8000ABFE10BD08B56422002100F0C7FC00EB9E
:105A9000800041003020FCF76DFA08BD08B53120C8
:105AA000FCF746FA08BD000010B5044601462A205E
:105AB000FCF760FA50220021204600F0AFFC4CF2C7
:105AC000503300220249C0B200F0B2FC10BD00BF4A
:105AD0000008004010B5044601462C20FCF74AFAA5
:105AE00050220021204600F099FC4CF25033022253
:105AF0000249C0B200F09CFC10BD00BF000800408D
:105B000008B5074B1B6843B1054B186803F0BEF896
:105B10000146044803F0C6F908BD0020FCE700BFB9
:105B200000090020C0E1E44B08B5074B1B6843B1F6
:105B3000054B186803F0AAF80146044803F0B2F9CF
:105B400008BD0020FCE700BFFC080020C0E1E44BDA
:105B500010B502F097F80446164B1B7823B1154B8D
:105B600000221A70144B1860144B1B7823B1134B8E
:105B700000221A70124B1C602A20FCF7D9F9052864
:105B800004DD0D4B1B68E31AC72B0AD82C20FCF749
:105B9000CFF9052804DD0A4B1B68E41AC72C04D88A
:105BA00010BD0820FDF734FAF0E70920FDF730FAC0
:105BB000F6E700BFFA080020580C0020F908002082
:105BC000540C002010B504460A4903F069FA50B994
:105BD0000949204603F064FA38B90849204603F021
:105BE0005FFA20B910BD0320FCE70220FAE701208C
:105BF000F8E700BF0000C0410000A84100002041BC
:105C000008B5022300221146074801F0C7FD0748E6
:105C100001F0D8F9054801F097F90028FAD00348B7
:105C200001F096F980B208BD000C01400028014047
:105C300010B50446022300221946074801F0AEFDC4
:105C400024B10221044801F0DEFD10BD022102480A
:105C500001F0DBFDF9E700BF000C0140000000008F
:105C600038B50024324D22462B46324800F032FD32
:105C700022462B46304800F02DFD22462B462F4869
:105C800000F028FD22462B462D4800F023FD224639
:105C90002B462C4800F01EFD22462B462A4800F0D9
:105CA00019FD22462B46294800F014FD22462B46BA
:105CB000274800F00FFD1CA3D3E90023254800F07E
:105CC00009FD22462B46244800F004FD22462B46BF
:105CD000224800F0FFFC22462B46214800F0FAFC47
:105CE00022462B461F4800F0F5FC22462B461E4854
:105CF00000F0F0FC22462B461C4800F0EBFC22464C
:105D00002B461B4800F0E6FC22462B46194800F0C3
:105D1000E1FC22462B46184800F0DCFC22462B46CC
:105D2000164800F0D7FC38BD333333333333D33F19
:105D30000000E03F480E0020300E0020180E00202A
:105D4000000E0020E80D0020D00D0020B80D00202E
:105D5000A00D0020880D0020700D0020580D00209F
:105D6000400D0020280D0020100D0020F80C002010
:105D7000E00C0020C80C0020B00C0020980C002083
:105D800038B501F07FFF0446304B1B78012B0BD058
:105D9000022B17D03BB91846FFF74AFF2C4B1C606B
:105DA0002A4B01221A7038BD294B1B68C31A632B7A
:105DB000F9D90120FFF73CFF254B1C60234B022241
:105DC0001A70F0E7FFF71CFF214B1B68E31A1A4615
:105DD0001D4640F2DB53984201D8632A31D9002096
:105DE000FFF726FF1A4B1C60184B01221A70284639
:105DF00002F04CFF174902F0A1FF174903F052F8D7
:105E0000164902F09BFF164902F098FF02F0CEFB04
:105E100002460B46134800F06EFC02F031FE0546C8
:105E2000FFF7D0FE044629462420FCF7B1F82146AE
:105E30002320FCF79FF8012CB5D80720FDF7E8F8E0
:105E4000B1E70120FFF7F4FEADE700BF880C0020AA
:105E5000840C00200AD7233C00401C4600247449CF
:105E600085EB513F880D00202DE9F04F89B0C648E1
:105E7000FCF7D2FF059002F009FF0746C348FCF784
:105E8000CBFF069002F002FF8146C148FCF7C4FF39
:105E9000079002F0FBFE834600264FF08B45DFF8AB
:105EA000F482BD4C2368009333462A464146384667
:105EB00000F098FA8246B94F3B68009333462A4671
:105EC000B749484600F08EFA81462368009333466E
:105ED0002A464146584600F085FA0546206803F0F8
:105EE000F3F80646504603F0EFF83246002100F082
:105EF00095FA02F0CFFE0646386803F0E5F807464B
:105F0000484603F0E1F83A46002100F087FA02F033
:105F1000C1FE0746206803F0D7F80446284603F080
:105F2000D3F82246002100F079FA02F0B3FE0446CD
:105F3000304602F03BFB02460B469A4800F0DBFB82
:105F400002F09EFD01461720FCF722F8384602F0C9
:105F50002DFB02460B46944800F0CDFB02F090FD6D
:105F600001461820FCF714F8204602F01FFB0246F9
:105F70000B468E4800F0BFFB02F082FD014619205F
:105F8000FCF706F88A48FCF747FF042100F030FBD5
:105F900004468848FCF740FF042100F029FB054631
:105FA0008548FCF739FF042100F022FB8046834836
:105FB000FCF732FF062100F01BFB02908048FCF743
:105FC0002BFF062100F014FB03907E48FCF724FF12
:105FD000062100F00DFB04907B48FCF71DFF062115
:105FE00000F006FB83467948FCF716FF062100F017
:105FF000FFFA82467648FCF70FFF062100F0F8FA18
:106000008146204602F0D2FA02460B46714800F063
:1060100072FB06460F46704B186802F0C7FA02463C
:106020000B463046394602F061F902F029FD01467F
:106030001A20FBF7ADFF284602F0B8FA02460B46DD
:10604000664800F058FB06460F46654B186802F09C
:10605000ADFA02460B463046394602F047F902F0E7
:106060000FFD01461B20FBF793FF404602F09EFA0E
:1060700002460B465B4800F03EFB06460F465A4B75
:10608000186802F093FA02460B463046394602F091
:106090002DF902F0F5FC01461C20FBF779FF029870
:1060A00002F084FA02460B46504800F024FB0646F4
:1060B0000F464F4B186802F079FA02460B463046FD
:1060C000394602F013F902F0DBFC01461D20FBF714
:1060D0005FFF039802F06AFA02460B46454800F05B
:1060E0000AFB06460F46444B186802F05FFA024668
:1060F0000B463046394602F0F9F802F0C1FC014681
:106100001E20FBF745FF049802F050FA02460B46AA
:106110003A4800F0F0FA02F0B3FC01462020FBF709
:1061200037FF584602F042FA02460B46344800F068
:10613000E2FA02F0A5FC01461F20FBF729FF5046BA
:1061400002F034FA02460B462E4800F0D4FA02F070
:1061500097FC01462120FBF71BFF484602F026FA78
:1061600002460B46284800F0C6FA02F089FC0146B8
:106170002220FBF70DFF059A052A53D940F6F97343
:106180009A4200F2C38041E0700A0020980A002081
:10619000940A002000801344D8080020DC08002066
:1061A0000000B943480E0020300E0020180E0020D9
:1061B0007C0A0020780A0020740A0020800A00204F
:1061C000680A0020900A00208C0A0020880A00201B
:1061D000840A0020000E0020D4080020E80D0020D2
:1061E000D0080020D00D0020CC080020B80D0020E1
:1061F000900C0020A00D00208C0C0020100D002021
:10620000F80C0020B00C0020980C0020069A052AFB
:106210007ED99A427ED8079A052A7DD99A427DD89E
:10622000002600E001266149204602F02FFF0028E9
:1062300076D15F49204602F033FF002840F0878086
:106240005A49284602F022FF002840F0828058492F
:10625000284602F025FF00287DD15449404602F02F
:1062600015FF002879D15249404602F019FF002855
:1062700075D15049029C204602F008FF002870D1D9
:106280004D49204602F00CFF00286CD14949039C7F
:10629000204602F0FBFE002867D14749204602F065
:1062A000FFFE002863D14349049C204602F0EEFE25
:1062B00000285ED14049204602F0F2FE00285AD163
:1062C0003C49584602F0E2FE002856D13A49584669
:1062D00002F0E6FE002852D13649504602F0D6FEC2
:1062E00000284ED13449504602F0DAFE00284AD147
:1062F0003049484602F0CAFE002846D12E49484699
:1063000002F0CEFE002842D104460AE001268AE7C8
:10631000012688E7012686E7012684E7012682E731
:106320000124002E35D0254B1B8801339BB2234A14
:106330001380132B2FD894B3214B1B8801339BB2AE
:106340001F4A1380132B2CD809B0BDE8F08F01240D
:10635000E7E70124E5E70124E3E70124E1E701247D
:10636000DFE70124DDE70124DBE70124D9E701248D
:10637000D7E70124D5E70124D3E70124D1E701249D
:10638000CFE70124CDE70124CBE70124C9E70124AD
:10639000C7E73346CBE70520FCF73AFECBE72346B9
:1063A000CEE70620FCF734FECEE700BF0000F0C1C8
:1063B0000000DC42000020C20000F042820C0020FD
:1063C000800C002008B5FFF74BFC08BDA0EB010CCA
:1063D0000098C01A00FB0CFC521A9CFBF2FC0CEB60
:1063E00003007047F8B50F4616461C4602F09CFBAA
:1063F00005462146069802F097FB0146284602F022
:106400009DFC05463946304602F08EFB0146284683
:1064100002F048FD214602F089FBF8BD904202DC03
:10642000884202DB704710467047084670470000FC
:1064300038B58446084611461A46BCF1640F01D9A6
:106440004FF0640C541CACFB04C4CCF3130E4FEAA5
:106450001C5343EA0433C3F313039E44C4F31323CE
:106460009E440EEB147E114BA3FB0E53DB0803EB93
:10647000830303EB8303AEEB030EBCEB0E0C64F162
:106480000004DFF82CE00B4B03FB0CF30EFB043392
:10649000ACFB0ECE73444FEA9C0C4CEA837C624505
:1064A00000D3624601F0A5FD38BD00BF1F85EB514A
:1064B000295C8FC2F5285C8F10B5044601F0E2FB21
:1064C000184B186021782520FBF754FD61782620B1
:1064D000FBF750FDA1782720FBF74CFDE178282041
:1064E000FBF748FD2079431EDBB2FD2B05D960790F
:1064F000431EDBB2FD2B0AD910BD02F0C7FB0A49CF
:1065000002F012FB01462120FBF742FDEFE702F00B
:10651000BDFB054902F008FB01462220FBF738FDD0
:10652000EAE700BF640E002000002042F0B583B00F
:1065300007460026009601963D20FBF7F9FC00F087
:1065400003053420FBF7F4FC04460C20FBF7F0FCB9
:10655000A30003F03C032B4343EA80138DF8003083
:10656000344601E00134E4B20F2C12D82046FCF787
:1065700075FD05462046FCF783FD0028F2D0002D6E
:10658000F0D0102DEED8013D0123AB4033439EB235
:10659000E8E78DF80160360A8DF802600F20FBF7FE
:1065A000C7FC8DF803003220FBF7C2FC00F1320378
:1065B0000D4880FB0320DB17FF220021C3EB601096
:1065C000FFF72CFF8DF80400084A1378591C11704E
:1065D0008DF805303B685C6806236A4640F2E1614D
:1065E0003846A04703B0F0BD1F85EB51600E002078
:1065F00006296AD82DE9F0470C46002398461D4627
:1066000039E087424ADB4DE0012E27D0C01B02F063
:1066100041FB8146012E26D04346D81B02F03AFBAF
:106620008246670004EB4403DFF8A48008EB830391
:106630001E79304602F02EFB494602F07FFB5146A0
:1066400002F030FC8146274438F9270005FB06009C
:1066500002F020FB494602F067FA34E0381A02F0F3
:1066600019FB8146D6E74346F81A02F013FB82462F
:10667000D7E70135B84604EB4402154B03EB820320
:106680005B79AB4218D904EB4402114B03EB820354
:106690009A6832F815709E79012EB2D0002EE8D19A
:1066A0008742E6DC002DAFD104EB4404084B33F9FC
:1066B000240002F0EFFA06E0054B03EB8203B3F986
:1066C000020002F0E7FABDE8F0870020704700BF43
:1066D000FCA100084DF804BD93469C46002200230F
:1066E000C0E90023C0E9022300230374C0E902BC0F
:1066F0005DF804BB70472DE9F04104461046194689
:10670000237CCBB1D4E90278D4E900562A4633463B
:1067100001F0ECFD02460B463846414601F09EFF73
:1067200002460B462846314601F0E2FDC4E900016D
:10673000D4E90001BDE8F081C4E90001012323741C
:10674000F6E770B516461C465A2B02D84F2C1AD9BC
:1067500070BD0720FBF7ECFB05461B20FBF7E8FBB1
:10676000281A02F097FA4FF0804102F0A3FC0028AB
:10677000ECD03378053BDAB213F0800F01D03270E1
:10678000E6E78022FBE70220FBF7D2FB044621204C
:10679000FBF7CEFB201A02F07DFA4FF0804102F0A9
:1067A00089FC0028D4D0337805333370D0E770B536
:1067B0000E4614465A2A02D84F2C14D970BD1A20FE
:1067C000FBF7B6FB05460620FBF7B2FB281A02F0E2
:1067D00061FA4FF0804102F06DFC0028ECD0337874
:1067E000053B3370EAE72120FBF7A2FB04460320B8
:1067F000FBF79EFB201A02F04DFA4FF0804102F0A9
:1068000059FC0028DAD0337805333370D6E770B5F9
:10681000044600260660C0F803602620FBF79EFBB6
:1068200020702720FBF79AFB60702520FBF796FB72
:10683000A0702120FBF77CFB05460220FBF778FBCC
:10684000A842D4BF00200120E0700320FBF770FBBA
:10685000A842ACBF0020012020712220FBF768FB7A
:1068600005460520FBF764FBA842ACBF00230123CB
:106870006371A671A378CBB10122237903B10223FE
:106880001A43A84214DA04231343227802B10822DF
:106890001A43637803B110231343E27852B12021E5
:1068A00019430F20FBF766FB204670BD1A46E4E74C
:1068B0000023E9E71146F3E72DE9F04180460C4655
:1068C00015461F20FBF734FB02F0E4F906462120B1
:1068D000FBF72EFB02F0DEF907461B20FBF728FB37
:1068E00002F0D8F998F8032082F001020123236016
:1068F0002271A7600021E160237466610222A26117
:106900002377206298F804205A402B602A71AF60E8
:10691000E9602B746E61BDE8F08100002DE9F0475D
:1069200082460D460024174B9946264600E0013466
:10693000022C15DC04EB44039F0005EB83031A795A
:10694000002AF4D09968504602F0EEF880460146DD
:10695000484602F0AFFB0028E9D0EE59C146E6E711
:106960001F20FBF7E5FA02F095F9074902F084FBD6
:1069700030B931460E20FBF7FDFA3046BDE8F0870E
:106980000226F6E7FFFF7F7F0000A0C12DE9F04758
:1069900082460D4600246FF400039946264600E027
:1069A0000134012C15DC04EB44039F0005EB830349
:1069B0001A79002AF4D09968504602F0B5F880465A
:1069C0000146484602F058FB0028E9D0EE59C1467E
:1069D000E6E731460D20FBF7CDFA3046BDE8F087FB
:1069E0002DE9F04106460F461820FBF7A1FA02F008
:1069F00051F905461920FBF79BFA02F04BF90446C2
:106A0000FFF74CF880465949284602F053FB00280E
:106A100066D14FF07E51204602F02EFB002875D142
:106A20003946304602F080F80546514B196802F0AD
:106A300085F9504C216802F079F8064620604E4BEB
:106A40001968284602F07AF9002102F015FB0028A7
:106A500072D1494B1D60474B1B681E46474918467B
:106A600002F06CF9294602F061F80446444902F04C
:106A700003FB00B9424C0021204602F01BFB00B989
:106A800000243F49204602F00BFB78B129463C48E0
:106A900002F04AF8394902F005FA01460746304645
:106AA00002F008FB00284ED1324B1E600021204628
:106AB00002F0ECFA002848D1204602F02BFBC0B2CD
:106AC000FEF7E0FF2F49204602F038F902F022FBE2
:106AD000FF220521C0B2FFF7A1FCC0B2BDE8F081E2
