:020000040800F2
:1010000000500020D57D0008D17D0008CF7D00086C
:10101000CF7D0008CF7D0008CF7D000800000000D4
:10102000000000000000000000000000D17D00086A
:10103000D17D000800000000D17D0008D17D0008AE
:10104000CF7D0008CF7D0008CF7D0008CF7D000850
:10105000CF7D0008CF7D0008CF7D0008CF7D000840
:10106000CF7D0008CF7D0008CF7D0008CF7D000830
:10107000CF7D0008CF7D0008CF7D0008CF7D000820
:10108000CF7D0008CF7D0008CF7D0008C535000862
:10109000A5350008B5350008CF7D0008011400080B
:1010A000CF7D0008CF7D0008CF7D0008CF7D0008F0
:1010B000CF7D0008F113000839140008CF7D000827
:1010C000CF7D0008CF7D0008CF7D0008CF7D0008D0
:1010D000CF7D0008CF7D0008CF7D0008CF7D0008C0
:1010E000CF7D0008CF7D0008CF7D0008CF7D0008B0
:1010F000CF7D0008CF7D0008CF7D0008CF7D0008A0
:10110000CF7D0008CF7D0008CF7D0008CF7D00088F
:10111000CF7D0008CF7D0008CF7D0008CF7D00087F
:10112000CF7D0008CF7D0008CF7D0008CF7D00086F
:10113000CF7D0008CF7D0008CF7D0008F335000883
:10114000D3350008E3350008CF7D0008CF7D0008C7
:1011500008B58446084611461A46DCF8043098471C
:1011600008BD08B58368984708BD00B54FF0000C6E
:10117000E64604E000BF1CF1010C4EF1000E4B01ED
:1011800043EAD0634201121A63EB01039B0043EA76
:1011900092739200121841EB03031B0143EA12738E
:1011A000120194457EEB0303E4DB00BD10B506F0AD
:1011B00043F91D4B186800F054FE07F073FB1B4900
:1011C00007F078FC01463C2000F0C2FE184801F010
:1011D00001FE07F063FB174907F06CFC01463B205A
:1011E00000F0B6FE06F056FB01F0EAFE124C206855
:1011F00004F0A8FF206804F03FFB04F037FD05F081
:10120000CBFA0E4B186802F091FA0D4B1B782BB9F4
:101210000B4A137883F00103137010BD094B9988B2
:10122000186806F000F9F3E71808002000002041D4
:101230006809002000004B4314080020100800201B
:10124000F80700200009002008B5024B186804F0D8
:1012500055FB08BD1408002008B503F029FF08BDA0
:1012600008B540F22132904210D012D840F2272225
:10127000904203D1084604F0A3FA10E040F2D122D4
:10128000904203D040F22122904208D104F0DEFACD
:1012900005E0B0F5DC6F04D1084604F019FF00202A
:1012A00008BDFCD840F2A1329042EFD040F2455246
:1012B0009042F4D1EAE7000010B5164C00224FF43A
:1012C000DC61206802F0C3F9002240F22721206887
:1012D00002F0BDF9002240F22121206802F0B7F9A6
:1012E000002240F2D121206802F0B1F9002240F240
:1012F0002131206802F0ABF9002240F2A1312068D0
:1013000002F0A5F9002240F24551206802F09FF951
:1013100010BD00BF1408002010B504468188006885
:1013200006F07EF8003818BF0120A379181A18BFFC
:10133000012010BD08B5204B1B6833B106F0AAFA96
:101340001D4B1B68C01A63281BD91C48FFF7E4FF1C
:101350000146262000F0EEFD1948FFF7DDFF0146AB
:10136000272000F0E7FD1748FFF7D6FF01462520AC
:1013700000F0E0FD1448FFF7CFFF0146282000F001
:10138000D9FD04F001FB07F0A7FC0146292000F07D
:10139000D1FD04F00DFB07F09FFC01462B2000F06F
:1013A000C9FD03F085FF04F04FF801460A2000F064
:1013B000C1FD04F0EDFB08BD3C0D002068080020D5
:1013C000780800207008002048090020FEE700008F
:1013D00000B1704710B5054B1B681C4600F088FD36
:1013E000C1B2204602F048FF10BD00BF0C0800202B
:1013F00008B5024B186800F0FBFC08BD1808002077
:1014000008B54FF4807005F0CDFE50B1084B1B7845
:1014100043B1084A1368013313604FF4807005F03C
:10142000BBFE08BD034A1368013B1360F5E700BF2C
:10143000CA0700200408002008B50821214806F04A
:101440008BFA28B910211F4806F086FAE8B908BDC2
:1014500002211C4806F0EBFB1B4B1B683BB183428F
:101460000CD8C31A194A1360194B01221A70164B73
:1014700018600821134806F075FAE3E7C31A03F56C
:1014800043435033114A1360EEE703210D4806F041
:10149000CEFB104B1B683BB183420CD8C31A0E4ADB
:1014A00013600E4B01221A700A4B18601021054878
:1014B00006F058FACBE7C31A03F543435033064A04
:1014C0001360EEE700080040F40700200008002049
:1014D000FA070020F0070020FC070020F907002091
:1014E000F0B5ADF61C0D00F05DFA00F021FBD24E18
:1014F00000223146D14801F0B1FC01223146D048EA
:1015000001F0ACFC02223146CE4801F0A7FC0322D8
:101510003146CD4801F0A2FC04223146CB4801F00F
:101520009DFC05223146CA4801F098FCC94D0022B5
:101530002946C94801F092FCC84C00222146C848FF
:1015400001F08CFC01222146C64801F087FC0222F2
:101550002146C54801F082FC03222146C34801F020
:101560007DFC04222146C24801F078FC0522214678
:10157000C04801F073FC04234FF480723146BE482A
:1015800001F019F907234FF400423146BB4801F03E
:1015900012F9002304222946B94801F00CF9072367
:1015A00008222946B74801F006F9072310222946E8
:1015B000B54801F000F9072320222946B34801F07D
:1015C000FAF8092340222946B14801F0F4F809232A
:1015D00080222946AF4801F0EEF804234FF48072D0
:1015E0002946AD4801F0E7F804234FF4007229467C
:1015F000AA4801F0E0F809234FF400622946A84800
:1016000001F0D9F807234FF480422946A54801F09C
:10161000D2F807234FF480622146A34801F0CBF8AB
:1016200007234FF400622146A04801F0C4F80723C5
:101630004FF4805221469E4801F0BDF807234FF435
:10164000005221469B4801F0B6F807234FF4804230
:101650002146994801F0AFF804F580640723012280
:101660002146964801F0A7F8072302222146944814
:1016700001F0A1F8072304222146924801F09BF8CB
:10168000072308222146904801F095F807231022ED
:1016900021468E4801F08FF80723202221468C48EE
:1016A00001F089F80723402221468A4801F083F897
:1016B000072380222146884801F07DF804F58064E4
:1016C000072304222146854801F075F807230822E4
:1016D0002146834801F06FF80723102221468148F4
:1016E00001F069F800234FF4807221467E4801F032
:1016F00062F800234FF4007221467C4801F05BF849
:1017000000234FF480622146794801F054F8072302
:101710004FF400622146774801F04DF801F0D2FA0B
:1017200000F0DAFA00F094F900F0DAF901F01AFCAE
:1017300000F008FA0DF2EC54012601960096002301
:101740006D4A6E49204600F0A7FC6D4B1C600DF5FC
:10175000BC656C4BCDF8E0356B4BCDF8E0356B4B91
:10176000CDF8E4356A4BCDF8E835E1AC0023022230
:101770006849204601F05CFE674B1C602946204604
:1017800001F056FFFFF798FD32AD3246214628465C
:1017900002F0E6FC614F3D60614B1D600FAE2A46D2
:1017A0002146304602F036FD5E4B1E60002000F000
:1017B0009FFBC1B2304602F05FFD3A685A4B1A6097
:1017C0005A4D05AC2946204600F0B8FA584B196826
:1017D000C1F35911574BA3FB01318909013928463F
:1017E00006F0E1F8544B1C6003225449204600F0F7
:1017F000C9FA14225249204600F0C4FA6422514921
:10180000204600F0BFFAC8224F49204600F0BAFA3D
:101810000021392000F08EFB3D20FFF7D9FD0A2082
:101820000021FFF7A2FC03F0DDFC64200021FFF79C
:101830009CFC03F00FFE9DE000080140940900208D
:10184000900900208C0900208809002084090020CC
:1018500080090020000C01407C090020001001409C
:101860007809002074090020700900206C0900200C
:101870006809002064090020580900205009002050
:1018800048090020400900203809002030090020C4
:101890002809002020090020180900201009002034
:1018A0000809002000090020F8080020F0080020A6
:1018B000E8080020E0080020D8080020D008002018
:1018C000C8080020C0080020B8080020B008002088
:1018D000A8080020A00800209808002090080020F8
:1018E0008808002080080020780800207008002068
:1018F00068080020600800205C9A00080038014059
:1019000008080020748D0008848D0008611200080A
:10191000B9120008006400401408002010080020DC
:10192000F40A00200C080020F00A00200004004007
:10193000EC070020632D3E0518080020591200080E
:101940003513000849120008AD1100081C4619E0C3
:1019500004300DF10B0103F081F85CB103AB94E8A6
:10196000030083E80300204602F0FEFE21460FA894
:1019700002F0ABFC00228DF80B209DF8C430002B48
:10198000E4D02FAC054B186800F070FD044B1868CC
:101990004369002BE1D10028DAD1DAE708080020FA
:1019A0000C08002008B5274805F094FE4FF0E0230E
:1019B000254AC3F80C2D40F2023005F0E9FE40F252
:1019C000033005F0E5FE4FF4417005F0E1FE40F212
:1019D000053005F0DDFE40F2063005F0D9FE40F29C
:1019E0000E3005F0D5FE40F20B3005F0D1FE4FF47D
:1019F000607005F0CDFE40F2813005F0C9FE40F286
:101A0000823005F0C5FE4FF4207005F0C1FE40F2B3
:101A1000093005F0BDFE40F20A3005F0B9FE40F293
:101A2000862005F0B5FE4FF4407005F0B1FE40F29F
:101A3000993005F0ADFE054A536843F400735360D6
:101A400008BD00BFC89E00080003FA050000014061
:101A500030B597B005F0E2FA00F5FF3505F2FD1557
:101A6000AD0201AC14220021204600F09EFE1A4B6C
:101A700001931823ADF8083001238DF80A300022B5
:101A80008DF80B20154903914FF44071ADF81010FB
:101A90008DF812208DF8133005F0A4FA1421204699
:101AA00005F0AEFA15902B6D834201D117B030BD11
:101AB00005F056FC284605F00FFC002407E001ABBA
:101AC00053F8241005EB840005F064FC0134142C59
:101AD000F5D905F051FCE9E700100140000C014088
:101AE00008B51D2006F0E2F900211D2006F0EAF9F4
:101AF0001E2006F0DBF901211E2006F0E3F90B4958
:101B00004FF4807005F056FB02214FF4807005F011
:101B100011FB4FF4807005F031FB172006F0C6F979
:101B20000221172006F0CEF908BD00BF00080140D1
:101B300008B54FF41C71032005F0E4FE002005F009
:101B4000B3FE08BD38B54FF0804005F027FF0A21ED
:101B50004FF0804005F027FF00214FF0804005F056
:101B600009FF4FF6FF714FF0804005F01EFF4FF068
:101B7000804005F0FAFE564D4FF4006302221146F4
:101B8000284605F013FC062211464FF0804005F070
:101B90000EFF06214FF0804005F0CFFF06214FF0E9
:101BA000804005F0E4FF06214FF0804006F004F885
:101BB000002206214FF0804006F023F84FF08040CD
:101BC00005F0E7FE4FF4407301220021284605F09E
:101BD000EDFB404C204605F0E1FE8F21204605F04C
:101BE000E2FE4CF25031204605F0DFFE204605F0C3
:101BF000CBFE0F220221204606F028F80522022102
:101C0000204606F04BF800220221204605F094FE03
:101C10000221204606F075F80821204605F098FEBE
:101C200000220321204606F011F806220321204657
:101C300006F034F800220321204605F07DFE032142
:101C4000204606F05EF81021204605F081FE402374
:101C500002221146284605F0A9FB06220021204653
:101C600005F0A5FE0021204605F067FF0021204673
:101C700005F07DFF0021204605F09EFF0022114661
:101C8000204605F0BEFF802302221146284605F0BB
:101C90008DFB06220221204605F089FE0221204606
:101CA00005F04BFF0221204605F061FF022120468E
:101CB00005F082FF00220221204605F0A2FF01214B
:101CC000204605F0AEFF204605F063FE38BD00BF9C
:101CD000000C01400008004010B582B009238DF8C7
:101CE0000730154C204604F023FF204604F02AFF5D
:101CF000204604F03CFF0721204604F004FF0DF1CC
:101D000007020121204604F037FF4FF460212046EE
:101D100004F0D2FE204604F0BDFE002301E000BF27
:101D20000133772BFBDD044C204604F0CFFE204628
:101D300004F0DFFE02B010BD0028014038B50546B2
:101D40000C460162084605F010FE204605F01CFE18
:101D50000A4B1968C1F31A11094BA3FB0131C909D8
:101D60000139204605F01FFE4FF6FF71204605F0B1
:101D70001CFE00236B62284638BD00BFEC07002024
:101D8000C55A7C0AF8B5436A032B00DDF8BD04464A
:101D90000D461646006A05F001FE636A0122134FE4
:101DA000F95C206A05F003FE636A0022F95C206A90
:101DB00005F027FF636A44F8235003F1080106EB9E
:101DC000860202EB8202920024F81120022199403F
:101DD000206A05F0BDFD0021206A05F035FF206A6C
:101DE00005F0D7FD636A01336362CFE78C8D00088D
:101DF000F8B5054600242AE00226A6403146286AA6
:101E000005F0AAFD40B3286A05F00FFF87B22B6AE0
:101E100003EB84035A6B04F1080135F811100A44EE
:101E20005A6355F824309847286A05F0FEFEC01B17
:101E300004F10C0325F813003146286A05F092FDE1
:101E400004E00221A140286A05F08CFD0134032C36
:101E500006DC6B6AA342CFDC6B6AA342F6DCF0E7D8
:101E6000F8BD0146002210460FE002F10C0331F8E4
:101E700013304FF47A7C0CFB03F302F1080C31F8B9
:101E80001CC093FBFCF3184401324B6A9342ECDC18
:101E900070470000024B1A68024BC3F86026704777
:101EA000C0070020F400002008B5C0EBC0020B4BB7
:101EB00003EB8203DB688B420EDC084B03EB8203EF
:101EC0001B698B4201DAFF2007E0054B43F8201025
:101ED000FFF77EFA002000E0FF2008BDF40000209C
:101EE00000000020014B53F8200070470000002044
:101EF000024B53F820004011704700BF0000002043
:101F000008B5054B53F8200006F0CCFC4FF0745197
:101F100006F01CFD08BD00BF00000020044B53F874
:101F200020004011012814BF00200120704700BF8D
:101F3000000000204901024B43F82010704700BF09
:101F400000000020014B43F82010704700000020E3
:101F500010B5044608464FF0844106F0F7FC06F041
:101F6000BBFE024B43F8240010BD00BF0000002060
:101F700070B506460024074D3C2C09DC31466868E4
:101F800000F072FB10B101341C35F5E7E0B270BD12
:101F90003E20FCE7F40000200023064A3C2B07DC2F
:101FA000118B814202D001331C32F7E7D8B270475F
:101FB0003E207047F4000020C0EBC000014B03EB53
:101FC00080007047F400002038B50024074D01E080
:101FD00001341C353C2C07DC2B8B002BF8D06969B5
:101FE000E0B2FFF7AFFFF3E738BD00BFF400002019
:101FF000014B1954704700BF1C080020024A135CB3
:102000000B431354704700BF1C080020024A135CA6
:1020100023EA0103135470471C080020014B185C8D
:10202000704700BF1C080020C0EBC000024B03EB50
:102030008003987E704700BFF4000020004870477E
:102040000A94010008B5FFF725FF08BD08B5202157
:10205000806805F0B6FE08BD08B5806805F0A9FEE9
:1020600008BD10B504464368597A586805F03AF837
:10207000636804F12A02597A586805F045F86368E4
:102080008022597A586805F04FF86368597A586881
:1020900005F01FF810BD000070B504460D46534909
:1020A000016053490160856003730261012101757C
:1020B0004175817500228261C26180F820204262F0
:1020C00080F828109DF8101080F829109DF8141041
:1020D00080F82A1247494160032A07D861680868D6
:1020E000A84203D01C3161600132F5E7424A146016
:1020F000002B74D062685069002B73D063681B8B0F
:102100000222032105F052F94FF4E131284605F08F
:10211000FFFD0821284605F00DFE4FF4005128462A
:1021200005F011FE0C21284605F019FE0021284675
:1021300005F00FFE0021284605F017FE284605F0A1
:102140002AFE284605F02CFE6368197A586804F0C8
:102150006BFF6368197A586804F0B2FF63682E1D3C
:102160003246197A586804F0C6FF63680022197A6B
:10217000586804F083FF63680022197A586804F0F5
:1021800071FF6368197A586804F084FF6368597AAC
:10219000586804F049FF63683246597A586804F079
:1021A000AAFF63680022597A586804F067FF6368E1
:1021B0000022597A586804F055FF6368597A5868C4
:1021C00004F068FF6368597A586804F082FF20467B
:1021D000FFF747FF284605F0CEFD204670BD626838
:1021E000D06889E763681B8A8AE700BFDC9900082A
:1021F000E8990008EC9900085C08002038B50D4605
:102200000469437D3BB1216839B1284600F02CFABE
:1022100018B10834F7E71C4601E023680BB12046EB
:1022200038BD1C46FBE738B504460D4601E00023E7
:1022300073B163680222197A586804F00AFF002813
:10224000F5D194F828300BB10346F1E70123EFE70D
:102250006368197A586804F045FF6368AAB2197A6E
:10226000586804F061FF636894F82020D201A83216
:1022700022440232197A586804F046FF6368022249
:10228000197A586804F0E0FE6368197A586804F017
:1022900020FF94F82030B3FA83F35B0984F82030F0
:1022A000002384F8283038BD10B50446837D73B10F
:1022B0000A2910D0436A7F2B0DD090F8202000EB24
:1022C000C2121A4482F8AA100133436210BD80681A
:1022D00005F056FDFAE794F82030626A04EBC31368
:1022E000134483F8AA10511C2046FFF79CFF0023DB
:1022F0006362EBE710B50C46802A28BF80221146A6
:102300004FF0000C0AE090F8203014F80CE000EBDD
:10231000C313634483F8AAE00CF1010C8C45F2D39B
:10232000FFF781FF10BD38B505460C46084600F0A2
:10233000B2F9024621462846FFF7DCFF38BD00000F
:1023400010B50446084600F0F9F900F0DEF9237DE7
:1023500083420DD000236375237B0BB36268506901
:102360000BB363681B8B0122002105F01FF810BD21
:1023700001236375237B6BB1626850696BB163683D
:102380001B8B0222032105F011F808492046FFF7B4
:10239000CAFFECE76268D068F0E763681B8AF0E781
:1023A0006268D068DCE763681B8ADCE7B8960008DF
:1023B00030B585B00446084600F0C0F90378302BEC
:1023C00013D0322B0ED04FF461231D46637D83B9A9
:1023D0002946A06805F09CFC0021A06805F0B3FC2C
:1023E00005B030BD0E4B1D46F0E74FF4E1331D46FE
:1023F000ECE70A22294601A800F05DF909492046C8
:10240000FFF791FF08492046FFF78DFF01A92046FD
:10241000FFF789FF05492046FFF785FFD8E700BF92
:102420001055220090940008989400087C990008A8
:1024300010B50446084600F081F9037823B1303B1B
:1024400018BF012384F8293094F8293023B10549B5
:102450002046FFF768FF10BD03492046FFF763FFE2
:10246000F9E700BFA8940008B4940008F8B5044642
:102470004368597A586804F050FE0646C0F180055A
:1024800058B92046FFF7EDFD07E05A1CE2612344EE
:1024900093F82A10A06805F073FC94F8293013B162
:1024A000E369AB42F1DB0821A06805F08AFCE0B9E2
:1024B0007F2E28DCC6F17F03234493F82A300A2BB1
:1024C00017D00D2B15D094F82A30212B1BD1A369DE
:1024D000CBB12046FFF7C5FD0023E361A3695B682C
:1024E00004F5D571204698470DE0A06805F061FC21
:1024F000DEE76368597A586804F0F4FD7E2E03DD48
:102500002046FFF7AEFDF8BD6319002283F82A20AC
:10251000E26104F12A072021384600F0C3F806469C
:10252000037823BB0A21384600F0BCF80646002396
:1025300084F8AA31337803B300233370A3612A49A6
:10254000384600F091F80646E8B904F5D571204602
:10255000FFF7F6FEA369002B3CD0A06805F02DFC28
:10256000A3695B6804F5D57120469847C8E7411C0C
:1025700004F5D57000F086F8DCE70D21384600F050
:1025800091F80646D8E71949384600F06DF8064636
:1025900068B994F82A322BB104F5D5712046FFF7BB
:1025A00007FFD7E712492046FFF7BDFED2E71149E2
:1025B000384600F059F8064628B904F5D57120468A
:1025C000FFF736FFC6E739462046FFF717FEA06142
:1025D0002E46BFE7012E93DD637D002B90D0064988
:1025E0002046FFF7A0FE8BE7C0940008CC940008BB
:1025F000D8940008F4940008FC94000808B5044B33
:102600001B681A681268C1B21846904708BD00BF1F
:102610005C080020704708B500F00CFD08BD000004
:1026200000B583B00649D1F8F027D1F8EC37D1F8DE
:10263000E8170091034900F0EBFA03B000BD00BFBA
:1026400000F0FF1F1895000810B50446FFF7BCFC0A
:102650000249204600F0DCFA10BD00BF2C950008AE
:1026600008B502F0FBF908BD431E013913F8010F4C
:1026700011F8012F10B10AB19042F7D0801A18BF9B
:1026800001207047013911F8013F0BB90370704701
:1026900000F8013BF7E70023C25C0AB9184670470F
:1026A0000133F9E703461A7818461AB18A4203F152
:1026B0000103F8D17047002970B51EDA2D230124DB
:1026C00000F8013B4942064691FBF2F302FB13116D
:1026D00030313170191E354606F10106F4DC002256
:1026E0000346201A30443270AB420BD21A78297854
:1026F00003F8011B05F80129F6E704D130234170E6
:102700000370012070BD0024DDE730B503782D2B68
:1027100011D14FF0FF34013000210A25431E01E0A2
:1027200005FB012113F8012F303AD0B20928F7D95F
:1027300004FB01F030BD0124EEE7000010B5144C9D
:1027400002780146A2F10A03DBB2162B1BD824FA49
:1027500003F3DA0700F10100F2D40846FFF79BFF0C
:1027600001380844814204460AD203780A3BDBB2AE
:10277000162B05D8064A013822FA03F3DB07F1D4F9
:102780000023637001E0002AE7D1084610BD00BFB6
:1027900009004000002310B5934200D110BD51F84C
:1027A000234040F823400133F6E702B97047013A6D
:1027B00040F8041BF9E7F8B50D4616461C460160C3
:1027C000828000238371052C30D00AD9082C32D0A6
:1027D0001AD8062C41D0072C42D1002403231F46CF
:1027E00030E0032C1CD009D8012C13D0022C02D1CC
:1027F00000231F4622E002241F4623E0042C28D198
:10280000012400231F461DE0092C2DD1022403239F
:102810001F4617E001238371022400231F4611E0A5
:1028200001238371022400231F4607E001248471E1
:1028300000231F4606E0012403231F463146284695
:1028400004F0E9FD334622463946284604F0AEFD41
:10285000F8BD022400231F46F4E700242746F1E7D1
:10286000022400231F46EDE7022400231F46E9E768
:10287000024B4FF400421A80704700BF60090020ED
:1028800008B5FFF7F5FF08BD70B50C1EACBF0123FE
:102890004FF0FF335C430133064608BF2D234FF052
:1028A000640208BF06F8013B611104F01F040546ED
:1028B000544330460A22FFF7FEFE2E226411092CF3
:1028C0003254D8BF302206EB0003D8BF5A702146DD
:1028D0004FF00A02CCBF581C981CFFF7ECFE2846AC
:1028E00070BDF0B5027803462D2A13D14FF0FF30AA
:1028F000013300250A2702E007FB052501331C7878
:10290000A4F13002D6B2092EF6D9A4B98D402544DF
:102910006843F0BD0120ECE78A4002EB660292FBBF
:10292000F6F20CFB06F6144413F8012F303AD7B236
:10293000092FF1D9EAE70A260024B446F4E72DE985
:10294000F04105460F46161E02DD0A46002108E04A
:102950004FF0200813F001041BD0002422E00131C5
:10296000013210780028FAD1B14206DA761A13F053
:10297000020F04D14FF02008ECE70026F7E74FF0F4
:102980003008E7E72B681B68414628469847013422
:10299000013E002EF6DC05E02B681B6828469847B0
:1029A0000134013739780029F6D106E02B681B681D
:1029B0004146284698470134013E002EF6DC204669
:1029C000BDE8F08170B584B00646DDF828C059B185
:1029D0001D460B4615B10A2A11D0002500218DF89D
:1029E0000D100DF10D0416E030238DF800308DF838
:1029F0000110099B089A6946FFF7A1FF32E0002900
:102A000001DB0025EAE74B420125E7E7303104F816
:102A1000011DB3FBF2F34BB1B3FBF2F102FB113139
:102A20000929F3DDACF13A000144EFE79DB1089BC1
:102A300063B1099B13F0020F08D0304633681B685E
:102A40002D219847089B013B089304E02D2304F8AF
:102A5000013C013C0025099B089A21463046FFF7BE
:102A60006EFF284404B070BD08B50846FFF7C6FDE8
:102A700008BDF0B585B0074616461D466846FFF707
:102A800003FF2B46324669463846FFF758FF05B02C
:102A9000F0BD000070B588B006460C4605920025D2
:102AA00087E0A21C012391E000222178A1F1300CE3
:102AB0005FFA8CFCBCF1090F06D802EB82023039B8
:102AC00001EB42020134F0E773291AD0642923D0C4
:102AD000782930D058293DD075294AD0662957D059
:102AE000632965D10599081D059009688DF81C10AA
:102AF00000218DF81D1007A93046FFF720FF05447F
:102B000056E00599081D0590096801B93549304618
:102B1000FFF715FF05444BE00599081D059009686E
:102B2000612002900193009201230A223046FFF7B0
:102B300049FF05443CE00599081D0590096861209E
:102B4000029001930092002310223046FFF73AFFD3
:102B500005442DE00599081D059009684120029063
:102B600001930092002310223046FFF72BFF05440B
:102B70001EE00599081D05900968612002900193E7
:102B8000009200230A223046FFF71CFF05440FE0A5
:102B90000599081D059009683046FFF76AFF05444E
:102BA00006E0144633681B682178304698470135A3
:102BB000013423789BB1252BF4D1621C637873B167
:102BC000252BEED02D2B3FF46CAF0023144622783A
:102BD000302A7FF469AF013443F00203F7E7284657
:102BE00008B070BDA09500080FB400B583B004AA6A
:102BF00052F8041B054B0193009201A8FFF74AFF0E
:102C000003B05DF804EB04B0704700BFD49A00082D
:102C10000EB400B582B003AA52F8041B0192FFF76C
:102C200039FF02B05DF804EB03B07047174B184A48
:102C30001360991C174A1160191D174A1160991DDC
:102C4000164A116003F10801154A116003F10A01E7
:102C5000144A116003F10C01134A116003F10E01D3
:102C6000124A116003F11001114A116003F11201BF
:102C7000104A116003F114010F4A116003F11601AB
:102C80000E4A116018330E4A1360704798090020ED
:102C900094090020900900208C0900208809002058
:102CA00084090020800900207C0900207809002088
:102CB00074090020700900206C09002068090020B8
:102CC0006409002030B583B0334B93E8030002ABB6
:102CD00003E903000025002D2CDD304C304A012192
:102CE000204604F008FA2F4A0121204604F00CFA8D
:102CF0004FF480720121204604F0C0F94FF4806245
:102D00000121204604F0AEF99C220121204604F066
:102D10000BFA0121204604F0BDF90121204604F000
:102D2000C2F90121204604F0D4F91F4803F052FFF4
:102D300003B030BD02AB03EB850353F8084C2046CB
:102D400003F0F6FE204603F0F8FE204603F00AFFEB
:102D5000204603F0FCFE0121204603F0D4FE20466D
:102D600003F098FE204603F0B1FE204603F0C1FEBA
:102D700005EB450305EB83030C4A1A440D2120465D
:102D800003F0FAFE204603F02FFF4FF460212046A7
:102D900003F092FE01359EE7D89A00080000024039
:102DA0004C2401409809002000240140D00A002052
:102DB000884205DD914209DC90420ADD10467047E9
:102DC000904206DC914203DD10467047084670478A
:102DD0000846704730B583B0046800250BE0A28E2A
:102DE000618B2088FFF7E4FF02AB03EB450323F878
:102DF000080C01354E34032DF1DDBDF80000BDF89F
:102E000002301844BDF804301844BDF806301844A8
:102E1000C0F38F0003B030BD08B50F4B98420BD004
:102E200003F58063984211D0A3F50063984205D161
:102E3000072903DCC8B204E0012903DD03F032FEF8
:102E4000102008BDC9B20831C8B2FAE70529F5DC7F
:102E5000C9B20A31C8B2F4E7000C014070B50546AA
:102E60000E461446012393409BB200221146304681
:102E700004F09CFA2B68054A9B1A5D1021463046E7
:102E8000FFF7CAFFABB2024AD05470BD98090020C8
:102E9000D00A002008B5FFF7C9FE08BD08B504F048
:102EA000BDF800F5FF3000F2FF10800208BD2DE9EB
:102EB000F043ADF2044DFFF7F1FF06460246002352
:102EC0004FF0FF3503E052F8041B0D400133FF2B98
:102ED000F9DD04F087F84FF480724FF0FF31684657
:102EE000FFF763FC002400E001343C2C1AD8E7B261
:102EF0003846FFF799F80028F6D13846FFF75CF816
:102F000080463846FFF78AF80DEBC40989F80300BC
:102F1000B8F818202DF834203846FEF7E3FFC9F83A
:102F20000400E1E7FE21684604F06AF8FE9004F030
:102F300017FAB5F1FF3F01D100240AE0304604F052
:102F4000CBF9F9E75DF8241006EB840004F022FACF
:102F50000134FF2CF6D904F00FFAFE980DF2044D5F
:102F6000BDE8F083F8B5FFF799FF064604F03AF89C
:102F7000FE21304604F044F8D6F8F833834201D1FC
:102F8000002503E04FF0FF3019E001357E2D15D804
:102F900036F83500FFF700F804463E28F5D0FFF775
:102FA00043F80028F1D106EBC50779682046FEF703
:102FB000C9FFF9782046FFF71BF8E6E70020F8BDC7
:102FC000014B1860704700BFE00A002003280AD8B0
:102FD000064B03EBC0035B680BB918467047034B05
:102FE00013F8300070470020704700BFA007002092
:102FF000032801D900207047024B03EBC003586837
:10300000704700BFA007002008B5074B03EBC102C3
:1030100092F804C053F83130044A52F82C2001468B
:103020000348FFF7E1FD08BDEC9A0008E09A0008AC
:10303000A895000810B50C4B5B680BB1002409E0A3
:103040000A48FFF7D1FD10BD074B13F83410FFF706
:10305000DBFF0134032CF6D8034B03EBC4035868A1
:103060000028F1D1EFE700BFA0070020B8950008C5
:1030700000B58BB0104B01EB410203EB820C53F80F
:103080002220DCF804C001EB410103EB81039B68C3
:10309000D0F858020021089107910693CDF814C08A
:1030A000049203910291019100910B46012203F0D9
:1030B000ADFD0BB000BD00BF089B0008F0B583B0AC
:1030C00004460D4616461F4672B60121D0F8580236
:1030D00003F0AFFE019600970023B5F5006F34BFF3
:1030E000002201222946D4F8580203F0A7FE002846
:1030F00006DBD4F85432002B18DC62B603B0F0BD06
:10310000D4F85432132BF4DC03F1110204EB021255
:1031100055609760316804EB0312C2F81C117168A6
:10312000C2F820110133C4F85432E2E70121D4F887
:10313000580203F07AFEE0E7012801DD0020704725
:10314000014B53F820007047E40A002030B58BB0E3
:1031500004460D460AE09DF8213006AA099920464A
:1031600000F0B2FA04F096FBC4F8F80000230593CF
:1031700006AB04930DF12103039308AB02930DF109
:10318000220301930DF12303009309AB0122E9B25D
:10319000D4F8580203F0C7FE0028DCD10BB030BDD4
:1031A00030B583B0044600F58A7504E0D4F8543293
:1031B000013BC4F85432D4F85432002B17DD03F12C
:1031C0008053013B1A0105EB0313A9585A680833D1
:1031D0000193D2B200920023B1F5006F34BF0022F8
:1031E0000122D4F8580203F029FE0028DEDAD4F8D0
:1031F00054320BB103B030BD0121D4F8580203F0B2
:1032000018FEF7E770B584B00E4615461C461068E8
:10321000B3F800C05A889B88B4F806E05B019BB203
:10322000520192B24FEA4C1C1FFA8CF14FF0010C84
:10323000CDF808C000EA0C0CCDF804C04FEA4E1CD3
:103240001FFA8CFCCDF800C003F0D2FD00233360E0
:103250002A6801322A60E380A3806380238004B05F
:1032600070BD70B584B00E4615461C461068B3F8A4
:1032700000C05A889B88B4F806E05B019BB25201FB
:1032800092B24FEA4C1C1FFA8CF14FF0010CCDF8B2
:1032900008C000EA0C0CCDF804C04FEA4E1C1FFA1F
:1032A0008CFCCDF800C003F093FD002333602A6846
:1032B00001322A60A380238040F2FF73E3806380A1
:1032C00004B070BD70B582B00E4615461C4610683D
:1032D0001968C9005A68D20001230093034042F0E4
:1032E000040241F0040103F093FD002333602A68D7
:1032F00001322A606360236002B070BD30B58BB0CC
:103300000546002308930993474906AA03C982E8A2
:10331000030004930593039302930193D5F8582275
:10332000424B9A420AD0A3F58063D3F8003AC3F324
:10333000052300930024C2F81C4221E00023F8E793
:1033400004F11E0205EB8202516871B3029A501C0F
:1033500002900DF1280C0CEB420C2CF8103C0232C0
:1033600002920AAB03EB400020F8101C039B042BD5
:1033700024D0029B022B28D0019B022B2CD001349D
:10338000D5F8F430A3422EDD05EB84035B68B3F57A
:10339000006FD5D3019A23F060430AA901EB8201A3
:1033A00041F8183C01320192E0E7039A0AA901EBC7
:1033B000420121F8083C01320392D7E708AB6A4684
:1033C00003A92846FFF71EFFD3E706AB6A4602A90A
:1033D0002846FFF746FFCFE704AB6A4601A9284617
:1033E000FFF770FFCBE7039B002B07DC029B002B52
:1033F0000BDC019B002B0FDC0BB030BD08AB6A4629
:1034000003A92846FFF7FEFEF0E706AB6A4601A9CE
:103410002846FFF726FFECE704AB6A4601A92846D9
:10342000FFF750FFE8E700BF449B0008006400403E
:10343000F8B504460D4616461F4600F0E3F8544B17
:1034400023600023C4F85432C4F85852514B9D42B3
:103450002FD003F580639D4258D1002F00F0828069
:103460004D4D202302220021284603F09FFF2021FA
:10347000284603F0D0FF402302220321284603F010
:1034800095FF402004F012FDF021402004F01AFDC9
:10349000412004F00BFDF021412004F013FD3F20FA
:1034A00004F004FDF0213F2004F00CFD3B4B5C6078
:1034B0002CE0002F41D0384D4FF4807302220021C0
:1034C000284603F073FF4FF48071284603F0A3FFF2
:1034D0004FF4007302220321284603F067FF1420F3
:1034E00004F0E4FCF021142004F0ECFC152004F0BE
:1034F000DDFCF021152004F0E5FC132004F0D6FCDF
:10350000F021132004F0DEFC244B1C60D4F8580298
:1035100003F070FB31462046FFF7AAFD2046FFF777
:10352000EDFE0221D4F8580203F07FFC1021D4F8FC
:10353000580203F07AFC2046F8BD194D4FF40063A1
:1035400002220021284603F031FF4FF40061284693
:1035500003F061FF4FF4805302220321284603F059
:1035600025FFBCE70C4D4FF4805302220021284672
:1035700003F01CFF4FF48051284603F04CFF4FF43A
:10358000005302220321284603F010FF79E700BF11
:10359000FC9A000800640040000C0140E40A00208E
:1035A0000008014008B50020FFF7C6FD0021FFF725
:1035B000CDFD08BD08B50020FFF7BEFD0121FFF7D6
:1035C000C5FD08BD08B50020FFF7B6FDFFF7E8FD13
:1035D00008BD08B50120FFF7AFFD0021FFF7B6FDDC
:1035E00008BD08B50120FFF7A7FD0121FFF7AEFDDB
:1035F00008BD08B50120FFF79FFDFFF7D1FD08BD0D
:1036000070477047084B03600023C0F8F430C0F8DF
:10361000FC3005E003F14002044940F82210013378
:10362000042BF7DD704700BF549B0008C40700203F
:10363000D0F8FC30042B01DD0020704703F140027C
:1036400040F822100133C0F8FC300120704710B55B
:103650001446D0F8F4201D2A0CDD002010BD0133E3
:103660009A420ADD00EB830CDCF804107145F6D1B8
:103670000020F3E78E460023F2E700EB8203C3F855
:1036800004E002F11E0300EB83035C600132C0F82A
:10369000F42003689B6898470120DFE738B50546AA
:1036A0000024C0F8F44003689B68984707E004F1E1
:1036B000400355F8230003685B6898470134D5F848
:1036C000FC30A342F3DC38BD2DE9F84305468946BA
:1036D00090461F4600240AE004F1400355F82300F9
:1036E00003681E683B4642464946B0470134D5F858
:1036F000FC00A042F0DCBDE8F88370B5054600F19F
:10370000300634460BE034F8043BC3F3C02123F405
:103710000063002203EB41716868FFF798FFA31B69
:10372000242B02DCA378322BEDD170BD2DE9F041C2
:1037300082B0054600F108073E46F31B242B00F338
:103740009380B378322B00F08F8000230093019395
:10375000B37803EB4304A40058342C441AE0C0F3BC
:1037600007231B0443EA0063C0F3074243EA022332
:1037700043EA1063E2791F2A3DD8C2F11F0223FAFF
:1037800002F2009B13430093647A04EB4404A40008
:1037900058342C44637AFF2B5DD0354B1B78002BBB
:1037A00062D12079FEF7ACFB0146206805F0CEF827
:1037B000804694F9060005F075F8414604F0BEFF16
:1037C00005F08AFA94F908C08CEAEC71A1EBEC716F
:1037D000C9B24FF0FF328A4020EA0200BCF1000F6C
:1037E000BDDBE2791F2A20D9203A00FA02F2019BC0
:1037F00013430193C8E79444BCF11E0F07DDC2F1E7
:103800003F0223FA02F2019B13430193BCE7A2F1AA
:103810001F0003FA00F0009901430091C2F13F023A
:10382000D340019A1A430192AEE702EB0C03202B1E
:1038300005DC00FA02F2009B13430093A4E700FAB0
:1038400002F1009B0B430093C2F12002D040019B88
:103850000343019398E7686803685C6808236A4635
:1038600036F8041BA04768E702B0BDE8F08100BF4E
:10387000EC0A002010B509B302F10C0E00EB8E0E1D
:103880000A2A46D89EF80210322944D001EB410C96
:103890004FEA8C0C0CF1580C844400210C469CF827
:1038A0000910FF2933D073B1013BDBB201EB4101B9
:1038B00089005831644600EB010CF0E702F1020E7A
:1038C00000EB8E0EDCE72CB16172FF238CF809301F
:1038D00001201FE0322904D08EF80210F5E70133F1
:1038E000DBB29918092904DC0EEB830189783229AF
:1038F000F5D1013BDBB20EEB830291788EF802101A
:103900003EF82330AEF8003032239370DDE700201C
:1039100000E0002010BD0020FCE7F8B500F108032E
:1039200000263446354637463DBB1A462C46A2EBA8
:10393000030CBCF1240F27DC92F802C0BCF1320F5B
:1039400022D00CEB4C0E4FEA8E0E0EF1580E864430
:10395000002609E00136F6B20CEB4C0C4FEA8C0C59
:103960000CF1580C00EB0C0E9EF809C0BCF1FF0FD7
:1039700006D0BEF804E08E45ECD15DB10020F8BD64
:103980000134E4B20432D2E700F130033D460122B3
:103990001746C9E7334622463946FFF76BFFEEE785
:1039A00070B514461E460023079A137000F10805EF
:1039B000002B46D12A46531B242B3ADC92F802C036
:1039C000BCF1320F35D00CEB4C0E4FEA8E0E0EF1DF
:1039D000580E864407E00CEB4C0C4FEA8C0C0CF1B3
:1039E000580C00EB0C0E9EF809C0BCF1FF0F1ED066
:1039F000BEF804308B42EED11388C3F3C02223609B
:103A000023F40063236043EA427323609EF8073087
:103A100033709EF90820049B1A70DEF80020059B85
:103A20001A609EF90620069B1A70012070BD0432B0
:103A3000C1E7079B1B780122079D2A7000F1300522
:103A4000B6E70020F2E78446D9B102F10C0100EBA1
:103A500081010A2A27D88A78322A26D002EB42022C
:103A6000920058320CEB0200427AFF2A19D063B15F
:103A7000013BDBB202EB4202920058320CEB020037
:103A8000F2E7911C00EB8101E3E70B88C3F3C0224E
:103A900000990B6023F400630B6043EA42730B60F0
:103AA00070470020704700207047002070472DE9C4
:103AB000F04385B00646884600F1080900273B46DA
:103AC0002FE02B88C3F3C02C23F4006194F9083055
:103AD000E2792079029794F906E0CDF804E0D4F871
:103AE00000E0CDF800E041EA4C71C047647A04EB95
:103AF0004404A40058343444637AFF2BE1D10435E4
:103B0000A5EB0903242B08DCAB78322B05D003EBA3
:103B10004304A40058343444EEE706F130093B4630
:103B200001270BB94D46EBE705B0BDE8F083002354
:103B300006E001EB83024FF0320C82F802C0013341
:103B4000092BF6DD002307E003EB430200EB8202C2
:103B5000FF2182F861100133322BF5DD704710B57B
:103B6000044600F10801FFF7E2FF04F130012046AE
:103B7000FFF7DDFF6068FFF791FD10BD2DE9F04113
:103B80000F4615461E460024A0460AE0286803F0AA
:103B900031FA804655F8041B07EB840003F0FAFB6A
:103BA0000134B442F2DB4046BDE8F081084600E053
:103BB0000430431A242B0ADC8378322B05D0038887
:103BC000534033F40063F3D102E00020704700203B
:103BD000704700004B4B1B7803B170472DE9F04153
:103BE000054616460A4600F13001FFF7DFFF0028C0
:103BF00000F08580837803EB4304A40058342C4400
:103C000042E01F2B53D83068C0F30722120442EA67
:103C10000062C0F3074742EA072242EA1062C3F19A
:103C20001F03DBB201208840013822FA03F3184059
:103C300004F034FE074694F9060004F033FE3946DA
:103C400004F07CFD0146206804F080FE07462079E0
:103C5000FEF7EAF920B12079FEF7E6F9012849D10B
:103C6000B4F804804FF08441384604F06FFE05F04C
:103C700033F801465FFA88F0FEF716F9647A04EB30
:103C80004404A40058342C44637AFF2B37D0E379E2
:103C900094F9082082EAE271A1EBE271C9B2002A2C
:103CA000AFDB1F2B18D97268203BDBB2BAE71A448E
:103CB0001F2A03DD7068203BDBB2A5E75B1ADBB28D
:103CC0000133DBB23068D8407268C3F120039A40F8
:103CD00010434B1EDBB297E71A44202A01DC3268FE
:103CE000A0E73268DA407068C3F1200398400243CD
:103CF000002397E739462079FEF72AF9BEE7BDE8A9
:103D0000F08100BFEC0A00202DE9F8439DF82070F7
:103D10009DF92460002E76D004460D4691469846C3
:103D200086EAE673A3EBE673DBB2202B6ED8002E97
:103D30000BDDBB19402B6CDC424629462046FFF7C1
:103D400035FF844658B100221BE03F2F64D87BB278
:103D50003344B3F1FF3FEFDA6FF0010051E000218F
:103D6000092907DC05EB81039A78322A01D0013159
:103D7000F6E79C46BCF1000F51D0ACF80080E2E7BA
:103D80000132312A07DC02EB420304EB830393F890
:103D90006130FF2BF4D1322A44D09CF8023000214C
:103DA0000AE003EB430189005831214403EB43034C
:103DB00004EB830393F86130322BF2D102EB420320
:103DC00004EB8304A4F85C900A9BA3659DF92C3056
:103DD00084F85E3084F85F7084F86060322384F881
:103DE000613019B14A722B46002004E08CF80220A1
:103DF000F9E7013004335A1B242A02DC9A78322A6C
:103E0000F7D1BDE8F8836FF00200FAE76FF0020027
:103E1000F7E76FF00100F4E76FF00100F1E76FF0F2
:103E20000300EEE76FF00400EBE7B2F5006F16D287
:103E300000B585B09DF920C0CDF80CC0DDF81CC0E0
:103E4000CDF808C09DF918C0CDF804C00093134602
:103E50000A4600F10801FFF757FF05B000BD4FF01B
:103E6000FF30704770B584B005461446C2F3407009
:103E700022F00052B2F5006F1DD29DF928C0CDF896
:103E80000CC0DDF824C0CDF808C09DF920C0CDF8E5
:103E900004C0009342EAC0230A4605F130012846D7
:103EA000FFF732FF0646002221466868FFF7CFFB86
:103EB000304604B070BD4FF0FF331E46F8E72DE9E1
:103EC000F04F89B08346059206938A46079131E008
:103ED000B4F9020004F0E6FC002303930290CDF84D
:103EE000048000953B46049A05993046FFF70CFF85
:103EF0000634A4EB09032A2B1ADC94F90530002BB5
:103F000016DD2088FEF748F80490DBF80060BAF868
:103F10000070257994F90580069B002BD8D0B4F960
:103F2000020004F0BFFC4FF0745104F00FFDD3E722
:103F30000AF1320A079BAAEB0303B3F5E17F0ADC1F
:103F4000BAF800104FF6FF73994204D00AF1020547
:103F50002C46A946CDE709B0BDE8F08F08B503F0BF
:103F60005DF800F5FF3000F5FF70800208BD70B508
:103F700082B006460190FFF7F1FF0446D0F8E853FF
:103F800003F030F8FA21204603F03AF8854202D0D7
:103F9000002002B070BD01AD002332460832214638
:103FA0002846FFF78CFF01233246303204F5FA71C0
:103FB0002846FFF784FF0120EBE7F8B505460F46DA
:103FC0000E460EE02079FDF7F7FF038BA380647A9D
:103FD00004EB4404A40058342C44637AFF2BF1D141
:103FE0000436F31B242B08DCB378322B05D003EB0B
:103FF0004304A40058342C44EFE7F8BDF8B5054657
:104000000F460E460DE0A088FDF7C6FFA080647A3B
:1040100004EB4404A40058342C44637AFF2BF2D1FF
:104020000436F31B242B08DCB378322B05D003EBCA
:104030004304A40058342C44EFE7F8BDF0B583B036
:104040000546FFF78BFF064602462A4B01211970F1
:1040500000234FF0FF3403E052F8041B0C400133FF
:10406000FF2BF9DD02F0BEFF03F07AF9022003F026
:104070006DF9B4F1FF3F38D105F1080739462846FC
:10408000FFF79BFF05F1300421462846FFF795FF17
:104090000A233A4631462846FFF770FD0A23224696
:1040A00006F128012846FFF769FD0190962305F1E6
:1040B000580206F150012846FFF760FD01900123E8
:1040C00001AA06F52D712846FFF758FD03F054F9B3
:1040D00039462846FFF792FF21462846FFF78EFF14
:1040E000044B00221A7003B0F0BD304603F0F4F820
:1040F000C2E700BFEC0A0020F8B50646FFF72EFF26
:104100000446D0F8B45202F06DFFAA21204602F016
:1041100077FF854203D03046FFF729FFF8BD06F14F
:1041200008070A2221463846FEF734FB06F130051F
:104130000A2204F128012846FEF72CFB962204F1FE
:10414000500106F15800FEF725FB39463046FFF7CF
:1041500055FF29463046FFF751FF0120DEE70000FA
:1041600038B50446084615460D4B23600D4B2360B9
:1041700061602146FFF75CFA04F108012046FFF771
:10418000D6FC04F130012046FFF7D1FC25B92046CA
:10419000FFF7B3FA204638BD2046FFF7ADFFF6E73C
:1041A000748D0008789B0008036ED3B14FF47A73C6
:1041B000036604E0036E002B07DD01233BB1826D33
:1041C000C36D9A42F6D00023F8E70023F6E7836D2B
:1041D0005A1C826503F03F03034419764FF0FF3306
:1041E00043617047A0F10400FFF7DEBF10B504463D
:1041F000017C002201F5C0618068FFF728FA617C2C
:104200003F2900D910BD002201F5B061A068FFF779
:104210001EFAF7E710B504460846144B2360144B0A
:104220006360144B236014336360A160E260012378
:104230002374FF2363744FF0FF3363610023A3658E
:104240004022E2654FF47A7222663E2284F86420AE
:10425000A36684F87830E36784F888302146FFF756
:10426000E7F92046FFF7C2FF204610BD748D000815
:10427000DC990008889B000808B501748068FFF786
:104280000DFA08BD10B582B004468DF80010ADF8E7
:1042900001309DF810308DF80330059B0193437C6D
:1042A00093420DD1002384F87830A068617C0368C4
:1042B0005C6808236A4601F5C061A04702B010BDE2
:1042C00042748068FFF7EAF9ECE738B504460A461D
:1042D0008068217C03685D68082301F5B061A84708
:1042E000002384F8883038BDB1F8012045F201037D
:1042F0009A4211D0012380F888300B7880F8803002
:10430000B1F80130A0F88130CB7880F883304B6869
:10431000C0F88430002070470B78402B01D000207B
:1043200070474FF0FF330B714B7100238B71CB71D2
:1043300041220A704FF47A72026683654023C36596
:10434000CB784361012070472DE9F04184B00746E6
:104350000C46B1F80120C2F3C0131E46CD7825B13A
:10436000013D05EBD575C5F3470503AB00932B461F
:1043700002F03F023146F868FFF765FB804623787C
:10438000402B0DD0232B3DD080232370002323719D
:1043900063710223A3710623E37104B0BDE8F081C9
:1043A00030B30079FDF708FE028BE37823B9039B55
:1043B000636043232370F0E713F0010F09D098F8EE
:1043C000073042EA034298F9083042EA0362626029
:1043D000EFE71549D8F8000004F0B8FA04F07CFCC7
:1043E00020F07F4398F9062043EA02636360E0E728
:1043F000802323700023237163710223A37106239A
:10440000E371CAE70028BFD06368002BBCD1B4F8C1
:1044100001202B4602F03F023146F868FFF72AFAE6
:1044200060232370B9E700BF00007A440B78232B88
:1044300000D070472DE9F04184B005460C46164681
:10444000CB7883B94B68B3F1005F04D323F00052FB
:10445000B2F5006F03D2AB666023237019E04FF012
:10446000FF3383660CE0826E1746B2F1FF3F01D046
:10447000012B11D095F9742090460AB1022B1DD062
:10448000802323700023237163710223A371062309
:10449000E37104B0BDE8F081486880B2FDF77CFDAF
:1044A000A5F870006368C3F3054385F8733063684B
:1044B0001B1685F874303C28CED9E1E7606840F3DC
:1044C000170004F0EFF9154904F0F4FAE8666368A0
:1044D0001B1685F87230A6B102930190CDF80080CA
:1044E00095F873303A4695F87010E868FFF7BAFC13
:1044F000002385F874304FF0FF33AB660028ABDA49
:10450000BEE702930190CDF8008095F873303A46EB
:1045100095F87010E868FFF788FCE9E700007A4436
:1045200038B504460D460A7802F06003602B31D09E
:10453000B1F80130B3F5005F5AD003F47F40B0F515
:10454000045F55D0E16819B1B3F5405F00F0858094
:1045500021B143F2010C634500F0858019B1B0F53B
:10456000445F00F0868045F203018B4200F08680B4
:1045700045F204018B4240F09B80402A00F091807C
:1045800080232B7000232B716B710223AB710623E8
:10459000EB7119E002F010020A700122072A0EDC0A
:1045A000E36DA16D5B1A402B09D0E36D591CE165E9
:1045B00003F03F0323441B7EAB540132EEE7E36D6F
:1045C000A16D5B1A402B09D0A068217C03685C6850
:1045D00008232A4601F5B061A04738BD2B7843F087
:1045E00001032B70C2F1080243EA42032B70EBE790
:1045F000E87803F47F42B2F5045F0CD03C2822D85F
:104600002B78232B0DD0402BDED1FDF76BFC68609F
:1046100043232B70D8E71B029BB21844FDF7BCFC68
:10462000ECE76968FDF740FC10B960232B70CBE71D
:1046300080232B7030232B7100236B710923AB7106
:104640000623EB71C0E780232B7000232B716B7165
:104650000223AB710623EB71B6E700222946204600
:10466000FFF7E4FEB0E7012229462046FFF7DEFE11
:10467000AAE729462046FFF767FEA5E7402A09D0AA
:1046800080232B7000232B716B710223AB710623E7
:10469000EB7199E7E878FEF799FC686043232B708B
:1046A00092E7E878FEF7A4FC686043232B708BE761
:1046B00029462046FFF718FE002885D18DE7000027
:1046C000F0B583B004461546037C03F5C0638B4206
:1046D00007D0437C1E4603F5B0638B4205D003B080
:1046E000F0BD1146FFF71CFFF9E7B2F801301F4695
:1046F000A3F540539BB2012B08D92B78803B18BF00
:10470000012384F878306B68E367E8E7D378ABB1CE
:10471000012BF2D11349C06E04F018F904F0DCFA51
:1047200094F9723040EA03630193022300933B46FD
:10473000324623212046FFF7A5FDDEE7B0F87030B2
:1047400090F8732043EA024390F9742043EA02632D
:104750000193012300933B4632462321FFF792FD4C
:10476000CBE700BF00007A4410B50446B0F8013032
:10477000B3F5A04F0DD045F20202934234D080230E
:1047800023700023237163710223A3710623E37155
:1047900010BD0278402AEED143230370C378022B68
:1047A00013D007D863B1012B14D12E4BD3F8EC37BB
:1047B0004360EDE7032B0DD1FDF740FC6060E7E7B8
:1047C000284BD3F8E8374360E2E7264BD3F8F037BD
:1047D0004360DDE78023237000232371637102238C
:1047E000A3710623E371D3E72378232BC7D160237A
:1047F0002370E378012B21D009D9022B26D0032B7B
:1048000026D1FDF7E1FB3D20FCF7E2FDC0E7FBB957
:10481000154B1B784BB172B6144B186808B1FFF7F3
:104820000DFCFEF744FB62B6B2E780232370002341
:1048300023716371A3710823E371A9E772B6FEF7D0
:1048400091FB62B63D20FCF7C3FDA1E703F026FB18
:10485000802323700023237163710223A371062335
:10486000E37195E700F0FF1FC8070020F00A002061
:104870002DE9F04184B00E46174698469DF8304029
:10488000FDF79AFB43681D461449154B1868FEF75F
:10489000BFF9ECB11349124B1868FEF7B9F94FF0A4
:1048A00084410A9804F052F80D4B1C689DF92C3095
:1048B000039304F011FA0290CDF804800097334678
:1048C0002A4609492046FEF7A3F904B0BDE8F08165
:1048D0000649034B1868FEF79BF9E0E7E4950008EA
:1048E000F80A0020EC950008F4950008F0950008FF
:1048F00070B505460846FDF721FF06462021FDF765
:10490000D1FE0378A3B1002300F8013B0521FDF798
:10491000E8FF04463046FDF72BFB3E2812D0214627
:10492000FDF7C2FA48B90A492846FEF771F903E0D3
:1049300008492846FEF76CF970BD07492846FEF77E
:1049400067F9F9E7324605492846FEF761F9F3E7CA
:10495000249600080896000830960008489600083B
:10496000F8B507460846FDF7E9FE054609E02A4680
:104970000F493846FEF74CF9254605F8016B2C2EF9
:1049800014D12C212846FDF78DFE0446067800231D
:1049900003702846FDF7ECFA3E28E8D0FDF7A2FAAE
:1049A000024604493846FEF733F9E5E7F8BD00BF93
:1049B00068960008609600082DE9F0410646084612
:1049C000FDF7BCFE07462021FDF76CFE03789BB186
:1049D00004460546002305F8013B3846FDF7C8FAB2
:1049E00080463E2829D06378212B0AD07E2B08D020
:1049F0002F2B06D0002406E013493046FEF708F9B5
:104A00000FE0A51C012429461048FDF72DFE50B9E2
:104A100074B101214046FDF7F9FA0D493046FEF721
:104A2000F7F8BDE8F0810B493046FEF7F1F8F8E7FA
:104A300001214046FDF7E2FAEFE73A4606493046E3
:104A4000FEF7E6F8EDE700BF8496000894960008AC
:104A5000AC9600089C960008489600082DE9F04F97
:104A60008BB007460846FDF769FE03780593464973
:104A70003846FEF7CDF800264FF0200822E0434AE2
:104A8000039202930190CDF800A04B464246404964
:104A90003846FEF7BDF82846FDF7C6FA20B128468D
:104AA000FDF7C2FA01285AD1E268236961692068DA
:104AB00002960190009137493846FEF7A9F84FF069
:104AC0002C0801363C2E51D8F5B22846FDF774FA71
:104AD00004462846FDF7A2FA10F0010F02D0059B0C
:104AE000682BEED1D4F80490D4F808A0B4F818B02C
:104AF0002846FDF7F7F90290CDF804B0CDF800A0F4
:104B00004B46424624493846FEF782F80DF11F0312
:104B100003930DF11E03029309AB01930DF11D03E5
:104B2000009307AB08AA29461C480068FEF738FF27
:104B30000028B0D0DDF820809DF81C909DF91DA0C4
:104B40004FF08441099803F001FF04F0C5F89DF986
:104B50001E309DF81F20002A91D0114A90E711497C
:104B60003846FEF755F84FF02C08AAE70E4BD3F85D
:104B7000F0270E493846FEF74BF80D493846FEF748
:104B800047F80BB0BDE8F08FD0960008C896000833
:104B90000497000868970008D4960008F40A0020DB
:104BA000C09600085497000800F0FF1FB89700084F
:104BB000F49700082DE9F0478AB0074600230593D3
:104BC00006930793089309930846FDF7B7FD047809
:104BD000702C38D0632C44D02021FDF763FD03787E
:104BE000002B47D0FDF7AAFD06462021FDF75AFD10
:104BF00003780BB9642C44D10546002305F8013B2A
:104C00003046FDF7B5F9064681462846FDF796FD84
:104C100080463E2E3AD0642C3DD000231D464FF0F6
:104C20007E539A46042D62DC20214046FDF73AFD72
:104C300006460378002B39D1022D37DC5949384616
:104C4000FDF7E6FF1AE0584B1B68002BFBD1564CD2
:104C500027605649564B1868FEF729FF002323604A
:104C60000CE0534B1868FEF77AFF52493846FDF7BF
:104C7000CFFF03E04B493846FDF7CAFF0AB0BDE855
:104C8000F08748493846FDF7C3FFF7E74A493846F9
:104C9000FDF7BEFFF2E73146454B1868FEF73DFED3
:104CA000024646493846FDF7B3FFE7E70023337075
:104CB0004046FDF72AFD032D0DD00AAB03EB85031B
:104CC00043F8140C30460130FDF738FD80462B4682
:104CD00001331D46A6E710214046FDF702FE03F012
:104CE000E1FD4FF05E5103F031FE8246EAE7742C9D
:104CF0001FD09DF924300293CDF804A09DF91C30FB
:104D000000939DF81830059A494629480068FFF736
:104D1000A9F810F1030F2ED01CDD10F1020F24D0E2
:104D2000B0F1FF3F33D1059A25493846FDF770FFB2
:104D3000A4E79DF924300293CDF804A09DF91C301E
:104D400000939DF81830059A494619480068FFF706
:104D50006CF8DEE710F1050F13D010F1040F16D137
:104D600018493846FDF754FF88E7069A1649384631
:104D7000FDF74EFF82E7079A14493846FDF748FFD2
:104D80007CE7059A12493846FDF742FF76E701288D
:104D900006DD104B024610493846FDF739FF6DE736
:104DA0000E4BF7E724980008F80A00207148000825
:104DB000F40A002000980008389800084C98000871
:104DC00064980008C8980008789800088C98000833
:104DD000A0980008FC970008E4980008BC9600081A
:104DE00010B50D4B1B7893B1044672B60B4B186887
:104DF000FFF724F90A492046FDF70AFFFEF757F8A6
:104E0000024662B607492046FDF702FF10BD06497B
:104E1000FDF7FEFEFAE700BFC9070020F40A0020F4
:104E200010990008209900083C99000810B5044624
:104E300072B6FEF797F862B638B93D20FCF7C8FAAB
:104E400004492046FDF7E4FE10BD03492046FDF766
:104E5000DFFEF9E7809900089499000808B503F08F
:104E60001DF82DE9F843054688461746002604E05C
:104E700023782C2B16D1BE4214D22C212846FDF7C4
:104E800011FC044690F80090002303702846FDF7BB
:104E90006FF8254605F8019B3E28E9D008F8060082
:104EA0000136E5E73046BDE8F88300002DE9F04122
:104EB00084B006460846FDF741FC0446FDF725FC94
:104EC000804620212046FDF7EDFB03784BB10A22F6
:104ED00001A90130FFF7C5FF07463046FDF7BCF8D2
:104EE00020E018493046FDF793FE04B0BDE8F0819C
:104EF00004F110036B4413F80C0CFCF7F3FF0346AA
:104F00002A4611493046FDF783FE01340F4DBC425D
:104F1000EEDB0F493046FDF77BFEB8F1FF3F01D0D5
:104F200008F1FF383046FDF791F80028DDD18045C3
:104F300002DD084D0024EAE7B8F1FF3FD5D1054D69
:104F40000024E4E7AC990008CC9900080097000819
:104F50007C990008BC96000808B5042856D019DCD6
:104F600002282FD003283FD0012811D1394B3A4ACB
:104F70001A603A4B3A4A1A603A4B3B4A1A6014207C
:104F80003A4B1860FCF7B4FF394B1860012008BD9C
:104F90000020FCE705284BD0062811D12D4B354ABF
:104FA0001A602E4B344A1A602E4B344A1A60122073
:104FB0002E4B1860FCF79CFF2D4B18600120E6E794
:104FC0000020E4E7234B2E4A1A60244B2D4A1A6036
:104FD000244B2D4A1A601520244B1860FCF788FFDB
:104FE000234B18600120D2E71A4B284A1A601B4B4A
:104FF000274A1A601B4B274A1A6010201B4B186067
:10500000FCF776FF1A4B18600120C0E7114B224ACB
:105010001A60124B214A1A60124B214A1A60112061
:10502000124B1860FCF764FF114B18600120AEE7CB
:10503000084B1C4A1A60094B1B4A1A60094B1B4A51
:105040001A601320094B1860FCF752FF084B1860D8
:1050500001209CE7040B002090080020000B00209A
:1050600080080020FC0A002088080020380B00205F
:105070003C0B0020A808002098080020A008002071
:105080004009002030090020380900205009002084
:10509000F0080020F8080020E8080020C8080020D8
:1050A000D0080020C0080020B0080020B808002068
:1050B00070B500240FE0174B1B689988186802F040
:1050C000ACF9154B1B689988186802F0A4F9134BCA
:1050D00000221A702C46052C1BDC651C2846FFF7A5
:1050E0003BFFB0B10E4B53F82430002BE3DD094EEB
:1050F00033689988186802F096F93068FCF70CF963
:105100000028E7D0064A52F82430013B42F8243008
:10511000E0E770BDFC0A0020000B00201C0B002003
:10512000200B00202DE9F04104460D46FFF714FF47
:1051300048B1274B1B7833B9631E1A461E46254BD0
:1051400053F822300BB1BDE8F081234B1878FCF7FF
:10515000CFFE0746C4B2FF220021284600F06AFFB6
:105160008046C3B21D469C4219D3AC42EBD91B4BBF
:105170001B689988186802F050F9194B1B689988C8
:10518000186802F04AF95FFA88F1FBB25B1A114A1B
:1051900042F82630104B1878FCF7CCFED3E70F4BC3
:1051A0001B689988186802F038F90D4B1B689988BC
:1051B000186802F030F95FFA88F1FBB2CB1A054AA1
:1051C00042F82630044B1878FCF7B4FECDE700BF58
:1051D0001C0B0020200B0020380B0020000B0020AF
:1051E000040B0020F8B5134B01221A700024052C83
:1051F0001EDC651C2846FFF7AFFEC8B10E4F002627
:1052000047F824600D4B1B689988186802F005F96F
:105210000B4B1B689988186802F0FFF8FF2347F8CA
:1052200024303146074B1878FCF784FE2C46DEE725
:10523000F8BD00BF1C0B0020200B0020000B00203D
:10524000040B0020380B002008B5054B998818681E
:1052500002F0E3F800211620FCF76CFE08BD00BF49
:105260006008002008B5054B9988186802F0D3F84B
:1052700001211620FCF75EFE08BD00BF600800207B
:1052800008B5094B1B784BB90146052809D8074BCF
:1052900018600B20FCF74EFE002008BD4FF0FF30D9
:1052A000FBE74FF0FF30F8E7100B0020180B002051
:1052B000F8B55B4B1E68304603F054FD05460224EA
:1052C00001231F4600E00134052C0ADC554B53F83E
:1052D0002400301A03F046FD8542F4DD05462746DA
:1052E000F1E7514B1F60514B1B7833BB504B1B6890
:1052F000002B42D04B4A52F82340A41B204603F017
:1053000031FD0A287ADD02F0C5FA4A4B1B68B34228
:1053100044D0484B1E60484B1860002C60DD474B62
:1053200001221A70464B9988186802F074F8454BB0
:105330009988186802F071F82FE002F0ABFA3D4B43
:105340001B68B34204D03B4B1E603B4B186024E00B
:10535000394B1B68C01A63281FD9394B99881868C4
:1053600002F05BF8374B9988186802F056F8002372
:105370002B4A13602D4A13700FE0314B998818683F
:1053800002F04BF82F4B9988186802F046F8294B29
:105390001E6002F07FFA284B1860F8BD264B1B6890
:1053A000C01A6328B9D9264B9988186802F035F8D5
:1053B000244B9988186802F030F81D4B1B68012BAC
:1053C00005D0052B07D01A4B00221A60E5E7144BD5
:1053D00000221A60F7E7124B40F2B6321A60F2E789
:1053E000164B00221A70164B9988186802F015F8AF
:1053F000144B9988186802F00EF8CEE7104B998884
:10540000186802F00AF80F4B9988186802F005F83E
:10541000084B1E6002F03EFA074B1860BDE700BF64
:1054200004080020A09B0008140B0020100B002093
:10543000180B0020080B00200C0B0020CA070020CE
:10544000E0080020D8080020014B1868704700BF12
:10545000140B002008B50D4B01221A7000230C4AD2
:1054600013600C4A13700C4B9988186801F0D5FF33
:105470000A4B9988186801F0CEFF02F00BFA084B2E
:105480001860084B1A68084B1A6008BD100B002002
:10549000180B0020CA070020E0080020D8080020D0
:1054A0000C0B002004080020080B0020CBB203EBFB
:1054B0001123002203E0815C0B449BB20132062AD7
:1054C000F9DDD8B27047000008B559B10122824019
:1054D00009490B7813430B70074B19783420FCF7FC
:1054E00029FD08BD01238340DB435BB202490A78F2
:1054F00013400B70F0E700BF460B002008B50820F2
:10550000FCF7F6FC002800DD08BD41F6FF70FBE764
:1055100010B504460920FCF7EBFC01280ED0022848
:105520000ED002F0B7F995280CD9094B53F8243066
:1055300053B1C01A322809D9012002E0012000E04D
:10554000002010BD0020FCE70120FAE70020F8E76A
:10555000480B002030B583B004460120FFF7D8FF88
:10556000054668B140F2FF130093002301932046E3
:1055700023685B681C4602236A4640F2D121A0479B
:1055800029460120FFF7A0FF03B030BD30B583B03E
:10559000044689238DF8003042238DF801307223B0
:1055A0008DF8023085238DF8033001238DF8043007
:1055B0002C238DF80530144B1B781B0143F002039C
:1055C0008DF8063040F2A1316846FFF76FFF8DF885
:1055D00007000320FFF79CFF054640B120462368E3
:1055E0005B681C4608236A4640F2A131A047294661
:1055F0000320FFF769FF044A1378013303F00F0318
:10560000137003B030BD00BF430B002030B583B032
:1056100004460220FFF77CFF054668B1094B6A4645
:1056200093E80300CDE90001204623685B681C462F
:10563000082340F22131A04729460220FFF744FF0A
:1056400003B030BDC49B000830B583B005460023CD
:1056500000930193274B1B78A3BB41238DF80030A7
:1056600001238DF8013005238DF80230224B1B7881
:105670001B018DF8063040F221216846FFF716FF26
:105680008DF807000020FFF743FF044640B128468D
:105690002B685B689C4608236A4640F22121E0475C
:1056A00021460020FFF710FF124A1378B3FA83F364
:1056B0005B091370104A1378013303F00F03137062
:1056C00003B030BD40238DF8003041238DF8013008
:1056D00005238DF8023015238DF8033050238DF803
:1056E0000530054B1B781B0143F001038DF8063094
:1056F000C1E700BF450B0020440B002030B583B04C
:1057000005462D4B1B78002B3CD103238DF8003030
:1057100019238DF8013064228DF8022032228DF891
:1057200003208DF8043000238DF80530234B1B78BF
:105730001B018DF8063040F245516846FFF7B6FE72
:105740008DF807000420FFF7E3FE044640B1284629
:105750002B685B689C4608236A4640F24551E04747
:1057600021460420FFF7B0FE134A1378B3FA83F3FF
:105770005B091370114A1378013303F00F031370A0
:1057800003B030BD14238DF8003000238DF80130B4
:105790003F238DF8023070238DF803309F238DF85E
:1057A000043001238DF80530044B1B781B0143F0B6
:1057B0000A038DF80630BEE7420B0020410B0020A3
:1057C00038B50446C078A37843EA002002F0E4FC30
:1057D0001BA3D3E9002302F049FD02F059FF014663
:1057E00005463020FCF7B4FB217928393120FCF73D
:1057F000A1FB6179C1F300113720FCF79BFBE17934
:1058000094F9074001F00F013520FCF793FB002CC1
:1058100014DB00213620FCF78DFBFFF76FFE03F051
:1058200041F8294603F092F8074903F043F903F0E1
:1058300053FA01463220FCF77DFB38BD0121E9E730
:105840009A9999999999B93F0000C84210B50024D6
:10585000042C0BDC064B33F81430834201D00134A6
:10586000F6E702F017F8034B43F8240010BD00BF21
:10587000B89B0008480B002030B583B00446FFF702
:105880003DFE05462F20FCF733FB8DF80000031288
:105890008DF801308DF802502D128DF80350002341
:1058A0008DF8043098421EDD01238DF80530002369
:1058B0008DF806308DF8073023685D6808236A4646
:1058C00040F281212046A8472046FFF743FE2046AC
:1058D000FFF75CFE084A13780133DBB21370092B23
:1058E00003D803B030BD0023DFE7134600221A704F
:1058F0002046FFF78BFEF4E7400B002010B504466E
:10590000FFF7A2FE2046FFF7F9FE10BD08B564229E
:10591000002100F08FFB00EB800041002F20FCF7FE
:1059200009FB08BD08B53020FCF7E2FA08BD00000D
:1059300010B5044601462A20FCF7FCFA502200214B
:10594000204600F077FB4CF2503300220249C0B2EF
:1059500000F07AFB10BD00BF0008004010B50446FF
:1059600001462C20FCF7E6FA50220021204600F0E8
:1059700061FB4CF2503302220249C0B200F064FBDA
:1059800010BD00BF0008004008B5074B1B6843B1BD
:10599000054B186802F082FF0146044803F08AF8BC
:1059A00008BD0020FCE700BF00080020C0E1E44B78
:1059B00008B5074B1B6843B1054B186802F06EFF32
:1059C0000146044803F076F808BD0020FCE700BF5C
:1059D000FC070020C0E1E44B10B504460A4903F07F
:1059E00067F950B90949204603F062F938B9084906
:1059F000204603F05DF920B910BD0320FCE702202A
:105A0000FAE70120F8E700BF0000C0410000A8410C
:105A10000000204108B5022300221146074801F08A
:105A2000C5FC074801F0D6F8054801F095F80028B4
:105A3000FAD0034801F094F880B208BD000C014090
:105A40000028014010B504460223002219460748E9
:105A500001F0ACFC24B10221044801F0DCFC10BDD3
:105A60000221024801F0D9FCF9E700BF000C014017
:105A700038B50024324D22462B46324800F038FC1F
:105A800022462B46304800F033FC22462B462F4856
:105A900000F02EFC22462B462D4800F029FC224621
:105AA0002B462C4800F024FC22462B462A4800F0C6
:105AB0001FFC22462B46294800F01AFC22462B46A2
:105AC000274800F015FC1CA3D3E90023254800F06B
:105AD0000FFC22462B46244800F00AFC22462B46A7
:105AE000224800F005FC22462B46214800F000FC2D
:105AF00022462B461F4800F0FBFB22462B461E4841
:105B000000F0F6FB22462B461C4800F0F1FB224633
:105B10002B461B4800F0ECFB22462B46194800F0B0
:105B2000E7FB22462B46184800F0E2FB22462B46B4
:105B3000164800F0DDFB38BD333333333333D33F06
:105B40000000E03F200D0020080D0020F00C002098
:105B5000D80C0020C00C0020A80C0020900C0020C5
:105B6000780C0020600C0020480C0020300C002035
:105B7000180C0020000C0020E80B0020D00B0020A7
:105B8000B80B0020A00B0020880B0020700B002019
:105B900038B501F07FFE04462D4B1B78012B0BD04E
:105BA000022B17D03BB91846FFF74CFF294B1C605E
:105BB000274B01221A7038BD264B1B68C31A632B72
:105BC000F9D90120FFF73EFF224B1C60204B022237
:105BD0001A70F0E7FFF71EFF1E4B1B68E31A1A4608
:105BE0001D4640F2DB53984201D8632A2CD900208D
:105BF000FFF728FF174B1C60154B01221A7028462F
:105C000002F04CFE144902F0A1FE144902F052FFCA
:105C1000134902F09BFE134902F098FE02F0CEFAFF
:105C200002460B46104800F074FB02F031FD0446BA
:105C300001462420FCF78CF92046FFF7CDFE0146F3
:105C40002320FCF777F9B6E70120FFF7FBFEB2E768
:105C5000600B00205C0B00200AD7233C00401C4650
:105C60000024744985EB513F600C00202DE9F04F72
:105C700083B0B948FDF7AEF802F010FE0646B7480B
:105C8000FDF7A8F802F00AFE8246B548FDF7A2F833
:105C900002F004FE05464FF000084FF08B47DFF896
:105CA000C492B14C2368009343463A464946304675
:105CB00000F0A4F98346AD4E3368009343463A465C
:105CC000AB49504600F09AF9824623680093434658
:105CD0003A464946284600F091F98046206802F08D
:105CE000FBFF0546584602F0F7FF2A46002100F068
:105CF000A1F902F0D7FD0746306802F0EDFF054636
:105D0000504602F0E9FF2A46002100F093F902F024
:105D1000C9FD0546206802F0DFFF0446404602F058
:105D2000DBFF2246002100F085F902F0BBFD0446AE
:105D3000384602F043FA02460B468E4800F0E9FA74
:105D400002F0A6FC01461720FCF702F9284602F0F3
:105D500035FA02460B46884800F0DBFA02F098FC60
:105D600001461820FCF7F4F8204602F027FA024614
:105D70000B46824800F0CDFA02F08AFC0146192059
:105D8000FCF7E6F87E48FDF725F8042100F03EFA1E
:105D900002F014FA02460B467A4800F0BAFA0446BA
:105DA0000D46794B186802F009FA02460B46204668
:105DB000294602F0A3F802F06BFC01461A20FCF71A
:105DC000C7F87248FDF706F8042100F01FFA02F048
:105DD000F5F902460B466E4800F09BFA04460D4664
:105DE0006C4B186802F0EAF902460B462046294639
:105DF00002F084F802F04CFC01461B20FCF7A8F8E6
:105E00006548FCF7E7FF042100F000FA02F0D6F93C
:105E100002460B46614800F07CFA04460D46604B92
:105E2000186802F0CBF902460B462046294602F0DC
:105E300065F802F02DFC01461C20FCF789F8594852
:105E4000FCF7C8FF062100F0E1F902F0B7F90246BD
:105E50000B46554800F05DFA04460D46534B186852
:105E600002F0ACF902460B462046294602F046F8FD
:105E700002F00EFC01461D20FCF76AF84C48FCF7C6
:105E8000A9FF062100F0C2F902F098F902460B467C
:105E9000484800F03EFA04460D46474B186802F0A9
:105EA0008DF902460B462046294602F027F802F0FB
:105EB000EFFB01461E20FCF74BF84048FCF78AFF39
:105EC000062100F0A3F902F079F902460B463C489E
:105ED00000F01FFA02F0DCFB01462020FCF738F846
:105EE0003848FCF777FF062100F090F902F066F9D8
:105EF00002460B46344800F00CFA02F0C9FB01469A
:105F00001F20FCF725F83148FCF764FF062100F05C
:105F10007DF902F053F902460B462D4800F0F9F9DD
:105F200002F0B6FB01462120FCF712F82948FCF7E5
:105F300051FF062100F06AF902F040F902460B46D3
:105F4000254800F0E6F902F0A3FB01462220FBF70A
:105F5000FFFF03B0BDE8F08F6C090020940900201A
:105F60009009002000801344D8070020DC0700209F
:105F70000000B943200D0020080D0020F00C002087
:105F800078090020D80C0020D407002074090020D4
:105F9000C00C0020D007002070090020A80C0020B1
:105FA000CC0700207C090020900C0020680B00200A
:105FB00064090020780C0020640B00208C0900206C
:105FC000E80B002088090020D00B00208409002065
:105FD000880B002080090020700B002008B5FFF717
:105FE00047FD08BDA0EB010C0098C01A00FB0CFC9B
:105FF000521A9CFBF2FC0CEB03007047F8B50F46FD
:1060000016461C4602F098FB05462146069802F00B
:1060100093FB0146284602F099FC05463946304676
:1060200002F08AFB0146284602F044FD214602F0B8
:1060300085FBF8BD904202DC884202DB70471046C7
:10604000704708467047000038B584460846114638
:106050001A46BCF1640F01D94FF0640C541CACFB20
:1060600004C4CCF3130E4FEA1C5343EA0433C3F3C6
:1060700013039E44C4F313239E440EEB147E114B72
:10608000A3FB0E53DB0803EB830303EB8303AEEBAD
:10609000030EBCEB0E0C64F10004DFF82CE00B4B9C
:1060A00003FB0CF30EFB0433ACFB0ECE73444FEA40
:1060B0009C0C4CEA837C624500D3624601F0A1FD52
:1060C00038BD00BF1F85EB51295C8FC2F5285C8F5E
:1060D00010B5044601F0DEFB184B1860217825202E
:1060E000FBF728FF61782620FBF724FFA178272003
:1060F000FBF720FFE1782820FBF71CFF2079431EE7
:10610000DBB2FD2B05D96079431EDBB2FD2B0AD92A
:1061100010BD02F0C3FB0A4902F00EFB014621202C
:10612000FBF716FFEFE702F0B9FB054902F004FBAD
:1061300001462220FBF70CFFEAE700BF3C0D0020E0
:1061400000002042F0B583B0064600250095019579
:106150003820FBF7CDFE00F003073520FBF7C8FE23
:1061600004460C20FBF7C4FEA40004F03C043C43AE
:1061700044EA80148DF800402C462F4601E001349B
:10618000E4B2032C12D82046FCF720FF0546204637
:10619000FCF72EFF0028F2D0002DF0D0102DEED805
:1061A000013D0123AB403B439FB2E8E78DF801700E
:1061B0003D0A8DF802500F20FBF79AFE8DF8030080
:1061C0003220FBF795FE00F132030E4880FB0320DE
:1061D000DB17FF220021C3EB6010FFF72BFF8DF8C8
:1061E0000400094A1378591C11708DF80530336882
:1061F0005C6808236A4640F2E1613046A04703B07C
:10620000F0BD00BF1F85EB51380D002006296AD86C
:106210002DE9F0470C46002398461D4639E0874299
:106220004ADB4DE0012E27D0C01B02F03BFB81462C
:10623000012E26D04346D81B02F034FB824667006D
:1062400004EB4403DFF8A48008EB83031E79304697
:1062500002F028FB494602F079FB514602F02AFC85
:106260008146274438F9270005FB060002F01AFB97
:10627000494602F061FA34E0381A02F013FB814615
:10628000D6E74346F81A02F00DFB8246D7E7013500
:10629000B84604EB4402154B03EB82035B79AB4237
:1062A00018D904EB4402114B03EB82039A6832F8CD
:1062B00015709E79012EB2D0002EE8D18742E6DC1F
:1062C000002DAFD104EB4404084B33F9240002F055
:1062D000E9FA06E0054B03EB8203B3F9020002F092
:1062E000E1FABDE8F0870020704700BFCC9B0008B2
:1062F0004DF804BD93469C4600220023C0E90023CC
:10630000C0E9022300230374C0E902BC5DF804BBAA
:1063100070472DE9F041044610461946237CCBB165
:10632000D4E90278D4E900562A46334601F0E6FD66
:1063300002460B463846414601F098FF02460B469E
:106340002846314601F0DCFDC4E90001D4E9000132
:10635000BDE8F081C4E9000101232374F6E770B5BC
:1063600016461C465A2B02D84F2C1AD970BD07204E
:10637000FBF7BEFD05461B20FBF7BAFD281A02F00D
:1063800091FA4FF0804102F09DFC0028ECD0337868
:10639000053BDAB213F0800F01D03270E6E78022BD
:1063A000FBE70220FBF7A4FD04462120FBF7A0FD3C
:1063B000201A02F077FA4FF0804102F083FC0028A7
:1063C000D4D0337805333370D0E770B50E46144619
:1063D0005A2A02D84F2C14D970BD1A20FBF788FD19
:1063E00005460620FBF784FD281A02F05BFA4FF001
:1063F000804102F067FC0028ECD03378053B337015
:10640000EAE72120FBF774FD04460320FBF770FD4B
:10641000201A02F047FA4FF0804102F053FC0028A6
:10642000DAD0337805333370D6E770B504460026EA
:106430000660C0F803602620FBF770FD207027205F
:10644000FBF76CFD60702520FBF768FDA070212034
:10645000FBF74EFD05460220FBF74AFDA842D4BFDC
:1064600000200120E0700320FBF742FDA842ACBFF2
:106470000020012020712220FBF73AFD054605206F
:10648000FBF736FDA842ACBF002301236371A67160
:10649000A378CBB10122237903B102231A43A84286
:1064A00014DA04231343227802B108221A436378D2
:1064B00003B110231343E27852B1202119430F2076
:1064C000FBF738FD204670BD1A46E4E70023E9E7F4
:1064D0001146F3E72DE9F04180460C4615461F2092
:1064E000FBF706FD02F0DEF906462120FBF700FD72
:1064F00002F0D8F907461B20FBF7FAFC02F0D2F9AC
:1065000098F8032082F00102012323602271A76022
:106510000021E160237466610222A2612377206278
:1065200098F804205A402B602A71AF60E9602B7400
:106530006E61BDE8F08100002DE9F04782460D460E
:106540000024174B9946264600E00134022C15DC46
:1065500004EB44039F0005EB83031A79002AF4D06F
:106560009968504602F0E8F880460146484602F035
:10657000A9FB0028E9D0EE59C146E6E71F20FBF74A
:10658000B7FC02F08FF9074902F07EFB30B93146C3
:106590000E20FBF7CFFC3046BDE8F0870226F6E779
:1065A000FFFF7F7F0000A0C12DE9F04782460D4626
:1065B00000246FF400039946264600E00134012CC4
:1065C00015DC04EB44039F0005EB83031A79002AD2
:1065D000F4D09968504602F0AFF88046014648462C
:1065E00002F052FB0028E9D0EE59C146E6E73146F9
:1065F0000D20FBF79FFC3046BDE8F0872DE9F04108
:10660000074688461820FBF773FC02F04BF9044656
:106610001920FBF76DFC02F045F90546FFF782F9FA
:1066200006465649204602F04DFB002866D14FF041
:106630007E51284602F028FB002871D14146384699
:1066400002F07AF805464E4B196802F07FF94D4C7E
:10665000216802F073F8064620604B4B1968284603
:1066600002F074F9002102F00FFB00286AD1464BBA
:106670001D60444B1B681E464449184602F066F9EB
:10668000294602F05BF80446414902F0FDFA00B9E0
:106690003F4C0021204602F015FB00B900243C4984
:1066A000204602F005FB78B12946394802F044F84B
:1066B000364902F0FFF901460746304602F002FB78
:1066C000002846D12F4B1E600021204602F0E6FA3A
:1066D000002840D1204602F025FBC0B2FFF716F992
:1066E0002C49204602F032F902F01CFBFF22052162
:1066F000C0B2FFF79FFCC0B2BDE8F081F0B2441E0B
:10670000002C00DC0024E0B2FFF700F9204602F084
:10671000C9F8204902F01AF902F004FBC0B2EBE715
:10672000F0B2441E002C00DC0024E0B2FFF7EEF8CB
:10673000204602F0B7F8174902F008F902F0F2FA21
:10674000C0B2D9E74FF07C51304602F0FFF820602C
:106750008DE73E46B6E705F100400C4902F0AAF984
:106760000646084B1B681D46194602F0ABFA10B9E5
:10677000044B1D60AEE73546FAE700BF0000F0416C
:10678000E0070020440D0020400D0020CDCCCC3D82
:106790000000C8423333234070B594B012AC204699
:1067A000FFF743FE03AA09A92046FFF793FE1F2027
:1067B000FBF79EFB02F076F802F08EFA04463C23CB
:1067C000009328230A226FF01301FFF70BFC054604
:1067D0003B2800DD3C25282D00DC28250A230093DA
:1067E000052332221E212046FFF7FCFB0446092820
:1067F00000DD0A24052C00DC0524284602F052F8AE
:1068000009A9FFF799FE0546204602F04BF803A9B7
:10681000FFF7CAFE06462320FBF76AFB04462F203B
:10682000FBF766FB50221421FFF704FC04B1044679
:10683000E4B22046FFF792F82046FFF779F806B158
:10684000D5BB4FF6FF7306224FF080412046FFF77D
:10685000FBFB9DF84C3013B19DF84D20AABB9DF871
:106860004A2002B18EB39DF8481011B99DF8490035
:1068700008B1012D29D029B99DF8490010B99DF81A
:106880004B0010B1002D00F0868012B1012E00F0F7
:10689000828029B99DF8491011B99DF84B1009B1B2
:1068A000022D7CD002B99BB19DF84B3083B97EB9E3
:1068B0000520FEF7E5FC0BE04FF6FF7306224FF0D4
:1068C00080410020FFF7C0FBC3E70220FEF7D8FCA1
:1068D0009DF8483053B99DF849303BB99DF84B308D
:1068E000002B62D09DF84A30002B5ED101210C2094
:1068F000FBF720FB0720FBF7FBFA01F0D3FF044670
:106900001B20FBF7F5FA01F0CDFF01462046FFF70B
:1069100075FE0446FFF706F8C3B29DF8482002B1A1
:10692000FF228DF809209DF8492002B1FF228DF841
:106930000A209DF84B2002B1FF228DF80B200DF1AB
:106940000B020DF10A010DF10900FFF708FDFEF73A
:1069500089FC9DF80B100420FEF7E4FB9DF80A105B
:106960000620FEF7DFFB9DF809100520FEF7DAFB95
:10697000022D18D021460120FEF7D4FB0021022071
:10698000FEF7D0FB022D00D0002421460320FEF7A5
:10699000C9FB14B070BD0320FEF772FC98E7042019
:1069A000FEF76EFC94E70021E5E79DF84A3033B925
:1069B0009DF84C301BB99DF84D30002B48D002217A
:1069C0000C20FBF7B7FA0620FBF792FA01F06AFFFA
:1069D00004461A20FBF78CFA01F064FF01462046BA
:1069E000FFF70CFE0446FEF79DFFC2B29DF84A3049
:1069F00003B123468DF80A309DF84C301BB99DF841
:106A00004D3003B91C468DF80B400DF10B010DF113
:106A10000A00FFF7DAFCFEF717FC00210420FEF75E
:106A200081FB00210620FEF77DFB00210520FEF7FB
:106A300079FB9DF80B100120FEF774FB9DF80A10FE
:106A40000220FEF76FFB00210320FEF76BFBA0E79F
:106A500019460C20FBF76EFAFEF7F6FBFF21042027
:106A6000FEF760FBFF210620FEF75CFBFF210520FF
:106A7000FEF758FBFF210120FEF754FBFF21022007
:106A8000FEF750FBFF210320FEF74CFB0020FEF732
:106A90003DFF7EE78368DB075EBF836843F0010349
:106AA00083607047034AD2F8083443F40003C2F805
:106AB0000834704700200140836823F460230B43AF
:106AC0008360836843F4801383607047836800F1B8
:106AD000080243F00803836013681B07FCD4704767
