:020000040800F2
:1010000000500020D97B0008D57B0008D37B000866
:10101000D37B0008D37B0008D37B000800000000CE
:10102000000000000000000000000000D57B000868
:10103000D57B000800000000D57B0008D57B0008A8
:10104000D37B0008D37B0008D37B0008D37B000848
:10105000D37B0008D37B0008D37B0008D37B000838
:10106000D37B0008D37B0008D37B0008D37B000828
:10107000D37B0008D37B0008D37B0008D37B000818
:10108000D37B0008D37B0008D37B0008853600089B
:101090006536000875360008D37B0008ED1300089C
:1010A000D37B0008D37B0008D37B0008D37B0008E8
:1010B000D37B0008DD13000825140008D37B00084B
:1010C000D37B0008D37B0008D37B0008D37B0008C8
:1010D000D37B0008D37B0008D37B0008D37B0008B8
:1010E000D37B0008D37B0008D37B0008D37B0008A8
:1010F000D37B0008D37B0008D37B0008D37B000898
:10110000D37B0008D37B0008D37B0008D37B000887
:10111000D37B0008D37B0008D37B0008D37B000877
:10112000D37B0008D37B0008D37B0008D37B000867
:10113000D37B0008D37B0008D37B0008B3360008BC
:1011400093360008A3360008D37B0008D37B000841
:1011500008B58446084611461A46DCF8043098471C
:1011600008BD08B58368984708BD00B54FF0000C6E
:10117000E64604E000BF1CF1010C4EF1000E4B01ED
:1011800043EAD0634201121A63EB01039B0043EA76
:1011900092739200121841EB03031B0143EA12738E
:1011A000120194457EEB0303E4DB00BD08B5034B5D
:1011B0009988186806F039F808BD00BF9C0800201F
:1011C00010B506F03BF8164B186800F084FE07F0E7
:1011D0006BFA144907F070FB0146392000F0F2FE6B
:1011E000114801F031FE07F05BFA104907F064FB8B
:1011F0000146382000F0E6FE06F04EFA01F01AFF34
:101200000B4C206804F064FE206804F009FA04F036
:10121000E5FB05F0D7F9074B186802F0E7FA10BDB7
:10122000B8070020000020410409002000004B43C3
:10123000B4070020B007002008B503F099FF08BDEF
:1012400008B503460846B3F5E66F11D009D840F259
:101250002722934210D0B3F52A7F0BD104F088F9EE
:1012600008E040F23172934204D104F0EBFD01E05A
:1012700004F0E6FD002008BD04F0B2F9FAE7000032
:1012800010B50D4C00224FF4E661206802F03FFAE1
:10129000002240F23171206802F039FA002240F257
:1012A0002721206802F033FA00224FF42A712068C7
:1012B00002F02DFA10BD00BFB407002010B504469F
:1012C0008188006805F0AEFF003818BF0120A379BF
:1012D000181A18BF012010BD08B5022000F042FE08
:1012E000284A1378002818BF43F00103137006F052
:1012F000D3F9254B1B68D3F8F830C01A312802D92E
:10130000204B1B78B3BB2148FFF7D8FF01462720AD
:1013100000F04AFE1E48FFF7D1FF0146282000F0EA
:1013200043FE1C48FFF7CAFF0146262000F03CFEA2
:101330001948FFF7C3FF0146292000F035FE04F0ED
:10134000D9F907F0CBFB01462A2000F02DFE04F06E
:10135000E5F907F0C3FB01462C2000F025FE04F060
:1013600007F804F0D1F801460B2000F01DFE04F050
:10137000C7FA08BD0021022000F016FE012001F08E
:101380005FFEC0E798070020B40700200408002093
:10139000140800200C080020E4080020FEE70000EC
:1013A00038B560B1012814D10A4B1B681C460120D6
:1013B00000F0D8FDC1B2204602F0BEFF09E0064BA6
:1013C0001C6823681B681D4600F0CCFDC1B2204696
:1013D000A84738BDAC070020B407002008B5024B71
:1013E000186800F03FFD08BDB807002008B54FF4AD
:1013F000807005F0D9FD50B1084B1B7843B1084A05
:101400001368013313604FF4807005F0C7FD08BD09
:10141000034A1368013B1360F5E700BF6A07002029
:10142000A407002008B50821214806F097F928B93B
:1014300010211F4806F092F9E8B908BD02211C48A6
:1014400006F0F7FA1B4B1B683BB183420CD8C31A5A
:10145000194A1360194B01221A70164B18600821A3
:10146000134806F081F9E3E7C31A03F54343503309
:10147000114A1360EEE703210D4806F0DAFA104B2B
:101480001B683BB183420CD8C31A0E4A13600E4B43
:1014900001221A700A4B18601021054806F064F901
:1014A000CBE7C31A03F543435033064A1360EEE714
:1014B0000008004094070020A00700209A070020A1
:1014C000900700209C070020990700202DE9F0419B
:1014D000ADF6180D00F066FA00F02EFBD44E002297
:1014E0003146D44801F0F4FC01223146D24801F0E3
:1014F000EFFC02223146D14801F0EAFC03223146DA
:10150000CF4801F0E5FC04223146CE4801F0E0FC72
:1015100005223146CC4801F0DBFCCC4D00222946A7
:10152000CB4801F0D5FCCB4C00222146CA4801F043
:10153000CFFC01222146C94801F0CAFC0222214603
:10154000C74801F0C5FC03222146C64801F0C0FC93
:1015500004222146C44801F0BBFC05222146C348B1
:1015600001F0B6FC04234FF480723146C04801F00C
:101570005CF907234FF400423146BE4801F055F9AB
:10158000002304222946BC4801F04FF90723082212
:101590002946BA4801F049F9072310222946B848DC
:1015A00001F043F9072320222946B64801F03DF90E
:1015B000092340222946B44801F037F90923802243
:1015C0002946B24801F031F904234FF480722946CC
:1015D000AF4801F02AF904234FF400722946AD48C0
:1015E00001F023F909234FF400622946AA4801F0CB
:1015F0001CF907234FF480422946A84801F015F949
:1016000007234FF480622146A54801F00EF9072315
:101610004FF400622146A34801F007F907234FF475
:1016200080522146A04801F000F907234FF40052F0
:1016300021469E4801F0F9F807234FF480422146E5
:101640009B4801F0F2F804F580640723012221464B
:10165000984801F0EAF8072302222146964801F053
:10166000E4F8072304222146944801F0DEF807231A
:1016700008222146924801F0D8F80723102221467B
:10168000904801F0D2F80723202221468E4801F02D
:10169000CCF80723402221468C4801F0C6F80723E6
:1016A000802221468A4801F0C0F804F580640723AF
:1016B00004222146874801F0B8F807230822214672
:1016C000854801F0B2F8072310222146834801F033
:1016D000ACF800234FF480722146814801F0A5F850
:1016E00000234FF4007221467E4801F09EF800234B
:1016F0004FF4806221467C4801F097F807234FF4AD
:1017000000622146794801F090F801F015FB00F0E5
:101710001DFB00F0A1F900F0E7F901F05DFC00F01D
:1017200015FA0DF2EC540126019600960023704A3A
:101730007049204600F0EAFC6F4B1C600DF5BC655B
:101740006E4BCDF8E0356E4BCDF8E0356D4BCDF8F6
:10175000E4356D4BCDF8E835002000F003FCE1AC3A
:101760000023C2B26949204601F0C2FE684B1C60EA
:101770002946204601F0BCFFFFF782FD32AD32461C
:101780002146284602F04CFDDFF88881C8F8005059
:10179000614B1D600FAF2A462146384602F09AFD84
:1017A0005E4B1F60304600F0DDFBC1B2384602F0F0
:1017B000C3FDD8F800205A4B1A605A4D05AC294693
:1017C000204600F0F5FA584B1968C1F35911574BF0
:1017D000A3FB013189090139284605F0E6FF544B86
:1017E0001C6003225349204600F006FB1422524994
:1017F000204600F001FBC8225049204600F0FCFAC8
:101800004FF4C8724E49204600F0F6FA0021362007
:1018100000F0CAFB3A20FFF7C3FD0A200021FFF7C2
:10182000A4FC03F03FFD64200021FFF79EFC89E04B
:1018300000080140300900202C0900202809002060
:1018400024090020200900201C090020000C014070
:101850001809002000100140140900201009002080
:101860000C090020080900200409002000090020BC
:10187000F4080020EC080020E4080020DC08002028
:10188000D4080020CC080020C4080020BC08002098
:10189000B4080020AC080020A40800209C08002008
:1018A000940800208C080020840800207C08002078
:1018B000740800206C080020640800205C080020E8
:1018C000540800204C080020440800203C08002058
:1018D000340800202C080020240800201C080020C8
:1018E000140800200C08002004080020FC07002039
:1018F000BC97000800380140A8070020788B00083A
:10190000888B000841120008811200080064004022
:10191000B4070020B0070020980A0020AC07002080
:10192000940A0020000400408C070020632D3E052F
:10193000B807002039120008D9120008C1110008A8
:10194000AD11000803F0E6FD13E01C4619E0043079
:101950000DF10B0103F0E2F85CB103AB94E8030076
:1019600083E80300204602F05FFF21460FA802F043
:101970000CFD00228DF80B209DF8C430002BE4D024
:101980002FAC064B186800F0ABFD054B1868436997
:10199000002BE1D10028DAD1DAE700BFA807002048
:1019A000AC07002008B5294805F096FD4FF0E0236C
:1019B000274AC3F80C2D40F2023005F0EBFD40F24F
:1019C000033005F0E7FD4FF4417005F0E3FD40F210
:1019D000053005F0DFFD40F2063005F0DBFD40F29A
:1019E0000E3005F0D7FD40F20B3005F0D3FD4FF47B
:1019F000607005F0CFFD40F2813005F0CBFD40F284
:101A0000823005F0C7FD4FF4207005F0C3FD40F2B1
:101A1000093005F0BFFD40F20A3005F0BBFD40F291
:101A2000862005F0B7FD4FF4407005F0B3FD40F29D
:101A3000993005F0AFFD074B5A6842F0C0025A607A
:101A40005A6842F400725A6008BD00BF1C9C00082E
:101A50000003FA050000014030B597B005F0E0F949
:101A600000F5FF3505F2FD15AD0201AC1422002191
:101A7000204600F0D4FE1A4B01931823ADF808302D
:101A800001238DF80A3000228DF80B2015490391AF
:101A90004FF44071ADF810108DF812208DF813300E
:101AA00005F0A2F91421204605F0ACF915902B6D34
:101AB000834201D117B030BD05F054FB284605F034
:101AC0000DFB002407E001AB53F8241005EB840064
:101AD00005F062FB0134142CF5D905F04FFBE9E762
:101AE00000100140000C014008B51D2006F0E0F890
:101AF00000211D2006F0E8F81E2006F0D9F801218B
:101B00001E2006F0E1F80B494FF4807005F054FAFE
:101B100002214FF4807005F00FFA4FF4807005F049
:101B20002FFA172006F0C4F80221172006F0CCF88F
:101B300008BD00BF0008014008B54FF41C71032028
:101B400005F0E2FD002005F0B1FD08BD38B57C4C84
:101B5000204605F025FE0021204605F026FE002146
:101B6000204605F009FE40F60F61204605F01FFEF5
:101B7000204605F0FCFD4FF4006302221146714837
:101B800005F016FB06220221204605F012FE022176
:101B9000204605F0D4FE0221204605F0EAFE02218F
:101BA000204605F00BFF00220221204605F02BFF06
:101BB000204605F0F0FD4FF0804005F0F1FD0A21D0
:101BC0004FF0804005F0F1FD00214FF0804005F01E
:101BD000D3FD4FF6FF714FF0804005F0E8FD4FF068
:101BE000804005F0C4FD584D4FF4006302221146B9
:101BF000284605F0DDFA062211464FF0804005F038
:101C0000D8FD06214FF0804005F099FE06214FF0E7
:101C1000804005F0AEFE06214FF0804005F0CEFE7C
:101C2000002206214FF0804005F0EDFE4FF080408D
:101C300005F0B1FD4FF4407301220021284605F064
:101C4000B7FAA4F59234204605F0AAFD8F2120466C
:101C500005F0ABFD4CF25031204605F0A8FD2046C2
:101C600005F094FD0F220221204605F0F1FE052229
:101C70000221204605F014FF00220221204605F033
:101C80005DFD0221204605F03EFF0821204605F0BB
:101C900061FD00220321204605F0DAFE0622032121
:101CA000204605F0FDFE00220321204605F046FDFA
:101CB0000321204605F027FF1021204605F04AFDAC
:101CC000402302221146284605F072FA062200211E
:101CD000204605F06EFD0021204605F030FE002173
:101CE000204605F046FE0021204605F067FE002252
:101CF0001146204605F087FE802302221146284621
:101D000005F056FA06220221204605F052FD022176
:101D1000204605F014FE0221204605F02AFE02218D
:101D2000204605F04BFE00220221204605F06BFE06
:101D30000121204605F077FE204605F02CFD38BD38
:101D4000002C014000180140000C014010B582B089
:101D500009238DF80730154C204604F0EBFD204692
:101D600004F0F2FD204604F004FE0721204604F0B2
:101D7000CCFD0DF107020121204604F0FFFD4FF4D8
:101D80006021204604F09AFD204604F084FD0023E3
:101D900001E000BF0133772BFBDD044C204604F04B
:101DA00097FD204604F0A7FD02B010BD00280140B9
:101DB00038B505460C460162084605F0D8FC2046B9
:101DC00005F0E4FC0A4B1968C1F31A11094BA3FB97
:101DD0000131C9090139204605F0E7FC4FF6FF71D2
:101DE000204605F0E4FC00236B62284638BD00BFA6
:101DF0008C070020C55A7C0AF8B5436A032B00DD26
:101E0000F8BD04460D461646006A05F0C9FC636A33
:101E10000122134FF95C206A05F0CBFC636A0022B3
:101E2000F95C206A05F0EFFD636A44F8235003F182
:101E3000080106EB860202EB8202920024F81120D0
:101E400002219940206A05F085FC0021206A05F0F6
:101E5000FDFD206A05F09FFC636A01336362CFE7F2
:101E6000908B0008F8B5054600242AE00226A6401B
:101E70003146286A05F072FC40B3286A05F0D7FDA8
:101E800087B22B6A03EB84035A6B04F1080135F81F
:101E900011100A445A6355F824309847286A05F00F
:101EA000C6FDC01B04F10C0325F813003146286A57
:101EB00005F05AFC04E00221A140286A05F054FC18
:101EC0000134032C06DC6B6AA342CFDC6B6AA342AD
:101ED000F6DCF0E7F8BD0146002210460FE002F103
:101EE0000C0331F813304FF47A7C0CFB03F302F14E
:101EF000080C31F81CC093FBFCF3184401324B6A08
:101F00009342ECDC70470000024B1A68024BC3F8A6
:101F10000C26704760070020E800002008B5C0EBE1
:101F2000C0020B4B03EB8203DB688B420EDC084BD9
:101F300003EB82031B698B4201DAFF2007E0054BAC
:101F400043F82010FFF72CFA002000E0FF2008BD26
:101F5000E800002000000020014B53F820007047EB
:101F600000000020024B53F820004011704700BFD2
:101F70000000002008B5054B53F8200006F094FB44
:101F80004FF0745106F0E4FB08BD00BF00000020D4
:101F9000044B53F820004011012814BF00200120F9
:101FA000704700BF000000204901024B43F8201099
:101FB000704700BF00000020014B43F8201070471D
:101FC0000000002010B5044608464FF0844106F09A
:101FD000BFFB06F083FD024B43F8240010BD00BF99
:101FE0000000002070B506460024074D392C09DC9E
:101FF0003146686800F072FB10B101341C35F5E71A
:10200000E0B270BD3B20FCE7E80000200023064A58
:10201000392B07DC118B814202D001331C32F7E7E8
:10202000D8B270473B207047E8000020C0EBC000EA
:10203000014B03EB80007047E800002038B5002416
:10204000074D01E001341C35392C07DC2B8B002BAC
:10205000F8D06969E0B2FFF7AFFFF3E738BD00BF22
:10206000E8000020014B1954704700BFBC07002056
:10207000024A135C0B431354704700BFBC07002097
:10208000024A135C23EA010313547047BC07002083
:10209000014B185C704700BFBC070020C0EBC000BC
:1020A000024B03EB8003987E704700BFE8000020DE
:1020B00000487047F373010008B5FFF725FF08BD1E
:1020C00008B52021806805F07EFD08BD08B5806850
:1020D00005F071FD08BD10B504464368597A58688B
:1020E00004F002FF636804F12A02597A586804F088
:1020F0000DFF63688022597A586804F017FF6368FF
:10210000597A586804F0E7FE10BD000070B5044627
:102110000D465349016053490160856003730261B4
:10212000012101754175817500228261C26180F8CB
:102130002020426280F828109DF8101080F82910A5
:102140009DF8141080F82A1247494160032A07D8E5
:1021500061680868A84203D01C3161600132F5E76C
:10216000424A1460002B74D062685069002B73D00F
:1021700063681B8B0222032105F01AF84FF4E1314A
:10218000284605F0C7FC0821284605F0D5FC4FF489
:102190000051284605F0D9FC0C21284605F0E1FC49
:1021A0000021284605F0D7FC0021284605F0DFFC79
:1021B000284605F0F2FC284605F0F4FC6368197A1D
:1021C000586804F033FE6368197A586804F07AFEA0
:1021D00063682E1D3246197A586804F08EFE6368D3
:1021E0000022197A586804F04BFE63680022197ABD
:1021F000586804F039FE6368197A586804F04CFE98
:102200006368597A586804F011FE63683246597A57
:10221000586804F072FE63680022597A586804F026
:102220002FFE63680022597A586804F01DFE636827
:10223000597A586804F030FE6368597A586804F097
:102240004AFE2046FFF747FF284605F096FC204649
:1022500070BD6268D06889E763681B8A8AE700BF3F
:102260003C970008489700084C970008F8070020A2
:1022700038B50D460469437D3BB1216839B1284624
:1022800000F02CFA18B10834F7E71C4601E0236887
:102290000BB1204638BD1C46FBE738B504460D4659
:1022A00001E0002373B163680222197A586804F0D0
:1022B000D2FD0028F5D194F828300BB10346F1E7A0
:1022C0000123EFE76368197A586804F00DFE63682C
:1022D000AAB2197A586804F029FE636894F820209D
:1022E000D201A83222440232197A586804F00EFE54
:1022F00063680222197A586804F0A8FD6368197AA5
:10230000586804F0E8FD94F82030B3FA83F35B09D1
:1023100084F82030002384F8283038BD10B50446F6
:10232000837D73B10A2910D0436A7F2B0DD090F8BA
:10233000202000EBC2121A4482F8AA100133436233
:1023400010BD806805F01EFCFAE794F82030626A40
:1023500004EBC313134483F8AA10511C2046FFF763
:102360009CFF00236362EBE710B50C46802A28BF70
:10237000802211464FF0000C0AE090F8203014F84B
:102380000CE000EBC313634483F8AAE00CF1010CEA
:102390008C45F2D3FFF781FF10BD38B505460C46DA
:1023A000084600F0B2F9024621462846FFF7DCFF56
:1023B00038BD000010B50446084600F0F9F900F0F9
:1023C000DEF9237D83420DD000236375237B0BB39D
:1023D000626850690BB363681B8B0122002104F013
:1023E000E7FE10BD01236375237B6BB16268506902
:1023F0006BB163681B8B0222032104F0D9FE0849EC
:102400002046FFF7CAFFECE76268D068F0E7636830
:102410001B8AF0E76268D068DCE763681B8ADCE748
:102420001894000830B585B00446084600F0C0F99D
:102430000378302B13D0322B0ED04FF461231D467E
:10244000637D83B92946A06805F064FB0021A0687C
:1024500005F07BFB05B030BD0E4B1D46F0E74FF499
:10246000E1331D46ECE70A22294601A800F05DF998
:1024700009492046FFF791FF08492046FFF78DFFE5
:1024800001A92046FFF789FF05492046FFF785FF90
:10249000D8E700BF10552200D4910008DC91000855
:1024A000DC96000810B50446084600F081F9037870
:1024B00023B1303B18BF012384F8293094F8293028
:1024C00023B105492046FFF768FF10BD03492046A8
:1024D000FFF763FFF9E700BFEC910008F8910008EF
:1024E000F8B504464368597A586804F018FD064662
:1024F000C0F1800558B92046FFF7EDFD07E05A1CF2
:10250000E261234493F82A10A06805F03BFB94F89D
:10251000293013B1E369AB42F1DB0821A06805F073
:1025200052FBE0B97F2E28DCC6F17F03234493F8E9
:102530002A300A2B17D00D2B15D094F82A30212BD6
:102540001BD1A369CBB12046FFF7C5FD0023E36192
:10255000A3695B6804F5D571204698470DE0A06833
:1025600005F029FBDEE76368597A586804F0BCFC83
:102570007E2E03DD2046FFF7AEFDF8BD6319002275
:1025800083F82A20E26104F12A072021384600F06E
:10259000C3F80646037823BB0A21384600F0BCF88E
:1025A0000646002384F8AA31337803B3002333703E
:1025B000A3612A49384600F091F80646E8B904F5C7
:1025C000D5712046FFF7F6FEA369002B3CD0A0682A
:1025D00005F0F5FAA3695B6804F5D57120469847C4
:1025E000C8E7411C04F5D57000F086F8DCE70D2142
:1025F000384600F091F80646D8E71949384600F009
:102600006DF8064668B994F82A322BB104F5D571F5
:102610002046FFF707FFD7E712492046FFF7BDFE28
:10262000D2E71149384600F059F8064628B904F5B2
:10263000D5712046FFF736FFC6E739462046FFF73B
:1026400017FEA0612E46BFE7012E93DD637D002BB0
:1026500090D006492046FFF7A0FE8BE704920008C1
:10266000109200081C92000838920008409200085E
:1026700008B5044B1B681A681268C1B21846904727
:1026800008BD00BFF8070020704708B500F032FD14
:1026900008BD000000B583B00649D1F8F027D1F895
:1026A000EC37D1F8E8170091034900F0EBFA03B0DA
:1026B00000BD00BF00F0FF1F5C92000810B504468B
:1026C000FFF7BCFC0249204600F0DCFA10BD00BF59
:1026D0007092000808B502F021FA08BD431E0139C6
:1026E00013F8010F11F8012F10B10AB19042F7D081
:1026F000801A18BF01207047013911F8013F0BB94A
:102700000370704700F8013BF7E70023C25C0AB989
:10271000184670470133F9E703461A7818461AB18C
:102720008A4203F10103F8D17047002970B51EDA1F
:102730002D23012400F8013B4942064691FBF2F3A8
:1027400002FB131130313170191E354606F10106B6
:10275000F4DC00220346201A30443270AB420BD224
:102760001A78297803F8011B05F80129F6E704D146
:10277000302341700370012070BD0024DDE730B5C7
:1027800003782D2B11D14FF0FF34013000210A25A1
:10279000431E01E005FB012113F8012F303AD0B2AE
:1027A0000928F7D904FB01F030BD0124EEE7000051
:1027B00010B5144C02780146A2F10A03DBB2162BC5
:1027C0001BD824FA03F3DA0700F10100F2D408461B
:1027D000FFF79BFF01380844814204460AD2037880
:1027E0000A3BDBB2162B05D8064A013822FA03F35E
:1027F000DB07F1D40023637001E0002AE7D108462B
:1028000010BD00BF09004000002310B5934200D165
:1028100010BD51F8234040F823400133F6E702B9D8
:102820007047013A40F8041BF9E7F8B50D46164623
:102830001C460160828000238371052C30D00AD9A8
:10284000082C32D01AD8062C41D0072C42D10024B3
:1028500003231F4630E0032C1CD009D8012C13D0D1
:10286000022C02D100231F4622E002241F4623E04F
:10287000042C28D1012400231F461DE0092C2DD152
:10288000022403231F4617E001238371022400233F
:102890001F4611E001238371022400231F4607E035
:1028A0000124847100231F4606E0012403231F46F0
:1028B0003146284604F0B1FC3346224639462846C4
:1028C00004F076FCF8BD022400231F46F4E7002440
:1028D0002746F1E7022400231F46EDE702240023E8
:1028E0001F46E9E7024B4FF400421A80704700BFD1
:1028F000FC08002008B5FFF7F5FF08BD70B50C1EF9
:10290000ACBF01234FF0FF335C430133064608BFE1
:102910002D234FF0640208BF06F8013B611104F05B
:102920001F040546544330460A22FFF7FEFE2E22BE
:102930006411092C3254D8BF302206EB0003D8BFF3
:102940005A7021464FF00A02CCBF581C981CFFF762
:10295000ECFE284670BDF0B5027803462D2A13D14F
:102960004FF0FF30013300250A2702E007FB052561
:1029700001331C78A4F13002D6B2092EF6D9A4B9DD
:102980008D4025446843F0BD0120ECE78A4002EB0E
:10299000660292FBF6F20CFB06F6144413F8012FC4
:1029A000303AD7B2092FF1D9EAE70A260024B44613
:1029B000F4E72DE9F04105460F46161E02DD0A46F2
:1029C000002108E04FF0200813F001041BD0002480
:1029D00022E00131013210780028FAD1B14206DA42
:1029E000761A13F0020F04D14FF02008ECE700260E
:1029F000F7E74FF03008E7E72B681B6841462846A9
:102A000098470134013E002EF6DC05E02B681B6878
:102A1000284698470134013739780029F6D106E075
:102A20002B681B684146284698470134013E002E1A
:102A3000F6DC2046BDE8F08170B584B00646DDF8CE
:102A400028C059B11D460B4615B10A2A11D00025E0
:102A500000218DF80D100DF10D0416E030238DF8D6
:102A600000308DF80110099B089A6946FFF7A1FF15
:102A700032E0002901DB0025EAE74B420125E7E7C8
:102A8000303104F8011DB3FBF2F34BB1B3FBF2F1AB
:102A900002FB11310929F3DDACF13A000144EFE703
:102AA0009DB1089B63B1099B13F0020F08D030461B
:102AB00033681B682D219847089B013B089304E06D
:102AC0002D2304F8013C013C0025099B089A21466E
:102AD0003046FFF76EFF284404B070BD08B50846C5
:102AE000FFF7C6FD08BDF0B585B0074616461D4682
:102AF0006846FFF703FF2B46324669463846FFF724
:102B000058FF05B0F0BD000070B588B006460C4611
:102B10000592002587E0A21C012391E00022217884
:102B2000A1F1300C5FFA8CFCBCF1090F06D802EB66
:102B30008202303901EB42020134F0E773291AD0E6
:102B4000642923D0782930D058293DD075294AD01E
:102B5000662957D0632965D10599081D0590096834
:102B60008DF81C1000218DF81D1007A93046FFF7C5
:102B700020FF054456E00599081D0590096801B934
:102B800035493046FFF715FF05444BE00599081D10
:102B900005900968612002900193009201230A22A6
:102BA0003046FFF749FF05443CE00599081D0590B4
:102BB00009686120029001930092002310223046A0
:102BC000FFF73AFF05442DE00599081D05900968B7
:102BD0004120029001930092002310223046FFF71B
:102BE0002BFF05441EE00599081D0590096861202A
:102BF00002900193009200230A223046FFF71CFF47
:102C000005440FE00599081D059009683046FFF757
:102C10006AFF054406E0144633681B682178304695
:102C200098470135013423789BB1252BF4D1621CE0
:102C3000637873B1252BEED02D2B3FF46CAF0023BE
:102C400014462278302A7FF469AF013443F002033E
:102C5000F7E7284608B070BDE49200080FB400B54D
:102C600083B004AA52F8041B054B0193009201A8FB
:102C7000FFF74AFF03B05DF804EB04B0704700BFF4
:102C8000349800080EB400B582B003AA52F8041BB1
:102C90000192FFF739FF02B05DF804EB03B0704713
:102CA000174B184A1360991C174A1160191D174ACF
:102CB0001160991D164A116003F10801154A11604F
:102CC00003F10A01144A116003F10C01134A116067
:102CD00003F10E01124A116003F11001114A116053
:102CE00003F11201104A116003F114010F4A11603F
:102CF00003F116010E4A116018330E4A1360704733
:102D000034090020300900202C0900202809002067
:102D100024090020200900201C0900201809002097
:102D200014090020100900200C09002008090020C7
:102D3000040900200009002030B583B0334B93E82C
:102D4000030002AB03E903000025002D2CDD304C0D
:102D5000304A0121204604F0D0F82F4A01212046B4
:102D600004F0D4F84FF480720121204604F088F872
:102D70004FF480620121204604F076F89C22012164
:102D8000204604F0D3F80121204604F085F8012103
:102D9000204604F08AF80121204604F09CF81F48E0
:102DA00003F01AFE03B030BD02AB03EB850353F80A
:102DB000084C204603F0BEFD204603F0C0FD20462F
:102DC00003F0D2FD204603F0C4FD0121204603F0AC
:102DD0009CFD204603F05FFD204603F079FD204670
:102DE00003F089FD05EB450305EB83030C4A1A4408
:102DF0000D21204603F0C2FD204603F0F7FD4FF4FD
:102E00006021204603F05AFD01359EE738980008FE
:102E1000000002404C2401403409002000240140FD
:102E20006C0A0020884205DD914209DC90420ADDEF
:102E300010467047904206DC914203DD1046704711
:102E4000084670470846704730B583B004680025CF
:102E50000BE0A28E618B2088FFF7E4FF02AB03EB4F
:102E6000450323F8080C01354E34032DF1DDBDF880
:102E70000000BDF802301844BDF804301844BDF815
:102E800006301844C0F38F0003B030BD08B50F4BB7
:102E900098420BD003F58063984211D0A3F50063EC
:102EA000984205D1072903DCC8B204E0012903DDFB
:102EB00003F0FAFC102008BDC9B20831C8B2FAE725
:102EC0000529F5DCC9B20A31C8B2F4E7000C0140AB
:102ED00070B505460E461446012393409BB200226E
:102EE0001146304604F064F92B68054A9B1A5D10C0
:102EF00021463046FFF7CAFFABB2024AD05470BD3C
:102F0000340900206C0A002008B5FFF7C9FE08BD8F
:102F100008B503F085FF00F5FF3000F2FF108002D6
:102F200008BD2DE9F043ADF2044DFFF7F1FF064671
:102F3000024600234FF0FF3503E052F8041B0D401A
:102F40000133FF2BF9DD03F04FFF4FF480724FF098
:102F5000FF316846FFF763FC002414E03846FFF7B2
:102F600065F880463846FFF793F80DEBC40989F8F9
:102F70000300B8F818202DF834203846FEF7ECFF8F
:102F8000C9F804000134392C06D8E7B23846FFF7F7
:102F900085F80028F6D1E1E7FE21684603F032FF0C
:102FA000FE9004F0DFF8B5F1FF3F01D100240AE004
:102FB000304604F093F8F9E75DF8241006EB84003E
:102FC00004F0EAF80134FF2CF6D904F0D7F8FE98A3
:102FD0000DF2044DBDE8F083F8B5FFF799FF064602
:102FE00003F002FFFE21304603F00CFFD6F8F83361
:102FF000834201D1002503E04FF0FF3019E0013595
:103000007E2D15D836F83500FFF700F804463B282A
:10301000F5D0FFF743F80028F1D106EBC507796832
:103020002046FEF7C9FFF9782046FFF71BF8E6E7D0
:103030000020F8BD014B1860704700BF840A0020D3
:103040000D4B1B5CB3B90D4B196899B10C4B187043
:10305000DFF830C0DCF800300B4A02F8330002EB36
:10306000C3025160044A012111540B4403F00303CD
:10307000CCF80030704700BF7C0A0020840A002092
:103080007E0A0020800A00204007002003280AD87A
:10309000064B03EBC0035B680BB918467047034B44
:1030A00013F8300070470020704700BF4007002031
:1030B000032801D900207047024B03EBC003586876
:1030C000704700BF4007002008B5074B03EBC10263
:1030D00092F804C053F83130044A52F82C200146CB
:1030E0000348FFF7BBFD08BD4C9800084098000856
:1030F000EC92000810B50C4B5B680BB1002409E0A2
:103100000A48FFF7ABFD10BD074B13F83410FFF76B
:10311000DBFF0134032CF6D8034B03EBC4035868E0
:103120000028F1D1EFE700BF40070020FC92000823
:1031300000B58BB0104B01EB410203EB820C53F84E
:103140002220DCF804C001EB410103EB81039B6802
:10315000D0F858020021089107910693CDF814C0C9
:10316000049203910291019100910B46012203F018
:103170004FFC0BB000BD00BF70980008F0B583B0E5
:1031800004460D4616461F4672B60121D0F8580275
:1031900003F051FD019600970023B5F5006F34BF91
:1031A000002201222946D4F8580203F049FD0028E4
:1031B00006DBD4F85432002B18DC62B603B0F0BD45
:1031C000D4F85432132BF4DC03F1110204EB021295
:1031D00055609760316804EB0312C2F81C117168E6
:1031E000C2F820110133C4F85432E2E70121D4F8C7
:1031F000580203F01CFDE0E7012801DD00207047C4
:10320000014B53F820007047880A002030B58BB07E
:1032100004460D460AE09DF8213006AA0999204689
:1032200000F0B2FA04F038FAC4F8F800002305936D
:1032300006AB04930DF12103039308AB02930DF148
:10324000220301930DF12303009309AB0122E9B29C
:10325000D4F8580203F069FD0028DCD10BB030BD72
:1032600030B583B0044600F58A7504E0D4F85432D2
:10327000013BC4F85432D4F85432002B17DD03F16B
:103280008053013B1A0105EB0313A9585A68083310
:103290000193D2B200920023B1F5006F34BF002237
:1032A0000122D4F8580203F0CBFC0028DEDAD4F86F
:1032B00054320BB103B030BD0121D4F8580203F0F1
:1032C000BAFCF7E770B584B00E4615461C46106888
:1032D000B3F800C05A889B88B4F806E05B019BB243
:1032E000520192B24FEA4C1C1FFA8CF14FF0010CC4
:1032F000CDF808C000EA0C0CCDF804C04FEA4E1C13
:103300001FFA8CFCCDF800C003F074FC002333607E
:103310002A6801322A60E380A3806380238004B09E
:1033200070BD70B584B00E4615461C461068B3F8E3
:1033300000C05A889B88B4F806E05B019BB252013A
:1033400092B24FEA4C1C1FFA8CF14FF0010CCDF8F1
:1033500008C000EA0C0CCDF804C04FEA4E1C1FFA5E
:103360008CFCCDF800C003F035FC002333602A68E4
:1033700001322A60A380238040F2FF73E3806380E0
:1033800004B070BD70B582B00E4615461C4610687C
:103390001968C9005A68D20001230093034042F023
:1033A000040241F0040103F035FC002333602A6875
:1033B00001322A606360236002B070BD30B58BB00B
:1033C0000546002308930993474906AA03C982E8E2
:1033D000030004930593039302930193D5F85822B5
:1033E000424B9A420AD0A3F58063D3F8003AC3F364
:1033F000052300930024C2F81C4221E00023F8E7D3
:1034000004F11E0205EB8202516871B3029A501C4E
:1034100002900DF1280C0CEB420C2CF8103C0232FF
:1034200002920AAB03EB400020F8101C039B042B14
:1034300024D0029B022B28D0019B022B2CD00134DC
:10344000D5F8F430A3422EDD05EB84035B68B3F5B9
:10345000006FD5D3019A23F060430AA901EB8201E2
:1034600041F8183C01320192E0E7039A0AA901EB06
:10347000420121F8083C01320392D7E708AB6A46C3
:1034800003A92846FFF71EFFD3E706AB6A4602A949
:103490002846FFF746FFCFE704AB6A4601A9284656
:1034A000FFF770FFCBE7039B002B07DC029B002B91
:1034B0000BDC019B002B0FDC0BB030BD08AB6A4668
:1034C00003A92846FFF7FEFEF0E706AB6A4601A90E
:1034D0002846FFF726FFECE704AB6A4601A9284619
:1034E000FFF750FFE8E700BFAC9800080064004019
:1034F000F8B504460D4616461F4600F0E3F8544B57
:1035000023600023C4F85432C4F85852514B9D42F2
:103510002FD003F580639D4258D1002F00F08280A8
:103520004D4D202302220021284603F041FE202198
:10353000284603F072FE402302220321284603F0AE
:1035400037FE402004F0B4FBF021402004F0BCFB27
:10355000412004F0ADFBF021412004F0B5FB3F20F9
:1035600004F0A6FBF0213F2004F0AEFB3B4B5C6077
:103570002CE0002F41D0384D4FF4807302220021FF
:10358000284603F015FE4FF48071284603F045FEEF
:103590004FF4007302220321284603F009FE142091
:1035A00004F086FBF021142004F08EFB152004F0BB
:1035B0007FFBF021152004F087FB132004F078FB3B
:1035C000F021132004F080FB244B1C60D4F8580237
:1035D00003F012FA31462046FFF7AAFD2046FFF716
:1035E000EDFE0221D4F8580203F021FB1021D4F89B
:1035F000580203F01CFB2046F8BD194D4FF4006340
:1036000002220021284603F0D3FD4FF40061284632
:1036100003F003FE4FF4805302220321284603F0F7
:10362000C7FDBCE70C4D4FF4805302220021284611
:1036300003F0BEFD4FF48051284603F0EEFD4FF439
:10364000005302220321284603F0B2FD79E700BFB0
:103650006498000800640040000C0140880A0020C3
:103660000008014008B50020FFF7C6FD0021FFF764
:10367000CDFD08BD08B50020FFF7BEFD0121FFF715
:10368000C5FD08BD08B50020FFF7B6FDFFF7E8FD52
:1036900008BD08B50120FFF7AFFD0021FFF7B6FD1B
:1036A00008BD08B50120FFF7A7FD0121FFF7AEFD1A
:1036B00008BD08B50120FFF79FFDFFF7D1FD08BD4C
:1036C00070477047084B03600023C0F8F430C0F81F
:1036D000FC3005E003F14002044940F822100133B8
:1036E000042BF7DD704700BFBC980008640700207A
:1036F000D0F8FC30042B01DD0020704703F14002BC
:1037000040F822100133C0F8FC300120704710B59A
:103710001446D0F8F4201D2A0CDD002010BD013322
:103720009A420ADD00EB830CDCF804107145F6D1F7
:103730000020F3E78E460023F2E700EB8203C3F894
:1037400004E002F11E0300EB83035C600132C0F869
:10375000F42003689B6898470120DFE738B50546E9
:103760000024C0F8F44003689B68984707E004F120
:10377000400355F8230003685B6898470134D5F887
:10378000FC30A342F3DC38BD2DE9F84305468946F9
:1037900090461F4600240AE004F1400355F8230038
:1037A00003681E683B4642464946B0470134D5F897
:1037B000FC00A042F0DCBDE8F88370B5054600F1DE
:1037C000300634460BE034F8043BC3F3C02123F445
:1037D0000063002203EB41716868FFF798FFA31BA9
:1037E000242B02DCA378322BEDD170BD2DE9F04102
:1037F00082B0054600F108073E46F31B242B00F378
:103800009380B378322B00F08F80002300930193D4
:10381000B37803EB4304A40058342C441AE0C0F3FB
:1038200007231B0443EA0063C0F3074243EA022371
:1038300043EA1063E2791F2A3DD8C2F11F0223FA3E
:1038400002F2009B13430093647A04EB4404A40047
:1038500058342C44637AFF2B5DD0354B1B78002BFA
:1038600062D12079FEF786FB0146206804F070FFE4
:10387000804694F9060004F017FF414604F060FE0C
:1038800005F02CF994F908C08CEAEC71A1EBEC710D
:10389000C9B24FF0FF328A4020EA0200BCF1000FAB
:1038A000BDDBE2791F2A20D9203A00FA02F2019BFF
:1038B00013430193C8E79444BCF11E0F07DDC2F126
:1038C0003F0223FA02F2019B13430193BCE7A2F1EA
:1038D0001F0003FA00F0009901430091C2F13F027A
:1038E000D340019A1A430192AEE702EB0C03202B5E
:1038F00005DC00FA02F2009B13430093A4E700FAF0
:1039000002F1009B0B430093C2F12002D040019BC7
:103910000343019398E7686803685C6808236A4674
:1039200036F8041BA04768E702B0BDE8F08100BF8D
:10393000900A002010B509B302F10C0E00EB8E0EB8
:103940000A2A46D89EF80210322944D001EB410CD5
:103950004FEA8C0C0CF1580C844400210C469CF866
:103960000910FF2933D073B1013BDBB201EB4101F8
:1039700089005831644600EB010CF0E702F1020EB9
:1039800000EB8E0EDCE72CB16172FF238CF809305E
:1039900001201FE0322904D08EF80210F5E7013330
:1039A000DBB29918092904DC0EEB830189783229EE
:1039B000F5D1013BDBB20EEB830291788EF8021059
:1039C0003EF82330AEF8003032239370DDE700205C
:1039D00000E0002010BD0020FCE7F8B500F108036E
:1039E00000263446354637463DBB1A462C46A2EBE8
:1039F000030CBCF1240F27DC92F802C0BCF1320F9B
:103A000022D00CEB4C0E4FEA8E0E0EF1580E86446F
:103A1000002609E00136F6B20CEB4C0C4FEA8C0C98
:103A20000CF1580C00EB0C0E9EF809C0BCF1FF0F16
:103A300006D0BEF804E08E45ECD15DB10020F8BDA3
:103A40000134E4B20432D2E700F130033D460122F2
:103A50001746C9E7334622463946FFF76BFFEEE7C4
:103A600070B514461E460023079A137000F108052E
:103A7000002B46D12A46531B242B3ADC92F802C075
:103A8000BCF1320F35D00CEB4C0E4FEA8E0E0EF11E
:103A9000580E864407E00CEB4C0C4FEA8C0C0CF1F2
:103AA000580C00EB0C0E9EF809C0BCF1FF0F1ED0A5
:103AB000BEF804308B42EED11388C3F3C0222360DA
:103AC00023F40063236043EA427323609EF80730C7
:103AD00033709EF90820049B1A70DEF80020059BC5
:103AE0001A609EF90620069B1A70012070BD0432F0
:103AF000C1E7079B1B780122079D2A7000F1300562
:103B0000B6E70020F2E78446D9B102F10C0100EBE0
:103B100081010A2A27D88A78322A26D002EB42026B
:103B2000920058320CEB0200427AFF2A19D063B19E
:103B3000013BDBB202EB4202920058320CEB020076
:103B4000F2E7911C00EB8101E3E70B88C3F3C0228D
:103B500000990B6023F400630B6043EA42730B602F
:103B600070470020704700207047002070472DE903
:103B7000F04385B00646884600F1080900273B4619
:103B80002FE02B88C3F3C02C23F4006194F9083094
:103B9000E2792079029794F906E0CDF804E0D4F8B0
:103BA00000E0CDF800E041EA4C71C047647A04EBD4
:103BB0004404A40058343444637AFF2BE1D1043523
:103BC000A5EB0903242B08DCAB78322B05D003EBE3
:103BD0004304A40058343444EEE706F130093B4670
:103BE00001270BB94D46EBE705B0BDE8F083002394
:103BF00006E001EB83024FF0320C82F802C0013381
:103C0000092BF6DD002307E003EB430200EB820201
:103C1000FF2182F861100133322BF5DD704710B5BA
:103C2000044600F10801FFF7E2FF04F130012046ED
:103C3000FFF7DDFF6068FFF791FD10BD2DE9F04152
:103C40000F4615461E460024A0460AE0286803F0E9
:103C5000D3F8804655F8041B07EB840003F09CFA68
:103C60000134B442F2DB4046BDE8F081084600E092
:103C70000430431A242B0ADC8378322B05D00388C6
:103C8000534033F40063F3D102E00020704700207A
:103C9000704700004B4B1B7803B170472DE9F04192
:103CA000054616460A4600F13001FFF7DFFF0028FF
:103CB00000F08580837803EB4304A40058342C443F
:103CC00042E01F2B53D83068C0F30722120442EAA7
:103CD0000062C0F3074742EA072242EA1062C3F1DA
:103CE0001F03DBB201208840013822FA03F3184099
:103CF00004F0D6FC074694F9060004F0D5FC3946DA
:103D000004F01EFC0146206804F022FD07462079DD
:103D1000FEF7C4F920B12079FEF7C0F9012849D196
:103D2000B4F804804FF08441384604F011FD04F0EB
:103D3000D5FE01465FFA88F0FEF7F0F8647A04EBEE
:103D40004404A40058342C44637AFF2B37D0E37921
:103D500094F9082082EAE271A1EBE271C9B2002A6B
:103D6000AFDB1F2B18D97268203BDBB2BAE71A44CD
:103D70001F2A03DD7068203BDBB2A5E75B1ADBB2CC
:103D80000133DBB23068D8407268C3F120039A4037
:103D900010434B1EDBB297E71A44202A01DC32683D
:103DA000A0E73268DA407068C3F12003984002430C
:103DB000002397E739462079FEF704F9BEE7BDE80E
:103DC000F08100BF900A00202DE9F8439DF8207093
:103DD0009DF92460002E76D004460D469146984603
:103DE00086EAE673A3EBE673DBB2202B6ED8002ED7
:103DF0000BDDBB19402B6CDC424629462046FFF701
:103E000035FF844658B100221BE03F2F64D87BB2B7
:103E10003344B3F1FF3FEFDA6FF0010051E00021CE
:103E2000092907DC05EB81039A78322A01D0013198
:103E3000F6E79C46BCF1000F51D0ACF80080E2E7F9
:103E40000132312A07DC02EB420304EB830393F8CF
:103E50006130FF2BF4D1322A44D09CF8023000218B
:103E60000AE003EB430189005831214403EB43038B
:103E700004EB830393F86130322BF2D102EB42035F
:103E800004EB8304A4F85C900A9BA3659DF92C3095
:103E900084F85E3084F85F7084F86060322384F8C0
:103EA000613019B14A722B46002004E08CF80220E0
:103EB000F9E7013004335A1B242A02DC9A78322AAB
:103EC000F7D1BDE8F8836FF00200FAE76FF0020067
:103ED000F7E76FF00100F4E76FF00100F1E76FF032
:103EE0000300EEE76FF00400EBE7B2F5006F16D2C7
:103EF00000B585B09DF920C0CDF80CC0DDF81CC020
:103F0000CDF808C09DF918C0CDF804C00093134641
:103F10000A4600F10801FFF757FF05B000BD4FF05A
:103F2000FF30704770B584B005461446C2F3407048
:103F300022F00052B2F5006F1DD29DF928C0CDF8D5
:103F40000CC0DDF824C0CDF808C09DF920C0CDF824
:103F500004C0009342EAC0230A4605F13001284616
:103F6000FFF732FF0646002221466868FFF7CFFBC5
:103F7000304604B070BD4FF0FF331E46F8E72DE920
:103F8000F04F89B08346059206938A46079131E047
:103F9000B4F9020004F088FB002303930290CDF8EB
:103FA000048000953B46049A05993046FFF70CFFC4
:103FB0000634A4EB09032A2B1ADC94F90530002BF4
:103FC00016DD2088FEF722F80490DBF80060BAF8CE
:103FD0000070257994F90580069B002BD8D0B4F9A0
:103FE000020004F061FB4FF0745104F0B1FBD3E721
:103FF0000AF1320A079BAAEB0303B3F5E17F0ADC5F
:10400000BAF800104FF6FF73994204D00AF1020586
:104010002C46A946CDE709B0BDE8F08F08B502F0FF
:10402000FFFE00F5FF3000F5FF70800208BD70B59F
:1040300082B006460190FFF7F1FF0446D0F8E8533E
:1040400002F0D2FEFA21204602F0DCFE854202D0C8
:10405000002002B070BD01AD002332460832214677
:104060002846FFF78CFF01233246303204F5FA71FF
:104070002846FFF784FF0120EBE7F8B505460F4619
:104080000E460EE02079FDF7D1FF038BA380647A02
:1040900004EB4404A40058342C44637AFF2BF1D180
:1040A0000436F31B242B08DCB378322B05D003EB4A
:1040B0004304A40058342C44EFE7F8BDF8B5054696
:1040C0000F460E460DE0A088FDF7A0FFA080647AA1
:1040D00004EB4404A40058342C44637AFF2BF2D13F
:1040E0000436F31B242B08DCB378322B05D003EB0A
:1040F0004304A40058342C44EFE7F8BDF0B583B076
:104100000546FFF78BFF064602462A4B0121197030
:1041100000234FF0FF3403E052F8041B0C4001333E
:10412000FF2BF9DD02F060FE03F01CF8022003F023
:104130000FF8B4F1FF3F38D105F10807394628469A
:10414000FFF79BFF05F1300421462846FFF795FF56
:104150000A233A4631462846FFF770FD0A232246D5
:1041600006F128012846FFF769FD0190962305F125
:10417000580206F150012846FFF760FD0190012327
:1041800001AA06F52D712846FFF758FD02F0F6FF4B
:1041900039462846FFF792FF21462846FFF78EFF53
:1041A000044B00221A7003B0F0BD304602F096FFB7
:1041B000C2E700BF900A0020F8B50646FFF72EFFC1
:1041C0000446D0F8B45202F00FFEAA21204602F0B5
:1041D00019FE854203D03046FFF729FFF8BD06F1EE
:1041E00008070A2221463846FEF70EFB06F1300585
:1041F0000A2204F128012846FEF706FB962204F164
:10420000500106F15800FEF7FFFA39463046FFF735
:1042100055FF29463046FFF751FF0120DEE7000039
:1042200038B50446084615460D4B23600D4B2360F8
:1042300061602146FFF75CFA04F108012046FFF7B0
:10424000D6FC04F130012046FFF7D1FC25B9204609
:10425000FFF7B3FA204638BD2046FFF7ADFFF6E77B
:10426000788B0008E0980008036ED3B14FF47A739E
:10427000036604E0036E002B07DD01233BB1826D72
:10428000C36D9A42F6D00023F8E70023F6E7836D6A
:104290005A1C826503F03F03034419764FF0FF3345
:1042A00043617047A0F10400FFF7DEBF10B504467C
:1042B000017C002201F5C0618068FFF728FA617C6B
:1042C0003F2900D910BD002201F5B061A068FFF7B9
:1042D0001EFAF7E710B504460846144B2360144B4A
:1042E0006360144B236014336360A160E2600123B8
:1042F0002374FF2363744FF0FF3363610023A365CE
:104300004022E2654FF47A7222663B2284F86420F0
:10431000A36684F87830E36784F888302146FFF795
:10432000E7F92046FFF7C2FF204610BD788B000852
:104330003C970008F098000808B501748068FFF702
:104340000DFA08BD10B582B004468DF80010ADF826
:1043500001309DF810308DF80330059B0193437CAC
:1043600093420DD1002384F87830A068617C036803
:104370005C6808236A4601F5C061A04702B010BD21
:1043800042748068FFF7EAF9ECE738B504460A465C
:104390008068217C03685D68082301F5B061A84747
:1043A000002384F8883038BDB1F8012045F20103BC
:1043B0009A4211D0012380F888300B7880F8803041
:1043C000B1F80130A0F88130CB7880F883304B68A9
:1043D000C0F88430002070470B78402B01D00020BB
:1043E00070474FF0FF330B714B7100238B71CB7112
:1043F00041220A704FF47A72026683654023C365D6
:10440000CB784361012070472DE9F04184B0074625
:104410000C46B1F80120C2F3C0131E46CD7825B179
:10442000013D05EBD575C5F3470503AB00932B465E
:1044300002F03F023146F868FFF765FB80462378BB
:10444000402B0DD0232B3DD08023237000232371DC
:1044500063710223A3710623E37104B0BDE8F08108
:1044600030B30079FDF7E2FD028BE37823B9039BBB
:10447000636043232370F0E713F0010F09D098F82D
:10448000073042EA034298F9083042EA0362626068
:10449000EFE71549D8F8000004F05AF904F01EFBC4
:1044A00020F07F4398F9062043EA02636360E0E767
:1044B000802323700023237163710223A3710623D9
:1044C000E371CAE70028BFD06368002BBCD1B4F801
:1044D00001202B4602F03F023146F868FFF72AFA26
:1044E00060232370B9E700BF00007A440B78232BC8
:1044F00000D070472DE9F04184B005460C461646C1
:10450000CB7883B94B68B3F1005F04D323F000523A
:10451000B2F5006F03D2AB666023237019E04FF051
:10452000FF3383660CE0826E1746B2F1FF3F01D085
:10453000012B11D095F9742090460AB1022B1DD0A1
:10454000802323700023237163710223A371062348
:10455000E37104B0BDE8F081486880B2FDF756FD14
:10456000A5F870006368C3F3054385F8733063688A
:104570001B1685F874303928CED9E1E7606840F31E
:10458000170004F091F8154904F096F9E86663689D
:104590001B1685F87230A6B102930190CDF8008009
:1045A00095F873303A4695F87010E868FFF7BAFC52
:1045B000002385F874304FF0FF33AB660028ABDA88
:1045C000BEE702930190CDF8008095F873303A462B
:1045D00095F87010E868FFF788FCE9E700007A4476
:1045E00038B504460D460A7802F06003602B31D0DE
:1045F000B1F80130B3F5005F5AD003F47F40B0F555
:10460000045F55D0E16819B1B3F5405F00F08580D3
:1046100021B143F2010C634500F0858019B1B0F57A
:10462000445F00F0868045F203018B4200F08680F3
:1046300045F204018B4240F09B80402A00F09180BB
:1046400080232B7000232B716B710223AB71062327
:10465000EB7119E002F010020A700122072A0EDC49
:10466000E36DA16D5B1A402B09D0E36D591CE16528
:1046700003F03F0323441B7EAB540132EEE7E36DAE
:10468000A16D5B1A402B09D0A068217C03685C688F
:1046900008232A4601F5B061A04738BD2B7843F0C6
:1046A00001032B70C2F1080243EA42032B70EBE7CF
:1046B000E87803F47F42B2F5045F0CD0392822D8A1
:1046C0002B78232B0DD0402BDED1FDF745FC686005
:1046D00043232B70D8E71B029BB21844FDF796FCCE
:1046E000ECE76968FDF71AFC10B960232B70CBE783
:1046F00080232B7030232B7100236B710923AB7146
:104700000623EB71C0E780232B7000232B716B71A4
:104710000223AB710623EB71B6E70022294620463F
:10472000FFF7E4FEB0E7012229462046FFF7DEFE50
:10473000AAE729462046FFF767FEA5E7402A09D0E9
:1047400080232B7000232B716B710223AB71062326
:10475000EB7199E7E878FEF799FC686043232B70CA
:1047600092E7E878FEF7A4FC686043232B708BE7A0
:1047700029462046FFF718FE002885D18DE7000066
:10478000F0B583B004461546037C03F5C0638B4245
:1047900007D0437C1E4603F5B0638B4205D003B0BF
:1047A000F0BD1146FFF71CFFF9E7B2F801301F46D4
:1047B000A3F540539BB2012B08D92B78803B18BF3F
:1047C000012384F878306B68E367E8E7D378ABB10E
:1047D000012BF2D11349C06E03F0BAFF04F07EF949
:1047E00094F9723040EA03630193022300933B463D
:1047F000324623212046FFF7A5FDDEE7B0F87030F2
:1048000090F8732043EA024390F9742043EA02636C
:104810000193012300933B4632462321FFF792FD8B
:10482000CBE700BF00007A4410B50446B0F8013071
:10483000B3F5A04F0DD045F20202934234D080234D
:1048400023700023237163710223A3710623E37194
:1048500010BD0278402AEED143230370C378022BA7
:1048600013D007D863B1012B14D12E4BD3F8EC37FA
:104870004360EDE7032B0DD1FDF71AFC6060E7E71D
:10488000284BD3F8E8374360E2E7264BD3F8F037FC
:104890004360DDE7802323700023237163710223CB
:1048A000A3710623E371D3E72378232BC7D16023B9
:1048B0002370E378012B21D009D9022B26D0032BBA
:1048C00026D1FDF7BBFB3A20FCF76AFDC0E7FBB938
:1048D000154B1B784BB172B6144B186808B1FFF733
:1048E0000DFCFEF71EFB62B6B2E7802323700023A7
:1048F00023716371A3710823E371A9E772B6FEF710
:104900006BFB62B63A20FCF74BFDA1E703F0C8F958
:10491000802323700023237163710223A371062374
:10492000E37195E700F0FF1F68070020940A00205C
:104930002DE9F04184B00E46174698469DF8304068
:10494000FDF774FB43681D461449154B1868FEF7C4
:1049500099F9ECB11349124B1868FEF793F94FF02F
:1049600084410A9803F0F4FE0D4B1C689DF92C302D
:10497000039304F0B3F80290CDF804800097334617
:104980002A4609492046FEF77DF904B0BDE8F081CA
:104990000649034B1868FEF775F9E0E744930008F1
:1049A0009C0A00204C930008549300085093000880
:1049B00070B505460846FDF7FBFE06462021FDF7CB
:1049C000ABFE0378A3B1002300F8013B0521FDF7FE
:1049D000C2FF04463046FDF705FB3B2812D02146B6
:1049E000FDF79CFA48B90A492846FEF74BF903E05F
:1049F00008492846FEF746F970BD07492846FEF7E4
:104A000041F9F9E7324605492846FEF73BF9F3E755
:104A1000849300086893000890930008A893000806
:104A2000F8B507460846FDF7C3FE054609E02A46E5
:104A30000F493846FEF726F9254605F8016B2C2E5E
:104A400014D12C212846FDF767FE04460678002382
:104A500003702846FDF7C6FA3B28E8D0FDF77CFA3C
:104A6000024604493846FEF70DF9E5E7F8BD00BFF8
:104A7000C8930008C09300082DE9F0410646084697
:104A8000FDF796FE07462021FDF746FE03789BB111
:104A900004460546002305F8013B3846FDF7A2FA17
:104AA00080463B2829D06378212B0AD07E2B08D062
:104AB0002F2B06D0002406E013493046FEF7E2F81B
:104AC0000FE0A51C012429461048FDF707FE50B948
:104AD00074B101214046FDF7D3FA0D493046FEF787
:104AE000D1F8BDE8F0810B493046FEF7CBF8F8E786
:104AF00001214046FDF7BCFAEFE73A460649304649
:104B0000FEF7C0F8EDE700BFE4930008F493000857
:104B10000C940008FC930008A89300082DE9F04FBE
:104B20008BB007460846FDF743FE037805934649D8
:104B30003846FEF7A7F800264FF0200822E0434A47
:104B4000039202930190CDF800A04B4642464049A3
:104B50003846FEF797F82846FDF7A0FA20B1284618
:104B6000FDF79CFA01285AD1E2682369616920683F
:104B700002960190009137493846FEF783F84FF0CE
:104B80002C080136392E51D8F5B22846FDF74EFAD9
:104B900004462846FDF77CFA10F0010F02D0059B71
:104BA000682BEED1D4F80490D4F808A0B4F818B06B
:104BB0002846FDF7D1F90290CDF804B0CDF800A059
:104BC0004B46424624493846FEF75CF80DF11F0378
:104BD00003930DF11E03029309AB01930DF11D0325
:104BE000009307AB08AA29461C480068FEF738FF67
:104BF0000028B0D0DDF820809DF81C909DF91DA004
:104C00004FF08441099803F0A3FD03F067FF9DF97D
:104C10001E309DF81F20002A91D0114A90E71149BB
:104C20003846FEF72FF84FF02C08AAE70E4BD3F8C2
:104C3000F0270E493846FEF725F80D493846FEF7AD
:104C400021F80BB0BDE8F08F3094000828940008DC
:104C500064940008C894000834940008980A00205E
:104C600020940008B494000800F0FF1F1895000875
:104C7000549500082DE9F0478AB0074600230593B4
:104C800006930793089309930846FDF791FD04786E
:104C9000702C38D0632C44D02021FDF73DFD0378E3
:104CA000002B47D0FDF784FD06462021FDF734FD9B
:104CB00003780BB9642C44D10546002305F8013B69
:104CC0003046FDF78FF9064681462846FDF770FD10
:104CD00080463B2E3AD0642C3DD000231D464FF039
:104CE0007E539A46042D62DC20214046FDF714FDD8
:104CF00006460378002B39D1022D37DC5949384656
:104D0000FDF7C0FF1AE0584B1B68002BFBD1564C37
:104D100027605649564B1868FEF729FF0023236089
:104D20000CE0534B1868FEF77AFF52493846FDF7FE
:104D3000A9FF03E04B493846FDF7A4FF0AB0BDE8E0
:104D4000F08748493846FDF79DFFF7E74A4938465E
:104D5000FDF798FFF2E73146454B1868FEF73DFE38
:104D6000024646493846FDF78DFFE7E700233370DA
:104D70004046FDF704FD032D0DD00AAB03EB850380
:104D800043F8140C30460130FDF712FD80462B46E7
:104D900001331D46A6E710214046FDF7DCFD03F078
:104DA00083FC4FF05E5103F0D3FC8246EAE7742C9B
:104DB0001FD09DF924300293CDF804A09DF91C303A
:104DC00000939DF81830059A494629480068FFF776
:104DD000A9F810F1030F2ED01CDD10F1020F24D022
:104DE000B0F1FF3F33D1059A25493846FDF74AFF18
:104DF000A4E79DF924300293CDF804A09DF91C305E
:104E000000939DF81830059A494619480068FFF745
:104E10006CF8DEE710F1050F13D010F1040F16D176
:104E200018493846FDF72EFF88E7069A1649384696
:104E3000FDF728FF82E7079A14493846FDF722FF5D
:104E40007CE7059A12493846FDF71CFF76E70128F2
:104E500006DD104B024610493846FDF713FF6DE79B
:104E60000E4BF7E7849500089C0A002031490008A2
:104E7000980A00206095000898950008AC950008F5
:104E8000C495000828960008D8950008EC950008FD
:104E9000009600085C950008449600081C940008E1
:104EA00010B50D4B1B7893B1044672B60B4B1868C6
:104EB000FFF724F90A492046FDF7E4FEFEF731F832
:104EC000024662B607492046FDF7DCFE10BD0649E2
:104ED000FDF7D8FEFAE700BF69070020980A002016
:104EE00070960008809600089C96000810B504464D
:104EF00072B6FEF771F862B638B93A20FCF750FA8C
:104F000004492046FDF7BEFE10BD03492046FDF7CB
:104F1000B9FEF9E7E0960008F496000808B502F03B
:104F2000BFFE2DE9F843054688461746002604E0F3
:104F300023782C2B16D1BE4214D22C212846FDF703
:104F4000EBFB044690F80090002303702846FDF721
:104F500049F8254605F8019B3B28E9D008F80600EA
:104F60000136E5E73046BDE8F88300002DE9F04161
:104F700084B006460846FDF71BFC0446FDF7FFFB20
:104F8000804620212046FDF7C7FB03784BB10A225B
:104F900001A90130FFF7C5FF07463046FDF796F837
:104FA00020E018493046FDF76DFE04B0BDE8F08101
:104FB00004F110036B4413F80C0CFCF7CDFF03460F
:104FC0002A4611493046FDF75DFE01340F4DBC42C3
:104FD000EEDB0F493046FDF755FEB8F1FF3F01D03B
:104FE00008F1FF383046FDF76BF80028DDD1804529
:104FF00002DD084D0024EAE7B8F1FF3FD5D1054DA9
:105000000024E4E70C9700082C970008349300086C
:10501000DC9600081C94000808B5042856D019DC5A
:1050200002282FD003283FD0012811D1394B3A4A0A
:105030001A603A4B3A4A1A603A4B3B4A1A601520BA
:105040003A4B1860FCF78EFF394B1860012008BD01
:105050000020FCE705284BD0062811D12D4B354AFE
:105060001A602E4B344A1A602E4B344A1A601320B1
:105070002E4B1860FCF776FF2D4B18600120E6E7F9
:105080000020E4E7234B2E4A1A60244B2D4A1A6075
:10509000244B2D4A1A601620244B1860FCF762FF3F
:1050A000234B18600120D2E71A4B284A1A601B4B89
:1050B000274A1A601B4B274A1A6011201B4B1860A5
:1050C000FCF750FF1A4B18600120C0E7114B224A31
:1050D0001A60124B214A1A60124B214A1A601220A0
:1050E000124B1860FCF73EFF114B18600120AEE731
:1050F000084B1C4A1A60094B1B4A1A60094B1B4A91
:105100001A601420094B1860FCF72CFF084B18603C
:1051100001209CE7A80A00202C080020A40A0020F7
:105120001C080020A00A002024080020DC0A00201F
:10513000E00A002044080020340800203C08002039
:10514000DC080020CC080020D4080020EC08002057
:105150008C080020940800208408002064080020A7
:105160006C0800205C0800204C0800205408002037
:1051700070B500240FE0174B1B689988186802F07F
:105180004EF8154B1B689988186802F046F8134BC7
:1051900000221A702C46052C1BDC651C2846FFF7E4
:1051A0003BFFB0B10E4B53F82430002BE3DD094E2A
:1051B00033689988186802F038F83068FCF77EF890
:1051C0000028E7D0064A52F82430013B42F8243048
:1051D000E0E770BDA00A0020A40A0020C00A002059
:1051E000C40A00202DE9F04104460D46FFF714FFE4
:1051F00048B1274B1B7833B9631E1A461E46254B10
:1052000053F822300BB1BDE8F081234B1878FCF73E
:10521000A9FE0746C4B2FF220021284600F0C2FDC5
:105220008046C3B21D469C4219D3AC42EBD91B4BFE
:105230001B689988186801F0F2FF194B1B68998860
:10524000186801F0ECFF5FFA88F1FBB25B1A114AB3
:1052500042F82630104B1878FCF7A6FED3E70F4B28
:105260001B689988186801F0DAFF0D4B1B68998854
:10527000186801F0D2FF5FFA88F1FBB2CB1A054A39
:1052800042F82630044B1878FCF78EFECDE700BFBD
:10529000C00A0020C40A0020DC0A0020A40A002062
:1052A000A80A0020F8B5134B01221A700024052C1F
:1052B0001EDC651C2846FFF7AFFEC8B10E4F002666
:1052C00047F824600D4B1B689988186801F0A7FF08
:1052D0000B4B1B689988186801F0A1FFFF2347F862
:1052E00024303146074B1878FCF75EFE2C46DEE78B
:1052F000F8BD00BFC00A0020C40A0020A40A002094
:10530000A80A0020DC0A002008B5054B9988186817
:1053100001F085FF00211720FCF746FE08BD00BF05
:10532000FC07002008B5054B9988186801F075FF47
:1053300001211720FCF738FE08BD00BFFC07002044
:1053400008B5094B1B784BB90146052809D8074B0E
:1053500018600C20FCF728FE002008BD4FF0FF303D
:10536000FBE74FF0FF30F8E7B40A0020BC0A00204A
:10537000F8B55B4B1E68304603F0F6FB0546022489
:1053800001231F4600E00134052C0ADC554B53F87D
:105390002400301A03F0E8FB8542F4DD0546274679
:1053A000F1E7514B1F60514B1B7833BB504B1B68CF
:1053B000002B42D04B4A52F82340A41B204603F056
:1053C000D3FB0A287ADD02F067F94A4B1B68B34227
:1053D00044D0484B1E60484B1860002C60DD474BA2
:1053E00001221A70464B9988186801F016FF454B48
:1053F0009988186801F013FF2FE002F04DF93D4B3A
:105400001B68B34204D03B4B1E603B4B186024E04A
:10541000394B1B68C01A63281FD9394B9988186803
:1054200001F0FDFE374B9988186801F0F8FE002363
:105430002B4A13602D4A13700FE0314B998818687E
:1054400001F0EDFE2F4B9988186801F0E8FE294B1A
:105450001E6002F021F9284B1860F8BD264B1B682E
:10546000C01A6328B9D9264B9988186801F0D7FE6D
:10547000244B9988186801F0D2FE1D4B1B68012B44
:1054800005D0052B07D01A4B00221A60E5E7144B14
:1054900000221A60F7E7124B40F2B6321A60F2E7C8
:1054A000164B00221A70164B9988186801F0B7FE47
:1054B000144B9988186801F0B0FECEE7104B99881C
:1054C000186801F0ACFE0F4B9988186801F0A7FE30
:1054D000084B1E6002F0E0F8074B1860BDE700BF04
:1054E000A407002008990008B80A0020B40A002088
:1054F000BC0A0020AC0A0020B00A00206A07002085
:105500007C08002074080020014B1868704700BF19
:10551000B80A002008B50D4B01221A7000230C4A6E
:1055200013600C4A13700C4B9988186801F077FED1
:105530000A4B9988186801F070FE02F0ADF8084B2C
:105540001860084B1A68084B1A6008BDB40A00209E
:10555000BC0A00206A0700207C0800207408002094
:10556000B00A0020A4070020AC0A002000000000C0
:1055700010B50446017843781B0203F4E063194335
:1055800001EB810149002F20FCF70EFD6378A07824
:10559000400140EAD300C0F3090002F0FFFC0EA373
:1055A000D3E9002302F064FD02F074FF01463120CC
:1055B000FCF708FDA378E178890041EA931123798B
:1055C0009B0203F48063194301EB810149003320FE
:1055D000FCF7EAFC10BD00BF9A9999999999B93FD7
:1055E00010B50446C078A37843EA002002F0D6FC48
:1055F00009A3D3E9002302F03BFD02F04BFF014673
:105600003120FCF7DFFC217928393220FCF7CCFC73
:1056100010BD00BFAFF300809A9999999999B93F4D
:1056200030B583B005460A20FCF79CFC04463020C8
:10563000FCF798FC8DF8000003128DF801308DF80E
:10564000024024128DF8034000238DF80430984264
:1056500011DD01238DF8053000238DF806308DF81B
:1056600007302B685C6808236A4640F2812128468F
:10567000A04703B030BD0023ECE708B56422002149
:1056800000F090FB00EB800041003020FCF78CFC28
:1056900008BD08B53120FCF765FC08BD10B504460F
:1056A00001462B20FCF780FC50220021204600F010
:1056B00079FB4CF2503300220249C0B200F07CFB6F
:1056C00010BD00BF0008004010B5044601462D2063
:1056D000FCF76AFC50220021204600F063FB4CF2EC
:1056E000503302220249C0B200F066FB10BD00BF79
:1056F0000008004008B5074B1B6843B1054B18680C
:1057000002F0CEFF0146044803F0D6F808BD0020A1
:10571000FCE700BFA0070020C0E1E44B08B5074B41
:105720001B6843B1054B186802F0BAFF01460448F4
:1057300003F0C2F808BD0020FCE700BF9C07002072
:10574000C0E1E44B10B504460A4903F0B3F950B97F
:105750000949204603F0AEF938B90849204603F05C
:10576000A9F920B910BD0320FCE70220FAE70120C7
:10577000F8E700BF0000C0410000A8410000204140
:1057800008B5022300221146074801F011FD074821
:1057900001F022F9054801F0E1F80028FAD00348A9
:1057A00001F0E0F880B208BD000C01400028014083
:1057B00010B50446022300221946074801F0F8FC00
:1057C00024B10221044801F028FD10BD0221024845
:1057D00001F025FDF9E700BF000C014000000000CA
:1057E00038B50024324D22462B46324800F096FC54
:1057F00022462B46304800F091FC22462B462F488B
:1058000000F08CFC22462B462D4800F087FC2246F7
:105810002B462C4800F082FC22462B462A4800F0FA
:105820007DFC22462B46294800F078FC22462B4678
:10583000274800F073FC1CA3D3E90023254800F09F
:105840006DFC22462B46244800F068FC22462B467D
:10585000224800F063FC22462B46214800F05EFC03
:1058600022462B461F4800F059FC22462B461E4874
:1058700000F054FC22462B461C4800F04FFC224608
:105880002B461B4800F04AFC22462B46194800F0E4
:1058900045FC22462B46184800F040FC22462B4689
:1058A000164800F03BFC38BD333333333333D33F3A
:1058B0000000E03FA80C0020900C0020780C002095
:1058C000600C0020480C0020300C0020180C002038
:1058D000000C0020E80B0020D00B0020B80B0020AB
:1058E000A00B0020880B0020700B0020580B00201C
:1058F000400B0020280B0020100B0020F80A00208D
:1059000038B501F0C9FE04462D4B1B78012B0BD096
:10591000022B17D03BB91846FFF74AFF294B1C60F2
:10592000274B01221A7038BD264B1B68C31A632B04
:10593000F9D90120FFF73CFF224B1C60204B0222CB
:105940001A70F0E7FFF71CFF1E4B1B68E31A1A469C
:105950001D4640F2DB53984201D8632A2CD900201F
:10596000FFF726FF174B1C60154B01221A702846C3
:1059700002F096FE144902F0EBFE144902F09CFF7F
:10598000134902F0E5FE134902F0E2FE02F018FBB3
:1059900002460B46104800F0D2FB02F07BFD0446A5
:1059A00001462520FCF70EFB2046FFF7CBFE014603
:1059B0002420FCF7F9FAB6E70120FFF7F9FEB2E779
:1059C000E80A0020E40A00200AD7233C00401C46D5
:1059D0000024744985EB513FE80B00202DE9F04F7E
:1059E00083B0B948FDF730FA02F05AFE0646B748D0
:1059F000FDF72AFA02F054FE8246B548FDF724FA74
:105A000002F04EFE05464FF000084FF08B47DFF8DE
:105A1000C492B14C2368009343463A464946304607
:105A200000F0A4F98346AD4E3368009343463A46EE
:105A3000AB49504600F09AF98246236800934346EA
:105A40003A464946284600F091F98046206803F01E
:105A500045F80546584603F041F82A46002100F073
:105A6000A1F902F021FE0746306803F037F8054639
:105A7000504603F033F82A46002100F093F902F073
:105A800013FE0546206803F029F80446404603F05B
:105A900025F82246002100F085F902F005FE0446B3
:105AA000384602F08DFA02460B468E4800F047FB5E
:105AB00002F0F0FC01461820FCF784FA284602F0B8
:105AC0007FFA02460B46884800F039FB02F0E2FC00
:105AD00001461920FCF776FA204602F071FA0246D8
:105AE0000B46824800F02BFB02F0D4FC01461A2042
:105AF000FCF768FA7E48FDF7A7F9042100F09CFA4C
:105B000002F05EFA02460B467A4800F018FB0446A3
:105B10000D46794B186802F053FA02460B462046B0
:105B2000294602F0EDF802F0B5FC01461B20FCF717
:105B300049FA7248FDF788F9042100F07DFA02F075
:105B40003FFA02460B466E4800F0F9FA04460D464D
:105B50006C4B186802F034FA02460B462046294680
:105B600002F0CEF802F096FC01461C20FCF72AFA5F
:105B70006548FDF769F9042100F05EFA02F020FAA9
:105B800002460B46614800F0DAFA04460D46604BC7
:105B9000186802F015FA02460B462046294602F024
:105BA000AFF802F077FC01461D20FCF70BFA5948CC
:105BB000FDF74AF9042100F03FFA02F001FA02462B
:105BC0000B46554800F0BBFA04460D46534B186887
:105BD00002F0F6F902460B462046294602F090F8FC
:105BE00002F058FC01461E20FCF7ECF94C48FDF78A
:105BF0002BF9042100F020FA02F0E2F902460B46EC
:105C0000484800F09CFA04460D46474B186802F0DD
:105C1000D7F902460B462046294602F071F802F0F9
:105C200039FC01461F20FCF7CDF94048FDF70CF97F
:105C3000042100F001FA02F0C3F902460B463C4889
:105C400000F07DFA02F026FC01462120FCF7BAF9AB
:105C50003848FDF7F9F8042100F0EEF902F0B0F948
:105C600002460B46344800F06AFA02F013FC014683
:105C70002020FCF7A7F93148FDF7E6F8042100F0F1
:105C8000DBF902F09DF902460B462D4800F057FA69
:105C900002F000FC01462220FCF794F92948FDF7A8
:105CA000D3F8042100F0C8F902F08AF902460B4645
:105CB000254800F044FA02F0EDFB01462320FCF7F2
:105CC00081F903B0BDE8F08F0809002030090020F9
:105CD0002C09002000801344780700207C07002056
:105CE0000000B943A80C0020900C0020780C002084
:105CF00014090020600C0020740700201009002007
:105D0000480C0020700700200C090020300C0020F7
:105D10006C07002018090020180C0020F00A002051
:105D200000090020000C0020EC0A002028090020B7
:105D3000700B002024090020580B002020090020AF
:105D4000100B00201C090020F80A002008B5FFF7FE
:105D500047FD08BDA0EB010C0098C01A00FB0CFC2D
:105D6000521A9CFBF2FC0CEB03007047F8B50F468F
:105D700016461C4602F0E2FB05462146069802F054
:105D8000DDFB0146284602F0E3FC05463946304675
:105D900002F0D4FB0146284602F08EFD214602F0B7
:105DA000CFFBF8BD904202DC884202DB7047104610
:105DB000704708467047000038B5844608461146CB
:105DC0001A46BCF1640F01D94FF0640C541CACFBB3
:105DD00004C4CCF3130E4FEA1C5343EA0433C3F359
:105DE00013039E44C4F313239E440EEB147E114B05
:105DF000A3FB0E53DB0803EB830303EB8303AEEB40
:105E0000030EBCEB0E0C64F10004DFF82CE00B4B2E
:105E100003FB0CF30EFB0433ACFB0ECE73444FEAD2
:105E20009C0C4CEA837C624500D3624601F0EBFD9A
:105E300038BD00BF1F85EB51295C8FC2F5285C8FF0
:105E40007047000010B504460220FCF78BF80128CB
:105E500000D010BD207802F023FC1C4902F06EFB3C
:105E600001462220FCF7AEF80320FCF7DFF8C168FA
:105E70000269521149116078FFF794FF02F014FC97
:105E800001460320FCF79EF80820FCF7CFF8C16814
:105E9000026952114911E078FFF784FF02F004FC17
:105EA00001460820FCF78EF80920FCF7BFF8C1680E
:105EB0000269521149116079FFF774FF02F0F4FB97
:105EC00001460920FCF77EF8C3E700BF000020422E
:105ED000F0B585B004462F20FCF744F807461B2098
:105EE000FCF740F8FF2200212830FFF75BFF8DF818
:105EF00008001C20FCF736F8FF2200212830FFF7AD
:105F000051FF8DF809001D20FCF72CF8FF2200211D
:105F10002830FFF747FF8DF80A001820FCF722F819
:105F2000FF22002100EB8000FFF73CFF8DF80B0003
:105F30001920FCF717F8FF22002100EB8000FFF783
:105F400031FF8DF80C001A20FCF70CF8FF2200211D
:105F500000EB8000FFF726FF8DF80D002A20FCF7EC
:105F600001F800EB8000FF2200214000FFF71AFF3C
:105F70008DF80E002C20FBF7F5FF00EB8000FF22D0
:105F800000214000FFF70EFF8DF80F0002AD2368DF
:105F90005E6808232A4640F232712046B0471E2030
:105FA000FBF7E0FFFF2200212830FFF7FBFE8DF812
:105FB00008001F20FBF7D6FFFF2200212830FFF743
:105FC000F1FE8DF809002420FBF7CCFFFF22002111
:105FD000FFF7E8FE8DF80A0028238DF80B303420F7
:105FE000FBF7C0FFFF2200212830FFF7DBFE8DF812
:105FF0000C000B20FBF7B6FFFF220021FFF7D2FEBB
:106000008DF80E00FA23009314234FF4FA524FF444
:1060100048713846FFF79EFEFF220021FFF7C2FEBF
:106020008DF80F0023685E6808232A4640F233711A
:106030002046B04705B0F0BD06296AD82DE9F047E3
:106040000C46002398461D4639E087424ADB4DE066
:10605000012E27D0C01B02F027FB8146012E26D03F
:106060004346D81B02F020FB8246670004EB440342
:10607000DFF8A48008EB83031E79304602F014FB9E
:10608000494602F065FB514602F016FC8146274462
:1060900038F9270005FB060002F006FB494602F02E
:1060A0004DFA34E0381A02F0FFFA8146D6E743464B
:1060B000F81A02F0F9FA8246D7E70135B84604EB40
:1060C0004402154B03EB82035B79AB4218D904EB16
:1060D0004402114B03EB82039A6832F815709E79E3
:1060E000012EB2D0002EE8D18742E6DC002DAFD1E0
:1060F00004EB4404084B33F9240002F0D5FA06E01F
:10610000054B03EB8203B3F9020002F0CDFABDE8C0
:10611000F0870020704700BF209900084DF804BDAB
:1061200093469C4600220023C0E90023C0E90223D5
:1061300000230374C0E902BC5DF804BB70472DE97D
:10614000F041044610461946237CCBB1D4E90278CD
:10615000D4E900562A46334601F0D2FD02460B46EA
:106160003846414601F084FF02460B462846314638
:1061700001F0C8FDC4E90001D4E90001BDE8F081E7
:10618000C4E9000101232374F6E770B516461C46E6
:106190005A2B02D84F2C1AD970BD0920FBF7E2FE0A
:1061A00005461C20FBF7DEFE281A02F07DFA4FF0B0
:1061B000804102F089FC0028ECD03378053BDAB24C
:1061C00013F0800F01D03270E6E78022FBE7042055
:1061D000FBF7C8FE04462220FBF7C4FE201A02F09B
:1061E00063FA4FF0804102F06FFC0028D4D033787E
:1061F00005333370D0E770B50E4614465A2A02D8DC
:106200004F2C14D970BD1B20FBF7ACFE05460820AF
:10621000FBF7A8FE281A02F047FA4FF0804102F07F
:1062200053FC0028ECD03378053B3370EAE722209A
:10623000FBF798FE04460520FBF794FE201A02F0B7
:1062400033FA4FF0804102F03FFC0028DAD0337877
:1062500005333370D6E770B5044600260660C0F8F3
:1062600003602720FBF794FE20702820FBF790FEA8
:1062700060702620FBF78CFEA0702220FBF772FED8
:1062800005460420FBF76EFEA842D4BF0020012083
:10629000E0700520FBF766FEA842ACBF002001209D
:1062A00020712320FBF75EFE05460720FBF75AFE10
:1062B000A842ACBF002301236371A671A378CBB1C0
:1062C0000122237903B102231A43A84214DA0423DA
:1062D0001343227802B108221A43637803B11023D2
:1062E0001343E27852B1202119431020FBF75CFEE2
:1062F000204670BD1A46E4E70023E9E71146F3E7BC
:106300002DE9F04180460C4615462020FBF72AFE79
:1063100002F0CAF906462220FBF724FE02F0C4F977
:1063200007461C20FBF71EFE02F0BEF998F803207A
:1063300082F00102012323602271A7600021E16045
:10634000237466610222A2612377206298F80420F8
:106350005A402B602A71AF60E9602B746E61BDE812
:10636000F08100002DE9F04782460D460024174BCE
:106370009946264600E00134022C15DC04EB440368
:106380009F0005EB83031A79002AF4D099685046E0
:1063900002F0D4F880460146484602F095FB0028FA
:1063A000E9D0EE59C146E6E72020FBF7DBFD02F01D
:1063B0007BF9074902F06AFB30B931460F20FBF741
:1063C000F3FD3046BDE8F0870226F6E7FFFF7F7F4A
:1063D0000000A0C12DE9F04782460D4600246FF46D
:1063E00000039946264600E00134012C15DC04EB3D
:1063F00044039F0005EB83031A79002AF4D09968BF
:10640000504602F09BF880460146484602F03EFBAB
:106410000028E9D0EE59C146E6E731460E20FBF7E9
:10642000C3FD3046BDE8F0872DE9F04107468846B8
:106430001920FBF797FD02F037F904461A20FBF705
:1064400091FD02F031F90546FFF723F9064656495A
:10645000204602F039FB002866D14FF07E512846D5
:1064600002F014FB002871D14146384602F066F86C
:1064700005464E4B196802F06BF94D4C216802F04D
:106480005FF8064620604B4B1968284602F060F919
:10649000002102F0FBFA00286AD1464B1D60444BF4
:1064A0001B681E464449184602F052F9294602F07C
:1064B00047F80446414902F0E9FA00B93F4C00218F
:1064C000204602F001FB00B900243C49204602F0BE
:1064D000F1FA78B12946394802F030F8364902F02D
:1064E000EBF901460746304602F0EEFA002846D1A5
:1064F0002F4B1E600021204602F0D2FA002840D126
:10650000204602F011FBC0B2FFF7B7F82C49204635
:1065100002F01EF902F008FBFF220521C0B2FFF7CE
:1065200041FCC0B2BDE8F081F0B2441E002C00DC9A
:106530000024E0B2FFF7A1F8204602F0B5F82049A8
:1065400002F006F902F0F0FAC0B2EBE7F0B2441E36
:10655000002C00DC0024E0B2FFF78FF8204602F0A8
:10656000A3F8174902F0F4F802F0DEFAC0B2D9E756
:106570004FF07C51304602F0EBF820608DE73E464C
:10658000B6E705F100400C4902F096F90646084BC3
:106590001B681D46194602F097FA10B9044B1D609E
:1065A000AEE73546FAE700BF0000F0418007002063
:1065B000C40C0020C00C0020CDCCCC3D0000C84253
:1065C0003333234070B594B012AC2046FFF743FE3E
:1065D00003AA09A92046FFF793FE2020FBF7C2FC7F
:1065E00002F062F802F07AFA04463C230093282372
:1065F0000A226FF01301FFF7ADFB05463B2800DDD3
:106600003C25282D00DC28250A230093052332226F
:106610001E212046FFF79EFB0446092800DD0A24C0
:10662000052C00DC0524284602F03EF809A9FFF7F6
:1066300099FE0546204602F037F803A9FFF7CAFE87
:1066400006462420FBF78EFC04463020FBF78AFC2C
:1066500050221421FFF7A6FB04B10446E4B2204601
:10666000FFF732F82046FFF719F89DF84C3013B1C8
:106670009DF84D2052BB9DF84A2002B136B39DF8DB
:10668000481011B99DF8490008B1012D1ED029B953
:106690009DF8490010B99DF84B0008B1002D7BD042
:1066A0000AB1012E78D029B99DF8491011B99DF889
:1066B0004B1009B1022D73D002B953B19DF84B3084
:1066C0003BB936B90520FEF73BFE02E00220FEF79B
:1066D00037FE9DF8483053B99DF849303BB99DF8D5
:1066E0004B30002B62D09DF84A30002B5ED1012147
:1066F0000D20FBF759FC0920FBF734FC01F0D4FF17
:1067000004461C20FBF72EFC01F0CEFF014620467C
:10671000FFF78AFE0446FEF7BCFFC3B29DF848208F
:1067200002B1FF228DF809209DF8492002B1FF2215
:106730008DF80A209DF84B2002B1FF228DF80B2026
:106740000DF10B020DF10A010DF10900FFF71DFD1E
:10675000FEF7E8FD9DF80B100420FEF743FD9DF8C1
:106760000A100620FEF73EFD9DF809100520FEF7F1
:1067700039FD022D18D021460120FEF733FD0021FE
:106780000220FEF72FFD022D00D000242146032019
:10679000FEF728FD14B070BD0320FEF7D1FD98E789
:1067A0000420FEF7CDFD94E70021E5E79DF84A308F
:1067B00033B99DF84C301BB99DF84D30002B48D0B3
:1067C00002210D20FBF7F0FB0820FBF7CBFB01F0CB
:1067D0006BFF04461B20FBF7C5FB01F065FF01467C
:1067E0002046FFF721FE0446FEF753FFC2B29DF894
:1067F0004A3003B123468DF80A309DF84C301BB95E
:106800009DF84D3003B91C468DF80B400DF10B017E
:106810000DF10A00FFF7EFFCFEF776FD00210420E2
:10682000FEF7E0FC00210620FEF7DCFC002105203D
:10683000FEF7D8FC9DF80B100120FEF7D3FC9DF865
:106840000A100220FEF7CEFC00210320FEF7CAFC4E
:10685000A0E719460D20FBF7A7FBFEF755FDFF212A
:106860000420FEF7BFFCFF210620FEF7BBFCFF2142
:106870000520FEF7B7FCFF210120FEF7B3FCFF2146
:106880000220FEF7AFFCFF210320FEF7ABFC002047
:10689000FEF7F3FE7EE78368DB075EBF836843F0A5
:1068A0000103836070470000034AD2F8083443F4C0
:1068B0000003C2F80834704700200140836823F4C5
:1068C00060230B438360836843F4801383607047C5
:1068D000836800F1080243F00803836013681B0714
:1068E000FCD47047836843F004038360704780687A
:1068F000C0F38000704708B50246FFF7F3FF10466B
:10690000FFF7F5FF0028FAD108BD0022134610B5A5
:1069100001FA02F403321E2A43EA0403F8D10022EA
:10692000036101FA02F40332182A43EA0403F8D19E
:10693000C36010BD836823F0010383607047436820
:1069400043F4807343607047436823F4807343606B
:106950007047836823F40063836070470068C0F366
:1069600040007047C06C7047836843F00203836047
:106970007047836823F00203836070471029F0B5E5
:1069800010D800234FF0010E1F469C461D465FFAAB
:106990008EF6B14207D2013945EA0155C562C0F809
:1069A00030C04763F0BDBEF1060F147806D89C4096
:1069B00027430EF1010E01320533E8E7073E052EAD
:1069C00095BFA3F11E06A3F13C06B440B44094BFAA
:1069D0004CEA040C2543ECE7836800F1080243F419
:1069E0008003836013685B02FCD47047836843F4C0
:1069F0008073836070470000044B98420CBF40F2E4
:106A0000192040F21A2000F0D2BD00BF00640040FF
:106A10002DE9F34104689DF8208024F0020404600D
:106A200004689DF824E044F0010404604FF6FF740C
:106A30009DF828C09DF83C609DF840700194019C31
:106A4000051D013C019414B14468E407F7D544687E
:106A5000E40770D50024C461002951D0016841F0D9
:106A600080010160002A4FD0026842F040020260BB
:106A7000002B4DD0036843F0200303600368B8F196
:106A8000000F49D043F0100303600368BEF1000F0C
:106A900045D043F0080303600368BCF1000F41D008
:106AA00043F004030360C369002F3ED043F000436A
:106AB000C361C369002E3BD043F08043C3610E9B8A
:106AC0000D99013BC3F309030B430C99C2690B43B6
:106AD0000B990B431343C361036823F00103036065
