:020000040800F2
:1010000000500020F9760008F5760008F376000815
:10101000F3760008F3760008F3760008000000007D
:10102000000000000000000000000000F57600084D
:10103000F576000800000000F5760008F576000857
:10104000F3760008F3760008F3760008F3760008DC
:10105000F3760008F3760008F3760008F3760008CC
:10106000F3760008F3760008F3760008F3760008BC
:10107000F3760008F3760008F3760008F3760008AC
:10108000F3760008F3760008F3760008C936000806
:10109000A9360008B9360008F3760008AD14000838
:1010A000F3760008F3760008F3760008F37600087C
:1010B000F37600089D140008E5140008F376000894
:1010C000F3760008F3760008F3760008F37600085C
:1010D000F3760008F3760008F3760008F37600084C
:1010E000F3760008F3760008F3760008F37600083C
:1010F000F3760008F3760008F3760008F37600082C
:10110000F3760008F3760008F3760008F37600081B
:10111000F3760008F3760008F3760008F37600080B
:10112000F3760008F3760008F3760008F3760008FB
:10113000F3760008F3760008F3760008F736000827
:10114000D7360008E7360008F3760008F376000883
:1011500008B58446084611461A46DCF8043098471C
:1011600008BD08B58368984708BD00B54FF0000C6E
:10117000E64604E000BF1CF1010C4EF1000E4B01ED
:1011800043EAD0634201121A63EB01039B0043EA76
:1011900092739200121841EB03031B0143EA12738E
:1011A000120194457EEB0303E4DB00BD08B5034B5D
:1011B0009988186805F0AFFD08BD00BF2808002019
:1011C00010B505F0B1FD194B186800F0A6FE06F049
:1011D000FBFF174907F000F90146352000F014FF26
:1011E000144801F053FE06F0EBFF134907F0F4F842
:1011F0000146342000F008FF05F0C4FF01F03CFF79
:101200000E4C206804F0B8FC206804F049F904F0A2
:1012100039FA04F0EDFF012000F0C6FE00B110BD68
:10122000074B186802F004FBF9E700BF48070020ED
:10123000000020419808002000004B434407002094
:101240004007002008B503F0B5FF08BD08B5034608
:101250000846B3F5E66F11D009D840F22722934231
:1012600010D0B3F52A7F0BD104F0C2F808E040F2A9
:101270003172934204D104F039FC01E004F034FCF3
:10128000002008BD04F0ECF8FAE7000010B50D4CA2
:1012900000224FF4E661206802F05BFA002240F27F
:1012A0003171206802F055FA002240F227212068AF
:1012B00002F04FFA00224FF42A71206802F049FA36
:1012C00010BD00BF4407002010B5044681880068A7
:1012D00005F01EFD003818BF0120A379181A18BFA9
:1012E000012010BDFEE700000F4B1B78BBB10E4B79
:1012F00000221A700D4B1B689BB110B50C4B18687F
:1013000006F05EFF0446094B186806F059FF0146D7
:10131000204607F061F8074906F0AAFF10BD00203B
:1013200070470020704700BF220700202C070020D4
:10133000300700200000C8420F4B1B78BBB10E4B9A
:1013400000221A700D4B1B689BB110B50C4B18682E
:1013500006F036FF0446094B186806F031FF0146D7
:10136000204607F039F8074906F082FF10BD00203B
:1013700070470020704700BF21070020240700208D
:10138000280700200000C84208B5032000F00CFE2A
:101390002B4A1378002818BF43F00103137005F09F
:1013A000F1FE284B1B68D3F8F830C01A312802D957
:1013B000234B1B78B3BB2448FFF786FF014623204D
:1013C00000F014FE2148FFF77FFF0146242000F0C3
:1013D0000DFE1F48FFF778FF0146222000F006FEB1
:1013E0001C48FFF771FF0146252000F0FFFDFFF7C5
:1013F0007BFF07F003F90146272000F0F7FDFFF718
:101400009BFF07F0FBF80146292000F0EFFD124B8F
:1014100019680C2000F0EAFD012000F0C5FD01284C
:1014200008D008BD0021032000F0E0FD012001F0FC
:1014300029FEC0E7094B186802F0FAF9F1E700BF8E
:10144000200700204407002090070020A00700206C
:101450009807002070080020340700204007002073
:1014600038B560B1022814D10A4B1B681C46022013
:1014700000F09AFDC1B2204602F080FF09E0064B61
:101480001C6823681B681D4600F08EFDC1B2204613
:10149000A84738BD3C0700204407002008B5024B90
:1014A000186800F001FD08BD4807002008B54FF49A
:1014B000807005F03FFB50B1084B1B7843B1084AE0
:1014C0001368013313604FF4807005F02DFB08BDE5
:1014D000034A1368013B1360F5E700BFEA060020EA
:1014E0003407002008B508212D4805F0ADFE28B9C5
:1014F00010212B4805F0A8FE48BB08BD0221284852
:1015000006F00DF8274B1B788BB9274A1368C31ACE
:1015100026490B6010600122224B1A7002212048DC
:1015200005F082FE08211E4805F094FEE0E71E4B00
:101530001B68C01A1E4B186000221A4B1A70022139
:10154000174805F071FE1B4B01221A70EAE70321D0
:10155000134805F0E4FF184B1B788BB9174A136842
:10156000C31A17490B6010600122134B1A70032134
:101570000B4805F059FE1021094805F06BFEBCE749
:101580000E4B1B68C01A0F4B186000220A4B1A70D2
:101590000321034805F048FE0B4B01221A70EAE7CD
:1015A00000080040180700201C0700202C0700201E
:1015B0003007002022070020100700201407002019
:1015C000240700202807002021070020F0B5ADF6F1
:1015D0001C0D00F05DFA00F004FBD14E00223146F4
:1015E000D04801F097FC01223146CF4801F092FC2F
:1015F00002223146CD4801F08DFC03223146CC4811
:1016000001F088FC04223146CA4801F083FC05221F
:101610003146C94801F07EFCC84C00222146C8482A
:1016200001F078FCC74D00222946C74801F072FC42
:1016300001222946C54801F06DFC02222946C44812
:1016400001F068FC03222946C24801F063FC042231
:101650002946C14801F05EFC05222946BF4801F039
:1016600059FC04234FF480723146BD4801F0FFF865
:1016700007234FF400423146BA4801F0F8F802233C
:101680001A462146B84801F0F2F800230422214608
:10169000B64801F0ECF8072308222146B44801F0CF
:1016A000E6F8072310222146B24801F0E0F80723AC
:1016B00020222146B04801F0DAF8092340222146D1
:1016C000AE4801F0D4F8092380222146AC4801F04D
:1016D000CEF804234FF480722146AA4801F0C7F8DF
:1016E00004234FF400722146A74801F0C0F80923F3
:1016F0004FF400622146A54801F0B9F807234FF4E2
:1017000080422146A24801F0B2F80723012229466F
:10171000A04801F0ACF80723022229469E4801F0B8
:10172000A6F80723042229469C4801F0A0F80723C5
:10173000082229469A4801F09AF8072310222946E0
:10174000984801F094F804F500640723012221462B
:10175000954801F08CF8072302222146934801F0B6
:1017600086F8072304222146914801F080F80723D8
:10177000082221468F4801F07AF8072310222146DB
:101780008D4801F074F80723202221468B4801F090
:101790006EF8072340222146894801F068F80723A4
:1017A00080222146874801F062F804F5806407230F
:1017B00004222146844801F05AF8072308222146D2
:1017C000824801F054F8072310222146804801F096
:1017D0004EF800234FF4807221467E4801F047F80E
:1017E00000234FF4007221467B4801F040F80023AB
:1017F0004FF480622146794801F039F807234FF40D
:1018000000622146764801F032F801F0B7FA00F0A4
:1018100095F900F0CFF901F001FC00F0EDF90DF2BF
:10182000EC5401260196009600236E4A6E4920462C
:1018300000F08EFC6D4B1C600DF5BC656C4BCDF85B
:10184000E0356C4BCDF8E0356B4BCDF8E4356B4BA8
:10185000CDF8E835002000F0A7FBE1AC0023C2B2D0
:101860006749204601F066FE664B1C60294620460B
:1018700001F060FFFFF70AFD32AD324621462846EF
:1018800002F0F0FC604F3D60604B1D600FAE2A46D9
:101890002146304602F040FD5D4B1E60022000F004
:1018A00083FBC1B2304602F069FD3A68594B1A60B9
:1018B000594D05AC2946204600F09CFA574B196853
:1018C000C1F35911564BA3FB01318909013928464F
:1018D00005F0E1FC534B1C6003225349204600F005
:1018E000ADFA14225149204600F0A8FAC822504906
:1018F000204600F0A3FA4FF4C8724E49204600F08B
:101900009DFA0021322000F071FB3620FFF7A8FD80
:101910000A200021FFF729FC03F0E6FCA0E000BF4D
:1019200000080140C4080020C0080020BC080020B6
:10193000B8080020B4080020B0080020000C0140C6
:10194000AC08002000100140A8080020A4080020D6
:10195000A00800209C08002098080020940800207F
:1019600088080020800800207808002070080020E7
:101970006808002060080020580800205008002057
:1019800048080020400800203808002030080020C7
:101990002808002020080020180800201008002037
:1019A0000808002000080020F8070020F0070020A9
:1019B000E8070020E0070020D8070020D00700201B
:1019C000C8070020C0070020B8070020B00700208B
:1019D000A8070020A00700209807002090070020FB
:1019E000880700209C91000800380140380700203B
:1019F00090860008A08600084D1200088D1200088D
:101A00000064004044070020400700202C0A00200A
:101A10003C070020280A0020000400400C0700209A
:101A2000632D3E0548070020451200088913000871
:101A3000C1110008AD1100081C4619E004300DF179
:101A40000B0103F08DF85CB103AB94E8030083E86D
:101A50000300204602F00AFF21460FA802F0B7FC5F
:101A600000228DF80B209DF8C430002BE4D02FAC61
:101A7000054B186800F056FD044B18684369002BAD
:101A8000E1D10028DAD1DAE7380700203C0700204E
:101A900008B5274805F096FA4FF0E023254AC3F829
:101AA0000C2D40F2023005F0EBFA40F2033005F065
:101AB000E7FA4FF4417005F0E3FA40F2053005F023
:101AC000DFFA40F2063005F0DBFA40F20E3005F0A6
:101AD000D7FA40F20B3005F0D3FA4FF4607005F0FE
:101AE000CFFA40F2813005F0CBFA40F2823005F0B7
:101AF000C7FA4FF4207005F0C3FA40F2093005F040
:101B0000BFFA40F2862005F0BBFA4FF4407005F0B2
:101B1000B7FA40F2993005F0B3FA074B5A6842F031
:101B2000C0025A605A6842F400725A6008BD00BF91
:101B3000949500080003FA050000014030B597B005
:101B400004F066FF00F5FF3505F2FD15AD0201ACAE
:101B500014220021204600F084FE154B0193182327
:101B6000ADF8083001238DF80A3000238DF80B30D2
:101B700004F032FF1421204604F03CFF15902B6D39
:101B8000834201D117B030BD05F062F8284605F058
:101B90001BF8002407E001AB53F8241005EB840088
:101BA00005F070F80134142CF5D905F05DF8E9E77B
:101BB0000010014008B51D2005F00AFE00211D207F
:101BC00005F012FE1E2005F003FE01211E2005F087
:101BD0000BFE172005F0FCFD0221172005F004FE86
:101BE00008BD08B54FF41C71032005F003FB00206D
:101BF00005F0D2FA08BD000038B57A4C204605F051
:101C000045FB0021204605F046FB0021204605F05B
:101C100029FB40F60F61204605F03FFB204605F00A
:101C20001CFB4FF40063022211466F4805F036F8A2
:101C300006220221204605F032FB0221204605F053
:101C4000F4FB0221204605F00AFC0221204605F0A3
:101C50002BFC00220221204605F04BFC204605F01B
:101C600010FB4FF0804005F011FB0A214FF080403F
:101C700005F011FB00214FF0804005F0F3FA4FF61C
:101C8000FF714FF0804005F008FB4FF0804005F0F9
:101C9000E4FA082302221146544804F0FFFF06220A
:101CA00011464FF0804005F0FAFA06214FF08040CF
:101CB00005F0BBFB06214FF0804005F0D0FB06216C
:101CC0004FF0804005F0F0FB002206214FF08040ED
:101CD00005F00FFC4FF0804005F0D3FAA4F59234E4
:101CE000204605F0D3FA4721204605F0D4FA4FF6F6
:101CF000FF71204605F0D1FA204605F0BDFA042117
:101D0000204605F086FC0121204605F079FC502193
:101D1000204605F086FC0F220221204605F00EFC2D
:101D200005220221204605F031FC00220221204636
:101D300005F07AFA0221204605F05BFC0F22032110
:101D4000204605F0FBFB06220321204605F01EFC81
:101D500000220321204605F067FA0321204605F002
:101D600048FC234D402302221146284604F096FFEA
:101D700006220021204605F092FA0021204605F0B7
:101D800054FB0021204605F06AFB0021204605F0A7
:101D90008BFB00221146204605F0ABFB802302227C
:101DA0001146284604F07AFF06220221204605F05B
:101DB00076FA0221204605F038FB0221204605F084
:101DC0004EFB0221204605F06FFB00220221204637
:101DD00005F08FFB0121204605F09BFB204605F016
:101DE00050FA38BD002C01400018014000080140A5
:101DF000000C014038B505460C460162084605F066
:101E00002CFA204605F038FA0A4B1968C1F31A116A
:101E1000094BA3FB0131C9090139204605F03BFA02
:101E20004FF6FF71204605F038FA00236B62284612
:101E300038BD00BF0C070020C55A7C0AF8B5436ABC
:101E4000032B00DDF8BD04460D461646006A05F07A
:101E50001DFA636A0122134FF95C206A05F01FFA2C
:101E6000636A0022F95C206A05F043FB636A44F868
:101E7000235003F1080106EB860202EB8202920076
:101E800024F8112002219940206A05F0D9F9002197
:101E9000206A05F051FB206A05F0F3F9636A01330B
:101EA0006362CFE7A8860008F8B5054600242AE05B
:101EB0000226A6403146286A05F0C6F940B3286AD2
:101EC00005F02BFB87B22B6A03EB84035A6B04F1FA
:101ED000080135F811100A445A6355F82430984720
:101EE000286A05F01AFBC01B04F10C0325F8130047
:101EF0003146286A05F0AEF904E00221A140286AC3
:101F000005F0A8F90134032C06DC6B6AA342CFDC90
:101F10006B6AA342F6DCF0E7F8BD014600221046EA
:101F20000FE002F10C0331F813304FF47A7C0CFB14
:101F300003F302F1080C31F81CC093FBFCF31844C6
:101F400001324B6A9342ECDC70470000024B1A6886
:101F5000024BC3F89C257047E0060020D800002003
:101F600008B5C0EBC0020B4B03EB8203DB688B426E
:101F70000EDC084B03EB82031B698B4201DAFF2066
:101F800007E0054B43F82010FFF76AFA002000E055
:101F9000FF2008BDD800002000000020014B53F8AE
:101FA0002000704700000020024B53F82000401131
:101FB000704700BF0000002008B5054B53F8200013
:101FC00006F002F94FF0745106F052F908BD00BF57
:101FD00000000020044B53F820004011012814BFDA
:101FE00000200120704700BF000000204901024B83
:101FF00043F82010704700BF00000020014B43F859
:10200000201070470000002010B5044608464FF02D
:10201000844106F02DF906F0F1FA024B43F8240052
:1020200010BD00BF0000002070B506460024074D1B
:10203000352C09DC3146686800F072FB10B10134C0
:102040001C35F5E7E0B270BD3720FCE7D800002072
:102050000023064A352B07DC118B814202D0013365
:102060001C32F7E7D8B2704737207047D8000020FD
:10207000C0EBC000014B03EB80007047D80000208C
:1020800038B50024074D01E001341C35352C07DC40
:102090002B8B002BF8D06969E0B2FFF7AFFFF3E7B5
:1020A00038BD00BFD8000020014B1954704700BF55
:1020B0004C070020024A135C0B431354704700BFC7
:1020C0004C070020024A135C23EA010313547047B3
:1020D0004C070020014B185C704700BF4C070020E4
:1020E000C0EBC000024B03EB8003987E704700BF3B
:1020F000D800002000487047DD4B010008B5FFF70D
:1021000025FF08BD08B52021806805F0ECFA08BD60
:1021100008B5806805F0DFFA08BD10B504464368CD
:10212000597A586804F0D8FC636804F12A02597A95
:10213000586804F0E3FC63688022597A586804F018
:10214000EDFC6368597A586804F0BDFC10BD0000CE
:1021500070B504460D4653490160534901608560DE
:10216000037302610121017541758175002282614D
:10217000C26180F82020426280F828109DF810107B
:1021800080F829109DF8141080F82A124749416000
:10219000032A07D861680868A84203D01C3161602F
:1021A0000132F5E7424A1460002B74D0626850692E
:1021B000002B73D063681B8B0222032104F06EFD99
:1021C0004FF4E131284605F035FA0821284605F09C
:1021D00043FA4FF40051284605F047FA0C212846EF
:1021E00005F04FFA0021284605F045FA002128465F
:1021F00005F04DFA284605F060FA284605F062FA27
:102200006368197A586804F009FC6368197A586899
:1022100004F050FC63682E1D3246197A586804F0A9
:1022200064FC63680022197A586804F021FC636832
:102230000022197A586804F00FFC6368197A58680C
:1022400004F022FC6368597A586804F0E7FB63687D
:102250003246597A586804F048FC63680022597A7B
:10226000586804F005FC63680022597A586804F045
:10227000F3FB6368597A586804F006FC6368597A7E
:10228000586804F020FC2046FFF747FF284605F079
:1022900004FA204670BD6268D06889E763681B8ACB
:1022A0008AE700BF1C910008289100082C910008C3
:1022B0008407002038B50D460469437D3BB1216891
:1022C00039B1284600F02CFA18B10834F7E71C465B
:1022D00001E023680BB1204638BD1C46FBE738B54A
:1022E00004460D4601E0002373B163680222197AA7
:1022F000586804F0A8FB0028F5D194F828300BB1F9
:102300000346F1E70123EFE76368197A586804F0A0
:10231000E3FB6368AAB2197A586804F0FFFB6368AC
:1023200094F82020D201A83222440232197A586847
:1023300004F0E4FB63680222197A586804F07EFB1B
:102340006368197A586804F0BEFB94F82030B3FA39
:1023500083F35B0984F82030002384F8283038BDEB
:1023600010B50446837D73B10A2910D0436A7F2BD0
:102370000DD090F8202000EBC2121A4482F8AA1067
:102380000133436210BD806805F08CF9FAE794F8D8
:102390002030626A04EBC313134483F8AA10511C63
:1023A0002046FFF79CFF00236362EBE710B50C4665
:1023B000802A28BF802211464FF0000C0AE090F8D6
:1023C000203014F80CE000EBC313634483F8AAE058
:1023D0000CF1010C8C45F2D3FFF781FF10BD38B52D
:1023E00005460C46084600F0B2F90246214628464A
:1023F000FFF7DCFF38BD000010B50446084600F0CA
:10240000F9F900F0DEF9237D83420DD000236375D6
:10241000237B0BB3626850690BB363681B8B01228B
:10242000002104F03BFC10BD01236375237B6BB1DD
:10243000626850696BB163681B8B0222032104F050
:102440002DFC08492046FFF7CAFFECE76268D06818
:10245000F0E763681B8AF0E76268D068DCE76368CE
:102460001B8ADCE7F88D000830B585B004460846C5
:1024700000F0C0F90378302B13D0322B0ED04FF47C
:1024800061231D46637D83B92946A06805F0D2F813
:102490000021A06805F0E9F805B030BD0E4B1D46DF
:1024A000F0E74FF4E1331D46ECE70A22294601A884
:1024B00000F05DF909492046FFF791FF08492046E1
:1024C000FFF78DFF01A92046FFF789FF0549204648
:1024D000FFF785FFD8E700BF10552200B48B000836
:1024E000BC8B0008BC90000810B50446084600F0FC
:1024F00081F9037823B1303B18BF012384F82930D8
:1025000094F8293023B105492046FFF768FF10BD34
:1025100003492046FFF763FFF9E700BFCC8B0008B3
:10252000D88B0008F8B504464368597A586804F017
:10253000EEFA0646C0F1800558B92046FFF7EDFDDA
:1025400007E05A1CE261234493F82A10A06805F0C2
:10255000A9F894F8293013B1E369AB42F1DB082103
:10256000A06805F0C0F8E0B97F2E28DCC6F17F0333
:10257000234493F82A300A2B17D00D2B15D094F84A
:102580002A30212B1BD1A369CBB12046FFF7C5FD13
:102590000023E361A3695B6804F5D5712046984781
:1025A0000DE0A06805F097F8DEE76368597A58688F
:1025B00004F092FA7E2E03DD2046FFF7AEFDF8BD53
:1025C0006319002283F82A20E26104F12A072021FE
:1025D000384600F0C3F80646037823BB0A21384684
:1025E00000F0BCF80646002384F8AA31337803B320
:1025F00000233370A3612A49384600F091F806465B
:10260000E8B904F5D5712046FFF7F6FEA369002B63
:102610003CD0A06805F063F8A3695B6804F5D57148
:1026200020469847C8E7411C04F5D57000F086F8AD
:10263000DCE70D21384600F091F80646D8E7194945
:10264000384600F06DF8064668B994F82A322BB186
:1026500004F5D5712046FFF707FFD7E7124920465A
:10266000FFF7BDFED2E71149384600F059F806469B
:1026700028B904F5D5712046FFF736FFC6E739467D
:102680002046FFF717FEA0612E46BFE7012E93DD1F
:10269000637D002B90D006492046FFF7A0FE8BE714
:1026A000E48B0008F08B0008FC8B0008188C0008F5
:1026B000208C000808B5044B1B681A681268C1B268
:1026C0001846904708BD00BF84070020704708B532
:1026D00000F032FD08BD000000B583B00649D1F816
:1026E000F027D1F8EC37D1F8E8170091034900F052
:1026F000EBFA03B000BD00BF00F0FF1F3C8C0008E8
:1027000010B50446FFF7BCFC0249204600F0DCFA95
:1027100010BD00BF508C000808B502F021FA08BDBA
:10272000431E013913F8010F11F8012F10B10AB13E
:102730009042F7D0801A18BF01207047013911F874
:10274000013F0BB90370704700F8013BF7E7002326
:10275000C25C0AB9184670470133F9E703461A7894
:1027600018461AB18A4203F10103F8D170470029D3
:1027700070B51EDA2D23012400F8013B49420646BC
:1027800091FBF2F302FB131130313170191E354603
:1027900006F10106F4DC00220346201A30443270B0
:1027A000AB420BD21A78297803F8011B05F80129EE
:1027B000F6E704D1302341700370012070BD00247E
:1027C000DDE730B503782D2B11D14FF0FF34013008
:1027D00000210A25431E01E005FB012113F8012F0A
:1027E000303AD0B20928F7D904FB01F030BD0124FA
:1027F000EEE7000010B5144C02780146A2F10A037E
:10280000DBB2162B1BD824FA03F3DA0700F1010020
:10281000F2D40846FFF79BFF013808448142044682
:102820000AD203780A3BDBB2162B05D8064A0138D8
:1028300022FA03F3DB07F1D40023637001E0002ADE
:10284000E7D1084610BD00BF09004000002310B5C5
:10285000934200D110BD51F8234040F8234001338A
:10286000F6E702B97047013A40F8041BF9E7F8B5FA
:102870000D4616461C460160828000238371052C9C
:1028800030D00AD9082C32D01AD8062C41D0072CC7
:1028900042D1002403231F4630E0032C1CD009D86A
:1028A000012C13D0022C02D100231F4622E0022467
:1028B0001F4623E0042C28D1012400231F461DE0DD
:1028C000092C2DD1022403231F4617E00123837115
:1028D000022400231F4611E00123837102240023F8
:1028E0001F4607E00124847100231F4606E00124EF
:1028F00003231F463146284604F005FA3346224694
:102900003946284604F0CAF9F8BD022400231F46C0
:10291000F4E700242746F1E7022400231F46EDE7F1
:10292000022400231F46E9E7024B4FF400421A80BD
:10293000704700BF9008002008B5FFF7F5FF08BDFD
:1029400070B50C1EACBF01234FF0FF335C43013365
:10295000064608BF2D234FF0640208BF06F8013B6E
:10296000611104F01F040546544330460A22FFF764
:10297000FEFE2E226411092C3254D8BF302206EB01
:102980000003D8BF5A7021464FF00A02CCBF581C32
:10299000981CFFF7ECFE284670BDF0B502780346A0
:1029A0002D2A13D14FF0FF30013300250A2702E012
:1029B00007FB052501331C78A4F13002D6B2092E9D
:1029C000F6D9A4B98D4025446843F0BD0120ECE759
:1029D0008A4002EB660292FBF6F20CFB06F6144408
:1029E00013F8012F303AD7B2092FF1D9EAE70A26B6
:1029F0000024B446F4E72DE9F04105460F46161EC3
:102A000002DD0A46002108E04FF0200813F001041F
:102A10001BD0002422E00131013210780028FAD1C5
:102A2000B14206DA761A13F0020F04D14FF02008F3
:102A3000ECE70026F7E74FF03008E7E72B681B6864
:102A40004146284698470134013E002EF6DC05E059
:102A50002B681B68284698470134013739780029CC
:102A6000F6D106E02B681B6841462846984701349A
:102A7000013E002EF6DC2046BDE8F08170B584B042
:102A80000646DDF828C059B11D460B4615B10A2A85
:102A900011D0002500218DF80D100DF10D0416E068
:102AA00030238DF800308DF80110099B089A694693
:102AB000FFF7A1FF32E0002901DB0025EAE74B42E6
:102AC0000125E7E7303104F8011DB3FBF2F34BB108
:102AD000B3FBF2F102FB11310929F3DDACF13A004D
:102AE0000144EFE79DB1089B63B1099B13F0020F0E
:102AF00008D0304633681B682D219847089B013B5E
:102B0000089304E02D2304F8013C013C0025099BB7
:102B1000089A21463046FFF76EFF284404B070BD86
:102B200008B50846FFF7C6FD08BDF0B585B00746F5
:102B300016461D466846FFF703FF2B463246694698
:102B40003846FFF758FF05B0F0BD000070B588B0FB
:102B500006460C460592002587E0A21C012391E061
:102B600000222178A1F1300C5FFA8CFCBCF1090F36
:102B700006D802EB8202303901EB42020134F0E761
:102B800073291AD0642923D0782930D058293DD010
:102B900075294AD0662957D0632965D10599081D42
:102BA000059009688DF81C1000218DF81D1007A9EB
:102BB0003046FFF720FF054456E00599081D0590B3
:102BC000096801B935493046FFF715FF05444BE068
:102BD0000599081D059009686120029001930092F3
:102BE00001230A223046FFF749FF05443CE00599DE
:102BF000081D05900968612002900193009200234E
:102C000010223046FFF73AFF05442DE00599081DD4
:102C10000590096841200290019300920023102240
:102C20003046FFF72BFF05441EE00599081D05906F
:102C30000968612002900193009200230A22304625
:102C4000FFF71CFF05440FE00599081D0590096872
:102C50003046FFF76AFF054406E0144633681B68F8
:102C60002178304698470135013423789BB1252BD4
:102C7000F4D1621C637873B1252BEED02D2B3FF479
:102C80006CAF002314462278302A7FF469AF0134F8
:102C900043F00203F7E7284608B070BDC48C000873
:102CA0000FB400B583B004AA52F8041B054B01937E
:102CB000009201A8FFF74AFF03B05DF804EB04B0EF
:102CC000704700BF149200080EB400B582B003AA8A
:102CD00052F8041B0192FFF739FF02B05DF804EBD4
:102CE00003B07047174B184A1360991C174A1160BC
:102CF000191D174A1160991D164A116003F1080148
:102D0000154A116003F10A01144A116003F10C0124
:102D1000134A116003F10E01124A116003F1100110
:102D2000114A116003F11201104A116003F11401FC
:102D30000F4A116003F116010E4A116018330E4A52
:102D400013607047C8080020C4080020C008002095
:102D5000BC080020B8080020B4080020B0080020FB
:102D6000AC080020A8080020A4080020A00800202B
:102D70009C080020980800209408002030B583B0FB
:102D8000334B93E8030002AB03E903000025002D59
:102D90002CDD304C304A0121204603F0A6FE2F4A9C
:102DA0000121204603F0AAFE4FF480720121204643
:102DB00003F05EFE4FF480620121204603F04CFEDA
:102DC0009C220121204603F0A9FE0121204603F0A8
:102DD0005BFE0121204603F060FE0121204603F046
:102DE00072FE1F4803F0F0FB03B030BD02AB03EBF3
:102DF000850353F8084C204603F0A4FB204603F05B
:102E0000A6FB204603F0ADFB204603F0A5FB012105
:102E1000204603F082FB204603F045FB204603F0EA
:102E20005FFB204603F06FFB05EB450305EB8303D7
:102E30000C4A1A440D21204603F098FB204603F06B
:102E4000CDFB4FF46021204603F040FB01359EE7A7
:102E500018920008000002404C240140C8080020DD
:102E600000240140000A0020884205DD914209DC6F
:102E700090420ADD10467047904206DC914203DD25
:102E800010467047084670470846704730B583B013
:102E9000046800250BE0A28E618B2088FFF7E4FF19
:102EA00002AB03EB450323F8080C01354E34032D28
:102EB000F1DDBDF80000BDF802301844BDF8043063
:102EC0001844BDF806301844C0F38F0003B030BD7D
:102ED00008B50F4B98420BD003F58063984211D090
:102EE000A3F50063984205D1072903DCC8B204E0CA
:102EF000012903DD03F0E0FA102008BDC9B2083152
:102F0000C8B2FAE70529F5DCC9B20A31C8B2F4E75C
:102F1000000C014070B505460E461446012393404F
:102F20009BB200221146304603F0B8FE2B68054ADA
:102F30009B1A5D1021463046FFF7CAFFABB2024A2A
:102F4000D05470BDC8080020000A002008B5FFF763
:102F5000C9FE08BD08B503F05BFD00F5FF3000F2C7
:102F6000FF10800208BD2DE9F043ADF2044DFFF7DC
:102F7000F1FF0646024600234FF0FF3503E052F80A
:102F8000041B0D400133FF2BF9DD03F025FD4FF449
:102F900080724FF0FF316846FFF763FC002400E0C9
:102FA0000134352C1AD8E7B23846FFF799F80028D3
:102FB000F6D13846FFF75CF880463846FFF78AF8C6
:102FC0000DEBC40989F80300B8F818202DF8342057
:102FD0003846FEF7E3FFC9F80400E1E7FE21684642
:102FE00003F008FDFE9003F033FEB5F1FF3F01D181
:102FF00000240AE0304603F0E7FDF9E75DF824100D
:1030000006EB840003F03EFE0134FF2CF6D903F0FA
:103010002BFEFE980DF2044DBDE8F083F8B5FFF7E6
:1030200099FF064603F0D8FCFE21304603F0E2FC8F
:10303000D6F8F833834201D1002503E04FF0FF308A
:1030400019E001357E2D15D836F83500FFF700F868
:1030500004463728F5D0FFF743F80028F1D106EBF6
:10306000C50779682046FEF7C9FFF9782046FFF7C3
:103070001BF8E6E70020F8BD014B1860704700BF61
:10308000180A00200D4B1B5CB3B90D4B196899B1A0
:103090000C4B1870DFF830C0DCF800300B4A02F837
:1030A000330002EBC3025160044A012111540B4466
:1030B00003F00303CCF80030704700BF100A002073
:1030C000180A0020120A0020140A0020C00600205E
:1030D00003280AD8064B03EBC0035B680BB91846FC
:1030E0007047034B13F8300070470020704700BF53
:1030F000C0060020032801D900207047024B03EBD3
:10310000C0035868704700BFC006002008B5074BD1
:1031100003EBC10292F804C053F83130044A52F86C
:103120002C2001460348FFF7BBFD08BD2C92000888
:1031300020920008CC8C000810B50C4B5B680BB1DA
:10314000002409E00A48FFF7ABFD10BD074B13F858
:103150003410FFF7DBFF0134032CF6D8034B03EBED
:10316000C40358680028F1D1EFE700BFC006002073
:10317000DC8C000800B58BB0104B01EB410203EB77
:10318000820C53F82220DCF804C001EB410103EB70
:1031900081039B68D0F8580200210891079106939B
:1031A000CDF814C0049203910291019100910B4655
:1031B000012203F025FA0BB000BD00BF50920008B9
:1031C000F0B583B004460D4616461F4672B601217F
:1031D000D0F8580203F027FB019600970023B5F5BD
:1031E000006F34BF002201222946D4F8580203F0B0
:1031F0001FFB002806DBD4F85432002B18DC62B623
:1032000003B0F0BDD4F85432132BF4DC03F11102F7
:1032100004EB021255609760316804EB0312C2F8A8
:103220001C117168C2F820110133C4F85432E2E76E
:103230000121D4F8580203F0F2FAE0E7012801DD99
:1032400000207047014B53F8200070471C0A0020F3
:1032500030B58BB004460D460AE09DF8213006AA31
:103260000999204600F0B2FA03F08CFFC4F8F80088
:103270000023059306AB04930DF12103039308ABE0
:1032800002930DF1220301930DF12303009309AB87
:103290000122E9B2D4F8580203F03FFB0028DCD148
:1032A0000BB030BD30B583B0044600F58A7504E03C
:1032B000D4F85432013BC4F85432D4F85432002BC1
:1032C00017DD03F18053013B1A0105EB0313A958E5
:1032D0005A6808330193D2B200920023B1F5006F0F
:1032E00034BF00220122D4F8580203F0A1FA0028CA
:1032F000DEDAD4F854320BB103B030BD0121D4F87A
:10330000580203F090FAF7E770B584B00E46154600
:103310001C461068B3F800C05A889B88B4F806E0D1
:103320005B019BB2520192B24FEA4C1C1FFA8CF126
:103330004FF0010CCDF808C000EA0C0CCDF804C029
:103340004FEA4E1C1FFA8CFCCDF800C003F04AFA7D
:10335000002333602A6801322A60E380A3806380FF
:10336000238004B070BD70B584B00E4615461C466F
:103370001068B3F800C05A889B88B4F806E05B0177
:103380009BB2520192B24FEA4C1C1FFA8CF14FF0E3
:10339000010CCDF808C000EA0C0CCDF804C04FEACF
:1033A0004E1C1FFA8CFCCDF800C003F00BFA002372
:1033B00033602A6801322A60A380238040F2FF73C1
:1033C000E380638004B070BD70B582B00E461546D0
:1033D0001C4610681968C9005A68D200012300937E
:1033E000034042F0040241F0040103F00BFA002311
:1033F00033602A6801322A606360236002B070BDC6
:1034000030B58BB00546002308930993474906AAB7
:1034100003C982E803000493059303930293019385
:10342000D5F85822424B9A420AD0A3F58063D3F8CC
:10343000003AC3F3052300930024C2F81C4221E0A4
:103440000023F8E704F11E0205EB8202516871B314
:10345000029A501C02900DF1280C0CEB420C2CF837
:10346000103C023202920AAB03EB400020F8101C21
:10347000039B042B24D0029B022B28D0019B022B00
:103480002CD00134D5F8F430A3422EDD05EB8403B3
:103490005B68B3F5006FD5D3019A23F060430AA9A6
:1034A00001EB820141F8183C01320192E0E7039AF6
:1034B0000AA901EB420121F8083C01320392D7E747
:1034C00008AB6A4603A92846FFF71EFFD3E706AB01
:1034D0006A4602A92846FFF746FFCFE704AB6A46D3
:1034E00001A92846FFF770FFCBE7039B002B07DC01
:1034F000029B002B0BDC019B002B0FDC0BB030BDC3
:1035000008AB6A4603A92846FFF7FEFEF0E706ABC4
:103510006A4601A92846FFF726FFECE704AB6A4696
:1035200001A92846FFF750FFE8E700BF8C9200088A
:1035300000640040F8B504460D4616461F4600F0EC
:10354000E3F8544B23600023C4F85432C4F85852B3
:10355000514B9D422FD003F580639D4258D1002FDF
:1035600000F082804D4D202302220021284603F0E6
:1035700095FB2021284603F0C6FB402302220321AD
:10358000284603F08BFB402004F022F9F021402074
:1035900004F02AF9412004F01BF9F021412004F045
:1035A00023F93F2004F014F9F0213F2004F01CF926
:1035B0003B4B5C602CE0002F41D0384D4FF48073C2
:1035C00002220021284603F069FB4FF4807128464F
:1035D00003F099FB4FF4007302220321284603F005
:1035E0005DFB142004F0F4F8F021142004F0FCF842
:1035F000152004F0EDF8F021152004F0F5F8132063
:1036000004F0E6F8F021132004F0EEF8244B1C60DF
:10361000D4F8580202F0E8FF31462046FFF7AAFD31
:103620002046FFF7EDFE0221D4F8580203F0F7F828
:103630001021D4F8580203F0F2F82046F8BD194DD5
:103640004FF4006302220021284603F027FB4FF4C9
:103650000061284603F057FB4FF4805302220321F8
:10366000284603F01BFBBCE70C4D4FF480530222AD
:103670000021284603F012FB4FF48051284603F046
:1036800042FB4FF4005302220321284603F006FBBD
:1036900079E700BF4492000800640040000C01403C
:1036A0001C0A00200008014008B50020FFF7C6FDF5
:1036B0000021FFF7CDFD08BD08B50020FFF7BEFDD6
:1036C0000121FFF7C5FD08BD08B50020FFF7B6FDD5
:1036D000FFF7E8FD08BD08B50120FFF7AFFD0021A9
:1036E000FFF7B6FD08BD08B50120FFF7A7FD0121D2
:1036F000FFF7AEFD08BD08B50120FFF79FFDFFF7FE
:10370000D1FD08BD70477047084B03600023C0F827
:10371000F430C0F8FC3005E003F14002044940F801
:1037200022100133042BF7DD704700BF9C92000884
:10373000E4060020D0F8FC30042B01DD00207047A7
:1037400003F1400240F822100133C0F8FC300120A0
:10375000704710B51446D0F8F4201D2A0CDD002067
:1037600010BD01339A420ADD00EB830CDCF8041033
:103770007145F6D10020F3E78E460023F2E700EB17
:103780008203C3F804E002F11E0300EB83035C60D4
:103790000132C0F8F42003689B6898470120DFE7F6
:1037A00038B505460024C0F8F44003689B68984784
:1037B00007E004F1400355F8230003685B6898476D
:1037C0000134D5F8FC30A342F3DC38BD2DE9F843D1
:1037D0000546894690461F4600240AE004F140034E
:1037E00055F8230003681E683B4642464946B047E9
:1037F0000134D5F8FC00A042F0DCBDE8F88370B5D8
:10380000054600F1300634460BE034F8043BC3F3C0
:10381000C02123F40063002203EB41716868FFF7C5
:1038200098FFA31B242B02DCA378322BEDD170BDB3
:103830002DE9F04182B0054600F108073E46F31B32
:10384000242B00F39380B378322B00F08F80002379
:1038500000930193B37803EB4304A40058342C4441
:103860001AE0C0F307231B0443EA0063C0F30742D6
:1038700043EA022343EA1063E2791F2A3DD8C2F1EA
:103880001F0223FA02F2009B13430093647A04EBB5
:103890004404A40058342C44637AFF2B5DD0354B8C
:1038A0001B78002B62D12079FEF786FB0146206849
:1038B00004F0DEFC804694F9060004F085FC4146E5
:1038C00004F0CEFB04F09AFE94F908C08CEAEC7187
:1038D000A1EBEC71C9B24FF0FF328A4020EA02003E
:1038E000BCF1000FBDDBE2791F2A20D9203A00FA93
:1038F00002F2019B13430193C8E79444BCF11E0FED
:1039000007DDC2F13F0223FA02F2019B1343019348
:10391000BCE7A2F11F0003FA00F0009901430091F7
:10392000C2F13F02D340019A1A430192AEE702EB83
:103930000C03202B05DC00FA02F2009B13430093DA
:10394000A4E700FA02F1009B0B430093C2F12002AE
:10395000D040019B0343019398E7686803685C6863
:1039600008236A4636F8041BA04768E702B0BDE8A2
:10397000F08100BF240A002010B509B302F10C0E3B
:1039800000EB8E0E0A2A46D89EF80210322944D047
:1039900001EB410C4FEA8C0C0CF1580C84440021D3
:1039A0000C469CF80910FF2933D073B1013BDBB200
:1039B00001EB410189005831644600EB010CF0E74E
:1039C00002F1020E00EB8E0EDCE72CB16172FF23D8
:1039D0008CF8093001201FE0322904D08EF8021043
:1039E000F5E70133DBB29918092904DC0EEB8301FA
:1039F00089783229F5D1013BDBB20EEB8302917855
:103A00008EF802103EF82330AEF800303223937067
:103A1000DDE7002000E0002010BD0020FCE7F8B545
:103A200000F1080300263446354637463DBB1A46AA
:103A30002C46A2EB030CBCF1240F27DC92F802C049
:103A4000BCF1320F22D00CEB4C0E4FEA8E0E0EF171
:103A5000580E8644002609E00136F6B20CEB4C0CF9
:103A60004FEA8C0C0CF1580C00EB0C0E9EF809C0C0
:103A7000BCF1FF0F06D0BEF804E08E45ECD15DB17D
:103A80000020F8BD0134E4B20432D2E700F1300383
:103A90003D4601221746C9E7334622463946FFF71D
:103AA0006BFFEEE770B514461E460023079A1370AD
:103AB00000F10805002B46D12A46531B242B3ADC83
:103AC00092F802C0BCF1320F35D00CEB4C0E4FEA2D
:103AD0008E0E0EF1580E864407E00CEB4C0C4FEAAC
:103AE0008C0C0CF1580C00EB0C0E9EF809C0BCF1CC
:103AF000FF0F1ED0BEF804308B42EED11388C3F303
:103B0000C022236023F40063236043EA42732360EE
:103B10009EF8073033709EF90820049B1A70DEF877
:103B20000020059B1A609EF90620069B1A70012052
:103B300070BD0432C1E7079B1B780122079D2A70E4
:103B400000F13005B6E70020F2E78446D9B102F172
:103B50000C0100EB81010A2A27D88A78322A26D064
:103B600002EB4202920058320CEB0200427AFF2A2A
:103B700019D063B1013BDBB202EB42029200583232
:103B80000CEB0200F2E7911C00EB8101E3E70B88EC
:103B9000C3F3C02200990B6023F400630B6043EA77
:103BA00042730B6070470020704700207047002070
:103BB00070472DE9F04385B00646884600F10809B4
:103BC00000273B462FE02B88C3F3C02C23F4006171
:103BD00094F90830E2792079029794F906E0CDF85B
:103BE00004E0D4F800E0CDF800E041EA4C71C047B1
:103BF000647A04EB4404A40058343444637AFF2B01
:103C0000E1D10435A5EB0903242B08DCAB78322B7A
:103C100005D003EB4304A40058343444EEE706F126
:103C200030093B4601270BB94D46EBE705B0BDE82F
:103C3000F083002306E001EB83024FF0320C82F8A0
:103C400002C00133092BF6DD002307E003EB43023A
:103C500000EB8202FF2182F861100133322BF5DD87
:103C6000704710B5044600F10801FFF7E2FF04F1C8
:103C700030012046FFF7DDFF6068FFF791FD10BDC2
:103C80002DE9F0410F4615461E460024A0460AE0E5
:103C9000286802F0A9FE804655F8041B07EB840053
:103CA00002F0F0FF0134B442F2DB4046BDE8F0819F
:103CB000084600E00430431A242B0ADC8378322BB8
:103CC00005D00388534033F40063F3D102E00020B1
:103CD00070470020704700004B4B1B7803B17047C2
:103CE0002DE9F041054616460A4600F13001FFF77E
:103CF000DFFF002800F08580837803EB4304A400F5
:103D000058342C4442E01F2B53D83068C0F30722AC
:103D1000120442EA0062C0F3074742EA072242EA7D
:103D20001062C3F11F03DBB201208840013822FA80
:103D300003F3184004F044FA074694F9060004F02F
:103D400043FA394604F08CF90146206804F090FAF1
:103D500007462079FEF7C4F920B12079FEF7C0F9B3
:103D6000012849D1B4F804804FF08441384604F06A
:103D70007FFA04F043FC01465FFA88F0FEF7F0F8A2
:103D8000647A04EB4404A40058342C44637AFF2B77
:103D900037D0E37994F9082082EAE271A1EBE2716D
:103DA000C9B2002AAFDB1F2B18D97268203BDBB2E7
:103DB000BAE71A441F2A03DD7068203BDBB2A5E78F
:103DC0005B1ADBB20133DBB23068D8407268C3F1F2
:103DD00020039A4010434B1EDBB297E71A44202A77
:103DE00001DC3268A0E73268DA407068C3F1200372
:103DF00098400243002397E739462079FEF704F9FB
:103E0000BEE7BDE8F08100BF240A00202DE9F84399
:103E10009DF820709DF92460002E76D004460D4652
:103E20009146984686EAE673A3EBE673DBB2202B55
:103E30006ED8002E0BDDBB19402B6CDC42462946A8
:103E40002046FFF735FF844658B100221BE03F2F84
:103E500064D87BB23344B3F1FF3FEFDA6FF0010077
:103E600051E00021092907DC05EB81039A78322A09
:103E700001D00131F6E79C46BCF1000F51D0ACF8FF
:103E80000080E2E70132312A07DC02EB420304EB57
:103E9000830393F86130FF2BF4D1322A44D09CF88D
:103EA000023000210AE003EB43018900583121442C
:103EB00003EB430304EB830393F86130322BF2D11D
:103EC00002EB420304EB8304A4F85C900A9BA36515
:103ED0009DF92C3084F85E3084F85F7084F860605F
:103EE000322384F8613019B14A722B46002004E075
:103EF0008CF80220F9E7013004335A1B242A02DC33
:103F00009A78322AF7D1BDE8F8836FF00200FAE719
:103F10006FF00200F7E76FF00100F4E76FF00100C7
:103F2000F1E76FF00300EEE76FF00400EBE7B2F5A6
:103F3000006F16D200B585B09DF920C0CDF80CC039
:103F4000DDF81CC0CDF808C09DF918C0CDF804C03C
:103F5000009313460A4600F10801FFF757FF05B02A
:103F600000BD4FF0FF30704770B584B00546144671
:103F7000C2F3407022F00052B2F5006F1DD29DF9DD
:103F800028C0CDF80CC0DDF824C0CDF808C09DF9DC
:103F900020C0CDF804C0009342EAC0230A4605F1D0
:103FA00030012846FFF732FF0646002221466868A6
:103FB000FFF7CFFB304604B070BD4FF0FF331E4615
:103FC000F8E72DE9F04F89B08346059206938A46BB
:103FD000079131E0B4F9020004F0F6F800230393EE
:103FE0000290CDF8048000953B46049A059930462E
:103FF000FFF70CFF0634A4EB09032A2B1ADC94F913
:104000000530002B16DD2088FEF722F80490DBF83F
:104010000060BAF80070257994F90580069B002BA2
:10402000D8D0B4F9020004F0CFF84FF0745104F086
:104030001FF9D3E70AF1320A079BAAEB0303B3F592
:10404000E17F0ADCBAF800104FF6FF73994204D002
:104050000AF102052C46A946CDE709B0BDE8F08F6C
:1040600008B502F0D5FC00F5FF3000F5FF708002C6
:1040700008BD70B582B006460190FFF7F1FF044617
:10408000D0F8E85302F0A8FCFA21204602F0B2FC76
:10409000854202D0002002B070BD01AD002332463F
:1040A000083221462846FFF78CFF01233246303282
:1040B00004F5FA712846FFF784FF0120EBE7F8B515
:1040C00005460F460E460EE02079FDF7D1FF038B23
:1040D000A380647A04EB4404A40058342C44637A2B
:1040E000FF2BF1D10436F31B242B08DCB378322BE1
:1040F00005D003EB4304A40058342C44EFE7F8BD8B
:10410000F8B505460F460E460DE0A088FDF7A0FF66
:10411000A080647A04EB4404A40058342C44637AED
:10412000FF2BF2D10436F31B242B08DCB378322B9F
:1041300005D003EB4304A40058342C44EFE7F8BD4A
:10414000F0B583B00546FFF78BFF064602462A4BC3
:104150000121197000234FF0FF3403E052F8041BD3
:104160000C400133FF2BF9DD02F036FC02F070FD4C
:10417000022002F063FDB4F1FF3F38D105F10807DA
:1041800039462846FFF79BFF05F1300421462846B3
:10419000FFF795FF0A233A4631462846FFF770FDA0
:1041A0000A23224606F128012846FFF769FD0190FF
:1041B000962305F1580206F150012846FFF760FDED
:1041C0000190012301AA06F52D712846FFF758FD3D
:1041D00002F04AFD39462846FFF792FF214628465D
:1041E000FFF78EFF044B00221A7003B0F0BD30467B
:1041F00002F0EAFCC2E700BF240A0020F8B5064638
:10420000FFF72EFF0446D0F8B45202F0E5FBAA21D6
:10421000204602F0EFFB854203D03046FFF729FF2E
:10422000F8BD06F108070A2221463846FEF70EFBC4
:1042300006F130050A2204F128012846FEF706FBA4
:10424000962204F1500106F15800FEF7FFFA3946B4
:104250003046FFF755FF29463046FFF751FF012052
:10426000DEE7000038B50446084615460D4B2360CE
:104270000D4B236061602146FFF75CFA04F10801F1
:104280002046FFF7D6FC04F130012046FFF7D1FCB1
:1042900025B92046FFF7B3FA204638BD2046FFF780
:1042A000ADFFF6E790860008C0920008036ED3B118
:1042B0004FF47A73036604E0036E002B07DD0123DD
:1042C0003BB1826DC36D9A42F6D00023F8E700231C
:1042D000F6E7836D5A1C826503F03F0303441976A9
:1042E0004FF0FF3343617047A0F10400FFF7DEBFDA
:1042F00010B50446017C002201F5C0618068FFF71B
:1043000028FA617C3F2900D910BD002201F5B06177
:10431000A068FFF71EFAF7E710B504460846144BED
:104320002360144B6360144B236014336360A160FB
:10433000E26001232374FF2363744FF0FF33636152
:104340000023A3654022E2654FF47A722266372289
:1043500084F86420A36684F87830E36784F88830B2
:104360002146FFF7E7F92046FFF7C2FF204610BDC0
:10437000908600081C910008D092000808B50174CE
:104380008068FFF70DFA08BD10B582B004468DF8BD
:104390000010ADF801309DF810308DF80330059B0A
:1043A0000193437C93420DD1002384F87830A068B8
:1043B000617C03685C6808236A4601F5C061A04718
:1043C00002B010BD42748068FFF7EAF9ECE738B537
:1043D00004460A468068217C03685D68082301F56D
:1043E000B061A847002384F8883038BDB1F80120B7
:1043F00045F201039A4211D0012380F888300B78EE
:1044000080F88030B1F80130A0F88130CB7880F8A6
:1044100083304B68C0F88430002070470B78402B05
:1044200001D0002070474FF0FF330B714B71002318
:104430008B71CB7141220A704FF47A7202668365E8
:104440004023C365CB784361012070472DE9F041DB
:1044500084B007460C46B1F80120C2F3C0131E46D3
:10446000CD7825B1013D05EBD575C5F3470503AB07
:1044700000932B4602F03F023146F868FFF765FBD8
:1044800080462378402B0DD0232B3DD080232370F2
:104490000023237163710223A3710623E37104B027
:1044A000BDE8F08130B30079FDF7E2FD028BE378DF
:1044B00023B9039B636043232370F0E713F0010FDC
:1044C00009D098F8073042EA034298F9083042EAE6
:1044D00003626260EFE71549D8F8000003F0C8FEF8
:1044E00004F08CF820F07F4398F9062043EA026339
:1044F0006360E0E78023237000232371637102234C
:10450000A3710623E371CAE70028BFD06368002BBC
:10451000BCD1B4F801202B4602F03F023146F868C6
:10452000FFF72AFA60232370B9E700BF00007A443E
:104530000B78232B00D070472DE9F04184B005465D
:104540000C461646CB7883B94B68B3F1005F04D3B1
:1045500023F00052B2F5006F03D2AB6660232370E4
:1045600019E04FF0FF3383660CE0826E1746B2F11C
:10457000FF3F01D0012B11D095F9742090460AB16C
:10458000022B1DD08023237000232371637102232B
:10459000A3710623E37104B0BDE8F081486880B2DE
:1045A000FDF756FDA5F870006368C3F3054385F871
:1045B000733063681B1685F874303528CED9E1E76F
:1045C000606840F3170003F0FFFD154903F004FF96
:1045D000E86663681B1685F87230A6B102930190F5
:1045E000CDF8008095F873303A4695F87010E86879
:1045F000FFF7BAFC002385F874304FF0FF33AB6649
:104600000028ABDABEE702930190CDF8008095F860
:1046100073303A4695F87010E868FFF788FCE9E7D0
:1046200000007A4438B504460D460A7802F060036B
:10463000602B31D0B1F80130B3F5005F5AD003F4EC
:104640007F40B0F5045F55D0E16819B1B3F5405F24
:1046500000F0858021B143F2010C634500F08580B4
:1046600019B1B0F5445F00F0868045F203018B423A
:1046700000F0868045F204018B4240F09B80402A86
:1046800000F0918080232B7000232B716B7102232B
:10469000AB710623EB7119E002F010020A700122DF
:1046A000072A0EDCE36DA16D5B1A402B09D0E36D88
:1046B000591CE16503F03F0323441B7EAB540132D8
:1046C000EEE7E36DA16D5B1A402B09D0A068217C59
:1046D00003685C6808232A4601F5B061A04738BD2D
:1046E0002B7843F001032B70C2F1080243EA420326
:1046F0002B70EBE7E87803F47F42B2F5045F0CD04F
:10470000352822D82B78232B0DD0402BDED1FDF776
:1047100045FC686043232B70D8E71B029BB218440A
:10472000FDF796FCECE76968FDF71AFC10B9602309
:104730002B70CBE780232B7030232B7100236B7100
:104740000923AB710623EB71C0E780232B70002394
:104750002B716B710223AB710623EB71B6E700225C
:1047600029462046FFF7E4FEB0E70122294620460D
:10477000FFF7DEFEAAE729462046FFF767FEA5E71A
:10478000402A09D080232B7000232B716B710223E8
:10479000AB710623EB7199E7E878FEF799FC686046
:1047A00043232B7092E7E878FEF7A4FC686043236C
:1047B0002B708BE729462046FFF718FE002885D18D
:1047C0008DE70000F0B583B004461546037C03F581
:1047D000C0638B4207D0437C1E4603F5B0638B4217
:1047E00005D003B0F0BD1146FFF71CFFF9E7B2F8A2
:1047F00001301F46A3F540539BB2012B08D92B78FB
:10480000803B18BF012384F878306B68E367E8E7E2
:10481000D378ABB1012BF2D11349C06E03F028FD60
:1048200003F0ECFE94F9723040EA03630193022333
:1048300000933B46324623212046FFF7A5FDDEE7E5
:10484000B0F8703090F8732043EA024390F9742076
:1048500043EA02630193012300933B46324623213E
:10486000FFF792FDCBE700BF00007A4410B5044685
:10487000B0F80130B3F5A04F0DD045F202029342DB
:1048800034D0802323700023237163710223A3712A
:104890000623E37110BD0278402AEED14323037052
:1048A000C378022B13D007D863B1012B14D12E4B40
:1048B000D3F8EC374360EDE7032B0DD1FDF71AFC7D
:1048C0006060E7E7284BD3F8E8374360E2E7264B20
:1048D000D3F8F0374360DDE7802323700023237192
:1048E00063710223A3710623E371D3E72378232B9B
:1048F000C7D160232370E378012B21D009D9022B83
:1049000026D0032B26D1FDF7BBFB3620FCF7A8FDF4
:10491000C0E7FBB9154B1B784BB172B6144B186846
:1049200008B1FFF70DFCFEF71EFB62B6B2E780236D
:104930002370002323716371A3710823E371A9E736
:1049400072B6FEF76BFB62B63620FCF789FDA1E775
:1049500002F036FF8023237000232371637102234A
:10496000A3710623E37195E700F0FF1FE80600201E
:10497000280A00202DE9F04184B00E4617469846DB
:104980009DF83040FDF774FB43681D461449154BF4
:104990001868FEF799F9ECB11349124B1868FEF745
:1049A00093F94FF084410A9803F062FC0D4B1C68A8
:1049B0009DF92C30039303F021FE0290CDF8048082
:1049C000009733462A4609492046FEF77DF904B090
:1049D000BDE8F0810649034B1868FEF775F9E0E77A
:1049E000248D0008300A00202C8D0008348D00082A
:1049F000308D000870B505460846FDF7FBFE0646FB
:104A00002021FDF7ABFE0378A3B1002300F8013BA2
:104A10000521FDF7C2FF04463046FDF705FB3728A8
:104A200012D02146FDF79CFA48B90A492846FEF7FC
:104A30004BF903E008492846FEF746F970BD0749DF
:104A40002846FEF741F9F9E7324605492846FEF7C0
:104A50003BF9F3E7648D0008488D0008708D00086D
:104A6000888D0008F8B507460846FDF7C3FE0546E1
:104A700009E02A460F493846FEF726F9254605F88B
:104A8000016B2C2E14D12C212846FDF767FE04461D
:104A90000678002303702846FDF7C6FA3728E8D0C9
:104AA000FDF77CFA024604493846FEF70DF9E5E7C2
:104AB000F8BD00BFA88D0008A08D00082DE9F041C9
:104AC00006460846FDF796FE07462021FDF746FEFE
:104AD00003789BB104460546002305F8013B3846A0
:104AE000FDF7A2FA8046372829D06378212B0AD017
:104AF0007E2B08D02F2B06D0002406E01349304629
:104B0000FEF7E2F80FE0A51C012429461048FDF746
:104B100007FE50B974B101214046FDF7D3FA0D49A3
:104B20003046FEF7D1F8BDE8F0810B493046FEF77C
:104B3000CBF8F8E701214046FDF7BCFAEFE73A462B
:104B400006493046FEF7C0F8EDE700BFC48D000807
:104B5000D48D0008EC8D0008DC8D0008888D0008DD
:104B60002DE9F04F8BB007460846FDF743FE03786A
:104B7000059346493846FEF7A7F800264FF020086F
:104B800022E0434A039202930190CDF800A04B46E5
:104B9000424640493846FEF797F82846FDF7A0FA06
:104BA00020B12846FDF79CFA01285AD1E268236912
:104BB0006169206802960190009137493846FEF7F6
:104BC00083F84FF02C080136352E51D8F5B228461F
:104BD000FDF74EFA04462846FDF77CFA10F0010F67
:104BE00002D0059B682BEED1D4F80490D4F808A02D
:104BF000B4F818B02846FDF7D1F90290CDF804B00A
:104C0000CDF800A04B46424624493846FEF75CF8F2
:104C10000DF11F0303930DF11E03029309AB0193E2
:104C20000DF11D03009307AB08AA29461C48006834
:104C3000FEF738FF0028B0D0DDF820809DF81C90EA
:104C40009DF91DA04FF08441099803F011FB03F07A
:104C5000D5FC9DF91E309DF81F20002A91D0114AE5
:104C600090E711493846FEF72FF84FF02C08AAE7D5
:104C70000E4BD3F8F0270E493846FEF725F80D49BC
:104C80003846FEF721F80BB0BDE8F08F108E000813
:104C9000088E0008448E0008A88E0008148E0008B4
:104CA0002C0A0020008E0008948E000800F0FF1FE0
:104CB000F88E0008348F00082DE9F0478AB00746C7
:104CC0000023059306930793089309930846FDF77D
:104CD00091FD0478702C38D0632C44D02021FDF74E
:104CE0003DFD0378002B47D0FDF784FD06462021CB
:104CF000FDF734FD03780BB9642C44D1054600233D
:104D000005F8013B3046FDF78FF9064681462846F7
:104D1000FDF770FD8046372E3AD0642C3DD000233D
:104D20001D464FF07E539A46042D62DC20214046FA
:104D3000FDF714FD06460378002B39D1022D37DC30
:104D400059493846FDF7C0FF1AE0584B1B68002B45
:104D5000FBD1564C27605649564B1868FEF729FF81
:104D6000002323600CE0534B1868FEF77AFF52498A
:104D70003846FDF7A9FF03E04B493846FDF7A4FF8D
:104D80000AB0BDE8F08748493846FDF79DFFF7E7D0
:104D90004A493846FDF798FFF2E73146454B186817
:104DA000FEF73DFE024646493846FDF78DFFE7E730
:104DB000002333704046FDF704FD032D0DD00AABF0
:104DC00003EB850343F8140C30460130FDF712FD68
:104DD00080462B4601331D46A6E710214046FDF7CD
:104DE000DCFD03F0F1F94FF05E5103F041FA824629
:104DF000EAE7742C1FD09DF924300293CDF804A06B
:104E00009DF91C3000939DF81830059A49462948B1
:104E10000068FFF7A9F810F1030F2ED01CDD10F188
:104E2000020F24D0B0F1FF3F33D1059A254938460F
:104E3000FDF74AFFA4E79DF924300293CDF804A0C2
:104E40009DF91C3000939DF81830059A4946194881
:104E50000068FFF76CF8DEE710F1050F13D010F1D2
:104E6000040F16D118493846FDF72EFF88E7069A39
:104E700016493846FDF728FF82E7079A1449384655
:104E8000FDF722FF7CE7059A12493846FDF71CFF23
:104E900076E7012806DD104B024610493846FDF73B
:104EA00013FF6DE70E4BF7E7648F0008300A002010
:104EB000754900082C0A0020408F0008788F0008F0
:104EC0008C8F0008A48F000808900008B88F000895
:104ED000CC8F0008E08F00083C8F00082490000869
:104EE000FC8D000810B50D4B1B7893B1044672B6CB
:104EF0000B4B1868FFF724F90A492046FDF7E4FE3A
:104F0000FEF731F8024662B607492046FDF7DCFE9F
:104F100010BD0649FDF7D8FEFAE700BFE9060020FC
:104F20002C0A002050900008609000087C90000837
:104F300010B5044672B6FEF771F862B638B936207D
:104F4000FCF78EFA04492046FDF7BEFE10BD03496A
:104F50002046FDF7B9FEF9E7C0900008D49000089C
:104F600008B502F02DFC2DE9F843054688461746A2
:104F7000002604E023782C2B16D1BE4214D22C211B
:104F80002846FDF7EBFB044690F8009000230370E1
:104F90002846FDF749F8254605F8019B3728E9D052
:104FA00008F806000136E5E73046BDE8F883000062
:104FB0002DE9F04184B006460846FDF71BFC044687
:104FC000FDF7FFFB804620212046FDF7C7FB037855
:104FD0004BB10A2201A90130FFF7C5FF0746304651
:104FE000FDF796F820E018493046FDF76DFE04B055
:104FF000BDE8F08104F110036B4413F80C0CFCF7CE
:10500000CDFF03462A4611493046FDF75DFE0134C7
:105010000F4DBC42EEDB0F493046FDF755FEB8F1AF
:10502000FF3F01D008F1FF383046FDF76BF800284C
:10503000DDD1804502DD084D0024EAE7B8F1FF3FED
:10504000D5D1054D0024E4E7EC9000080C91000850
:10505000148D0008BC900008FC8D000808B50428D9
:1050600056D019DC02282FD003283FD0012811D1B7
:10507000394B3A4A1A603A4B3A4A1A603A4B3B4A21
:105080001A600E203A4B1860FCF78EFF394B1860FF
:10509000012008BD0020FCE705284BD0062811D1CF
:1050A0002D4B354A1A602E4B344A1A602E4B344A27
:1050B0001A6013202E4B1860FCF776FF2D4B1860FA
:1050C0000120E6E70020E4E7234B2E4A1A60244B38
:1050D0002D4A1A60244B2D4A1A600F20244B186069
:1050E000FCF762FF234B18600120D2E71A4B284AD5
:1050F0001A601B4B274A1A601B4B274A1A60102064
:105100001B4B1860FCF750FF1A4B18600120C0E7DA
:10511000114B224A1A60124B214A1A60124B214A43
:105120001A601120124B1860FCF73EFF114B1860FB
:105130000120AEE7084B1C4A1A60094B1B4A1A6053
:10514000094B1B4A1A601220094B1860FCF72CFF10
:10515000084B186001209CE73C0A0020B80700209B
:10516000380A0020A8070020340A0020B0070020D9
:10517000600A0020640A0020D0070020C007002039
:10518000C807002068080020580800206008002098
:1051900080080020180800202008002010080020A7
:1051A000F0070020F8070020E8070020D8070020BB
:1051B000E007002070B500240FE0174B1B689988AA
:1051C000186801F0A2FD154B1B689988186801F05A
:1051D0009AFD134B00221A702C46042C1BDC651C14
:1051E0002846FFF73BFFB0B10E4B53F82430002B9D
:1051F000E3DD094E33689988186801F08CFD30684A
:10520000FCF762F80028E7D0064A52F82430013B48
:1052100042F82430E0E770BD340A0020380A00204C
:10522000440A0020480A00202DE9F04104460D46BA
:10523000FFF714FF48B1274B1B7833B9631E1A469A
:105240001E46254B53F822300BB1BDE8F081234BAD
:105250001878FCF7A9FE0746C4B2FF2200212846B1
:1052600000F0F4FB8046C3B21D469C4219D3AC4209
:10527000EBD91B4B1B689988186801F046FD194B48
:105280001B689988186801F040FD5FFA88F1FBB24D
:105290005B1A114A42F82630104B1878FCF7A6FE2C
:1052A000D3E70F4B1B689988186801F02EFD0D4B52
:1052B0001B689988186801F026FD5FFA88F1FBB237
:1052C000CB1A054A42F82630044B1878FCF78EFEBC
:1052D000CDE700BF440A0020480A0020600A0020F1
:1052E000380A00203C0A0020F8B5134B01221A703E
:1052F0000024042C1EDC651C2846FFF7AFFEC8B155
:105300000E4F002647F824600D4B1B6899881868DB
:1053100001F0FBFC0B4B1B689988186801F0F5FC49
:10532000FF2347F824303146074B1878FCF75EFE20
:105330002C46DEE7F8BD00BF440A0020480A0020E2
:10534000380A00203C0A0020600A002008B5054BFE
:105350009988186801F0D9FC00211420FCF746FE5A
:1053600008BD00BF8807002008B5054B998818685C
:1053700001F0C9FC01211420FCF738FE08BD00BF74
:105380008807002010B504460C20FCF70DFE134BD7
:105390001860A04204D005DB104B1B68A3420FDC51
:1053A000002010BD0E4B01221A700E4B9988186810
:1053B00001F0A9FC0C4B9988186801F0A6FCEBE7FA
:1053C000074B00221A70074B9988186801F09DFC62
:1053D000054B9988186801F096FCE1E7400A002027
:1053E000EA06002008080020000800200000000055
:1053F00010B50446017843781B0203F4E0631943B7
:1054000001EB810149002B20FCF7F0FD6378A078C7
:10541000400140EAD300C0F3090002F04FFB0EA3A5
:10542000D3E9002302F0B4FB02F0C4FD01462D20B5
:10543000FCF7EAFDA378E178890041EA931123792A
:105440009B0203F48063194301EB810149002F2083
:10545000FCF7CCFD10BD00BF9A9999999999B93F75
:1054600010B50446C078A37843EA002002F026FB7A
:1054700009A3D3E9002302F08BFB02F09BFD014658
:105480002D20FCF7C1FD217928392E20FCF7AEFD37
:1054900010BD00BFAFF300809A9999999999B93FCF
:1054A00030B583B005460B20FCF77EFD04462C206A
:1054B000FCF77AFD8DF8000003128DF801308DF8AD
:1054C000024024128DF8034000238DF804309842E6
:1054D00011DD01238DF8053000238DF806308DF89D
:1054E00007302B685C6808236A4640F28121284611
:1054F000A04703B030BD0023ECE708B564220021CB
:1055000000F0A4FA00EB800041002C20FCF76EFDB7
:1055100008BD08B52D20FCF747FD08BD08B5502291
:10552000002100F093FAC0B200EB8000400040F28E
:10553000E7330022024900F0FE0000F091FA08BDB6
:105540000008004008B55022002100F07FFAC0B2E8
:1055500000EB8000400040F2E7330222024900F0F5
:10556000FE0000F07DFA08BD0008004038B50024B8
:10557000304D22462B46304800F0F2FB22462B46A7
:105580002E4800F0EDFB22462B462D4800F0E8FBAC
:1055900022462B462B4800F0E3FB22462B462A48A6
:1055A00000F0DEFB22462B46284800F0D9FB2246BD
:1055B0002B46274800F0D4FB22462B46254800F016
:1055C000CFFB22462B46244800F0CAFB22462B463E
:1055D000224800F0C5FB22462B46214800F0C0FBC4
:1055E00022462B461F4800F0BBFB22462B461E4896
:1055F00000F0B6FB22462B461C4800F0B1FB2246C9
:105600002B461B4800F0ACFB22462B46194800F005
:10561000A7FB22462B46184800F0A2FB22462B4649
:10562000164800F09DFB22462B46154800F098FBDB
:1056300038BD00BF0000E03F200C0020080C002017
:10564000F00B0020D80B0020C00B0020A80B00207E
:10565000900B0020780B0020600B0020480B0020EE
:10566000300B0020180B0020000B0020E80A00205F
:10567000D00A0020B80A0020A00A0020880A0020D2
:10568000700A00202DE9F04F83B0B948FDF7FEFB0A
:1056900002F096FD0646B748FDF7F8FB02F090FDD4
:1056A0008246B548FDF7F2FB02F08AFD05464FF051
:1056B00000084FF08B47DFF8C492B14C2368009389
:1056C00043463A464946304600F0A4F98346AD4E7B
:1056D0003368009343463A46AB49504600F09AF986
:1056E00082462368009343463A464946284600F0DE
:1056F00091F98046206802F081FF0546584602F085
:105700007DFF2A46002100F0A1F902F05DFD074669
:10571000306802F073FF0546504602F06FFF2A46DC
:10572000002100F093F902F04FFD0546206802F0D9
:1057300065FF0446404602F061FF2246002100F06A
:1057400085F902F041FD0446384602F0C9F90246E7
:105750000B468E4800F015FB02F02CFC014615208C
:10576000FCF752FC284602F0BBF902460B4688487B
:1057700000F007FB02F01EFC01461620FCF744FC7B
:10578000204602F0ADF902460B46824800F0F9FAD5
:1057900002F010FC01461720FCF736FC7E48FDF7AE
:1057A00075FB042100F06AFA02F09AF902460B46F2
:1057B0007A4800F0E6FA04460D46794B186802F084
:1057C0008FF902460B462046294602F029F802F0DE
:1057D000F1FB01461820FCF717FC7248FDF756FB59
:1057E000042100F04BFA02F07BF902460B466E48AA
:1057F00000F0C7FA04460D466C4B186802F070F9C9
:1058000002460B462046294602F00AF802F0D2FB77
:1058100001461920FCF7F8FB6548FDF737FB04212A
:1058200000F02CFA02F05CF902460B46614800F0E9
:10583000A8FA04460D46604B186802F051F902467A
:105840000B462046294601F0EBFF02F0B3FB014670
:105850001A20FCF7D9FB5948FDF718FB042100F08A
:105860000DFA02F03DF902460B46554800F089FA60
:1058700004460D46534B186802F032F902460B46B7
:105880002046294601F0CCFF02F094FB01461B2084
:10589000FCF7BAFB4C48FDF7F9FA042100F0EEF9E9
:1058A00002F01EF902460B46484800F06AFA044628
:1058B0000D46474B186802F013F902460B46204686
:1058C000294601F0ADFF02F075FB01461C20FCF7F4
:1058D0009BFB4048FDF7DAFA042100F0CFF902F013
:1058E000FFF802460B463C4800F04BFA02F062FB20
:1058F00001461E20FCF788FB3848FDF7C7FA042153
:1059000000F0BCF902F0ECF802460B46344800F017
:1059100038FA02F04FFB01461D20FCF775FB3148B9
:10592000FDF7B4FA042100F0A9F902F0D9F8024613
:105930000B462D4800F025FA02F03CFB01461F20E3
:10594000FCF762FB2948FDF7A1FA042100F096F963
:1059500002F0C6F802460B46254800F012FA02F0A3
:1059600029FB01462020FCF74FFB03B0BDE8F08F78
:105970009C080020C4080020C008002000801344B8
:10598000F8060020FC0600200000B943200C00208F
:10599000080C0020F00B0020A8080020D80B0020E5
:1059A000F4060020A4080020C00B0020F006002010
:1059B000A0080020A80B0020EC060020AC08002066
:1059C000900B00206C0A002094080020780B002027
:1059D000680A0020BC080020E80A0020B80800205F
:1059E000D00A0020B4080020880A0020B008002057
:1059F000700A002008B5FFF7B9FD08BDA0EB010C47
:105A00000098C01A00FB0CFC521A9CFBF2FC0CEB39
:105A100003007047F8B50F4616461C4602F01EFB01
:105A200005462146069802F019FB0146284602F079
:105A30001FFC05463946304602F010FB0146284659
:105A400002F0CAFC214602F00BFBF8BD904202DCDA
:105A5000884202DB704710467047084670470000D6
:105A600038B58446084611461A46BCF1640F01D980
:105A70004FF0640C541CACFB04C4CCF3130E4FEA7F
:105A80001C5343EA0433C3F313039E44C4F31323A8
:105A90009E440EEB147E114BA3FB0E53DB0803EB6D
:105AA000830303EB8303AEEB030EBCEB0E0C64F13C
:105AB0000004DFF82CE00B4B03FB0CF30EFB04336C
:105AC000ACFB0ECE73444FEA9C0C4CEA837C6245DF
:105AD00000D3624601F00DFD38BD00BF1F85EB51BC
:105AE000295C8FC2F5285C8F7047000010B5044612
:105AF0000320FCF759FA012800D010BD207802F0ED
:105B00005FFB1C4902F0AAFA01461F20FCF77CFA51
:105B10000420FCF7ADFAC16802695211491160789E
:105B2000FFF794FF02F050FB01460420FCF76CFAEB
:105B30000920FCF79DFAC168026952114911E07809
:105B4000FFF784FF02F040FB01460920FCF75CFAF6
:105B50000A20FCF78DFAC168026952114911607977
:105B6000FFF774FF02F030FB01460A20FCF74CFA05
:105B7000C3E700BF00002042F0B585B004464FF4F3
:105B800048712B20FCF732FA2B20FCF70DFA074660
:105B90001820FCF709FA28308DF808001920FCF7C6
:105BA00003FA28308DF809001A20FCF7FDF9283097
:105BB0008DF80A001520FCF7F7F900EB80008DF84E
:105BC0000B001620FCF7F0F900EB80008DF80C00BC
:105BD0001720FCF7E9F900EB80008DF80D00262076
:105BE000FCF7E2F900EB80035B008DF80E30282013
:105BF000FCF7DAF900EB80035B008DF80F3002ADA3
:105C000023685E6808232A4640F232712046B04776
:105C10001B20FCF7C9F928308DF808001C20FCF780
:105C2000C3F928308DF809002120FCF7BDF98DF863
:105C30000A0028238DF80B303020FCF7B5F9283006
:105C40008DF80C000C20FCF7AFF98DF80E00FA234C
:105C5000009314234FF4FA524FF448713846FFF77B
:105C6000CDFE8DF80F0023685E6808232A4640F2B7
:105C700033712046B04705B0F0BD000005296AD851
:105C80002DE9F0470C46002398461D4639E087422F
:105C90004ADB4DE0012E27D0C01B02F095FA814669
:105CA000012E26D04346D81B02F08EFA82466700AA
:105CB00004EB4403DFF8A48008EB83031E7930462D
:105CC00002F082FA494602F0D3FA514602F084FB10
:105CD0008146274438F9270005FB060002F074FAD4
:105CE000494602F0BBF934E0381A02F06DFA8146F9
:105CF000D6E74346F81A02F067FA8246D7E701353D
:105D0000B84604EB4402154B03EB82035B79AB42CC
:105D100018D904EB4402114B03EB82039A6832F862
:105D200015709E79012EB2D0002EE8D18742E6DCB4
:105D3000002DAFD104EB4404084B33F9240002F0EA
:105D400043FA06E0054B03EB8203B3F9020002F0CD
:105D50003BFABDE8F0870020704700BFE8920008DA
:105D60004DF804BD93469C4600220023C0E9002361
:105D7000C0E9022300230374C0E902BC5DF804BB40
:105D800070472DE9F041044610461946237CCBB1FB
:105D9000D4E90278D4E900562A46334601F040FDA2
:105DA00002460B463846414601F0F2FE02460B46DB
:105DB0002846314601F036FDC4E90001D4E900016E
:105DC000BDE8F081C4E9000101232374F6E770B552
:105DD00016461C465A2B02D84F2C1AD970BD0A20E1
:105DE000FCF7E2F805461920FCF7DEF8281A02F065
:105DF000EBF94FF0804102F0F7FB0028ECD033784C
:105E0000053BDAB213F0800F01D03270E6E7802252
:105E1000FBE70520FCF7C8F804461F20FCF7C4F890
:105E2000201A02F0D1F94FF0804102F0DDFB00288A
:105E3000D4D0337805333370D0E770B50E461446AE
:105E40005A2A02D84F2C14D970BD1820FCF7ACF890
:105E500005460920FCF7A8F8281A02F0B5F94FF01A
:105E6000804102F0C1FB0028ECD03378053B337051
:105E7000EAE71F20FCF798F804460620FCF794F8A0
:105E8000201A02F0A1F94FF0804102F0ADFB00288A
:105E9000DAD0337805333370D6E7F8B504462320DB
:105EA000FCF798F820702420FCF794F8607022200A
:105EB000FCF790F8A0701F20FCF776F802F084F948
:105EC000054607460520FCF76FF802F07DF94FF014
:105ED00001031E46294602F087FB10B94FF000036C
:105EE0001E46E6700620FCF75FF802F06DF94FF0F1
:105EF00001031D46394602F059FB10B94FF000036B
:105F00001D4625712020FCF74FF802F05DF905468B
:105F10000820FCF749F802F057F94FF001031E463C
:105F2000294602F043FB10B94FF000031E4666718C
:105F30002046F8BD2DE9F04180460C4615461D204F
:105F4000FCF732F802F040F906461F20FCF72CF867
:105F500002F03AF907461920FCF726F802F034F966
:105F600098F8032082F001020123E3602274676144
:105F70000021A161237726620222626284F8283020
:105F8000E06298F804205A402B602A71AF60E96003
:105F90002B746E61BDE8F0812DE9F04782460D4615
:105FA0000024164B9946A04600E00134012C16DC73
:105FB00004EB44039E0005EB83031A79002AF4D016
:105FC0009968504602F04AF807460146484602F0F2
:105FD0000BFB0028E9D0AB599846B946E5E71D20F0
:105FE000FBF7E2FF02F0F0F8054902F0DFFA10B922
:105FF0004046BDE8F08702239846F9E7FFFF7F7F20
:106000000000A0C12DE9F04782460D4600246FF440
:1060100000039846A14600E00134012C16DC04EB95
:1060200044039E0005EB83031A79002AF4D0996893
:10603000504602F013F807460146404602F0B6FA11
:106040000028E9D0AB599946B846E5E74846BDE88F
:10605000F08700002DE9F041074688461620FBF73F
:10606000A3FF02F0B1F804461720FBF79DFF02F0F2
:10607000ABF80546FFF74DFA06465649204602F0B2
:10608000B3FA002866D14FF07E51284602F08EFA0E
:10609000002871D14146384601F0E0FF05464E4BDD
:1060A000196802F0E5F84D4C216801F0D9FF064669
:1060B00020604B4B1968284602F0DAF8002102F004
:1060C00075FA00286AD1464B1D60444B1B681E467A
:1060D0004449184602F0CCF8294601F0C1FF0446B5
:1060E000414902F063FA00B93F4C0021204602F01A
:1060F0007BFA00B900243C49204602F06BFA78B1E3
:106100002946394801F0AAFF364902F065F90146EF
:106110000746304602F068FA002846D12F4B1E6031
:106120000021204602F04CFA002840D1204602F01F
:106130008BFAC0B2FFF7E1F92C49204602F098F83B
:1061400002F082FAFF220521C0B2FFF77FFCC0B245
:10615000BDE8F081F0B2441E002C00DC0024E0B267
:10616000FFF7CBF9204602F02FF8204902F080F823
:1061700002F06AFAC0B2EBE7F0B2441E002C00DC79
:106180000024E0B2FFF7B9F9204602F01DF81749E4
:1061900002F06EF802F058FAC0B2D9E74FF07C5125
:1061A000304602F065F820608DE73E46B6E705F11F
:1061B00000400C4902F010F90646084B1B681D46CA
:1061C000194602F011FA10B9044B1D60AEE73546CE
:1061D000FAE700BF0000F041000700203C0C00205F
:1061E000380C0020CDCCCC3D0000C84233332340D6
:1061F00070B594B012AC2046FFF74FFE03AA09A970
:106200002046FFF797FE1D20FBF7CEFE01F0DCFFD6
:1062100002F0F4F904464623009332230A226FF079
:106220001301FFF7EBFB0546452800DD4625322D1F
:1062300000DC32250A230093052332221E2120464A
:10624000FFF7DCFB0446092800DD0A24052C00DCEE
:106250000524284601F0B8FF09A9FFF79DFE054671
:10626000204601F0B1FF03A9FFF7CCFE06462C2023
:10627000FBF79AFE50221E21FFF7E8FBC4B220462E
:10628000FFF760F92046FFF749F99DF84C3013B14C
:106290009DF84D305BB99DF84A3003B13EB19DF891
:1062A000483023B99DF8493023B1012D02D1022095
:1062B000FFF768F89DF848302BB99DF8493013B9BD
:1062C0009DF84B300BB1002D76D09DF848302BB99E
:1062D0009DF8493013B99DF84B300BB1022D6FD0AA
:1062E0009DF84A3033B99DF84C3033B19DF84B30AE
:1062F0001BB916B90520FFF745F89DF8483053B98A
:106300009DF849303BB99DF84B30002B5ED09DF88D
:106310004A30002B5AD10A20FBF746FE01F054FF09
:1063200004461920FBF740FE01F04EFF01462046CF
:10633000FFF790FE0446FFF7ECF8C3B29DF8482043
:1063400002B1FF228DF809209DF8492002B1FF22F9
:106350008DF80A209DF84B2002B1FF228DF80B200A
:106360000DF10B020DF10A010DF10900FFF72FFDF0
:10637000FEF7FAFF9DF80B100220FEF755FF9DF87F
:106380000A100320FEF750FF9DF809100420FEF7C5
:106390004BFF022D18D021460520FEF745FF0021B6
:1063A0000620FEF741FF022D00D0002421460120E7
:1063B000FEF73AFF14B070BD0320FEF7E3FF84E759
:1063C0000420FEF7DFFF8BE70021E5E79DF84A3068
:1063D00033B99DF84C301BB99DF84D30002B44D09B
:1063E0000920FBF7E1FD01F0EFFE04461820FBF762
:1063F000DBFD01F0E9FE01462046FFF72BFE0446D7
:10640000FFF787F8C2B29DF84A3003B123468DF8F2
:106410000A309DF84C301BB99DF84D3003B91C462D
:106420008DF80B400DF10B010DF10A00FFF705FD92
:10643000FEF78CFF00210220FEF7F6FE002103206C
:10644000FEF7F2FE00210420FEF7EEFE9DF80B1091
:106450000520FEF7E9FE9DF80A100620FEF7E4FE8F
:1064600000210120FEF7E0FEA4E7FEF76FFFFF2109
:106470000220FEF7D9FEFF210320FEF7D5FEFF2103
:106480000420FEF7D1FEFF210520FEF7CDFEFF21FF
:106490000620FEF7C9FEFF210120FEF7C5FE002001
:1064A000FFF72BF886E78368DB075EBF836843F05E
:1064B0000103836070470000034AD2F8083443F4B4
:1064C0000003C2F80834704700200140836823F4B9
:1064D00060230B438360836843F4801383607047B9
:1064E000836800F1080243F00803836013681B0708
:1064F000FCD47047836843F004038360704780686E
:10650000C0F38000704708B50246FFF7F3FF10465E
:10651000FFF7F5FF0028FAD108BD0022134610B599
:1065200001FA02F403321E2A43EA0403F8D10022DE
:10653000036101FA02F40332182A43EA0403F8D192
:10654000C36010BD836823F0010383607047436814
:1065500043F4807343607047836823F4006383606F
:106560007047836843F00203836070471029F0B5D9
:1065700010D800234FF0010E1F469C461D465FFABF
:106580008EF6B14207D2013945EA0155C562C0F81D
:1065900030C04763F0BDBEF1060F147806D89C40AA
:1065A00027430EF1010E01320533E8E7073E052EC1
:1065B00095BFA3F11E06A3F13C06B440B44094BFBE
:1065C0004CEA040C2543ECE7836800F1080243F42D
:1065D0008003836013685B02FCD47047836843F4D4
:1065E0008073836070470000044B98420CBF40F2F8
:1065F000192040F21A2000F050BD00BF0064004096
:106600002DE9F34104689DF8208024F00204046021
:1066100004689DF824E044F0010404604FF6FF7420
:106620009DF828C09DF83C609DF840700194019C45
:10663000051D013C019414B14468E407F7D5446892
:10664000E40770D50024C461002951D0016841F0ED
:1066500080010160002A4FD0026842F040020260CF
:10666000002B4DD0036843F0200303600368B8F1AA
:10667000000F49D043F0100303600368BEF1000F20
:1066800045D043F0080303600368BCF1000F41D01C
:1066900043F004030360C369002F3ED043F000437E
:1066A000C361C369002E3BD043F08043C3610E9B9E
:1066B0000D99013BC3F309030B430C99C2690B43CA
:1066C0000B990B431343C361036823F00103036079
:1066D0004FF6FF730193019B013B019313B12B68AC
:1066E000DB07F8D4406800F0010002B0BDE8F0819B
:1066F000016821F08001ACE7026822F04002AEE7B9
:10670000036823F02003B0E723F01003B4E723F07D
:106710000803B8E723F00403BCE723F00043BFE716
:1067200023F08043C2E70120DFE70000F0B5012538
:10673000234C9DF81C70D4F80066854046F0010695
:10674000C4F80066D4F81C6626EA0506C4F81C6680
:1067500039B3D4F80C162943C4F80C1632B3D4F864
:1067600004262A4300F1006000F6C840C4F804265D
:10677000C0000360069A059B4360114BDAB1D3F861
:1067800014262A43C3F8142627B1D3F81C262A431B
:10679000C3F81C26D3F8002622F00102C3F8002615
:1067A000F0BDD4F80C1621EA0501D5E7D4F804268B
:1067B00022EA0502D6E7D3F8142622EA0502E1E729
:1067C0000060004030B4BDF808409DF8105043EA26
:1067D0000443029341EA024300220495114630BC6F
:1067E000FFF7A4BF30B4BDF808409DF8105044EA4C
:1067F0000344049542EA01430294012230BC002183
:10680000FFF794BF1FB5009201229DF81840CDE913
:1068100001340B461146FFF789FF04B010BD4369F0
:106820000B4343617047436923EA010343617047A7
:106830002DE9F041064680689DF818804701079DC4
:1068400026D4B068040127D4B068C00050D54FF4F6
:10685000D0770220BC191AB3C90041F00401B95124
:106860001BB1236843F002032360636823F00F0326
:106870006360626808F00F031343636008F1FF333D
:10688000072B2BD8DFE803F02724211C1916130E41
:106890004FF4C0770020DDE74FF4C8770120D9E737
:1068A0004905DCE74FF0000CEB7963F31F6CAB7923
:1068B00063F3174C6B7963F30F2C2B7963F3070C9D
:1068C0004FF0000EEB7863F31F6EAB7863F3174E57
:1068D0006B7863F30F2E2B7863F3070EC4F808E090
:1068E000C4F80CC0236843F001032360BDE8F081C5
:1068F0004FF0FF30FAE721B9C36843F02003C360CB
:106900007047036943F020030361704719B9C068F9
:1069100000F0030070470069FAE72DE9F341DDF864
:1069200020800446DDE90C57FFF7F0FF4FF4D87CD8
:1069300006464FF4E070CDE900C002A800EB8100EC
:1069400050F808EC54F80E0004EB0E0C10F00400A4
:1069500015BF012088F8000088F8000054F80E00E8
:1069600016BF54F80E00400DC008186054F80E0011
:10697000099BC0F340001870DCF804000A9B000A71
:106980001870DCF804000B9B00F00F0018701FB1AA
:10699000DCF804301B0C3B80DCF80800DCF80C3021
:1069A000C0F3072728706F70C0F30747C0F3076074
:1069B000E870C3F307202B716871C3F30740C3F37A
:1069C0000763AF70A871EB7112B12046FFF793FF18
:1069D000304602B0BDE8F081024A936843F00103FB
:1069E0009360704700300240014B18601868704790
:1069F00000300240002310B5044A8B4201DB1068CE
:106A000010BD50F8234001331460F6E70030024017
:106A1000014BB3F8E007704700F0FF1F142300227A
:106A2000013903FB01039A60DA601A615A610F238E
:106A3000426889008B4013434360704701398900E5
:106A40008A40426070470139036889008A401A42CF
:106A500014BF012000207047142301395943083026
:106A60000B5823F440630B500B5813430B507047E3
:106A700014230139594308300B5823F440730B5049
:106A80000B5813430B5070471423013959430830F6
:106A90000B5843F080030B507047142301395943BE
:106AA00008300B5843F020030B500B5823F480435D
:106AB0000B50704714230139594308300B5843F0E9
:106AC00010030B50704714230139594308300B58F9
:106AD00043F001030B507047142301395943083028
