:020000040800F2
:1010000000500020DD820008D9820008D782000845
:10101000D7820008D7820008D782000800000000AD
:10102000000000000000000000000000D98200085D
:10103000D982000800000000D9820008D982000887
:10104000D7820008D7820008D7820008D78200081C
:10105000D7820008D7820008D7820008D78200080C
:10106000D7820008D7820008D7820008D7820008FC
:10107000D7820008D7820008D7820008D7820008EC
:10108000D7820008D7820008D7820008613600089E
:101090004136000851360008D78200085514000870
:1010A000D7820008D7820008D7820008D7820008BC
:1010B000D7820008451400088D140008D782000864
:1010C000D7820008D7820008D7820008D78200089C
:1010D000D7820008D7820008D7820008D78200088C
:1010E000D7820008D7820008D7820008D78200087C
:1010F000D7820008D7820008D7820008D78200086C
:10110000D7820008D7820008D7820008D78200085B
:10111000D7820008D7820008D7820008D78200084B
:10112000D7820008D7820008D7820008D78200083B
:10113000D7820008D7820008D78200088F360008BF
:101140006F3600087F360008D7820008D782000873
:1011500008B58446084611461A46DCF8043098471C
:1011600008BD08B58368984708BD00B54FF0000C6E
:10117000E64604E000BF1CF1010C4EF1000E4B01ED
:1011800043EAD0634201121A63EB01039B0043EA76
:1011900092739200121841EB03031B0143EA12738E
:1011A000120194457EEB0303E4DB00BD10B506F0AD
:1011B000C7FB1D4B186800F08EFE07F0F7FD1B49BA
:1011C00007F0FCFE01463E2000F0FCFE184801F04E
:1011D00029FE07F0E7FD174907F0F0FE01463D2024
:1011E00000F0F0FE06F0DAFD01F012FF124C20686C
:1011F00005F01CF9206804F017FC04F023FE05F04C
:1012000035FD0E4B186802F0DFFA0D4B1B782BB939
:101210000B4A137883F00103137010BD094B9988B2
:10122000186806F084FBF3E7C008002000002041A6
:10123000100A002000004B43BC080020B808002022
:10124000A0080020A809002008B5024B186804F087
:1012500017FC08BDBC08002008B503F077FF08BDE7
:1012600008B5034640F22132904223D008460BD9FC
:1012700040F2455293421DD025D840F26632934247
:101280001CD104F07BFB23E040F2C722934221D023
:10129000B3F5327F0AD240F2212293420AD040F2C3
:1012A000A722934214D104F0FFFA11E040F2D122B8
:1012B00093420DD1184604F0A1FB09E040F2A1329F
:1012C000934205D1F6E7B3F5DC6F01D105F066F87E
:1012D000002008BD04F068FBFAE7000010B51C4CC4
:1012E00000224FF4DC61206802F0FFF9002240F296
:1012F000A721206802F0F9F9002240F2C7212068F6
:1013000002F0F3F9002240F26631206802F0EDF9B4
:10131000002240F22121206802F0E7F9002240F289
:10132000D121206802F0E1F9002240F22131206849
:1013300002F0DBF9002240F2A131206802F0D5F979
:10134000002240F24551206802F0CFF910BD00BFE5
:10135000BC08002010B504468188006806F0E4FA55
:10136000003818BF0120A379181A18BF012010BD3A
:1013700008B5244B1B6833B106F010FD214B1B68E8
:10138000C01AC72820D92048FFF7E4FF01462320D0
:1013900000F00AFE1D48FFF7DDFF0146242000F0A3
:1013A00003FE1B48FFF7D6FF0146222000F0FCFD9C
:1013B0001848FFF7CFFF0146252000F0F5FD002378
:1013C000154A1370154A137004F09AFB07F008FFD2
:1013D0000146262000F0E8FD04F0A6FB07F000FF20
:1013E0000146282000F0E0FD04F0B2FB03F0AEFF60
:1013F00004F07AF801460A2000F0D6FD04F0AEFCB5
:1014000008BD00BF640D0020100900202009002045
:1014100018090020F0090020620D0020610D002055
:10142000FEE7000000B1704710B5054B1B681C4675
:1014300000F098FDC1B2204602F06CFF10BD00BF65
:10144000B408002008B5024B186800F00BFD08BD79
:10145000C008002008B54FF4807006F027F950B19D
:10146000084B1B7843B1084A1368013313604FF4EB
:10147000807006F015F908BD034A1368013B13603C
:10148000F5E700BF6A080020AC08002008B5082175
:10149000214806F0E5FC28B910211F4806F0E0FCC1
:1014A000E8B908BD02211C4806F045FE1B4B1B682D
:1014B0003BB183420CD8C31A194A1360194B01225D
:1014C0001A70164B18600821134806F0CFFCE3E7AA
:1014D000C31A03F543435033114A1360EEE7032167
:1014E0000D4806F028FE104B1B683BB183420CD818
:1014F000C31A0E4A13600E4B01221A700A4B186071
:101500001021054806F0B2FCCBE7C31A03F54343AC
:101510005033064A1360EEE7000800409C080020A4
:10152000A8080020A208002098080020A408002095
:10153000A1080020F0B5ADF61C0D00F04BFA00F04C
:101540000FFBCC4E00223146CB4801F0AFFC01220C
:101550003146CA4801F0AAFC03223146C84801F0CE
:10156000A5FCC84D00222946C74801F09FFCC74C86
:1015700000222146C64801F099FC01222146C548B7
:1015800001F094FC02222146C34801F08FFC0322A3
:101590002146C24801F08AFC04222146C04801F0DD
:1015A00085FC05222146BF4801F080FC04234FF44E
:1015B00080723146BC4801F038F907234FF40042ED
:1015C0003146BA4801F031F9002304222946B848CF
:1015D00001F02BF9072308222946B64801F025F926
:1015E000072310222946B44801F01FF907232022BF
:1015F0002946B24801F019F9092340222946B0488A
:1016000001F013F9092380222946AE4801F00DF9B3
:1016100004234FF480722946AB4801F006F90423F5
:101620004FF400722946A94801F0FFF809234FF44E
:1016300000622946A64801F0F8F807234FF48042DB
:101640002946A44801F0F1F807234FF480622146AF
:10165000A14801F0EAF807234FF4006221469F48B1
:1016600001F0E3F807234FF4805221469C4801F033
:10167000DCF807234FF4005221469A4801F0D5F8D0
:1016800007234FF480422146974801F0CEF804F535
:101690008064072301222146944801F0C6F80723FD
:1016A00002222146924801F0C0F807230422214675
:1016B000904801F0BAF80723082221468E4801F02D
:1016C000B4F80723102221468C4801F0AEF8072316
:1016D000202221468A4801F0A8F80723402221460B
:1016E000884801F0A2F8072380222146864801F0AD
:1016F0009CF804F58064072304222146834801F006
:1017000094F8072308222146814801F08EF8072328
:10171000102221467F4801F088F800234FF48072A0
:1017200021467D4801F081F800234FF400722146E4
:101730007A4801F07AF800234FF480622146784815
:1017400001F073F807234FF400622146754801F059
:101750006CF801F0DFFA00F0F9FA00F091F900F00E
:10176000D7F901F027FC00F005FA0DF2EC54012640
:101770000196009600236C4A6C49204600F0C6FC96
:101780006B4B1C600DF5BC656A4BCDF8E0356A4BC0
:10179000CDF8E035694BCDF8E435694BCDF8E83547
:1017A000E1AC002302226749204601F08FFE664B20
:1017B0001C602946204601F089FFFFF78FFD32ADFE
:1017C00032462146284602F019FD604F3D60604BCD
:1017D0001D600FAE2A462146304602F069FD5D4B82
:1017E0001E60002000F0BEFBC1B2304602F092FD48
:1017F0003A68594B1A60594D05AC2946204600F00D
:10180000D7FA574B1968C1F35911564BA3FB013155
:1018100089090139284606F04AFB534B1C60032214
:101820005249204600F0E8FA14225149204600F0BF
:10183000E3FA64224F49204600F0DEFAC8224E49FE
:10184000204600F0D9FA00213B2000F0ADFB3F20FC
:10185000FFF7E8FD0A200021FFF787FC03F010FDE9
:1018600064200021FFF781FC03F044FE98E01C4651
:101870009FE000BF00080140300A00202C0A002031
:10188000280A0020000C0140240A0020001001401A
:10189000200A00201C0A0020180A0020140A002038
:1018A000100A00200C0A0020000A0020F80900207D
:1018B000F0090020E8090020E0090020D8090020F4
:1018C000D0090020C8090020C0090020B809002064
:1018D000B0090020A8090020A009002098090020D4
:1018E0009009002088090020800900207809002044
:1018F00070090020680900206009002058090020B4
:101900005009002048090020400900203809002023
:101910003009002028090020200900201809002093
:10192000100900200809002024A100080038014007
:10193000B00800207C9200088C9200086112000818
:10194000DD12000800640040BC080020B808002038
:10195000540B0020B4080020500B0020000400406D
:1019600094080020632D3E05C0080020591200088D
:101970007113000849120008AD11000804300DF180
:101980000B0103F0B9F85CB103AB94E8030083E802
:101990000300204602F036FF21460FA802F0E3FCC8
:1019A00000228DF80B209DF8C430002B3FF45FAF70
:1019B0002FAC064B186800F093FD054B186843697F
:1019C000002BE0D10028D9D1D9E700BFB008002012
:1019D000B408002008B5274806F000F94FF0E023CE
:1019E000254AC3F80C2D40F2023006F055F940F2BA
:1019F000033006F051F94FF4417006F04DF940F212
:101A0000053006F049F940F2063006F045F940F29B
:101A10000E3006F041F940F20B3006F03DF94FF47C
:101A2000607006F039F940F2813006F035F940F285
:101A3000823006F031F94FF4207006F02DF940F2B3
:101A4000093006F029F940F20A3006F025F940F293
:101A5000862006F021F94FF4407006F01DF940F29F
:101A6000993006F019F9054A536843F4007353603E
:101A700008BD00BFECA500080003FA050000014006
:101A800030B597B005F04EFD00F5FF3505F2FD15B8
:101A9000AD0201AC14220021204600F0C0FE1A4B1A
:101AA00001931823ADF8083001238DF80A30002285
:101AB0008DF80B20154903914FF44071ADF81010CB
:101AC0008DF812208DF8133005F010FD14212046FA
:101AD00005F01AFD15902B6D834201D117B030BD72
:101AE00005F0C2FE284605F07BFE002407E001ABAE
:101AF00053F8241005EB840005F0D0FE0134142CBB
:101B0000F5D905F0BDFEE9E700100140000C0140E9
:101B100008B51D2006F04EFC00211D2006F056FCE5
:101B20001E2006F047FC01211E2006F04FFC0B4949
:101B30004FF4807005F0C2FD02214FF4807005F073
:101B40007DFD4FF4807005F09DFD172006F032FCFE
:101B50000221172006F03AFC08BD00BF0008014032
:101B600008B54FF41C71032006F050F9002006F070
:101B70001FF908BD38B54FF0804006F093F90A21EF
:101B80004FF0804006F093F900214FF0804006F0BE
:101B900075F94FF6FF714FF0804006F08AF94FF06B
:101BA000804006F066F9674D4FF40063022211464B
:101BB000284605F07FFE062211464FF0804006F0D1
:101BC0007AF906214FF0804006F03BFA06214FF0EB
:101BD000804006F050FA06214FF0804006F070FA7F
:101BE000002206214FF0804006F08FFA4FF4806308
:101BF00002221146284605F05DFE062204214FF020
:101C0000804006F058F904214FF0804006F019FAA0
:101C100004214FF0804006F02EFA04214FF080405E
:101C200006F04EFA002204214FF0804006F06DFAD3
:101C30004FF0804006F031F94FF44073012200214B
:101C4000284605F037FE404C204606F02BF98F2140
:101C5000204606F02CF94CF25031204606F029F9C6
:101C6000204606F015F90F220221204606F072FAEE
:101C700005220221204606F095FA00220221204684
:101C800006F0DEF80221204606F0BFFA08212046C1
:101C900006F0E2F800220321204606F05BFA062255
:101CA0000321204606F07EFA00220321204606F09A
:101CB000C7F80321204606F0A8FA1021204606F0B6
:101CC000CBF8402302221146284605F0F3FD0622F8
:101CD0000021204606F0EFF80021204606F0B1F979
:101CE0000021204606F0C7F90021204606F0E8F959
:101CF00000221146204606F008FA802302221146EF
:101D0000284605F0D7FD06220221204606F0D3F82A
:101D10000221204606F095F90221204606F0ABF993
:101D20000221204606F0CCF900220221204606F0CE
:101D3000ECF90121204606F0F8F9204606F0ADF84E
:101D400038BD00BF000C01400008004010B582B053
:101D500009238DF80730154C204605F06DF9204613
:101D600005F074F9204605F086F90721204605F0B4
:101D70004EF90DF107020121204605F081F94FF4DB
:101D80006021204605F01CF9204605F007F90023E4
:101D900001E000BF0133772BFBDD044C204605F04A
:101DA00019F9204605F029F902B010BD00280140BC
:101DB00038B505460C460162084606F05AF820463A
:101DC00006F066F80A4B1968C1F31A11094BA3FB18
:101DD0000131C9090139204606F069F84FF6FF7153
:101DE000204606F066F800236B62284638BD00BF27
:101DF00094080020C55A7C0AF8B5436A032B00DD1D
:101E0000F8BD04460D461646006A06F04BF8636AB4
:101E10000122134FF95C206A06F04DF8636A002234
:101E2000F95C206A06F071F9636A44F8235003F103
:101E3000080106EB860202EB8202920024F81120D0
:101E400002219940206A06F007F80021206A06F076
:101E50007FF9206A06F021F8636A01336362CFE7F5
:101E600094920008F8B5054600242AE00226A64010
:101E70003146286A05F0F4FF40B3286A06F059F9A4
:101E800087B22B6A03EB84035A6B04F1080135F81F
:101E900011100A445A6355F824309847286A06F00E
:101EA00048F9C01B04F10C0325F813003146286AD9
:101EB00005F0DCFF04E00221A140286A05F0D6FF0E
:101EC0000134032C06DC6B6AA342CFDC6B6AA342AD
:101ED000F6DCF0E7F8BD0146002210460FE002F103
:101EE0000C0331F813304FF47A7C0CFB03F302F14E
:101EF000080C31F81CC093FBFCF3184401324B6A08
:101F00009342ECDC70470000024B1A68024BC3F8A6
:101F10009826704760080020FC00002008B5C0EB40
:101F2000C0020B4B03EB8203DB688B420EDC084BD9
:101F300003EB82031B698B4201DAFF2007E0054BAC
:101F400043F82010FFF76EFA002000E0FF2008BDE4
:101F5000FC00002000000020014B53F820007047D7
:101F600000000020024B53F820004011704700BFD2
:101F70000000002008B5054B53F8200006F016FFBE
:101F80004FF0745106F066FF08BD00BF000000204E
:101F9000044B53F820004011012814BF00200120F9
:101FA000704700BF000000204901024B43F8201099
:101FB000704700BF00000020014B43F8201070471D
:101FC0000000002010B5044608464FF0844106F09A
:101FD00041FF07F005F9024B43F8240010BD00BF94
:101FE0000000002070B506460024074D3E2C09DC99
:101FF0003146686800F072FB10B101341C35F5E71A
:10200000E0B270BD4020FCE7FC0000200023064A3F
:102010003E2B07DC118B814202D001331C32F7E7E3
:10202000D8B2704740207047FC000020C0EBC000D1
:10203000014B03EB80007047FC00002038B5002402
:10204000074D01E001341C353E2C07DC2B8B002BA7
:10205000F8D06969E0B2FFF7AFFFF3E738BD00BF22
:10206000FC000020014B1954704700BFC408002039
:10207000024A135C0B431354704700BFC40800208E
:10208000024A135C23EA010313547047C40800207A
:10209000014B185C704700BFC4080020C0EBC000B3
:1020A000024B03EB8003987E704700BFFC000020CA
:1020B00000487047B0A4010008B5FFF725FF08BD30
:1020C00008B52021806806F000F908BD08B58068D1
:1020D00006F0F3F808BD10B504464368597A58680D
:1020E00005F084FA636804F12A02597A586805F009
:1020F0008FFA63688022597A586805F099FA636804
:10210000597A586805F069FA10BD000070B50446A8
:102110000D465349016053490160856003730261B4
:10212000012101754175817500228261C26180F8CB
:102130002020426280F828109DF8101080F82910A5
:102140009DF8141080F82A1247494160032A07D8E5
:1021500061680868A84203D01C3161600132F5E76C
:10216000424A1460002B74D062685069002B73D00F
:1021700063681B8B0222032105F09CFB4FF4E131C5
:10218000284606F049F80821284606F057F84FF48B
:102190000051284606F05BF80C21284606F063F84B
:1021A0000021284606F059F80021284606F061F87B
:1021B000284606F074F8284606F076F86368197A1F
:1021C000586805F0B5F96368197A586805F0FCF9A4
:1021D00063682E1D3246197A586805F010FA636854
:1021E0000022197A586805F0CDF963680022197A3F
:1021F000586805F0BBF96368197A586805F0CEF99C
:102200006368597A586805F093F963683246597AD9
:10221000586805F0F4F963680022597A586805F0A7
:10222000B1F963680022597A586805F09FF963682C
:10223000597A586805F0B2F96368597A586805F018
:10224000CCF92046FFF747FF284606F018F820464D
:1022500070BD6268D06889E763681B8A8AE700BF3F
:10226000A4A00008B0A00008B4A000080409002041
:1022700038B50D460469437D3BB1216839B1284624
:1022800000F02CFA18B10834F7E71C4601E0236887
:102290000BB1204638BD1C46FBE738B504460D4659
:1022A00001E0002373B163680222197A586805F0CF
:1022B00054F90028F5D194F828300BB10346F1E722
:1022C0000123EFE76368197A586805F08FF96368AE
:1022D000AAB2197A586805F0ABF9636894F820201F
:1022E000D201A83222440232197A586805F090F9D6
:1022F00063680222197A586805F02AF96368197A26
:10230000586805F06AF994F82030B3FA83F35B0952
:1023100084F82030002384F8283038BD10B50446F6
:10232000837D73B10A2910D0436A7F2B0DD090F8BA
:10233000202000EBC2121A4482F8AA100133436233
:1023400010BD806805F0A0FFFAE794F82030626ABB
:1023500004EBC313134483F8AA10511C2046FFF763
:102360009CFF00236362EBE710B50C46802A28BF70
:10237000802211464FF0000C0AE090F8203014F84B
:102380000CE000EBC313634483F8AAE00CF1010CEA
:102390008C45F2D3FFF781FF10BD38B505460C46DA
:1023A000084600F0B2F9024621462846FFF7DCFF56
:1023B00038BD000010B50446084600F0F9F900F0F9
:1023C000DEF9237D83420DD000236375237B0BB39D
:1023D000626850690BB363681B8B0122002105F012
:1023E00069FA10BD01236375237B6BB16268506984
:1023F0006BB163681B8B0222032105F05BFA08496D
:102400002046FFF7CAFFECE76268D068F0E7636830
:102410001B8AF0E76268D068DCE763681B8ADCE748
:10242000809D000830B585B00446084600F0C0F92C
:102430000378302B13D0322B0ED04FF461231D467E
:10244000637D83B92946A06805F0E6FE0021A068F7
:1024500005F0FDFE05B030BD0E4B1D46F0E74FF414
:10246000E1331D46ECE70A22294601A800F05DF998
:1024700009492046FFF791FF08492046FFF78DFFE5
:1024800001A92046FFF789FF05492046FFF785FF90
:10249000D8E700BF10552200C0990008C89900086D
:1024A00044A0000810B50446084600F081F90378FE
:1024B00023B1303B18BF012384F8293094F8293028
:1024C00023B105492046FFF768FF10BD03492046A8
:1024D000FFF763FFF9E700BFD8990008E499000807
:1024E000F8B504464368597A586805F09AF80646E4
:1024F000C0F1800558B92046FFF7EDFD07E05A1CF2
:10250000E261234493F82A10A06805F0BDFE94F818
:10251000293013B1E369AB42F1DB0821A06805F073
:10252000D4FEE0B97F2E28DCC6F17F03234493F864
:102530002A300A2B17D00D2B15D094F82A30212BD6
:102540001BD1A369CBB12046FFF7C5FD0023E36192
:10255000A3695B6804F5D571204698470DE0A06833
:1025600005F0ABFEDEE76368597A586805F03EF87F
:102570007E2E03DD2046FFF7AEFDF8BD6319002275
:1025800083F82A20E26104F12A072021384600F06E
:10259000C3F80646037823BB0A21384600F0BCF88E
:1025A0000646002384F8AA31337803B3002333703E
:1025B000A3612A49384600F091F80646E8B904F5C7
:1025C000D5712046FFF7F6FEA369002B3CD0A0682A
:1025D00005F077FEA3695B6804F5D571204698473E
:1025E000C8E7411C04F5D57000F086F8DCE70D2142
:1025F000384600F091F80646D8E71949384600F009
:102600006DF8064668B994F82A322BB104F5D571F5
:102610002046FFF707FFD7E712492046FFF7BDFE28
:10262000D2E71149384600F059F8064628B904F5B2
:10263000D5712046FFF736FFC6E739462046FFF73B
:1026400017FEA0612E46BFE7012E93DD637D002BB0
:1026500090D006492046FFF7A0FE8BE7F0990008CE
:10266000FC990008089A0008249A00082C9A00088F
:1026700008B5044B1B681A681268C1B21846904727
:1026800008BD00BF04090020704708B500F020FD18
:1026900008BD000000B583B00649D1F8F027D1F895
:1026A000EC37D1F8E8170091034900F0EBFA03B0DA
:1026B00000BD00BF00F0FF1F489A000810B5044697
:1026C000FFF7BCFC0249204600F0DCFA10BD00BF59
:1026D0005C9A000808B502F00FFA08BD431E0139E4
:1026E00013F8010F11F8012F10B10AB19042F7D081
:1026F000801A18BF01207047013911F8013F0BB94A
:102700000370704700F8013BF7E70023C25C0AB989
:10271000184670470133F9E703461A7818461AB18C
:102720008A4203F10103F8D17047002970B51EDA1F
:102730002D23012400F8013B4942064691FBF2F3A8
:1027400002FB131130313170191E354606F10106B6
:10275000F4DC00220346201A30443270AB420BD224
:102760001A78297803F8011B05F80129F6E704D146
:10277000302341700370012070BD0024DDE730B5C7
:1027800003782D2B11D14FF0FF34013000210A25A1
:10279000431E01E005FB012113F8012F303AD0B2AE
:1027A0000928F7D904FB01F030BD0124EEE7000051
:1027B00010B5144C02780146A2F10A03DBB2162BC5
:1027C0001BD824FA03F3DA0700F10100F2D408461B
:1027D000FFF79BFF01380844814204460AD2037880
:1027E0000A3BDBB2162B05D8064A013822FA03F35E
:1027F000DB07F1D40023637001E0002AE7D108462B
:1028000010BD00BF09004000002310B5934200D165
:1028100010BD51F8234040F823400133F6E702B9D8
:102820007047013A40F8041BF9E7F8B50D46164623
:102830001C460160828000238371052C30D00AD9A8
:10284000082C32D01AD8062C41D0072C42D10024B3
:1028500003231F4630E0032C1CD009D8012C13D0D1
:10286000022C02D100231F4622E002241F4623E04F
:10287000042C28D1012400231F461DE0092C2DD152
:10288000022403231F4617E001238371022400233F
:102890001F4611E001238371022400231F4607E035
:1028A0000124847100231F4606E0012403231F46F0
:1028B0003146284605F033F8334622463946284645
:1028C00004F0F8FFF8BD022400231F46F4E70024BB
:1028D0002746F1E7022400231F46EDE702240023E8
:1028E0001F46E9E7024B4FF400421A80704700BFD1
:1028F000080A002008B5FFF7F5FF08BD70B50C1EEB
:10290000ACBF01234FF0FF335C430133064608BFE1
:102910002D234FF0640208BF06F8013B611104F05B
:102920001F040546544330460A22FFF7FEFE2E22BE
:102930006411092C3254D8BF302206EB0003D8BFF3
:102940005A7021464FF00A02CCBF581C981CFFF762
:10295000ECFE284670BDF0B5027803462D2A13D14F
:102960004FF0FF30013300250A2702E007FB052561
:1029700001331C78A4F13002D6B2092EF6D9A4B9DD
:102980008D4025446843F0BD0120ECE78A4002EB0E
:10299000660292FBF6F20CFB06F6144413F8012FC4
:1029A000303AD7B2092FF1D9EAE70A260024B44613
:1029B000F4E72DE9F04105460F46161E02DD0A46F2
:1029C000002108E04FF0200813F001041BD0002480
:1029D00022E00131013210780028FAD1B14206DA42
:1029E000761A13F0020F04D14FF02008ECE700260E
:1029F000F7E74FF03008E7E72B681B6841462846A9
:102A000098470134013E002EF6DC05E02B681B6878
:102A1000284698470134013739780029F6D106E075
:102A20002B681B684146284698470134013E002E1A
:102A3000F6DC2046BDE8F08170B584B00646DDF8CE
:102A400028C059B11D460B4615B10A2A11D00025E0
:102A500000218DF80D100DF10D0416E030238DF8D6
:102A600000308DF80110099B089A6946FFF7A1FF15
:102A700032E0002901DB0025EAE74B420125E7E7C8
:102A8000303104F8011DB3FBF2F34BB1B3FBF2F1AB
:102A900002FB11310929F3DDACF13A000144EFE703
:102AA0009DB1089B63B1099B13F0020F08D030461B
:102AB00033681B682D219847089B013B089304E06D
:102AC0002D2304F8013C013C0025099B089A21466E
:102AD0003046FFF76EFF284404B070BD08B50846C5
:102AE000FFF7C6FD08BDF0B585B0074616461D4682
:102AF0006846FFF703FF2B46324669463846FFF724
:102B000058FF05B0F0BD000070B588B006460C4611
:102B10000592002587E0A21C012391E00022217884
:102B2000A1F1300C5FFA8CFCBCF1090F06D802EB66
:102B30008202303901EB42020134F0E773291AD0E6
:102B4000642923D0782930D058293DD075294AD01E
:102B5000662957D0632965D10599081D0590096834
:102B60008DF81C1000218DF81D1007A93046FFF7C5
:102B700020FF054456E00599081D0590096801B934
:102B800035493046FFF715FF05444BE00599081D10
:102B900005900968612002900193009201230A22A6
:102BA0003046FFF749FF05443CE00599081D0590B4
:102BB00009686120029001930092002310223046A0
:102BC000FFF73AFF05442DE00599081D05900968B7
:102BD0004120029001930092002310223046FFF71B
:102BE0002BFF05441EE00599081D0590096861202A
:102BF00002900193009200230A223046FFF71CFF47
:102C000005440FE00599081D059009683046FFF757
:102C10006AFF054406E0144633681B682178304695
:102C200098470135013423789BB1252BF4D1621CE0
:102C3000637873B1252BEED02D2B3FF46CAF0023BE
:102C400014462278302A7FF469AF013443F002033E
:102C5000F7E7284608B070BDD09A00080FB400B559
:102C600083B004AA52F8041B054B0193009201A8FB
:102C7000FFF74AFF03B05DF804EB04B0704700BFF4
:102C80009CA100080EB400B582B003AA52F8041B40
:102C90000192FFF739FF02B05DF804EB03B0704713
:102CA000114B124A1360991C114A1160191D114AE7
:102CB0001160991D104A116003F108010F4A11605B
:102CC00003F10A010E4A116003F10C010D4A116073
:102CD00003F10E010C4A116003F110010B4A11605F
:102CE00012330B4A13607047340A0020300A002068
:102CF0002C0A0020280A0020240A0020200A002094
:102D00001C0A0020180A0020140A0020100A0020C3
:102D10000C0A002070B582B0334B93E8030002AB7D
:102D200003E903000025002D2CDD304C304A012141
:102D3000204604F064FC2F4A0121204604F068FC80
:102D40004FF480720121204604F01CFC4FF4806295
:102D50000121204604F00AFC78220121204604F0DB
:102D600067FC0121204604F019FC0121204604F0F3
:102D70001EFC0121204604F030FC1F4804F0AEF98F
:102D800002B070BDAE0002AB03EB850353F8084CF4
:102D9000204604F051F9204604F053F9204604F08F
:102DA00065F9204604F057F90121204604F02FF977
:102DB000204604F0F3F8204604F00CF9204604F015
:102DC0001CF92E440D4A02EB46020A21204604F06B
:102DD00057F9204604F08CF94FF46021204604F0A6
:102DE000EFF801359FE700BFA0A1000800000240F6
:102DF0004C240140340A002000240140240B002010
:102E0000884205DD914209DC90420ADD1046704798
:102E1000904206DC914203DD104670470846704739
:102E20000846704730B583B0046800250BE0228D5A
:102E3000A18A2088FFF7E4FF02AB03EB450323F8E8
:102E4000080C01353C34032DF1DDBDF80000BDF860
:102E500002301844BDF804301844BDF80630184458
:102E6000C0F38F0003B030BD08B50F4B98420BD0B4
:102E700003F58063984211D0A3F50063984205D111
:102E8000072903DCC8B204E0012903DD04F08EF851
:102E9000102008BDC9B20831C8B2FAE70529F5DC2F
:102EA000C9B20A31C8B2F4E7000C014070B505465A
:102EB0000E461446012393409BB200221146304631
:102EC00004F0F8FC2B68054A9B1A5D102146304639
:102ED000FFF7CAFFABB2024AD05470BD340A0020DB
:102EE000240B002008B5FFF7DBFE08BD08B504F091
:102EF00019FB00F5FF3000F2FF10800208BD2DE93C
:102F0000F043ADF2044DFFF7F1FF06460246002301
:102F10004FF0FF3503E052F8041B0D400133FF2B47
:102F2000F9DD04F0E3FA4FF480724FF0FF316846A8
:102F3000FFF775FC002400E001343E2C1AD8E7B2FC
:102F40003846FFF7ABF80028F6D13846FFF76EF8A1
:102F500080463846FFF79CF80DEBC40989F803005A
:102F6000B8F818202DF834203846FEF7F5FFC9F8D8
:102F70000400E1E7FE21684604F0C6FAFE9004F082
:102F800073FCB5F1FF3F01D100240AE0304604F0A4
:102F900027FCF9E75DF8241006EB840004F07EFCC2
:102FA0000134FF2CF6D904F06BFCFE980DF2044DB1
:102FB000BDE8F083F8B5FFF799FF064604F096FAEE
:102FC000FE21304604F0A0FAD6F8F833834201D14E
:102FD000002503E04FF0FF3019E001357E2D15D8B4
:102FE00036F83500FFF712F804464028F5D0FFF711
:102FF00055F80028F1D106EBC50779682046FEF7A1
:10300000DBFFF9782046FFF72DF8E6E70020F8BD52
:10301000014B1860704700BF400B00200D4B1B5C3C
:10302000B3B90D4B196899B10C4B1870DFF830C06B
:10303000DCF800300B4A02F8330002EBC3025160A7
:10304000044A012111540B4403F00F03CCF8003063
:10305000704700BF300B0020400B00203B0B0020CE
:103060003C0B0020E00700200F280AD8064B03EB9A
:10307000C0035B680BB918467047034B13F8300068
:1030800070470020704700BFE00700200F2801D9DB
:1030900000207047024B03EBC0035868704700BF25
:1030A000E007002008B5074B03EBC10292F804C00B
:1030B00053F83130044A52F82C2001460348FFF7F8
:1030C000CDFD08BDB4A10008A8A10008D89A000849
:1030D00010B50C4B5B680BB1002409E00A48FFF700
:1030E000BDFD0DE0074B13F83410FFF7DBFF013493
:1030F0000F2C05D8034B03EBC40358680028F1D10B
:1031000010BD00BFE0070020E89A000800B58BB0B2
:10311000104B01EB410203EB820C53F82220DCF848
:1031200004C001EB410103EB81039B68D0F8580216
:103130000021089107910693CDF814C004920391E1
:103140000291019100910B46012203F0E3FF0BB0C5
:1031500000BD00BF20A20008F0B583B004460D46B4
:1031600016461F4672B60121D0F8580204F0E5F861
:10317000019600970023B5F5006F34BF00220122AD
:103180002946D4F8580204F0DDF8002806DBD4F80C
:103190005432002B18DC62B603B0F0BDD4F85432C0
:1031A000132BF4DC03F1110204EB0212556097605B
:1031B000316804EB0312C2F81C117168C2F82011C7
:1031C0000133C4F85432E2E70121D4F8580204F084
:1031D000B0F8E0E7012801DD00207047014B53F80B
:1031E00020007047440B002030B58BB004460D46DC
:1031F0000AE09DF8213006AA0999204600F0B2FAAB
:1032000004F0CCFDC4F8F8000023059306AB04934A
:103210000DF12103039308AB02930DF122030193F7
:103220000DF12303009309AB0122E9B2D4F858024F
:1032300004F0FDF80028DCD10BB030BD30B583B010
:10324000044600F58A7504E0D4F85432013BC4F812
:103250005432D4F85432002B17DD03F18053013B74
:103260001A0105EB0313A9585A6808330193D2B227
:1032700000920023B1F5006F34BF00220122D4F880
:10328000580204F05FF80028DEDAD4F854320BB1AB
:1032900003B030BD0121D4F8580204F04EF8F7E72E
:1032A00070B584B00E4615461C461068B3F800C0D1
:1032B0005A889B88B4F806E05B019BB2520192B237
:1032C0004FEA4C1C1FFA8CF14FF0010CCDF808C0EE
:1032D00000EA0C0CCDF804C04FEA4E1C1FFA8CFC1F
:1032E000CDF800C004F008F8002333602A680132EA
:1032F0002A60E380A3806380238004B070BD70B532
:1033000084B00E4615461C461068B3F800C05A88B3
:103310009B88B4F806E05B019BB2520192B24FEA7F
:103320004C1C1FFA8CF14FF0010CCDF808C000EADC
:103330000C0CCDF804C04FEA4E1C1FFA8CFCCDF8E3
:1033400000C003F0C9FF002333602A6801322A60FD
:10335000A380238040F2FF73E380638004B070BDDC
:1033600070B582B00E4615461C4610681968C90033
:103370005A68D20001230093034042F0040241F056
:10338000040103F0C9FF002333602A6801322A6078
:103390006360236002B070BD30B58BB0054600237A
:1033A00008930993474906AA03C982E803000493D6
:1033B0000593039302930193D5F85822424B9A4206
:1033C0000AD0A3F58063D3F8003AC3F30523009332
:1033D0000024C2F81C4221E00023F8E704F11E0299
:1033E00005EB8202516871B3029A501C02900DF1F4
:1033F000280C0CEB420C2CF8103C023202920AAB67
:1034000003EB400020F8101C039B042B24D0029BEC
:10341000022B28D0019B022B2CD00134D5F8F4309C
:10342000A3422EDD05EB84035B68B3F5006FD5D3B3
:10343000019A23F060430AA901EB820141F8183C8C
:1034400001320192E0E7039A0AA901EB420121F857
:10345000083C01320392D7E708AB6A4603A9284625
:10346000FFF71EFFD3E706AB6A4602A92846FFF71F
:1034700046FFCFE704AB6A4601A92846FFF770FF75
:10348000CBE7039B002B07DC029B002B0BDC019B93
:10349000002B0FDC0BB030BD08AB6A4603A92846F1
:1034A000FFF7FEFEF0E706AB6A4601A92846FFF7E4
:1034B00026FFECE704AB6A4601A92846FFF750FF58
:1034C000E8E700BF5CA2000800640040F8B50446CD
:1034D0000D4616461F4600F0E3F8544B23600023C8
:1034E000C4F85432C4F85852514B9D422FD003F5C2
:1034F00080639D4258D1002F00F082804D4D2023E3
:1035000002220021284604F0D5F92021284604F0A3
:1035100006FA402302220321284604F0CBF940207A
:1035200004F048FFF021402004F050FF412004F057
:1035300041FFF021412004F049FF3F2004F03AFF11
:10354000F0213F2004F042FF3B4B5C602CE0002F59
:1035500041D0384D4FF4807302220021284604F0F8
:10356000A9F94FF48071284604F0D9F94FF400739B
:1035700002220321284604F09DF9142004F01AFFCA
:10358000F021142004F022FF152004F013FFF02195
:10359000152004F01BFF132004F00CFFF021132072
:1035A00004F014FF244B1C60D4F8580203F0A6FD6D
:1035B00031462046FFF7AAFD2046FFF7EDFE022127
:1035C000D4F8580203F0B5FE1021D4F8580203F0E5
:1035D000B0FE2046F8BD194D4FF4006302220021D1
:1035E000284604F067F94FF40061284604F097F983
:1035F0004FF4805302220321284604F05BF9BCE714
:103600000C4D4FF4805302220021284604F052F959
:103610004FF48051284604F082F94FF400530222FF
:103620000321284604F046F979E700BF14A20008F8
:1036300000640040000C0140440B002000080140E1
:1036400008B50020FFF7C6FD0021FFF7CDFD08BD3E
:1036500008B50020FFF7BEFD0121FFF7C5FD08BD3D
:1036600008B50020FFF7B6FDFFF7E8FD08BD08B577
:103670000120FFF7AFFD0021FFF7B6FD08BD08B53B
:103680000120FFF7A7FD0121FFF7AEFD08BD08B53A
:103690000120FFF79FFDFFF7D1FD08BD7047704780
:1036A000084B03600023C0F8F430C0F8FC3005E09C
:1036B00003F14002044940F822100133042BF7DDE6
:1036C000704700BF6CA2000864080020D0F8FC30EE
:1036D000042B01DD0020704703F1400240F8221066
:1036E0000133C0F8FC300120704710B51446D0F803
:1036F000F4201D2A0CDD002010BD01339A420ADDA2
:1037000000EB830CDCF804107145F6D10020F3E7E0
:103710008E460023F2E700EB8203C3F804E002F1D7
:103720001E0300EB83035C600132C0F8F4200368E1
:103730009B6898470120DFE738B505460024C0F8AC
:10374000F44003689B68984707E004F1400355F88C
:10375000230003685B6898470134D5F8FC30A34226
:10376000F3DC38BD2DE9F8430546894690461F46EF
:1037700000240AE004F1400355F8230003681E68A2
:103780003B4642464946B0470134D5F8FC00A042CA
:10379000F0DCBDE8F88370B5054600F1300634462C
:1037A0000BE034F8043BC3F3C02123F40063002290
:1037B00003EB41716868FFF798FFA31B242B02DC21
:1037C000A378322BEDD170BD2DE9F04182B00546D2
:1037D00000F108073E46F31B242B00F39380B378D7
:1037E000322B00F08F80002300930193B37803EB1A
:1037F0004304A40058342C441AE0C0F307231B04EC
:1038000043EA0063C0F3074243EA022343EA10633A
:10381000E2791F2A3DD8C2F11F0223FA02F2009B6F
:1038200013430093647A04EB4404A40058342C44FA
:10383000637AFF2B5DD0354B1B78002B62D120794A
:10384000FEF798FB0146206805F004FB804694F9DA
:10385000060005F0ABFA414605F0F4F905F0C0FCAE
:1038600094F908C08CEAEC71A1EBEC71C9B24FF08D
:10387000FF328A4020EA0200BCF1000FBDDBE27992
:103880001F2A20D9203A00FA02F2019B1343019328
:10389000C8E79444BCF11E0F07DDC2F13F0223FAD2
:1038A00002F2019B13430193BCE7A2F11F0003FA4C
:1038B00000F0009901430091C2F13F02D340019A08
:1038C0001A430192AEE702EB0C03202B05DC00FA51
:1038D00002F2009B13430093A4E700FA02F1009B5D
:1038E0000B430093C2F12002D040019B034301939C
:1038F00098E7686803685C6808236A4636F8041B22
:10390000A04768E702B0BDE8F08100BF4C0B002083
:1039100010B509B302F10C0E00EB8E0E0A2A46D840
:103920009EF80210322944D001EB410C4FEA8C0C76
:103930000CF1580C844400210C469CF80910FF2916
:1039400033D073B1013BDBB201EB41018900583147
:10395000644600EB010CF0E702F1020E00EB8E0E64
:10396000DCE72CB16172FF238CF8093001201FE0E5
:10397000322904D08EF80210F5E70133DBB2991832
:10398000092904DC0EEB830189783229F5D1013B4A
:10399000DBB20EEB830291788EF802103EF82330F2
:1039A000AEF8003032239370DDE7002000E0002005
:1039B00010BD0020FCE7F8B500F1080300263446EE
:1039C000354637463DBB1A462C46A2EB030CBCF1EC
:1039D000240F27DC92F802C0BCF1320F22D00CEB8E
:1039E0004C0E4FEA8E0E0EF1580E8644002609E06A
:1039F0000136F6B20CEB4C0C4FEA8C0C0CF1580C67
:103A000000EB0C0E9EF809C0BCF1FF0F06D0BEF80B
:103A100004E08E45ECD15DB10020F8BD0134E4B284
:103A20000432D2E700F130033D4601221746C9E7D0
:103A3000334622463946FFF76BFFEEE770B5144672
:103A40001E460023079A137000F10805002B46D18B
:103A50002A46531B242B3ADC92F802C0BCF1320FE9
:103A600035D00CEB4C0E4FEA8E0E0EF1580E8644FC
:103A700007E00CEB4C0C4FEA8C0C0CF1580C00EBF3
:103A80000C0E9EF809C0BCF1FF0F1ED0BEF804302A
:103A90008B42EED11388C3F3C022236023F400636A
:103AA000236043EA427323609EF8073033709EF927
:103AB0000820049B1A70DEF80020059B1A609EF90E
:103AC0000620069B1A70012070BD0432C1E7079BD7
:103AD0001B780122079D2A7000F13005B6E700200F
:103AE000F2E78446D9B102F10C0100EB81010A2A08
:103AF00027D88A78322A26D002EB42029200583226
:103B00000CEB0200427AFF2A19D063B1013BDBB211
:103B100002EB4202920058320CEB0200F2E7911CD9
:103B200000EB8101E3E70B88C3F3C02200990B602F
:103B300023F400630B6043EA42730B60704700207C
:103B4000704700207047002070472DE9F04385B092
:103B50000646884600F1080900273B462FE02B88DF
:103B6000C3F3C02C23F4006194F90830E279207982
:103B7000029794F906E0CDF804E0D4F800E0CDF81F
:103B800000E041EA4C71C047647A04EB4404A400AD
:103B900058343444637AFF2BE1D10435A5EB090393
:103BA000242B08DCAB78322B05D003EB4304A400B4
:103BB00058343444EEE706F130093B4601270BB98F
:103BC0004D46EBE705B0BDE8F083002306E001EBCE
:103BD00083024FF0320C82F802C00133092BF6DD6C
:103BE000002307E003EB430200EB8202FF2182F88F
:103BF00061100133322BF5DD704710B5044600F13A
:103C00000801FFF7E2FF04F130012046FFF7DDFF76
:103C10006068FFF791FD10BD2DE9F0410F46154694
:103C20001E460024A0460AE0286803F067FC804690
:103C300055F8041B07EB840003F030FE0134B44256
:103C4000F2DB4046BDE8F081084600E00430431A4C
:103C5000242B0ADC8378322B05D00388534033F4BD
:103C60000063F3D102E0002070470020704700009D
:103C70004B4B1B7803B170472DE9F04105461646C2
:103C80000A4600F13001FFF7DFFF002800F08580D1
:103C9000837803EB4304A40058342C4442E01F2BE8
:103CA00053D83068C0F30722120442EA0062C0F31E
:103CB000074742EA072242EA1062C3F11F03DBB260
:103CC00001208840013822FA03F3184005F06AF811
:103CD000074694F9060005F069F8394604F0B2FF8A
:103CE0000146206805F0B6F807462079FEF7D6F9B8
:103CF00020B12079FEF7D2F9012849D1B4F8048027
:103D00004FF08441384605F0A5F805F069FA014600
:103D10005FFA88F0FEF702F9647A04EB4404A40029
:103D200058342C44637AFF2B37D0E37994F9082078
:103D300082EAE271A1EBE271C9B2002AAFDB1F2B6C
:103D400018D97268203BDBB2BAE71A441F2A03DD98
:103D50007068203BDBB2A5E75B1ADBB20133DBB254
:103D60003068D8407268C3F120039A4010434B1E5C
:103D7000DBB297E71A44202A01DC3268A0E73268F8
:103D8000DA407068C3F1200398400243002397E7AC
:103D900039462079FEF716F9BEE7BDE8F08100BF8D
:103DA0004C0B00202DE9F8439DF820709DF924600C
:103DB000002E76D004460D469146984686EAE67374
:103DC000A3EBE673DBB2202B6ED8002E0BDDBB1904
:103DD000402B6CDC424629462046FFF735FF8446DF
:103DE00058B100221BE03F2F64D87BB23344B3F1BB
:103DF000FF3FEFDA6FF0010051E00021092907DCF5
:103E000005EB81039A78322A01D00131F6E79C460E
:103E1000BCF1000F51D0ACF80080E2E70132312A4A
:103E200007DC02EB420304EB830393F86130FF2BC2
:103E3000F4D1322A44D09CF8023000210AE003EB8E
:103E4000430189005831214403EB430304EB83030E
:103E500093F86130322BF2D102EB420304EB83047E
:103E6000A4F85C900A9BA3659DF92C3084F85E3021
:103E700084F85F7084F86060322384F8613019B18F
:103E80004A722B46002004E08CF80220F9E701304A
:103E900004335A1B242A02DC9A78322AF7D1BDE86F
:103EA000F8836FF00200FAE76FF00200F7E76FF0B7
:103EB0000100F4E76FF00100F1E76FF00300EEE7B7
:103EC0006FF00400EBE7B2F5006F16D200B585B0D5
:103ED0009DF920C0CDF80CC0DDF81CC0CDF808C09D
:103EE0009DF918C0CDF804C0009313460A4600F1AE
:103EF0000801FFF757FF05B000BD4FF0FF307047D6
:103F000070B584B005461446C2F3407022F00052EA
:103F1000B2F5006F1DD29DF928C0CDF80CC0DDF8B8
:103F200024C0CDF808C09DF920C0CDF804C000938E
:103F300042EAC0230A4605F130012846FFF732FF66
:103F40000646002221466868FFF7CFFB304604B0E2
:103F500070BD4FF0FF331E46F8E72DE9F04F89B0F2
:103F60008346059206938A46079131E0B4F9020030
:103F700004F01CFF002303930290CDF80480009509
:103F80003B46049A05993046FFF70CFF0634A4EB34
:103F900009032A2B1ADC94F90530002B16DD208842
:103FA000FEF734F80490DBF80060BAF80070257969
:103FB00094F90580069B002BD8D0B4F9020004F0D8
:103FC000F5FE4FF0745104F045FFD3E70AF1320AD1
:103FD000079BAAEB0303B3F5E17F0ADCBAF80010F4
:103FE0004FF6FF73994204D00AF102052C46A94608
:103FF000CDE709B0BDE8F08F08B503F093FA00F5FE
:10400000FF3000F5FF70800208BD70B582B0064633
:104010000190FFF7F1FF0446D0F8E85303F066FA89
:10402000FA21204603F070FA854202D0002002B047
:1040300070BD01AD00233246083221462846FFF705
:104040008CFF01233246303204F5FA712846FFF71F
:1040500084FF0120EBE7F8B505460F460E460EE05B
:104060002079FDF7E3FF038BA380647A04EB44041B
:10407000A40058342C44637AFF2BF1D10436F31B8F
:10408000242B08DCB378322B05D003EB4304A400C7
:1040900058342C44EFE7F8BDF8B505460F460E46F8
:1040A0000DE0A088FDF7B2FFA080647A04EB440421
:1040B000A40058342C44637AFF2BF2D10436F31B4E
:1040C000242B08DCB378322B05D003EB4304A40087
:1040D00058342C44EFE7F8BDF0B583B00546FFF740
:1040E0008BFF064602462A4B0121197000234FF030
:1040F000FF3403E052F8041B0C400133FF2BF9DDC1
:1041000003F0F4F903F0B0FB022003F0A3FBB4F1D9
:10411000FF3F38D105F1080739462846FFF79BFFD6
:1041200005F1300421462846FFF795FF0A233A4659
:1041300031462846FFF770FD0A23224606F1280182
:104140002846FFF769FD0190962305F1580206F114
:1041500050012846FFF760FD0190012301AA06F5F2
:104160002D712846FFF758FD03F08AFB3946284693
:10417000FFF792FF21462846FFF78EFF044B0022EF
:104180001A7003B0F0BD304603F02AFBC2E700BF4F
:104190004C0B0020F8B50646FFF72EFF0446D0F87A
:1041A000B45203F0A3F9AA21204603F0ADF98542E9
:1041B00003D03046FFF729FFF8BD06F108070A22B1
:1041C00021463846FEF720FB06F130050A2204F1AD
:1041D00028012846FEF718FB962204F1500106F14B
:1041E0005800FEF711FB39463046FFF755FF2946C8
:1041F0003046FFF751FF0120DEE7000038B50446E6
:10420000084615460D4B23600D4B23606160214627
:10421000FFF75CFA04F108012046FFF7D6FC04F131
:1042200030012046FFF7D1FC25B92046FFF7B3FA4D
:10423000204638BD2046FFF7ADFFF6E77C92000828
:1042400090A20008036ED3B14FF47A73036604E0C2
:10425000036E002B07DD01233BB1826DC36D9A42D3
:10426000F6D00023F8E70023F6E7836D5A1C826539
:1042700003F03F03034419764FF0FF334361704767
:10428000A0F10400FFF7DEBF10B50446017C002258
:1042900001F5C0618068FFF728FA617C3F2900D9E9
:1042A00010BD002201F5B061A068FFF71EFAF7E724
:1042B00010B504460846144B2360144B6360144B3E
:1042C000236014336360A160E26001232374FF2341
:1042D00063744FF0FF3363610023A3654022E265FE
:1042E0004FF47A71216684F86420A36684F87830EC
:1042F000E36784F888302146FFF7E8F92046FFF7A6
:10430000C3FF204610BD00BF7C920008A4A0000897
:10431000A0A2000808B501748068FFF70DFA08BD77
:1043200010B582B004468DF80010ADF801309DF84C
:1043300010308DF80330059B0193437C93420DD1DF
:10434000002384F87830A068617C03685C680823E7
:104350006A4601F5C061A04702B010BD4274806892
:10436000FFF7EAF9ECE738B504460A468068217C95
:1043700003685D68082301F5B061A847002384F84D
:10438000883038BDB1F8012045F201039A4211D0BE
:10439000012380F888300B7880F88030B1F8013044
:1043A000A0F88130CB7880F883304B68C0F8843037
:1043B000002070470B78402B01D0002070474FF051
:1043C000FF330B714B7100238B71CB7141220A704B
:1043D0004FF47A72026683654023C365CB784361EC
:1043E000012070472DE9F04184B007460C46B1F832
:1043F0000120C2F3C0131E46CD7825B1013D05EB67
:10440000D575C5F3470503AB00932B4602F03F0279
:104410003146F868FFF765FB80462378402B0DD0C6
:10442000232B3DD08023237000232371637102234B
:10443000A3710623E37104B0BDE8F08130B30079C5
:10444000FDF7F4FD028BE37823B9039B63604323FC
:104450002370F0E713F0010F09D098F8073042EA13
:10446000034298F9083042EA03626260EFE71549B7
:10447000D8F8000004F0EEFC04F0B2FE20F07F4318
:1044800098F9062043EA02636360E0E78023237023
:104490000023237163710223A3710623E371CAE72A
:1044A0000028BFD06368002BBCD1B4F801202B4694
:1044B00002F03F023146F868FFF72AFA60232370C2
:1044C000B9E700BF00007A440B78232B00D0704777
:1044D0002DE9F04184B005460C461646CB7883B9E9
:1044E0004B68B3F1005F04D323F00052B2F5006FC4
:1044F00003D2AB666023237019E04FF0FF3383666D
:104500000CE0826E1746B2F1FF3F01D0012B11D0B3
:1045100095F9742090460AB1022B1DD08023237098
:104520000023237163710223A3710623E37104B096
:10453000BDE8F081486880B2FDF768FDA5F870001D
:104540006368C3F3054385F8733063681B1685F809
:1045500074303E28CED9E1E7606840F3170004F0DC
:1045600025FC154904F02AFDE86663681B1685F8EA
:104570007230A6B102930190CDF8008095F87330A7
:104580003A4695F87010E868FFF7BAFC002385F802
:1045900074304FF0FF33AB660028ABDABEE702930E
:1045A0000190CDF8008095F873303A4695F8701078
:1045B000E868FFF788FCE9E700007A4438B504466C
:1045C0000D460A7802F06003602B31D0B1F801305B
:1045D000B3F5005F5AD003F47F40B0F5045F55D0C7
:1045E000E16819B1B3F5405F00F0858021B143F275
:1045F000010C634500F0858019B1B0F5445F00F00F
:10460000868045F203018B4200F0868045F204016A
:104610008B4240F09B80402A00F0918080232B70D9
:1046200000232B716B710223AB710623EB7119E030
:1046300002F010020A700122072A0EDCE36DA16D60
:104640005B1A402B09D0E36D591CE16503F03F0371
:1046500023441B7EAB540132EEE7E36DA16D5B1A80
:10466000402B09D0A068217C03685C6808232A4697
:1046700001F5B061A04738BD2B7843F001032B70E2
:10468000C2F1080243EA42032B70EBE7E87803F437
:104690007F42B2F5045F0CD03E2822D82B78232B22
:1046A0000DD0402BDED1FDF757FC686043232B7003
:1046B000D8E71B029BB21844FDF7A8FCECE7696839
:1046C000FDF72CFC10B960232B70CBE780232B70F7
:1046D00030232B7100236B710923AB710623EB711F
:1046E000C0E780232B7000232B716B710223AB7109
:1046F0000623EB71B6E7002229462046FFF7E4FEC9
:10470000B0E7012229462046FFF7DEFEAAE7294648
:104710002046FFF767FEA5E7402A09D080232B70CB
:1047200000232B716B710223AB710623EB7199E7A8
:10473000E878FEF799FC686043232B7092E7E878ED
:10474000FEF7A4FC686043232B708BE729462046C4
:10475000FFF718FE002885D18DE70000F0B583B083
:1047600004461546037C03F5C0638B4207D0437CA7
:104770001E4603F5B0638B4205D003B0F0BD114671
:10478000FFF71CFFF9E7B2F801301F46A3F54053CD
:104790009BB2012B08D92B78803B18BF012384F8EA
:1047A00078306B68E367E8E7D378ABB1012BF2D1DF
:1047B0001349C06E04F04EFB04F012FD94F9723000
:1047C00040EA03630193022300933B4632462321D0
:1047D0002046FFF7A5FDDEE7B0F8703090F87320B3
:1047E00043EA024390F9742043EA026301930123F0
:1047F00000933B4632462321FFF792FDCBE700BFF3
:1048000000007A4410B50446B0F80130B3F5A04F6B
:104810000DD045F20202934234D08023237000234E
:10482000237163710223A3710623E37110BD027823
:10483000402AEED143230370C378022B13D007D84C
:1048400063B1012B14D12E4BD3F8EC374360EDE765
:10485000032B0DD1FDF72CFC6060E7E7284BD3F864
:10486000E8374360E2E7264BD3F8F0374360DDE7F3
:10487000802323700023237163710223A371062315
:10488000E371D3E72378232BC7D160232370E37828
:10489000012B21D009D9022B26D0032B26D1FDF7DD
:1048A000CDFB3F20FCF7BEFDC0E7FBB9154B1B78E5
:1048B0004BB172B6144B186808B1FFF70DFCFEF748
:1048C0001EFB62B6B2E7802323700023237163715D
:1048D000A3710823E371A9E772B6FEF76BFB62B61A
:1048E0003F20FCF79FFDA1E703F05CFD80232370D0
:1048F0000023237163710223A3710623E37195E7FB
:1049000000F0FF1F68080020500B00202DE9F04147
:1049100084B00E46174698469DF83040FDF786FB5A
:1049200043681D461449154B1868FEF7ABF9ECB106
:104930001349124B1868FEF7A5F94FF084410A9805
:1049400004F088FA0D4B1C689DF92C30039304F099
:1049500047FC0290CDF80480009733462A46094967
:104960002046FEF78FF904B0BDE8F0810649034BFD
:104970001868FEF787F9E0E7AC9C0008580B0020A8
:10498000B49C0008BC9C0008B89C000870B50546A3
:104990000846FDF70DFF06462021FDF7BDFE037812
:1049A000A3B1002300F8013B0521FDF7D4FF044625
:1049B0003046FDF717FB402812D02146FDF7AEFA2E
:1049C00048B90A492846FEF75DF903E00849284638
:1049D000FEF758F970BD07492846FEF753F9F9E785
:1049E000324605492846FEF74DF9F3E7EC9C0008EE
:1049F000D09C0008F89C0008109D0008F8B50746F8
:104A00000846FDF7D5FE054609E02A460F49384617
:104A1000FEF738F9254605F8016B2C2E14D12C2110
:104A20002846FDF779FE04460678002303702846E1
:104A3000FDF7D8FA4028E8D0FDF78EFA024604497F
:104A40003846FEF71FF9E5E7F8BD00BF309D0008C6
:104A5000289D00082DE9F04106460846FDF7A8FE0E
:104A600007462021FDF758FE03789BB10446054612
:104A7000002305F8013B3846FDF7B4FA804640288C
:104A800029D06378212B0AD07E2B08D02F2B06D07B
:104A9000002406E013493046FEF7F4F80FE0A51CA9
:104AA000012429461048FDF719FE50B974B10121BF
:104AB0004046FDF7E5FA0D493046FEF7E3F8BDE85C
:104AC000F0810B493046FEF7DDF8F8E7012140465A
:104AD000FDF7CEFAEFE73A4606493046FEF7D2F840
:104AE000EDE700BF4C9D00085C9D0008749D000828
:104AF000649D0008109D00082DE9F04F8BB007461B
:104B00000846FDF755FE0378059346493846FEF7FB
:104B1000B9F800264FF0200822E0434A039202939E
:104B20000190CDF800A04B46424640493846FEF77A
:104B3000A9F82846FDF7B2FA20B12846FDF7AEFAEB
:104B400001285AD1E26823696169206802960190C0
:104B5000009137493846FEF795F84FF02C0801369A
:104B60003E2E51D8F5B22846FDF760FA0446284695
:104B7000FDF78EFA10F0010F02D0059B682BEED1E5
:104B8000D4F80490D4F808A0B4F818B02846FDF77B
:104B9000E3F90290CDF804B0CDF800A04B464246B0
:104BA00024493846FEF76EF80DF11F0303930DF10B
:104BB0001E03029309AB01930DF11D03009307AB94
:104BC00008AA29461C480068FEF738FF0028B0D024
:104BD000DDF820809DF81C909DF91DA04FF08441C8
:104BE000099804F037F904F0FBFA9DF91E309DF89E
:104BF0001F20002A91D0114A90E711493846FEF74C
:104C000041F84FF02C08AAE70E4BD3F8F0270E49D5
:104C10003846FEF737F80D493846FEF733F80BB043
:104C2000BDE8F08F989D0008909D0008CC9D00087D
:104C3000309E00089C9D0008540B0020889D0008B1
:104C40001C9E000800F0FF1F809E0008BC9E00080C
:104C50002DE9F0478AB00746002305930693079392
:104C6000089309930846FDF7A3FD0478702C38D00B
:104C7000632C44D02021FDF74FFD0378002B47D053
:104C8000FDF796FD06462021FDF746FD03780BB99A
:104C9000642C44D10546002305F8013B3046FDF75E
:104CA000A1F9064681462846FDF782FD8046402E42
:104CB0003AD0642C3DD000231D464FF07E539A46D7
:104CC000042D62DC20214046FDF726FD06460378D0
:104CD000002B39D1022D37DC59493846FDF7D2FF78
:104CE0001AE0584B1B68002BFBD1564C27605649E5
:104CF000564B1868FEF729FF002323600CE0534B46
:104D00001868FEF77AFF52493846FDF7BBFF03E00B
:104D10004B493846FDF7B6FF0AB0BDE8F087484971
:104D20003846FDF7AFFFF7E74A493846FDF7AAFFD7
:104D3000F2E73146454B1868FEF73DFE024646490C
:104D40003846FDF79FFFE7E7002333704046FDF745
:104D500016FD032D0DD00AAB03EB850343F8140CAD
:104D600030460130FDF724FD80462B4601331D46B9
:104D7000A6E710214046FDF7EEFD04F017F84FF0CE
:104D80005E5104F067F88246EAE7742C1FD09DF963
:104D900024300293CDF804A09DF91C3000939DF8B7
:104DA0001830059A494629480068FFF7A9F810F11C
:104DB000030F2ED01CDD10F1020F24D0B0F1FF3F05
:104DC00033D1059A25493846FDF75CFFA4E79DF9E4
:104DD00024300293CDF804A09DF91C3000939DF877
:104DE0001830059A494619480068FFF76CF8DEE765
:104DF00010F1050F13D010F1040F16D118493846E1
:104E0000FDF740FF88E7069A16493846FDF73AFF56
:104E100082E7079A14493846FDF734FF7CE7059A84
:104E200012493846FDF72EFF76E7012806DD104BC4
:104E3000024610493846FDF725FF6DE70E4BF7E7B0
:104E4000EC9E0008580B00200D490008540B002070
:104E5000C89E0008009F0008149F00082C9F0008AF
:104E6000909F0008409F0008549F0008689F00081A
:104E7000C49E0008AC9F0008849D000810B50D4B2F
:104E80001B7893B1044672B60B4B1868FFF724F9F0
:104E90000A492046FDF7F6FEFEF731F8024662B6F3
:104EA00007492046FDF7EEFE10BD0649FDF7EAFE74
:104EB000FAE700BF69080020540B0020D89F0008C3
:104EC000E89F000804A0000810B5044672B6FEF77B
:104ED00071F862B638B93F20FCF7A4FA04492046BD
:104EE000FDF7D0FE10BD03492046FDF7CBFEF9E7E4
:104EF00048A000085CA0000808B503F053FA2DE9AB
:104F0000F843054688461746002604E023782C2BF4
:104F100016D1BE4214D22C212846FDF7FDFB0446D3
:104F200090F80090002303702846FDF75BF82546B3
:104F300005F8019B4028E9D008F806000136E5E7AE
:104F40003046BDE8F88300002DE9F04184B0064604
:104F50000846FDF72DFC0446FDF711FC8046202194
:104F60002046FDF7D9FB03784BB10A2201A9013095
:104F7000FFF7C5FF07463046FDF7A8F820E01849BF
:104F80003046FDF77FFE04B0BDE8F08104F1100368
:104F90006B4413F80C0CFCF7DFFF03462A4611495B
:104FA0003046FDF76FFE01340F4DBC42EEDB0F497A
:104FB0003046FDF767FEB8F1FF3F01D008F1FF383A
:104FC0003046FDF77DF80028DDD1804502DD084D33
:104FD0000024EAE7B8F1FF3FD5D1054D0024E4E70E
:104FE00074A0000894A00008C89D000844A0000810
:104FF000849D000808B5042856D019DC02282FD05B
:1050000003283FD0012811D1394B3A4A1A603A4B54
:105010003A4A1A603A4B3B4A1A6014203A4B1860DD
:10502000FCF7A0FF394B1860012008BD0020FCE709
:1050300005284BD0062811D12D4B354A1A602E4B2E
:10504000344A1A602E4B344A1A6012202E4B1860D4
:10505000FCF788FF2D4B18600120E6E70020E4E70D
:10506000234B2E4A1A60244B2D4A1A60244B2D4A9A
:105070001A601520244B1860FCF774FF234B18604E
:105080000120D2E71A4B284A1A601B4B274A1A60A4
:105090001B4B274A1A6010201B4B1860FCF762FF5D
:1050A0001A4B18600120C0E7114B224A1A60124BBC
:1050B000214A1A60124B214A1A601120124B1860C3
:1050C000FCF750FF114B18600120AEE7084B1C4A5B
:1050D0001A60094B1B4A1A60094B1B4A1A601320BD
:1050E000094B1860FCF73EFF084B186001209CE755
:1050F000640B002038090020600B002028090020E4
:105100005C0B002030090020980B00209C0B002035
:10511000500900204009002048090020E80900202B
:10512000D8090020E0090020F80900209809002093
:10513000A0090020900900207009002078090020B3
:1051400068090020580900206009002070B500247B
:105150000FE0174B1B689988186802F0E2FB154BAB
:105160001B689988186802F0DAFB134B00221A704A
:105170002C46052C1BDC651C2846FFF73BFFB0B115
:105180000E4B53F82430002BE3DD094E3368998829
:10519000186802F0CCFB3068FCF7DCF80028E7D098
:1051A000064A52F82430013B42F82430E0E770BD53
:1051B0005C0B0020600B00207C0B0020800B00208B
:1051C0002DE9F04104460D46FFF714FF48B1274B87
:1051D0001B7833B9631E1A461E46254B53F82230FE
:1051E0000BB1BDE8F081234B1878FCF7BBFE0746F6
:1051F000C4B2FF220021284601F082F88046C3B2E3
:105200001D469C4219D3AC42EBD91B4B1B689988B5
:10521000186802F086FB194B1B689988186802F021
:1052200080FB5FFA88F1FBB25B1A114A42F8263024
:10523000104B1878FCF7B8FED3E70F4B1B68998822
:10524000186802F06EFB0D4B1B689988186802F015
:1052500066FB5FFA88F1FBB2CB1A054A42F82630AA
:10526000044B1878FCF7A0FECDE700BF7C0B0020B4
:10527000800B0020980B0020600B0020640B0020A6
:10528000F8B5134B01221A700024052C1EDC651C96
:105290002846FFF7AFFEC8B10E4F002647F824603E
:1052A0000D4B1B689988186802F03BFB0B4B1B6881
:1052B0009988186802F035FBFF2347F824303146FF
:1052C000074B1878FCF770FE2C46DEE7F8BD00BFF0
:1052D0007C0B0020800B0020600B0020640B002062
:1052E000980B002008B5054B9988186802F017FB49
:1052F00000211620FCF758FE08BD00BF0809002059
:1053000008B5054B9988186802F00BFB012116209F
:10531000FCF74AFE08BD00BF0809002008B5094B8C
:105320001B784BB90146052809D8074B18600B209C
:10533000FCF73AFE002008BD4FF0FF30FBE74FF0CE
:10534000FF30F8E7700B0020780B0020F8B55C4BBD
:105350001E68304603F08AFF0546022401231F46DB
:1053600000E00134052C0ADC564B53F82400301AB7
:1053700003F07CFF8542F4DD05462746F1E7524BFA
:105380001F60524B1B7833BB514B1B68002B42D024
:105390004C4A52F82340A41B204603F067FF0A281A
:1053A0007DDD02F0FBFC4B4B1B68B34244D0494B04
:1053B0001E60494B1860002C63DD484B01221A70B7
:1053C000474B9988186802F0AAFA464B99881868E2
:1053D00002F0A7FA2FE002F0E1FC3E4B1B68B3425B
:1053E00004D03C4B1E603C4B186024E03A4B1B68D9
:1053F000C01A63281FD93A4B9988186802F091FAAD
:10540000384B9988186802F08CFA00232C4A1360F4
:105410002E4A13700FE0324B9988186802F081FA17
:10542000304B9988186802F07CFA2A4B1E6002F013
:10543000B5FC294B1860F8BD274B1B68C01A6328C0
:10544000B9D9274B9988186802F06BFA254B9988CF
:10545000186802F066FA1E4B1B68012B06D0052B5C
:105460000BD1174B40F2B6321A6002E0144B002207
:105470001A60174B00221A60DDE70A20FDF7CEFD07
:10548000F7E7164B00221A70154B9988186802F03E
:1054900048FA144B9988186802F041FACBE7104B90
:1054A0009988186802F03DFA0E4B9988186802F046
:1054B00038FA084B1E6002F071FC074B1860BAE71F
:1054C000AC080020B8A20008740B0020700B00206C
:1054D000780B0020680B00206C0B00206A0800206D
:1054E0008809002080090020014B1868704700BF20
:1054F000740B002008B50D4B01221A7000230C4AD2
:1055000013600C4A13700C4B9988186802F009FA62
:105510000A4B9988186802F002FA02F03FFC084B27
:105520001860084B1A68084B1A6008BD700B002001
:10553000780B00206A0800208809002080090020DC
:105540006C0B0020AC080020680B0020CBB203EBF2
:105550001123002203E0815C0B449BB20132062A36
:10556000F9DDD8B27047000008B559B10122824078
:1055700009490B7813430B70074B19783020FCF75F
:1055800013FD08BD01238340DB435BB202490A7867
:1055900013400B70F0E700BFAE0B002030B583B0B6
:1055A00005460820FCF7DEFC04462D20FCF7DAFC5B
:1055B0008DF8000003128DF801308DF8024024129E
:1055C0008DF8034000238DF80430984211DD01234B
:1055D0008DF8053000238DF806308DF807302B68E4
:1055E0005C6808236A4640F2A1212846A04703B020
:1055F00030BD0023ECE7000010B504460920FCF79D
:10560000B1FC01280ED002280ED002F0C7FB95286D
:105610000CD9094B53F8243053B1C01A322809D998
:10562000012002E0012000E0002010BD0020FCE786
:105630000120FAE70020F8E7B00B002030B583B076
:1056400004460120FFF7D8FF054668B140F2FF137A
:10565000009300230193204623685B681C460223C5
:105660006A4640F2D121A04729460120FFF77CFF7E
:1056700003B030BD30B583B0044689238DF80030C7
:1056800042238DF8013072238DF8023085238DF886
:10569000033001238DF804302C238DF80530144B92
:1056A0001B781B0143F002038DF8063040F2A13154
:1056B0006846FFF74BFF8DF807000320FFF79CFFBC
:1056C000054640B1204623685B681C4608236A46AD
:1056D00040F2A131A04729460320FFF745FF044AC5
:1056E0001378013303F00F03137003B030BD00BF14
:1056F000AB0B002030B583B004460220FFF77CFFDF
:10570000054668B1094B6A4693E80300CDE90001FC
:10571000204623685B681C46082340F22131A047DD
:1057200029460220FFF720FF03B030BDDCA20008AD
:1057300030B583B00546002300930193274B1B78B7
:10574000A3BB41238DF8003001238DF801300523E0
:105750008DF80230224B1B781B018DF8063040F289
:1057600021216846FFF7F2FE8DF807000020FFF7C1
:1057700043FF044640B128462B685B689C460823DB
:105780006A4640F22121E04721460020FFF7ECFE67
:10579000124A1378B3FA83F35B091370104A137833
:1057A000013303F00F03137003B030BD40238DF8B5
:1057B000003041238DF8013005238DF80230152388
:1057C0008DF8033050238DF80530054B1B781B01F5
:1057D00043F001038DF80630C1E700BFAD0B002098
:1057E000AC0B002030B583B005462D4B1B78002B49
:1057F0003CD103238DF8003019238DF80130642249
:105800008DF8022032228DF803208DF80430002319
:105810008DF80530234B1B781B018DF8063040F2C4
:1058200045516846FFF792FE8DF807000420FFF708
:10583000E3FE044640B128462B685B689C4608237B
:105840006A4640F24551E04721460420FFF78CFEAE
:10585000134A1378B3FA83F35B091370114A137870
:10586000013303F00F03137003B030BD14238DF820
:10587000003000238DF801303F238DF80230702373
:105880008DF803309F238DF8043001238DF8053007
:10589000044B1B781B0143F00A038DF80630BEE76A
:1058A000AA0B0020A90B00202DE9F843044602F0C2
:1058B00075FA304B186021786078030203F4E063D6
:1058C0001943A278530103F4787343EAD007E578CB
:1058D000ED0045EA521520796279130203F48073D2
:1058E00040EA0308A379DB0103F4F06343EA5209B9
:1058F000E67906F00F0601EB810149002C20FCF748
:1059000053FB384603F052FA1B4903F0A3FA014651
:105910002E20FCF757FB404603F048FA164903F0E7
:1059200099FA01463420FCF74DFB484603F03EFA55
:105930004FF07C5103F08EFA01463320FCF742FB16
:1059400031463120FCF730FBE179C9093220FCF700
:105950002BFB05EB850569002F20FCF725FB032EAB
:1059600003D00F2E01D0BDE8F8830220FDF756FBCF
:10597000F9E700BFC80B0020CDCCCC3D03780A2B43
:1059800000D0704710B504460379417943EA0121FC
:105990003520FCF709FBA379E17943EA01213620A0
:1059A000FCF702FB10BD000010B50446417837201B
:1059B000FCF7FAFA617928393820FCF7F5FAA17971
:1059C00028393920FCF7F0FA637813F0010F03D17E
:1059D000094B00221A6010BD02F0E0F9064B1B686B
:1059E00013B9054B1860F6E7C01A6428F3D90120F3
:1059F000FDF714FBEFE700BFC40B002010B5002437
:105A0000042C0BDC064B33F81430834201D00134F4
:105A1000F6E702F0C3F9034B43F8240010BD00BFC2
:105A2000D0A20008B00B002010B50446124B1B6832
:105A300083B92046FFF7B2FD2046FFF7FFFD204661
:105A4000FFF718FE0D4A13780133DBB21370092BF0
:105A50000BD810BD02F0A2F9074B1B68C01A312801
:105A6000E7D90120FDF7DAFAE3E7134600221A70BE
:105A70002046FFF73FFEECE7C80B0020A80B0020F4
:105A800010B50446FFF754FE2046FFF7ABFE10BDED
:105A900008B56422002100F033FC00EB80004100D7
:105AA0002D20FCF781FA08BD10B5044601462720D9
:105AB000FCF77AFA64220021204600F021FC4CF227
:105AC000503300220249C0B200F024FC10BD00BFD8
:105AD0000008004010B5044601462920FCF764FA8E
:105AE00064220021204600F00BFC4CF250330222CD
:105AF0000249C0B200F00EFC10BD00BF000800401B
:105B000008B5074B1B6843B1054B186803F04AF909
:105B10000146044803F052FA08BD0020FCE700BF2C
:105B2000A8080020C0E1E44B08B5074B1B6843B14F
:105B3000054B186803F036F90146044803F03EFAB5
:105B400008BD0020FCE700BFA4080020C0E1E44B32
:105B500010B502F023F90446164B1B7823B1154B00
:105B600000221A70144B1860144B1B7823B1134B8E
:105B700000221A70124B1C602720FCF7F3F905284D
:105B800004DD0D4B1B68E31AC72B0AD82920FCF74C
:105B9000E9F9052804DD0A4B1B68E41AC72C04D870
:105BA00010BD0820FDF73AFAF0E70920FDF736FAB4
:105BB000F6E700BFA2080020A40B0020A1080020E7
:105BC000A00B002010B504460A4903F0F5FA50B9BD
:105BD0000949204603F0F0FA38B90849204603F095
:105BE000EBFA20B910BD0320FCE70220FAE7012000
:105BF000F8E700BF0000E4410000B0410000384178
:105C000008B5022300221146074801F053FE074859
:105C100001F064FA054801F023FA0028FAD003489D
:105C200001F022FA80B208BD000C014000280140BA
:105C300010B50446022300221946074801F03AFE37
:105C400024B10221044801F06AFE10BD022102487D
:105C500001F067FEF9E700BF000C01400000000002
:105C600038B500242C4D22462B462C4800F0B2FCBF
:105C700022462B462A4800F0ADFC22462B462948F6
:105C800000F0A8FC22462B46274800F0A3FC224641
:105C90002B46264800F09EFC22462B46244800F066
:105CA00099FC22462B46234800F094FC22462B46C2
:105CB000214800F08FFC16A3D3E900231F4800F011
:105CC00089FC22462B461E4800F084FC22462B46C7
:105CD0001C4800F07FFC22462B461B4800F07AFC53
:105CE00022462B46194800F075FC22462B461848E0
:105CF00000F070FC22462B46164800F06BFC224652
:105D00002B46154800F066FC38BD00BFAFF300809D
:105D1000333333333333D33F0000E03F480D0020AB
:105D2000300D0020180D0020000D0020E80C002090
:105D3000D00C0020B80C0020A00C0020880C002003
:105D4000700C0020580C0020400C0020280C002073
:105D5000100C0020F80B0020E00B002038B502F0FA
:105D60001DF80446304B1B78012B0BD0022B17D0AB
:105D70003BB91846FFF75CFF2C4B1C602A4B0122F5
:105D80001A7038BD294B1B68C31A632BF9D901203F
:105D9000FFF74EFF254B1C60234B02221A70F0E7E1
:105DA000FFF72EFF214B1B68E31A1A461D4640F2EF
:105DB000DB53984201D8632A31D90020FFF738FF1E
:105DC0001A4B1C60184B01221A70284602F0EAFF99
:105DD000174903F03FF8174903F0F0F8164903F0AC
:105DE00039F8164903F036F802F06CFC02460B460F
:105DF000134800F000FC02F0CFFE0546FFF7E2FE7C
:105E0000044629462120FCF7DDF821462020FCF736
:105E1000CBF8012CB5D80720FDF700F9B1E7012038
:105E2000FFF706FFADE700BFD40B0020D00B00202A
:105E30000AD7233C00401C460024744985EB513F9F
:105E4000880C00202DE9F04F87B0B348FCF7EAFF3B
:105E5000039002F0A7FF0746B048FCF7E3FF049069
:105E600002F0A0FF8146AE48FCF7DCFF059002F08F
:105E700099FF834600264FF08B45DFF8A882AA4C95
:105E80002368009333462A464146384600F01CFA00
:105E90008246A64F3B68009333462A46A4494846AB
:105EA00000F012FA81462368009333462A464146A1
:105EB000584600F009FA0546206803F091F90646B5
:105EC000504603F08DF93246002100F019FA02F035
:105ED0006DFF0646386803F083F90746484603F02D
:105EE0007FF93A46002100F00BFA02F05FFF074607
:105EF000206803F075F90446284603F071F922463C
:105F0000002100F0FDF902F051FF0446304602F096
:105F1000D9FB02460B46874800F06DFB02F03CFEC1
:105F200001461720FCF74EF8384602F0CBFB02463C
:105F30000B46814800F05FFB02F02EFE0146182060
:105F4000FCF740F8204602F0BDFB02460B467B48BA
:105F500000F051FB02F020FE01461920FCF732F858
:105F60007748FCF75FFF042100F0C2FA0446754849
:105F7000FCF758FF042100F0BBFA05467248FCF715
:105F800051FF042100F0B4FA80467048FCF74AFF44
:105F9000062100F0ADFA82466D48FCF743FF06216A
:105FA00000F0A6FA83466B48FCF73CFF062100F0A0
:105FB0009FFA8146204602F085FB02460B46664862
:105FC00000F019FB06460F46644B186802F07AFB96
:105FD00002460B463046394602F014FA02F0DCFD68
:105FE00001461A20FBF7EEFF284602F06BFB024643
:105FF0000B465B4800F0FFFA06460F46594B1868FF
:1060000002F060FB02460B463046394602F0FAF9D0
:1060100002F0C2FD01461B20FBF7D4FF404602F010
:1060200051FB02460B46504800F0E5FA06460F4683
:106030004E4B186802F046FB02460B463046394686
:1060400002F0E0F902F0A8FD01461C20FBF7BAFFC0
:10605000474B1B7853B3474B1B78002B41D0484626
:1060600002F030FB02460B46434800F0C4FA02F04F
:1060700093FD01461F20FBF7A5FF039A052A40F276
:10608000858040F6F9739A4200F2CB80049A052A83
:1060900040F2C9809A4200F2C880059A052A40F26F
:1060A000C6809A4200F2C580002670E0504602F099
:1060B00009FB02460B46314800F09DFA06460F46A2
:1060C0002F4B186802F0FEFA02460B46304639465E
:1060D00002F098F902F060FD01461D20FBF772FF07
:1060E000B9E7584602F0EEFA02460B46254800F0A2
:1060F00082FA06460F46244B186802F0E3FA02467D
:106100000B463046394602F07DF902F045FD014666
:106110001E20FBF757FFA2E7140A0020300A0020D8
:106120002C0A002000801344780800207C080020FE
:106130000000B943480D0020300D0020180D00204C
:10614000200A00201C0A0020180A0020240A00202F
:106150000C0A0020280A0020000D002074080020EE
:10616000E80C002070080020D00C00206C080020F3
:10617000620D0020610D0020100C0020B80C0020E2
:10618000DC0B0020A00C0020D80B00200126464983
:10619000204603F007F800284DD14449204603F07B
:1061A0000BF800285DD14049284602F0FBFF00288B
:1061B00059D13E49284602F0FFFF002855D13A49FF
:1061C000404602F0EFFF002851D13849404602F026
:1061D000F3FF00284DD13649504602F0E3FF002876
:1061E00049D13449504602F0E7FF002845D13049F3
:1061F000584602F0D7FF002841D12E49584602F0F8
:10620000DBFF00283DD12A49484602F0CBFF002899
:1062100039D12849484602F0CFFF002835D104463D
:106220000AE00126B3E70126B1E70126AFE7012620
:10623000ADE70126ABE701244EB31F4B1B880133AA
:106240009BB21D4A1380132B23D834B31B4B1B88DE
:1062500001339BB2194A1380132B20D807B0BDE835
:10626000F08F0124E8E70124E6E70124E4E70124B4
:10627000E2E70124E0E70124DEE70124DCE7012472
:10628000DAE70124D8E70124D6E70124D4E733462E
:10629000D7E70520FCF7C2FED7E72346DAE706205A
:1062A000FCF7BCFEDAE700BF0000F0C10000DC42F2
:1062B000000020C20000F042CE0B0020CC0B0020DA
:1062C00008B5FFF7CDFC08BDF8B50F4616461C46CD
:1062D00002F0B6FC05462146069802F0B1FC0146E4
:1062E000284602F0B7FD05463946304602F0A8FCC4
:1062F0000146284602F062FE214602F0A3FCF8BDEA
:10630000904202DC884202DB704710467047084624
:106310007047000038B58446084611461A46BCF15D
:10632000640F01D94FF0640C541CACFB04C4CCF3D3
:10633000130E4FEA1C5343EA0433C3F313039E4482
:10634000C4F313239E440EEB147E114BA3FB0E5398
:10635000DB0803EB830303EB8303AEEB030EBCEB21
:106360000E0C64F10004DFF82CE00B4B03FB0CF384
:106370000EFB0433ACFB0ECE73444FEA9C0C4CEA8C
:10638000837C624500D3624601F0BFFE38BD00BF8A
:106390001F85EB51295C8FC2F5285C8F10B5044630
:1063A00001F0FCFC1D4B186021782220FBF7FCFD5E
:1063B00061782320FBF7F8FDA1782420FBF7F4FD9A
:1063C000E1782520FBF7F0FD2079431EDBB2FD2BA1
:1063D00094BF01220022124B1A700AD96079431E21
:1063E000DBB2FD2B94BF012200220E4B1A700AD99A
:1063F00010BD02F0D7FC0C4902F022FC01461D2022
:10640000FBF7E0FDEAE702F0CDFC074902F018FCDB
:1064100001461E20FBF7D6FDEAE700BF640D002011
:10642000620D0020610D002000002042F0B583B015
:1064300007460026009601963A20FBF793FD00F0F0
:1064400003053120FBF78EFD04460C20FBF78AFD87
:10645000A30003F03C032B4343EA80138DF8003084
:10646000344601E00134E4B20F2C12D82046FCF788
:10647000FBFD05462046FCF709FE0028F2D0002D62
:10648000F0D0102DEED8013D0123AB4033439EB236
:10649000E8E78DF80160360A8DF802600F20FBF7FF
:1064A00061FD8DF803002F20FBF75CFD00F1320346
:1064B0000D4880FB0320DB17FF220021C3EB601097
:1064C000FFF71EFF8DF80400084A1378591C11705D
:1064D0008DF805303B685C6806236A4640F2E1614E
:1064E0003846A04703B0F0BD1F85EB51600D00207A
:1064F00006296AD82DE9F0470C46002398461D4628
:1065000039E087424ADB4DE0012E27D0C01B02F064
:106510004DFC8146012E26D04346D81B02F046FC96
:106520008246670004EB4403DFF8A48008EB830392
:106530001E79304602F03AFC494602F08BFC514687
:1065400002F03CFD8146274438F9270005FB060090
:1065500002F02CFC494602F073FB34E0381A02F0DA
:1065600025FC8146D6E74346F81A02F01FFC824616
:10657000D7E70135B84604EB4402154B03EB820321
:106580005B79AB4218D904EB4402114B03EB820355
:106590009A6832F815709E79012EB2D0002EE8D19B
:1065A0008742E6DC002DAFD104EB4404084B33F9FD
:1065B000240002F0FBFB06E0054B03EB8203B3F97A
:1065C000020002F0F3FBBDE8F0870020704700BF37
:1065D000E4A200084DF804BD93469C460022002327
:1065E000C0E90023C0E9022300230374C0E902BC10
:1065F0005DF804BB70472DE9F0410446104619468A
:10660000237CCBB1D4E90278D4E900562A4633463C
:1066100001F0F8FE02460B463846414602F0AAF861
:1066200002460B462846314601F0EEFEC4E9000161
:10663000D4E90001BDE8F081C4E90001012323741D
:10664000F6E770B516461C465A2B02D84F2C1AD9BD
:1066500070BD0720FBF786FC05461B20FBF782FC7C
:10666000281A02F0A3FB4FF0804102F0AFFD002892
:10667000ECD03378053BDAB213F0800F01D03270E2
:10668000E6E78022FBE70220FBF76CFC04461D20B6
:10669000FBF768FC201A02F089FB4FF0804102F002
:1066A00095FD0028D4D0337805333370D0E770B52A
:1066B0000E4614465A2A02D84F2C19D970BD1A20FA
:1066C000FBF750FC05460620FBF74CFC281A02F0AD
:1066D0006DFB4FF0804102F079FD0028ECD033785B
:1066E000053BDBB2272B01D93370E7E72823FBE713
:1066F0001D20FBF737FC04460320FBF733FC201A70
:1067000002F054FB4FF0804102F060FD0028D5D02C
:10671000337805333370D1E770B504460023036046
:10672000C0F803302320FBF733FC20702420FBF754
:106730002FFC60702220FBF72BFCA0701D20FBF7C4
:1067400011FC05460220FBF70DFCA8423DDD414B44
:1067500001221A703F4B1B78E3700320FBF702FC09
:10676000A84248DA3C4B01221A703B4B1B7823713C
:106770001E20FBF7F7FB05460520FBF7F3FBA842BD
:106780004FDA364B01221A70344B1B7863710022AA
:10679000A271A27802B10122217901B102210A433A
:1067A00003B104231343227802B108221A43637809
:1067B00003B110231343E278002A48D02021194363
:1067C0000F20FBF7F1FB204670BD284602F0EEFAE1
:1067D00006460220FBF7C6FB02F0E8FA204902F069
:1067E00031FA0146304602F0F1FC0028B2D0194BD4
:1067F00000221A70AEE7284602F0D8FA05460320B8
:10680000FBF7B0FB02F0D2FA154902F019FA014683
:10681000284602F0BDFC0028A7D00F4B00221A70BA
:10682000A3E7284602F0C2FA05460520FBF79AFBCB
:1068300002F0BCFA0A4902F003FA0146284602F0C7
:10684000A7FC0028A0D0054B00221A709CE7114637
:10685000B5E700BF6A0D0020690D0020680D00201B
:106860000000A040F8B507460C4615461F20FBF770
:1068700079FB02F09BFA06461D20FBF773FB02F042
:1068800095FA8446FA7882F001020123236022718E
:10689000A0604FF0000EC4F80CE023746661084A53
:1068A000183407CA84E807003A795A402B602A71E5
:1068B000C5F808C0C5F80CE02B746E61F8BD00BFC8
:1068C00070A500082DE9F04782460D460024184BBC
:1068D0009946264605E0174902F0B2F9024614E04F
:1068E0000134022C1BDC04EB44039F0005EB830303
:1068F0001A79002AF4D09968504602F0A1F90246AC
:10690000EF590D4B1B689F42E5D090461146484613
:1069100002F05CFC0028E3D0C1463E46E0E7064BAF
:106920001E6031460E20FBF73FFB3046BDE8F08786
:10693000FFFF7F7F0000A040840800202DE9F04782
:1069400082460D4600246FF400039946264605E072
:10695000164902F077F9024614E00134012C1BDCE1
:1069600004EB44039F0005EB83031A79002AF4D05B
:106970009968504602F064F90246EF590C4B1B68C7
:106980009F42E5D090461146484602F001FC00289F
:10699000E3D0C1463E46E0E7054B1E6031460D2080
:1069A000FBF702FB3046BDE8F08700BF0000A040C7
:1069B000800800202DE9F04106460D46904B1B78DB
:1069C00073B98F4B01221A700146284602F038F93C
:1069D0008C4B18608C4B8D4A1A608D4B8D4A1A6017
:1069E0001820FBF7C7FA04461920FBF7C3FA07463D
:1069F0008949204602F0EAFB90B94FF07E513846B3
:106A000002F0C6FB80B98449204602F0DFFB90B952
:106A10004FF07E51384602F0BBFB48B980460CE08F
:106A20000320FCF7FBFAE8E70420FCF7F7FAEAE7B3
:106A30000123984601E0012398463146284602F09A
:106A4000FFF804466F4D296802F0FAF84FF08141D3
:106A500002F000FA06467149204602F0FBF970493F
:106A600002F0F8F90146304602F0ECF8074600F172
:106A700000462C606B4902F08BFB38B94FF0814126
:106A8000384602F0A3FB18B1664E01E04FF0814694
:106A90005D4D2968304602F0D5F82860624902F061
:106AA00077FB08B1604A2A606049574B186802F0CA
:106AB0008DFB10B1544B5D4A1A60434613B3544BDF
:106AC00000221A605A4C5B4B1E682146304602F089
:106AD000B9F807464E4B1D68294602F059FB0028BD
