:020000040800F2
:10100000005000209D80000899800008978000080B
:101010009780000897800008978000080000000073
:10102000000000000000000000000000998000089F
:10103000998000080000000099800008998000084D
:101040009780000897800008978000089780000824
:101050009780000897800008978000089780000814
:101060009780000897800008978000089780000804
:1010700097800008978000089780000897800008F4
:101080009780000897800008978000082D36000898
:101090000D3600081D36000897800008511400081E
:1010A00097800008978000089780000897800008C4
:1010B00097800008411400088914000897800008F0
:1010C00097800008978000089780000897800008A4
:1010D0009780000897800008978000089780000894
:1010E0009780000897800008978000089780000884
:1010F0009780000897800008978000089780000874
:101100009780000897800008978000089780000863
:101110009780000897800008978000089780000853
:101120009780000897800008978000089780000843
:101130009780000897800008978000085B360008B9
:101140003B3600084B36000897800008978000085F
:1011500010B504460846114664681A46A04710BDFB
:1011600008B58368984708BD00B54FF0000CE64607
:1011700004E000BF1CF1010C4EF1000E4B0143EAEC
:10118000D0634201121A63EB01039B0043EA92739E
:101190009200121841EB03031B0143EA1273120180
:1011A00094457EEB0303E4DB5DF804FB10B506F029
:1011B000A9FA1D4B186800F08CFE07F0D7FC1B49FC
:1011C00007F0DCFD01463E2000F0FAFE184801F071
:1011D00019FE07F0C7FC174907F0D0FD01463D2076
:1011E00000F0EEFE06F0BCFC01F002FF124C20689D
:1011F00005F0E8F8206804F0D3FB04F0E1FD05F009
:1012000027FC0E4B186802F0C1FA0D4B1B782BB966
:101210000B4A137883F00103137010BD094B9988B2
:10122000186806F066FAF3E7C008002000002041C5
:10123000100A002000004B43BC080020B808002022
:10124000A0080020A809002008B5024B186804F087
:10125000D3FB08BDBC08002008B503F037FF08BD6C
:1012600008B5034640F22132904223D008460BD9FC
:1012700040F2455293421DD025D840F26632934247
:101280001CD104F037FB23E040F2C722934221D067
:10129000B3F5327F0AD240F2212293420AD040F2C3
:1012A000A722934214D104F0B7FA11E040F2D12200
:1012B00093420DD1184604F05DFB09E040F2A132E3
:1012C000934205D1F6E7B3F5DC6F01D105F032F8B2
:1012D000002008BD04F024FBFAE7000010B51C4C08
:1012E00000224FF4DC61206802F0E5F9002240F2B0
:1012F000A721206802F0DFF9002240F2C721206810
:1013000002F0D9F9002240F26631206802F0D3F9E8
:10131000002240F22121206802F0CDF9002240F2A3
:10132000D121206802F0C7F9002240F22131206863
:1013300002F0C1F9002240F2A131206802F0BBF9AD
:10134000002240F24551206802F0B5F910BD00BFFF
:10135000BC08002010B504468188006806F0C6F974
:10136000003818BF0120A379181A18BF012010BD3A
:1013700008B5244B1B6833B106F0F2FB214B1B6808
:10138000C01AC72820D92048FFF7E4FF01462320D0
:1013900000F008FE1D48FFF7DDFF0146242000F0A5
:1013A00001FE1B48FFF7D6FF0146222000F0FAFDA0
:1013B0001848FFF7CFFF0146252000F0F3FD00237A
:1013C000154A1370154A137004F05CFB07F0E8FD32
:1013D0000146262000F0E6FD04F068FB07F0E0FD82
:1013E0000146282000F0DEFD04F074FB03F06AFFE4
:1013F00004F036F801460A2000F0D4FD04F06EFC3B
:1014000008BD00BF640D0020100900202009002045
:1014100018090020F0090020620D0020610D002055
:10142000FEE7000000B1704710B5044B1C6800F0E7
:1014300097FDC1B2204602F041FF10BDB408002064
:1014400008B5024B186800F00BFD08BDC00800206D
:1014500008B54FF4807006F00BF850B1084B1B78BC
:1014600043B1084A1368013313604FF4807005F0EC
:10147000F9FF08BD034A1368013B1360F5E700BF9D
:101480006A080020AC08002008B50821214806F0B1
:10149000C9FB28B910211F4806F0C4FBE8B908BDF4
:1014A00002211C4806F029FD1B4B1B683BB18342FF
:1014B0000CD8C31A194A1360194B01221A70164B23
:1014C00018600821134806F0B3FBE3E7C31A03F5DD
:1014D00043435033114A1360EEE703210D4806F0F1
:1014E0000CFD104B1B683BB183420CD8C31A0E4A4B
:1014F00013600E4B01221A700A4B18601021054828
:1015000006F096FBCBE7C31A03F543435033064A74
:101510001360EEE7000800409C080020A8080020A7
:10152000A208002098080020A4080020A10800209C
:10153000F0B5ADF61C0D00F04BFA00F00FFBCC4EF1
:1015400000223146CB4801F0A1FC01223146CA48B5
:1015500001F09CFC03223146C84801F097FCC84DBD
:1015600000222946C74801F091FCC74C00222146C1
:10157000C64801F08BFC01222146C54801F086FCDB
:1015800002222146C34801F081FC03222146C248C1
:1015900001F07CFC04222146C04801F077FC0522C2
:1015A0002146BF4801F072FC04234FF4807231469B
:1015B000BC4801F034F907234FF400423146BA48E1
:1015C00001F02DF9002304222946B84801F027F93B
:1015D000072308222946B64801F021F907231022E3
:1015E0002946B44801F01BF9072320222946B248B6
:1015F00001F015F9092340222946B04801F00FF9FE
:10160000092380222946AE4801F009F904234FF44A
:1016100080722946AB4801F002F904234FF40072AE
:101620002946A94801F0FBF809234FF40062294636
:10163000A64801F0F4F807234FF480422946A44855
:1016400001F0EDF807234FF480622146A14801F034
:10165000E6F807234FF4006221469F4801F0DFF8C7
:1016600007234FF4805221469C4801F0D8F8072305
:101670004FF4005221469A4801F0D1F807234FF465
:1016800080422146974801F0CAF804F58064072398
:1016900001222146944801F0C2F807230222214684
:1016A000924801F0BCF8072304222146904801F03B
:1016B000B6F80723082221468E4801F0B0F8072328
:1016C000102221468C4801F0AAF807232022214647
:1016D0008A4801F0A4F8072340222146884801F0F7
:1016E0009EF8072380222146864801F098F804F5E9
:1016F0008064072304222146834801F090F80723E1
:1017000008222146814801F08AF807231022214649
:101710007F4801F084F800234FF4807221467D4811
:1017200001F07DF800234FF4007221467A4801F061
:1017300076F800234FF480622146784801F06FF874
:1017400007234FF400622146754801F068F801F064
:10175000D1FA00F0F9FA00F091F900F0D7F901F0B0
:1017600019FC00F005FA0DF2EC54012601960096E2
:1017700000236C4A6C49204600F0C6FC6B4B1C6091
:101780000DF5BC656A4BCDF8E0356A4BCDF8E03518
:10179000694BCDF8E435694BCDF8E835E1AC002371
:1017A00002226749204601F077FE664B1C602946FD
:1017B000204601F071FFFFF791FD32AD3246214620
:1017C000284602F0EFFC604F3D60604B1D600FAE9D
:1017D0002A462146304602F03FFD5D4B1E60002048
:1017E00000F0BEFBC1B2304602F068FD3A68594BCA
:1017F0001A60594D05AC2946204600F0D7FA574BE0
:101800001968C1F35911564BA3FB013189090139FC
:10181000284606F02EFA534B1C60032252492046FC
:1018200000F0E8FA14225149204600F0E3FA64225D
:101830004F49204600F0DEFAC8224E49204600F00B
:10184000D9FA00213B2000F0ADFB3F20FFF7EAFD75
:101850000A200021FFF788FC03F0CEFC6420002161
:10186000FFF782FC03F002FE98E014469FE000BF01
:1018700000080140300A00202C0A0020280A00201D
:10188000000C0140240A002000100140200A002022
:101890001C0A0020180A0020140A0020100A002048
:1018A0000C0A0020000A0020F8090020F00900209E
:1018B000E8090020E0090020D8090020D009002014
:1018C000C8090020C0090020B8090020B009002084
:1018D000A8090020A00900209809002090090020F4
:1018E0008809002080090020780900207009002064
:1018F00068090020600900205809002050090020D4
:101900004809002040090020380900203009002043
:1019100028090020200900201809002010090020B3
:1019200008090020E49E000800380140B0080020AB
:101930003C9000084C90000861120008DD1200087D
:1019400000640040BC080020B8080020540B0020B0
:10195000B4080020500B0020000400409408002030
:10196000632D3E05C00800205912000871130008BD
:1019700049120008AD11000804300DF10B0103F00D
:1019800087F85CB103AB94E8030083E803002046CA
:1019900002F008FF21460FA802F0B9FC00228DF8E2
:1019A0000B209DF8C430002B3FF45FAF2FAC064BEB
:1019B000186800F091FD054B18684369002BE0D1D1
:1019C0000028D9D1D9E700BFB0080020B408002012
:1019D00008B5274805F0E4FF4FF0E023254AC3F897
:1019E0000C2D40F2023006F039F840F2033006F0D8
:1019F00035F84FF4417006F031F840F2053006F04A
:101A00002DF840F2063006F029F840F20E3006F0CC
:101A100025F840F20B3006F021F84FF4607006F024
:101A20001DF840F2813006F019F840F2823006F0DD
:101A300015F84FF4207006F011F840F2093006F066
:101A40000DF840F20A3006F009F840F2862006F060
:101A500005F84FF4407006F001F840F2993005F0B7
:101A6000FDFF054A536843F40073536008BD00BF8F
:101A7000ACA300080003FA050000014030B597B0A0
:101A800005F032FC00F5FF3505F2FD15AD0201ACA5
:101A900014220021204600F0BCFE1A4B01931823AB
:101AA000ADF8083001238DF80A3000228DF80B20A4
:101AB000154903914FF44071ADF810108DF81220C4
:101AC0008DF8133005F0F4FB1421204605F0FEFBE1
:101AD00015902B6D834201D117B030BD05F0A6FDE6
:101AE000284605F05FFD002407E001AB53F8241001
:101AF00005EB840005F0B4FD0134142CF5D905F094
:101B0000A1FDE9E700100140000C014008B51D20CF
:101B100006F030FB00211D2006F038FB1E2006F0E9
:101B200029FB01211E2006F031FB0B494FF4807088
:101B300005F0A6FC02214FF4807005F061FC4FF423
:101B4000807005F081FC172006F014FB022117209D
:101B500006F01CFB08BD00BF0008014008B54FF4AB
:101B60001C71032006F034F8002006F003F808BDCD
:101B700038B54FF0804006F077F80A214FF08040EA
:101B800006F077F800214FF0804006F059F84FF644
:101B9000FF714FF0804006F06EF84FF0804006F085
:101BA0004AF8674D4FF4006302221146284605F0BB
:101BB00063FD062211464FF0804006F05EF80621D4
:101BC0004FF0804006F01FF906214FF0804006F0EC
:101BD00034F906214FF0804006F054F90022062126
:101BE0004FF0804006F073F94FF4806302221146F3
:101BF000284605F041FD062204214FF0804006F002
:101C00003CF804214FF0804006F0FDF804214FF02D
:101C1000804006F012F904214FF0804006F032F9BE
:101C2000002204214FF0804006F051F94FF080402F
:101C300006F015F84FF4407301220021284605F004
:101C40001BFD404C204606F00FF88F21204606F081
:101C500010F84CF25031204606F00DF8204605F001
:101C6000F9FF0F220221204606F056F90522022133
:101C7000204606F079F900220221204605F0C2FF35
:101C80000221204606F0A1F90821204605F0C6FFF2
:101C900000220321204606F03FF9062203212046B8
:101CA00006F062F900220321204605F0ABFF032174
:101CB000204606F08AF91021204605F0AFFF4023A8
:101CC00002221146284605F0D7FC062200212046B4
:101CD00005F0D3FF0021204606F095F800212046AC
:101CE00006F0ABF80021204606F0CCF800221146A1
:101CF000204606F0ECF8802302221146284605F023
:101D0000BBFC06220221204605F0B7FF0221204637
:101D100006F079F80221204606F08FF802212046CD
:101D200006F0B0F800220221204606F0D0F801218A
:101D3000204606F0DCF8204605F091FF38BD00BFD4
:101D4000000C01400008004010B582B009238DF856
:101D50000730154C204605F051F8204605F058F89C
:101D6000204605F06AF80721204605F032F80DF10B
:101D700007020121204605F065F84FF46021204656
:101D800005F000F8204604F0EAFF002301E000BF60
:101D90000133772BFBDD044C204604F0FDFF204689
:101DA00005F00DF802B010BD0028014038B5054619
:101DB0000C460162084605F03EFF204605F04AFF4A
:101DC0000A4B1968C1F31A11094BA3FB0131C90968
:101DD0000139204605F04DFF4FF6FF71204605F012
:101DE0004AFF00236B62284638BD00BF94080020DC
:101DF000C55A7C0AF8B5436A032B00DDF8BD0446DA
:101E00000E461546006A05F02FFF636A134F012244
:101E1000F95C206A05F031FF636A0022F95C206AF0
:101E200006F055F8636A44F8236003F1080105EBF6
:101E3000850202EB8202920024F8112002219940CF
:101E4000206A05F0EBFE0021206A06F063F8206AA4
:101E500005F005FF636A01336362CFE75490000821
:101E6000F8B5054600242AE00226A6403146286A35
:101E700005F0D8FE40B3286A06F03DF887B22B6A19
:101E800003EB84035A6B04F1080135F811100A447E
:101E90005A6355F824309847286A06F02CF8C01B7E
:101EA00004F10C0325F813003146286A05F0C0FE42
:101EB00004E00221A140286A05F0BAFE0134032C97
:101EC00006DC6B6AA342CFDC6B6AA342F6DCF0E768
:101ED000F8BD0146002210460FE002F10C0331F874
:101EE00013304FF47A7C0CFB03F302F1080C31F849
:101EF0001CC093FBFCF3184401324B6A9342ECDCA8
:101F000070470000024B1A68024BC3F898267047CE
:101F100060080020FC00002008B5C0EBC0020B4B9D
:101F200003EB8203DB688B420EDC084B03EB82037E
:101F30001B698B4201DAFF2007E0054B43F82010B4
:101F4000FFF770FA002000E0FF2008BDFC00002031
:101F500000000020014B53F82000704700000020D3
:101F6000024B53F820004011704700BF00000020D2
:101F700008B5054B53F8200006F0F8FD4FF07451FA
:101F800006F048FE08BD00BF00000020044B53F8D7
:101F900020004011012814BF00200120704700BF1D
:101FA000000000204901024B43F82010704700BF99
:101FB00000000020014B43F8201070470000002073
:101FC00010B5044608464FF0844106F023FE06F0A3
:101FD000E7FF024B43F8240010BD00BF00000020C3
:101FE00070B506460024074D3E2C09DC3146686872
:101FF00000F070FB10B101341C35F5E7E0B270BDA4
:102000004020FCE7FC0000200023064A3E2B07DCB2
:10201000118B814202D001331C32F7E7D8B27047EE
:1020200040207047FC000020C0EBC000014B03EBD8
:1020300080007047FC00002038B50024074D01E007
:1020400001341C353E2C07DC2B8B002BF8D0696942
:10205000E0B2FFF7AFFFF3E738BD00BFFC000020A0
:10206000014B1954704700BFC4080020024A135C9A
:102070000B431354704700BFC4080020024A135C8E
:1020800023EA010313547047C4080020014B185C75
:10209000704700BFC4080020C0EBC000024B03EB38
:1020A0008003987E704700BFFC0000200048704706
:1020B000B0A4010008B5FFF725FF08BD08B5202131
:1020C000806805F0E2FF08BD08B5806805F0D5FF1F
:1020D00008BD10B504464368597A586805F068F998
:1020E000636804F12A02597A586805F073F9636845
:1020F0008022597A586805F07DF96368597A5868E2
:1021000005F04DF910BD000070B504460D46534969
:10211000016053490160856003730261012101750B
:102120004175817500228261C26180F8202042627F
:1021300080F828109DF8101080F829109DF81410D0
:1021400080F82A1247494160032A07D86168086865
:10215000A84203D01C3161600132F5E7424A1460A5
:10216000002B74D062685069002B73D063681B8B9E
:102170000222032105F080FA4FF4E131284605F0F0
:102180002BFF0821284605F039FF4FF4005128465F
:1021900005F03DFF0C21284605F045FF00212846AB
:1021A00005F03BFF0021284605F043FF284605F0D7
:1021B00056FF284605F058FF6368197A586805F0FD
:1021C00099F86368197A586805F0E0F863682E1D7D
:1021D0003246197A586805F0F4F863680022197AD3
:1021E000586805F0B1F863680022197A586805F05C
:1021F0009FF86368197A586805F0B2F86368597AED
:10220000586805F077F863683246597A586805F0DF
:10221000D8F863680022597A586805F095F8636821
:102220000022597A586805F083F86368597A58682B
:1022300005F096F86368597A586805F0B0F82046BA
:10224000FFF747FF284605F0FAFE204670BD62689A
:10225000D06889E763681B8A8AE700BF649E00082C
:10226000709E0008749E00080409002038B50D46D1
:102270000469437D3BB1216839B1284600F02AFA50
:1022800018B10834F7E7002401E023680BB12046B9
:1022900038BD1C46FBE738B504460D4601E0002377
:1022A00073B163680222197A586805F038F800287B
:1022B000F5D194F828300BB10023F1E70123EFE7C3
:1022C0006368197A586805F073F86368AAB2197AD6
:1022D000586805F08FF8636894F82020D201A8327E
:1022E00022440232197A586805F074F863680222B1
:1022F000197A586805F00EF86368197A586805F07D
:102300004EF894F82030B3FA83F35B0984F8203058
:10231000002384F8283038BD10B50446837D73B19E
:102320000A2910D0436A7F2B0DD090F8202000EBB3
:10233000C2121A4482F8AA100133436210BD8068A9
:1023400005F082FEFAE794F82030626A04EBC313CA
:10235000134483F8AA10511C2046FFF79CFF00236A
:102360006362EBE710B50C46802A28BF8022114635
:102370004FF0000C0AE090F8203014F80CE000EB6D
:10238000C313634483F8AAE00CF1010C8C45F2D32B
:10239000FFF781FF10BD38B505460C46084600F032
:1023A000B0F9024621462846FFF7DCFF38BD0000A1
:1023B00010B50446084600F0F7F900F0DCF9237D7B
:1023C00083420DD000236375237B0BB36268506991
:1023D0000BB363681B8B0122002105F04DF910BD82
:1023E00001236375237B6BB1626850696BB16368CD
:1023F0001B8B0222032105F03FF908492046FFF715
:10240000CAFFECE76268D068F0E763681B8AF0E710
:102410006268D068DCE763681B8ADCE7409B0008E1
:1024200070B584B00446084600F0BEF90378302B3E
:1024300011D0322B0DD04FF46125637D73B929463D
:10244000A06805F0C9FD0021A06805F0E0FD04B01A
:1024500070BD0E4DF1E74FF4E135EEE701AE0A2213
:102460002946304600F05CF909492046FFF793FF02
:1024700008492046FFF78FFF31462046FFF78BFFC4
:1024800005492046FFF787FFD9E700BF1055220016
:102490008097000888970008049E000810B504463D
:1024A000084600F081F9037823B1303B18BF0123BF
:1024B00084F8293094F8293023B105492046FFF7E4
:1024C0006AFF10BD03492046FFF765FFF9E700BF2B
:1024D00098970008A4970008F8B504464368597A0D
:1024E000586804F080FF0646C0F1800558B92046C0
:1024F000FFF7EFFD07E05A1CE261234493F82A102E
:10250000A06805F0A1FD94F8293013B1E369AB424E
:10251000F1DB0821A06805F0B8FDE0B9002D28DD49
:10252000C6F17F06264496F82A300A2B17D00D2BC9
:1025300015D094F82A30212B1BD1A369CBB12046AA
:10254000FFF7C7FD0023E361A3695B6804F5D5715C
:10255000204698470DE0A06805F08FFDDEE7636830
:10256000597A586804F024FF012D03DC2046FFF758
:10257000B0FDF8BD6319002283F82A20E26104F15E
:102580002A072021384600F0C3F80646037823BB0B
:102590000A21384600F0BCF80646002384F8AA3128
:1025A000337803B300233370A3612A49384600F01F
:1025B00091F80646E8B904F5D5712046FFF7F8FE14
:1025C000A369002B3CD0A06805F05BFDA3695B68A4
:1025D00004F5D57120469847C8E7411C04F5D5702D
:1025E00000F086F8DCE70D21384600F091F8064649
:1025F000D8E71949384600F06DF8064668B994F8EE
:102600002A322BB104F5D5712046FFF709FFD7E731
:1026100012492046FFF7BFFED2E71149384600F0C5
:1026200059F8064628B904F5D5712046FFF736FF5C
:10263000C6E739462046FFF719FEA0612E46BFE7E0
:10264000012E93DD637D002B90D006492046FFF7D5
:10265000A2FE8BE7B0970008BC970008C897000857
:10266000E4970008EC97000808B5044B1B681A684B
:102670001268C1B21846904708BD00BF0409002087
:10268000704708B500F014FD08BD000000B583B028
:102690000649D1F8F027D1F8EC37D1F8E8170091C6
:1026A000034900F0DFFA03B05DF804FB00F0FF1F00
:1026B0000898000810B50446FFF7BEFC0249204602
:1026C00000F0D0FA10BD00BF1C98000808B502F059
:1026D000DFF908BD431E013913F8010F11F8012F6E
:1026E00010B10AB19042F7D0801A18BF012070478C
:1026F000013911F8013F0BB90370704700F8013B35
:10270000F7E7034600201A5C02B970470130FAE788
:102710000346184613F8012B0AB18A42F9D17047D3
:10272000002970B518DA2D23012400F8013B494235
:10273000034691FBF2F602FB161130311970311E7F
:102740001D4603F10103F4DC00221A700246AA427E
:102750000AD3241A181904E004D1302341700370FD
:10276000012070BD0024E3E711782E7802F8016B98
:1027700005F80119EBE730B503782D2B11D14FF097
:10278000FF34013000210A25431E01E005FB012131
:1027900013F8012F303AD0B20928F7D904FB01F021
:1027A00030BD0124EEE7000010B5134C014610F8CF
:1027B000012BA2F10A03DBB2162B19D824FA03F37A
:1027C000DA07F3D40846FFF79CFF0138084481423A
:1027D00004460AD2237801380A3BDBB2162B04D810
:1027E000054A22FA03F3DB07F1D40023637001E00A
:1027F000002AE7D1084610BD09004000002310B5AB
:10280000934200D110BD51F8234040F823400133DA
:10281000F6E7013A00D2704740F8041BF9E7F8B533
:102820000D4616461C460160828000238371631E9C
:10283000082B2FD8DFE803F008290D051C26232BD1
:102840002000012400270CE00123837102240027CB
:1028500007E001238371022400273146284604F053
:1028600040FF334622463946284604F005FFF8BDAE
:10287000012484710027F4E702240327F1E70024F0
:102880000327EEE700242746EBE70027E5E70124CE
:102890000327E2E702240027E3E70000024B4FF49E
:1028A00000421A80704700BF080A002008B5FFF7F1
:1028B000F5FF08BD70B50C1EACBF01234FF0FF3310
:1028C0005C430133064608BF2D234FF0640208BF66
:1028D00006F8013B611104F01F04054654433046DD
:1028E0000A22FFF71DFF2E226411092C3254D8BF93
:1028F000302206EB0003D8BF5A7021464FF00A027F
:10290000CCBF581C981CFFF70BFF284670BDF0B5D4
:1029100003782D2B17D14FF0FF36013000244FF0F4
:102920000A0C02E018460CFB0454034613F8012B72
:10293000A2F13005EFB2092FF4D9AAB98C401444A2
:1029400006FB04F0F0BD0126E8E78B4003EB6503CE
:1029500093FBF5F30CFB05F51A4410F8013F303BEF
:10296000DFB2092FF1D9E9E70A250022AC46F4E7E6
:102970002DE9F04105460F46161E02DD0A460021EC
:1029800008E04FF0200813F001041BD0002422E0DF
:102990000131013210780028FAD1B14206DA761AF4
:1029A00013F0020F04D14FF02008ECE70026F7E700
:1029B0004FF03008E7E72B681B68414628469847E8
:1029C0000134013E002EF6DC05E02B681B6828462A
:1029D00098470134013739780029F6D106E02B6891
:1029E0001B684146284698470134013E002EF6DC1C
:1029F0002046BDE8F0812DE9F04184B00746DDF8BE
:102A000028800C9859B11E460C4613B10A2A13D0DF
:102A1000002600238DF80D300DF10D0518E0302350
:102A20008DF8003000238DF801300B9B424669463B
:102A30003846FFF79DFF32E0002901DB0026E8E77A
:102A40004C420126E5E7303105F8011DB4FBF2F4F4
:102A50004CB1B4FBF2F102FB11410929F3DDA0F105
:102A60003A031944EFE79EB1B8F1000F0BD00B9B6E
:102A700013F0020F07D03B681B682D21384698479A
:102A800008F1FF3804E02D2305F8013C013D002644
:102A90000B9B424629463846FFF76AFF304404B094
:102AA000BDE8F08108B50846FFF7DEFD08BDF0B5CA
:102AB00085B0044615461E466846FFF7FBFE3346C2
:102AC0002A4669462046FFF753FF05B0F0BD0000D7
:102AD00070B588B005460C460592002693E0A21C0E
:102AE00001239DE00022217839291CD9782900F2A0
:102AF00089805829C0F086805839202900F28280C8
:102B0000DFE801F043808080808080808080806A60
:102B10002580618080808080808080808080801A95
:102B200080528080340030296CD302EB820230392D
:102B300001EB42020134D6E70599081D05900968AA
:102B400001B93D492846FFF713FF06445AE00599AD
:102B5000081D0590096861200290019300920123ED
:102B60000A222846FFF747FF06444BE00599081D57
:102B700005900968612002900193009200231022C1
:102B80002846FFF738FF06443CE00599081D0590EC
:102B900009684120029001930092002310222846E8
:102BA000FFF729FF06442DE00599081D05900968E7
:102BB000612002900193009200230A222846FFF729
:102BC0001AFF06441EE00599081D0590096828466D
:102BD000FFF76DFF064415E00599081D059009688B
:102BE0008DF81C1000218DF81D1007A92846FFF74D
:102BF000BFFE064406E014462B681B682178284671
:102C000098470136013423789BB1252BF4D1621CFF
:102C1000637873B1252BEED02D2B3FF460AF0023EA
:102C200014462278302A7FF45DAF013443F002036A
:102C3000F7E7304608B070BD909800080FB400B5B3
:102C400083B004AA52F8041B054B0193009201A81B
:102C5000FFF73EFF03B05DF804EB04B0704700BF20
:102C60005C9F00080EB400B582B003AA52F8041BA2
:102C70000192FFF72DFF02B05DF804EB03B070473F
:102C8000114B124A1360991C114A1160191D114A07
:102C90001160991D104A116003F108010F4A11607B
:102CA00003F10A010E4A116003F10C010D4A116093
:102CB00003F10E010C4A116003F110010B4A11607F
:102CC00012330B4A13607047340A0020300A002088
:102CD0002C0A0020280A0020240A0020200A0020B4
:102CE0001C0A0020180A0020140A0020100A0020E4
:102CF0000C0A002070B582B0334B93E8030002AB9E
:102D000003E903000025002D2CDD304C304A012161
:102D1000204604F056FB2F4A0121204604F05AFBBE
:102D20004FF480720121204604F00EFB4FF48062C4
:102D30000121204604F0FCFA78220121204604F00B
:102D400059FB0121204604F00BFB0121204604F031
:102D500010FB0121204604F022FB1F4804F0A0F8DC
:102D600002B070BDAE0002AB03EB850353F8084C14
:102D7000204604F043F8204604F045F8204604F0CD
:102D800057F8204604F049F80121204604F021F8C4
:102D9000204603F0E4FF204603F0FEFF204604F047
:102DA0000EF873195A000D4B1A440A21204604F0FC
:102DB00049F8204604F07EF84FF46021204603F0E5
:102DC000E1FF01359FE700BF609F0008000002405F
:102DD0004C240140340A002000240140240B002030
:102DE000884205DD914209DC90420ADD10467047B9
:102DF000904206DC914203DD10467047084670475A
:102E00000846704730B583B0046800250BE0228D7A
:102E1000A18A2088FFF7E4FF02AB03EB450323F808
:102E2000080C01353C34032DF1DDBDF80000BDF880
:102E300002301844BDF804301844BDF80630184478
:102E4000C0F38F0003B030BD08B50F4B98420BD0D4
:102E500003F58063984211D0A3F50063984205D131
:102E6000072903DCC8B204E0012903DD03F080FF79
:102E7000102008BDC9B20831C8B2FAE70529F5DC4F
:102E8000C9B20A31C8B2F4E7000C014070B504467B
:102E90000D461646012393409BB200221146284658
:102EA00004F0EAFB2468054BE41A64103146284616
:102EB000FFF7CAFFA4B2024B185570BD340A0020B8
:102EC000240B002008B5FFF7DBFE08BD08B504F0B1
:102ED0000BFA00F5FF3000F2FF10800208BD2DE96B
:102EE000F043ADF2044DFFF7F1FF06460246002322
:102EF0004FF0FF3503E052F8041B0D400133FF2B68
:102F0000F9DD04F0D5F94FF480724FF0FF316846D7
:102F1000FFF77FFC002400E001343E2C1AD8E7B212
:102F20003846FFF7B9F80028F6D13846FFF77CF8A5
:102F300080463846FFF7AAF80DEBC40989F803006C
:102F4000B8F818202DF834203846FFF703F8C9F8F0
:102F50000400E1E7FE21684604F0B8F9FE9004F0B1
:102F600065FBB5F1FF3F01D100240AE0304604F0D3
:102F700019FBF9E75DF8241006EB840004F070FB00
:102F80000134FF2CF6D904F05DFBFE980DF2044DE0
:102F9000BDE8F083F8B5FFF799FF064604F088F91D
:102FA000FE21304604F092F9D6F8F833834201D17D
:102FB000002503E04FF0FF3019E001357E2D15D8D4
:102FC00036F83500FFF720F804464028F5D0FFF723
:102FD00063F80028F1D106EBC50779682046FEF7B3
:102FE000E9FFF9782046FFF73BF8E6E70020F8BD57
:102FF000014B1860704700BF400B00200D4B1B5C5D
:10300000B3B90D4B196899B110B40C4B18700C4C36
:1030100023680C4A02F8330002EBC3025160054AF0
:10302000012111540B4403F00F03236010BC7047BF
:10303000704700BF300B0020400B00203B0B0020EE
:103040003C0B0020E00700200F280AD8064B03EBBA
:10305000C0035B680BB900207047034B13F83000C6
:1030600070470020704700BFE00700200F2801D9FB
:1030700000207047024B03EBC0035868704700BF45
:10308000E007002008B5074B03EBC10292F804C02B
:1030900053F83130044A52F82C2001460348FFF718
:1030A000CDFD08BD749F0008689F0008989800082F
:1030B00010B50C4B5B680BB1002409E00A48FFF720
:1030C000BDFD0DE0074B13F83410FFF7DBFF0134B3
:1030D0000F2C05D8034B03EBC40358680028F1D12B
:1030E00010BD00BFE0070020A898000810B58AB006
:1030F0000F4B01EB410203EB820453F8222064687A
:1031000001EB410103EB81039B68D0F858020021D9
:1031100008910791069305940492039102910191FD
:1031200000910B46012203F0D7FE0AB010BD00BF8C
:10313000E09F0008F0B583B004460D4616461F46D2
:1031400072B60121D0F8580203F0D9FF019600971A
:103150000023B5F5006F34BF002201222946D4F8C0
:10316000580203F0D1FF002806DBD4F85432002BBC
:1031700018DC62B603B0F0BDD4F85432132BF4DC83
:1031800003F1110204EB021255609760316804EB01
:103190000312C2F81C117168C2F820110133C4F87F
:1031A0005432E2E70121D4F8580203F0A4FFE0E72B
:1031B000012801DD00207047014B53F820007047C3
:1031C000440B002030B58BB004460D460AE09DF854
:1031D000213006AA0999204600F0A6FA04F0C0FCA6
:1031E000C4F8F8000023059306AB04930DF1210306
:1031F000039308AB02930DF1220301930DF1230316
:10320000009309AB0122E9B2D4F8580203F0F3FFAE
:103210000028DCD10BB030BD30B583B0044600F5DA
:103220008A7504E0D4F85432013BC4F85432D4F81F
:103230005432002B17DD03F18053013B1A0105EBDB
:103240000313A9585A6808330193D2B2009200239D
:10325000B1F5006F34BF00220122D4F8580203F008
:1032600053FF0028DEDAD4F854320BB103B030BD7E
:103270000121D4F8580203F042FFF7E7F0B585B01A
:103280000E4615461C461068B3F800C05A889B8845
:10329000E7885B019BB2520192B24FEA4C1C1FFAC5
:1032A0008CF14FF0010CCDF808C000EA0C0CCDF801
:1032B00004C07F01BFB2009703F000FF002333601A
:1032C0002A6801322A60E380A3806380238005B0EE
:1032D000F0BDF0B585B00F4615461C461068B3F832
:1032E00000C05A889B88E6885B019BB2520192B26B
:1032F0004FEA4C1C1FFA8CF14FF0010CCDF808C0BE
:1033000000EA0C0CCDF804C07601B6B2009603F0CA
:10331000C5FE00233B602A6801322A60A380238017
:1033200040F2FF73E380638005B0F0BD70B582B0FA
:103330000E4615461C4610681968C9005A68D20026
:1033400001230093034042F0040241F0040103F022
:10335000C5FE002333602A6801322A60636023605F
:1033600002B070BD30B58BB00546002308930993B9
:10337000474906AA03C982E803000493059303930F
:1033800002930193D5F85822424B9A420AD0A3F5F2
:103390008063D3F8003AC3F3052300930024C2F8F6
:1033A0001C4221E00023F8E704F11E0205EB820233
:1033B000516871B3029A501C02900DF1280C0CEB6D
:1033C000420C2CF8103C023202920AAB03EB400094
:1033D00020F8101C039B042B24D0029B022B28D026
:1033E000019B022B2CD00134D5F8F430A3422EDD02
:1033F00005EB84035B68B3F5006FD5D3019A23F026
:1034000060430AA901EB820141F8183C01320192A4
:10341000E0E7039A0AA901EB420121F8083C0132D6
:103420000392D7E708AB6A4603A92846FFF726FFB1
:10343000D3E706AB6A4602A92846FFF74AFFCFE763
:1034400004AB6A4601A92846FFF770FFCBE7039B50
:10345000002B07DC029B002B0BDC019B002B0FDCFD
:103460000BB030BD08AB6A4603A92846FFF706FF3C
:10347000F0E706AB6A4601A92846FFF72AFFECE70A
:1034800004AB6A4601A92846FFF750FFE8E700BFF2
:103490001CA0000800640040F8B504460D4616461E
:1034A0001F4600F0E3F8544B23600023C4F8543265
:1034B000C4F85852514B9D422FD003F580639D4272
:1034C00058D1002F00F082804D4D20230222002190
:1034D000284604F0D1F82021284604F002F94023C0
:1034E00002220321284604F0C7F8402004F042FEDF
:1034F000F021402004F04AFE412004F03BFEF02180
:10350000412004F043FE3F2004F034FEF0213F2030
:1035100004F03CFE3B4B5C602CE0002F41D0384D6A
:103520004FF4807302220021284604F0A5F84FF4DE
:103530008071284604F0D5F84FF40073022203216D
:10354000284604F099F8142004F014FEF021142009
:1035500004F01CFE152004F00DFEF021152004F0EF
:1035600015FE132004F006FEF021132004F00EFED9
:10357000244B1C60D4F8580203F0A2FC31462046CC
:10358000FFF7B4FD2046FFF7EDFE0221D4F8580204
:1035900003F0B1FD1021D4F8580203F0ACFD204631
:1035A000F8BD194D4FF4006302220021284604F0B3
:1035B00063F84FF40061284604F093F84FF4805309
:1035C00002220321284604F057F8BCE70C4D4FF4C3
:1035D000805302220021284604F04EF84FF4805117
:1035E000284604F07EF84FF40053022203212846B7
:1035F00004F042F879E700BFD49F0008006400405F
:10360000000C0140440B00200008014008B50020D8
:10361000FFF7CEFD0021FFF7D5FD08BD08B500205E
:10362000FFF7C6FD0121FFF7CDFD08BD08B500205D
:10363000FFF7BEFDFFF7F0FD08BD08B50120FFF75D
:10364000B7FD0021FFF7BEFD08BD08B50120FFF75B
:10365000AFFD0121FFF7B6FD08BD08B50120FFF75A
:10366000A7FDFFF7D9FD08BD70477047084B036001
:103670000023C0F8F430C0F8FC3005E003F140024C
:10368000044940F822100133042BF7DD704700BFD6
:103690002CA0000864080020D0F8FC30042B01DDC9
:1036A0000020704703F1400240F822100133C0F8B7
:1036B000FC300120704738B5D0F8F4501D2D0BDDDB
:1036C000002038BD01339D4208DD00EB83046468AF
:1036D0008C42F7D10020F4E70023F4E700EB8503E8
:1036E000596005F11E0300EB83035A600135C0F8F1
:1036F000F45003689B6898470120E2E738B5054617
:103700000024C0F8F44003689B68984707E004F180
:10371000400355F8230003685B6898470134D5F8E7
:10372000FC30A342F3DC38BD2DE9F8430546894659
:1037300090461F4600240AE004F1400355F8230098
:1037400003681E683B4642464946B0470134D5F8F7
:10375000FC00A042F0DCBDE8F88370B5054600F13E
:10376000300634460BE034F8043BC3F3C02123F4A5
:103770000063002203EB41716868FFF79CFFA31B05
:10378000242B02DCA378322BEDD170BD2DE9F04162
:1037900082B0054600F108073E46F31B242B00F3D8
:1037A0009380B378322B00F08F8000230093019335
:1037B000B37803EB4304A40058342C441AE0C0F35C
:1037C00007231B0443EA0063C0F3074243EA0223D2
:1037D00043EA1063E2791F2A3DD8C2F11F0223FA9F
:1037E00002F2009B13430093647A04EB4404A400A8
:1037F00058342C44637AFF2B5DD0354B1B78002B5B
:1038000062D12079FEF7B4FB0146206805F002FA88
:10381000804694F9060005F0A9F9414605F0F2F852
:1038200005F0BEFB94F908C08CEAEC71A1EBEC71D9
:10383000C9B24FF0FF328A4020EA0200BCF1000F0B
:10384000BDDBE2791F2A20D9203A00FA02F2019B5F
:1038500013430193C8E79444BCF11E0F07DDC2F186
:103860003F0223FA02F2019B13430193BCE7A2F14A
:103870001F0003FA00F0009901430091C2F13F02DA
:10388000D340019A1A430192AEE702EB0C03202BBE
:1038900005DC00FA02F2009B13430093A4E700FA50
:1038A00002F1009B0B430093C2F12002D040019B28
:1038B0000343019398E7686803685C6808236A46D5
:1038C00036F8041BA04768E702B0BDE8F08100BFEE
:1038D0004C0B002010B501B302F10C0E00EB8E0E64
:1038E0000A2A45D89EF80210322943D001EB410C38
:1038F0004FEA8C0C0CF1580C844400249CF80910FD
:10390000FF2933D073B1013BDBB201EB41018900E8
:103910005831644600EB010CF0E702F1020E00EBB7
:103920008E0EDDE72CB16172FF238CF80930012087
:103930001FE0322904D08EF80210F5E70133DBB224
:103940009918092904DC0EEB830189783229F5D115
:10395000013BDBB20EEB830291788EF802103EF849
:103960002330AEF8003032239370DDE7002000E012
:10397000002010BD0020FCE7F8B50C4600F1080659
:1039800000231A461F4619463FBB35460022A5EBC9
:10399000060CBCF1240F27DC95F802C0BCF1320FF5
:1039A00022D00CEB4C0E4FEA8E0E0EF1580E8644D0
:1039B000002309E00133DBB20CEB4C0C4FEA8C0C1A
:1039C0000CF1580C00EB0C0E9EF809C0BCF1FF0F77
:1039D00006D0BEF804E0A645ECD157B10020F8BDF2
:1039E0000132D2B20435D2E700F130060F46012190
:1039F000CAE7FFF76FFFF2E7F0B5089F00243C70BD
:103A000000F10806002C42D13546AC1B242C38DCD2
:103A1000AC78322C35D004EB440E4FEA8E0E0EF10A
:103A2000580E864407E00CEB4C0C4FEA8C0C0CF162
:103A3000580C00EB0C0E9EF809C0BCF1FF0F1ED015
:103A4000BEF804408C42EED12988C1F3C020116039
:103A500021F40061116041EA407111609EF8072075
:103A60001A709EF90820059B1A70DEF80020069B4C
:103A70001A609EF90620079B1A700120F0BD0435DC
:103A8000C3E73C7801253D7000F13006BAE700201D
:103A9000F4E710B48446019CD9B102F10C0100EBAB
:103AA00081010A2A27D88A78322A26D002EB4202DC
:103AB000920058320CEB0200427AFF2A18D063B110
:103AC000013BDBB202EB4202920058320CEB0200E7
:103AD000F2E7911C00EB8101E3E70B88C3F3C022FE
:103AE000236023F40063236043EA4273236000E011
:103AF000002010BC70470020FBE70020F9E72DE90B
:103B0000F04385B00646884600F1080900273B4689
:103B10002FE02B88C3F3C02C23F4006194F9083004
:103B2000E2792079029794F906E0CDF804E0D4F820
:103B300000E0CDF800E041EA4C71C047647A04EB44
:103B40004404A40058343444637AFF2BE1D1043593
:103B5000A5EB0903242B08DCAB78322B05D003EB53
:103B60004304A40058343444EEE706F130093B46E0
:103B700001270BB94D46EBE705B0BDE8F083002304
:103B800006E001EB83024FF0320C82F802C00133F1
:103B9000092BF6DD002307E003EB430200EB820272
:103BA000FF2182F861100133322BF5DD704710B52B
:103BB000044600F10801FFF7E2FF04F1300120465E
:103BC000FFF7DDFF6068FFF799FD10BD2DE9F041BB
:103BD000884615461F46002426460AE0286803F05A
:103BE0006FFB064655F8041B08EB840003F038FD14
:103BF0000134BC42F2DB3046BDE8F081084600E00B
:103C00000430431A242B0ADC8378322B05D0038836
:103C1000534033F40063F3D102E0002070470020EA
:103C2000704700004B4B1B7803B170472DE9F04102
:103C3000054616460A4600F13001FFF7DFFF00286F
:103C400000F08580837803EB4304A40058342C44AF
:103C500042E01F2B53D83068C0F30722120442EA17
:103C60000062C0F3074742EA072242EA1062C3F14A
:103C70001F03DBB201208840013822FA03F3184009
:103C800004F070FF074694F9060004F06FFF394610
:103C900004F0B8FE0146206804F0BCFF0746207916
:103CA000FEF7FAF920B12079FEF7F6F9012849D19B
:103CB000B4F804804FF08441384604F0ABFF05F0BF
:103CC0006FF901465FFA88F0FEF726F9647A04EB93
:103CD0004404A40058342C44637AFF2B37D0E37992
:103CE00094F9082082EAE271A1EBE271C9B2002ADC
:103CF000AFDB1F2B18D97268203BDBB2BAE71A443E
:103D00001F2A03DD7068203BDBB2A5E75B1ADBB23C
:103D10000133DBB23068D8407268C3F120039A40A7
:103D200010434B1EDBB297E71A44202A01DC3268AD
:103D3000A0E73268DA407068C3F12003984002437C
:103D4000002397E739462079FEF73AF9BEE7BDE848
:103D5000F08100BF4C0B00202DE9F8439DF8208036
:103D60009DF92460002E79D004460D4617469946E9
:103D700086EAE673A3EBE673DBB2202B71D8002E44
:103D80000CDD08EB0603402B6EDC4A462946204634
:103D9000FFF734FF844668B100221DE0B8F13F0F01
:103DA00065D84FFA88F33344B3F1FF3FEDDA6FF093
:103DB000010051E00021092907DC05EB81039A7815
:103DC000322A01D00131F6E79C46BCF1000F51D0F8
:103DD000ACF80090E0E70132312A07DC02EB420345
:103DE00004EB830393F86130FF2BF4D1322A44D0E3
:103DF0009CF8023000210AE003EB430189005831AE
:103E0000214403EB430304EB830393F86130322B2B
:103E1000F2D102EB420304EB8304A4F85C700A9B2A
:103E2000A3659DF92C3084F85E3084F85F8084F8B7
:103E30006060322384F8613019B14A722B46002049
:103E400004E08CF80220F9E7013004335A1B242ADD
:103E500002DC9A78322AF7D1BDE8F8836FF00200CD
:103E6000FAE76FF00200F7E76FF00100F4E76FF098
:103E70000100F1E76FF00300EEE76FF00400EBE7FD
:103E8000B2F5006F12D210B584B09DF920400394B2
:103E9000079C02949DF918400194009313460A462A
:103EA00000F10801FFF758FF04B010BD4FF0FF30DC
:103EB000704770B584B005461446C2F3407022F0D6
:103EC0000052B2F5006F19D29DF928600396099E41
:103ED00002969DF920600196009342EAC0230A46AB
:103EE00005F130012846FFF737FF0646002221463C
:103EF0006868FFF7E0FB304604B070BD4FF0FF3656
:103F0000F9E72DE9F04F89B08346059206938A467A
:103F1000079131E0B4F9020004F028FE0023039376
:103F20000290CDF8048000953B46049A05993046EE
:103F3000FFF712FF0634A4EB09032A2B1ADC94F9CD
:103F40000530002B16DD2088FEF75EF80490DBF8C4
:103F50000060BAF80070257994F90580069B002B63
:103F6000D8D0B4F9020004F001FE4FF0745104F00F
:103F700051FED3E70AF1320A079BAAEB0303B3F51C
:103F8000E17F0ADCBAF800104FF6FF73994204D0C3
:103F90000AF102052C46A946CDE709B0BDE8F08F2D
:103FA00008B503F0A1F900F5FF3000F5FF708002BD
:103FB00008BD70B582B005460190FFF7F1FF0446D9
:103FC000D0F8E86303F074F9FA21204603F07EF993
:103FD000864202D0002002B070BD01AE002305F180
:103FE000080221463046FFF78CFF012305F130021D
:103FF00004F5FA713046FFF784FF0120EBE7F8B5CE
:1040000005460F460E460EE02079FEF70DF8038BAD
:10401000A380647A04EB4404A40058342C44637AEB
:10402000FF2BF1D10436F31B242B08DCB378322BA1
:1040300005D003EB4304A40058342C44EFE7F8BD4B
:10404000F8B505460F460E460DE0A088FDF7DCFFEB
:10405000A080647A04EB4404A40058342C44637AAE
:10406000FF2BF2D10436F31B242B08DCB378322B60
:1040700005D003EB4304A40058342C44EFE7F8BD0B
:10408000F0B583B00546FFF78BFF064602462A4B84
:104090000121197000234FF0FF3403E052F8041B94
:1040A0000C400133FF2BF9DD03F002F903F0BEFAF7
:1040B000022003F0B1FAB4F1FF3F38D105F108074F
:1040C00039462846FFF79BFF05F130042146284674
:1040D000FFF795FF0A233A4631462846FFF776FD5B
:1040E0000A23224606F128012846FFF76FFD0190BA
:1040F000962305F1580206F150012846FFF766FDA8
:104100000190012301AA06F52D712846FFF75EFDF7
:1041100003F098FA39462846FFF792FF21462846D1
:10412000FFF78EFF044B00221A7003B0F0BD30463B
:1041300003F038FAC2E700BF4C0B0020F8B5054683
:10414000FFF72EFF0446D0F8B46203F0B1F8AA21BD
:10415000204603F0BBF8864203D02846FFF729FF2C
:10416000F8BD05F108070A2221463846FEF746FB4E
:1041700005F130060A2204F128013046FEF73EFB25
:10418000962204F1500105F15800FEF737FB39463D
:104190002846FFF755FF31462846FFF751FF01201B
:1041A000DEE7000038B50446084615460D4B23608F
:1041B0000D4B236061602146FFF76EFA04F10801A0
:1041C0002046FFF7DCFC04F130012046FFF7D7FC66
:1041D00025B92046FFF7C1FA204638BD2046FFF733
:1041E000ADFFF6E73C90000850A00008036ED3B185
:1041F0004FF47A73036604E0036E002B07DD01239E
:104200003BB1826DC36D9A42F6D00023F8E70023DC
:10421000F6E7836D5A1C826503F03F030344197669
:104220004FF0FF3343617047A0F10400FFF7DEBF9A
:1042300010B50446017C002201F5C0618068FFF7DB
:104240003AFA617C3F2900D910BD002201F5B06126
:10425000A068FFF730FAF7E710B504460846144B9C
:104260002360144B6360144B236014336360A160BC
:10427000E26001232374FF2363744FF0FF33636113
:104280000023A3654022E2654FF47A71216684F829
:104290006420A36684F87830E36784F88830214688
:1042A000FFF7FAF92046FFF7C3FF204610BD00BF15
:1042B0003C900008649E000860A0000808B50174E6
:1042C0008068FFF71BFA08BD10B582B004468DF870
:1042D0000010ADF801309DF810308DF80330059BCB
:1042E0000193437C93420DD1002384F87830A06879
:1042F000617C03685C6808236A4601F5C061A047D9
:1043000002B010BD42748068FFF7F8F9ECE738B5E9
:1043100004460A468068217C03685D68082301F52D
:10432000B061A847002384F8883038BDB1F8012077
:1043300045F201039A4211D0012380F888300B78AE
:1043400080F88030B1F80130A0F88130CB7880F867
:1043500083304B68C0F88430002070470B78402BC6
:1043600001D0002070474FF0FF330B714B710023D9
:104370008B71CB7141220A704FF47A7202668365A9
:104380004023C365CB784361012070472DE9F0419C
:1043900084B006460C46B1F80120C2F3C017CD78B0
:1043A00025B1013D05EBD575C5F3470503AB00937A
:1043B0002B4602F03F023946F068FFF76AFB804661
:1043C0002378402B0DD0232B3DD080232370002356
:1043D000237163710223A3710623E37104B0BDE866
:1043E000F08130B30079FDF71FFE028BE37823B92B
:1043F000039B636043232370F0E713F0010F09D0A0
:1044000098F8073042EA034298F9083042EA03621A
:104410006260EFE71449D8F8000004F0FBFB04F0F9
:10442000BFFD20F07F4398F9062043EA02636360F2
:10443000E0E7802323700023237163710223A371BB
:104440000623E371CAE70028BFD06368002BBCD104
:10445000B4F801202B4602F03F023946F068FFF71E
:1044600039FA60232370B9E700007A440B78232BD4
:1044700000D070472DE9F04184B006460C46154641
:10448000CB7883B94B68B3F1005F04D323F00052BB
:10449000B2F5006F03D2B3666023237019E04FF0CA
:1044A000FF3383660CE0876EB7F1FF3F01D0012B2D
:1044B00012D096F97480B8F1000F01D0022B1DD0F4
:1044C000802323700023237163710223A3710623C9
:1044D000E37104B0BDE8F081486880B2FDF794FD57
:1044E000A6F870006368C3F3054386F87330636809
:1044F0001B1686F874303E28CED9E1E7606840F399
:10450000170004F033FB154904F038FCF0666368CB
:104510001B1686F87230A5B102930190CDF8008089
:1045200096F873303A4696F87010F068FFF7C1FCC1
:10453000002386F874304FF0FF33B3660028ABDAFF
:10454000BEE702930190CDF8008096F873303A46AA
:1045500096F87010F068FFF793FCE9E700007A44E2
:1045600038B504460D460A7802F06003602B31D05E
:10457000B1F80130B3F5005F5AD003F47F40B0F5D5
:10458000045F55D0E16819B1B3F5405F00F0858054
:1045900021B143F2010C634500F0858019B1B0F5FB
:1045A000445F00F0868045F203018B4200F0868074
:1045B00045F204018B4240F09B80402A00F091803C
:1045C00080232B7000232B716B710223AB710623A8
:1045D000EB7119E002F010020A700122072A0EDCCA
:1045E000E36DA16D5B1A402B09D0E36D591CE165A9
:1045F00003F03F0323441B7EAB540132EEE7E36D2F
:10460000A16D5B1A402B09D0A068217C03685C680F
:1046100008232A4601F5B061A04738BD2B7843F046
:1046200001032B70C2F1080243EA42032B70EBE74F
:10463000E87803F47F42B2F5045F0CD03E2822D81C
:104640002B78232B0DD0402BDED1FDF783FC686047
:1046500043232B70D8E71B029BB21844FDF7D4FC10
:10466000ECE76968FDF758FC10B960232B70CBE7C5
:1046700080232B7030232B7100236B710923AB71C6
:104680000623EB71C0E780232B7000232B716B7125
:104690000223AB710623EB71B6E7002229462046C0
:1046A000FFF7E4FEB0E7012229462046FFF7DEFED1
:1046B000AAE729462046FFF769FEA5E7402A09D068
:1046C00080232B7000232B716B710223AB710623A7
:1046D000EB7199E7E878FEF7B7FC686043232B702D
:1046E00092E7E878FEF7C2FC686043232B708BE703
:1046F00029462046FFF71AFE002885D18DE70000E5
:10470000F0B583B004461546037C03F5C0638B42C5
:1047100006D0467C06F5B0638B4205D003B0F0BDF1
:104720001146FFF71DFFF9E7B2F80170A7F54053F6
:104730009BB2012B08D92B78803B18BF012384F84A
:1047400078306B68E367E9E7D378ABB1012BF2D13E
:104750001349C06E04F05EFA04F022FC94F9723042
:1047600040EA03630193022300933B463246232130
:104770002046FFF7A9FDDEE7B0F8703090F873200F
:1047800043EA024390F9742043EA02630193012350
:1047900000933B4632462321FFF796FDCBE700BF4F
:1047A00000007A4410B50446B0F80130B3F5A04FCC
:1047B0000DD045F20202934232D0802323700023B1
:1047C000237163710223A3710623E37110BD027884
:1047D000402AEED143230370C378032B16D8DFE8B9
:1047E00003F002070C112C4BD3F8E8374360EDE7D8
:1047F000294BD3F8EC374360E8E7274BD3F8F03781
:104800004360E3E7FDF752FC6060DFE7802303705D
:10481000002303714371022383710623C371D5E71B
:104820002378232BC9D160232370E378032B29D865
:10483000DFE803F002182022184B1B784BB172B648
:10484000174B186808B1FFF71BFCFEF748FB62B670
:10485000BCE780232370002323716371A3710823B5
:10486000E371B3E772B6FEF795FB62B63F20FCF743
:10487000D9FDABE703F076FCFDF7DEFB3F20FCF74C
:10488000D1FDA3E7802323700023237163710223EA
:10489000A3710623E37199E700F0FF1F6808002069
:1048A000500B00202DE9F04184B00C4615461E4601
:1048B0009DF83070FDF7B8FBD0F804801449154B13
:1048C0001868FEF7CFF9E7B11349124B1868FEF7E5
:1048D000C9F94FF084410A9804F09CF90D4B1F6808
:1048E0009DF92C30039304F05BFB02900196009538
:1048F0002346424609493846FEF7B4F904B0BDE8FC
:10490000F0810749034B1868FEF7ACF9E1E700BFF7
:104910006C9A0008580B0020749A00087C9A0008D2
:10492000789A000870B504460846FDF73DFF054635
:104930002021FDF7EDFE0378A3B1002300F8013B31
:104940000521FDF7E4FF06462846FDF749FB402810
:1049500012D03146FDF7E0FA48B90A492046FEF781
:1049600081F903E008492046FEF77CF970BD07494C
:104970002046FEF777F9F9E72A4605492046FEF773
:1049800071F9F3E7AC9A0008909A0008B89A000809
:10499000D09A0008F8B507460846FDF705FF05461A
:1049A00009E02A460F493846FEF75CF9254605F826
:1049B000016B2C2E14D12C212846FDF7A9FE0446AC
:1049C0000678002303702846FDF70AFB4028E8D04C
:1049D000FDF7C0FA024604493846FEF743F9E5E719
:1049E000F8BD00BFF09A0008E89A00082DE9F041F0
:1049F00007460846FDF7D8FE80462021FDF788FED1
:104A000003789BB104460646002306F8013B404666
:104A1000FDF7E6FA0546402829D06378212B0AD015
:104A20007E2B08D02F2B06D0002406E013493846F1
:104A3000FEF718F90FE0A61C012431461048FDF7D7
:104A400049FE50B974B101212846FDF717FB0D4905
:104A50003846FEF707F9BDE8F0810B493846FEF706
:104A600001F9F8E701212846FDF700FBEFE7424690
:104A700006493846FEF7F6F8EDE700BF0C9B000844
:104A80001C9B0008349B0008249B0008D09A000857
:104A90002DE9F04F8BB007460846FDF785FE0378F9
:104AA000059346493846FEF7DDF800264FF020080A
:104AB00022E0434A039202930190CDF800A04B46B6
:104AC000424640493846FEF7CDF82846FDF7E4FA5D
:104AD00020B12846FDF7E0FA01285AD1E26823699F
:104AE0006169206802960190009137493846FEF7C7
:104AF000B9F84FF02C0801363E2E51D8F5B22846B1
:104B0000FDF792FA04462846FDF7C0FA10F0010FAF
:104B100002D0059B682BEED1D4F80490D4F808A0FD
:104B2000B4F818B02846FDF715FA0290CDF804B095
:104B3000CDF800A04B46424624493846FEF792F88D
:104B40000DF11F0303930DF11E03029309AB0193B3
:104B50000DF11D03009307AB08AA29461C48006805
:104B6000FEF74AFF0028B0D0DDF820809DF81C90A9
:104B70009DF91DA04FF08441099804F04BF804F012
:104B80000FFA9DF91E309DF81F20002A91D0114A7E
:104B900090E711493846FEF765F84FF02C08AAE770
:104BA0000E4BD3F8F0270E493846FEF75BF80D4957
:104BB0003846FEF757F80BB0BDE8F08F589B000859
:104BC000509B00088C9B0008F09B00085C9B000831
:104BD000540B0020489B0008DC9B000800F0FF1FDE
:104BE000409C00087C9C00082DE9F0478AB00446F0
:104BF0000023059306930793089309930846FDF74E
:104C0000D3FD0578702D39D0632D45D02021FDF7D7
:104C10007FFD0378002B48D0FDF7C6FD0746202115
:104C2000FDF776FD064603780BB9642D44D10023C9
:104C300006F8013B3846FDF7D3F981463046FDF7CB
:104C4000B3FD0646B9F1400F3BD0642D3ED04FF086
:104C500000084FF07E5AB8F1040F62DC2021304684
:104C6000FDF756FD07460378002B3AD1B8F1020F45
:104C700037DC55492046FDF7F5FF1AE0534B1B681A
:104C8000002BFBD1514D2C605149524B1868FEF757
:104C900036FF00232B600CE04E4B1868FEF787FFB1
:104CA0004D492046FDF7DEFF03E047492046FDF76A
:104CB000D9FF0AB0BDE8F08743492046FDF7D2FF8F
:104CC000F7E746492046FDF7CDFFF2E74946414B5D
:104CD0001868FEF751FE024641492046FDF7C2FF23
:104CE000E7E700233B703046FDF745FDB8F1030FC1
:104CF0000BD00AAB03EB880343F8140C781CFDF7C8
:104D000053FD064608F10108A5E710213046FDF7DE
:104D1000FEFD03F02BFF4FF05E5103F07BFF824658
:104D2000ECE7742D17D09DF924300293CDF804A040
:104D30009DF91C3000939DF81830059A4946254886
:104D40000068FFF7B6F8431D042B32D8DFE803F004
:104D5000262C201A14009DF924300293CDF804A0CB
:104D60009DF91C3000939DF81830059A4946194862
:104D70000068FFF785F8E6E7059A1A492046FDF72F
:104D800071FF96E7069A18492046FDF76BFF90E7FA
:104D9000079A16492046FDF765FF8AE7059A1449E8
:104DA0002046FDF75FFF84E712492046FDF75AFFD2
:104DB0007FE7012806DD104B024610492046FDF72B
:104DC00051FF76E70E4BF7E7AC9C0008580B00202C
:104DD000A5480008540B0020889C0008C09C0008CF
:104DE000D49C0008EC9C0008009D0008149D00085D
:104DF000289D0008509D0008849C00086C9D0008B8
:104E0000449B000810B504460C4B1B788BB172B65E
:104E10000B4B1868FFF734F90A492046FDF722FFCB
:104E2000FEF75DF8024662B607492046FDF71AFF15
:104E300010BD0649FDF716FFFAE700BF690800201C
:104E4000540B0020989D0008A89D0008C49D0008F0
:104E500010B5044672B6FEF79DF862B638B93F2029
:104E6000FCF7E0FA04492046FDF7FCFE10BD0349BB
:104E70002046FDF7F7FEF9E7089E00081C9E000893
:104E800008B503F06FF92DE9F84305468846174643
:104E9000002604E023782C2B16D1BE4214D22C21FC
:104EA0002846FDF735FC044690F800900023037077
:104EB0002846FDF795F8254605F8019B4028E9D0DE
:104EC00008F806000136E5E73046BDE8F883000043
:104ED0002DE9F04184B006460846FDF765FC04461E
:104EE000FDF749FC804620212046FDF711FC0378A0
:104EF0004BB10A2201A90130FFF7C5FF0746304632
:104F0000FDF7E2F820E019493046FDF7ABFE04B0AA
:104F1000BDE8F08104F110036B4413F80C0CFDF7AD
:104F200019F803462A4612493046FDF79BFE013424
:104F3000104DBC42EEDB10493046FDF793FEB8F150
:104F4000FF3F01D008F1FF383046FDF7B7F80028E1
:104F5000DDD1B8F1000F02DD084D0024E9E7B8F11A
:104F6000FF3FD4D1054D0024E3E700BF349E000885
:104F7000549E0008889B0008049E0008449B00087B
:104F800008B50138052870D8DFE800F00315273987
:104F90004B5D374B374A1A60374B384A1A60384BEB
:104FA000384A1A601420384B1860FCF7D9FF374B89
:104FB0001860012008BD2E4B354A1A602E4B354A29
:104FC0001A602F4B344A1A6015202F4B1860FCF7DB
:104FD000C7FF2E4B18600120ECE7254B2F4A1A60C3
:104FE000254B2F4A1A60264B2E4A1A601020264B5A
:104FF0001860FCF7B5FF254B18600120DAE71C4B61
:10500000294A1A601C4B294A1A601D4B284A1A600B
:1050100011201D4B1860FCF7A3FF1C4B18600120EA
:10502000C8E7134B234A1A60134B234A1A60144BE8
:10503000224A1A601320144B1860FCF791FF134B9F
:1050400018600120B6E70A4B1D4A1A600A4B1D4A38
:105050001A600B4B1C4A1A6012200B4B1860FCF7AD
:105060007FFF0A4B18600120A4E70020A2E700BFE1
:10507000640B002038090020600B00202809002064
:105080005C0B002030090020980B00209C0B0020B6
:10509000E8090020D8090020E0090020F8090020D4
:1050A00098090020A0090020900900207009002024
:1050B00078090020680900205809002060090020B4
:1050C00050090020400900204809002070B5002444
:1050D0000FE0174B1B689988186802F004FB154B0A
:1050E0001B689988186802F0FCFA134B00221A70AA
:1050F0002C46052C1BDC651C2846FFF741FFB0B190
:105100000E4B53F82430002BE3DD094E33689988A9
:10511000186802F0EEFA3068FCF71CF90028E7D0B6
:10512000064A52F82430013B42F82430E0E770BDD3
:105130005C0B0020600B00207C0B0020800B00200B
:105140002DE9F04104460D46FFF71AFF38B1254B13
:105150001B7823B9013C244B53F824300BB1BDE834
:10516000F081224B1878FCF7FBFE06465FFA80F8C8
:10517000FF220021284601F091F80546C7B2B84544
:1051800018D3B845EBD91A4B1B689988186802F0F8
:10519000AAFA184B1B689988186802F0A4FAE9B2B9
:1051A000F6B2761A104B43F82460104B1878FCF7CF
:1051B000F9FED4E70E4B1B689988186802F093FA41
:1051C0000C4B1B689988186802F08BFA39464346E5
:1051D000FB1A054A42F82430044B1878FCF7E2FE2B
:1051E000CFE700BF7C0B0020800B0020980B002035
:1051F000600B0020640B0020F8B5134B01221A70DD
:105200000024052C1EDC651C2846FFF7B9FEC8B13A
:105210000E4F002647F824600D4B1B6899881868CC
:1052200002F061FA0B4B1B689988186802F05BFA70
:10523000FF2347F824303146074B1878FCF7B2FEBD
:105240002C46DEE7F8BD00BF7C0B0020800B002061
:10525000600B0020640B0020980B002008B5054B64
:105260009988186802F03DFA00211620FCF79AFE92
:1052700008BD00BF0809002008B5054B99881868CB
:1052800002F031FA01211620FCF78CFE08BD00BFA8
:105290000809002008B5094B1B784BB901460528C1
:1052A00009D8074B18600B20FCF77CFE002008BDD6
:1052B0004FF0FF30FBE74FF0FF30F8E7700B0020B6
:1052C000780B0020F8B55C4B1E68304603F0AEFE4C
:1052D00005460224012700E00134052C0ADC574B67
:1052E00053F82400301A03F0A1FE8542F4DD054690
:1052F0002746F1E7524B1F60524B1B7833BB524B92
:105300001B68002B42D04D4A52F82340A41B204674
:1053100003F08CFE0A287DDD02F022FC4B4B1B685B
:10532000B34244D0494B1E60494B1860002C63DDEA
:10533000484B01221A70484B9988186802F0D1F93D
:10534000464B9988186802F0CEF92FE002F008FC6D
:105350003E4B1B68B34204D03C4B1E603C4B186074
:1053600024E03B4B1B68C01A63281FD93A4B99882D
:10537000186802F0B8F9394B9988186802F0B3F947
:1053800000232D4A13602F4A13700FE0324B998887
:10539000186802F0A8F9314B9988186802F0A3F94F
:1053A0002A4B1E6002F0DCFB294B1860F8BD284B2D
:1053B0001B68C01A6328B9D9274B9988186802F06E
:1053C00092F9264B9988186802F08DF91E4B1B68DC
:1053D000012B06D0052B0BD1174B40F2B6321A60C9
:1053E00002E0154B00221A60174B00221A60DDE71D
:1053F0000A20FDF703FEF7E7164B00221A70164B42
:105400009988186802F06FF9144B9988186802F0AF
:1054100068F9CBE7104B9988186802F064F90F4BD4
:105420009988186802F05FF9084B1E6002F098FB3B
:10543000074B1860BAE700BFAC08002078A000084E
:10544000740B0020700B0020780B0020680B0020EC
:105450006C0B00206A0800208809002080090020C9
:10546000014B1868704700BF740B002008B50D4B46
:1054700001221A7000230C4A13600C4A13700C4B63
:105480009988186802F02FF90A4B9988186802F079
:1054900028F902F065FB084B1860084B1A68084BA6
:1054A0001A6008BD700B0020780B00206A080020ED
:1054B00088090020800900206C0B0020AC08002027
:1054C000680B0020CBB203EB1123002203E0815CC8
:1054D0000B449BB20132062AF9DDD8B270470000B6
:1054E00008B559B10122824009490B7813430B706A
:1054F000074B19783020FCF755FD08BD0123834088
:10550000DB435BB202490A7813400B70F0E700BF3F
:10551000AE0B002030B583B005460820FCF720FD17
:1055200004462D20FCF71CFD8DF8000003128DF8B9
:1055300001308DF8024024128DF8034000238DF8CD
:105540000430984211DD01238DF8053000238DF8D9
:1055500006308DF807302B685C6808236A4640F2F5
:10556000A1212846A04703B030BD0023ECE700008E
:1055700010B504460920FCF7F3FC01280ED00228E0
:105580000ED002F0EDFA95280CD9094B53F82430CF
:1055900053B1C01A322809D9012002E0012000E0ED
:1055A000002010BD0020FCE70120FAE70020F8E70A
:1055B000B00B002070B582B004460120FFF7D8FF81
:1055C000054660B140F2FF13009300230193236866
:1055D0005E6802236A4640F2D1212046B047294640
:1055E0000120FFF77DFF02B070BD000070B582B0F2
:1055F000044689238DF8003042238DF80130722350
:105600008DF8023085238DF8033001238DF80430A6
:105610002C238DF80530134B1B781B0143F002033C
:105620008DF8063040F2A1316846FFF74BFF8DF848
:1056300007000320FFF79CFF054638B123685E682A
:1056400008236A4640F2A1312046B047294603208C
:10565000FFF746FF034A1378013303F00F0313707B
:1056600002B070BDAB0B002070B582B004460220C2
:10567000FFF77EFF054660B1094B6A4693E80300D9
:10568000CDE9000123685E68082340F221312046FD
:10569000B04729460220FFF723FF02B070BD00BFCC
:1056A0009CA0000870B582B00446002300930193CB
:1056B000264B1B789BBB41238DF8003001238DF8CE
:1056C000013005238DF80230214B1B781B018DF82A
:1056D000063040F221216846FFF7F4FE8DF80700FE
:1056E0000020FFF745FF054638B123685E680823B0
:1056F0006A4640F221212046B04729460020FFF7A4
:10570000EFFE124A1378B3FA83F35B091370104A61
:105710001378013303F00F03137002B070BD402300
:105720008DF8003041238DF8013005238DF80230CB
:1057300015238DF8033050238DF80530044B1B786A
:105740001B0143F001038DF80630C2E7AD0B0020CA
:10575000AC0B002070B582B004462D4B1B78002B9B
:105760003BD103238DF8003019238DF801306422DA
:105770008DF8022032228DF803208DF804300023AA
:105780008DF80530234B1B781B018DF8063040F255
:1057900045516846FFF796FE8DF807000420FFF795
:1057A000E7FE054638B123685E6808236A4640F282
:1057B00045512046B04729460420FFF791FE144A80
:1057C0001378B3FA83F35B091370124A1378013329
:1057D00003F00F03137002B070BD14238DF8003076
:1057E00000238DF801303F238DF8023070238DF8AF
:1057F00003309F238DF8043001238DF80530054BCD
:105800001B781B0143F00A038DF80630BFE700BF89
:10581000AA0B0020A90B00202DE9F843044602F052
:105820009FF9324B186021786278130203F4E06329
:105830001943A3785F0107F4787747EAD207E57840
:10584000ED0045EA531594F804806279130203F4DD
:10585000807348EA0308A679F60106F4F06646EA82
:10586000520694F8079009F00F0901EB81014900F5
:105870002C20FCF797FB384603F078F91C4903F01D
:10588000C9F901462E20FCF79BFB404603F06EF958
:10589000174903F0BFF901463420FCF791FB30466D
:1058A00003F064F94FF07C5103F0B4F90146332062
:1058B000FCF786FB49463120FCF774FBE179C90906
:1058C0003220FCF76FFB05EB850569002F20FCF704
:1058D00069FBB9F1030F04D0B9F10F0F01D0BDE896
:1058E000F8830220FDF78AFBF9E700BFC80B002010
:1058F000CDCCCC3D03780A2B00D0704710B50446C0
:105900000379417943EA01213520FCF74BFBA37968
:10591000E17943EA01213620FCF744FB10BD000089
:1059200010B5044641783720FCF73CFB61792839F3
:105930003820FCF737FBA17928393920FCF732FBF6
:10594000637813F0010F03D1094B00221A6010BDD8
:1059500002F006F9064B1B6813B9054B1860F6E711
:10596000C01A6428F3D90120FDF748FBEFE700BF18
:10597000C40B002010B50024042C0BDC064B33F8BC
:105980001430834201D00134F6E702F0E9F8034B0A
:1059900043F8240010BD00BF90A00008B00B002009
:1059A00010B50446124B1B6883B92046FFF7B2FDC1
:1059B0002046FFF7FFFD2046FFF718FE0D4A13783B
:1059C0000133DBB21370092B0BD810BD02F0C8F8FD
:1059D000074B1B68C01A3128E7D90120FDF70EFBE1
:1059E000E3E7134600221A702046FFF73DFEECE77E
:1059F000C80B0020A80B002010B50446FFF752FE8C
:105A00002046FFF7A7FE10BD08B56422002100F074
:105A100045FC00EB800041002D20FCF7C3FA08BDD7
:105A200008B52E20FCF79CFA08BD000010B504460E
:105A300001462720FCF7B6FA64220021204600F038
:105A40002DFC4CF2503300220249C0B200F030FC71
:105A500010BD00BF0008004010B5044601462920D3
:105A6000FCF7A0FA64220021204600F017FC4CF25B
:105A7000503302220249C0B200F01AFC10BD00BF30
:105A80000008004008B5074B1B6843B1054B186878
:105A900003F068F80146044803F070F908BD0020DF
:105AA000FCE700BFA8080020C0E1E44B08B5074BA5
:105AB0001B6843B1054B186803F054F801460448CD
:105AC00003F05CF908BD0020FCE700BFA40800203B
:105AD000C0E1E44B10B502F043F80446164B1B78C6
:105AE00023B1154B00221A70144B1860144B1B780D
:105AF00023B1134B00221A70124B1C602720FCF7B5
:105B00002FFA052804DD0D4B1B68E31AC72B0AD8B2
:105B10002920FCF725FA052804DD0A4B1B68E41A46
:105B2000C72C04D810BD0820FDF768FAF0E709205B
:105B3000FDF764FAF6E700BFA2080020A40B0020DE
:105B4000A1080020A00B002010B504460A4903F06C
:105B500013FA50B90949204603F00EFA38B908493A
:105B6000204603F009FA20B910BD0320FCE702200B
:105B7000FAE70120F8E700BF0000E4410000B0416F
:105B80000000384108B5022300221146074801F001
:105B900073FD074801F084F9054801F043F9002836
:105BA000FAD0034801F042F980B208BD000C014070
:105BB0000028014010B50446022300221946074878
:105BC00001F05AFD24B10221044801F08AFD10BD04
:105BD0000221024801F087FDF9E700BF000C0140F7
:105BE00038B500242C4D22462B462C4800F0C0FC32
:105BF00022462B462A4800F0BBFC22462B46294869
:105C000000F0B6FC22462B46274800F0B1FC2246A5
:105C10002B46264800F0ACFC22462B46244800F0D8
:105C2000A7FC22462B46234800F0A2FC22462B4626
:105C3000214800F09DFC16A3D3E900231F4800F083
:105C400097FC22462B461E4800F092FC22462B462B
:105C50001C4800F08DFC22462B461B4800F088FCB7
:105C600022462B46194800F083FC22462B46184852
:105C700000F07EFC22462B46164800F079FC2246B6
:105C80002B46154800F074FC38BD00BFAFF3008010
:105C9000333333333333D33F0000E03F480D00202C
:105CA000300D0020180D0020000D0020E80C002011
:105CB000D00C0020B80C0020A00C0020880C002084
:105CC000700C0020580C0020400C0020280C0020F4
:105CD000100C0020F80B0020E00B002038B501F07C
:105CE0003FFF04462F4B1B78012B0BD0022B17D004
:105CF0003BB90020FFF75EFF2B4B1C60294B0122B4
:105D00001A7038BD284B1B68C31A632BF9D90120C0
:105D1000FFF750FF244B1C60224B02221A70F0E761
:105D2000FFF730FF204B1D68651B40F2DB539842A4
:105D300001D8632D31D90020FFF73CFF1A4B1C60BE
:105D4000184B01221A70284602F00CFF174902F086
:105D500061FF174903F012F8164902F05BFF16497C
:105D600002F058FF02F08EFB02460B46134800F08B
:105D70000CFC02F0F1FD0546FFF7E6FE044629465D
:105D80002120FCF71DF921462020FCF70BF9012CFE
:105D9000B7D80720FDF732F9B3E70120FFF70AFF74
:105DA000AFE700BFD40B0020D00B00200AD7233C64
:105DB00000401C460024744985EB513F880C0020AC
:105DC0002DE9F04F87B0B548FDF71CF8039002F0BD
:105DD000C9FE0646B248FDF715F8049002F0C2FE6F
:105DE0000546B048FDF70EF8059002F0BBFE0746E9
:105DF0004FF000094FF08B48DFF8ACB2AB4C236892
:105E000000934B4642465946304600F02BFA064670
:105E1000DFF89CA2DAF8003000934B464246A549D1
:105E2000284600F01FFA0546236800934B46424679
:105E30005946384600F016FA0746206803F0B0F8D5
:105E40008046304603F0ACF84246002100F026FAC6
:105E500002F08CFE0646DAF8000003F0A1F8804656
:105E6000284603F09DF84246002100F017FA02F0A0
:105E70007DFE0546206803F093F80446384603F09B
:105E80008FF82246002100F009FA02F06FFE044666
:105E9000304602F0F7FA02460B46874800F075FBE1
:105EA00002F05AFD01461720FCF78AF8284602F056
:105EB000E9FA02460B46814800F067FB02F04CFD10
:105EC00001461820FCF77CF8204602F0DBFA024677
:105ED0000B467B4800F059FB02F03EFD01461920BD
:105EE000FCF76EF87748FCF78DFF042100F0CCFA40
:105EF00004467548FCF786FF042100F0C5FA054604
:105F00007248FCF77FFF042100F0BEFA804670481B
:105F1000FCF778FF062100F0B7FA82466D48FCF7DF
:105F200071FF062100F0B0FA83466B48FCF76AFF68
:105F3000062100F0A9FA8146204602F0A3FA0246A3
:105F40000B46664800F021FB06460F46644B186876
:105F500002F098FA02460B463046394602F032F912
:105F600002F0FAFC01461A20FCF72AF8284602F053
:105F700089FA02460B465B4800F007FB06460F46CF
:105F8000594B186802F07EFA02460B4630463946F5
:105F900002F018F902F0E0FC01461B20FCF710F8B3
:105FA000404602F06FFA02460B46504800F0EDFA08
:105FB00006460F464E4B186802F064FA02460B463E
:105FC0003046394602F0FEF802F0C6FC01461C20BD
:105FD000FBF7F6FF474B1B7853B3474B1B78002B5F
:105FE00041D0484602F04EFA02460B46434800F0C4
:105FF000CCFA02F0B1FC01461F20FBF7E1FF039A47
:10600000052A40F2858040F6F9739A4200F2CB806F
:10601000049A052A40F2C9809A4200F2C880059A83
:10602000052A40F2C6809A4200F2C580002670E040
:10603000504602F027FA02460B46314800F0A5FA16
:1060400006460F462F4B186802F01CFA02460B4614
:106050003046394602F0B6F802F07EFC01461D20BB
:10606000FBF7AEFFB9E7584602F00CFA02460B46C2
:10607000254800F08AFA06460F46244B186802F0BD
:1060800001FA02460B463046394602F09BF802F010
:1060900063FC01461E20FBF793FFA2E7140A0020D1
:1060A000300A00202C0A00200080134478080020C9
:1060B0007C0800200000B943480D0020300D00206E
:1060C000180D0020200A00201C0A0020180A0020B9
:1060D000240A00200C0A0020280A0020000D0020BD
:1060E00074080020E80C002070080020D00C00206C
:1060F0006C080020620D0020610D0020100C0020B3
:10610000B80C0020DC0B0020A00C0020D80B0020D5
:1061100001264649204602F025FF00284DD144497A
:10612000204602F029FF00285DD14049284602F0B0
:1061300019FF002859D13E49284602F01DFF0028CA
:1061400055D13A49404602F00DFF002851D1384957
:10615000404602F011FF00284DD13649504602F06A
:1061600001FF002849D13449504602F005FF0028BC
:1061700045D13049584602F0F5FE002841D12E495C
:10618000584602F0F9FE00283DD12A49484602F05F
:10619000E9FE002839D12849484602F0EDFE0028E2
:1061A00035D100240AE00126B3E70126B1E7012634
:1061B000AFE70126ADE70126ABE701244EB31F4B45
:1061C0001B8801339BB21D4A1380132B23D834B391
:1061D0001B4B1B8801339BB2194A1380132B20D809
:1061E00007B0BDE8F08F0124E8E70124E6E70124C9
:1061F000E4E70124E2E70124E0E70124DEE70124EB
:10620000DCE70124DAE70124D8E70124D6E70124FA
:10621000D4E70023D7E70520FCF7F0FED7E70023FB
:10622000DAE70620FCF7EAFEDAE700BF0000F0C17B
:106230000000DC42000020C20000F042CE0B002033
:10624000CC0B002008B5FFF7CBFC08BDA0EB010C80
:106250000098C01A00FB0CFC521A9CFBF2FC0CEBE1
:1062600003007047F8B50F4616461C4602F0C8FBFF
:1062700005462146069802F0C3FB0146284602F077
:10628000C9FC05463946304602F0BAFB01462846AD
:1062900002F074FD214602F0B5FBF8BD904202DC2D
:1062A000884202DB7047104670470846704700007E
:1062B00038B58446084611461A46BCF1640F01D928
:1062C0004FF0640C531CACFB03C3CCF3130E4FEA2A
:1062D0001C5444EA0334C4F31304A644C3F3132444
:1062E000A6440EEB137E104CA4FB0E54E40804EB02
:1062F000840404EB8404AEEB040EBCEB0E0C63F1DF
:1063000000040A4D0A4B03FB0CF305FB0433ACFB02
:1063100005C52B444FEA9C0C4CEA837C624500D3B4
:10632000624601F0D4FD38BD1F85EB51295C8FC258
:10633000F5285C8F10B5044601F012FC1D4B186067
:1063400021782220FBF72EFE61782320FBF72AFE1E
:10635000A1782420FBF726FEE1782520FBF722FE1A
:106360002079431EDBB2FD2B94BF01220022124B89
:106370001A700AD96079431EDBB2FD2B94BF01224B
:1063800000220E4B1A700AD910BD02F0EBFB0C492B
:1063900002F036FB01461D20FBF712FEEAE702F091
:1063A000E1FB074902F02CFB01461E20FBF708FE2B
:1063B000EAE700BF640D0020620D0020610D00209F
:1063C00000002042F0B583B00746002600960196F3
:1063D0003A20FBF7C5FD00F003053120FBF7C0FDB7
:1063E00004460C20FBF7BCFDA30003F03C032B4349
:1063F00043EA80138DF80030344601E00134E4B202
:106400000F2C12D82046FCF71FFE05462046FCF74D
:106410002DFE0028F2D0002DF0D0102DEED8013D39
:106420000123AB4033439EB2E8E78DF80160360AA2
:106430008DF802600F20FBF793FD8DF803002F20ED
:10644000FBF78EFD00F132030D4880FB0320DB17C4
:10645000FF220021C3EB6010FFF720FF8DF804003E
:10646000084A1378591C11708DF805303B685C6838
:1064700006236A4640F2E1613846A04703B0F0BD0A
:106480001F85EB51600D002006296CD82DE9F047DF
:106490000C46002635463CE080454DDB50E0012FA0
:1064A00029D0A0EB080002F061FB8146012F28D023
:1064B000A6EB080002F05AFB0646DFF8B0A0670022
:1064C00004EB44030AEB830393F80480404602F094
:1064D0004DFB494602F09EFB314602F04FFC06465A
:1064E00027443AF9270005FB080002F03FFB31463C
:1064F00002F086FA35E0A8EB000002F037FB814697
:10650000D4E7A8EB060002F031FB0646D5E70135DB
:10651000464604EB4402154B03EB82035B79AB4226
:1065200018D904EB4402114B03EB82039A6832F84A
:1065300015809F79012FAFD0002FE8D18045E6DC90
:10654000002DACD104EB4404084B33F9240002F0D5
:106550000DFB06E0054B03EB8203B3F9020002F0EA
:1065600005FBBDE8F0870020704700BFA4A000082D
:1065700030B400240025C0E90045C0E902450024EC
:106580000474C0E9022330BC70472DE9D0430446AF
:1065900010461946237CCBB1D4E90289D4E90067BF
:1065A00032463B4601F00EFE02460B464046494647
:1065B00001F0C0FF02460B463046394601F004FEAA
:1065C000C4E90001D4E90001BDE8D083C4E90001B9
:1065D00001232374F6E770B515461C465A2B02D8E2
:1065E0004F2C1AD970BD0720FBF7BAFC06461B20BA
:1065F000FBF7B6FC301A02F0B9FA4FF0804102F016
:10660000C5FC0028ECD02B78053BDAB213F0800FE4
:1066100001D02A70E6E78022FBE70220FBF7A0FC0E
:1066200004461D20FBF79CFC201A02F09FFA4FF055
:10663000804102F0ABFC0028D4D02B7805332B70BE
:10664000D0E770B50D4614465A2A02D84F2C14D9FB
:1066500070BD1A20FBF784FC06460620FBF780FC81
:10666000301A02F083FA4FF0804102F08FFC0028CC
:10667000ECD02B78053B2B70EAE71D20FBF770FC74
:1066800004460320FBF76CFC201A02F06FFA4FF06F
:10669000804102F07BFC0028DAD02B7805332B7088
:1066A000D6E770B5044600260660C0F803602320D4
:1066B000FBF76CFC20702420FBF768FC6070222044
:1066C000FBF764FCA0701D20FBF74AFC0546022086
:1066D000FBF746FCA842D4BF00200120E070032055
:1066E000FBF73EFCA842ACBF0020012020711E2019
:1066F000FBF736FC05460520FBF732FCA842ACBF91
:10670000002301236371A671A378CBB10122237901
:10671000C3B102231A43A84216DA04231343227892
:10672000A2B108221A43637893B110231343E2788D
:1067300082B1202119430F20FBF734FC204670BDA5
:106740000022E4E70023E5E70023E7E70022E9E78A
:106750000023EBE70021EDE7F8B507460C461546A8
:106760001F20FBF7FDFB02F001FA06461D20FBF798
:10677000F7FB02F0FBF98446FA7882F0010201236C
:1067800023602271A0604FF0000EC4F80CE0237467
:106790006661084A183407CA84E807003A795A4003
:1067A0002B602A71C5F808C0C5F80CE02B746E6127
:1067B000F8BD00BF30A300082DE9F04707460D469D
:1067C0000024DFF86490264605E0184902F018F925
:1067D000824616E00134022C1CDC04EB44034FEA31
:1067E000830805EB83031A79002AF3D099683846A9
:1067F00002F006F9824655F808800D4B1B68984553
:10680000E3D05146484602F0C1FB0028E2D0D14611
:106810004646DFE7064B1E6031460E20FBF7C2FB03
:106820003046BDE8F08700BFFFFF7F7F0000A0403B
:10683000840800202DE9F04707460D4600246FF438
:106840000009264605E0174902F0DCF8824616E00A
:106850000134012C1CDC04EB44034FEA830805EBF4
:1068600083031A79002AF3D09968384602F0C8F8F1
:10687000824655F808800C4B1B689845E3D051467A
:10688000484602F065FB0028E2D0D1464646DFE7E5
:10689000054B1E6031460D20FBF784FB3046BDE8FA
:1068A000F08700BF0000A040800800202DE9F041E3
:1068B000074688461820FBF753FB02F057F90546B8
:1068C0001920FBF74DFB02F051F90646FFF7A8F837
:1068D00004465849284602F059FB002865D14FF07C
:1068E0007E51304602F034FB002873D141463846D1
:1068F00002F086F80546504B196802F08BF94F4EAE
:10690000316802F07FF8044630604D4B1968284624
:1069100002F080F9002102F01BFB00286FD1484BE8
:106920001D60464B1E684749304602F073F9294600
:1069300002F068F80446444902F00AFB00B9424CF0
:106940000021204602F022FB00B900243E492046E7
:1069500002F012FB78B129463B4802F051F8394960
:1069600002F00CFA07460146304602F00FFB002801
:106970004CD1324B1E600021204602F0F3FA002871
:1069800046D1204602F032FBC0B2FFF73DF82F4956
:10699000204602F03FF902F029FBFF220521C0B298
:1069A000FFF77CFCC0B2BDE8F0810320FCF726FBBA
:1069B000E4B2013C002C00DC0024E0B2FFF724F834
:1069C000204602F0D3F8214902F024F902F00EFB30
:1069D000C0B2E8E70420FCF711FBE4B2013C002C54
:1069E00000DC0024E0B2FFF70FF8204602F0BEF80A
:1069F000164902F00FF902F0F9FAC0B2D3E74FF0EE
:106A00007C51204602F006F9306088E73E46B0E748
:106A100005F100400B4902F0B1F90646074B1D682D
:106A2000294602F0B3FA10B9044B1D60A9E73546B8
:106A3000FAE700BF0000F041880800206C0D00203C
:106A4000680D0020CDCCCC3D0000C842333323403C
:106A500070B594B012AC2046FFF723FE03AA09A933
:106A60002046FFF779FE1F20FBF77AFA02F07EF846
:106A700002F096FA04463C23009328230A226FF082
:106A80001301FFF7E3FB05463B2800DD3C25282DDD
:106A900000DC28250A230093052332221E212046EC
:106AA000FFF7D4FB0446092800DD0A24052C00DC8E
:106AB0000524284602F05AF809A9FFF77DFE05468D
:106AC000204602F053F803A9FFF7B4FE0646202043
:106AD000FBF746FA04462D20FBF742FA6422142104
