:020000040800F2
:101000000050002055840008518400084F840008D7
:101010004F8400084F8400084F840008000000003F
:1010200000000000000000000000000051840008E3
:101030005184000800000000518400085184000819
:101040004F8400084F8400084F8400084F84000834
:101050004F8400084F8400084F8400084F84000824
:101060004F8400084F8400084F8400084F84000814
:101070004F8400084F8400084F8400084F84000804
:101080004F8400084F8400084F840008653600082C
:1010900045360008553600084F84000855140008EE
:1010A0004F8400084F8400084F8400084F840008D4
:1010B0004F840008451400088D1400084F84000870
:1010C0004F8400084F8400084F8400084F840008B4
:1010D0004F8400084F8400084F8400084F840008A4
:1010E0004F8400084F8400084F8400084F84000894
:1010F0004F8400084F8400084F8400084F84000884
:101100004F8400084F8400084F8400084F84000873
:101110004F8400084F8400084F8400084F84000863
:101120004F8400084F8400084F8400084F84000853
:101130004F8400084F8400084F840008933600084D
:1011400073360008833600084F8400084F84000877
:1011500008B58446084611461A46DCF8043098471C
:1011600008BD08B58368984708BD00B54FF0000C6E
:10117000E64604E000BF1CF1010C4EF1000E4B01ED
:1011800043EAD0634201121A63EB01039B0043EA76
:1011900092739200121841EB03031B0143EA12738E
:1011A000120194457EEB0303E4DB00BD10B506F0AD
:1011B00083FC1D4B186800F08EFE07F0B3FE1B4940
:1011C00007F0B8FF01463F2000F0FCFE184801F090
:1011D0002BFE07F0A3FE174907F0ACFF01463E20A7
:1011E00000F0F0FE06F096FE01F014FF124C2068AD
:1011F00005F01CF9206804F019FC04F023FE05F04A
:1012000095FD0E4B186802F0E1FA0D4B1B782BB9D7
:101210000B4A137883F00103137010BD094B9988B2
:10122000186806F040FCF3E7E008002000002041C9
:10123000300A002000004B43DC080020D8080020C2
:10124000C0080020C809002008B5024B186804F047
:1012500019FC08BDDC08002008B503F079FF08BDC3
:1012600008B5034640F22132904223D008460BD9FC
:1012700040F2455293421DD025D840F26632934247
:101280001CD104F07DFB23E040F2C722934221D021
:10129000B3F5327F0AD240F2212293420AD040F2C3
:1012A000A722934214D104F001FB11E040F2D122B5
:1012B00093420DD1184604F0A3FB09E040F2A1329D
:1012C000934205D1F6E7B3F5DC6F01D105F066F87E
:1012D000002008BD04F06AFBFAE7000010B51C4CC2
:1012E00000224FF4DC61206802F001FA002240F293
:1012F000A721206802F0FBF9002240F2C7212068F4
:1013000002F0F5F9002240F26631206802F0EFF9B0
:10131000002240F22121206802F0E9F9002240F287
:10132000D121206802F0E3F9002240F22131206847
:1013300002F0DDF9002240F2A131206802F0D7F975
:10134000002240F24551206802F0D1F910BD00BFE3
:10135000DC08002010B504468188006806F0A0FB78
:10136000003818BF0120A379181A18BF012010BD3A
:1013700008B5244B1B6833B106F0CCFD214B1B682C
:10138000C01AC72820D92048FFF7E4FF01462420CF
:1013900000F00AFE1D48FFF7DDFF0146252000F0A2
:1013A00003FE1B48FFF7D6FF0146232000F0FCFD9B
:1013B0001848FFF7CFFF0146262000F0F5FD002377
:1013C000154A1370154A137004F09CFB07F0C4FF14
:1013D0000146272000F0E8FD04F0A8FB07F0BCFF61
:1013E0000146292000F0E0FD04F0B4FB03F0B0FF5B
:1013F00004F07CF801460B2000F0D6FD04F0AEFCB2
:1014000008BD00BF840D00203009002040090020E5
:1014100038090020100A0020820D0020810D0020D4
:10142000FEE7000000B1704710B5054B1B681C4675
:1014300000F098FDC1B2204602F06EFF10BD00BF63
:10144000D408002008B5024B186800F00BFD08BD59
:10145000E008002008B54FF4807006F0E3F950B1C1
:10146000084B1B7843B1084A1368013313604FF4EB
:10147000807006F0D1F908BD034A1368013B136080
:10148000F5E700BF8A080020CC08002008B5082135
:10149000214806F0A1FD28B910211F4806F09CFD47
:1014A000E8B908BD02211C4806F001FF1B4B1B6870
:1014B0003BB183420CD8C31A194A1360194B01225D
:1014C0001A70164B18600821134806F08BFDE3E7ED
:1014D000C31A03F543435033114A1360EEE7032167
:1014E0000D4806F0E4FE104B1B683BB183420CD85C
:1014F000C31A0E4A13600E4B01221A700A4B186071
:101500001021054806F06EFDCBE7C31A03F54343EF
:101510005033064A1360EEE700080040BC08002084
:10152000C8080020C2080020B8080020C408002015
:10153000C1080020F0B5ADF61C0D00F04BFA00F02C
:101540000FFBCC4E00223146CB4801F0B1FC01220A
:101550003146CA4801F0ACFC03223146C84801F0CC
:10156000A7FCC84D00222946C74801F0A1FCC74C82
:1015700000222146C64801F09BFC01222146C548B5
:1015800001F096FC02222146C34801F091FC03229F
:101590002146C24801F08CFC04222146C04801F0DB
:1015A00087FC05222146BF4801F082FC04234FF44A
:1015B00080723146BC4801F03AF907234FF40042EB
:1015C0003146BA4801F033F9002304222946B848CD
:1015D00001F02DF9072308222946B64801F027F922
:1015E000072310222946B44801F021F907232022BD
:1015F0002946B24801F01BF9092340222946B04888
:1016000001F015F9092380222946AE4801F00FF9AF
:1016100004234FF480722946AB4801F008F90423F3
:101620004FF400722946A94801F001F909234FF44B
:1016300000622946A64801F0FAF807234FF48042D9
:101640002946A44801F0F3F807234FF480622146AD
:10165000A14801F0ECF807234FF4006221469F48AF
:1016600001F0E5F807234FF4805221469C4801F031
:10167000DEF807234FF4005221469A4801F0D7F8CC
:1016800007234FF480422146974801F0D0F804F533
:101690008064072301222146944801F0C8F80723FB
:1016A00002222146924801F0C2F807230422214673
:1016B000904801F0BCF80723082221468E4801F02B
:1016C000B6F80723102221468C4801F0B0F8072312
:1016D000202221468A4801F0AAF807234022214609
:1016E000884801F0A4F8072380222146864801F0AB
:1016F0009EF804F58064072304222146834801F004
:1017000096F8072308222146814801F090F8072324
:10171000102221467F4801F08AF800234FF480729E
:1017200021467D4801F083F800234FF400722146E2
:101730007A4801F07CF800234FF480622146784813
:1017400001F075F807234FF400622146754801F057
:101750006EF801F0E1FA00F0F9FA00F091F900F00A
:10176000D7F901F029FC00F005FA0DF2EC5401263E
:101770000196009600236C4A6C49204600F0C8FC94
:101780006B4B1C600DF5BC656A4BCDF8E0356A4BC0
:10179000CDF8E035694BCDF8E435694BCDF8E83547
:1017A000E1AC002302226749204601F091FE664B1E
:1017B0001C602946204601F08BFFFFF78FFD32ADFC
:1017C00032462146284602F01BFD604F3D60604BCB
:1017D0001D600FAE2A462146304602F06BFD5D4B80
:1017E0001E60002000F0BEFBC1B2304602F094FD46
:1017F0003A68594B1A60594D05AC2946204600F00D
:10180000D7FA574B1968C1F35911564BA3FB013155
:1018100089090139284606F006FC534B1C60032257
:101820005249204600F0E8FA14225149204600F0BF
:10183000E3FA64224F49204600F0DEFAC8224E49FE
:10184000204600F0D9FA00213C2000F0ADFB4020FA
:10185000FFF7E8FD0A200021FFF787FC03F012FDE7
:1018600064200021FFF781FC03F046FE98E01C464F
:101870009FE000BF00080140500A00204C0A0020F1
:10188000480A0020000C0140440A002000100140DA
:10189000400A00203C0A0020380A0020340A0020B8
:1018A000300A00202C0A0020200A0020180A0020FC
:1018B000100A0020080A0020000A0020F809002071
:1018C000F0090020E8090020E0090020D8090020E4
:1018D000D0090020C8090020C0090020B809002054
:1018E000B0090020A8090020A009002098090020C4
:1018F0009009002088090020800900207809002034
:1019000070090020680900206009002058090020A3
:101910005009002048090020400900203809002013
:101920003009002028090020B0A20008003801403A
:10193000D0080020F4930008049400086112000805
:10194000DD12000800640040DC080020D8080020F8
:10195000740B0020D4080020700B0020000400400D
:10196000B4080020632D3E05E0080020591200084D
:101970007113000849120008AD11000804300DF180
:101980000B0103F0BBF85CB103AB94E8030083E800
:101990000300204602F038FF21460FA802F0E5FCC4
:1019A00000228DF80B209DF8C430002B3FF45FAF70
:1019B0002FAC064B186800F095FD054B186843697D
:1019C000002BE0D10028D9D1D9E700BFD0080020F2
:1019D000D408002008B5274806F0BCF94FF0E023F2
:1019E000254AC3F80C2D40F2023006F011FA40F2FD
:1019F000033006F00DFA4FF4417006F009FA40F298
:101A0000053006F005FA40F2063006F001FA40F221
:101A10000E3006F0FDF940F20B3006F0F9F94FF404
:101A2000607006F0F5F940F2813006F0F1F940F20D
:101A3000823006F0EDF94FF4207006F0E9F940F23B
:101A4000093006F0E5F940F20A3006F0E1F940F21B
:101A5000862006F0DDF94FF4407006F0D9F940F227
:101A6000993006F0D5F9054A536843F40073536082
:101A700008BD00BFA4A700080003FA05000001404C
:101A800030B597B005F00AFE00F5FF3505F2FD15FB
:101A9000AD0201AC14220021204600F0C2FE1A4B18
:101AA00001931823ADF8083001238DF80A30002285
:101AB0008DF80B20154903914FF44071ADF81010CB
:101AC0008DF812208DF8133005F0CCFD142120463E
:101AD00005F0D6FD15902B6D834201D117B030BDB6
:101AE00005F07EFF284605F037FF002407E001AB34
:101AF00053F8241005EB840005F08CFF0134142CFE
:101B0000F5D905F079FFE9E700100140000C01402C
:101B100008B51D2006F00AFD00211D2006F012FD6B
:101B20001E2006F003FD01211E2006F00BFD0B49CF
:101B30004FF4807005F07EFE02214FF4807005F0B6
:101B400039FE4FF4807005F059FE172006F0EEFCC8
:101B50000221172006F0F6FC08BD00BF0008014076
:101B600008B54FF41C71032006F00CFA002006F0B3
:101B7000DBF908BD38B54FF0804006F04FFA0A2176
:101B80004FF0804006F04FFA00214FF0804006F001
:101B900031FA4FF6FF714FF0804006F046FA4FF0F1
:101BA000804006F022FA674D4FF40063022211468E
:101BB000284605F03BFF062211464FF0804006F014
:101BC00036FA06214FF0804006F0F7FA06214FF072
:101BD000804006F00CFB06214FF0804006F02CFB05
:101BE000002206214FF0804006F04BFB4FF480634B
:101BF00002221146284605F019FF062204214FF063
:101C0000804006F014FA04214FF0804006F0D5FA27
:101C100004214FF0804006F0EAFA04214FF08040A2
:101C200006F00AFB002204214FF0804006F029FB59
:101C30004FF0804006F0EDF94FF44073012200218F
:101C4000284605F0F3FE404C204606F0E7F98F21C8
:101C5000204606F0E8F94CF25031204606F0E5F94E
:101C6000204606F0D1F90F220221204606F02EFB75
:101C700005220221204606F051FB002202212046C7
:101C800006F09AF90221204606F07BFB0821204647
:101C900006F09EF900220321204606F017FB0622DB
:101CA0000321204606F03AFB00220321204606F0DD
:101CB00083F90321204606F064FB1021204606F03C
:101CC00087F9402302221146284605F0AFFE06227E
:101CD0000021204606F0ABF90021204606F06DFAFF
:101CE0000021204606F083FA0021204606F0A4FADF
:101CF00000221146204606F0C4FA80230222114633
:101D0000284605F093FE06220221204606F08FF9B0
:101D10000221204606F051FA0221204606F067FA19
:101D20000221204606F088FA00220221204606F011
:101D3000A8FA0121204606F0B4FA204606F069F917
:101D400038BD00BF000C01400008004010B582B053
:101D500009238DF80730154C204605F029FA204656
:101D600005F030FA204605F042FA0721204605F03A
:101D70000AFA0DF107020121204605F03DFA4FF461
:101D80006021204605F0D8F9204605F0C3F900236C
:101D900001E000BF0133772BFBDD044C204605F04A
:101DA000D5F9204605F0E5F902B010BD0028014044
:101DB00038B505460C460162084606F016F920467D
:101DC00006F022F90A4B1968C1F31A11094BA3FB5B
:101DD0000131C9090139204606F025F94FF6FF7196
:101DE000204606F022F900236B62284638BD00BF6A
:101DF000B4080020C55A7C0AF8B5436A032B00DDFD
:101E0000F8BD04460D461646006A06F007F9636AF7
:101E10000122134FF95C206A06F009F9636A002277
:101E2000F95C206A06F02DFA636A44F8235003F146
:101E3000080106EB860202EB8202920024F81120D0
:101E400002219940206A06F0C3F80021206A06F0BA
:101E50003BFA206A06F0DDF8636A01336362CFE77C
:101E60000C940008F8B5054600242AE00226A64096
:101E70003146286A06F0B0F840B3286A06F015FA31
:101E800087B22B6A03EB84035A6B04F1080135F81F
:101E900011100A445A6355F824309847286A06F00E
:101EA00004FAC01B04F10C0325F813003146286A1C
:101EB00006F098F804E00221A140286A06F092F8A2
:101EC0000134032C06DC6B6AA342CFDC6B6AA342AD
:101ED000F6DCF0E7F8BD0146002210460FE002F103
:101EE0000C0331F813304FF47A7C0CFB03F302F14E
:101EF000080C31F81CC093FBFCF3184401324B6A08
:101F00009342ECDC70470000024B1A68024BC3F8A6
:101F1000B4267047800800200001002008B5C0EBFF
:101F2000C0020B4B03EB8203DB688B420EDC084BD9
:101F300003EB82031B698B4201DAFF2007E0054BAC
:101F400043F82010FFF76EFA002000E0FF2008BDE4
:101F50000001002000000020014B53F820007047D2
:101F600000000020024B53F820004011704700BFD2
:101F70000000002008B5054B53F8200006F0D2FF02
:101F80004FF0745107F022F808BD00BF0000002098
:101F9000044B53F820004011012814BF00200120F9
:101FA000704700BF000000204901024B43F8201099
:101FB000704700BF00000020014B43F8201070471D
:101FC0000000002010B5044608464FF0844106F09A
:101FD000FDFF07F0C1F9024B43F8240010BD00BF1C
:101FE0000000002070B506460024084D01E00134D1
:101FF0001C353F2C07DC3146686800F071FB002877
:10200000F5D1E0B270BD4120FCE700BF0001002027
:102010000023064A01E001331C323F2B04DC118B04
:102020008142F8D1D8B270474120704700010020AA
:10203000C0EBC000014B03EB8000704700010020A3
:1020400038B50024074D01E001341C353F2C07DC76
:102050002B8B002BF8D06969E0B2FFF7ADFFF3E7F7
:1020600038BD00BF00010020014B1954704700BF6C
:10207000E4080020024A135C0B431354704700BF6E
:10208000E4080020024A135C23EA0103135470475A
:10209000E4080020014B185C704700BFE4080020F2
:1020A000C0EBC000024B03EB8003987E704700BF7B
:1020B0000001002000487047C0A4010008B5FFF7E8
:1020C00023FF08BD08B52021806806F0BAF908BDD5
:1020D00008B5806806F0ADF908BD10B50446436840
:1020E000597A586805F03EFB636804F12A02597A70
:1020F000586805F049FB63688022597A586805F0F2
:1021000053FB6368597A586805F023FB10BD000043
:1021100070B504460D46534901605349016085601E
:10212000037302610121017541758175002282618D
:10213000C26180F82020426280F828109DF81010BB
:1021400080F829109DF8141080F82A124749416040
:10215000032A07D861680868A84203D01C3161606F
:102160000132F5E7424A1460002B74D0626850696E
:10217000002B73D063681B8B0222032105F056FCF1
:102180004FF4E131284606F003F90821284606F00D
:1021900011F94FF40051284606F015F90C21284694
:1021A00006F01DF90021284606F013F90021284603
:1021B00006F01BF9284606F02EF9284606F030F9FD
:1021C0006368197A586805F06FFA6368197A586875
:1021D00005F0B6FA63682E1D3246197A586805F084
:1021E000CAFA63680022197A586805F087FA6368AA
:1021F0000022197A586805F075FA6368197A5868E8
:1022000005F088FA6368597A586805F04DFA6368F2
:102210003246597A586805F0AEFA63680022597A56
:10222000586805F06BFA63680022597A586805F01F
:1022300059FA6368597A586805F06CFA6368597AF4
:10224000586805F086FA2046FFF747FF284606F053
:10225000D2F8204670BD6268D06889E763681B8A3F
:102260008AE700BF30A200083CA2000840A2000894
:102270002409002038B50D460469437D3BB121682F
:1022800039B1284600F02CFA18B10834F7E71C469B
:1022900001E023680BB1204638BD1C46FBE738B58A
:1022A00004460D4601E0002373B163680222197AE7
:1022B000586805F00EFA0028F5D194F828300BB1D3
:1022C0000346F1E70123EFE76368197A586805F0E0
:1022D00049FA6368AAB2197A586805F065FA636822
:1022E00094F82020D201A83222440232197A586888
:1022F00005F04AFA63680222197A586805F0E4F991
:102300006368197A586805F024FA94F82030B3FA13
:1023100083F35B0984F82030002384F8283038BD2B
:1023200010B50446837D73B10A2910D0436A7F2B10
:102330000DD090F8202000EBC2121A4482F8AA10A7
:102340000133436210BD806806F05AF8FAE794F84A
:102350002030626A04EBC313134483F8AA10511CA3
:102360002046FFF79CFF00236362EBE710B50C46A5
:10237000802A28BF802211464FF0000C0AE090F816
:10238000203014F80CE000EBC313634483F8AAE098
:102390000CF1010C8C45F2D3FFF781FF10BD38B56D
:1023A00005460C46084600F0B2F90246214628468A
:1023B000FFF7DCFF38BD000010B50446084600F00A
:1023C000F9F900F0DEF9237D83420DD00023637517
:1023D000237B0BB3626850690BB363681B8B0122CC
:1023E000002105F023FB10BD01236375237B6BB136
:1023F000626850696BB163681B8B0222032105F090
:1024000015FB08492046FFF7CAFFECE76268D06871
:10241000F0E763681B8AF0E76268D068DCE763680E
:102420001B8ADCE70C9F000830B585B004460846DF
:1024300000F0C0F90378302B13D0322B0ED04FF4BC
:1024400061231D46637D83B92946A06805F0A0FF7E
:102450000021A06805F0B7FF05B030BD0E4B1D464A
:10246000F0E74FF4E1331D46ECE70A22294601A8C4
:1024700000F05DF909492046FFF791FF0849204621
:10248000FFF78DFF01A92046FFF789FF0549204688
:10249000FFF785FFD8E700BF105522004C9B0008CE
:1024A000549B0008D0A1000810B50446084600F06F
:1024B00081F9037823B1303B18BF012384F8293018
:1024C00094F8293023B105492046FFF768FF10BD75
:1024D00003492046FFF763FFF9E700BF649B00084C
:1024E000709B0008F8B504464368597A586805F0AF
:1024F00054F90646C0F1800558B92046FFF7EDFDB6
:1025000007E05A1CE261234493F82A10A06805F002
:1025100077FF94F8293013B1E369AB42F1DB08216E
:10252000A06805F08EFFE0B97F2E28DCC6F17F039E
:10253000234493F82A300A2B17D00D2B15D094F88A
:102540002A30212B1BD1A369CBB12046FFF7C5FD53
:102550000023E361A3695B6804F5D57120469847C1
:102560000DE0A06805F065FFDEE76368597A5868FA
:1025700005F0F8F87E2E03DD2046FFF7AEFDF8BD2E
:102580006319002283F82A20E26104F12A0720213E
:10259000384600F0C3F80646037823BB0A213846C4
:1025A00000F0BCF80646002384F8AA31337803B360
:1025B00000233370A3612A49384600F091F806469B
:1025C000E8B904F5D5712046FFF7F6FEA369002BA4
:1025D0003CD0A06805F031FFA3695B6804F5D571B4
:1025E00020469847C8E7411C04F5D57000F086F8EE
:1025F000DCE70D21384600F091F80646D8E7194986
:10260000384600F06DF8064668B994F82A322BB1C6
:1026100004F5D5712046FFF707FFD7E7124920469A
:10262000FFF7BDFED2E71149384600F059F80646DB
:1026300028B904F5D5712046FFF736FFC6E73946BD
:102640002046FFF717FEA0612E46BFE7012E93DD5F
:10265000637D002B90D006492046FFF7A0FE8BE754
:102660007C9B0008889B0008949B0008B09B000896
:10267000B89B000808B5044B1B681A681268C1B201
:102680001846904708BD00BF24090020704708B5D0
:1026900000F020FD08BD000000B583B00649D1F868
:1026A000F027D1F8EC37D1F8E8170091034900F092
:1026B000EBFA03B000BD00BF00F0FF1FD49B000881
:1026C00010B50446FFF7BCFC0249204600F0DCFAD6
:1026D00010BD00BFE89B000808B502F00FFA08BD66
:1026E000431E013913F8010F11F8012F10B10AB17F
:1026F0009042F7D0801A18BF01207047013911F8B5
:10270000013F0BB90370704700F8013BF7E7002366
:10271000C25C0AB9184670470133F9E703461A78D4
:1027200018461AB18A4203F10103F8D17047002913
:1027300070B51EDA2D23012400F8013B49420646FC
:1027400091FBF2F302FB131130313170191E354643
:1027500006F10106F4DC00220346201A30443270F0
:10276000AB420BD21A78297803F8011B05F801292E
:10277000F6E704D1302341700370012070BD0024BE
:10278000DDE730B503782D2B11D14FF0FF34013048
:1027900000210A25431E01E005FB012113F8012F4A
:1027A000303AD0B20928F7D904FB01F030BD01243A
:1027B000EEE7000010B5144C02780146A2F10A03BE
:1027C000DBB2162B1BD824FA03F3DA0700F1010061
:1027D000F2D40846FFF79BFF0138084481420446C3
:1027E0000AD203780A3BDBB2162B05D8064A013819
:1027F00022FA03F3DB07F1D40023637001E0002A1F
:10280000E7D1084610BD00BF09004000002310B505
:10281000934200D110BD51F8234040F823400133CA
:10282000F6E702B97047013A40F8041BF9E7F8B53A
:102830000D4616461C460160828000238371052CDC
:1028400030D00AD9082C32D01AD8062C41D0072C07
:1028500042D1002403231F4630E0032C1CD009D8AA
:10286000012C13D0022C02D100231F4622E00224A7
:102870001F4623E0042C28D1012400231F461DE01D
:10288000092C2DD1022403231F4617E00123837155
:10289000022400231F4611E0012383710224002338
:1028A0001F4607E00124847100231F4606E001242F
:1028B00003231F463146284605F0EDF833462246ED
:1028C0003946284605F0B2F8F8BD022400231F4619
:1028D000F4E700242746F1E7022400231F46EDE732
:1028E000022400231F46E9E7024B4FF400421A80FE
:1028F000704700BF280A002008B5FFF7F5FF08BDA4
:1029000070B50C1EACBF01234FF0FF335C430133A5
:10291000064608BF2D234FF0640208BF06F8013BAE
:10292000611104F01F040546544330460A22FFF7A4
:10293000FEFE2E226411092C3254D8BF302206EB41
:102940000003D8BF5A7021464FF00A02CCBF581C72
:10295000981CFFF7ECFE284670BDF0B502780346E0
:102960002D2A13D14FF0FF30013300250A2702E052
:1029700007FB052501331C78A4F13002D6B2092EDD
:10298000F6D9A4B98D4025446843F0BD0120ECE799
:102990008A4002EB660292FBF6F20CFB06F6144448
:1029A00013F8012F303AD7B2092FF1D9EAE70A26F6
:1029B0000024B446F4E72DE9F04105460F46161E03
:1029C00002DD0A46002108E04FF0200813F0010460
:1029D0001BD0002422E00131013210780028FAD106
:1029E000B14206DA761A13F0020F04D14FF0200834
:1029F000ECE70026F7E74FF03008E7E72B681B68A5
:102A00004146284698470134013E002EF6DC05E099
:102A10002B681B682846984701340137397800290C
:102A2000F6D106E02B681B684146284698470134DA
:102A3000013E002EF6DC2046BDE8F08170B584B082
:102A40000646DDF828C059B11D460B4615B10A2AC5
:102A500011D0002500218DF80D100DF10D0416E0A8
:102A600030238DF800308DF80110099B089A6946D3
:102A7000FFF7A1FF32E0002901DB0025EAE74B4226
:102A80000125E7E7303104F8011DB3FBF2F34BB148
:102A9000B3FBF2F102FB11310929F3DDACF13A008D
:102AA0000144EFE79DB1089B63B1099B13F0020F4E
:102AB00008D0304633681B682D219847089B013B9E
:102AC000089304E02D2304F8013C013C0025099BF8
:102AD000089A21463046FFF76EFF284404B070BDC7
:102AE00008B50846FFF7C6FD08BDF0B585B0074636
:102AF00016461D466846FFF703FF2B4632466946D9
:102B00003846FFF758FF05B0F0BD000070B588B03B
:102B100006460C460592002587E0A21C012391E0A1
:102B200000222178A1F1300C5FFA8CFCBCF1090F76
:102B300006D802EB8202303901EB42020134F0E7A1
:102B400073291AD0642923D0782930D058293DD050
:102B500075294AD0662957D0632965D10599081D82
:102B6000059009688DF81C1000218DF81D1007A92B
:102B70003046FFF720FF054456E00599081D0590F3
:102B8000096801B935493046FFF715FF05444BE0A8
:102B90000599081D05900968612002900193009233
:102BA00001230A223046FFF749FF05443CE005991E
:102BB000081D05900968612002900193009200238E
:102BC00010223046FFF73AFF05442DE00599081D15
:102BD0000590096841200290019300920023102281
:102BE0003046FFF72BFF05441EE00599081D0590B0
:102BF0000968612002900193009200230A22304666
:102C0000FFF71CFF05440FE00599081D05900968B2
:102C10003046FFF76AFF054406E0144633681B6838
:102C20002178304698470135013423789BB1252B14
:102C3000F4D1621C637873B1252BEED02D2B3FF4B9
:102C40006CAF002314462278302A7FF469AF013438
:102C500043F00203F7E7284608B070BD5C9C00080B
:102C60000FB400B583B004AA52F8041B054B0193BE
:102C7000009201A8FFF74AFF03B05DF804EB04B02F
:102C8000704700BF28A300080EB400B582B003AAA5
:102C900052F8041B0192FFF739FF02B05DF804EB14
:102CA00003B07047114B124A1360991C114A11600E
:102CB000191D114A1160991D104A116003F1080194
:102CC0000F4A116003F10A010E4A116003F10C0171
:102CD0000D4A116003F10E010C4A116003F110015D
:102CE0000B4A116012330B4A13607047540A0020DC
:102CF000500A00204C0A0020480A0020440A002004
:102D0000400A00203C0A0020380A0020340A002033
:102D1000300A00202C0A002070B582B0334B93E8B3
:102D2000030002AB03E903000025002D2CDD304C2D
:102D3000304A0121204604F01EFD2F4A0121204681
:102D400004F022FD4FF480720121204604F0D6FCED
:102D50004FF480620121204604F0C4FC7822012156
:102D6000204604F021FD0121204604F0D3FC01217E
:102D7000204604F0D8FC0121204604F0EAFC1F485C
:102D800004F068FA02B070BDAE0002AB03EB85033D
:102D900053F8084C204604F00BFA204604F00DFAD4
:102DA000204604F01FFA204604F011FA01212046C3
:102DB00004F0E9F9204604F0ADF9204604F0C6F924
:102DC000204604F0D6F92E440D4A02EB46020A21B1
:102DD000204604F011FA204604F046FA4FF4602130
:102DE000204604F0A9F901359FE700BF2CA3000895
:102DF000000002404C240140540A002000240140FD
:102E0000440B0020884205DD914209DC90420ADD36
:102E100010467047904206DC914203DD1046704731
:102E2000084670470846704730B583B004680025EF
:102E30000BE0228DA18A2088FFF7E4FF02AB03EBB1
:102E4000450323F8080C01353C34032DF1DDBDF8B2
:102E50000000BDF802301844BDF804301844BDF835
:102E600006301844C0F38F0003B030BD08B50F4BD7
:102E700098420BD003F58063984211D0A3F500630C
:102E8000984205D1072903DCC8B204E0012903DD1B
:102E900004F048F9102008BDC9B20831C8B2FAE7F9
:102EA0000529F5DCC9B20A31C8B2F4E7000C0140CB
:102EB00070B505460E461446012393409BB200228E
:102EC0001146304604F0B2FD2B68054A9B1A5D108E
:102ED00021463046FFF7CAFFABB2024AD05470BD5C
:102EE000540A0020440B002008B5FFF7DBFE08BDA4
:102EF00008B504F0D3FB00F5FF3000F2FF108002AC
:102F000008BD2DE9F043ADF2044DFFF7F1FF064691
:102F1000024600234FF0FF3503E052F8041B0D403A
:102F20000133FF2BF9DD04F09DFB4FF480724FF06D
:102F3000FF316846FFF775FC002400E001343F2CA8
:102F40001AD8E7B23846FFF7ABF80028F6D1384672
:102F5000FFF76EF880463846FFF79CF80DEBC40982
:102F600089F80300B8F818202DF834203846FEF709
:102F7000F3FFC9F80400E1E7FE21684604F080FB96
:102F8000FE9004F02DFDB5F1FF3F01D100240AE0D1
:102F9000304604F0E1FCF9E75DF8241006EB84000C
:102FA00004F038FD0134FF2CF6D904F025FDFE981D
:102FB0000DF2044DBDE8F083F8B5FFF799FF064622
:102FC00004F050FBFE21304604F05AFBD6F8F833EB
:102FD000834201D1002503E04FF0FF3019E00135B5
:102FE0007E2D15D836F83500FFF712F80446412833
:102FF000F5D0FFF755F80028F1D106EBC507796841
:103000002046FEF7D9FFF9782046FFF72DF8E6E7CE
:103010000020F8BD014B1860704700BF600B002016
:103020000D4B1B5CB3B90D4B196899B10C4B187063
:10303000DFF830C0DCF800300B4A02F8330002EB56
:10304000C3025160044A012111540B4403F00F03E1
:10305000CCF80030704700BF500B0020600B002000
:103060005B0B00205C0B0020000800200F280AD812
:10307000064B03EBC0035B680BB918467047034B64
:1030800013F8300070470020704700BF0008002090
:103090000F2801D900207047024B03EBC00358688A
:1030A000704700BF0008002008B5074B03EBC102C2
:1030B00092F804C053F83130044A52F82C200146EB
:1030C0000348FFF7CDFD08BD40A3000834A3000866
:1030D000649C000810B50C4B5B680BB1002409E040
:1030E0000A48FFF7BDFD0DE0074B13F83410FFF75A
:1030F000DBFF01340F2C05D8034B03EBC4035868E6
:103100000028F1D110BD00BF00080020749C000809
:1031100000B58BB0104B01EB410203EB820C53F86E
:103120002220DCF804C001EB410103EB81039B6822
:10313000D0F858020021089107910693CDF814C0E9
:10314000049203910291019100910B46012204F037
:103150009DF80BB000BD00BFACA30008F0B583B074
:1031600004460D4616461F4672B60121D0F8580295
:1031700004F09FF9019600970023B5F5006F34BF66
:10318000002201222946D4F8580204F097F90028B9
:1031900006DBD4F85432002B18DC62B603B0F0BD65
:1031A000D4F85432132BF4DC03F1110204EB0212B5
:1031B00055609760316804EB0312C2F81C11716806
:1031C000C2F820110133C4F85432E2E70121D4F8E7
:1031D000580204F06AF9E0E7012801DD0020704799
:1031E000014B53F820007047640B002030B58BB0C2
:1031F00004460D460AE09DF8213006AA09992046AA
:1032000000F0B2FA04F086FEC4F8F800002305933B
:1032100006AB04930DF12103039308AB02930DF168
:10322000220301930DF12303009309AB0122E9B2BC
:10323000D4F8580204F0B7F90028DCD10BB030BD47
:1032400030B583B0044600F58A7504E0D4F85432F2
:10325000013BC4F85432D4F85432002B17DD03F18B
:103260008053013B1A0105EB0313A9585A68083330
:103270000193D2B200920023B1F5006F34BF002257
:103280000122D4F8580204F019F90028DEDAD4F843
:1032900054320BB103B030BD0121D4F8580204F010
:1032A00008F9F7E770B584B00E4615461C4610685D
:1032B000B3F800C05A889B88B4F806E05B019BB263
:1032C000520192B24FEA4C1C1FFA8CF14FF0010CE4
:1032D000CDF808C000EA0C0CCDF804C04FEA4E1C33
:1032E0001FFA8CFCCDF800C004F0C2F80023336054
:1032F0002A6801322A60E380A3806380238004B0BF
:1033000070BD70B584B00E4615461C461068B3F803
:1033100000C05A889B88B4F806E05B019BB252015A
:1033200092B24FEA4C1C1FFA8CF14FF0010CCDF811
:1033300008C000EA0C0CCDF804C04FEA4E1C1FFA7E
:103340008CFCCDF800C004F083F8002333602A68B9
:1033500001322A60A380238040F2FF73E380638000
:1033600004B070BD70B582B00E4615461C4610689C
:103370001968C9005A68D20001230093034042F043
:10338000040241F0040104F083F8002333602A684A
:1033900001322A606360236002B070BD30B58BB02B
:1033A0000546002308930993474906AA03C982E802
:1033B000030004930593039302930193D5F85822D5
:1033C000424B9A420AD0A3F58063D3F8003AC3F384
:1033D000052300930024C2F81C4221E00023F8E7F3
:1033E00004F11E0205EB8202516871B3029A501C6F
:1033F00002900DF1280C0CEB420C2CF8103C023220
:1034000002920AAB03EB400020F8101C039B042B34
:1034100024D0029B022B28D0019B022B2CD00134FC
:10342000D5F8F430A3422EDD05EB84035B68B3F5D9
:10343000006FD5D3019A23F060430AA901EB820102
:1034400041F8183C01320192E0E7039A0AA901EB26
:10345000420121F8083C01320392D7E708AB6A46E3
:1034600003A92846FFF71EFFD3E706AB6A4602A969
:103470002846FFF746FFCFE704AB6A4601A9284676
:10348000FFF770FFCBE7039B002B07DC029B002BB1
:103490000BDC019B002B0FDC0BB030BD08AB6A4688
:1034A00003A92846FFF7FEFEF0E706AB6A4601A92E
:1034B0002846FFF726FFECE704AB6A4601A9284639
:1034C000FFF750FFE8E700BFE8A3000800640040F2
:1034D000F8B504460D4616461F4600F0E3F8544B77
:1034E00023600023C4F85432C4F85852514B9D4213
:1034F0002FD003F580639D4258D1002F00F08280C9
:103500004D4D202302220021284604F08FFA20216D
:10351000284604F0C0FA402302220321284604F082
:1035200085FA402005F002F8F021402005F00AF865
:10353000412004F0FBFFF021412005F003F83F207B
:1035400004F0F4FFF0213F2004F0FCFF3B4B5C60F3
:103550002CE0002F41D0384D4FF48073022200211F
:10356000284604F063FA4FF48071284604F093FA79
:103570004FF4007302220321284604F057FA142066
:1035800004F0D4FFF021142004F0DCFF152004F037
:10359000CDFFF021152004F0D5FF132004F0C6FF65
:1035A000F021132004F0CEFF244B1C60D4F8580205
:1035B00003F060FE31462046FFF7AAFD2046FFF7E4
:1035C000EDFE0221D4F8580203F06FFF1021D4F869
:1035D000580203F06AFF2046F8BD194D4FF400630E
:1035E00002220021284604F021FA4FF40061284607
:1035F00004F051FA4FF4805302220321284604F0CC
:1036000015FABCE70C4D4FF48053022200212846E6
:1036100004F00CFA4FF48051284604F03CFA4FF4C1
:10362000005302220321284604F000FA79E700BF84
:10363000A0A3000800640040000C0140640B0020BF
:103640000008014008B50020FFF7C6FD0021FFF784
:10365000CDFD08BD08B50020FFF7BEFD0121FFF735
:10366000C5FD08BD08B50020FFF7B6FDFFF7E8FD72
:1036700008BD08B50120FFF7AFFD0021FFF7B6FD3B
:1036800008BD08B50120FFF7A7FD0121FFF7AEFD3A
:1036900008BD08B50120FFF79FFDFFF7D1FD08BD6C
:1036A00070477047084B03600023C0F8F430C0F83F
:1036B000FC3005E003F14002044940F822100133D8
:1036C000042BF7DD704700BFF8A300088408002032
:1036D000D0F8FC30042B01DD0020704703F14002DC
:1036E00040F822100133C0F8FC300120704710B5BB
:1036F0001446D0F8F4201D2A0CDD002010BD013343
:103700009A420ADD00EB830CDCF804107145F6D117
:103710000020F3E78E460023F2E700EB8203C3F8B4
:1037200004E002F11E0300EB83035C600132C0F889
:10373000F42003689B6898470120DFE738B5054609
:103740000024C0F8F44003689B68984707E004F140
:10375000400355F8230003685B6898470134D5F8A7
:10376000FC30A342F3DC38BD2DE9F8430546894619
:1037700090461F4600240AE004F1400355F8230058
:1037800003681E683B4642464946B0470134D5F8B7
:10379000FC00A042F0DCBDE8F88370B5054600F1FE
:1037A000300634460BE034F8043BC3F3C02123F465
:1037B0000063002203EB41716868FFF798FFA31BC9
:1037C000242B02DCA378322BEDD170BD2DE9F04122
:1037D00082B0054600F108073E46F31B242B00F398
:1037E0009380B378322B00F08F80002300930193F5
:1037F000B37803EB4304A40058342C441AE0C0F31C
:1038000007231B0443EA0063C0F3074243EA022391
:1038100043EA1063E2791F2A3DD8C2F11F0223FA5E
:1038200002F2009B13430093647A04EB4404A40067
:1038300058342C44637AFF2B5DD0354B1B78002B1A
:1038400062D12079FEF796FB0146206805F0BEFBA9
:10385000804694F9060005F065FB414605F0AEFA96
:1038600005F07AFD94F908C08CEAEC71A1EBEC71DB
:10387000C9B24FF0FF328A4020EA0200BCF1000FCB
:10388000BDDBE2791F2A20D9203A00FA02F2019B1F
:1038900013430193C8E79444BCF11E0F07DDC2F146
:1038A0003F0223FA02F2019B13430193BCE7A2F10A
:1038B0001F0003FA00F0009901430091C2F13F029A
:1038C000D340019A1A430192AEE702EB0C03202B7E
:1038D00005DC00FA02F2009B13430093A4E700FA10
:1038E00002F1009B0B430093C2F12002D040019BE8
:1038F0000343019398E7686803685C6808236A4695
:1039000036F8041BA04768E702B0BDE8F08100BFAD
:103910006C0B002010B509B302F10C0E00EB8E0EFB
:103920000A2A46D89EF80210322944D001EB410CF5
:103930004FEA8C0C0CF1580C844400210C469CF886
:103940000910FF2933D073B1013BDBB201EB410118
:1039500089005831644600EB010CF0E702F1020ED9
:1039600000EB8E0EDCE72CB16172FF238CF809307E
:1039700001201FE0322904D08EF80210F5E7013350
:10398000DBB29918092904DC0EEB8301897832290E
:10399000F5D1013BDBB20EEB830291788EF8021079
:1039A0003EF82330AEF8003032239370DDE700207C
:1039B00000E0002010BD0020FCE7F8B500F108038E
:1039C00000263446354637463DBB1A462C46A2EB08
:1039D000030CBCF1240F27DC92F802C0BCF1320FBB
:1039E00022D00CEB4C0E4FEA8E0E0EF1580E864490
:1039F000002609E00136F6B20CEB4C0C4FEA8C0CB9
:103A00000CF1580C00EB0C0E9EF809C0BCF1FF0F36
:103A100006D0BEF804E08E45ECD15DB10020F8BDC3
:103A20000134E4B20432D2E700F130033D46012212
:103A30001746C9E7334622463946FFF76BFFEEE7E4
:103A400070B514461E460023079A137000F108054E
:103A5000002B46D12A46531B242B3ADC92F802C095
:103A6000BCF1320F35D00CEB4C0E4FEA8E0E0EF13E
:103A7000580E864407E00CEB4C0C4FEA8C0C0CF112
:103A8000580C00EB0C0E9EF809C0BCF1FF0F1ED0C5
:103A9000BEF804308B42EED11388C3F3C0222360FA
:103AA00023F40063236043EA427323609EF80730E7
:103AB00033709EF90820049B1A70DEF80020059BE5
:103AC0001A609EF90620069B1A70012070BD043210
:103AD000C1E7079B1B780122079D2A7000F1300582
:103AE000B6E70020F2E78446D9B102F10C0100EB01
:103AF00081010A2A27D88A78322A26D002EB42028C
:103B0000920058320CEB0200427AFF2A19D063B1BE
:103B1000013BDBB202EB4202920058320CEB020096
:103B2000F2E7911C00EB8101E3E70B88C3F3C022AD
:103B300000990B6023F400630B6043EA42730B604F
:103B400070470020704700207047002070472DE923
:103B5000F04385B00646884600F1080900273B4639
:103B60002FE02B88C3F3C02C23F4006194F90830B4
:103B7000E2792079029794F906E0CDF804E0D4F8D0
:103B800000E0CDF800E041EA4C71C047647A04EBF4
:103B90004404A40058343444637AFF2BE1D1043543
:103BA000A5EB0903242B08DCAB78322B05D003EB03
:103BB0004304A40058343444EEE706F130093B4690
:103BC00001270BB94D46EBE705B0BDE8F0830023B4
:103BD00006E001EB83024FF0320C82F802C00133A1
:103BE000092BF6DD002307E003EB430200EB820222
:103BF000FF2182F861100133322BF5DD704710B5DB
:103C0000044600F10801FFF7E2FF04F1300120460D
:103C1000FFF7DDFF6068FFF791FD10BD2DE9F04172
:103C20000F4615461E460024A0460AE0286803F009
:103C300021FD804655F8041B07EB840003F0EAFEE3
:103C40000134B442F2DB4046BDE8F081084600E0B2
:103C50000430431A242B0ADC8378322B05D00388E6
:103C6000534033F40063F3D102E00020704700209A
:103C7000704700004B4B1B7803B170472DE9F041B2
:103C8000054616460A4600F13001FFF7DFFF00281F
:103C900000F08580837803EB4304A40058342C445F
:103CA00042E01F2B53D83068C0F30722120442EAC7
:103CB0000062C0F3074742EA072242EA1062C3F1FA
:103CC0001F03DBB201208840013822FA03F31840B9
:103CD00005F024F9074694F9060005F023F9394662
:103CE00005F06CF80146206805F070F90746207968
:103CF000FEF7D6F920B12079FEF7D2F9012849D193
:103D0000B4F804804FF08441384605F05FF905F0BF
:103D100023FB01465FFA88F0FEF700F9647A04EBB2
:103D20004404A40058342C44637AFF2B37D0E37941
:103D300094F9082082EAE271A1EBE271C9B2002A8B
:103D4000AFDB1F2B18D97268203BDBB2BAE71A44ED
:103D50001F2A03DD7068203BDBB2A5E75B1ADBB2EC
:103D60000133DBB23068D8407268C3F120039A4057
:103D700010434B1EDBB297E71A44202A01DC32685D
:103D8000A0E73268DA407068C3F12003984002432C
:103D9000002397E739462079FEF714F9BEE7BDE81E
:103DA000F08100BF6C0B00202DE9F8439DF82070D6
:103DB0009DF92460002E76D004460D469146984623
:103DC00086EAE673A3EBE673DBB2202B6ED8002EF7
:103DD0000BDDBB19402B6CDC424629462046FFF721
:103DE00035FF844658B100221BE03F2F64D87BB2D8
:103DF0003344B3F1FF3FEFDA6FF0010051E00021EF
:103E0000092907DC05EB81039A78322A01D00131B8
:103E1000F6E79C46BCF1000F51D0ACF80080E2E719
:103E20000132312A07DC02EB420304EB830393F8EF
:103E30006130FF2BF4D1322A44D09CF802300021AB
:103E40000AE003EB430189005831214403EB4303AB
:103E500004EB830393F86130322BF2D102EB42037F
:103E600004EB8304A4F85C900A9BA3659DF92C30B5
:103E700084F85E3084F85F7084F86060322384F8E0
:103E8000613019B14A722B46002004E08CF8022000
:103E9000F9E7013004335A1B242A02DC9A78322ACB
:103EA000F7D1BDE8F8836FF00200FAE76FF0020087
:103EB000F7E76FF00100F4E76FF00100F1E76FF052
:103EC0000300EEE76FF00400EBE7B2F5006F16D2E7
:103ED00000B585B09DF920C0CDF80CC0DDF81CC040
:103EE000CDF808C09DF918C0CDF804C00093134662
:103EF0000A4600F10801FFF757FF05B000BD4FF07B
:103F0000FF30704770B584B005461446C2F3407068
:103F100022F00052B2F5006F1DD29DF928C0CDF8F5
:103F20000CC0DDF824C0CDF808C09DF920C0CDF844
:103F300004C0009342EAC0230A4605F13001284636
:103F4000FFF732FF0646002221466868FFF7CFFBE5
:103F5000304604B070BD4FF0FF331E46F8E72DE940
:103F6000F04F89B08346059206938A46079131E067
:103F7000B4F9020004F0D6FF002303930290CDF8B9
:103F8000048000953B46049A05993046FFF70CFFE4
:103F90000634A4EB09032A2B1ADC94F90530002B14
:103FA00016DD2088FEF734F80490DBF80060BAF8DC
:103FB0000070257994F90580069B002BD8D0B4F9C0
:103FC000020004F0AFFF4FF0745104F0FFFFD3E79D
:103FD0000AF1320A079BAAEB0303B3F5E17F0ADC7F
:103FE000BAF800104FF6FF73994204D00AF10205A7
:103FF0002C46A946CDE709B0BDE8F08F08B503F01F
:104000004DFB00F5FF3000F5FF70800208BD70B574
:1040100082B006460190FFF7F1FF0446D0F8E8535E
:1040200003F020FBFA21204603F02AFB854202D050
:10403000002002B070BD01AD002332460832214697
:104040002846FFF78CFF01233246303204F5FA711F
:104050002846FFF784FF0120EBE7F8B505460F4639
:104060000E460EE02079FDF7E3FF038BA380647A10
:1040700004EB4404A40058342C44637AFF2BF1D1A0
:104080000436F31B242B08DCB378322B05D003EB6A
:104090004304A40058342C44EFE7F8BDF8B50546B6
:1040A0000F460E460DE0A088FDF7B2FFA080647AAF
:1040B00004EB4404A40058342C44637AFF2BF2D15F
:1040C0000436F31B242B08DCB378322B05D003EB2A
:1040D0004304A40058342C44EFE7F8BDF0B583B096
:1040E0000546FFF78BFF064602462A4B0121197051
:1040F00000234FF0FF3403E052F8041B0C4001335F
:10410000FF2BF9DD03F0AEFA03F06AFC022003F0A6
:104110005DFCB4F1FF3F38D105F108073946284668
:10412000FFF79BFF05F1300421462846FFF795FF76
:104130000A233A4631462846FFF770FD0A232246F5
:1041400006F128012846FFF769FD0190962305F145
:10415000580206F150012846FFF760FD0190012347
:1041600001AA06F52D712846FFF758FD03F044FC1F
:1041700039462846FFF792FF21462846FFF78EFF73
:10418000044B00221A7003B0F0BD304603F0E4FB8C
:10419000C2E700BF6C0B0020F8B50646FFF72EFF04
:1041A0000446D0F8B45203F05DFAAA21204603F089
:1041B00067FA854203D03046FFF729FFF8BD06F1C4
:1041C00008070A2221463846FEF720FB06F1300593
:1041D0000A2204F128012846FEF718FB962204F172
:1041E000500106F15800FEF711FB39463046FFF743
:1041F00055FF29463046FFF751FF0120DEE700005A
:1042000038B50446084615460D4B23600D4B236018
:1042100061602146FFF75CFA04F108012046FFF7D0
:10422000D6FC04F130012046FFF7D1FC25B9204629
:10423000FFF7B3FA204638BD2046FFF7ADFFF6E79B
:10424000F49300081CA40008036ED3B14FF47A73F2
:10425000036604E0036E002B07DD01233BB1826D92
:10426000C36D9A42F6D00023F8E70023F6E7836D8A
:104270005A1C826503F03F03034419764FF0FF3365
:1042800043617047A0F10400FFF7DEBF10B504469C
:10429000017C002201F5C0618068FFF728FA617C8B
:1042A0003F2900D910BD002201F5B061A068FFF7D9
:1042B0001EFAF7E710B504460846144B2360144B6A
:1042C0006360144B236014336360A160E2600123D8
:1042D0002374FF2363744FF0FF3363610023A365EE
:1042E0004022E2654FF47A722266412284F864200B
:1042F000A36684F87830E36784F888302146FFF7B6
:10430000E7F92046FFF7C2FF204610BDF4930008EE
:1043100030A200082CA4000808B501748068FFF7DB
:104320000DFA08BD10B582B004468DF80010ADF846
:1043300001309DF810308DF80330059B0193437CCC
:1043400093420DD1002384F87830A068617C036823
:104350005C6808236A4601F5C061A04702B010BD41
:1043600042748068FFF7EAF9ECE738B504460A467C
:104370008068217C03685D68082301F5B061A84767
:10438000002384F8883038BDB1F8012045F20103DC
:104390009A4211D0012380F888300B7880F8803061
:1043A000B1F80130A0F88130CB7880F883304B68C9
:1043B000C0F88430002070470B78402B01D00020DB
:1043C00070474FF0FF330B714B7100238B71CB7132
:1043D00041220A704FF47A72026683654023C365F6
:1043E000CB784361012070472DE9F04184B0074646
:1043F0000C46B1F80120C2F3C0131E46CD7825B19A
:10440000013D05EBD575C5F3470503AB00932B467E
:1044100002F03F023146F868FFF765FB80462378DB
:10442000402B0DD0232B3DD08023237000232371FC
:1044300063710223A3710623E37104B0BDE8F08128
:1044400030B30079FDF7F4FD028BE37823B9039BC9
:10445000636043232370F0E713F0010F09D098F84D
:10446000073042EA034298F9083042EA0362626088
:10447000EFE71549D8F8000004F0A8FD04F06CFF40
:1044800020F07F4398F9062043EA02636360E0E787
:10449000802323700023237163710223A3710623F9
:1044A000E371CAE70028BFD06368002BBCD1B4F821
:1044B00001202B4602F03F023146F868FFF72AFA46
:1044C00060232370B9E700BF00007A440B78232BE8
:1044D00000D070472DE9F04184B005460C461646E1
:1044E000CB7883B94B68B3F1005F04D323F000525B
:1044F000B2F5006F03D2AB666023237019E04FF072
:10450000FF3383660CE0826E1746B2F1FF3F01D0A5
:10451000012B11D095F9742090460AB1022B1DD0C1
:10452000802323700023237163710223A371062368
:10453000E37104B0BDE8F081486880B2FDF768FD22
:10454000A5F870006368C3F3054385F873306368AA
:104550001B1685F874303F28CED9E1E7606840F338
:10456000170004F0DFFC154904F0E4FDE866636819
:104570001B1685F87230A6B102930190CDF8008029
:1045800095F873303A4695F87010E868FFF7BAFC72
:10459000002385F874304FF0FF33AB660028ABDAA8
:1045A000BEE702930190CDF8008095F873303A464B
:1045B00095F87010E868FFF788FCE9E700007A4496
:1045C00038B504460D460A7802F06003602B31D0FE
:1045D000B1F80130B3F5005F5AD003F47F40B0F575
:1045E000045F55D0E16819B1B3F5405F00F08580F4
:1045F00021B143F2010C634500F0858019B1B0F59B
:10460000445F00F0868045F203018B4200F0868013
:1046100045F204018B4240F09B80402A00F09180DB
:1046200080232B7000232B716B710223AB71062347
:10463000EB7119E002F010020A700122072A0EDC69
:10464000E36DA16D5B1A402B09D0E36D591CE16548
:1046500003F03F0323441B7EAB540132EEE7E36DCE
:10466000A16D5B1A402B09D0A068217C03685C68AF
:1046700008232A4601F5B061A04738BD2B7843F0E6
:1046800001032B70C2F1080243EA42032B70EBE7EF
:10469000E87803F47F42B2F5045F0CD03F2822D8BB
:1046A0002B78232B0DD0402BDED1FDF755FC686015
:1046B00043232B70D8E71B029BB21844FDF7A8FCDC
:1046C000ECE76968FDF72AFC10B960232B70CBE793
:1046D00080232B7030232B7100236B710923AB7166
:1046E0000623EB71C0E780232B7000232B716B71C5
:1046F0000223AB710623EB71B6E700222946204660
:10470000FFF7E4FEB0E7012229462046FFF7DEFE70
:10471000AAE729462046FFF767FEA5E7402A09D009
:1047200080232B7000232B716B710223AB71062346
:10473000EB7199E7E878FEF799FC686043232B70EA
:1047400092E7E878FEF7A4FC686043232B708BE7C0
:1047500029462046FFF718FE002885D18DE7000086
:10476000F0B583B004461546037C03F5C0638B4265
:1047700007D0437C1E4603F5B0638B4205D003B0DF
:10478000F0BD1146FFF71CFFF9E7B2F801301F46F4
:10479000A3F540539BB2012B08D92B78803B18BF5F
:1047A000012384F878306B68E367E8E7D378ABB12E
:1047B000012BF2D11349C06E04F008FC04F0CCFDCB
:1047C00094F9723040EA03630193022300933B465D
:1047D000324623212046FFF7A5FDDEE7B0F8703012
:1047E00090F8732043EA024390F9742043EA02638D
:1047F0000193012300933B4632462321FFF792FDAC
:10480000CBE700BF00007A4410B50446B0F8013091
:10481000B3F5A04F0DD045F20202934234D080236D
:1048200023700023237163710223A3710623E371B4
:1048300010BD0278402AEED143230370C378022BC7
:1048400013D007D863B1012B14D12E4BD3F8EC371A
:104850004360EDE7032B0DD1FDF72CFC6060E7E72B
:10486000284BD3F8E8374360E2E7264BD3F8F0371C
:104870004360DDE7802323700023237163710223EB
:10488000A3710623E371D3E72378232BC7D16023D9
:104890002370E378012B21D009D9022B26D0032BDA
:1048A00026D1FDF7CDFB4020FCF7BCFDC0E7FBB9EE
:1048B000154B1B784BB172B6144B186808B1FFF753
:1048C0000DFCFEF71EFB62B6B2E7802323700023C7
:1048D00023716371A3710823E371A9E772B6FEF730
:1048E0006BFB62B64020FCF79DFDA1E703F016FECE
:1048F000802323700023237163710223A371062395
:10490000E37195E700F0FF1F88080020700B00207E
:104910002DE9F04184B00E46174698469DF8304088
:10492000FDF786FB43681D461449154B1868FEF7D2
:10493000ABF9ECB11349124B1868FEF7A5F94FF02B
:1049400084410A9804F042FB0D4B1C689DF92C3001
:10495000039304F001FD0290CDF8048000973346E4
:104960002A4609492046FEF78FF904B0BDE8F081D8
:104970000649034B1868FEF787F9E0E7389E000800
:10498000780B0020409E0008489E0008449E0008C6
:1049900070B505460846FDF70DFF06462021FDF7D8
:1049A000BDFE0378A3B1002300F8013B0521FDF70C
:1049B000D4FF04463046FDF715FB412812D02146AE
:1049C000FDF7ACFA48B90A492846FEF75DF903E05D
:1049D00008492846FEF758F970BD07492846FEF7F2
:1049E00053F9F9E7324605492846FEF74DF9F3E752
:1049F000789E00085C9E0008849E00089C9E00082B
:104A0000F8B507460846FDF7D5FE054609E02A46F3
:104A10000F493846FEF738F9254605F8016B2C2E6C
:104A200014D12C212846FDF779FE04460678002390
:104A300003702846FDF7D6FA4128E8D0FDF78CFA36
:104A4000024604493846FEF71FF9E5E7F8BD00BF06
:104A5000BC9E0008B49E00082DE9F04106460846B9
:104A6000FDF7A8FE07462021FDF758FE03789BB10D
:104A700004460546002305F8013B3846FDF7B2FA27
:104A80008046412829D06378212B0AD07E2B08D07C
:104A90002F2B06D0002406E013493046FEF7F4F829
:104AA0000FE0A51C012429461048FDF719FE50B956
:104AB00074B101214046FDF7E5FA0D493046FEF795
:104AC000E3F8BDE8F0810B493046FEF7DDF8F8E782
:104AD00001214046FDF7CEFAEFE73A460649304657
:104AE000FEF7D2F8EDE700BFD89E0008E89E000868
:104AF000009F0008F09E00089C9E00082DE9F04FE2
:104B00008BB007460846FDF755FE037805934649E6
:104B10003846FEF7B9F800264FF0200822E0434A55
:104B2000039202930190CDF800A04B4642464049C3
:104B30003846FEF7A9F82846FDF7B2FA20B1284614
:104B4000FDF7AEFA01285AD1E2682369616920684D
:104B500002960190009137493846FEF795F84FF0DC
:104B60002C0801363F2E51D8F5B22846FDF760FAE1
:104B700004462846FDF78EFA10F0010F02D0059B7F
:104B8000682BEED1D4F80490D4F808A0B4F818B08B
:104B90002846FDF7E1F90290CDF804B0CDF800A069
:104BA0004B46424624493846FEF76EF80DF11F0386
:104BB00003930DF11E03029309AB01930DF11D0345
:104BC000009307AB08AA29461C480068FEF738FF87
:104BD0000028B0D0DDF820809DF81C909DF91DA024
:104BE0004FF08441099804F0F1F904F0B5FB9DF908
:104BF0001E309DF81F20002A91D0114A90E71149DC
:104C00003846FEF741F84FF02C08AAE70E4BD3F8D0
:104C1000F0270E493846FEF737F80D493846FEF7BB
:104C200033F80BB0BDE8F08F249F00081C9F0008EC
:104C3000589F0008BC9F0008289F0008740B0020A4
:104C4000149F0008A89F000800F0FF1F0CA0000898
:104C500048A000082DE9F0478AB0074600230593D5
:104C600006930793089309930846FDF7A3FD04787C
:104C7000702C38D0632C44D02021FDF74FFD0378F1
:104C8000002B47D0FDF796FD06462021FDF746FD97
:104C900003780BB9642C44D10546002305F8013B89
:104CA0003046FDF79FF9064681462846FDF782FD0E
:104CB0008046412E3AD0642C3DD000231D464FF053
:104CC0007E539A46042D62DC20214046FDF726FDE6
:104CD00006460378002B39D1022D37DC5949384676
:104CE000FDF7D2FF1AE0584B1B68002BFBD1564C46
:104CF00027605649564B1868FEF729FF00232360AA
:104D00000CE0534B1868FEF77AFF52493846FDF71E
:104D1000BBFF03E04B493846FDF7B6FF0AB0BDE8DC
:104D2000F08748493846FDF7AFFFF7E74A4938466C
:104D3000FDF7AAFFF2E73146454B1868FEF73DFE46
:104D4000024646493846FDF79FFFE7E700233370E8
:104D50004046FDF716FD032D0DD00AAB03EB85038E
:104D600043F8140C30460130FDF724FD80462B46F5
:104D700001331D46A6E710214046FDF7EEFD04F085
:104D8000D1F84FF05E5104F021F98246EAE7742C25
:104D90001FD09DF924300293CDF804A09DF91C305A
:104DA00000939DF81830059A494629480068FFF796
:104DB000A9F810F1030F2ED01CDD10F1020F24D042
:104DC000B0F1FF3F33D1059A25493846FDF75CFF26
:104DD000A4E79DF924300293CDF804A09DF91C307E
:104DE00000939DF81830059A494619480068FFF766
:104DF0006CF8DEE710F1050F13D010F1040F16D197
:104E000018493846FDF740FF88E7069A16493846A4
:104E1000FDF73AFF82E7079A14493846FDF734FF59
:104E20007CE7059A12493846FDF72EFF76E7012800
:104E300006DD104B024610493846FDF725FF6DE7A9
:104E40000E4BF7E778A00008780B00201149000806
:104E5000740B002054A000088CA00008A0A000083B
:104E6000B8A000081CA10008CCA00008E0A0000821
:104E7000F4A0000850A0000838A10008109F000806
:104E800010B50D4B1B7893B1044672B60B4B1868E6
:104E9000FFF724F90A492046FDF7F6FEFEF731F840
:104EA000024662B607492046FDF7EEFE10BD0649F0
:104EB000FDF7EAFEFAE700BF89080020740B002026
:104EC00064A1000874A1000890A1000810B5044670
:104ED00072B6FEF771F862B638B94020FCF7A2FA54
:104EE00004492046FDF7D0FE10BD03492046FDF7DA
:104EF000CBFEF9E7D4A10008E8A1000808B503F04B
:104F00000DFB2DE9F843054688461746002604E0C8
:104F100023782C2B16D1BE4214D22C212846FDF723
:104F2000FDFB044690F80090002303702846FDF72F
:104F300059F8254605F8019B4128E9D008F80600F4
:104F40000136E5E73046BDE8F88300002DE9F04181
:104F500084B006460846FDF72DFC0446FDF711FC1B
:104F6000804620212046FDF7D9FB03784BB10A2269
:104F700001A90130FFF7C5FF07463046FDF7A8F845
:104F800020E018493046FDF77FFE04B0BDE8F0810F
:104F900004F110036B4413F80C0CFCF7DDFF03461F
:104FA0002A4611493046FDF76FFE01340F4DBC42D1
:104FB000EEDB0F493046FDF767FEB8F1FF3F01D049
:104FC00008F1FF383046FDF77DF80028DDD1804537
:104FD00002DD084D0024EAE7B8F1FF3FD5D1054DC9
:104FE0000024E4E700A2000820A20008549F000863
:104FF000D0A10008109F000808B5042856D019DC7D
:1050000002282FD003283FD0012811D1394B3A4A2A
:105010001A603A4B3A4A1A603A4B3B4A1A601520DA
:105020003A4B1860FCF79EFF394B1860012008BD11
:105030000020FCE705284BD0062811D12D4B354A1E
:105040001A602E4B344A1A602E4B344A1A601320D1
:105050002E4B1860FCF786FF2D4B18600120E6E709
:105060000020E4E7234B2E4A1A60244B2D4A1A6095
:10507000244B2D4A1A601620244B1860FCF772FF4F
:10508000234B18600120D2E71A4B284A1A601B4BA9
:10509000274A1A601B4B274A1A6011201B4B1860C5
:1050A000FCF760FF1A4B18600120C0E7114B224A41
:1050B0001A60124B214A1A60124B214A1A601220C0
:1050C000124B1860FCF74EFF114B18600120AEE741
:1050D000084B1C4A1A60094B1B4A1A60094B1B4AB1
:1050E0001A601420094B1860FCF73CFF084B18604D
:1050F00001209CE7840B002058090020800B002031
:10510000480900207C0B002050090020B80B00202B
:10511000BC0B0020700900206009002068090020F5
:10512000080A0020F8090020000A0020180A0020C0
:10513000B8090020C0090020B00900209009002013
:1051400098090020880900207809002080090020A3
:1051500070B500240FE0174B1B689988186802F09F
:105160009CFC154B1B689988186802F094FC134B43
:1051700000221A702C46052C1BDC651C2846FFF704
:105180003BFFB0B10E4B53F82430002BE3DD094E4A
:1051900033689988186802F086FC3068FCF7DAF802
:1051A0000028E7D0064A52F82430013B42F8243068
:1051B000E0E770BD7C0B0020800B00209C0B0020E2
:1051C000A00B00202DE9F04104460D46FFF714FF27
:1051D00048B1274B1B7833B9631E1A461E46254B30
:1051E00053F822300BB1BDE8F081234B1878FCF75F
:1051F000B9FE0746C4B2FF220021284601F080F81C
:105200008046C3B21D469C4219D3AC42EBD91B4B1E
:105210001B689988186802F040FC194B1B68998834
:10522000186802F03AFC5FFA88F1FBB25B1A114A87
:1052300042F82630104B1878FCF7B6FED3E70F4B38
:105240001B689988186802F028FC0D4B1B68998828
:10525000186802F020FC5FFA88F1FBB2CB1A054A0D
:1052600042F82630044B1878FCF79EFECDE700BFCD
:105270009C0B0020A00B0020B80B0020800B00200E
:10528000840B0020F8B5134B01221A700024052C62
:105290001EDC651C2846FFF7AFFEC8B10E4F002686
:1052A00047F824600D4B1B689988186802F0F5FBDD
:1052B0000B4B1B689988186802F0EFFBFF2347F837
:1052C00024303146074B1878FCF76EFE2C46DEE79B
:1052D000F8BD00BF9C0B0020A00B0020800B00201D
:1052E000840B0020B80B002008B5054B998818687E
:1052F00002F0D1FB00211720FCF756FE08BD00BFCD
:105300002809002008B5054B9988186802F0C5FBEC
:1053100001211720FCF748FE08BD00BF2809002026
:1053200008B5094B1B784BB90146052809D8074B2E
:1053300018600C20FCF738FE002008BD4FF0FF304D
:10534000FBE74FF0FF30F8E7900B0020980B0020B0
:10535000F8B55C4B1E68304604F044F8054602245C
:1053600001231F4600E00134052C0ADC564B53F89C
:105370002400301A04F036F88542F4DD054627464D
:10538000F1E7524B1F60524B1B7833BB514B1B68EC
:10539000002B42D04C4A52F82340A41B204604F074
:1053A00021F80A287DDD02F0B5FD4B4B1B68B342A6
:1053B00044D0494B1E60494B1860002C63DD484BBC
:1053C00001221A70474B9988186802F064FB464B1B
:1053D0009988186802F061FB2FE002F09BFD3E4BBC
:1053E0001B68B34204D03C4B1E603C4B186024E069
:1053F0003A4B1B68C01A63281FD93A4B9988186822
:1054000002F04BFB384B9988186802F046FB0023EA
:105410002C4A13602E4A13700FE0324B998818689B
:1054200002F03BFB304B9988186802F036FB2A4BA0
:105430001E6002F06FFD294B1860F8BD274B1B68FA
:10544000C01A6328B9D9274B9988186802F025FB40
:10545000254B9988186802F020FB1E4B1B68012B16
:1054600006D0052B0BD1174B40F2B6321A6002E082
:10547000144B00221A60174B00221A60DDE70A2045
:10548000FDF7CEFDF7E7164B00221A70154B9988F1
:10549000186802F002FB144B9988186802F0FBFAB6
:1054A000CBE7104B9988186802F0F7FA0E4B9988F1
:1054B000186802F0F2FA084B1E6002F02BFD074B51
:1054C0001860BAE7CC08002044A40008940B002020
:1054D000900B0020980B0020880B00208C0B0020E4
:1054E0008A080020A8090020A0090020014B1868A4
:1054F000704700BF940B002008B50D4B01221A70B5
:1055000000230C4A13600C4A13700C4B99881868DE
:1055100002F0C3FA0A4B9988186802F0BCFA02F04C
:10552000F9FC084B1860084B1A68084B1A6008BD54
:10553000900B0020980B00208A080020A80900206A
:10554000A00900208C0B0020CC080020880B002034
:10555000CBB203EB1123002203E0815C0B449BB22E
:105560000132062AF9DDD8B27047000008B559B1FA
:105570000122824009490B7813430B70074B1978BD
:105580003120FCF711FD08BD01238340DB435BB2F2
:1055900002490A7813400B70F0E700BFCE0B0020E1
:1055A00030B583B005460820FCF7DCFC04462E200D
:1055B000FCF7D8FC8DF8000003128DF801308DF84F
:1055C000024024128DF8034000238DF804309842E5
:1055D00011DD01238DF8053000238DF806308DF89C
:1055E00007302B685C6808236A4640F2A1212846F0
:1055F000A04703B030BD0023ECE7000010B504461F
:105600000920FCF7AFFC01280ED002280ED002F0D2
:1056100081FC95280CD9094B53F8243053B1C01A9A
:10562000322809D9012002E0012000E0002010BD4D
:105630000020FCE70120FAE70020F8E7D00B00206B
:1056400030B583B004460120FFF7D8FF054668B1A6
:1056500040F2FF13009300230193204623685B6808
:105660001C4602236A4640F2D121A0472946012068
:10567000FFF77CFF03B030BD30B583B0044689230B
:105680008DF8003042238DF8013072238DF80230FE
:1056900085238DF8033001238DF804302C238DF8F9
:1056A0000530144B1B781B0143F002038DF80630C4
:1056B00040F2A1316846FFF74BFF8DF80700032049
:1056C000FFF79CFF054640B1204623685B681C46F7
:1056D00008236A4640F2A131A04729460320FFF77C
:1056E00045FF044A1378013303F00F03137003B02E
:1056F00030BD00BFCB0B002030B583B00446022084
:10570000FFF77CFF054668B1094B6A4693E8030042
:10571000CDE90001204623685B681C46082340F25F
:105720002131A04729460220FFF720FF03B030BDFA
:1057300068A4000830B583B00546002300930193A8
:10574000274B1B78A3BB41238DF8003001238DF834
:10575000013005238DF80230224B1B781B018DF898
:10576000063040F221216846FFF7F2FE8DF807006F
:105770000020FFF743FF044640B128462B685B68D2
:105780009C4608236A4640F22121E047214600203A
:10579000FFF7ECFE124A1378B3FA83F35B09137038
:1057A000104A1378013303F00F03137003B030BDB8
:1057B00040238DF8003041238DF8013005238DF80A
:1057C000023015238DF8033050238DF80530054B3A
:1057D0001B781B0143F001038DF80630C1E700BFC1
:1057E000CD0B0020CC0B002030B583B005462D4BEF
:1057F0001B78002B3CD103238DF8003019238DF842
:10580000013064228DF8022032228DF803208DF8B9
:10581000043000238DF80530234B1B781B018DF8D5
:10582000063040F245516846FFF792FE8DF80700BA
:105830000420FFF7E3FE044640B128462B685B686E
:105840009C4608236A4640F24551E0472146042021
:10585000FFF78CFE134A1378B3FA83F35B091370D6
:10586000114A1378013303F00F03137003B030BDF6
:1058700014238DF8003000238DF801303F238DF87C
:10588000023070238DF803309F238DF804300123FC
:105890008DF80530044B1B781B0143F00A038DF88B
:1058A0000630BEE7CA0B0020C90B00202DE9F843E3
:1058B000044602F02FFB304B186021786078030219
:1058C00003F4E0631943A278530103F4787343EAC5
:1058D000D007E578ED0045EA521520796279130288
:1058E00003F4807340EA0308A379DB0103F4F06357
:1058F00043EA5209E67906F00F0601EB81014900FF
:105900002D20FCF751FB384603F00CFB1B4903F03C
:105910005DFB01462F20FCF755FB404603F002FBE0
:10592000164903F053FB01463520FCF74BFB484674
:1059300003F0F8FA4FF07C5103F048FB01463420A5
:10594000FCF740FB31463220FCF72EFBE179C90918
:105950003320FCF729FB05EB850569003020FCF7B7
:1059600023FB032E03D00F2E01D0BDE8F8830220C5
:10597000FDF756FBF9E700BFE80B0020CDCCCC3D8E
:1059800003780A2B00D0704710B50446037941799B
:1059900043EA01213620FCF707FBA379E17943EACA
:1059A00001213720FCF700FB10BD000010B50446B4
:1059B00041783820FCF7F8FA617928393920FCF76A
:1059C000F3FAA17928393A20FCF7EEFA637813F05C
:1059D000010F03D1094B00221A6010BD02F09AFAA0
:1059E000064B1B6813B9054B1860F6E7C01A64280C
:1059F000F3D90120FDF714FBEFE700BFE40B002013
:105A000010B50024042C0BDC064B33F81430834211
:105A100001D00134F6E702F07DFA034B43F824008D
:105A200010BD00BF5CA40008D00B002010B50446D8
:105A3000124B1B6883B92046FFF7B2FD2046FFF7E3
:105A4000FFFD2046FFF718FE0D4A13780133DBB245
:105A50001370092B0BD810BD02F05CFA074B1B68C2
:105A6000C01A3128E7D90120FDF7DAFAE3E7134637
:105A700000221A702046FFF73FFEECE7E80B0020FB
:105A8000C80B002010B50446FFF754FE2046FFF770
:105A9000ABFE10BD08B56422002100F031FC00EB24
:105AA000800041002E20FCF77FFA08BD10B50446A7
:105AB00001462820FCF778FA64220021204600F0F5
:105AC0001FFC4CF2503300220249C0B200F022FC0D
:105AD00010BD00BF0008004010B5044601462A2052
:105AE000FCF762FA64220021204600F009FC4CF227
:105AF000503302220249C0B200F00CFC10BD00BFBE
:105B00000008004008B5074B1B6843B1054B1868F7
:105B100003F004FA0146044803F00CFB08BD002022
:105B2000FCE700BFC8080020C0E1E44B08B5074B04
:105B30001B6843B1054B186803F0F0F901460448AF
:105B400003F0F8FA08BD0020FCE700BFC4080020FD
:105B5000C0E1E44B10B502F0DDF90446164B1B78AA
:105B600023B1154B00221A70144B1860144B1B788C
:105B700023B1134B00221A70124B1C602820FCF733
:105B8000F1F9052804DD0D4B1B68E31AC72B0AD871
:105B90002A20FCF7E7F9052804DD0A4B1B68E41A04
:105BA000C72C04D810BD0820FDF73AFAF0E7092009
:105BB000FDF736FAF6E700BFC2080020C40B00204C
:105BC000C1080020C00B002010B504460A4903F0AC
:105BD000AFFB50B90949204603F0AAFB38B9084980
:105BE000204603F0A5FB20B910BD0320FCE70220EE
:105BF000FAE70120F8E700BF0000E4410000B041EF
:105C00000000384108B5022300221146074801F080
:105C10000DFF074801F01EFB054801F0DDFA0028E2
:105C2000FAD0034801F0DCFA80B208BD000C014054
:105C30000028014010B504460223002219460748F7
:105C400001F0F4FE24B10221044801F024FF10BD4C
:105C50000221024801F021FFF9E700BF000C0140DA
:105C600038B500242C4D22462B462C4800F0B2FCBF
:105C700022462B462A4800F0ADFC22462B462948F6
:105C800000F0A8FC22462B46274800F0A3FC224641
:105C90002B46264800F09EFC22462B46244800F066
:105CA00099FC22462B46234800F094FC22462B46C2
:105CB000214800F08FFC16A3D3E900231F4800F011
:105CC00089FC22462B461E4800F084FC22462B46C7
:105CD0001C4800F07FFC22462B461B4800F07AFC53
:105CE00022462B46194800F075FC22462B461848E0
:105CF00000F070FC22462B46164800F06BFC224652
:105D00002B46154800F066FC38BD00BFAFF300809D
:105D1000333333333333D33F0000E03F680D00208B
:105D2000500D0020380D0020200D0020080D00200F
:105D3000F00C0020D80C0020C00C0020A80C002083
:105D4000900C0020780C0020600C0020480C0020F3
:105D5000300C0020180C0020000C002038B502F098
:105D6000D9F80446304B1B78012B0BD0022B17D0EF
:105D70003BB91846FFF75EFF2C4B1C602A4B0122F3
:105D80001A7038BD294B1B68C31A632BF9D901203F
:105D9000FFF750FF254B1C60234B02221A70F0E7DF
:105DA000FFF730FF214B1B68E31A1A461D4640F2ED
:105DB000DB53984201D8632A31D90020FFF73AFF1C
:105DC0001A4B1C60184B01221A70284603F0A6F8E3
:105DD000174903F0FBF8174903F0ACF9164903F033
:105DE000F5F8164903F0F2F802F028FD02460B46DA
:105DF000134800F000FC02F08BFF0546FFF7E4FEBD
:105E0000044629462220FCF7DDF821462120FCF734
:105E1000CBF8012CB5D80720FDF702F9B1E7012036
:105E2000FFF708FFADE700BFF40B0020F00B0020E8
:105E30000AD7233C00401C460024744985EB513F9F
:105E4000A80C00202DE9F04F87B0B348FCF7ECFF19
:105E5000039003F063F80746B048FCF7E5FF0490B1
:105E600003F05CF88146AE48FCF7DEFF059003F0D6
:105E700055F8834600264FF08B45DFF8A882AA4CE0
:105E80002368009333462A464146384600F01CFA00
:105E90008246A64F3B68009333462A46A4494846AB
:105EA00000F012FA81462368009333462A464146A1
:105EB000584600F009FA0546206803F04DFA0646F8
:105EC000504603F049FA3246002100F019FA03F077
:105ED00029F80646386803F03FFA0746484603F0BB
:105EE0003BFA3A46002100F00BFA03F01BF8074694
:105EF000206803F031FA0446284603F02DFA2246C2
:105F0000002100F0FDF903F00DF80446304602F0E0
:105F100095FC02460B46874800F06DFB02F0F8FE48
:105F200001461820FCF74EF8384602F087FC02467E
:105F30000B46814800F05FFB02F0EAFE01461920A3
:105F4000FCF740F8204602F079FC02460B467B48FD
:105F500000F051FB02F0DCFE01461A20FCF732F89B
:105F60007748FCF761FF042100F0C2FA0446754847
:105F7000FCF75AFF042100F0BBFA05467248FCF713
:105F800053FF042100F0B4FA80467048FCF74CFF40
:105F9000062100F0ADFA82466D48FCF745FF062168
:105FA00000F0A6FA83466B48FCF73EFF062100F09E
:105FB0009FFA8146204602F041FC02460B466648A5
:105FC00000F019FB06460F46644B186802F036FCD9
:105FD00002460B463046394602F0D0FA02F098FEEF
:105FE00001461B20FBF7EEFF284602F027FC024685
:105FF0000B465B4800F0FFFA06460F46594B1868FF
:1060000002F01CFC02460B463046394602F0B6FA56
:1060100002F07EFE01461C20FBF7D4FF404602F052
:106020000DFC02460B46504800F0E5FA06460F46C6
:106030004E4B186802F002FC02460B4630463946C9
:1060400002F09CFA02F064FE01461D20FBF7BAFF45
:10605000474B1B7853B3474B1B78002B41D0484626
:1060600002F0ECFB02460B46434800F0C4FA02F093
:106070004FFE01462020FBF7A5FF039A052A40F2B8
:10608000858040F6F9739A4200F2CB80049A052A83
:1060900040F2C9809A4200F2C880059A052A40F26F
:1060A000C6809A4200F2C580002670E0504602F099
:1060B000C5FB02460B46314800F09DFA06460F46E6
:1060C0002F4B186802F0BAFB02460B4630463946A1
:1060D00002F054FA02F01CFE01461E20FBF772FF8C
:1060E000B9E7584602F0AAFB02460B46254800F0E5
:1060F00082FA06460F46244B186802F09FFB0246C0
:106100000B463046394602F039FA02F001FE0146EC
:106110001F20FBF757FFA2E7340A0020500A002097
:106120004C0A002000801344980800209C0800209E
:106130000000B943680D0020500D0020380D0020EC
:10614000400A00203C0A0020380A0020440A0020AF
:106150002C0A0020480A0020200D0020940800206E
:10616000080D002090080020F00C00208C08002072
:10617000820D0020810D0020300C0020D80C002062
:10618000FC0B0020C00C0020F80B00200126464923
:10619000204603F0C3F800284DD14449204603F0BF
:1061A000C7F800285DD14049284603F0B7F8002819
:1061B00059D13E49284603F0BBF8002855D13A4949
:1061C000404603F0ABF8002851D13849404603F06F
:1061D000AFF800284DD13649504603F09FF800280B
:1061E00049D13449504603F0A3F8002845D130493D
:1061F000584603F093F8002841D12E49584603F041
:1062000097F800283DD12A49484603F087F800282E
:1062100039D12849484603F08BF8002835D1044687
:106220000AE00126B3E70126B1E70126AFE7012620
:10623000ADE70126ABE701244EB31F4B1B880133AA
:106240009BB21D4A1380132B23D834B31B4B1B88DE
:1062500001339BB2194A1380132B20D807B0BDE835
:10626000F08F0124E8E70124E6E70124E4E70124B4
:10627000E2E70124E0E70124DEE70124DCE7012472
:10628000DAE70124D8E70124D6E70124D4E733462E
:10629000D7E70520FCF7C4FED7E72346DAE7062058
:1062A000FCF7BEFEDAE700BF0000F0C10000DC42F0
:1062B000000020C20000F042EE0B0020EC0B00209A
:1062C00008B5FFF7CDFC08BDF8B50F4616461C46CD
:1062D00002F072FD05462146069802F06DFD01466A
:1062E000284602F073FE05463946304602F064FD4A
:1062F0000146284602F01EFF214602F05FFDF8BD70
:10630000904202DC884202DB704710467047084624
:106310007047000038B58446084611461A46BCF15D
:10632000640F01D94FF0640C541CACFB04C4CCF3D3
:10633000130E4FEA1C5343EA0433C3F313039E4482
:10634000C4F313239E440EEB147E114BA3FB0E5398
:10635000DB0803EB830303EB8303AEEB030EBCEB21
:106360000E0C64F10004DFF82CE00B4B03FB0CF384
:106370000EFB0433ACFB0ECE73444FEA9C0C4CEA8C
:10638000837C624500D3624601F07BFF38BD00BFCD
:106390001F85EB51295C8FC2F5285C8F10B5044630
:1063A00001F0B8FD1D4B186021782320FBF7FCFDA0
:1063B00061782420FBF7F8FDA1782520FBF7F4FD98
:1063C000E1782620FBF7F0FD2079431EDBB2FD2BA0
:1063D00094BF01220022124B1A700AD96079431E21
:1063E000DBB2FD2B94BF012200220E4B1A700AD99A
:1063F00010BD02F093FD0C4902F0DEFC01461E20A8
:10640000FBF7E0FDEAE702F089FD074902F0D4FC62
:1064100001461F20FBF7D6FDEAE700BF840D0020F0
:10642000820D0020810D002000002042F0B583B0D5
:1064300007460026009601963B20FBF793FD00F0EF
:1064400003053220FBF78EFD04460D20FBF78AFD85
:10645000A30003F03C032B4343EA80138DF8003084
:10646000344601E00134E4B20F2C12D82046FCF788
:10647000FDFD05462046FCF70BFE0028F2D0002D5E
:10648000F0D0102DEED8013D0123AB4033439EB236
:10649000E8E78DF80160360A8DF802601020FBF7FE
:1064A00061FD8DF803003020FBF75CFD00F1320345
:1064B0000D4880FB0320DB17FF220021C3EB601097
:1064C000FFF71EFF8DF80400084A1378591C11705D
:1064D0008DF805303B685C6806236A4640F2E1614E
:1064E0003846A04703B0F0BD1F85EB51800D00205A
:1064F00006296AD82DE9F0470C46002398461D4628
:1065000039E087424ADB4DE0012E27D0C01B02F064
:1065100009FD8146012E26D04346D81B02F002FD1C
:106520008246670004EB4403DFF8A48008EB830392
:106530001E79304602F0F6FC494602F047FD51460E
:1065400002F0F8FD8146274438F9270005FB0600D4
:1065500002F0E8FC494602F02FFC34E0381A02F061
:10656000E1FC8146D6E74346F81A02F0DBFC82469E
:10657000D7E70135B84604EB4402154B03EB820321
:106580005B79AB4218D904EB4402114B03EB820355
:106590009A6832F815709E79012EB2D0002EE8D19B
:1065A0008742E6DC002DAFD104EB4404084B33F9FD
:1065B000240002F0B7FC06E0054B03EB8203B3F9BD
:1065C000020002F0AFFCBDE8F0870020704700BF7A
:1065D00070A400084DF804BD93469C460022002399
:1065E000C0E90023C0E9022300230374C0E902BC10
:1065F0005DF804BB70472DE9F0410446104619468A
:10660000237CCBB1D4E90278D4E900562A4633463C
:1066100001F0B4FF02460B463846414602F066F9E7
:1066200002460B462846314601F0AAFFC4E90001A4
:10663000D4E90001BDE8F081C4E90001012323741D
:10664000F6E770B516461C465A2B02D84F2C1AD9BD
:1066500070BD0720FBF786FC05461C20FBF782FC7B
:10666000281A02F05FFC4FF0804102F06BFE002818
:10667000ECD03378053BDAB213F0800F01D03270E2
:10668000E6E78022FBE70220FBF76CFC04461E20B5
:10669000FBF768FC201A02F045FC4FF0804102F045
:1066A00051FE0028D4D0337805333370D0E770B56D
:1066B0000E4614465A2A02D84F2C19D970BD1B20F9
:1066C000FBF750FC05460620FBF74CFC281A02F0AD
:1066D00029FC4FF0804102F035FE0028ECD03378E1
:1066E000053BDBB2272B01D93370E7E72823FBE713
:1066F0001E20FBF737FC04460320FBF733FC201A6F
:1067000002F010FC4FF0804102F01CFE0028D5D0B2
:10671000337805333370D1E738B52120FBF722FCFD
:1067200001283EDD244B1B784BB1234B00221A700D
:10673000224B1A68224B53F82220224B1A60224B1C
:106740001A68224B53F82200FEF7EAFD1B4D2B6816
:106750001F4CE05CFFF7C0F92B68E05CFFF7A6F97F
:10676000184A1368643B1360D3B92B6801332B605C
:10677000032B0EDD00222A6013490A680132154BF3
:1067800083FB0203A3EBE27303EB4303A2EB43039C
:106790000B600A4B1A680A4B53F82220094B1A6007
:1067A00038BD0020FFF798F90020FFF77FF9024B72
:1067B00001221A70F4E700BF890D0020900D00201F
:1067C000FCA600088C0D0020940D002010A70008E6
:1067D0000CA70008ABAAAA2A70B5044600230360E0
:1067E000C0F803302420FBF7D3FB20702520FBF7F3
:1067F000CFFB60702320FBF7CBFBA0701E20FBF7C4
:10680000B1FB05460220FBF7ADFBA8423DDD414B45
:1068100001221A703F4B1B78E3700320FBF7A2FBA9
:10682000A84248DA3C4B01221A703B4B1B7823717B
:106830001F20FBF797FB05460520FBF793FBA842BB
:106840004FDA364B01221A70344B1B7863710022E9
:10685000A271A27802B10122217901B102210A4379
:1068600003B104231343227802B108221A43637848
:1068700003B110231343E278002A48D020211943A2
:106880001020FBF791FB204670BD284602F04AFB22
:1068900006460220FBF766FB02F044FB204902F0AB
:1068A0008DFA0146304602F04DFD0028B2D0194B5A
:1068B00000221A70AEE7284602F034FB054603209A
:1068C000FBF750FB02F02EFB154902F075FA01466A
:1068D000284602F019FD0028A7D00F4B00221A709D
:1068E000A3E7284602F01EFB05460520FBF73AFB0E
:1068F00002F018FB0A4902F05FFA0146284602F04E
:1069000003FD0028A0D0054B00221A709CE7114619
:10691000B5E700BF9A0D0020990D0020980D0020CA
:106920000000A040F8B507460C4615462020FBF7AE
:1069300019FB02F0F7FA06461E20FBF713FB02F0E4
:10694000F1FA8446FA7882F0010201232360227171
:10695000A0604FF0000EC4F80CE023746661084A92
:10696000183407CA84E807003A795A402B602A7124
:10697000C5F808C0C5F80CE02B746E61F8BD00BF07
:1069800028A700082DE9F04782460D460024184B41
:106990009946264605E0174902F00EFA024614E031
:1069A0000134022C1BDC04EB44039F0005EB830342
:1069B0001A79002AF4D09968504602F0FDF902468F
:1069C000EF590D4B1B689F42E5D090461146484653
:1069D00002F0B8FC0028E3D0C1463E46E0E7064B93
:1069E0001E6031460F20FBF7DFFA3046BDE8F08726
:1069F000FFFF7F7F0000A040A40800202DE9F047A2
:106A000082460D4600246FF400039946264605E0B1
:106A1000164902F0D3F9024614E00134012C1BDCC4
:106A200004EB44039F0005EB83031A79002AF4D09A
:106A30009968504602F0C0F90246EF590C4B1B68AA
:106A40009F42E5D090461146484602F05DFC002882
:106A5000E3D0C1463E46E0E7054B1E6031460E20BE
:106A6000FBF7A2FA3046BDE8F08700BF0000A04067
:106A7000A00800202DE9F04106460D46904B1B78FA
:106A800073B98F4B01221A700146284602F094F91F
:106A90008C4B18608C4B8D4A1A608D4B8D4A1A6056
:106AA0001920FBF767FA04461A20FBF763FA07463A
:106AB0008949204602F046FC90B94FF07E51384695
:106AC00002F022FC80B98449204602F03BFC90B9D8
:106AD0004FF07E51384602F017FC48B980460CE072
