:020000040800F2
:10100000005000207D820008798200087782000865
:1010100077820008778200087782000800000000CD
:1010200000000000000000000000000079820008BD
:1010300079820008000000007982000879820008A7
:10104000778200087782000877820008778200089C
:10105000778200087782000877820008778200088C
:10106000778200087782000877820008778200087C
:10107000778200087782000877820008778200086C
:10108000778200087782000877820008A53600087A
:101090008536000895360008778200089914000804
:1010A000778200087782000877820008778200083C
:1010B0007782000889140008D1140008778200089C
:1010C000778200087782000877820008778200081C
:1010D000778200087782000877820008778200080C
:1010E00077820008778200087782000877820008FC
:1010F00077820008778200087782000877820008EC
:1011000077820008778200087782000877820008DB
:1011100077820008778200087782000877820008CB
:1011200077820008778200087782000877820008BB
:10113000778200087782000877820008D33600089B
:10114000B3360008C33600087782000877820008AB
:1011500008B58446084611461A46DCF8043098471C
:1011600008BD08B58368984708BD00B54FF0000C6E
:10117000E64604E000BF1CF1010C4EF1000E4B01ED
:1011800043EAD0634201121A63EB01039B0043EA76
:1011900092739200121841EB03031B0143EA12738E
:1011A000120194457EEB0303E4DB00BD10B506F0AD
:1011B00097FB214B186800F0B0FE07F0C7FD1F49F0
:1011C00007F0CCFE01464E2000F01EFF1C4801F047
:1011D0004BFE07F0B7FD1B4907F0C0FE01464D204E
:1011E00000F012FF06F0AAFD01F034FF164C206853
:1011F00005F050F9206804F039FC04F04BFE0A2099
:1012000000F0D2FE70B105F020FE104B186802F01D
:10121000FDFA0F4B1B7843B90D4A137883F0010395
:10122000137010BD05F078FCEFE70A4B9988186839
:1012300006F04DFBF0E700BFC00A0020000020418F
:10124000200C002000004B43BC0A0020B80A0020FC
:10125000A00A0020B80B002008B5024B186804F063
:1012600031FC08BDBC0A002008B503F091FF08BDA1
:1012700008B5034640F22132904223D008460BD9EC
:1012800040F2455293421DD025D840F26632934237
:101290001CD104F095FB23E040F2C722934221D0F9
:1012A000B3F5327F0AD240F2212293420AD040F2B3
:1012B000A722934214D104F019FB11E040F2D1228D
:1012C00093420DD1184604F0BBFB09E040F2A13275
:1012D000934205D1F6E7B3F5DC6F01D105F092F842
:1012E000002008BD04F082FBFAE7000010B51C4C9A
:1012F00000224FF4DC61206802F019FA002240F26B
:10130000A721206802F013FA002240F2C7212068CA
:1013100002F00DFA002240F26631206802F007FA6E
:10132000002240F22121206802F001FA002240F25E
:10133000D121206802F0FBF9002240F2213120681F
:1013400002F0F5F9002240F2A131206802F0EFF935
:10135000002240F24551206802F0E9F910BD00BFBB
:10136000BC0A002010B504468188006806F0ACFA7B
:10137000003818BF0120A379181A18BF012010BD2A
:1013800008B5244B1B6833B106F0D8FC214B1B6811
:10139000C01AC72820D92048FFF7E4FF01463320B0
:1013A00000F024FE1D48FFF7DDFF0146342000F069
:1013B0001DFE1B48FFF7D6FF0146322000F016FE47
:1013C0001848FFF7CFFF0146352000F00FFE00233D
:1013D000154A1370154A137004F0BAFB07F0D0FEDB
:1013E0000146362000F002FE04F0C6FB07F0C8FEFE
:1013F0000146382000F0FAFD04F0D2FB03F0C8FFEC
:1014000004F094F801461A2000F0F0FD04F0CEFC40
:1014100008BD00BF740F0020200B0020300B0020FF
:10142000280B0020000C0020720F0020710F0020FC
:10143000FEE7000010B516280CD0172816D040B9CA
:10144000104B1B681C4600F0AFFDC1B2204602F0F5
:1014500083FF10BD162000F0A7FD0028F9D003F08F
:1014600031FF0021162000F0C1FDF2E7172000F047
:101470009BFD0028EDD004F05FF80021172000F05C
:10148000B5FDE6E7B40A002008B5024B186800F085
:101490000BFD08BDC00A002008B54FF4807006F0AF
:1014A000D5F850B1084B1B7843B1084A1368013393
:1014B00013604FF4807006F0C3F808BD034A136848
:1014C000013B1360F5E700BF6A0A0020AC0A002068
:1014D00008B50821214806F093FC28B910211F48BF
:1014E00006F08EFCE8B908BD02211C4806F0F3FDA9
:1014F0001B4B1B683BB183420CD8C31A194A1360BB
:10150000194B01221A70164B18600821134806F077
:101510007DFCE3E7C31A03F543435033114A1360DC
:10152000EEE703210D4806F0D6FD104B1B683BB1DA
:1015300083420CD8C31A0E4A13600E4B01221A7054
:101540000A4B18601021054806F060FCCBE7C31A6F
:1015500003F543435033064A1360EEE700080040AA
:101560009C0A0020A80A0020A20A0020980A002055
:10157000A40A0020A10A0020F0B5ADF61C0D00F071
:101580004BFA00F00FFBCC4E00223146CB4801F065
:10159000AFFC01223146CA4801F0AAFC03223146C1
:1015A000C84801F0A5FCC84D00222946C74801F0F3
:1015B0009FFCC74C00222146C64801F099FC01223D
:1015C0002146C54801F094FC02222146C34801F09F
:1015D0008FFC03222146C24801F08AFC04222146E6
:1015E000C04801F085FC05222146BF4801F080FC7F
:1015F00004234FF480723146BC4801F038F90723C8
:101600004FF400423146BA4801F031F90023042278
:101610002946B84801F02BF9072308222946B64885
:1016200001F025F9072310222946B44801F01FF9DB
:10163000072320222946B24801F019F90923402244
:101640002946B04801F013F9092380222946AE4803
:1016500001F00DF904234FF480722946AB4801F0E4
:1016600006F904234FF400722946A94801F0FFF857
:1016700009234FF400622946A64801F0F8F8072331
:101680004FF480422946A44801F0F1F807234FF4B3
:1016900080622146A14801F0EAF807234FF4006276
:1016A00021469F4801F0E3F807234FF4805221467A
:1016B0009C4801F0DCF807234FF4005221469A4879
:1016C00001F0D5F807234FF480422146974801F0F6
:1016D000CEF804F58064072301222146944801F0E6
:1016E000C6F8072302222146924801F0C0F80723DA
:1016F00004222146904801F0BAF807230822214627
:101700008E4801F0B4F80723102221468C4801F0DE
:10171000AEF80723202221468A4801F0A8F80723C3
:1017200040222146884801F0A2F807238022214662
:10173000864801F09CF804F58064072304222146C2
:10174000834801F094F8072308222146814801F0DC
:101750008EF80723102221467F4801F088F80023E5
:101760004FF4807221467D4801F081F800234FF448
:10177000007221467A4801F07AF800234FF4806223
:101780002146784801F073F807234FF400622146A0
:10179000754801F06CF801F0DFFA00F0F9FA00F09A
:1017A00091F900F0D7F901F027FC00F005FA0DF2ED
:1017B000EC5401260196009600236C4A6C492046A1
:1017C00000F0C6FC6B4B1C600DF5BC656A4BCDF898
:1017D000E0356A4BCDF8E035694BCDF8E435694B1F
:1017E000CDF8E835E1AC002302226749204601F03C
:1017F0008FFE664B1C602946204601F089FFFFF7EB
:1018000075FD32AD32462146284602F019FD604F83
:101810003D60604B1D600FAE2A462146304602F007
:1018200069FD5D4B1E60002000F0BEFBC1B230467A
:1018300002F092FD3A68594B1A60594D05AC2946A1
:10184000204600F0D7FA574B1968C1F35911564B8F
:10185000A3FB013189090139284606F0F8FA534BF8
:101860001C6003225249204600F0E8FA1422514934
:10187000204600F0E3FA64224F49204600F0DEFAE9
:10188000C8224E49204600F0D9FA00214B2000F032
:10189000ADFB4F20FFF7CEFD0A200021FFF765FCCE
:1018A00003F010FD64200021FFF75FFC03F044FE0D
:1018B00098E01C469FE000BF00080140400C00205B
:1018C0003C0C0020380C0020000C0140340C00209F
:1018D00000100140300C00202C0C0020280C0020AF
:1018E000240C0020200C00201C0C0020100C0020D8
:1018F000080C0020000C0020F80B0020F00B00204A
:10190000E80B0020E00B0020D80B0020D00B0020BB
:10191000C80B0020C00B0020B80B0020B00B00202B
:10192000A80B0020A00B0020980B0020900B00209B
:10193000880B0020800B0020780B0020700B00200B
:10194000680B0020600B0020580B0020500B00207B
:10195000480B0020400B0020380B0020300B0020EB
:10196000280B0020200B0020180B00200CA20008E0
:1019700000380140B00A00201C9200082C92000898
:1019800071120008ED12000800640040BC0A00203B
:10199000B80A0020640D0020B40A0020600D002069
:1019A00000040040940A0020632D3E05C00A002078
:1019B000691200088113000859120008AD110008CF
:1019C00004300DF10B0103F0B9F85CB103AB94E8FE
:1019D000030083E80300204602F036FF21460FA8EB
:1019E00002F0E3FC00228DF80B209DF8C430002BA0
:1019F0003FF45FAF2FAC064B186800F093FD054B2A
:101A000018684369002BE0D10028D9D1D9E700BF7D
:101A1000B00A0020B40A002008B5274806F0AEF846
:101A20004FF0E023254AC3F80C2D40F2023006F0B7
:101A300003F940F2033006F0FFF84FF4417006F06E
:101A4000FBF840F2053006F0F7F840F2063006F0F9
:101A5000F3F840F20E3006F0EFF840F20B3006F0EB
:101A6000EBF84FF4607006F0E7F840F2813006F0D2
:101A7000E3F840F2823006F0DFF84FF4207006F011
:101A8000DBF840F2093006F0D7F840F20A3006F0F1
:101A9000D3F840F2862006F0CFF84FF4407006F0FD
:101AA000CBF840F2993006F0C7F8054A536843F482
:101AB0000073536008BD00BFD4A600080003FA05F8
:101AC0000000014030B597B005F0FCFC00F5FF3593
:101AD00005F2FD15AD0201AC14220021204600F0F4
:101AE000C0FE1A4B01931823ADF8083001238DF87E
:101AF0000A3000228DF80B20154903914FF44071F4
:101B0000ADF810108DF812208DF8133005F0BEFCE2
:101B10001421204605F0C8FC15902B6D834201D19D
:101B200017B030BD05F070FE284605F029FE0024F0
:101B300007E001AB53F8241005EB840005F07EFEAE
:101B40000134142CF5D905F06BFEE9E700100140D3
:101B5000000C014008B51D2006F0FCFB00211D20F3
:101B600006F004FC1E2006F0F5FB01211E2006F005
:101B7000FDFB0B494FF4807005F070FD02214FF41E
:101B8000807005F02BFD4FF4807005F04BFD1720A1
:101B900006F0E0FB0221172006F0E8FB08BD00BFBD
:101BA0000008014008B54FF41C71032006F0FEF850
:101BB000002006F0CDF808BD38B54FF0804006F0A3
:101BC00041F90A214FF0804006F041F900214FF021
:101BD000804006F023F94FF6FF714FF0804006F089
:101BE00038F94FF0804006F014F9674D4FF4006368
:101BF00002221146284605F02DFE062211464FF01E
:101C0000804006F028F906214FF0804006F0E9F9FF
:101C100006214FF0804006F0FEF906214FF080408B
:101C200006F01EFA002206214FF0804006F03DFA31
:101C30004FF4806302221146284605F00BFE06226F
:101C400004214FF0804006F006F904214FF0804057
:101C500006F0C7F904214FF0804006F0DCF90421BA
:101C60004FF0804006F0FCF9002204214FF0804044
:101C700006F01BFA4FF0804006F0DFF84FF4407397
:101C800001220021284605F0E5FD404C204606F0E3
:101C9000D9F88F21204606F0DAF84CF25031204670
:101CA00006F0D7F8204606F0C3F80F22022120469E
:101CB00006F020FA05220221204606F043FA00220F
:101CC0000221204606F08CF80221204606F06DFA2B
:101CD0000821204606F090F800220321204606F055
:101CE00009FA06220321204606F02CFA00220321DD
:101CF000204606F075F80321204606F056FA10211A
:101D0000204606F079F8402302221146284605F0C5
:101D1000A1FD06220021204606F09DF80021204664
:101D200006F05FF90021204606F075F900212046F3
:101D300006F096F900221146204606F0B6F98023F7
:101D400002221146284605F085FD06220221204682
:101D500006F081F80221204606F043F902212046D0
:101D600006F059F90221204606F07AF900220221F4
:101D7000204606F09AF90121204606F0A6F92046F1
:101D800006F05BF838BD00BF000C014000080040C1
:101D900010B582B009238DF80730154C204605F0A8
:101DA0001BF9204605F022F9204605F034F90721F9
:101DB000204605F0FCF80DF107020121204605F050
:101DC0002FF94FF46021204605F0CAF8204605F0AF
:101DD000B5F8002301E000BF0133772BFBDD044C95
:101DE000204605F0C7F8204605F0D7F802B010BD30
:101DF0000028014038B505460C460162084606F049
:101E000008F8204606F014F80A4B1968C1F31A11B5
:101E1000094BA3FB0131C9090139204606F017F827
:101E20004FF6FF71204606F014F800236B62284637
:101E300038BD00BF940A0020C55A7C0AF8B5436A31
:101E4000032B00DDF8BD04460D461646006A05F07A
:101E5000F9FF636A0122134FF95C206A05F0FBFF6A
:101E6000636A0022F95C206A06F01FF9636A44F88D
:101E7000235003F1080106EB860202EB8202920076
:101E800024F8112002219940206A05F0B5FF0021B5
:101E9000206A06F02DF9206A05F0CFFF636A01334E
:101EA0006362CFE734920008F8B5054600242AE0C3
:101EB0000226A6403146286A05F0A2FF40B3286AF0
:101EC00006F007F987B22B6A03EB84035A6B04F11F
:101ED000080135F811100A445A6355F82430984720
:101EE000286A06F0F6F8C01B04F10C0325F813006D
:101EF0003146286A05F08AFF04E00221A140286AE1
:101F000005F084FF0134032C06DC6B6AA342CFDCAE
:101F10006B6AA342F6DCF0E7F8BD014600221046EA
:101F20000FE002F10C0331F813304FF47A7C0CFB14
:101F300003F302F1080C31F81CC093FBFCF31844C6
:101F400001324B6A9342ECDC70470000024B1A6886
:101F5000024BC3F858287047600A00203C0100205B
:101F600008B5C0EBC0020B4B03EB8203DB688B426E
:101F70000EDC084B03EB82031B698B4201DAFF2066
:101F800007E0054B43F82010FFF754FA002000E06B
:101F9000FF2008BD3C01002000000020014B53F849
:101FA0002000704700000020024B53F82000401131
:101FB000704700BF0000002008B5054B53F8200013
:101FC00006F0C4FE4FF0745106F014FF08BD00BFC8
:101FD00000000020044B53F820004011012814BFDA
:101FE00000200120704700BF000000204901024B83
:101FF00043F82010704700BF00000020014B43F859
:10200000201070470000002010B5044608464FF02D
:10201000844106F0EFFE07F0B3F8024B43F82400CA
:1020200010BD00BF0000002070B506460024074D1B
:102030004E2C09DC3146686800F072FB10B10134A7
:102040001C35F5E7E0B270BD5020FCE73C010020F4
:102050000023064A4E2B07DC118B814202D001334C
:102060001C32F7E7D8B27047502070473C0100207F
:10207000C0EBC000014B03EB800070473C01002027
:1020800038B50024074D01E001341C354E2C07DC27
:102090002B8B002BF8D06969E0B2FFF7AFFFF3E7B5
:1020A00038BD00BF3C010020014B1954704700BFF0
:1020B000C40A0020024A135C0B431354704700BF4C
:1020C000C40A0020024A135C23EA01031354704738
:1020D000C40A0020014B185C704700BFC40A0020EE
:1020E000C0EBC000024B03EB8003987E704700BF3B
:1020F0003C01002000487047E8A5010008B5FFF743
:1021000025FF08BD08B52021806806F0AEF808BD9F
:1021100008B5806806F0A1F808BD10B5044643680C
:10212000597A586805F032FA636804F12A02597A3C
:10213000586805F03DFA63688022597A586805F0BE
:1021400047FA6368597A586805F017FA10BD00001D
:1021500070B504460D4653490160534901608560DE
:10216000037302610121017541758175002282614D
:10217000C26180F82020426280F828109DF810107B
:1021800080F829109DF8141080F82A124749416000
:10219000032A07D861680868A84203D01C3161602F
:1021A0000132F5E7424A1460002B74D0626850692E
:1021B000002B73D063681B8B0222032105F04AFBBE
:1021C0004FF4E131284605F0F7FF0821284606F0D4
:1021D00005F84FF40051284606F009F80C2128466E
:1021E00006F011F80021284606F007F800212846DD
:1021F00006F00FF8284606F022F8284606F024F8E4
:102200006368197A586805F063F96368197A586841
:1022100005F0AAF963682E1D3246197A586805F050
:10222000BEF963680022197A586805F07BF9636883
:102230000022197A586805F069F96368197A5868B4
:1022400005F07CF96368597A586805F041F96368CC
:102250003246597A586805F0A2F963680022597A23
:10226000586805F05FF963680022597A586805F0EC
:102270004DF96368597A586805F060F96368597ACE
:10228000586805F07AF92046FFF747FF284605F021
:10229000C6FF204670BD6268D06889E763681B8A04
:1022A0008AE700BF8CA1000898A100089CA1000843
:1022B000140B002038B50D460469437D3BB12168FD
:1022C00039B1284600F02CFA18B10834F7E71C465B
:1022D00001E023680BB1204638BD1C46FBE738B54A
:1022E00004460D4601E0002373B163680222197AA7
:1022F000586805F002F90028F5D194F828300BB1A0
:102300000346F1E70123EFE76368197A586805F09F
:102310003DF96368AAB2197A586805F059F96368FB
:1023200094F82020D201A83222440232197A586847
:1023300005F03EF963680222197A586805F0D8F86A
:102340006368197A586805F018F994F82030B3FAE0
:1023500083F35B0984F82030002384F8283038BDEB
:1023600010B50446837D73B10A2910D0436A7F2BD0
:102370000DD090F8202000EBC2121A4482F8AA1067
:102380000133436210BD806805F04EFFFAE794F810
:102390002030626A04EBC313134483F8AA10511C63
:1023A0002046FFF79CFF00236362EBE710B50C4665
:1023B000802A28BF802211464FF0000C0AE090F8D6
:1023C000203014F80CE000EBC313634483F8AAE058
:1023D0000CF1010C8C45F2D3FFF781FF10BD38B52D
:1023E00005460C46084600F0B2F90246214628464A
:1023F000FFF7DCFF38BD000010B50446084600F0CA
:10240000F9F900F0DEF9237D83420DD000236375D6
:10241000237B0BB3626850690BB363681B8B01228B
:10242000002105F017FA10BD01236375237B6BB102
:10243000626850696BB163681B8B0222032105F04F
:1024400009FA08492046FFF7CAFFECE76268D0683E
:10245000F0E763681B8AF0E76268D068DCE76368CE
:102460001B8ADCE76C9E000830B585B00446084640
:1024700000F0C0F90378302B13D0322B0ED04FF47C
:1024800061231D46637D83B92946A06805F094FE4B
:102490000021A06805F0ABFE05B030BD0E4B1D4617
:1024A000F0E74FF4E1331D46ECE70A22294601A884
:1024B00000F05DF909492046FFF791FF08492046E1
:1024C000FFF78DFF01A92046FFF789FF0549204648
:1024D000FFF785FFD8E700BF10552200AC9A00082F
:1024E000B49A00082CA1000810B50446084600F074
:1024F00081F9037823B1303B18BF012384F82930D8
:1025000094F8293023B105492046FFF768FF10BD34
:1025100003492046FFF763FFF9E700BFC49A0008AC
:10252000D09A0008F8B504464368597A586805F00F
:1025300048F80646C0F1800558B92046FFF7EDFD82
:1025400007E05A1CE261234493F82A10A06805F0C2
:102550006BFE94F8293013B1E369AB42F1DB08213B
:10256000A06805F082FEE0B97F2E28DCC6F17F036B
:10257000234493F82A300A2B17D00D2B15D094F84A
:102580002A30212B1BD1A369CBB12046FFF7C5FD13
:102590000023E361A3695B6804F5D5712046984781
:1025A0000DE0A06805F059FEDEE76368597A5868C7
:1025B00004F0ECFF7E2E03DD2046FFF7AEFDF8BDF4
:1025C0006319002283F82A20E26104F12A072021FE
:1025D000384600F0C3F80646037823BB0A21384684
:1025E00000F0BCF80646002384F8AA31337803B320
:1025F00000233370A3612A49384600F091F806465B
:10260000E8B904F5D5712046FFF7F6FEA369002B63
:102610003CD0A06805F025FEA3695B6804F5D57180
:1026200020469847C8E7411C04F5D57000F086F8AD
:10263000DCE70D21384600F091F80646D8E7194945
:10264000384600F06DF8064668B994F82A322BB186
:1026500004F5D5712046FFF707FFD7E7124920465A
:10266000FFF7BDFED2E71149384600F059F806469B
:1026700028B904F5D5712046FFF736FFC6E739467D
:102680002046FFF717FEA0612E46BFE7012E93DD1F
:10269000637D002B90D006492046FFF7A0FE8BE714
:1026A000DC9A0008E89A0008F49A0008109B0008D9
:1026B000189B000808B5044B1B681A681268C1B261
:1026C0001846904708BD00BF140B0020704708B59E
:1026D00000F020FD08BD000000B583B00649D1F828
:1026E000F027D1F8EC37D1F8E8170091034900F052
:1026F000EBFA03B000BD00BF00F0FF1F349B0008E1
:1027000010B50446FFF7BCFC0249204600F0DCFA95
:1027100010BD00BF489B000808B502F00FFA08BDC5
:10272000431E013913F8010F11F8012F10B10AB13E
:102730009042F7D0801A18BF01207047013911F874
:10274000013F0BB90370704700F8013BF7E7002326
:10275000C25C0AB9184670470133F9E703461A7894
:1027600018461AB18A4203F10103F8D170470029D3
:1027700070B51EDA2D23012400F8013B49420646BC
:1027800091FBF2F302FB131130313170191E354603
:1027900006F10106F4DC00220346201A30443270B0
:1027A000AB420BD21A78297803F8011B05F80129EE
:1027B000F6E704D1302341700370012070BD00247E
:1027C000DDE730B503782D2B11D14FF0FF34013008
:1027D00000210A25431E01E005FB012113F8012F0A
:1027E000303AD0B20928F7D904FB01F030BD0124FA
:1027F000EEE7000010B5144C02780146A2F10A037E
:10280000DBB2162B1BD824FA03F3DA0700F1010020
:10281000F2D40846FFF79BFF013808448142044682
:102820000AD203780A3BDBB2162B05D8064A0138D8
:1028300022FA03F3DB07F1D40023637001E0002ADE
:10284000E7D1084610BD00BF09004000002310B5C5
:10285000934200D110BD51F8234040F8234001338A
:10286000F6E702B97047013A40F8041BF9E7F8B5FA
:102870000D4616461C460160828000238371052C9C
:1028800030D00AD9082C32D01AD8062C41D0072CC7
:1028900042D1002403231F4630E0032C1CD009D86A
:1028A000012C13D0022C02D100231F4622E0022467
:1028B0001F4623E0042C28D1012400231F461DE0DD
:1028C000092C2DD1022403231F4617E00123837115
:1028D000022400231F4611E00123837102240023F8
:1028E0001F4607E00124847100231F4606E00124EF
:1028F00003231F463146284604F0E1FF33462246B3
:102900003946284604F0A6FFF8BD022400231F46DE
:10291000F4E700242746F1E7022400231F46EDE7F1
:10292000022400231F46E9E7024B4FF400421A80BD
:10293000704700BF180C002008B5FFF7F5FF08BD71
:1029400070B50C1EACBF01234FF0FF335C43013365
:10295000064608BF2D234FF0640208BF06F8013B6E
:10296000611104F01F040546544330460A22FFF764
:10297000FEFE2E226411092C3254D8BF302206EB01
:102980000003D8BF5A7021464FF00A02CCBF581C32
:10299000981CFFF7ECFE284670BDF0B502780346A0
:1029A0002D2A13D14FF0FF30013300250A2702E012
:1029B00007FB052501331C78A4F13002D6B2092E9D
:1029C000F6D9A4B98D4025446843F0BD0120ECE759
:1029D0008A4002EB660292FBF6F20CFB06F6144408
:1029E00013F8012F303AD7B2092FF1D9EAE70A26B6
:1029F0000024B446F4E72DE9F04105460F46161EC3
:102A000002DD0A46002108E04FF0200813F001041F
:102A10001BD0002422E00131013210780028FAD1C5
:102A2000B14206DA761A13F0020F04D14FF02008F3
:102A3000ECE70026F7E74FF03008E7E72B681B6864
:102A40004146284698470134013E002EF6DC05E059
:102A50002B681B68284698470134013739780029CC
:102A6000F6D106E02B681B6841462846984701349A
:102A7000013E002EF6DC2046BDE8F08170B584B042
:102A80000646DDF828C059B11D460B4615B10A2A85
:102A900011D0002500218DF80D100DF10D0416E068
:102AA00030238DF800308DF80110099B089A694693
:102AB000FFF7A1FF32E0002901DB0025EAE74B42E6
:102AC0000125E7E7303104F8011DB3FBF2F34BB108
:102AD000B3FBF2F102FB11310929F3DDACF13A004D
:102AE0000144EFE79DB1089B63B1099B13F0020F0E
:102AF00008D0304633681B682D219847089B013B5E
:102B0000089304E02D2304F8013C013C0025099BB7
:102B1000089A21463046FFF76EFF284404B070BD86
:102B200008B50846FFF7C6FD08BDF0B585B00746F5
:102B300016461D466846FFF703FF2B463246694698
:102B40003846FFF758FF05B0F0BD000070B588B0FB
:102B500006460C460592002587E0A21C012391E061
:102B600000222178A1F1300C5FFA8CFCBCF1090F36
:102B700006D802EB8202303901EB42020134F0E761
:102B800073291AD0642923D0782930D058293DD010
:102B900075294AD0662957D0632965D10599081D42
:102BA000059009688DF81C1000218DF81D1007A9EB
:102BB0003046FFF720FF054456E00599081D0590B3
:102BC000096801B935493046FFF715FF05444BE068
:102BD0000599081D059009686120029001930092F3
:102BE00001230A223046FFF749FF05443CE00599DE
:102BF000081D05900968612002900193009200234E
:102C000010223046FFF73AFF05442DE00599081DD4
:102C10000590096841200290019300920023102240
:102C20003046FFF72BFF05441EE00599081D05906F
:102C30000968612002900193009200230A22304625
:102C4000FFF71CFF05440FE00599081D0590096872
:102C50003046FFF76AFF054406E0144633681B68F8
:102C60002178304698470135013423789BB1252BD4
:102C7000F4D1621C637873B1252BEED02D2B3FF479
:102C80006CAF002314462278302A7FF469AF0134F8
:102C900043F00203F7E7284608B070BDBC9B00086C
:102CA0000FB400B583B004AA52F8041B054B01937E
:102CB000009201A8FFF74AFF03B05DF804EB04B0EF
:102CC000704700BF84A200080EB400B582B003AA0A
:102CD00052F8041B0192FFF739FF02B05DF804EBD4
:102CE00003B07047114B124A1360991C114A1160CE
:102CF000191D114A1160991D104A116003F1080154
:102D00000F4A116003F10A010E4A116003F10C0130
:102D10000D4A116003F10E010C4A116003F110011C
:102D20000B4A116012330B4A13607047440C0020A9
:102D3000400C00203C0C0020380C0020340C0020FB
:102D4000300C00202C0C0020280C0020240C00202B
:102D5000200C00201C0C002070B582B0334B93E88F
:102D6000030002AB03E903000025002D2CDD304CED
:102D7000304A0121204604F012FC2F4A012120464E
:102D800004F016FC4FF480720121204604F0CAFBC7
:102D90004FF480620121204604F0B8FB7822012123
:102DA000204604F015FC0121204604F0C7FB012158
:102DB000204604F0CCFB0121204604F0DEFB1F4836
:102DC00004F05CF902B070BDAE0002AB03EB85030A
:102DD00053F8084C204604F0FFF8204604F001F9AF
:102DE000204604F013F9204604F005F9012120469D
:102DF00004F0DDF8204604F0A1F8204604F0BAF80B
:102E0000204604F0CAF82E440D4A02EB46020A217D
:102E1000204604F005F9204604F03AF94FF4602109
:102E2000204604F09DF801359FE700BF88A2000806
:102E3000000002404C240140440C002000240140CA
:102E4000340D0020884205DD914209DC90420ADD04
:102E500010467047904206DC914203DD10467047F1
:102E6000084670470846704730B583B004680025AF
:102E70000BE0228DA18A2088FFF7E4FF02AB03EB71
:102E8000450323F8080C01353C34032DF1DDBDF872
:102E90000000BDF802301844BDF804301844BDF8F5
:102EA00006301844C0F38F0003B030BD08B50F4B97
:102EB00098420BD003F58063984211D0A3F50063CC
:102EC000984205D1072903DCC8B204E0012903DDDB
:102ED00004F03CF8102008BDC9B20831C8B2FAE7C6
:102EE0000529F5DCC9B20A31C8B2F4E7000C01408B
:102EF00070B505460E461446012393409BB200224E
:102F00001146304604F0A6FC2B68054A9B1A5D105A
:102F100021463046FFF7CAFFABB2024AD05470BD1B
:102F2000440C0020340D002008B5FFF7DBFE08BD7F
:102F300008B504F0C7FA00F5FF3000F2FF10800278
:102F400008BD2DE9F043ADF2044DFFF7F1FF074650
:102F5000024600234FF0FF3603E052F8041B0E40F8
:102F60000133FF2BF9DD04F091FA4FF480724FF03A
:102F7000FF316846FFF775FC002400E001344E2C59
:102F80001AD8E5B22846FFF7ABF80028F6D1284654
:102F9000FFF76EF880462846FFF79CF80DEBC40952
:102FA00089F80300B8F818202DF834202846FEF7D9
:102FB000F5FFC9F80400E1E7FE21684604F074FA61
:102FC000FE9004F021FCB6F1FF3F01D100240AE09D
:102FD000384604F0D5FBF9E75DF8241007EB8400D0
:102FE00004F02CFC0134FF2CF6D904F019FCFE98F7
:102FF0000DF2044DBDE8F083F8B5FFF799FF0646E2
:1030000004F044FAFE21304604F04EFAD6F8F833C4
:10301000834201D1002503E04FF0FF3019E0013574
:103020007E2D15D836F83500FFF712F804465028E3
:10303000F5D0FFF755F80028F1D106EBC507796800
:103040002046FEF7DBFFF9782046FFF72DF8E6E78C
:103050000020F8BD014B1860704700BF500D0020E4
:103060000D4B1B5CB3B90D4B196899B10C4B187023
:10307000DFF830C0DCF800300B4A02F8330002EB16
:10308000C3025160044A012111540B4403F00F03A1
:10309000CCF80030704700BF400D0020500D0020DC
:1030A0004B0D00204C0D0020E00900200F280AD80D
:1030B000064B03EBC0035B680BB918467047034B24
:1030C00013F8300070470020704700BFE00900206F
:1030D0000F2801D900207047024B03EBC00358684A
:1030E000704700BFE009002008B5074B03EBC102A1
:1030F00092F804C053F83130044A52F82C200146AB
:103100000348FFF7CDFD08BD9CA2000890A200086F
:10311000C49B000810B50C4B5B680BB1002409E0A0
:103120000A48FFF7BDFD0DE0074B13F83410FFF719
:10313000DBFF01340F2C05D8034B03EBC4035868A5
:103140000028F1D110BD00BFE0090020D49B000889
:1031500000B58BB0104B01EB410203EB820C53F82E
:103160002220DCF804C001EB410103EB81039B68E2
:10317000D0F858020021089107910693CDF814C0A9
:10318000049203910291019100910B46012203F0F8
:1031900091FF0BB000BD00BF08A30008F0B583B0DD
:1031A00004460D4616461F4672B60121D0F8580255
:1031B00004F093F8019600970023B5F5006F34BF33
:1031C000002201222946D4F8580204F08BF8002886
:1031D00006DBD4F85432002B18DC62B603B0F0BD25
:1031E000D4F85432132BF4DC03F1110204EB021275
:1031F00055609760316804EB0312C2F81C117168C6
:10320000C2F820110133C4F85432E2E70121D4F8A6
:10321000580204F05EF8E0E7012801DD0020704765
:10322000014B53F820007047540D002030B58BB08F
:1032300004460D460AE09DF8213006AA0999204669
:1032400000F0B2FA04F07AFDC4F8F8000023059308
:1032500006AB04930DF12103039308AB02930DF128
:10326000220301930DF12303009309AB0122E9B27C
:10327000D4F8580204F0ABF80028DCD10BB030BD14
:1032800030B583B0044600F58A7504E0D4F85432B2
:10329000013BC4F85432D4F85432002B17DD03F14B
:1032A0008053013B1A0105EB0313A9585A680833F0
:1032B0000193D2B200920023B1F5006F34BF002217
:1032C0000122D4F8580204F00DF80028DEDAD4F810
:1032D00054320BB103B030BD0121D4F8580203F0D1
:1032E000FCFFF7E770B584B00E4615461C46106823
:1032F000B3F800C05A889B88B4F806E05B019BB223
:10330000520192B24FEA4C1C1FFA8CF14FF0010CA3
:10331000CDF808C000EA0C0CCDF804C04FEA4E1CF2
:103320001FFA8CFCCDF800C003F0B6FF0023336019
:103330002A6801322A60E380A3806380238004B07E
:1033400070BD70B584B00E4615461C461068B3F8C3
:1033500000C05A889B88B4F806E05B019BB252011A
:1033600092B24FEA4C1C1FFA8CF14FF0010CCDF8D1
:1033700008C000EA0C0CCDF804C04FEA4E1C1FFA3E
:103380008CFCCDF800C003F077FF002333602A687F
:1033900001322A60A380238040F2FF73E3806380C0
:1033A00004B070BD70B582B00E4615461C4610685C
:1033B0001968C9005A68D20001230093034042F003
:1033C000040241F0040103F077FF002333602A6810
:1033D00001322A606360236002B070BD30B58BB0EB
:1033E0000546002308930993474906AA03C982E8C2
:1033F000030004930593039302930193D5F8582295
:10340000424B9A420AD0A3F58063D3F8003AC3F343
:10341000052300930024C2F81C4221E00023F8E7B2
:1034200004F11E0205EB8202516871B3029A501C2E
:1034300002900DF1280C0CEB420C2CF8103C0232DF
:1034400002920AAB03EB400020F8101C039B042BF4
:1034500024D0029B022B28D0019B022B2CD00134BC
:10346000D5F8F430A3422EDD05EB84035B68B3F599
:10347000006FD5D3019A23F060430AA901EB8201C2
:1034800041F8183C01320192E0E7039A0AA901EBE6
:10349000420121F8083C01320392D7E708AB6A46A3
:1034A00003A92846FFF71EFFD3E706AB6A4602A929
:1034B0002846FFF746FFCFE704AB6A4601A9284636
:1034C000FFF770FFCBE7039B002B07DC029B002B71
:1034D0000BDC019B002B0FDC0BB030BD08AB6A4648
:1034E00003A92846FFF7FEFEF0E706AB6A4601A9EE
:1034F0002846FFF726FFECE704AB6A4601A92846F9
:10350000FFF750FFE8E700BF44A300080064004055
:10351000F8B504460D4616461F4600F0E3F8544B36
:1035200023600023C4F85432C4F85852514B9D42D2
:103530002FD003F580639D4258D1002F00F0828088
:103540004D4D202302220021284604F083F920213A
:10355000284604F0B4F9402302220321284604F04F
:1035600079F9402004F0F6FEF021402004F0FEFE40
:10357000412004F0EFFEF021412004F0F7FE3F204F
:1035800004F0E8FEF0213F2004F0F0FE3B4B5C60CD
:103590002CE0002F41D0384D4FF4807302220021DF
:1035A000284604F057F94FF48071284604F087F953
:1035B0004FF4007302220321284604F04BF9142033
:1035C00004F0C8FEF021142004F0D0FE152004F011
:1035D000C1FEF021152004F0C9FE132004F0BAFE4C
:1035E000F021132004F0C2FE244B1C60D4F85802D2
:1035F00003F054FD31462046FFF7AAFD2046FFF7B1
:10360000EDFE0221D4F8580203F063FE1021D4F835
:10361000580203F05EFE2046F8BD194D4FF40063DA
:1036200002220021284604F015F94FF400612846D3
:1036300004F045F94FF4805302220321284604F098
:1036400009F9BCE70C4D4FF48053022200212846B3
:1036500004F000F94FF48051284604F030F94FF49B
:10366000005302220321284604F0F4F879E700BF52
:10367000FCA2000800640040000C0140540D002032
:103680000008014008B50020FFF7C6FD0021FFF744
:10369000CDFD08BD08B50020FFF7BEFD0121FFF7F5
:1036A000C5FD08BD08B50020FFF7B6FDFFF7E8FD32
:1036B00008BD08B50120FFF7AFFD0021FFF7B6FDFB
:1036C00008BD08B50120FFF7A7FD0121FFF7AEFDFA
:1036D00008BD08B50120FFF79FFDFFF7D1FD08BD2C
:1036E00070477047084B03600023C0F8F430C0F8FF
:1036F000FC3005E003F14002044940F82210013398
:10370000042BF7DD704700BF54A30008640A0020B3
:10371000D0F8FC30042B01DD0020704703F140029B
:1037200040F822100133C0F8FC300120704710B57A
:103730001446D0F8F4201D2A0CDD002010BD013302
:103740009A420ADD00EB830CDCF804107145F6D1D7
:103750000020F3E78E460023F2E700EB8203C3F874
:1037600004E002F11E0300EB83035C600132C0F849
:10377000F42003689B6898470120DFE738B50546C9
:103780000024C0F8F44003689B68984707E004F100
:10379000400355F8230003685B6898470134D5F867
:1037A000FC30A342F3DC38BD2DE9F84305468946D9
:1037B00090461F4600240AE004F1400355F8230018
:1037C00003681E683B4642464946B0470134D5F877
:1037D000FC00A042F0DCBDE8F88370B5054600F1BE
:1037E000300634460BE034F8043BC3F3C02123F425
:1037F0000063002203EB41716868FFF798FFA31B89
:10380000242B02DCA378322BEDD170BD2DE9F041E1
:1038100082B0054600F108073E46F31B242B00F357
:103820009380B378322B00F08F80002300930193B4
:10383000B37803EB4304A40058342C441AE0C0F3DB
:1038400007231B0443EA0063C0F3074243EA022351
:1038500043EA1063E2791F2A3DD8C2F11F0223FA1E
:1038600002F2009B13430093647A04EB4404A40027
:1038700058342C44637AFF2B5DD0354B1B78002BDA
:1038800062D12079FEF798FB0146206805F0B2FA74
:10389000804694F9060005F059FA414605F0A2F970
:1038A00005F06EFC94F908C08CEAEC71A1EBEC71A8
:1038B000C9B24FF0FF328A4020EA0200BCF1000F8B
:1038C000BDDBE2791F2A20D9203A00FA02F2019BDF
:1038D00013430193C8E79444BCF11E0F07DDC2F106
:1038E0003F0223FA02F2019B13430193BCE7A2F1CA
:1038F0001F0003FA00F0009901430091C2F13F025A
:10390000D340019A1A430192AEE702EB0C03202B3D
:1039100005DC00FA02F2009B13430093A4E700FACF
:1039200002F1009B0B430093C2F12002D040019BA7
:103930000343019398E7686803685C6808236A4654
:1039400036F8041BA04768E702B0BDE8F08100BF6D
:103950005C0D002010B509B302F10C0E00EB8E0EC9
:103960000A2A46D89EF80210322944D001EB410CB5
:103970004FEA8C0C0CF1580C844400210C469CF846
:103980000910FF2933D073B1013BDBB201EB4101D8
:1039900089005831644600EB010CF0E702F1020E99
:1039A00000EB8E0EDCE72CB16172FF238CF809303E
:1039B00001201FE0322904D08EF80210F5E7013310
:1039C000DBB29918092904DC0EEB830189783229CE
:1039D000F5D1013BDBB20EEB830291788EF8021039
:1039E0003EF82330AEF8003032239370DDE700203C
:1039F00000E0002010BD0020FCE7F8B500F108034E
:103A000000263446354637463DBB1A462C46A2EBC7
:103A1000030CBCF1240F27DC92F802C0BCF1320F7A
:103A200022D00CEB4C0E4FEA8E0E0EF1580E86444F
:103A3000002609E00136F6B20CEB4C0C4FEA8C0C78
:103A40000CF1580C00EB0C0E9EF809C0BCF1FF0FF6
:103A500006D0BEF804E08E45ECD15DB10020F8BD83
:103A60000134E4B20432D2E700F130033D460122D2
:103A70001746C9E7334622463946FFF76BFFEEE7A4
:103A800070B514461E460023079A137000F108050E
:103A9000002B46D12A46531B242B3ADC92F802C055
:103AA000BCF1320F35D00CEB4C0E4FEA8E0E0EF1FE
:103AB000580E864407E00CEB4C0C4FEA8C0C0CF1D2
:103AC000580C00EB0C0E9EF809C0BCF1FF0F1ED085
:103AD000BEF804308B42EED11388C3F3C0222360BA
:103AE00023F40063236043EA427323609EF80730A7
:103AF00033709EF90820049B1A70DEF80020059BA5
:103B00001A609EF90620069B1A70012070BD0432CF
:103B1000C1E7079B1B780122079D2A7000F1300541
:103B2000B6E70020F2E78446D9B102F10C0100EBC0
:103B300081010A2A27D88A78322A26D002EB42024B
:103B4000920058320CEB0200427AFF2A19D063B17E
:103B5000013BDBB202EB4202920058320CEB020056
:103B6000F2E7911C00EB8101E3E70B88C3F3C0226D
:103B700000990B6023F400630B6043EA42730B600F
:103B800070470020704700207047002070472DE9E3
:103B9000F04385B00646884600F1080900273B46F9
:103BA0002FE02B88C3F3C02C23F4006194F9083074
:103BB000E2792079029794F906E0CDF804E0D4F890
:103BC00000E0CDF800E041EA4C71C047647A04EBB4
:103BD0004404A40058343444637AFF2BE1D1043503
:103BE000A5EB0903242B08DCAB78322B05D003EBC3
:103BF0004304A40058343444EEE706F130093B4650
:103C000001270BB94D46EBE705B0BDE8F083002373
:103C100006E001EB83024FF0320C82F802C0013360
:103C2000092BF6DD002307E003EB430200EB8202E1
:103C3000FF2182F861100133322BF5DD704710B59A
:103C4000044600F10801FFF7E2FF04F130012046CD
:103C5000FFF7DDFF6068FFF791FD10BD2DE9F04132
:103C60000F4615461E460024A0460AE0286803F0C9
:103C700015FC804655F8041B07EB840003F0DEFDBD
:103C80000134B442F2DB4046BDE8F081084600E072
:103C90000430431A242B0ADC8378322B05D00388A6
:103CA000534033F40063F3D102E00020704700205A
:103CB000704700004B4B1B7803B170472DE9F04172
:103CC000054616460A4600F13001FFF7DFFF0028DF
:103CD00000F08580837803EB4304A40058342C441F
:103CE00042E01F2B53D83068C0F30722120442EA87
:103CF0000062C0F3074742EA072242EA1062C3F1BA
:103D00001F03DBB201208840013822FA03F3184078
:103D100005F018F8074694F9060005F017F839463B
:103D200004F060FF0146206805F064F8074620793A
:103D3000FEF7D6F920B12079FEF7D2F9012849D152
:103D4000B4F804804FF08441384605F053F805F08C
:103D500017FA01465FFA88F0FEF702F9647A04EB7D
:103D60004404A40058342C44637AFF2B37D0E37901
:103D700094F9082082EAE271A1EBE271C9B2002A4B
:103D8000AFDB1F2B18D97268203BDBB2BAE71A44AD
:103D90001F2A03DD7068203BDBB2A5E75B1ADBB2AC
:103DA0000133DBB23068D8407268C3F120039A4017
:103DB00010434B1EDBB297E71A44202A01DC32681D
:103DC000A0E73268DA407068C3F1200398400243EC
:103DD000002397E739462079FEF716F9BEE7BDE8DC
:103DE000F08100BF5C0D00202DE9F8439DF82070A4
:103DF0009DF92460002E76D004460D4691469846E3
:103E000086EAE673A3EBE673DBB2202B6ED8002EB6
:103E10000BDDBB19402B6CDC424629462046FFF7E0
:103E200035FF844658B100221BE03F2F64D87BB297
:103E30003344B3F1FF3FEFDA6FF0010051E00021AE
:103E4000092907DC05EB81039A78322A01D0013178
:103E5000F6E79C46BCF1000F51D0ACF80080E2E7D9
:103E60000132312A07DC02EB420304EB830393F8AF
:103E70006130FF2BF4D1322A44D09CF8023000216B
:103E80000AE003EB430189005831214403EB43036B
:103E900004EB830393F86130322BF2D102EB42033F
:103EA00004EB8304A4F85C900A9BA3659DF92C3075
:103EB00084F85E3084F85F7084F86060322384F8A0
:103EC000613019B14A722B46002004E08CF80220C0
:103ED000F9E7013004335A1B242A02DC9A78322A8B
:103EE000F7D1BDE8F8836FF00200FAE76FF0020047
:103EF000F7E76FF00100F4E76FF00100F1E76FF012
:103F00000300EEE76FF00400EBE7B2F5006F16D2A6
:103F100000B585B09DF920C0CDF80CC0DDF81CC0FF
:103F2000CDF808C09DF918C0CDF804C00093134621
:103F30000A4600F10801FFF757FF05B000BD4FF03A
:103F4000FF30704770B584B005461446C2F3407028
:103F500022F00052B2F5006F1DD29DF928C0CDF8B5
:103F60000CC0DDF824C0CDF808C09DF920C0CDF804
:103F700004C0009342EAC0230A4605F130012846F6
:103F8000FFF732FF0646002221466868FFF7CFFBA5
:103F9000304604B070BD4FF0FF331E46F8E72DE900
:103FA000F04F89B08346059206938A46079131E027
:103FB000B4F9020004F0CAFE002303930290CDF886
:103FC000048000953B46049A05993046FFF70CFFA4
:103FD0000634A4EB09032A2B1ADC94F90530002BD4
:103FE00016DD2088FEF734F80490DBF80060BAF89C
:103FF0000070257994F90580069B002BD8D0B4F980
:10400000020004F0A3FE4FF0745104F0F3FED3E776
:104010000AF1320A079BAAEB0303B3F5E17F0ADC3E
:10402000BAF800104FF6FF73994204D00AF1020566
:104030002C46A946CDE709B0BDE8F08F08B503F0DE
:1040400041FA00F5FF3000F5FF70800208BD70B541
:1040500082B006460190FFF7F1FF0446D0F8E8531E
:1040600003F014FAFA21204603F01EFA854202D02A
:10407000002002B070BD01AD002332460832214657
:104080002846FFF78CFF01233246303204F5FA71DF
:104090002846FFF784FF0120EBE7F8B505460F46F9
:1040A0000E460EE02079FDF7E3FF038BA380647AD0
:1040B00004EB4404A40058342C44637AFF2BF1D160
:1040C0000436F31B242B08DCB378322B05D003EB2A
:1040D0004304A40058342C44EFE7F8BDF8B5054676
:1040E0000F460E460DE0A088FDF7B2FFA080647A6F
:1040F00004EB4404A40058342C44637AFF2BF2D11F
:104100000436F31B242B08DCB378322B05D003EBE9
:104110004304A40058342C44EFE7F8BDF0B583B055
:104120000546FFF78BFF064602462A4B0121197010
:1041300000234FF0FF3403E052F8041B0C4001331E
:10414000FF2BF9DD03F0A2F903F05EFB022003F080
:1041500051FBB4F1FF3F38D105F108073946284635
:10416000FFF79BFF05F1300421462846FFF795FF36
:104170000A233A4631462846FFF770FD0A232246B5
:1041800006F128012846FFF769FD0190962305F105
:10419000580206F150012846FFF760FD0190012307
:1041A00001AA06F52D712846FFF758FD03F038FBEC
:1041B00039462846FFF792FF21462846FFF78EFF33
:1041C000044B00221A7003B0F0BD304603F0D8FA59
:1041D000C2E700BF5C0D0020F8B50646FFF72EFFD2
:1041E0000446D0F8B45203F051F9AA21204603F056
:1041F0005BF9854203D03046FFF729FFF8BD06F191
:1042000008070A2221463846FEF720FB06F1300552
:104210000A2204F128012846FEF718FB962204F131
:10422000500106F15800FEF711FB39463046FFF702
:1042300055FF29463046FFF751FF0120DEE7000019
:1042400038B50446084615460D4B23600D4B2360D8
:1042500061602146FFF75CFA04F108012046FFF790
:10426000D6FC04F130012046FFF7D1FC25B92046E9
:10427000FFF7B3FA204638BD2046FFF7ADFFF6E75B
:104280001C92000878A30008036ED3B14FF47A7330
:10429000036604E0036E002B07DD01233BB1826D52
:1042A000C36D9A42F6D00023F8E70023F6E7836D4A
:1042B0005A1C826503F03F03034419764FF0FF3325
:1042C00043617047A0F10400FFF7DEBF10B504465C
:1042D000017C002201F5C0618068FFF728FA617C4B
:1042E0003F2900D910BD002201F5B061A068FFF799
:1042F0001EFAF7E710B504460846144B2360144B2A
:104300006360144B236014336360A160E260012397
:104310002374FF2363744FF0FF3363610023A365AD
:104320004022E2654FF47A722266502284F86420BB
:10433000A36684F87830E36784F888302146FFF775
:10434000E7F92046FFF7C2FF204610BD1C92000887
:104350008CA1000888A3000808B501748068FFF7E5
:104360000DFA08BD10B582B004468DF80010ADF806
:1043700001309DF810308DF80330059B0193437C8C
:1043800093420DD1002384F87830A068617C0368E3
:104390005C6808236A4601F5C061A04702B010BD01
:1043A00042748068FFF7EAF9ECE738B504460A463C
:1043B0008068217C03685D68082301F5B061A84727
:1043C000002384F8883038BDB1F8012045F201039C
:1043D0009A4211D0012380F888300B7880F8803021
:1043E000B1F80130A0F88130CB7880F883304B6889
:1043F000C0F88430002070470B78402B01D000209B
:1044000070474FF0FF330B714B7100238B71CB71F1
:1044100041220A704FF47A72026683654023C365B5
:10442000CB784361012070472DE9F04184B0074605
:104430000C46B1F80120C2F3C0131E46CD7825B159
:10444000013D05EBD575C5F3470503AB00932B463E
:1044500002F03F023146F868FFF765FB804623789B
:10446000402B0DD0232B3DD08023237000232371BC
:1044700063710223A3710623E37104B0BDE8F081E8
:1044800030B30079FDF7F4FD028BE37823B9039B89
:10449000636043232370F0E713F0010F09D098F80D
:1044A000073042EA034298F9083042EA0362626048
:1044B000EFE71549D8F8000004F09CFC04F060FE1A
:1044C00020F07F4398F9062043EA02636360E0E747
:1044D000802323700023237163710223A3710623B9
:1044E000E371CAE70028BFD06368002BBCD1B4F8E1
:1044F00001202B4602F03F023146F868FFF72AFA06
:1045000060232370B9E700BF00007A440B78232BA7
:1045100000D070472DE9F04184B005460C461646A0
:10452000CB7883B94B68B3F1005F04D323F000521A
:10453000B2F5006F03D2AB666023237019E04FF031
:10454000FF3383660CE0826E1746B2F1FF3F01D065
:10455000012B11D095F9742090460AB1022B1DD081
:10456000802323700023237163710223A371062328
:10457000E37104B0BDE8F081486880B2FDF768FDE2
:10458000A5F870006368C3F3054385F8733063686A
:104590001B1685F874304E28CED9E1E7606840F3E9
:1045A000170004F0D3FB154904F0D8FCE8666368F3
:1045B0001B1685F87230A6B102930190CDF80080E9
:1045C00095F873303A4695F87010E868FFF7BAFC32
:1045D000002385F874304FF0FF33AB660028ABDA68
:1045E000BEE702930190CDF8008095F873303A460B
:1045F00095F87010E868FFF788FCE9E700007A4456
:1046000038B504460D460A7802F06003602B31D0BD
:10461000B1F80130B3F5005F5AD003F47F40B0F534
:10462000045F55D0E16819B1B3F5405F00F08580B3
:1046300021B143F2010C634500F0858019B1B0F55A
:10464000445F00F0868045F203018B4200F08680D3
:1046500045F204018B4240F09B80402A00F091809B
:1046600080232B7000232B716B710223AB71062307
:10467000EB7119E002F010020A700122072A0EDC29
:10468000E36DA16D5B1A402B09D0E36D591CE16508
:1046900003F03F0323441B7EAB540132EEE7E36D8E
:1046A000A16D5B1A402B09D0A068217C03685C686F
:1046B00008232A4601F5B061A04738BD2B7843F0A6
:1046C00001032B70C2F1080243EA42032B70EBE7AF
:1046D000E87803F47F42B2F5045F0CD04E2822D86C
:1046E0002B78232B0DD0402BDED1FDF757FC6860D3
:1046F00043232B70D8E71B029BB21844FDF7A8FC9C
:10470000ECE76968FDF72CFC10B960232B70CBE750
:1047100080232B7030232B7100236B710923AB7125
:104720000623EB71C0E780232B7000232B716B7184
:104730000223AB710623EB71B6E70022294620461F
:10474000FFF7E4FEB0E7012229462046FFF7DEFE30
:10475000AAE729462046FFF767FEA5E7402A09D0C9
:1047600080232B7000232B716B710223AB71062306
:10477000EB7199E7E878FEF799FC686043232B70AA
:1047800092E7E878FEF7A4FC686043232B708BE780
:1047900029462046FFF718FE002885D18DE7000046
:1047A000F0B583B004461546037C03F5C0638B4225
:1047B00007D0437C1E4603F5B0638B4205D003B09F
:1047C000F0BD1146FFF71CFFF9E7B2F801301F46B4
:1047D000A3F540539BB2012B08D92B78803B18BF1F
:1047E000012384F878306B68E367E8E7D378ABB1EE
:1047F000012BF2D11349C06E04F0FCFA04F0C0FCA6
:1048000094F9723040EA03630193022300933B461C
:10481000324623212046FFF7A5FDDEE7B0F87030D1
:1048200090F8732043EA024390F9742043EA02634C
:104830000193012300933B4632462321FFF792FD6B
:10484000CBE700BF00007A4410B50446B0F8013051
:10485000B3F5A04F0DD045F20202934234D080232D
:1048600023700023237163710223A3710623E37174
:1048700010BD0278402AEED143230370C378022B87
:1048800013D007D863B1012B14D12E4BD3F8EC37DA
:104890004360EDE7032B0DD1FDF72CFC6060E7E7EB
:1048A000284BD3F8E8374360E2E7264BD3F8F037DC
:1048B0004360DDE7802323700023237163710223AB
:1048C000A3710623E371D3E72378232BC7D1602399
:1048D0002370E378012B21D009D9022B26D0032B9A
:1048E00026D1FDF7CDFB4F20FCF7A4FDC0E7FBB9B7
:1048F000154B1B784BB172B6144B186808B1FFF713
:104900000DFCFEF71EFB62B6B2E780232370002386
:1049100023716371A3710823E371A9E772B6FEF7EF
:104920006BFB62B64F20FCF785FDA1E703F00AFDA3
:10493000802323700023237163710223A371062354
:10494000E37195E700F0FF1F680A0020600D00206A
:104950002DE9F04184B00E46174698469DF8304048
:10496000FDF786FB43681D461449154B1868FEF792
:10497000ABF9ECB11349124B1868FEF7A5F94FF0EB
:1049800084410A9804F036FA0D4B1C689DF92C30CE
:10499000039304F0F5FB0290CDF8048000973346B2
:1049A0002A4609492046FEF78FF904B0BDE8F08198
:1049B0000649034B1868FEF787F9E0E7989D000861
:1049C000680D0020A09D0008A89D0008A49D000877
:1049D00070B505460846FDF70DFF06462021FDF798
:1049E000BDFE0378A3B1002300F8013B0521FDF7CC
:1049F000D4FF04463046FDF717FB502812D021465D
:104A0000FDF7AEFA48B90A492846FEF75DF903E01A
:104A100008492846FEF758F970BD07492846FEF7B1
:104A200053F9F9E7324605492846FEF74DF9F3E711
:104A3000D89D0008BC9D0008E49D0008FC9D00086E
:104A4000F8B507460846FDF7D5FE054609E02A46B3
:104A50000F493846FEF738F9254605F8016B2C2E2C
:104A600014D12C212846FDF779FE04460678002350
:104A700003702846FDF7D8FA5028E8D0FDF78EFAE3
:104A8000024604493846FEF71FF9E5E7F8BD00BFC6
:104A90001C9E0008149E00082DE9F04106460846B9
:104AA000FDF7A8FE07462021FDF758FE03789BB1CD
:104AB00004460546002305F8013B3846FDF7B4FAE5
:104AC0008046502829D06378212B0AD07E2B08D02D
:104AD0002F2B06D0002406E013493046FEF7F4F8E9
:104AE0000FE0A51C012429461048FDF719FE50B916
:104AF00074B101214046FDF7E5FA0D493046FEF755
:104B0000E3F8BDE8F0810B493046FEF7DDF8F8E741
:104B100001214046FDF7CEFAEFE73A460649304616
:104B2000FEF7D2F8EDE700BF389E0008489E000867
:104B3000609E0008509E0008FC9D00082DE9F04F83
:104B40008BB007460846FDF755FE037805934649A6
:104B50003846FEF7B9F800264FF0200822E0434A15
:104B6000039202930190CDF800A04B464246404983
:104B70003846FEF7A9F82846FDF7B2FA20B12846D4
:104B8000FDF7AEFA01285AD1E2682369616920680D
:104B900002960190009137493846FEF795F84FF09C
:104BA0002C0801364E2E51D8F5B22846FDF760FA92
:104BB00004462846FDF78EFA10F0010F02D0059B3F
:104BC000682BEED1D4F80490D4F808A0B4F818B04B
:104BD0002846FDF7E3F90290CDF804B0CDF800A027
:104BE0004B46424624493846FEF76EF80DF11F0346
:104BF00003930DF11E03029309AB01930DF11D0305
:104C0000009307AB08AA29461C480068FEF738FF46
:104C10000028B0D0DDF820809DF81C909DF91DA0E3
:104C20004FF08441099804F0E5F804F0A9FA9DF9E1
:104C30001E309DF81F20002A91D0114A90E711499B
:104C40003846FEF741F84FF02C08AAE70E4BD3F890
:104C5000F0270E493846FEF737F80D493846FEF77B
:104C600033F80BB0BDE8F08F849E00087C9E0008EE
:104C7000B89E00081C9F0008889E0008640D002054
:104C8000749E0008089F000800F0FF1F6C9F00083A
:104C9000A89F00082DE9F0478AB007460023059336
:104CA00006930793089309930846FDF7A3FD04783C
:104CB000702C38D0632C44D02021FDF74FFD0378B1
:104CC000002B47D0FDF796FD06462021FDF746FD57
:104CD00003780BB9642C44D10546002305F8013B49
:104CE0003046FDF7A1F9064681462846FDF782FDCC
:104CF0008046502E3AD0642C3DD000231D464FF004
:104D00007E539A46042D62DC20214046FDF726FDA5
:104D100006460378002B39D1022D37DC5949384635
:104D2000FDF7D2FF1AE0584B1B68002BFBD1564C05
:104D300027605649564B1868FEF729FF0023236069
:104D40000CE0534B1868FEF77AFF52493846FDF7DE
:104D5000BBFF03E04B493846FDF7B6FF0AB0BDE89C
:104D6000F08748493846FDF7AFFFF7E74A4938462C
:104D7000FDF7AAFFF2E73146454B1868FEF73DFE06
:104D8000024646493846FDF79FFFE7E700233370A8
:104D90004046FDF716FD032D0DD00AAB03EB85034E
:104DA00043F8140C30460130FDF724FD80462B46B5
:104DB00001331D46A6E710214046FDF7EEFD03F046
:104DC000C5FF4FF05E5104F015F88246EAE7742CF7
:104DD0001FD09DF924300293CDF804A09DF91C301A
:104DE00000939DF81830059A494629480068FFF756
:104DF000A9F810F1030F2ED01CDD10F1020F24D002
:104E0000B0F1FF3F33D1059A25493846FDF75CFFE5
:104E1000A4E79DF924300293CDF804A09DF91C303D
:104E200000939DF81830059A494619480068FFF725
:104E30006CF8DEE710F1050F13D010F1040F16D156
:104E400018493846FDF740FF88E7069A1649384664
:104E5000FDF73AFF82E7079A14493846FDF734FF19
:104E60007CE7059A12493846FDF72EFF76E70128C0
:104E700006DD104B024610493846FDF725FF6DE769
:104E80000E4BF7E7D49F0008680D00205149000839
:104E9000640D0020B09F0008E89F0008FC9F0008F8
:104EA00014A0000878A0000828A000083CA0000872
:104EB00050A000084C94000894A00008709E0008C0
:104EC00010B50D4B1B7893B1044672B60B4B1868A6
:104ED000FFF724F90A492046FDF7F6FEFEF731F800
:104EE000024662B607492046FDF7EEFE10BD0649B0
:104EF000FDF7EAFEFAE700BF690A0020640D002012
:104F0000C0A00008D0A00008ECA0000810B504461E
:104F100072B6FEF771F862B638B94F20FCF78AFA1C
:104F200004492046FDF7D0FE10BD03492046FDF799
:104F3000CBFEF9E730A1000844A1000808B503F052
:104F400001FA2DE9F843054688461746002604E095
:104F500023782C2B16D1BE4214D22C212846FDF7E3
:104F6000FDFB044690F80090002303702846FDF7EF
:104F70005BF8254605F8019B5028E9D008F80600A3
:104F80000136E5E73046BDE8F88300002DE9F04141
:104F900084B006460846FDF72DFC0446FDF711FCDB
:104FA000804620212046FDF7D9FB03784BB10A2229
:104FB00001A90130FFF7C5FF07463046FDF7A8F805
:104FC00020E018493046FDF77FFE04B0BDE8F081CF
:104FD00004F110036B4413F80C0CFCF7DFFF0346DD
:104FE0002A4611493046FDF76FFE01340F4DBC4291
:104FF000EEDB0F493046FDF767FEB8F1FF3F01D009
:1050000008F1FF383046FDF77DF80028DDD18045F6
:1050100002DD084D0024EAE7B8F1FF3FD5D1054D88
:105020000024E4E75CA100087CA10008B49E00080D
:105030002CA10008709E000808B5042856D019DC81
:1050400002282FD003283FD0012811D1394B3A4AEA
:105050001A603A4B3A4A1A603A4B3B4A1A6024208B
:105060003A4B1860FCF7A0FF394B1860012008BDCF
:105070000020FCE705284BD0062811D12D4B354ADE
:105080001A602E4B344A1A602E4B344A1A60222082
:105090002E4B1860FCF788FF2D4B18600120E6E7C7
:1050A0000020E4E7234B2E4A1A60244B2D4A1A6055
:1050B000244B2D4A1A602520244B1860FCF774FFFE
:1050C000234B18600120D2E71A4B284A1A601B4B69
:1050D000274A1A601B4B274A1A6020201B4B186076
:1050E000FCF762FF1A4B18600120C0E7114B224AFF
:1050F0001A60124B214A1A60124B214A1A60212071
:10510000124B1860FCF750FF114B18600120AEE7FE
:10511000084B1C4A1A60094B1B4A1A60094B1B4A70
:105120001A602320094B1860FCF73EFF084B1860FB
:1051300001209CE7740D0020480B0020700D00201A
:10514000380B00206C0D0020400B0020A80D002023
:10515000AC0D0020600B0020500B0020580B0020ED
:10516000F80B0020E80B0020F00B0020080C0020BA
:10517000A80B0020B00B0020A00B0020800B00200B
:10518000880B0020780B0020680B0020700B00209B
:1051900070B500240FE0174B1B689988186802F05F
:1051A00090FB154B1B689988186802F088FB134B1D
:1051B00000221A702C46052C1BDC651C2846FFF7C4
:1051C0003BFFB0B10E4B53F82430002BE3DD094E0A
:1051D00033689988186802F07AFB3068FCF7C2F8E7
:1051E0000028E7D0064A52F82430013B42F8243028
:1051F000E0E770BD6C0D0020700D00208C0D0020CC
:10520000900D00202DE9F04104460D46FFF714FFF4
:1052100048B1274B1B7833B9631E1A461E46254BEF
:1052200053F822300BB1BDE8F081234B1878FCF71E
:10523000BBFE0746C4B2FF220021284601F094F8C5
:105240008046C3B21D469C4219D3AC42EBD91B4BDE
:105250001B689988186802F034FB194B1B68998801
:10526000186802F02EFB5FFA88F1FBB25B1A114A54
:1052700042F82630104B1878FCF7B8FED3E70F4BF6
:105280001B689988186802F01CFB0D4B1B689988F5
:10529000186802F014FB5FFA88F1FBB2CB1A054ADA
:1052A00042F82630044B1878FCF7A0FECDE700BF8B
:1052B0008C0D0020900D0020A80D0020700D002006
:1052C000740D0020F8B5134B01221A700024052C30
:1052D0001EDC651C2846FFF7AFFEC8B10E4F002646
:1052E00047F824600D4B1B689988186802F0E9FAAA
:1052F0000B4B1B689988186802F0E3FAFF2347F804
:1053000024303146074B1878FCF770FE2C46DEE758
:10531000F8BD00BF8C0D0020900D0020700D002006
:10532000740D0020A80D002008B5054B9988186859
:1053300002F0C5FA00212620FCF758FE08BD00BF88
:10534000180B002008B5054B9988186802F0B9FAC7
:1053500001212620FCF74AFE08BD00BF180B0020E3
:1053600008B5094B1B784BB90146052809D8074BEE
:1053700018601B20FCF73AFE002008BD4FF0FF30FC
:10538000FBE74FF0FF30F8E7800D0020880D00208C
:10539000F8B55C4B1E68304603F038FF0546022422
:1053A00001231F4600E00134052C0ADC564B53F85C
:1053B0002400301A03F02AFF8542F4DD0546274613
:1053C000F1E7524B1F60524B1B7833BB514B1B68AC
:1053D000002B42D04C4A52F82340A41B204603F035
:1053E00015FF0A287DDD02F0A9FC4B4B1B68B34278
:1053F00044D0494B1E60494B1860002C63DD484B7C
:1054000001221A70474B9988186802F058FA464BE7
:105410009988186802F055FA2FE002F08FFC3E4B95
:105420001B68B34204D03C4B1E603C4B186024E028
:105430003A4B1B68C01A63281FD93A4B99881868E1
:1054400002F03FFA384B9988186802F03AFA0023C4
:105450002C4A13602E4A13700FE0324B998818685B
:1054600002F02FFA304B9988186802F02AFA2A4B7A
:105470001E6002F063FC294B1860F8BD274B1B68C7
:10548000C01A6328B9D9274B9988186802F019FA0D
:10549000254B9988186802F014FA1E4B1B68012BE3
:1054A00006D0052B0BD1174B40F2B6321A6002E042
:1054B000144B00221A60174B00221A60DDE70A2005
:1054C000FDF7CEFDF7E7164B00221A70154B9988B1
:1054D000186802F0F6F9144B9988186802F0EFF991
:1054E000CBE7104B9988186802F0EBF90E4B9988BE
:1054F000186802F0E6F9084B1E6002F01FFC074B2B
:105500001860BAE7AC0A0020A0A30008840D0020B0
:10551000800D0020880D0020780D00207C0D0020DB
:105520006A0A0020980B0020900B0020014B18689D
:10553000704700BF840D002008B50D4B01221A7082
:1055400000230C4A13600C4A13700C4B998818689E
:1055500002F0B7F90A4B9988186802F0B0F902F026
:10556000EDFB084B1860084B1A68084B1A6008BD21
:10557000800D0020880D00206A0A0020980B002072
:10558000900B00207C0D0020AC0A0020780D00203C
:10559000CBB203EB1123002203E0815C0B449BB2EE
:1055A0000132062AF9DDD8B27047000008B559B1BA
:1055B0000122824009490B7813430B70074B19787D
:1055C0004020FCF713FD08BD01238340DB435BB2A1
:1055D00002490A7813400B70F0E700BFBE0D0020AF
:1055E00030B583B005460820FCF7DEFC04463D20BC
:1055F000FCF7DAFC8DF8000003128DF801308DF80D
:10560000024024128DF8034000238DF804309842A4
:1056100011DD01238DF8053000238DF806308DF85B
:1056200007302B685C6808236A4640F2A1212846AF
:10563000A04703B030BD0023ECE7000010B50446DE
:105640000920FCF7B1FC01280ED002280ED002F090
:1056500075FB95280CD9094B53F8243053B1C01A67
:10566000322809D9012002E0012000E0002010BD0D
:105670000020FCE70120FAE70020F8E7C00D002039
:1056800030B583B004460120FFF7D8FF054668B166
:1056900040F2FF13009300230193204623685B68C8
:1056A0001C4602236A4640F2D121A0472946012028
:1056B000FFF77CFF03B030BD30B583B004468923CB
:1056C0008DF8003042238DF8013072238DF80230BE
:1056D00085238DF8033001238DF804302C238DF8B9
:1056E0000530144B1B781B0143F002038DF8063084
:1056F00040F2A1316846FFF74BFF8DF80700032009
:10570000FFF79CFF054640B1204623685B681C46B6
:1057100008236A4640F2A131A04729460320FFF73B
:1057200045FF044A1378013303F00F03137003B0ED
:1057300030BD00BFBB0D002030B583B00446022051
:10574000FFF77CFF054668B1094B6A4693E8030002
:10575000CDE90001204623685B681C46082340F21F
:105760002131A04729460220FFF720FF03B030BDBA
:10577000C4A3000830B583B005460023009301930D
:10578000274B1B78A3BB41238DF8003001238DF8F4
:10579000013005238DF80230224B1B781B018DF858
:1057A000063040F221216846FFF7F2FE8DF807002F
:1057B0000020FFF743FF044640B128462B685B6892
:1057C0009C4608236A4640F22121E04721460020FA
:1057D000FFF7ECFE124A1378B3FA83F35B091370F8
:1057E000104A1378013303F00F03137003B030BD78
:1057F00040238DF8003041238DF8013005238DF8CA
:10580000023015238DF8033050238DF80530054BF9
:105810001B781B0143F001038DF80630C1E700BF80
:10582000BD0D0020BC0D002030B583B005462D4BCA
:105830001B78002B3CD103238DF8003019238DF801
:10584000013064228DF8022032228DF803208DF879
:10585000043000238DF80530234B1B781B018DF895
:10586000063040F245516846FFF792FE8DF807007A
:105870000420FFF7E3FE044640B128462B685B682E
:105880009C4608236A4640F24551E04721460420E1
:10589000FFF78CFE134A1378B3FA83F35B09137096
:1058A000114A1378013303F00F03137003B030BDB6
:1058B00014238DF8003000238DF801303F238DF83C
:1058C000023070238DF803309F238DF804300123BC
:1058D0008DF80530044B1B781B0143F00A038DF84B
:1058E0000630BEE7BA0D0020B90D00202DE9F843BF
:1058F000044602F023FA304B1860217860780302E6
:1059000003F4E0631943A278530103F4787343EA84
:10591000D007E578ED0045EA521520796279130247
:1059200003F4807340EA0308A379DB0103F4F06316
:1059300043EA5209E67906F00F0601EB81014900BE
:105940003C20FCF753FB384603F000FA1B4903F0F8
:1059500051FA01463E20FCF757FB404603F0F6F9AA
:10596000164903F047FA01464420FCF74DFB484630
:1059700003F0ECF94FF07C5103F03CFA0146432070
:10598000FCF742FB31464120FCF730FBE179C909C5
:105990004220FCF72BFB05EB850569003F20FCF757
:1059A00025FB032E03D00F2E01D0BDE8F883022083
:1059B000FDF756FBF9E700BFD80D0020CDCCCC3D5C
:1059C00003780A2B00D0704710B50446037941795B
:1059D00043EA01214520FCF709FBA379E17943EA79
:1059E00001214620FCF702FB10BD000010B5044663
:1059F00041784720FCF7FAFA617928394820FCF70A
:105A0000F5FAA17928394920FCF7F0FA637813F008
:105A1000010F03D1094B00221A6010BD02F08EF96C
:105A2000064B1B6813B9054B1860F6E7C01A6428CB
:105A3000F3D90120FDF714FBEFE700BFD40D0020E0
:105A400010B50024042C0BDC064B33F814308342D1
:105A500001D00134F6E702F071F9034B43F824005A
:105A600010BD00BFB8A30008C00D002010B504464B
:105A7000124B1B6883B92046FFF7B2FD2046FFF7A3
:105A8000FFFD2046FFF718FE0D4A13780133DBB205
:105A90001370092B0BD810BD02F050F9074B1B688F
:105AA000C01A3128E7D90120FDF7DAFAE3E71346F7
:105AB00000221A702046FFF73FFEECE7D80D0020C9
:105AC000B80D002010B50446FFF754FE2046FFF73E
:105AD000ABFE10BD08B56422002100F045FC00EBD0
:105AE000800041003D20FCF781FA08BD08B53E204A
:105AF000FCF75AFA08BD000010B5044601463720ED
:105B0000FCF774FA64220021204600F02DFC4CF2D0
:105B1000503300220249C0B200F030FC10BD00BF7B
:105B20000008004010B5044601463920FCF75EFA33
:105B300064220021204600F017FC4CF25033022270
:105B40000249C0B200F01AFC10BD00BF00080040BE
:105B500008B5074B1B6843B1054B186803F0F2F812
:105B60000146044803F0FAF908BD0020FCE700BF35
:105B7000A80A0020C0E1E44B08B5074B1B6843B1FD
:105B8000054B186803F0DEF80146044803F0E6F917
:105B900008BD0020FCE700BFA40A0020C0E1E44BE0
:105BA00010B502F0CBF80446164B1B7823B1154B09
:105BB00000221A70144B1860144B1B7823B1134B3E
:105BC00000221A70124B1C603720FCF7EDF90528F3
:105BD00004DD0D4B1B68E31AC72B0AD83920FCF7EC
:105BE000E3F9052804DD0A4B1B68E41AC72C04D826
:105BF00010BD0820FDF734FAF0E70920FDF730FA70
:105C0000F6E700BFA20A0020B40D0020A10A002080
:105C1000B00D002010B504460A4903F09DFA50B9B2
:105C20000949204603F098FA38B90849204603F09C
:105C300093FA20B910BD0320FCE70220FAE7012007
:105C4000F8E700BF0000E4410000B0410000384127
:105C500008B5022300221146074801F0FBFD074862
:105C600001F00CFA054801F0CBF90028FAD00348FE
:105C700001F0CAF980B208BD000C014000280140C3
:105C800010B50446022300221946074801F0E2FD40
:105C900024B10221044801F012FE10BD0221024885
:105CA00001F00FFEF9E700BF000C0140000000000A
:105CB00038B500242C4D22462B462C4800F0BEFC63
:105CC00022462B462A4800F0B9FC22462B4629489A
:105CD00000F0B4FC22462B46274800F0AFFC2246D9
:105CE0002B46264800F0AAFC22462B46244800F00A
:105CF000A5FC22462B46234800F0A0FC22462B465A
:105D0000214800F09BFC16A3D3E900231F4800F0B4
:105D100095FC22462B461E4800F090FC22462B465E
:105D20001C4800F08BFC22462B461B4800F086FCEA
:105D300022462B46194800F081FC22462B46184883
:105D400000F07CFC22462B46164800F077FC2246E9
:105D50002B46154800F072FC38BD00BFAFF3008041
:105D6000333333333333D33F0000E03F580F002049
:105D7000400F0020280F0020100F0020F80E0020F8
:105D8000E00E0020C80E0020B00E0020980E00206B
:105D9000800E0020680E0020500E0020380E0020DB
:105DA000200E0020080E0020F00D002038B501F074
:105DB000C5FF0446304B1B78012B0BD0022B17D0AC
:105DC0003BB91846FFF75CFF2C4B1C602A4B0122A5
:105DD0001A7038BD294B1B68C31A632BF9D90120EF
:105DE000FFF74EFF254B1C60234B02221A70F0E791
:105DF000FFF72EFF214B1B68E31A1A461D4640F29F
:105E0000DB53984201D8632A31D90020FFF738FFCD
:105E10001A4B1C60184B01221A70284602F092FFA0
:105E2000174902F0E7FF174903F098F8164902F006
:105E3000E1FF164902F0DEFF02F014FC02460B46B9
:105E4000134800F00CFC02F077FE0546FFF7E2FE77
:105E5000044629463120FCF7D7F821463020FCF7CC
:105E6000C5F8012CB5D80720FDF7FAF8B1E70120F5
:105E7000FFF706FFADE700BFE40D0020E00D0020B6
:105E80000AD7233C00401C460024744985EB513F4F
:105E9000980E00202DE9F04F87B0B348FCF7E4FFDF
:105EA000039002F04FFF0746B048FCF7DDFF049077
:105EB00002F048FF8146AE48FCF7D6FF059002F09D
:105EC00041FF834600264FF08B45DFF8A882AA4C9D
:105ED0002368009333462A464146384600F028FAA4
:105EE0008246A64F3B68009333462A46A44948465B
:105EF00000F01EFA81462368009333462A46414645
:105F0000584600F015FA0546206803F039F90646B0
:105F1000504603F035F93246002100F025FA02F030
:105F200015FF0646386803F02BF90746484603F08C
:105F300027F93A46002100F017FA02F007FF07465A
:105F4000206803F01DF90446284603F019F922469B
:105F5000002100F009FA02F0F9FE0446304602F092
:105F600081FB02460B46874800F079FB02F0E4FD16
:105F700001462720FCF748F8384602F073FB02463A
:105F80000B46814800F06BFB02F0D6FD014628204D
:105F9000FCF73AF8204602F065FB02460B467B48C8
:105FA00000F05DFB02F0C8FD01462920FCF72CF84B
:105FB0007748FCF759FF042100F0CEFA04467548F3
:105FC000FCF752FF042100F0C7FA05467248FCF7BF
:105FD0004BFF042100F0C0FA80467048FCF744FFF4
:105FE000062100F0B9FA82466D48FCF73DFF062114
:105FF00000F0B2FA83466B48FCF736FF062100F04A
:10600000ABFA8146204602F02DFB02460B4666485D
:1060100000F025FB06460F46644B186802F022FB91
:1060200002460B463046394602F0BCF902F084FDC8
:1060300001462A20FBF7E8FF284602F013FB024640
:106040000B465B4800F00BFB06460F46594B1868A1
:1060500002F008FB02460B463046394602F0A2F930
:1060600002F06AFD01462B20FBF7CEFF404602F00E
:10607000F9FA02460B46504800F0F1FA06460F4680
:106080004E4B186802F0EEFA02460B46304639468F
:1060900002F088F902F050FD01462C20FBF7B4FF16
:1060A000474B1B7853B3474B1B78002B41D04846D6
:1060B00002F0D8FA02460B46434800F0D0FA02F04C
:1060C0003BFD01462F20FBF79FFF039A052A40F274
:1060D000858040F6F9739A4200F2CB80049A052A33
:1060E00040F2C9809A4200F2C880059A052A40F21F
:1060F000C6809A4200F2C580002670E0504602F049
:10610000B1FA02460B46314800F0A9FA06460F469E
:106110002F4B186802F0A6FA02460B463046394665
:1061200002F040F902F008FD01462D20FBF76CFF5C
:10613000B9E7584602F096FA02460B46254800F0A9
:106140008EFA06460F46244B186802F08BFA024678
:106150000B463046394602F025F902F0EDFC0146C7
:106160002E20FBF751FFA2E7240C0020400C00205A
:106170003C0C002000801344780A00207C0A002098
:106180000000B943580F0020400F0020280F0020C6
:10619000300C00202C0C0020280C0020340C002097
:1061A0001C0C0020380C0020100F0020740A002066
:1061B000F80E0020700A0020E00E00206C0A00207B
:1061C000720F0020710F0020200E0020C80E00204A
:1061D000EC0D0020B00E0020E80D002001264649FD
:1061E000204602F0AFFF00284DD14449204602F07E
:1061F000B3FF00285DD14049284602F0A3FF0028E4
:1062000059D13E49284602F0A7FF002855D13A4906
:10621000404602F097FF002851D13849404602F02D
:106220009BFF00284DD13649504602F08BFF0028D5
:1062300049D13449504602F08FFF002845D13049FA
:10624000584602F07FFF002841D12E49584602F0FF
:1062500083FF00283DD12A49484602F073FF0028F9
:1062600039D12849484602F077FF002835D1044645
:106270000AE00126B3E70126B1E70126AFE70126D0
:10628000ADE70126ABE701244EB31F4B1B8801335A
:106290009BB21D4A1380132B23D834B31B4B1B888E
:1062A00001339BB2194A1380132B20D807B0BDE8E5
:1062B000F08F0124E8E70124E6E70124E4E7012464
:1062C000E2E70124E0E70124DEE70124DCE7012422
:1062D000DAE70124D8E70124D6E70124D4E73346DE
:1062E000D7E70520FCF7BCFED7E72346DAE7062010
:1062F000FCF7B6FEDAE700BF0000F0C10000DC42A8
:10630000000020C20000F042DE0D0020DC0D002065
:1063100008B5FFF7CDFC08BDA0EB010C0098C01A32
:1063200000FB0CFC521A9CFBF2FC0CEB03007047C8
:10633000F8B50F4616461C4602F052FC05462146AB
:10634000069802F04DFC0146284602F053FD054632
:106350003946304602F044FC0146284602F0FEFD74
:10636000214602F03FFCF8BD904202DC884202DB8D
:1063700070471046704708467047000038B584469D
:10638000084611461A46BCF1640F01D94FF0640C5F
:10639000541CACFB04C4CCF3130E4FEA1C5343EA69
:1063A0000433C3F313039E44C4F313239E440EEB40
:1063B000147E114BA3FB0E53DB0803EB830303EBAB
:1063C0008303AEEB030EBCEB0E0C64F10004DFF8AC
:1063D0002CE00B4B03FB0CF30EFB0433ACFB0ECE9B
:1063E00073444FEA9C0C4CEA837C624500D36246BE
:1063F00001F05BFE38BD00BF1F85EB51295C8FC2E9
:10640000F5285C8F10B5044601F098FC1D4B186010
:1064100021783220FBF7EAFD61783320FBF7E6FDB7
:10642000A1783420FBF7E2FDE1783520FBF7DEFDB3
:106430002079431EDBB2FD2B94BF01220022124BB8
:106440001A700AD96079431EDBB2FD2B94BF01227A
:1064500000220E4B1A700AD910BD02F073FC0C49D1
:1064600002F0BEFB01462D20FBF7CEFDEAE702F06D
:1064700069FC074902F0B4FB01462E20FBF7C4FD7E
:10648000EAE700BF740F0020720F0020710F002098
:1064900000002042F0B583B0074600260096019622
:1064A0004A20FBF781FD00F003054120FBF77CFD4E
:1064B00004461C20FBF778FDA30003F03C032B43AC
:1064C00043EA80138DF80030344601E00134E4B231
:1064D0000F2C12D82046FCF7E9FD05462046FCF7B4
:1064E000F7FD0028F2D0002DF0D0102DEED8013DA0
:1064F0000123AB4033439EB2E8E78DF80160360AD2
:106500008DF802601F20FBF74FFD8DF803003F2040
:10651000FBF74AFD00F132030D4880FB0320DB1737
:10652000FF220021C3EB6010FFF71EFF8DF804006F
:10653000084A1378591C11708DF805303B685C6867
:1065400006236A4640F2E1613846A04703B0F0BD39
:106550001F85EB51700F002006296AD82DE9F047FE
:106560000C46002398461D4639E087424ADB4DE041
:10657000012E27D0C01B02F0E9FB8146012E26D058
:106580004346D81B02F0E2FB8246670004EB44035B
:10659000DFF8A48008EB83031E79304602F0D6FBB7
:1065A000494602F027FC514602F0D8FC81462744B8
:1065B00038F9270005FB060002F0C8FB494602F047
:1065C0000FFB34E0381A02F0C1FB8146D6E74346A0
:1065D000F81A02F0BBFB8246D7E70135B84604EB58
:1065E0004402154B03EB82035B79AB4218D904EBF1
:1065F0004402114B03EB82039A6832F815709E79BE
:10660000012EB2D0002EE8D18742E6DC002DAFD1BA
:1066100004EB4404084B33F9240002F097FB06E036
:10662000054B03EB8203B3F9020002F08FFBBDE8D8
:10663000F0870020704700BFCCA300084DF804BDD0
:1066400093469C4600220023C0E90023C0E90223B0
:1066500000230374C0E902BC5DF804BB70472DE958
:10666000F041044610461946237CCBB1D4E90278A8
:10667000D4E900562A46334601F094FE02460B4602
:106680003846414602F046F802460B462846314657
:1066900001F08AFEC4E90001D4E90001BDE8F081FF
:1066A000C4E9000101232374F6E770B516461C46C1
:1066B0005A2B02D84F2C1AD970BD0720FBF774FC57
:1066C00005462B20FBF770FC281A02F03FFB4FF029
:1066D000804102F04BFD0028ECD03378053BDAB264
:1066E00013F0800F01D03270E6E78022FBE7022032
:1066F000FBF75AFC04462D20FBF756FC201A02F04B
:1067000025FB4FF0804102F031FD0028D4D03378D2
:1067100005333370D0E770B50E4614465A2A02D8B6
:106720004F2C14D970BD2A20FBF73EFC05460620ED
:10673000FBF73AFC281A02F009FB4FF0804102F007
:1067400015FD0028ECD03378053B3370EAE72D20A7
:10675000FBF72AFC04460320FBF726FC201A02F074
:10676000F5FA4FF0804102F001FD0028DAD03378CD
:1067700005333370D6E770B5044600260660C0F8CE
:1067800003603320FBF726FC20703420FBF722FC4B
:1067900060703220FBF71EFCA0702D20FBF704FC7C
:1067A00005460220FBF700FCA842D4BF00200120D0
:1067B000E0700320FBF7F8FBA842ACBF00200120EB
:1067C00020712E20FBF7F0FB05460520FBF7ECFBC4
:1067D000A842ACBF002301236371A671A378CBB19B
:1067E0000122237903B102231A43A84214DA0423B5
:1067F0001343227802B108221A43637803B11023AD
:106800001343E27852B1202119431F20FBF7EEFB1E
:10681000204670BD1A46E4E70023E9E71146F3E796
:10682000F8B507460C4615462F20FBF7BDFB02F0D6
:106830008DFA06462D20FBF7B7FB02F087FA844657
:10684000FA7882F00102012323602271A0604FF0E8
:10685000000EC4F80CE023746661084A183407CAB5
:1068600084E807003A795A402B602A71C5F808C0BD
:10687000C5F80CE02B746E61F8BD00BF58A6000887
:106880002DE9F04782460D460024184B99462646CE
:1068900005E0174902F0A4F9024614E00134022C85
:1068A0001BDC04EB44039F0005EB83031A79002AE9
:1068B000F4D09968504602F093F90246EF590D4B17
:1068C0001B689F42E5D090461146484602F04EFCB8
:1068D0000028E3D0C1463E46E0E7064B1E60314645
:1068E0001E20FBF783FB3046BDE8F087FFFF7F7F6C
:1068F0000000A040840A00202DE9F04782460D46A2
:1069000000246FF400039946264605E0164902F07C
:1069100069F9024614E00134012C1BDC04EB44034A
:106920009F0005EB83031A79002AF4D0996850463A
:1069300002F056F90246EF590C4B1B689F42E5D016
:1069400090461146484602F0F3FB0028E3D0C146CA
:106950003E46E0E7054B1E6031461D20FBF746FB37
:106960003046BDE8F08700BF0000A040800A00204C
:106970002DE9F04106460F462820FBF715FB02F0F3
:10698000E5F905462920FBF70FFB02F0DFF9044685
:10699000FFF7ACF880465949284602F0E7FB00288B
:1069A00066D14FF07E51204602F0C2FB002875D11F
:1069B0003946304602F014F90546514B196802F089
:1069C00019FA504C216802F00DF9064620604E4B32
:1069D0001968284602F00EFA002102F0A9FB0028EF
:1069E00072D1494B1D60474B1B681E4647491846EC
:1069F00002F000FA294602F0F5F80446444902F094
:106A000097FB00B9424C0021204602F0AFFB00B9D1
:106A100000243F49204602F09FFB78B129463C48BC
:106A200002F0DEF8394902F099FA0146074630468D
:106A300002F09CFB00284ED1324B1E600021204604
:106A400002F080FB002848D1204602F0BFFBC0B214
:106A5000FFF740F82F49204602F0CCF902F0B6FBD0
:106A6000FF220521C0B2FFF77FFCC0B2BDE8F08174
:106A70000320FCF7F5FA5FFA88F4013C002C00DCF7
:106A80000024E0B2FFF726F8204602F05FF9214922
:106A900002F0B0F902F09AFBC0B2E7E70420FCF77D
:106AA000DFFA5FFA88F4013C002C00DC0024E0B23D
:106AB000FFF710F8204602F049F9164902F09AF95A
:106AC00002F084FBC0B2D1E74FF07C51304602F0B7
:106AD00091F9206085E73E46AEE705F100400B499D
