:020000040800F2
:1010000000500020B1830008AD830008AB830008C6
:10101000AB830008AB830008AB830008000000002E
:10102000000000000000000000000000AD83000888
:10103000AD83000800000000AD830008AD83000808
:10104000AB830008AB830008AB830008AB830008C8
:10105000AB830008AB830008AB830008AB830008B8
:10106000AB830008AB830008AB830008AB830008A8
:10107000AB830008AB830008AB830008AB83000898
:10108000AB830008AB830008AB830008753600080B
:101090005536000865360008AB830008991400082F
:1010A000AB830008AB830008AB830008AB83000868
:1010B000AB83000889140008D1140008AB83000832
:1010C000AB830008AB830008AB830008AB83000848
:1010D000AB830008AB830008AB830008AB83000838
:1010E000AB830008AB830008AB830008AB83000828
:1010F000AB830008AB830008AB830008AB83000818
:10110000AB830008AB830008AB830008AB83000807
:10111000AB830008AB830008AB830008AB830008F7
:10112000AB830008AB830008AB830008AB830008E7
:10113000AB830008AB830008AB830008A33600082C
:101140008336000893360008AB830008AB830008A1
:1011500010B504460846114664681A46A04710BDFB
:1011600008B58368984708BD00B54FF0000CE64607
:1011700004E000BF1CF1010C4EF1000E4B0143EAEC
:10118000D0634201121A63EB01039B0043EA92739E
:101190009200121841EB03031B0143EA1273120180
:1011A00094457EEB0303E4DB5DF804FB10B506F029
:1011B00033FC214B186800F0B0FE07F061FE1F49B8
:1011C00007F066FF01464E2000F01EFF1C4801F0AC
:1011D0003DFE07F051FE1B4907F05AFF01464D2026
:1011E00000F012FF06F046FE01F026FF164C2068C4
:1011F00005F0FCF8206804F0F7FB04F001FE0A207B
:1012000000F0D2FE70B105F0BBFE104B186802F082
:10121000E1FA0F4B1B7843B90D4A137883F00103B1
:10122000137010BD05F00AFDEFE70A4B99881868A6
:1012300006F0E9FBF0E700BFC00A002000002041F3
:10124000200C002000004B43BC0A0020B80A0020FC
:10125000A00A0020B80B002008B5024B186804F063
:10126000EFFB08BDBC0A002008B503F053FF08BD22
:1012700008B5034640F22132904223D008460BD9EC
:1012800040F2455293421DD025D840F26632934237
:101290001CD104F053FB23E040F2C722934221D03B
:1012A000B3F5327F0AD240F2212293420AD040F2B3
:1012B000A722934214D104F0D3FA11E040F2D122D4
:1012C00093420DD1184604F079FB09E040F2A132B7
:1012D000934205D1F6E7B3F5DC6F01D105F03EF896
:1012E000002008BD04F040FBFAE7000010B51C4CDC
:1012F00000224FF4DC61206802F001FA002240F283
:10130000A721206802F0FBF9002240F2C7212068E3
:1013100002F0F5F9002240F26631206802F0EFF9A0
:10132000002240F22121206802F0E9F9002240F277
:10133000D121206802F0E3F9002240F22131206837
:1013400002F0DDF9002240F2A131206802F0D7F965
:10135000002240F24551206802F0D1F910BD00BFD3
:10136000BC0A002010B504468188006806F048FBDE
:10137000003818BF0120A379181A18BF012010BD2A
:1013800008B5244B1B6833B106F074FD214B1B6874
:10139000C01AC72820D92048FFF7E4FF01463320B0
:1013A00000F024FE1D48FFF7DDFF0146342000F069
:1013B0001DFE1B48FFF7D6FF0146322000F016FE47
:1013C0001848FFF7CFFF0146352000F00FFE00233D
:1013D000154A1370154A137004F072FB07F06AFF88
:1013E0000146362000F002FE04F07EFB07F062FFAB
:1013F0000146382000F0FAFD04F08AFB03F086FF76
:1014000004F052F801461A2000F0F0FD04F086FCCA
:1014100008BD00BF740F0020200B0020300B0020FF
:10142000280B0020000C0020720F0020710F0020FC
:10143000FEE7000010B516280BD0172815D038B9D4
:10144000104B1C6800F0B0FDC1B2204602F05AFFFC
:1014500010BD162000F0A8FD0028F9D003F0F0FE22
:101460000021162000F0C2FDF2E7172000F09CFDDD
:101470000028EDD004F01EF80021172000F0B6FD82
:10148000E6E700BFB40A002008B5024B186800F078
:101490000BFD08BDC00A002008B54FF4807006F0AF
:1014A00071F950B1084B1B7843B1084A13680133F6
:1014B00013604FF4807006F05FF908BD034A1368AB
:1014C000013B1360F5E700BF6A0A0020AC0A002068
:1014D00008B50821214806F02FFD28B910211F4822
:1014E00006F02AFDE8B908BD02211C4806F08FFE6F
:1014F0001B4B1B683BB183420CD8C31A194A1360BB
:10150000194B01221A70164B18600821134806F077
:1015100019FDE3E7C31A03F543435033114A13603F
:10152000EEE703210D4806F072FE104B1B683BB13D
:1015300083420CD8C31A0E4A13600E4B01221A7054
:101540000A4B18601021054806F0FCFCCBE7C31AD3
:1015500003F543435033064A1360EEE700080040AA
:101560009C0A0020A80A0020A20A0020980A002055
:10157000A40A0020A10A0020F0B5ADF61C0D00F071
:101580004BFA00F00FFBCC4E00223146CB4801F065
:10159000A1FC01223146CA4801F09CFC03223146DD
:1015A000C84801F097FCC84D00222946C74801F001
:1015B00091FCC74C00222146C64801F08BFC012259
:1015C0002146C54801F086FC02222146C34801F0AD
:1015D00081FC03222146C24801F07CFC0422214602
:1015E000C04801F077FC05222146BF4801F072FC9B
:1015F00004234FF480723146BC4801F034F90723CC
:101600004FF400423146BA4801F02DF9002304227C
:101610002946B84801F027F9072308222946B64889
:1016200001F021F9072310222946B44801F01BF9E3
:10163000072320222946B24801F015F90923402248
:101640002946B04801F00FF9092380222946AE4807
:1016500001F009F904234FF480722946AB4801F0E8
:1016600002F904234FF400722946A94801F0FBF85F
:1016700009234FF400622946A64801F0F4F8072335
:101680004FF480422946A44801F0EDF807234FF4B7
:1016900080622146A14801F0E6F807234FF400627A
:1016A00021469F4801F0DFF807234FF4805221467E
:1016B0009C4801F0D8F807234FF4005221469A487D
:1016C00001F0D1F807234FF480422146974801F0FA
:1016D000CAF804F58064072301222146944801F0EA
:1016E000C2F8072302222146924801F0BCF80723E2
:1016F00004222146904801F0B6F80723082221462B
:101700008E4801F0B0F80723102221468C4801F0E2
:10171000AAF80723202221468A4801F0A4F80723CB
:1017200040222146884801F09EF807238022214666
:10173000864801F098F804F58064072304222146C6
:10174000834801F090F8072308222146814801F0E0
:101750008AF80723102221467F4801F084F80023ED
:101760004FF4807221467D4801F07DF800234FF44C
:10177000007221467A4801F076F800234FF4806227
:101780002146784801F06FF807234FF400622146A4
:10179000754801F068F801F0D1FA00F0F9FA00F0AC
:1017A00091F900F0D7F901F019FC00F005FA0DF2FB
:1017B000EC5401260196009600236C4A6C492046A1
:1017C00000F0C6FC6B4B1C600DF5BC656A4BCDF898
:1017D000E0356A4BCDF8E035694BCDF8E435694B1F
:1017E000CDF8E835E1AC002302226749204601F03C
:1017F00077FE664B1C602946204601F071FFFFF71B
:1018000075FD32AD32462146284602F0EFFC604FAE
:101810003D60604B1D600FAE2A462146304602F007
:101820003FFD5D4B1E60002000F0BEFBC1B23046A4
:1018300002F068FD3A68594B1A60594D05AC2946CB
:10184000204600F0D7FA574B1968C1F35911564B8F
:10185000A3FB013189090139284606F094FB534B5B
:101860001C6003225249204600F0E8FA1422514934
:10187000204600F0E3FA64224F49204600F0DEFAE9
:10188000C8224E49204600F0D9FA00214B2000F032
:10189000ADFB4F20FFF7CEFD0A200021FFF764FCCF
:1018A00003F0CEFC64200021FFF75EFC03F002FE93
:1018B00098E014469FE000BF00080140400C002063
:1018C0003C0C0020380C0020000C0140340C00209F
:1018D00000100140300C00202C0C0020280C0020AF
:1018E000240C0020200C00201C0C0020100C0020D8
:1018F000080C0020000C0020F80B0020F00B00204A
:10190000E80B0020E00B0020D80B0020D00B0020BB
:10191000C80B0020C00B0020B80B0020B00B00202B
:10192000A80B0020A00B0020980B0020900B00209B
:10193000880B0020800B0020780B0020700B00200B
:10194000680B0020600B0020580B0020500B00207B
:10195000480B0020400B0020380B0020300B0020EB
:10196000280B0020200B0020180B002040A30008AB
:1019700000380140B00A002050930008609300082E
:1019800071120008ED12000800640040BC0A00203B
:10199000B80A0020640D0020B40A0020600D002069
:1019A00000040040940A0020632D3E05C00A002078
:1019B000691200088113000859120008AD110008CF
:1019C00004300DF10B0103F087F85CB103AB94E830
:1019D000030083E80300204602F008FF21460FA819
:1019E00002F0B9FC00228DF80B209DF8C430002BCA
:1019F0003FF45FAF2FAC064B186800F091FD054B2C
:101A000018684369002BE0D10028D9D1D9E700BF7D
:101A1000B00A0020B40A002008B5274806F04AF9A9
:101A20004FF0E023254AC3F80C2D40F2023006F0B7
:101A30009FF940F2033006F09BF94FF4417006F035
:101A400097F940F2053006F093F940F2063006F0BF
:101A50008FF940F20E3006F08BF940F20B3006F0B1
:101A600087F94FF4607006F083F940F2813006F098
:101A70007FF940F2823006F07BF94FF4207006F0D7
:101A800077F940F2093006F073F940F20A3006F0B7
:101A90006FF940F2862006F06BF94FF4407006F0C3
:101AA00067F940F2993006F063F9054A536843F448
:101AB0000073536008BD00BF08A800080003FA05C2
:101AC0000000014030B597B005F098FD00F5FF35F6
:101AD00005F2FD15AD0201AC14220021204600F0F4
:101AE000BCFE1A4B01931823ADF8083001238DF882
:101AF0000A3000228DF80B20154903914FF44071F4
:101B0000ADF810108DF812208DF8133005F05AFD45
:101B10001421204605F064FD15902B6D834201D100
:101B200017B030BD05F00CFF284605F0C5FE0024B7
:101B300007E001AB53F8241005EB840005F01AFF11
:101B40000134142CF5D905F007FFE9E70010014036
:101B5000000C014008B51D2006F096FC00211D2058
:101B600006F09EFC1E2006F08FFC01211E2006F0D0
:101B700097FC0B494FF4807005F00CFE02214FF4E6
:101B8000807005F0C7FD4FF4807005F0E7FD172069
:101B900006F07AFC0221172006F082FC08BD00BF87
:101BA0000008014008B54FF41C71032006F09AF9B3
:101BB000002006F069F908BD38B54FF0804006F006
:101BC000DDF90A214FF0804006F0DDF900214FF0E9
:101BD000804006F0BFF94FF6FF714FF0804006F0ED
:101BE000D4F94FF0804006F0B0F9674D4FF4006330
:101BF00002221146284605F0C9FE062211464FF082
:101C0000804006F0C4F906214FF0804006F085FAC6
:101C100006214FF0804006F09AFA06214FF08040EE
:101C200006F0BAFA002206214FF0804006F0D9FAF9
:101C30004FF4806302221146284605F0A7FE0622D3
:101C400004214FF0804006F0A2F904214FF08040BB
:101C500006F063FA04214FF0804006F078FA042180
:101C60004FF0804006F098FA002204214FF08040A7
:101C700006F0B7FA4FF0804006F07BF94FF440735E
:101C800001220021284605F081FE404C204606F046
:101C900075F98F21204606F076F94CF25031204636
:101CA00006F073F9204606F05FF90F220221204664
:101CB00006F0BCFA05220221204606F0DFFA0022D7
:101CC0000221204606F028F90221204606F007FBF3
:101CD0000821204606F02CF900220321204606F0B8
:101CE000A5FA06220321204606F0C8FA00220321A5
:101CF000204606F011F90321204606F0F0FA1021E3
:101D0000204606F015F9402302221146284605F028
:101D10003DFE06220021204606F039F9002120462A
:101D200006F0FBF90021204606F011FA00212046BA
:101D300006F032FA00221146204606F052FA8023BD
:101D400002221146284605F021FE062202212046E5
:101D500006F01DF90221204606F0DFF90221204697
:101D600006F0F5F90221204606F016FA00220221BB
:101D7000204606F036FA0121204606F042FA2046B7
:101D800006F0F7F838BD00BF000C01400008004025
:101D900010B582B009238DF80730154C204605F0A8
:101DA000B7F9204605F0BEF9204605F0D0F9072125
:101DB000204605F098F90DF107020121204605F0B3
:101DC000CBF94FF46021204605F066F9204605F076
:101DD00050F9002301E000BF0133772BFBDD044CF9
:101DE000204605F063F9204605F073F902B010BDF6
:101DF0000028014038B505460C460162084606F049
:101E0000A4F8204606F0B0F80A4B1968C1F31A117D
:101E1000094BA3FB0131C9090139204606F0B3F88B
:101E20004FF6FF71204606F0B0F800236B6228469B
:101E300038BD00BF940A0020C55A7C0AF8B5436A31
:101E4000032B00DDF8BD04460E461546006A06F079
:101E500095F8636A134F0122F95C206A06F097F83F
:101E6000636A0022F95C206A06F0BBF9636A44F8F1
:101E7000236003F1080105EB850202EB8202920068
:101E800024F8112002219940206A06F051F800211F
:101E9000206A06F0C9F9206A06F06BF8636A01331C
:101EA0006362CFE768930008F8B5054600242AE08E
:101EB0000226A6403146286A06F03EF840B3286A5A
:101EC00006F0A3F987B22B6A03EB84035A6B04F183
:101ED000080135F811100A445A6355F82430984720
:101EE000286A06F092F9C01B04F10C0325F81300D0
:101EF0003146286A06F026F804E00221A140286A4B
:101F000006F020F80134032C06DC6B6AA342CFDC18
:101F10006B6AA342F6DCF0E7F8BD014600221046EA
:101F20000FE002F10C0331F813304FF47A7C0CFB14
:101F300003F302F1080C31F81CC093FBFCF31844C6
:101F400001324B6A9342ECDC70470000024B1A6886
:101F5000024BC3F858287047600A00203C0100205B
:101F600008B5C0EBC0020B4B03EB8203DB688B426E
:101F70000EDC084B03EB82031B698B4201DAFF2066
:101F800007E0054B43F82010FFF754FA002000E06B
:101F9000FF2008BD3C01002000000020014B53F849
:101FA0002000704700000020024B53F82000401131
:101FB000704700BF0000002008B5054B53F8200013
:101FC00006F05EFF4FF0745106F0AEFF08BD00BF93
:101FD00000000020044B53F820004011012814BFDA
:101FE00000200120704700BF000000204901024B83
:101FF00043F82010704700BF00000020014B43F859
:10200000201070470000002010B5044608464FF02D
:10201000844106F089FF07F04DF9024B43F8240094
:1020200010BD00BF0000002070B506460024074D1B
:102030004E2C09DC3146686800F070FB10B10134A9
:102040001C35F5E7E0B270BD5020FCE73C010020F4
:102050000023064A4E2B07DC118B814202D001334C
:102060001C32F7E7D8B27047502070473C0100207F
:10207000C0EBC000014B03EB800070473C01002027
:1020800038B50024074D01E001341C354E2C07DC27
:102090002B8B002BF8D06969E0B2FFF7AFFFF3E7B5
:1020A00038BD00BF3C010020014B1954704700BFF0
:1020B000C40A0020024A135C0B431354704700BF4C
:1020C000C40A0020024A135C23EA01031354704738
:1020D000C40A0020014B185C704700BFC40A0020EE
:1020E000C0EBC000024B03EB8003987E704700BF3B
:1020F0003C01002000487047E8A5010008B5FFF743
:1021000025FF08BD08B52021806806F048F908BD04
:1021100008B5806806F03BF908BD10B50446436871
:10212000597A586805F0CEFA636804F12A02597AA0
:10213000586805F0D9FA63688022597A586805F022
:10214000E3FA6368597A586805F0B3FA10BD0000E5
:1021500070B504460D4653490160534901608560DE
:10216000037302610121017541758175002282614D
:10217000C26180F82020426280F828109DF810107B
:1021800080F829109DF8141080F82A124749416000
:10219000032A07D861680868A84203D01C3161602F
:1021A0000132F5E7424A1460002B74D0626850692E
:1021B000002B73D063681B8B0222032105F0E6FB22
:1021C0004FF4E131284606F091F80821284606F040
:1021D0009FF84FF40051284606F0A3F80C2128463A
:1021E00006F0ABF80021284606F0A1F800212846A9
:1021F00006F0A9F8284606F0BCF8284606F0BEF816
:102200006368197A586805F0FFF96368197A5868A5
:1022100005F046FA63682E1D3246197A586805F0B3
:102220005AFA63680022197A586805F017FA636849
:102230000022197A586805F005FA6368197A586817
:1022400005F018FA6368597A586805F0DDF9636893
:102250003246597A586805F03EFA63680022597A86
:10226000586805F0FBF963680022597A586805F050
:10227000E9F96368597A586805F0FCF96368597A96
:10228000586805F016FA2046FFF747FF284606F083
:1022900060F8204670BD6268D06889E763681B8A71
:1022A0008AE700BFC0A20008CCA20008D0A20008A4
:1022B000140B002038B50D460469437D3BB12168FD
:1022C00039B1284600F02AFA18B10834F7E700249B
:1022D00001E023680BB1204638BD1C46FBE738B54A
:1022E00004460D4601E0002373B163680222197AA7
:1022F000586805F09EF90028F5D194F828300BB104
:102300000023F1E70123EFE76368197A586805F0C5
:10231000D9F96368AAB2197A586805F0F5F96368C3
:1023200094F82020D201A83222440232197A586847
:1023300005F0DAF963680222197A586805F074F931
:102340006368197A586805F0B4F994F82030B3FA44
:1023500083F35B0984F82030002384F8283038BDEB
:1023600010B50446837D73B10A2910D0436A7F2BD0
:102370000DD090F8202000EBC2121A4482F8AA1067
:102380000133436210BD806805F0E8FFFAE794F876
:102390002030626A04EBC313134483F8AA10511C63
:1023A0002046FFF79CFF00236362EBE710B50C4665
:1023B000802A28BF802211464FF0000C0AE090F8D6
:1023C000203014F80CE000EBC313634483F8AAE058
:1023D0000CF1010C8C45F2D3FFF781FF10BD38B52D
:1023E00005460C46084600F0B0F90246214628464C
:1023F000FFF7DCFF38BD000010B50446084600F0CA
:10240000F7F900F0DCF9237D83420DD000236375DA
:10241000237B0BB3626850690BB363681B8B01228B
:10242000002105F0B3FA10BD01236375237B6BB166
:10243000626850696BB163681B8B0222032105F04F
:10244000A5FA08492046FFF7CAFFECE76268D068A2
:10245000F0E763681B8AF0E76268D068DCE76368CE
:102460001B8ADCE7A09F000870B584B004460846CC
:1024700000F0BEF90378302B11D0322B0DD04FF481
:102480006125637D73B92946A06805F02FFF0021FF
:10249000A06805F046FF04B070BD0E4DF1E74FF4A3
:1024A000E135EEE701AE0A222946304600F05CF93C
:1024B00009492046FFF793FF08492046FFF78FFFA1
:1024C00031462046FFF78BFF05492046FFF787FF7F
:1024D000D9E700BF10552200E09B0008E89B0008E8
:1024E00060A2000810B50446084600F081F90378A0
:1024F00023B1303B18BF012384F8293094F82930E8
:1025000023B105492046FFF76AFF10BD0349204665
:10251000FFF765FFF9E700BFF89B0008049C00087F
:10252000F8B504464368597A586805F0E6F8064657
:10253000C0F1800558B92046FFF7EFFD07E05A1CAF
:10254000E261234493F82A10A06805F007FF94F88D
:10255000293013B1E369AB42F1DB0821A06805F033
:102560001EFFE0B9002D28DDC6F17F06264496F84F
:102570002A300A2B17D00D2B15D094F82A30212B96
:102580001BD1A369CBB12046FFF7C7FD0023E36150
:10259000A3695B6804F5D571204698470DE0A068F3
:1025A00005F0F5FEDEE76368597A586805F08AF8A9
:1025B000012D03DC2046FFF7B0FDF8BD63190022B2
:1025C00083F82A20E26104F12A072021384600F02E
:1025D000C3F80646037823BB0A21384600F0BCF84E
:1025E0000646002384F8AA31337803B300233370FE
:1025F000A3612A49384600F091F80646E8B904F587
:10260000D5712046FFF7F8FEA369002B3CD0A068E7
:1026100005F0C1FEA3695B6804F5D57120469847B3
:10262000C8E7411C04F5D57000F086F8DCE70D2101
:10263000384600F091F80646D8E71949384600F0C8
:102640006DF8064668B994F82A322BB104F5D571B5
:102650002046FFF709FFD7E712492046FFF7BFFEE4
:10266000D2E71149384600F059F8064628B904F572
:10267000D5712046FFF736FFC6E739462046FFF7FB
:1026800019FEA0612E46BFE7012E93DD637D002B6E
:1026900090D006492046FFF7A2FE8BE7109C000869
:1026A0001C9C0008289C0008449C00084C9C0008C6
:1026B00008B5044B1B681A681268C1B218469047E7
:1026C00008BD00BF140B0020704708B500F014FDD2
:1026D00008BD000000B583B00649D1F8F027D1F855
:1026E000EC37D1F8E8170091034900F0DFFA03B0A6
:1026F0005DF804FB00F0FF1F689C000810B504465D
:10270000FFF7BEFC0249204600F0D0FA10BD00BF22
:102710007C9C000808B502F0DFF908BD431E0139B2
:1027200013F8010F11F8012F10B10AB19042F7D040
:10273000801A18BF01207047013911F8013F0BB909
:102740000370704700F8013BF7E7034600201A5C6E
:1027500002B970470130FAE70346184613F8012B17
:102760000AB18A42F9D17047002970B518DA2D23D1
:10277000012400F8013B4942034691FBF2F602FBBB
:10278000161130311970311E1D4603F10103F4DCBE
:1027900000221A700246AA420AD3241A181904E029
:1027A00004D1302341700370012070BD0024E3E7A1
:1027B00011782E7802F8016B05F80119EBE730B5B6
:1027C00003782D2B11D14FF0FF34013000210A2561
:1027D000431E01E005FB012113F8012F303AD0B26E
:1027E0000928F7D904FB01F030BD0124EEE7000011
:1027F00010B5134C014610F8012BA2F10A03DBB20D
:10280000162B19D824FA03F3DA07F3D40846FFF796
:102810009CFF01380844814204460AD223780138DB
:102820000A3BDBB2162B04D8054A22FA03F3DB0776
:10283000F1D40023637001E0002AE7D1084610BDFF
:1028400009004000002310B5934200D110BD51F89B
:10285000234040F823400133F6E7013A00D27047A5
:1028600040F8041BF9E7F8B50D4616461C46016012
:10287000828000238371631E082B2FD8DFE803F0CA
:1028800008290D051C26232B2000012400270CE01D
:10289000012383710224002707E0012383710224AE
:1028A00000273146284605F0A6F833462246394629
:1028B000284605F06BF8F8BD012484710027F4E781
:1028C00002240327F1E700240327EEE7002427462C
:1028D000EBE70027E5E701240327E2E702240027CE
:1028E000E3E70000024B4FF400421A80704700BF3C
:1028F000180C002008B5FFF7F5FF08BD70B50C1ED9
:10290000ACBF01234FF0FF335C430133064608BFE1
:102910002D234FF0640208BF06F8013B611104F05B
:102920001F040546544330460A22FFF71DFF2E229E
:102930006411092C3254D8BF302206EB0003D8BFF3
:102940005A7021464FF00A02CCBF581C981CFFF762
:102950000BFF284670BDF0B503782D2B17D14FF033
:10296000FF36013000244FF00A0C02E018460CFB41
:102970000454034613F8012BA2F13005EFB2092FDE
:10298000F4D9AAB98C40144406FB04F0F0BD01262A
:10299000E8E78B4003EB650393FBF5F30CFB05F5D0
:1029A0001A4410F8013F303BDFB2092FF1D9E9E7B3
:1029B0000A250022AC46F4E72DE9F04105460F4612
:1029C000161E02DD0A46002108E04FF0200813F031
:1029D00001041BD0002422E00131013210780028CC
:1029E000FAD1B14206DA761A13F0020F04D14FF091
:1029F0002008ECE70026F7E74FF03008E7E72B6800
:102A00001B684146284698470134013E002EF6DCFB
:102A100005E02B681B682846984701340137397850
:102A20000029F6D106E02B681B68414628469847E6
:102A30000134013E002EF6DC2046BDE8F0812DE990
:102A4000F04184B00746DDF828800C9859B11E4645
:102A50000C4613B10A2A13D0002600238DF80D303E
:102A60000DF10D0518E030238DF8003000238DF8AE
:102A700001300B9B424669463846FFF79DFF32E026
:102A8000002901DB0026E8E74C420126E5E730316A
:102A900005F8011DB4FBF2F44CB1B4FBF2F102FBFA
:102AA00011410929F3DDA0F13A031944EFE79EB182
:102AB000B8F1000F0BD00B9B13F0020F07D03B684F
:102AC0001B682D213846984708F1FF3804E02D2374
:102AD00005F8013C013D00260B9B4246294638463D
:102AE000FFF76AFF304404B0BDE8F08108B508463E
:102AF000FFF7DEFD08BDF0B585B0044615461E465D
:102B00006846FFF7FBFE33462A4669462046FFF734
:102B100053FF05B0F0BD000070B588B005460C4607
:102B20000592002693E0A21C01239DE0002221785B
:102B300039291CD9782900F289805829C0F086806B
:102B40005839202900F28280DFE801F0438080803C
:102B5000808080808080806A258061808080808005
:102B6000808080808080801A80528080340030296C
:102B70006CD302EB8202303901EB42020134D6E71A
:102B80000599081D0590096801B93D492846FFF7D8
:102B900013FF06445AE00599081D05900968612055
:102BA00002900193009201230A222846FFF747FF73
:102BB00006444BE00599081D0590096861200290C4
:102BC00001930092002310222846FFF738FF0644A5
:102BD0003CE00599081D0590096841200290019389
:102BE0000092002310222846FFF729FF06442DE01B
:102BF0000599081D059009686120029001930092D3
:102C000000230A222846FFF71AFF06441EE0059912
:102C1000081D059009682846FFF76DFF064415E07A
:102C20000599081D059009688DF81C1000218DF884
:102C30001D1007A92846FFF7BFFE064406E014460C
:102C40002B681B6821782846984701360134237881
:102C50009BB1252BF4D1621C637873B1252BEED088
:102C60002D2B3FF460AF002314462278302A7FF4E6
:102C70005DAF013443F00203F7E7304608B070BDA2
:102C8000F09C00080FB400B583B004AA52F8041BEE
:102C9000054B0193009201A8FFF73EFF03B05DF8DA
:102CA00004EB04B0704700BFB8A300080EB400B531
:102CB00082B003AA52F8041B0192FFF72DFF02B065
:102CC0005DF804EB03B07047114B124A1360991C76
:102CD000114A1160191D114A1160991D104A1160A5
:102CE00003F108010F4A116003F10A010E4A116055
:102CF00003F10C010D4A116003F10E010C4A116041
:102D000003F110010B4A116012330B4A1360704734
:102D1000440C0020400C00203C0C0020380C00200B
:102D2000340C0020300C00202C0C0020280C00203B
:102D3000240C0020200C00201C0C002070B582B058
:102D4000334B93E8030002AB03E903000025002D99
:102D50002CDD304C304A0121204604F0BCFC2F4AC7
:102D60000121204604F0C0FC4FF48072012120466E
:102D700004F074FC4FF480620121204604F062FCF0
:102D800078220121204604F0BFFC0121204604F0F6
:102D900071FC0121204604F076FC0121204604F05C
:102DA00088FC1F4804F006FA02B070BDAE0002AB0A
:102DB00003EB850353F8084C204604F0A9F920469C
:102DC00004F0ABF9204604F0BDF9204604F0AFF959
:102DD0000121204604F087F9204604F04AF92046F4
:102DE00004F064F9204604F074F973195A000D4B8D
:102DF0001A440A21204604F0AFF9204604F0E4F911
:102E00004FF46021204604F047F901359FE700BFE9
:102E1000BCA30008000002404C240140440C0020E8
:102E200000240140340D0020884205DD914209DC78
:102E300090420ADD10467047904206DC914203DD65
:102E400010467047084670470846704730B583B053
:102E5000046800250BE0228DA18A2088FFF7E4FF9B
:102E600002AB03EB450323F8080C01353C34032D7A
:102E7000F1DDBDF80000BDF802301844BDF80430A3
:102E80001844BDF806301844C0F38F0003B030BDBD
:102E900008B50F4B98420BD003F58063984211D0D0
:102EA000A3F50063984205D1072903DCC8B204E00A
:102EB000012903DD04F0E6F8102008BDC9B208318D
:102EC000C8B2FAE70529F5DCC9B20A31C8B2F4E79D
:102ED000000C014070B504460D4616460123934090
:102EE0009BB200221146284604F050FD2468054B91
:102EF000E41A641031462846FFF7CAFFA4B2024B19
:102F0000185570BD440C0020340D002008B5FFF7A3
:102F1000DBFE08BD08B504F071FB00F5FF3000F2E0
:102F2000FF10800208BD2DE9F043ADF2044DFFF71C
:102F3000F1FF0746024600234FF0FF3603E052F848
:102F4000041B0E400133FF2BF9DD04F03BFB4FF473
:102F500080724FF0FF316846FFF77FFC002400E0ED
:102F600001344E2C1AD8E5B22846FFF7B9F80028EC
:102F7000F6D12846FFF77CF880462846FFF7AAF8E6
:102F80000DEBC40989F80300B8F818202DF8342097
:102F90002846FFF703F8C9F80400E1E7FE21684678
:102FA00004F01EFBFE9004F0CBFCB6F1FF3F01D114
:102FB00000240AE0384604F07FFCF9E75DF82410AD
:102FC00007EB840004F0D6FC0134FF2CF6D904F0A2
:102FD000C3FCFE980DF2044DBDE8F083F8B5FFF791
:102FE00099FF064604F0EEFAFE21304604F0F8FAA6
:102FF000D6F8F833834201D1002503E04FF0FF30CB
:1030000019E001357E2D15D836F83500FFF720F888
:1030100004465028F5D0FFF763F80028F1D106EBFD
:10302000C50779682046FEF7E9FFF9782046FFF7E3
:103030003BF8E6E70020F8BD014B1860704700BF81
:10304000500D00200D4B1B5CB3B90D4B196899B1A5
:1030500010B40C4B18700C4C23680C4A02F8330067
:1030600002EBC3025160054A012111540B4403F0E5
:103070000F03236010BC7047704700BF400D002055
:10308000500D00204B0D00204C0D0020E0090020C9
:103090000F280AD8064B03EBC0035B680BB900206E
:1030A0007047034B13F8300070470020704700BF93
:1030B000E00900200F2801D900207047024B03EBE4
:1030C000C0035868704700BFE009002008B5074BEF
:1030D00003EBC10292F804C053F83130044A52F8AD
:1030E0002C2001460348FFF7CDFD08BDD0A3000802
:1030F000C4A30008F89C000810B50C4B5B680BB12A
:10310000002409E00A48FFF7BDFD0DE0074B13F866
:103110003410FFF7DBFF01340F2C05D8034B03EB12
:10312000C40358680028F1D110BD00BFE009002099
:10313000089D000810B58AB00F4B01EB410203EB6C
:10314000820453F82220646801EB410103EB810300
:103150009B68D0F8580200210891079106930594C6
:10316000049203910291019100910B46012204F017
:103170003DF80AB010BD00BF3CA40008F0B583B014
:1031800004460D4616461F4672B60121D0F8580275
:1031900004F03FF9019600970023B5F5006F34BFA6
:1031A000002201222946D4F8580204F037F90028F9
:1031B00006DBD4F85432002B18DC62B603B0F0BD45
:1031C000D4F85432132BF4DC03F1110204EB021295
:1031D00055609760316804EB0312C2F81C117168E6
:1031E000C2F820110133C4F85432E2E70121D4F8C7
:1031F000580204F00AF9E0E7012801DD00207047D9
:10320000014B53F820007047540D002030B58BB0AF
:1032100004460D460AE09DF8213006AA0999204689
:1032200000F0A6FA04F026FEC4F8F8000023059387
:1032300006AB04930DF12103039308AB02930DF148
:10324000220301930DF12303009309AB0122E9B29C
:10325000D4F8580204F059F90028DCD10BB030BD85
:1032600030B583B0044600F58A7504E0D4F85432D2
:10327000013BC4F85432D4F85432002B17DD03F16B
:103280008053013B1A0105EB0313A9585A68083310
:103290000193D2B200920023B1F5006F34BF002237
:1032A0000122D4F8580204F0B9F80028DEDAD4F884
:1032B00054320BB103B030BD0121D4F8580204F0F0
:1032C000A8F8F7E7F0B585B00E4615461C4610681D
:1032D000B3F800C05A889B88E7885B019BB2520113
:1032E00092B24FEA4C1C1FFA8CF14FF0010CCDF852
:1032F00008C000EA0C0CCDF804C07F01BFB20097F3
:1033000004F066F8002333602A6801322A60E38003
:10331000A3806380238005B0F0BDF0B585B00F4673
:1033200015461C461068B3F800C05A889B88E6888A
:103330005B019BB2520192B24FEA4C1C1FFA8CF116
:103340004FF0010CCDF808C000EA0C0CCDF804C019
:103350007601B6B2009604F02BF800233B602A6891
:1033600001322A60A380238040F2FF73E3806380F0
:1033700005B0F0BD70B582B00E4615461C4610680B
:103380001968C9005A68D20001230093034042F033
:10339000040241F0040104F02BF8002333602A6892
:1033A00001322A606360236002B070BD30B58BB01B
:1033B0000546002308930993474906AA03C982E8F2
:1033C000030004930593039302930193D5F85822C5
:1033D000424B9A420AD0A3F58063D3F8003AC3F374
:1033E000052300930024C2F81C4221E00023F8E7E3
:1033F00004F11E0205EB8202516871B3029A501C5F
:1034000002900DF1280C0CEB420C2CF8103C02320F
:1034100002920AAB03EB400020F8101C039B042B24
:1034200024D0029B022B28D0019B022B2CD00134EC
:10343000D5F8F430A3422EDD05EB84035B68B3F5C9
:10344000006FD5D3019A23F060430AA901EB8201F2
:1034500041F8183C01320192E0E7039A0AA901EB16
:10346000420121F8083C01320392D7E708AB6A46D3
:1034700003A92846FFF726FFD3E706AB6A4602A951
:103480002846FFF74AFFCFE704AB6A4601A9284662
:10349000FFF770FFCBE7039B002B07DC029B002BA1
:1034A0000BDC019B002B0FDC0BB030BD08AB6A4678
:1034B00003A92846FFF706FFF0E706AB6A4601A915
:1034C0002846FFF72AFFECE704AB6A4601A9284625
:1034D000FFF750FFE8E700BF78A400080064004051
:1034E000F8B504460D4616461F4600F0E3F8544B67
:1034F00023600023C4F85432C4F85852514B9D4203
:103500002FD003F580639D4258D1002F00F08280B8
:103510004D4D202302220021284604F037FA2021B5
:10352000284604F068FA402302220321284604F0CA
:103530002DFA402004F0A8FFF021402004F0B0FF55
:10354000412004F0A1FFF021412004F0A9FF3F2019
:1035500004F09AFFF0213F2004F0A2FF3B4B5C6097
:103560002CE0002F41D0384D4FF48073022200210F
:10357000284604F00BFA4FF48071284604F03BFA19
:103580004FF4007302220321284604F0FFF91420AF
:1035900004F07AFFF021142004F082FF152004F0DB
:1035A00073FFF021152004F07BFF132004F06CFF63
:1035B000F021132004F074FF244B1C60D4F858024F
:1035C00003F008FE31462046FFF7B4FD2046FFF722
:1035D000EDFE0221D4F8580203F017FF1021D4F8B1
:1035E000580203F012FF2046F8BD194D4FF4006356
:1035F00002220021284604F0C9F94FF40061284650
:1036000004F0F9F94FF4805302220321284604F014
:10361000BDF9BCE70C4D4FF480530222002128462F
:1036200004F0B4F94FF48051284604F0E4F94FF463
:10363000005302220321284604F0A8F979E700BFCD
:1036400030A4000800640040000C0140540D00202C
:103650000008014008B50020FFF7CEFD0021FFF76C
:10366000D5FD08BD08B50020FFF7C6FD0121FFF715
:10367000CDFD08BD08B50020FFF7BEFDFFF7F0FD4A
:1036800008BD08B50120FFF7B7FD0021FFF7BEFD1B
:1036900008BD08B50120FFF7AFFD0121FFF7B6FD1A
:1036A00008BD08B50120FFF7A7FDFFF7D9FD08BD4C
:1036B00070477047084B03600023C0F8F430C0F82F
:1036C000FC3005E003F14002044940F822100133C8
:1036D000042BF7DD704700BF88A40008640A0020AF
:1036E000D0F8FC30042B01DD0020704703F14002CC
:1036F00040F822100133C0F8FC300120704738B583
:10370000D0F8F4501D2D0BDD002038BD01339D4253
:1037100008DD00EB830464688C42F7D10020F4E7F5
:103720000023F4E700EB8503596005F11E0300EB6D
:1037300083035A600135C0F8F45003689B689847CA
:103740000120E2E738B505460024C0F8F4400368DC
:103750009B68984707E004F1400355F8230003688D
:103760005B6898470134D5F8FC30A342F3DC38BDE0
:103770002DE9F8430546894690461F4600240AE095
:1037800004F1400355F8230003681E683B46424697
:103790004946B0470134D5F8FC00A042F0DCBDE852
:1037A000F88370B5054600F1300634460BE034F876
:1037B000043BC3F3C02123F40063002203EB4171F7
:1037C0006868FFF79CFFA31B242B02DCA378322B35
:1037D000EDD170BD2DE9F04182B0054600F108073A
:1037E0003E46F31B242B00F39380B378322B00F07A
:1037F0008F80002300930193B37803EB4304A4006C
:1038000058342C441AE0C0F307231B0443EA006336
:10381000C0F3074243EA022343EA1063E2791F2A16
:103820003DD8C2F11F0223FA02F2009B134300931A
:10383000647A04EB4404A40058342C44637AFF2BCC
:103840005DD0354B1B78002B62D12079FEF7B4FB9D
:103850000146206805F068FB804694F9060005F0F3
:103860000FFB414605F058FA05F024FD94F908C015
:103870008CEAEC71A1EBEC71C9B24FF0FF328A40D7
:1038800020EA0200BCF1000FBDDBE2791F2A20D93B
:10389000203A00FA02F2019B13430193C8E79444D3
:1038A000BCF11E0F07DDC2F13F0223FA02F2019BB9
:1038B00013430193BCE7A2F11F0003FA00F0009943
:1038C00001430091C2F13F02D340019A1A43019291
:1038D000AEE702EB0C03202B05DC00FA02F2009BA2
:1038E00013430093A4E700FA02F1009B0B430093FB
:1038F000C2F12002D040019B0343019398E768681E
:1039000003685C6808236A4636F8041BA04768E72A
:1039100002B0BDE8F08100BF5C0D002010B501B31E
:1039200002F10C0E00EB8E0E0A2A45D89EF802100A
:10393000322943D001EB410C4FEA8C0C0CF1580CAE
:10394000844400249CF80910FF2933D073B1013B53
:10395000DBB201EB410189005831644600EB010CF8
:10396000F0E702F1020E00EB8E0EDDE72CB1617282
:10397000FF238CF8093001201FE0322904D08EF893
:103980000210F5E70133DBB29918092904DC0EEBCC
:10399000830189783229F5D1013BDBB20EEB83023A
:1039A00091788EF802103EF82330AEF800303223C2
:1039B0009370DDE7002000E0002010BD0020FCE750
:1039C000F8B50C4600F1080600231A461F461946B2
:1039D0003FBB35460022A5EB060CBCF1240F27DCCB
:1039E00095F802C0BCF1320F22D00CEB4C0E4FEA1E
:1039F0008E0E0EF1580E8644002309E00133DBB22F
:103A00000CEB4C0C4FEA8C0C0CF1580C00EB0C0E30
:103A10009EF809C0BCF1FF0F06D0BEF804E0A64531
:103A2000ECD157B10020F8BD0132D2B20435D2E753
:103A300000F130060F460121CAE7FFF76FFFF2E7FA
:103A4000F0B5089F00243C7000F10806002C42D11C
:103A50003546AC1B242C38DCAC78322C35D004EB4A
:103A6000440E4FEA8E0E0EF1580E864407E00CEB22
:103A70004C0C4FEA8C0C0CF1580C00EB0C0E9EF821
:103A800009C0BCF1FF0F1ED0BEF804408C42EED13D
:103A90002988C1F3C020116021F40061116041EA5E
:103AA000407111609EF807201A709EF90820059B4E
:103AB0001A70DEF80020069B1A609EF90620079B0C
:103AC0001A700120F0BD0435C3E73C7801253D7034
:103AD00000F13006BAE70020F4E710B48446019CF8
:103AE000D9B102F10C0100EB81010A2A27D88A78AA
:103AF000322A26D002EB4202920058320CEB02002E
:103B0000427AFF2A18D063B1013BDBB202EB4202DA
:103B1000920058320CEB0200F2E7911C00EB81019D
:103B2000E3E70B88C3F3C022236023F40063236020
:103B300043EA4273236000E0002010BC704700207D
:103B4000FBE70020F9E72DE9F04385B006468846FB
:103B500000F1080900273B462FE02B88C3F3C02C57
:103B600023F4006194F90830E2792079029794F9FE
:103B700006E0CDF804E0D4F800E0CDF800E041EA3A
:103B80004C71C047647A04EB4404A40058343444B4
:103B9000637AFF2BE1D10435A5EB0903242B08DC64
:103BA000AB78322B05D003EB4304A40058343444E3
:103BB000EEE706F130093B4601270BB94D46EBE72E
:103BC00005B0BDE8F083002306E001EB83024FF06F
:103BD000320C82F802C00133092BF6DD002307E026
:103BE00003EB430200EB8202FF2182F861100133F4
:103BF000322BF5DD704710B5044600F10801FFF7E0
:103C0000E2FF04F130012046FFF7DDFF6068FFF7B7
:103C100099FD10BD2DE9F041884615461F46002448
:103C200026460AE0286803F0D5FC064655F8041B32
:103C300008EB840003F09EFE0134BC42F2DB304608
:103C4000BDE8F081084600E00430431A242B0ADC6A
:103C50008378322B05D00388534033F40063F3D1CB
:103C600002E0002070470020704700004B4B1B789B
:103C700003B170472DE9F041054616460A4600F1AA
:103C80003001FFF7DFFF002800F08580837803EB29
:103C90004304A40058342C4442E01F2B53D830680E
:103CA000C0F30722120442EA0062C0F3074742EA67
:103CB000072242EA1062C3F11F03DBB201208840F1
:103CC000013822FA03F3184005F0D6F8074694F9B4
:103CD000060005F0D5F8394605F01EF801462068C3
:103CE00005F022F907462079FEF7FAF920B120798C
:103CF000FEF7F6F9012849D1B4F804804FF0844169
:103D0000384605F011F905F0D5FA01465FFA88F05A
:103D1000FEF726F9647A04EB4404A40058342C44DA
:103D2000637AFF2B37D0E37994F9082082EAE271B5
:103D3000A1EBE271C9B2002AAFDB1F2B18D9726860
:103D4000203BDBB2BAE71A441F2A03DD7068203B30
:103D5000DBB2A5E75B1ADBB20133DBB23068D840D7
:103D60007268C3F120039A4010434B1EDBB297E701
:103D70001A44202A01DC3268A0E73268DA40706811
:103D8000C3F1200398400243002397E73946207986
:103D9000FEF73AF9BEE7BDE8F08100BF5C0D0020F8
:103DA0002DE9F8439DF820809DF92460002E79D0FC
:103DB00004460D461746994686EAE673A3EBE6737A
:103DC000DBB2202B71D8002E0CDD08EB0603402B54
:103DD0006EDC4A4629462046FFF734FF844668B128
:103DE00000221DE0B8F13F0F65D84FFA88F3334445
:103DF000B3F1FF3FEDDA6FF0010051E00021092936
:103E000007DC05EB81039A78322A01D00131F6E70D
:103E10009C46BCF1000F51D0ACF80090E0E70132B5
:103E2000312A07DC02EB420304EB830393F8613091
:103E3000FF2BF4D1322A44D09CF8023000210AE052
:103E400003EB430189005831214403EB430304EBA6
:103E5000830393F86130322BF2D102EB420304EB7F
:103E60008304A4F85C700A9BA3659DF92C3084F848
:103E70005E3084F85F8084F86060322384F86130BB
:103E800019B14A722B46002004E08CF80220F9E7B1
:103E9000013004335A1B242A02DC9A78322AF7D1E3
:103EA000BDE8F8836FF00200FAE76FF00200F7E771
:103EB0006FF00100F4E76FF00100F1E76FF003002D
:103EC000EEE76FF00400EBE7B2F5006F12D210B529
:103ED00084B09DF920400394079C02949DF91840FA
:103EE0000194009313460A4600F10801FFF758FFBA
:103EF00004B010BD4FF0FF30704770B584B0054678
:103F00001446C2F3407022F00052B2F5006F19D28D
:103F10009DF928600396099E02969DF920600196FE
:103F2000009342EAC0230A4605F130012846FFF714
:103F300037FF0646002221466868FFF7E0FB30465F
:103F400004B070BD4FF0FF36F9E72DE9F04F89B0AE
:103F50008346059206938A46079131E0B4F9020040
:103F600004F08EFF002303930290CDF804800095A7
:103F70003B46049A05993046FFF712FF0634A4EB3E
:103F800009032A2B1ADC94F90530002B16DD208852
:103F9000FEF75EF80490DBF80060BAF8007025794F
:103FA00094F90580069B002BD8D0B4F9020004F0E8
:103FB00067FF4FF0745104F0B7FFD3E70AF1320AFC
:103FC000079BAAEB0303B3F5E17F0ADCBAF8001004
:103FD0004FF6FF73994204D00AF102052C46A94618
:103FE000CDE709B0BDE8F08F08B503F007FB00F599
:103FF000FF3000F5FF70800208BD70B582B0054645
:104000000190FFF7F1FF0446D0F8E86303F0DAFA15
:10401000FA21204603F0E4FA864202D0002002B0E2
:1040200070BD01AE002305F1080221463046FFF7BE
:104030008CFF012305F1300204F5FA713046FFF7D9
:1040400084FF0120EBE7F8B505460F460E460EE06B
:104050002079FEF70DF8038BA380647A04EB440407
:10406000A40058342C44637AFF2BF1D10436F31B9F
:10407000242B08DCB378322B05D003EB4304A400D7
:1040800058342C44EFE7F8BDF8B505460F460E4608
:104090000DE0A088FDF7DCFFA080647A04EB440407
:1040A000A40058342C44637AFF2BF2D10436F31B5E
:1040B000242B08DCB378322B05D003EB4304A40097
:1040C00058342C44EFE7F8BDF0B583B00546FFF750
:1040D0008BFF064602462A4B0121197000234FF040
:1040E000FF3403E052F8041B0C400133FF2BF9DDD1
:1040F00003F068FA03F024FC022003F017FCB4F18B
:10410000FF3F38D105F1080739462846FFF79BFFE6
:1041100005F1300421462846FFF795FF0A233A4669
:1041200031462846FFF776FD0A23224606F128018C
:104130002846FFF76FFD0190962305F1580206F11E
:1041400050012846FFF766FD0190012301AA06F5FC
:104150002D712846FFF75EFD03F0FEFB3946284629
:10416000FFF792FF21462846FFF78EFF044B0022FF
:104170001A7003B0F0BD304603F09EFBC2E700BFEB
:104180005C0D0020F8B50546FFF72EFF0446D0F879
:10419000B46203F017FAAA21204603F021FA8642FE
:1041A00003D02846FFF729FFF8BD05F108070A22CA
:1041B00021463846FEF746FB05F130060A2204F197
:1041C00028013046FEF73EFB962204F1500105F12E
:1041D0005800FEF737FB39462846FFF755FF3146B2
:1041E0002846FFF751FF0120DEE7000038B50446FE
:1041F000084615460D4B23600D4B23606160214638
:10420000FFF76EFA04F108012046FFF7DCFC04F129
:1042100030012046FFF7D7FC25B92046FFF7C1FA49
:10422000204638BD2046FFF7ADFFF6E75093000863
:10423000ACA40008036ED3B14FF47A73036604E0B4
:10424000036E002B07DD01233BB1826DC36D9A42E3
:10425000F6D00023F8E70023F6E7836D5A1C826549
:1042600003F03F03034419764FF0FF334361704777
:10427000A0F10400FFF7DEBF10B50446017C002268
:1042800001F5C0618068FFF73AFA617C3F2900D9E7
:1042900010BD002201F5B061A068FFF730FAF7E722
:1042A00010B504460846144B2360144B6360144B4E
:1042B000236014336360A160E26001232374FF2351
:1042C00063744FF0FF3363610023A3654022E2650E
:1042D0004FF47A722266502284F86420A36684F830
:1042E0007830E36784F888302146FFF7F9F92046F3
:1042F000FFF7C2FF204610BD50930008C0A200087F
:10430000BCA4000808B501748068FFF71BFA08BD5B
:1043100010B582B004468DF80010ADF801309DF85C
:1043200010308DF80330059B0193437C93420DD1EF
:10433000002384F87830A068617C03685C680823F7
:104340006A4601F5C061A04702B010BD42748068A2
:10435000FFF7F8F9ECE738B504460A468068217C97
:1043600003685D68082301F5B061A847002384F85D
:10437000883038BDB1F8012045F201039A4211D0CE
:10438000012380F888300B7880F88030B1F8013054
:10439000A0F88130CB7880F883304B68C0F8843047
:1043A000002070470B78402B01D0002070474FF061
:1043B000FF330B714B7100238B71CB7141220A705B
:1043C0004FF47A72026683654023C365CB784361FC
:1043D000012070472DE9F04184B006460C46B1F843
:1043E0000120C2F3C017CD7825B1013D05EBD5758D
:1043F000C5F3470503AB00932B4602F03F02394655
:10440000F068FFF76AFB80462378402B0DD0232B02
:104410003DD0802323700023237163710223A37195
:104420000623E37104B0BDE8F08130B30079FDF7F5
:104430001FFE028BE37823B9039B63604323237041
:10444000F0E713F0010F09D098F8073042EA034271
:1044500098F9083042EA03626260EFE71449D8F83D
:10446000000004F061FD04F025FF20F07F4398F97F
:10447000062043EA02636360E0E7802323700023A1
:10448000237163710223A3710623E371CAE7002835
:10449000BFD06368002BBCD1B4F801202B4602F0DA
:1044A0003F023946F068FFF739FA60232370B9E715
:1044B00000007A440B78232B00D070472DE9F0419F
:1044C00084B006460C461546CB7883B94B68B3F1E9
:1044D000005F04D323F00052B2F5006F03D2B3663D
:1044E0006023237019E04FF0FF3383660CE0876E82
:1044F000B7F1FF3F01D0012B12D096F97480B8F1CB
:10450000000F01D0022B1DD08023237000232371C4
:1045100063710223A3710623E37104B0BDE8F08147
:10452000486880B2FDF794FDA6F870006368C3F395
:10453000054386F8733063681B1686F874304E287E
:10454000CED9E1E7606840F3170004F099FC154903
:1045500004F09EFDF06663681B1686F87230A5B104
:1045600002930190CDF8008096F873303A4696F8A1
:104570007010F068FFF7C1FC002386F874304FF02C
:10458000FF33B3660028ABDABEE702930190CDF8A3
:10459000008096F873303A4696F87010F068FFF78E
:1045A00093FCE9E700007A4438B504460D460A78E2
:1045B00002F06003602B31D0B1F80130B3F5005F39
:1045C0005AD003F47F40B0F5045F55D0E16819B1CB
:1045D000B3F5405F00F0858021B143F2010C6345E3
:1045E00000F0858019B1B0F5445F00F0868045F297
:1045F00003018B4200F0868045F204018B4240F0BB
:104600009B80402A00F0918080232B7000232B7127
:104610006B710223AB710623EB7119E002F01002FB
:104620000A700122072A0EDCE36DA16D5B1A402B94
:1046300009D0E36D591CE16503F03F0323441B7E61
:10464000AB540132EEE7E36DA16D5B1A402B09D04C
:10465000A068217C03685C6808232A4601F5B061E4
:10466000A04738BD2B7843F001032B70C2F108023C
:1046700043EA42032B70EBE7E87803F47F42B2F59C
:10468000045F0CD04E2822D82B78232B0DD0402B42
:10469000DED1FDF783FC686043232B70D8E71B0253
:1046A0009BB21844FDF7D4FCECE76968FDF758FCB1
:1046B00010B960232B70CBE780232B7030232B7134
:1046C00000236B710923AB710623EB71C0E78023D4
:1046D0002B7000232B716B710223AB710623EB71DE
:1046E000B6E7002229462046FFF7E4FEB0E70122A4
:1046F00029462046FFF7DEFEAAE729462046FFF7B7
:1047000069FEA5E7402A09D080232B7000232B7176
:104710006B710223AB710623EB7199E7E878FEF722
:10472000B7FC686043232B7092E7E878FEF7C2FC81
:10473000686043232B708BE729462046FFF71AFE5B
:10474000002885D18DE70000F0B583B004461546FA
:10475000037C03F5C0638B4206D0467C06F5B0634C
:104760008B4205D003B0F0BD1146FFF71DFFF9E7FE
:10477000B2F80170A7F540539BB2012B08D92B78F2
:10478000803B18BF012384F878306B68E367E9E762
:10479000D378ABB1012BF2D11349C06E04F0C4FB46
:1047A00004F088FD94F9723040EA03630193022318
:1047B00000933B46324623212046FFF7A9FDDEE762
:1047C000B0F8703090F8732043EA024390F97420F7
:1047D00043EA02630193012300933B4632462321BF
:1047E000FFF796FDCBE700BF00007A4410B5044602
:1047F000B0F80130B3F5A04F0DD045F2020293425C
:1048000032D0802323700023237163710223A371AC
:104810000623E37110BD0278402AEED143230370D2
:10482000C378032B16D8DFE803F002070C112C4BDA
:10483000D3F8E8374360EDE7294BD3F8EC37436012
:10484000E8E7274BD3F8F0374360E3E7FDF752FC86
:104850006060DFE78023037000230371437102234C
:1048600083710623C371D5E72378232BC9D1602335
:104870002370E378032B29D8DFE803F00218202205
:10488000184B1B784BB172B6174B186808B1FFF77D
:104890001BFCFEF748FB62B6BCE7802323700023B5
:1048A00023716371A3710823E371B3E772B6FEF756
:1048B00095FB62B64F20FCF7BDFDABE703F0DCFDD6
:1048C000FDF7DEFB4F20FCF7B5FDA3E78023237047
:1048D0000023237163710223A3710623E37199E717
:1048E00000F0FF1F680A0020600D00202DE9F04154
:1048F00084B00C4615461E469DF83070FDF7B8FB97
:10490000D0F804801449154B1868FEF7CFF9E7B1C9
:104910001349124B1868FEF7C9F94FF084410A9801
:1049200004F002FB0D4B1F689DF92C30039304F03B
:10493000C1FC02900196009523464246094938463B
:10494000FEF7B4F904B0BDE8F0810749034B1868DD
:10495000FEF7ACF9E1E700BFCC9E0008680D00202F
:10496000D49E0008DC9E0008D89E000870B504465E
:104970000846FDF73DFF05462021FDF7EDFE0378D3
:10498000A3B1002300F8013B0521FDF7E4FF064633
:104990002846FDF749FB502812D03146FDF7E0FAD2
:1049A00048B90A492046FEF781F903E00849204644
:1049B000FEF77CF970BD07492046FEF777F9F9E765
:1049C0002A4605492046FEF771F9F3E70C9F0008D7
:1049D000F09E0008189F0008309F0008F8B50746B1
:1049E0000846FDF705FF054609E02A460F49384607
:1049F000FEF75CF9254605F8016B2C2E14D12C210D
:104A00002846FDF7A9FE04460678002303702846D1
:104A1000FDF70AFB5028E8D0FDF7C0FA024604492A
:104A20003846FEF743F9E5E7F8BD00BF509F0008A0
:104A3000489F00082DE9F04107460846FDF7D8FEDB
:104A400080462021FDF788FE03789BB10446064688
:104A5000002306F8013B4046FDF7E6FA05465028DC
:104A600029D06378212B0AD07E2B08D02F2B06D09B
:104A7000002406E013493846FEF718F90FE0A61C9B
:104A8000012431461048FDF749FE50B974B10121A7
:104A90002846FDF717FB0D493846FEF707F9BDE834
:104AA000F0810B493846FEF701F9F8E70121284665
:104AB000FDF700FBEFE7424606493846FEF7F6F8F9
:104AC000EDE700BF6C9F00087C9F0008949F0008E2
:104AD000849F0008309F00082DE9F04F8BB00746F7
:104AE0000846FDF785FE0378059346493846FEF7EC
:104AF000DDF800264FF0200822E0434A039202939B
:104B00000190CDF800A04B46424640493846FEF79A
:104B1000CDF82846FDF7E4FA20B12846FDF7E0FA83
:104B200001285AD1E26823696169206802960190E0
:104B3000009137493846FEF7B9F84FF02C08013696
:104B40004E2E51D8F5B22846FDF792FA0446284673
:104B5000FDF7C0FA10F0010F02D0059B682BEED1D3
:104B6000D4F80490D4F808A0B4F818B02846FDF79B
:104B700015FA0290CDF804B0CDF800A04B4642469D
:104B800024493846FEF792F80DF11F0303930DF107
:104B90001E03029309AB01930DF11D03009307ABB4
:104BA00008AA29461C480068FEF74AFF0028B0D032
:104BB000DDF820809DF81C909DF91DA04FF08441E8
:104BC000099804F0B1F904F075FB9DF91E309DF8C9
:104BD0001F20002A91D0114A90E711493846FEF76C
:104BE00065F84FF02C08AAE70E4BD3F8F0270E49D2
:104BF0003846FEF75BF80D493846FEF757F80BB01C
:104C0000BDE8F08FB89F0008B09F0008EC9F000837
:104C100050A00008BC9F0008640D0020A89F000859
:104C20003CA0000800F0FF1FA0A00008DCA00008C6
:104C30002DE9F0478AB004460023059306930793B5
:104C4000089309930846FDF7D3FD0578702D39D0F8
:104C5000632D45D02021FDF77FFD0378002B48D040
:104C6000FDF7C6FD07462021FDF776FD06460378D1
:104C70000BB9642D44D1002306F8013B3846FDF7FB
:104C8000D3F981463046FDF7B3FD0646B9F1500F22
:104C90003BD0642D3ED04FF000084FF07E5AB8F163
:104CA000040F62DC20213046FDF756FD07460378ED
:104CB000002B3AD1B8F1020F37DC55492046FDF7F9
:104CC000F5FF1AE0534B1B68002BFBD1514D2C60B4
:104CD0005149524B1868FEF736FF00232B600CE059
:104CE0004E4B1868FEF787FF4D492046FDF7DEFF63
:104CF00003E047492046FDF7D9FF0AB0BDE8F08739
:104D000043492046FDF7D2FFF7E746492046FDF725
:104D1000CDFFF2E74946414B1868FEF751FE0246C7
:104D200041492046FDF7C2FFE7E700233B703046CC
:104D3000FDF745FDB8F1030F0BD00AAB03EB880379
:104D400043F8140C781CFDF753FD064608F10108E2
:104D5000A5E710213046FDF7FEFD04F091F84FF075
:104D60005E5104F0E1F88246ECE7742D17D09DF90E
:104D700024300293CDF804A09DF91C3000939DF8D7
:104D80001830059A494625480068FFF7B6F8431DD4
:104D9000042B32D8DFE803F0262C201A14009DF9EA
:104DA00024300293CDF804A09DF91C3000939DF8A7
:104DB0001830059A494619480068FFF785F8E6E774
:104DC000059A1A492046FDF771FF96E7069A184999
:104DD0002046FDF76BFF90E7079A16492046FDF73E
:104DE00065FF8AE7059A14492046FDF75FFF84E7CF
:104DF00012492046FDF75AFF7FE7012806DD104BD8
:104E0000024610492046FDF751FF76E70E4BF7E7C3
:104E100008A10008680D0020ED480008640D00207E
:104E2000E4A000081CA1000830A1000848A1000867
:104E30005CA1000870A1000884A10008ACA10008D2
:104E400080950008C8A10008A49F000810B504467A
:104E50000C4B1B788BB172B60B4B1868FFF734F90B
:104E60000A492046FDF722FFFEF75DF8024662B6CA
:104E700007492046FDF71AFF10BD0649FDF716FF4A
:104E8000FAE700BF690A0020640D0020F4A10008C1
:104E900004A2000820A2000810B5044672B6FEF76E
:104EA0009DF862B638B94F20FCF7C4FA0449204691
:104EB000FDF7FCFE10BD03492046FDF7F7FEF9E7BC
:104EC00064A2000878A2000808B503F0D5FA2DE91D
:104ED000F843054688461746002604E023782C2B25
:104EE00016D1BE4214D22C212846FDF735FC0446CB
:104EF00090F80090002303702846FDF795F82546AA
:104F000005F8019B5028E9D008F806000136E5E7CE
:104F10003046BDE8F88300002DE9F04184B0064634
:104F20000846FDF765FC0446FDF749FC8046202154
:104F30002046FDF711FC03784BB10A2201A901308C
:104F4000FFF7C5FF07463046FDF7E2F820E01949B4
:104F50003046FDF7ABFE04B0BDE8F08104F110036C
:104F60006B4413F80C0CFDF719F803462A46124956
:104F70003046FDF79BFE0134104DBC42EEDB10497C
:104F80003046FDF793FEB8F1FF3F01D008F1FF383E
:104F90003046FDF7B7F80028DDD1B8F1000F02DD8B
:104FA000084D0024E9E7B8F1FF3FD4D1054D0024B6
:104FB000E3E700BF90A20008B0A20008E89F000845
:104FC00060A20008A49F000808B50138052870D821
:104FD000DFE800F0031527394B5D374B374A1A607D
:104FE000374B384A1A60384B384A1A602420384BFD
:104FF0001860FCF7D9FF374B1860012008BD2E4B15
:10500000354A1A602E4B354A1A602F4B344A1A60C3
:1050100025202F4B1860FCF7C7FF2E4B186001208E
:10502000ECE7254B2F4A1A60254B2F4A1A60264B76
:105030002E4A1A602020264B1860FCF7B5FF254B3E
:1050400018600120DAE71C4B294A1A601C4B294AD8
:105050001A601D4B284A1A6021201D4B1860FCF76E
:10506000A3FF1C4B18600120C8E7134B234A1A60AA
:10507000134B234A1A60144B224A1A602320144B04
:105080001860FCF791FF134B18600120B6E70A4B3C
:105090001D4A1A600A4B1D4A1A600B4B1C4A1A60C3
:1050A00022200B4B1860FCF77FFF0A4B1860012091
:1050B000A4E70020A2E700BF740D0020480B0020E9
:1050C000700D0020380B00206C0D0020400B0020DC
:1050D000A80D0020AC0D0020F80B0020E80B0020EC
:1050E000F00B0020080C0020A80B0020B00B0020C3
:1050F000A00B0020800B0020880B0020780B0020E4
:10510000680B0020700B0020600B0020500B00206B
:10511000580B002070B500240FE0174B1B689988CE
:10512000186802F06AFC154B1B689988186802F031
:1051300062FC134B00221A702C46052C1BDC651CEC
:105140002846FFF741FFB0B10E4B53F82430002B37
:10515000E3DD094E33689988186802F054FC306822
:10516000FCF700F90028E7D0064A52F82430013B4A
:1051700042F82430E0E770BD6C0D0020700D002077
:105180008C0D0020900D00202DE9F04104460D46C5
:10519000FFF71AFF38B1254B1B7823B9013C244B8C
:1051A00053F824300BB1BDE8F081224B1878FCF79E
:1051B000FBFE06465FFA80F8FF220021284601F038
:1051C00081F80546C7B2B84518D3B845EBD91A4B94
:1051D0001B689988186802F010FC184B1B689988A6
:1051E000186802F00AFCE9B2F6B2761A104B43F8DE
:1051F0002460104B1878FCF7F9FED4E70E4B1B68BF
:105200009988186802F0F9FB0C4B1B68998818689C
:1052100002F0F1FB39464346FB1A054A42F82430B6
:10522000044B1878FCF7E2FECFE700BF8C0D00209E
:10523000900D0020A80D0020700D0020740D00209E
:10524000F8B5134B01221A700024052C1EDC651CD6
:105250002846FFF7B9FEC8B10E4F002647F8246074
:105260000D4B1B689988186802F0C7FB0B4B1B6835
:105270009988186802F0C1FBFF2347F824303146B3
:10528000074B1878FCF7B2FE2C46DEE7F8BD00BFEE
:105290008C0D0020900D0020700D0020740D00205A
:1052A000A80D002008B5054B9988186802F0A3FBEB
:1052B00000212620FCF79AFE08BD00BF180B002035
:1052C00008B5054B9988186802F097FB0121262044
:1052D000FCF78CFE08BD00BF180B002008B5094B79
:1052E0001B784BB90146052809D8074B18601B20CD
:1052F000FCF77CFE002008BD4FF0FF30FBE74FF0CD
:10530000FF30F8E7800D0020880D0020F8B55C4BD9
:105310001E68304604F014F805460224012700E018
:105320000134052C0ADC574B53F82400301A04F0E2
:1053300007F88542F4DD05462746F1E7524B1F602A
:10534000524B1B7833BB524B1B68002B42D04D4A4B
:1053500052F82340A41B204603F0F2FF0A287DDD0B
:1053600002F088FD4B4B1B68B34244D0494B1E6092
:10537000494B1860002C63DD484B01221A70484BE2
:105380009988186802F037FB464B9988186802F034
:1053900034FB2FE002F06EFD3E4B1B68B34204D09D
:1053A0003C4B1E603C4B186024E03B4B1B68C01A12
:1053B00063281FD93A4B9988186802F01EFB394BB5
:1053C0009988186802F019FB00232D4A13602F4AB0
:1053D00013700FE0324B9988186802F00EFB314BC6
:1053E0009988186802F009FB2A4B1E6002F042FD02
:1053F000294B1860F8BD284B1B68C01A6328B9D91F
:10540000274B9988186802F0F8FA264B9988186893
:1054100002F0F3FA1E4B1B68012B06D0052B0BD1B3
:10542000174B40F2B6321A6002E0154B00221A60A8
:10543000174B00221A60DDE70A20FDF703FEF7E7AD
:10544000164B00221A70164B9988186802F0D5FA8C
:10545000144B9988186802F0CEFACBE7104B998864
:10546000186802F0CAFA0F4B9988186802F0C5FA5A
:10547000084B1E6002F0FEFC074B1860BAE700BF45
:10548000AC0A0020D4A40008840D0020800D002068
:10549000880D0020780D00207C0D00206A0A002075
:1054A000980B0020900B0020014B1868704700BF3C
:1054B000840D002008B50D4B01221A7000230C4A00
:1054C00013600C4A13700C4B9988186802F095FA17
:1054D0000A4B9988186802F08EFA02F0CBFC084B50
:1054E0001860084B1A68084B1A6008BD800D002030
:1054F000880D00206A0A0020980B0020900B0020E5
:105500007C0D0020AC0A0020780D0020CBB203EB0C
:105510001123002203E0815C0B449BB20132062A76
:10552000F9DDD8B27047000008B559B101228240B8
:1055300009490B7813430B70074B19784020FCF78F
:1055400055FD08BD01238340DB435BB202490A7865
:1055500013400B70F0E700BFBE0D002030B583B0E4
:1055600005460820FCF720FD04463D20FCF71CFD05
:105570008DF8000003128DF801308DF802402412DE
:105580008DF8034000238DF80430984211DD01238B
:105590008DF8053000238DF806308DF807302B6824
:1055A0005C6808236A4640F2A1212846A04703B060
:1055B00030BD0023ECE7000010B504460920FCF7DD
:1055C000F3FC01280ED002280ED002F053FC9528DF
:1055D0000CD9094B53F8243053B1C01A322809D9D9
:1055E000012002E0012000E0002010BD0020FCE7C7
:1055F0000120FAE70020F8E7C00D002070B582B066
:1056000004460120FFF7D8FF054660B140F2FF13C2
:1056100000930023019323685E6802236A4640F2E8
:10562000D1212046B04729460120FFF77DFF02B077
:1056300070BD000070B582B0044689238DF800303B
:1056400042238DF8013072238DF8023085238DF8C6
:10565000033001238DF804302C238DF80530134BD3
:105660001B781B0143F002038DF8063040F2A13194
:105670006846FFF74BFF8DF807000320FFF79CFFFC
:10568000054638B123685E6808236A4640F2A131B6
:105690002046B04729460320FFF746FF034A137808
:1056A000013303F00F03137002B070BDBB0D002077
:1056B00070B582B004460220FFF77EFF054660B158
:1056C000094B6A4693E80300CDE9000123685E6850
:1056D000082340F221312046B04729460220FFF737
:1056E00023FF02B070BD00BFF8A4000870B582B0FF
:1056F0000446002300930193264B1B789BBB412358
:105700008DF8003001238DF8013005238DF802302B
:10571000214B1B781B018DF8063040F22121684691
:10572000FFF7F4FE8DF807000020FFF745FF054660
:1057300038B123685E6808236A4640F2212120467A
:10574000B04729460020FFF7EFFE124A1378B3FA5C
:1057500083F35B091370104A1378013303F00F03CE
:10576000137002B070BD40238DF8003041238DF8D6
:10577000013005238DF8023015238DF803305023B6
:105780008DF80530044B1B781B0143F001038DF8A5
:105790000630C2E7BD0D0020BC0D002070B582B000
:1057A00004462D4B1B78002B3BD103238DF8003092
:1057B00019238DF8013064228DF8022032228DF8F1
:1057C00003208DF8043000238DF80530234B1B781F
:1057D0001B018DF8063040F245516846FFF796FEF2
:1057E0008DF807000420FFF7E7FE054638B123686F
:1057F0005E6808236A4640F245512046B047294674
:105800000420FFF791FE144A1378B3FA83F35B097F
:105810001370124A1378013303F00F03137002B0B0
:1058200070BD14238DF8003000238DF801303F2324
:105830008DF8023070238DF803309F238DF80430EB
:1058400001238DF80530054B1B781B0143F00A033B
:105850008DF80630BFE700BFBA0D0020B90D00205B
:105860002DE9F843044602F005FB324B186021781D
:105870006278130203F4E0631943A3785F0107F42D
:10588000787747EAD207E578ED0045EA531594F8B2
:1058900004806279130203F4807348EA0308A6794E
:1058A000F60106F4F06646EA520694F8079009F00D
:1058B0000F0901EB810149003C20FCF797FB3846BA
:1058C00003F0DEFA1C4903F02FFB01463E20FCF7F3
:1058D0009BFB404603F0D4FA174903F025FB014631
:1058E0004420FCF791FB304603F0CAFA4FF07C519C
:1058F00003F01AFB01464320FCF786FB4946412092
:10590000FCF774FBE179C9094220FCF76FFB05EB5A
:10591000850569003F20FCF769FBB9F1030F04D04E
:10592000B9F10F0F01D0BDE8F8830220FDF78AFB23
:10593000F9E700BFD80D0020CDCCCC3D03780A2B71
:1059400000D0704710B504460379417943EA01213C
:105950004520FCF74BFBA379E17943EA012146207E
:10596000FCF744FB10BD000010B504464178472009
:10597000FCF73CFB617928394820FCF737FBA1791B
:1059800028394920FCF732FB637813F0010F03D16B
:10599000094B00221A6010BD02F06CFA064B1B681E
:1059A00013B9054B1860F6E7C01A6428F3D9012033
:1059B000FDF748FBEFE700BFD40D002010B5002431
:1059C000042C0BDC064B33F81430834201D0013435
:1059D000F6E702F04FFA034B43F8240010BD00BF76
:1059E000ECA40008C00D002010B50446124B1B6843
:1059F00083B92046FFF7B2FD2046FFF7FFFD2046A2
:105A0000FFF718FE0D4A13780133DBB21370092B30
:105A10000BD810BD02F02EFA074B1B68C01A3128B4
:105A2000E7D90120FDF70EFBE3E7134600221A70C9
:105A30002046FFF73DFEECE7D80D0020B80D002012
:105A400010B50446FFF752FE2046FFF7A7FE10BD33
:105A500008B56422002100F035FC00EB8000410015
:105A60003D20FCF7C3FA08BD10B5044601463720B7
:105A7000FCF7BCFA64220021204600F023FC4CF223
:105A8000503300220249C0B200F026FC10BD00BF16
:105A90000008004010B5044601463920FCF7A6FA7C
:105AA00064220021204600F00DFC4CF2503302220B
:105AB0000249C0B200F010FC10BD00BF0008004059
:105AC00008B5074B1B6843B1054B186803F0D4F9C0
:105AD0000146044803F0DCFA08BD0020FCE700BFE3
:105AE000A80A0020C0E1E44B08B5074B1B6843B18E
:105AF000054B186803F0C0F90146044803F0C8FAE2
:105B000008BD0020FCE700BFA40A0020C0E1E44B70
:105B100010B502F0AFF90446164B1B7823B1154BB4
:105B200000221A70144B1860144B1B7823B1134BCE
:105B300000221A70124B1C603720FCF735FA05283A
:105B400004DD0D4B1B68E31AC72B0AD83920FCF77C
:105B50002BFA052804DD0A4B1B68E41AC72C04D86D
:105B600010BD0820FDF76EFAF0E70920FDF76AFA8C
:105B7000F6E700BFA20A0020B40D0020A10A002011
:105B8000B00D002010B504460A4903F07FFB50B960
:105B90000949204603F07AFB38B90849204603F04A
:105BA00075FB20B910BD0320FCE70220FAE70120B5
:105BB000F8E700BF0000E4410000B04100003841B8
:105BC00008B5022300221146074801F0DFFE07480E
:105BD00001F0F0FA054801F0AFFA0028FAD00348C6
:105BE00001F0AEFA80B208BD000C0140002801406F
:105BF00010B50446022300221946074801F0C6FEEC
:105C000024B10221044801F0F6FE10BD0221024831
:105C100001F0F3FEF9E700BF000C014000000000B6
:105C200038B500242C4D22462B462C4800F0B4FCFD
:105C300022462B462A4800F0AFFC22462B46294834
:105C400000F0AAFC22462B46274800F0A5FC22467D
:105C50002B46264800F0A0FC22462B46244800F0A4
:105C60009BFC22462B46234800F096FC22462B46FE
:105C7000214800F091FC16A3D3E900231F4800F04F
:105C80008BFC22462B461E4800F086FC22462B4603
:105C90001C4800F081FC22462B461B4800F07CFC8F
:105CA00022462B46194800F077FC22462B4618481E
:105CB00000F072FC22462B46164800F06DFC22468E
:105CC0002B46154800F068FC38BD00BFAFF30080DC
:105CD000333333333333D33F0000E03F580F0020DA
:105CE000400F0020280F0020100F0020F80E002089
:105CF000E00E0020C80E0020B00E0020980E0020FC
:105D0000800E0020680E0020500E0020380E00206B
:105D1000200E0020080E0020F00D002038B502F003
:105D2000A9F804462F4B1B78012B0BD0022B17D060
:105D30003BB90020FFF75CFF2B4B1C60294B012275
:105D40001A7038BD284B1B68C31A632BF9D9012080
:105D5000FFF74EFF244B1C60224B02221A70F0E723
:105D6000FFF72EFF204B1D68651B40F2DB53984266
:105D700001D8632D31D90020FFF73AFF1A4B1C6080
:105D8000184B01221A70284603F076F8174903F0E1
:105D9000CBF8174903F07CF9164903F0C5F816490A
:105DA00003F0C2F802F0F8FC02460B46134800F07C
:105DB00000FC02F05BFF0546FFF7E4FE04462946BF
:105DC0003120FCF721F921463020FCF70FF9012C96
:105DD000B7D80720FDF736F9B3E70120FFF708FF32
:105DE000AFE700BFE40D0020E00D00200AD7233C00
:105DF00000401C460024744985EB513F980E00205A
:105E00002DE9F04F87B0B548FDF720F8039003F077
:105E100033F80646B248FDF719F8049003F02CF861
:105E20000546B048FDF712F8059003F025F807463F
:105E30004FF000094FF08B48DFF8ACB2AB4C236851
:105E400000934B4642465946304600F01FFA06463C
:105E5000DFF89CA2DAF8003000934B464246A54991
:105E6000284600F013FA0546236800934B46424645
:105E70005946384600F00AFA0746206803F01AFA35
:105E80008046304603F016FA4246002100F01AFA26
:105E900002F0F6FF0646DAF8000003F00BFA80463F
:105EA000284603F007FA4246002100F00BFA02F000
:105EB000E7FF0546206803F0FDF90446384603F085
:105EC000F9F92246002100F0FDF902F0D9FF04465D
:105ED000304602F061FC02460B46874800F069FB41
:105EE00002F0C4FE01462720FCF78EF8284602F097
:105EF00053FC02460B46814800F05BFB02F0B6FE05
:105F000001462820FCF780F8204602F045FC0246B6
:105F10000B467B4800F04DFB02F0A8FE014629200D
:105F2000FCF772F87748FCF791FF042100F0C0FA03
:105F300004467548FCF78AFF042100F0B9FA0546CB
:105F40007248FCF783FF042100F0B2FA80467048E3
:105F5000FCF77CFF062100F0ABFA82466D48FCF7A7
:105F600075FF062100F0A4FA83466B48FCF76EFF2C
:105F7000062100F09DFA8146204602F00DFC024603
:105F80000B46664800F015FB06460F46644B186842
:105F900002F002FC02460B463046394602F09CFAFB
:105FA00002F064FE01462A20FCF72EF8284602F093
:105FB000F3FB02460B465B4800F0FBFA06460F4631
:105FC000594B186802F0E8FB02460B46304639464A
:105FD00002F082FA02F04AFE01462B20FCF714F888
:105FE000404602F0D9FB02460B46504800F0E1FA69
:105FF00006460F464E4B186802F0CEFB02460B4693
:106000003046394602F068FA02F030FE01462C2094
:10601000FBF7FAFF474B1B7853B3474B1B78002B1A
:1060200041D0484602F0B8FB02460B46434800F018
:10603000C0FA02F01BFE01462F20FBF7E5FF039A92
:10604000052A40F2858040F6F9739A4200F2CB802F
:10605000049A052A40F2C9809A4200F2C880059A43
:10606000052A40F2C6809A4200F2C580002670E000
:10607000504602F091FB02460B46314800F099FA77
:1060800006460F462F4B186802F086FB02460B4669
:106090003046394602F020FA02F0E8FD01462D2094
:1060A000FBF7B2FFB9E7584602F076FB02460B4613
:1060B000254800F07EFA06460F46244B186802F089
:1060C0006BFB02460B463046394602F005FA02F0F9
:1060D000CDFD01462E20FBF797FFA2E7240C002000
:1060E000400C00203C0C002000801344780A002063
:1060F0007C0A00200000B943580F0020400F002008
:10610000280F0020300C00202C0C0020280C002030
:10611000340C00201C0C0020380C0020100F002034
:10612000740A0020F80E0020700A0020E00E002003
:106130006C0A0020720F0020710F0020200E00203A
:10614000C80E0020EC0D0020B00E0020E80D00204D
:1061500001264649204603F08FF800284DD14449D6
:10616000204603F093F800285DD14049284603F00B
:1061700083F8002859D13E49284603F087F80028C3
:1061800055D13A49404603F077F8002851D13849B3
:10619000404603F07BF800284DD13649504603F0C5
:1061A0006BF8002849D13449504603F06FF80028B5
:1061B00045D13049584603F05FF8002841D12E49B7
:1061C000584603F063F800283DD12A49484603F0B9
:1061D00053F8002839D12849484603F057F80028D9
:1061E00035D100240AE00126B3E70126B1E70126F4
:1061F000AFE70126ADE70126ABE701244EB31F4B05
:106200001B8801339BB21D4A1380132B23D834B350
:106210001B4B1B8801339BB2194A1380132B20D8C8
:1062200007B0BDE8F08F0124E8E70124E6E7012488
:10623000E4E70124E2E70124E0E70124DEE70124AA
:10624000DCE70124DAE70124D8E70124D6E70124BA
:10625000D4E70023D7E70520FCF7F4FED7E70023B7
:10626000DAE70620FCF7EEFEDAE700BF0000F0C137
:106270000000DC42000020C20000F042DE0D0020E1
:10628000DC0D002008B5FFF7CBFC08BDF8B50F46C4
:1062900016461C4602F03EFD05462146069802F0D1
:1062A00039FD0146284602F03FFE05463946304694
:1062B00002F030FD0146284602F0EAFE214602F0D7
:1062C0002BFDF8BD904202DC884202DB704710468D
:1062D000704708467047000038B5844608461146A6
:1062E0001A46BCF1640F01D94FF0640C531CACFB8F
:1062F00003C3CCF3130E4FEA1C5444EA0334C4F333
:106300001304A644C3F31324A6440EEB137E104CCF
:10631000A4FB0E54E40804EB840404EB8404AEEB09
:10632000040EBCEB0E0C63F100040A4D0A4B03FB98
:106330000CF305FB0433ACFB05C52B444FEA9C0C66
:106340004CEA837C624500D3624601F04AFF38BDC7
:106350001F85EB51295C8FC2F5285C8F10B5044670
:1063600001F088FD1D4B186021783220FBF73EFEBE
:1063700061783320FBF73AFEA1783420FBF736FE34
:10638000E1783520FBF732FE2079431EDBB2FD2B8E
:1063900094BF01220022124B1A700AD96079431E61
:1063A000DBB2FD2B94BF012200220E4B1A700AD9DA
:1063B00010BD02F061FD0C4902F0ACFC01462D203D
:1063C000FBF722FEEAE702F057FD074902F0A2FCC4
:1063D00001462E20FBF718FEEAE700BF740F0020ED
:1063E000720F0020710F002000002042F0B583B032
:1063F00007460026009601964A20FBF7D5FD00F0DF
:1064000003054120FBF7D0FD04461C20FBF7CCFD23
:10641000A30003F03C032B4343EA80138DF80030C4
:10642000344601E00134E4B20F2C12D82046FCF7C8
:106430002FFE05462046FCF73DFE0028F2D0002D39
:10644000F0D0102DEED8013D0123AB4033439EB276
:10645000E8E78DF80160360A8DF802601F20FBF72F
:10646000A3FD8DF803003F20FBF79EFD00F13203F2
:106470000D4880FB0320DB17FF220021C3EB6010D7
:10648000FFF720FF8DF80400084A1378591C11709B
:106490008DF805303B685C6806236A4640F2E1618E
:1064A0003846A04703B0F0BD1F85EB51700F0020A8
:1064B00006296CD82DE9F0470C46002635463CE00D
:1064C00080454DDB50E0012F29D0A0EB080002F001
:1064D000D7FC8146012F28D0A6EB080002F0D0FCA3
:1064E0000646DFF8B0A0670004EB44030AEB830321
:1064F00093F80480404602F0C3FC494602F014FDC4
:10650000314602F0C5FD064627443AF9270005FB4F
:10651000080002F0B5FC314602F0FCFB35E0A8EBC8
:10652000000002F0ADFC8146D4E7A8EB060002F0C3
:10653000A7FC0646D5E70135464604EB4402154B59
:1065400003EB82035B79AB4218D904EB4402114B95
:1065500003EB82039A6832F815809F79012FAFD040
:10656000002FE8D18045E6DC002DACD104EB4404DB
:10657000084B33F9240002F083FC06E0054B03EBE3
:106580008203B3F9020002F07BFCBDE8F087002033
:10659000704700BF00A5000830B400240025C0E902
:1065A0000045C0E9024500240474C0E9022330BC60
:1065B00070472DE9D043044610461946237CCBB1E1
:1065C000D4E90289D4E9006732463B4601F084FFF2
:1065D00002460B464046494602F036F902460B4653
:1065E0003046394601F07AFFC4E90001D4E90001E0
:1065F000BDE8D083C4E9000101232374F6E770B538
:1066000015461C465A2B02D84F2C1AD970BD0720AC
:10661000FBF7CAFC06462B20FBF7C6FC301A02F03B
:106620002FFC4FF0804102F03BFE0028ECD02B788D
:10663000053BDAB213F0800F01D02A70E6E7802222
:10664000FBE70220FBF7B0FC04462D20FBF7ACFC77
:10665000201A02F015FC4FF0804102F021FE0028C4
:10666000D4D02B7805332B70D0E770B50D46144687
:106670005A2A02D84F2C19D970BD2A20FBF794FC56
:1066800006460620FBF790FC301A02F0F9FB4FF0AB
:10669000804102F005FE0028ECD02B78053BDBB2F0
:1066A000272B01D92B70E7E72823FBE72D20FBF7E9
:1066B0007BFC04460320FBF777FC201A02F0E0FB8A
:1066C0004FF0804102F0ECFD0028D5D02B78053347
:1066D0002B70D1E770B5044600230360C0F8033087
:1066E0003320FBF777FC20703420FBF773FC6070DD
:1066F0003220FBF76FFCA0702D20FBF755FC054600
:106700000220FBF751FCA84242DD484B01221A70DF
:10671000464B1B78E3700320FBF746FCA8424DDA9A
:10672000434B01221A70424B1B7823712E20FBF73A
:106730003BFC05460520FBF737FCA84254DA3D4BED
:1067400001221A703B4B1B7863710022A271A27860
:10675000002A5FD00122217900295DD002210A435D
:10676000002B5BD0042313432278002A58D0082240
:106770001A436378002B55D010231343E278002A84
:1067800052D0202119431F20FBF730FC204670BD5A
:10679000284602F075FB06460220FBF705FC02F0D6
:1067A0006FFB254902F0B8FA0146304602F078FD49
:1067B0000028ADD01D4B00221A70A9E7284602F030
:1067C0005FFB05460320FBF7EFFB02F059FB1A497C
:1067D00002F0A0FA0146284602F044FD0028A2D0AB
:1067E000134B00221A709EE7284602F049FB05462B
:1067F0000520FBF7D9FB02F043FB0F4902F08AFAB0
:106800000146284602F02EFD00289BD0094B0022AD
:106810001A7097E700229EE70021A0E70023A2E775
:106820000022A5E70023A8E70021ABE77A0F0020AC
:10683000790F0020780F00200000A040F8B507462F
:106840000C4615462F20FBF7AFFB02F019FB06465E
:106850002D20FBF7A9FB02F013FB8446FA7882F0A7
:106860000102012323602271A0604FF0000EC4F8E2
:106870000CE023746661084A183407CA84E80700EC
:106880003A795A402B602A71C5F808C0C5F80CE067
:106890002B746E61F8BD00BF8CA700082DE9F0478E
:1068A00007460D460024DFF86490264605E01849A7
:1068B00002F030FA824616E00134022C1CDC04EBB4
:1068C00044034FEA830805EB83031A79002AF3D0C7
:1068D0009968384602F01EFA824655F808800D4B3A
:1068E0001B689845E3D05146484602F0D9FC002881
:1068F000E2D0D1464646DFE7064B1E6031461E20F9
:10690000FBF774FB3046BDE8F08700BFFFFF7F7FD9
:106910000000A040840A00202DE9F04707460D46FC
:1069200000246FF40009264605E0174902F0F4F947
:10693000824616E00134012C1CDC04EB44034FEAD0
:10694000830805EB83031A79002AF3D09968384647
:1069500002F0E0F9824655F808800C4B1B68984518
:10696000E3D05146484602F07DFC0028E2D0D146F3
:106970004646DFE7054B1E6031461D20FBF736FB20
:106980003046BDE8F08700BF0000A040800A00202C
:106990002DE9F04106460D46964B1B7873B9954B91
:1069A00001221A700146284602F0B4F9924B186091
:1069B000924B934A1A60934B934A1A602820FBF734
:1069C000FBFA04462920FBF7F7FA07468F492046D1
:1069D00002F066FC90B94FF07E51384602F042FC5E
:1069E00080B98A49204602F05BFC88B94FF07E519D
:1069F000384602F037FC48B900270AE00320FCF7CC
:106A000021FBE8E70420FCF71DFBEAE7012700E093
:106A100001273146284602F07DF90446764E31685A
:106A200002F078F94FF0814102F07EFA054678498C
:106A3000204602F079FA774902F076FA01462846B4
:106A400002F06AF9054600F100483460724902F02C
:106A500009FC40B94FF08141284602F021FC20B1E9
:106A6000DFF8B48101E04FF08148644D2968404669
:106A700002F052F92860694902F0F4FB08B1674A54
:106A80002A6067495D4B186802F00AFC10B15B4B45
:106A9000634A1A6017B35B4B00221A60614F624B66
:106AA0001E683946304602F037F90446554B1D68DA
:106AB000294602F0D7FB002800F08B805A4B1C605F
:106AC000594B186802F01CFCC0B2FEF7C1FF4B4BDB
:106AD000186802F015FCC0B2BDE8F0814FF08041AB
