:020000040800F2
:1010000000500020AD7B0008A97B0008A77B0008EA
:10101000A77B0008A77B0008A77B00080000000052
:10102000000000000000000000000000A97B000894
:10103000A97B000800000000A97B0008A97B00082C
:10104000A77B0008A77B0008A77B0008A77B0008F8
:10105000A77B0008A77B0008A77B0008A77B0008E8
:10106000A77B0008A77B0008A77B0008A77B0008D8
:10107000A77B0008A77B0008A77B0008A77B0008C8
:10108000A77B0008A77B0008A77B0008B1360008F3
:1010900091360008A1360008A77B000875140008E7
:1010A000A77B0008A77B0008A77B0008A77B000898
:1010B000A77B000865140008AD140008A77B000892
:1010C000A77B0008A77B0008A77B0008A77B000878
:1010D000A77B0008A77B0008A77B0008A77B000868
:1010E000A77B0008A77B0008A77B0008A77B000858
:1010F000A77B0008A77B0008A77B0008A77B000848
:10110000A77B0008A77B0008A77B0008A77B000837
:10111000A77B0008A77B0008A77B0008A77B000827
:10112000A77B0008A77B0008A77B0008A77B000817
:10113000A77B0008A77B0008A77B0008DF36000814
:10114000BF360008CF360008A77B0008A77B000841
:1011500008B58446084611461A46DCF8043098471C
:1011600008BD08B58368984708BD00B54FF0000C6E
:10117000E64604E000BF1CF1010C4EF1000E4B01ED
:1011800043EAD0634201121A63EB01039B0043EA76
:1011900092739200121841EB03031B0143EA12738E
:1011A000120194457EEB0303E4DB00BD10B506F0AD
:1011B0002FF81D4B186800F0B0FE07F05FFA1B49CE
:1011C00007F064FB0146502000F012FF184801F0C0
:1011D00051FE07F04FFA174907F058FB01464F2020
:1011E00000F006FF06F042FA01F03AFF124C2068C8
:1011F00005F0B8F9206804F03FFC04F05DFE05F04E
:10120000BCFA0E4B186802F007FB0D4B1B782BB98C
:101210000B4A137883F00103137010BD094B9988B2
:10122000186805F0ECFFF3E7F80A00200000204101
:101230005C0C002000004B43F40A0020F00A002060
:10124000D80A0020F40B002008B5024B186804F0FF
:101250003FFC08BDF40A002008B503F09FFF08BD5D
:1012600008B5034640F22132904223D008460BD9FC
:1012700040F2455293421DD025D840F26632934247
:101280001CD104F0A3FB23E040F2C722934221D0FB
:10129000B3F5327F0AD240F2212293420AD040F2C3
:1012A000A722934214D104F027FB11E040F2D1228F
:1012B00093420DD1184604F0C9FB09E040F2A13277
:1012C000934205D1F6E7B3F5DC6F01D105F010F9D3
:1012D000002008BD04F090FBFAE7000010B51C4C9C
:1012E00000224FF4DC61206802F027FA002240F26D
:1012F000A721206802F021FA002240F2C7212068CD
:1013000002F01BFA002240F26631206802F015FA62
:10131000002240F22121206802F00FFA002240F260
:10132000D121206802F009FA002240F22131206820
:1013300002F003FA002240F2A131206802F0FDF928
:10134000002240F24551206802F0F7F910BD00BFBD
:10135000F40A002010B504468188006805F04CFFAF
:10136000003818BF0120A379181A18BF012010BD3A
:1013700008B5214B1B6833B106F078F91E4B1B688A
:10138000C01AC7281BD91D48FFF7E4FF01463520C6
:1013900000F020FE1A48FFF7DDFF0146362000F07E
:1013A00019FE1848FFF7D6FF0146342000F012FE60
:1013B0001548FFF7CFFF0146372000F00BFE04F081
:1013C000C7FB07F075FB0146382000F003FE04F070
:1013D000D3FB07F06DFB01463A2000F0FBFD04F063
:1013E000DFFB03F0DBFF04F0A7F80146192000F053
:1013F000F1FD04F0EDFC08BD541000205C0B002052
:101400006C0B0020640B00203C0C0020FEE7000069
:1014100010B515280CD0162816D040B9104B1B68F3
:101420001C4600F0C1FDC1B2204602F09BFF10BD7A
:10143000152000F0B9FD0028F9D003F049FF002184
:10144000152000F0C7FDF2E7162000F0ADFD0028E2
:10145000EDD004F077F80021162000F0BBFDE6E7A0
:10146000EC0A002008B5024B186800F01DFD08BD0D
:10147000F80A002008B54FF4807005F07FFD50B1E8
:10148000084B1B7843B1084A1368013313604FF4CB
:10149000807005F06DFD08BD034A1368013B1360C1
:1014A000F5E700BFAA0A0020E40A002008B50821D9
:1014B000214806F03DF928B910211F4806F038F9F7
:1014C000E8B908BD02211C4806F09DFA1B4B1B68B9
:1014D0003BB183420CD8C31A194A1360194B01223D
:1014E0001A70164B18600821134806F027F9E3E735
:1014F000C31A03F543435033114A1360EEE7032147
:101500000D4806F080FA104B1B683BB183420CD8A3
:10151000C31A0E4A13600E4B01221A700A4B186050
:101520001021054806F00AF9CBE7C31A03F5434337
:101530005033064A1360EEE700080040D40A00204A
:10154000E00A0020DA0A0020D00A0020DC0A00208D
:10155000D90A0020F0B5ADF61C0D00F05DFA00F0E0
:1015600021FBD24E00223146D14801F0C7FC0122B6
:101570003146D04801F0C2FC02223146CE4801F08B
:10158000BDFC03223146CD4801F0B8FC04223146AF
:10159000CB4801F0B3FC05223146CA4801F0AEFC4D
:1015A000C94D00222946C94801F0A8FCC84C0022B8
:1015B0002146C84801F0A2FC01222146C64801F09C
:1015C0009DFC02222146C54801F098FC03222146D9
:1015D000C34801F093FC04222146C24801F08EFC6E
:1015E00005222146C04801F089FC04234FF4807293
:1015F0003146BE4801F02FF907234FF4004231462F
:10160000BB4801F028F9002304222946B94801F01B
:1016100022F9072308222946B74801F01CF90723BD
:1016200010222946B54801F016F907232022294641
:10163000B34801F010F9092340222946B14801F0CE
:101640000AF9092380222946AF4801F004F904234E
:101650004FF480722946AD4801F0FDF804234FF4A1
:1016600000722946AA4801F0F6F809234FF40062F7
:101670002946A84801F0EFF807234FF48042294695
:10168000A54801F0E8F807234FF480622146A348FB
:1016900001F0E1F807234FF400622146A04801F071
:1016A000DAF807234FF4805221469E4801F0D3F820
:1016B00007234FF4005221469B4801F0CCF8072342
:1016C0004FF480422146994801F0C5F804F5806442
:1016D000072301222146964801F0BDF80723022284
:1016E0002146944801F0B7F8072304222146924886
:1016F00001F0B1F8072308222146904801F0ABF829
:101700000723102221468E4801F0A5F80723202246
:1017100021468C4801F09FF80723402221468A4841
:1017200001F099F8072380222146884801F093F8B8
:1017300004F58064072304222146854801F08BF8D4
:10174000072308222146834801F085F80723102249
:101750002146814801F07FF800234FF48072214632
:101760007E4801F078F800234FF4007221467C484F
:1017700001F071F800234FF480622146794801F0AE
:101780006AF807234FF400622146774801F063F8B6
:1017900001F0E8FA00F0FCFA00F094F900F0DAF950
:1017A00001F030FC00F008FA0DF2EC54012601962D
:1017B000009600236D4A6E49204600F0BDFC6D4B3B
:1017C0001C600DF5BC656C4BCDF8E0356B4BCDF86E
:1017D000E0356B4BCDF8E4356A4BCDF8E835E1AC3C
:1017E000002302226849204601F098FE674B1C60E6
:1017F0002946204601F092FFFFF770FD32AD3246D8
:101800002146284602F022FD614F3D60614B1D607C
:101810000FAE2A462146304602F072FD5E4B1E6036
:10182000002000F0C1FBC1B2304602F09BFD3A68D7
:101830005A4B1A605A4D05AC2946204600F0DAFA98
:10184000584B1968C1F35911574BA3FB0131890952
:101850000139284605F093FF544B1C60032254497C
:10186000204600F0EBFA14225249204600F0E6FA36
:1018700064225149204600F0E1FAC8224F4920462F
:1018800000F0DCFA00214D2000F0A4FB5120FFF70E
:10189000BFFD0A200021FFF768FC03F019FD64205A
:1018A0000021FFF762FC03F04DFE9DE000080140BF
:1018B000880C0020840C0020800C00207C0C002070
:1018C000780C0020740C0020000C0140700C0020EB
:1018D000001001406C0C0020680C0020640C0020FB
:1018E000600C00205C0C0020580C00204C0C0020E8
:1018F000440C00203C0C0020340C00202C0C002058
:10190000240C00201C0C0020140C00200C0C0020C7
:10191000040C0020FC0B0020F40B0020EC0B00203A
:10192000E40B0020DC0B0020D40B0020CC0B0020AB
:10193000C40B0020BC0B0020B40B0020AC0B00201B
:10194000A40B00209C0B0020940B00208C0B00208B
:10195000840B00207C0B0020740B00206C0B0020FB
:10196000640B00205C0B0020540B0020249B00081B
:1019700000380140E80A00200C8B00081C8B00088E
:1019800061120008DD12000800640040F40A002023
:10199000F00A0020F80D0020EC0A0020F40D0020D1
:1019A00000040040C80A0020632D3E05F80A00200C
:1019B000591200087113000849120008AD110008FF
:1019C0001C4619E004300DF10B0103F0BDF85CB1C9
:1019D00003AB94E8030083E80300204602F03AFFDB
:1019E00021460FA802F0E7FC00228DF80B209DF89D
:1019F000C430002BE4D02FAC054B186800F086FDF6
:101A0000044B18684369002BE1D10028DAD1DAE7EA
:101A1000E80A0020EC0A002008B5274805F046FD3A
:101A20004FF0E023254AC3F80C2D40F2023005F0B8
:101A30009BFD40F2033005F097FD4FF4417005F037
:101A400093FD40F2053005F08FFD40F2063005F0C1
:101A50008BFD40F20E3005F087FD40F20B3005F0B3
:101A600083FD4FF4607005F07FFD40F2813005F09A
:101A70007BFD40F2823005F077FD4FF4207005F0D9
:101A800073FD40F2093005F06FFD40F20A3005F0B9
:101A90006BFD40F2862005F067FD4FF4407005F0C5
:101AA00063FD40F2993005F05FFD054A536843F449
:101AB0000073536008BD00BFE09F00080003FA05F3
:101AC0000000014030B597B005F094F900F5FF35FE
:101AD00005F2FD15AD0201AC14220021204600F0F4
:101AE000B4FE1A4B01931823ADF8083001238DF88A
:101AF0000A3000228DF80B20154903914FF44071F4
:101B0000ADF810108DF812208DF8133005F056F94D
:101B10001421204605F060F915902B6D834201D108
:101B200017B030BD05F008FB284605F0C1FA0024C7
:101B300007E001AB53F8241005EB840005F016FB19
:101B40000134142CF5D905F003FBE9E7001001403E
:101B5000000C014008B51D2006F094F800211D205E
:101B600006F09CF81E2006F08DF801211E2006F0DC
:101B700095F80B494FF4807005F008FA02214FF4F4
:101B8000807005F0C3F94FF4807005F0E3F9172079
:101B900006F078F80221172006F080F808BD00BF93
:101BA0000008014008B54FF41C71032005F096FDB4
:101BB000002005F065FD08BD38B54FF0804005F008
:101BC000D9FD0A214FF0804005F0D9FD00214FF0EA
:101BD000804005F0BBFD4FF6FF714FF0804005F0EF
:101BE000D0FD4FF0804005F0ACFD674D4FF4006331
:101BF00002221146284605F0C5FA062211464FF08A
:101C0000804005F0C0FD06214FF0804005F081FEC8
:101C100006214FF0804005F096FE06214FF08040EF
:101C200005F0B6FE002206214FF0804005F0D5FEFB
:101C30004FF4806302221146284605F0A3FA0622DB
:101C400004214FF0804005F09EFD04214FF08040BC
:101C500005F05FFE04214FF0804005F074FE042182
:101C60004FF0804005F094FE002204214FF08040A8
:101C700005F0B3FE4FF0804005F077FD4FF4407360
:101C800001220021284605F07DFA404C204605F04F
:101C900071FD8F21204605F072FD4CF25031204637
:101CA00005F06FFD204605F05BFD0F220221204666
:101CB00005F0B8FE05220221204605F0DBFE0022D9
:101CC0000221204605F024FD0221204605F005FFF3
:101CD0000821204605F028FD00220321204605F0BA
:101CE000A1FE06220321204605F0C4FE00220321A6
:101CF000204605F00DFD0321204605F0EEFE1021E3
:101D0000204605F011FD402302221146284605F029
:101D100039FA06220021204605F035FD0021204633
:101D200005F0F7FD0021204605F00DFE00212046BC
:101D300005F02EFE00221146204605F04EFE8023BF
:101D400002221146284605F01DFA062202212046ED
:101D500005F019FD0221204605F0DBFD0221204699
:101D600005F0F1FD0221204605F012FE00220221BD
:101D7000204605F032FE0121204605F03EFE2046B9
:101D800005F0F3FC38BD00BF000C01400008004026
:101D900010B582B009238DF80730154C204604F0A9
:101DA000B3FD204604F0BAFD204604F0CCFD072127
:101DB000204604F094FD0DF107020121204604F0B5
:101DC000C7FD4FF46021204604F062FD204604F078
:101DD0004DFD002301E000BF0133772BFBDD044CF8
:101DE000204604F05FFD204604F06FFD02B010BDF8
:101DF0000028014038B505460C460162084605F04A
:101E0000A0FC204605F0ACFC0A4B1968C1F31A117E
:101E1000094BA3FB0131C9090139204605F0AFFC8C
:101E20004FF6FF71204605F0ACFC00236B6228469C
:101E300038BD00BFC80A0020C55A7C0AF8B5436AFD
:101E4000032B00DDF8BD04460D461646006A05F07A
:101E500091FC636A0122134FF95C206A05F093FC40
:101E6000636A0022F95C206A05F0B7FD636A44F8F2
:101E7000235003F1080106EB860202EB8202920076
:101E800024F8112002219940206A05F04DFC002120
:101E9000206A05F0C5FD206A05F067FC636A01331E
:101EA0006362CFE7248B0008F8B5054600242AE0DA
:101EB0000226A6403146286A05F03AFC40B3286A5B
:101EC00005F09FFD87B22B6A03EB84035A6B04F184
:101ED000080135F811100A445A6355F82430984720
:101EE000286A05F08EFDC01B04F10C0325F81300D1
:101EF0003146286A05F022FC04E00221A140286A4C
:101F000005F01CFC0134032C06DC6B6AA342CFDC19
:101F10006B6AA342F6DCF0E7F8BD014600221046EA
:101F20000FE002F10C0331F813304FF47A7C0CFB14
:101F300003F302F1080C31F81CC093FBFCF31844C6
:101F400001324B6A9342ECDC70470000024B1A6886
:101F5000024BC3F890287047A00A002044010020DB
:101F600008B5C0EBC0020B4B03EB8203DB688B426E
:101F70000EDC084B03EB82031B698B4201DAFF2066
:101F800007E0054B43F82010FFF742FA002000E07D
:101F9000FF2008BD4401002000000020014B53F841
:101FA0002000704700000020024B53F82000401131
:101FB000704700BF0000002008B5054B53F8200013
:101FC00006F05CFB4FF0745106F0ACFB08BD00BF9F
:101FD000000000204901024B43F82010704700BF69
:101FE00000000020014B43F8201070470000002043
:101FF00010B5044608464FF0844106F093FB06F006
:1020000057FD024B43F8240010BD00BF0000002024
:1020100070B506460024074D502C09DC314668682F
:1020200000F072FB10B101341C35F5E7E0B270BD71
:102030005220FCE7440100200023064A502B07DC15
:10204000118B814202D001331C32F7E7D8B27047BE
:102050005220704744010020C0EBC000014B03EB4D
:10206000800070474401002038B50024074D05E08A
:102070006969E0B2FFF7B6FF01341C35502C03DC70
:102080002B8B002BF8D0F3E738BD00BF44010020B4
:10209000014B1954704700BFFC0A0020024A135C30
:1020A0000B431354704700BFFC0A0020024A135C24
:1020B00023EA010313547047FC0A0020014B185C0B
:1020C000704700BFFC0A0020C0EBC000024B03EBCE
:1020D0008003987E704700BF44010020004870478D
:1020E00085BD010008B5FFF731FF08BD08B5202107
:1020F000806805F052FD08BD08B5806805F045FD13
:1021000008BD10B504464368597A586804F0D6FEF5
:10211000636804F12A02597A586804F0E1FE6368A2
:102120008022597A586804F0EBFE6368597A58683F
:1021300004F0BBFE10BD000070B504460D465349C7
:1021400001605349016085600373026101210175DB
:102150004175817500228261C26180F8202042624F
:1021600080F828109DF8101080F829109DF81410A0
:1021700080F82A1247494160032A07D86168086835
:10218000A84203D01C3161600132F5E7424A146075
:10219000002B74D062685069002B73D063681B8B6E
:1021A0000222032104F0EEFF4FF4E131284605F04E
:1021B0009BFC0821284605F0A9FC4FF40051284655
:1021C00005F0ADFC0C21284605F0B5FC00212846A1
:1021D00005F0ABFC0021284605F0B3FC284605F0CD
:1021E000C6FC284605F0C8FC6368197A586804F0F4
:1021F00007FE6368197A586804F04EFE63682E1D66
:102200003246197A586804F062FE63680022197A2F
:10221000586804F01FFE63680022197A586804F0B9
:102220000DFE6368197A586804F020FE6368597AD5
:10223000586804F0E5FD63683246597A586804F03E
:1022400046FE63680022597A586804F003FE63680A
:102250000022597A586804F0F1FD6368597A586889
:1022600004F004FE6368597A586804F01EFE2046A4
:10227000FFF747FF284605F06AFC204670BD6268FC
:10228000D06889E763681B8A8AE700BFA49A0008C0
:10229000B09A0008B49A0008500B002038B50D46DB
:1022A0000469437D3BB1216839B1284600F02CFA1E
:1022B00018B10834F7E71C4601E023680BB120464B
:1022C00038BD1C46FBE738B504460D4601E0002347
:1022D00073B163680222197A586804F0A6FD0028D9
:1022E000F5D194F828300BB10346F1E70123EFE76D
:1022F0006368197A586804F0E1FD6368AAB2197A34
:10230000586804F0FDFD636894F82020D201A832DB
:1023100022440232197A586804F0E2FD636802220E
:10232000197A586804F07CFD6368197A586804F0DB
:10233000BCFD94F82030B3FA83F35B0984F82030B5
:10234000002384F8283038BD10B50446837D73B16E
:102350000A2910D0436A7F2B0DD090F8202000EB83
:10236000C2121A4482F8AA100133436210BD806879
:1023700005F0F2FBFAE794F82030626A04EBC3132D
:10238000134483F8AA10511C2046FFF79CFF00233A
:102390006362EBE710B50C46802A28BF8022114605
:1023A0004FF0000C0AE090F8203014F80CE000EB3D
:1023B000C313634483F8AAE00CF1010C8C45F2D3FB
:1023C000FFF781FF10BD38B505460C46084600F002
:1023D000B2F9024621462846FFF7DCFF38BD00006F
:1023E00010B50446084600F0F9F900F0DEF9237D47
:1023F00083420DD000236375237B0BB36268506961
:102400000BB363681B8B0122002104F0BBFE10BDDF
:1024100001236375237B6BB1626850696BB163689C
:102420001B8B0222032104F0ADFE08492046FFF772
:10243000CAFFECE76268D068F0E763681B8AF0E7E0
:102440006268D068DCE763681B8ADCE78497000871
:1024500030B585B00446084600F0C0F90378302B4B
:1024600013D0322B0ED04FF461231D46637D83B908
:102470002946A06805F038FB0021A06805F04FFB55
:1024800005B030BD0E4B1D46F0E74FF4E1331D465D
:10249000ECE70A22294601A800F05DF90949204627
:1024A000FFF791FF08492046FFF78DFF01A920465D
:1024B000FFF789FF05492046FFF785FFD8E700BFF2
:1024C00010552200C4930008CC930008449A0008D9
:1024D00010B50446084600F081F9037823B1303B7B
:1024E00018BF012384F8293094F8293023B1054915
:1024F0002046FFF768FF10BD03492046FFF763FF42
:10250000F9E700BFDC930008E8930008F8B504463B
:102510004368597A586804F0ECFC0646C0F180051F
:1025200058B92046FFF7EDFD07E05A1CE26123444D
:1025300093F82A10A06805F00FFB94F8293013B126
:10254000E369AB42F1DB0821A06805F026FBE0B9A6
:102550007F2E28DCC6F17F03234493F82A300A2B10
:1025600017D00D2B15D094F82A30212B1BD1A3693D
:10257000CBB12046FFF7C5FD0023E361A3695B688B
:1025800004F5D571204698470DE0A06805F0FDFAE6
:10259000DEE76368597A586804F090FC7E2E03DD0C
:1025A0002046FFF7AEFDF8BD6319002283F82A200C
:1025B000E26104F12A072021384600F0C3F80646FC
:1025C000037823BB0A21384600F0BCF806460023F6
:1025D00084F8AA31337803B300233370A3612A4906
:1025E000384600F091F80646E8B904F5D571204662
:1025F000FFF7F6FEA369002B3CD0A06805F0C9FAEE
:10260000A3695B6804F5D57120469847C8E7411C6B
:1026100004F5D57000F086F8DCE70D21384600F0AF
:1026200091F80646D8E71949384600F06DF8064695
:1026300068B994F82A322BB104F5D5712046FFF71A
:1026400007FFD7E712492046FFF7BDFED2E7114941
:10265000384600F059F8064628B904F5D5712046E9
:10266000FFF736FFC6E739462046FFF717FEA061A1
:102670002E46BFE7012E93DD637D002B90D00649E7
:102680002046FFF7A0FE8BE7F493000800940008B3
:102690000C940008289400083094000808B5044BF6
:1026A0001B681A681268C1B21846904708BD00BF7F
:1026B000500B0020704708B500F032FD08BD000047
:1026C00000B583B00649D1F8F027D1F8EC37D1F83E
:1026D000E8170091034900F0EBFA03B000BD00BF1A
:1026E00000F0FF1F4C94000810B50446FFF7BCFC37
:1026F0000249204600F0DCFA10BD00BF60940008DB
:1027000008B502F021FA08BD431E013913F8010F84
:1027100011F8012F10B10AB19042F7D0801A18BFFA
:1027200001207047013911F8013F0BB90370704760
:1027300000F8013BF7E70023C25C0AB9184670476E
:102740000133F9E703461A7818461AB18A4203F1B1
:102750000103F8D17047002970B51EDA2D2301243A
:1027600000F8013B4942064691FBF2F302FB1311CC
:1027700030313170191E354606F10106F4DC0022B5
:102780000346201A30443270AB420BD21A782978B3
:1027900003F8011B05F80129F6E704D13023417045
:1027A0000370012070BD0024DDE730B503782D2BC8
:1027B00011D14FF0FF34013000210A25431E01E002
:1027C00005FB012113F8012F303AD0B20928F7D9BF
:1027D00004FB01F030BD0124EEE7000010B5144CFD
:1027E00002780146A2F10A03DBB2162B1BD824FAA9
:1027F00003F3DA0700F10100F2D40846FFF79BFF6C
:1028000001380844814204460AD203780A3BDBB20D
:10281000162B05D8064A013822FA03F3DB07F1D458
:102820000023637001E0002AE7D1084610BD00BF15
:1028300009004000002310B5934200D110BD51F8AB
:10284000234040F823400133F6E702B97047013ACC
:1028500040F8041BF9E7F8B50D4616461C46016022
:10286000828000238371052C30D00AD9082C32D005
:102870001AD8062C41D0072C42D1002403231F462E
:1028800030E0032C1CD009D8012C13D0022C02D12B
:1028900000231F4622E002241F4623E0042C28D1F7
:1028A000012400231F461DE0092C2DD102240323FF
:1028B0001F4617E001238371022400231F4611E005
:1028C00001238371022400231F4607E00124847141
:1028D00000231F4606E0012403231F4631462846F5
:1028E00004F085FC334622463946284604F04AFC6B
:1028F000F8BD022400231F46F4E700242746F1E731
:10290000022400231F46EDE7022400231F46E9E7C7
:10291000024B4FF400421A80704700BF540C002055
:1029200008B5FFF7F5FF08BD70B50C1EACBF01235D
:102930004FF0FF335C430133064608BF2D234FF0B1
:10294000640208BF06F8013B611104F01F0405464C
:10295000544330460A22FFF7FEFE2E226411092C52
:102960003254D8BF302206EB0003D8BF5A7021463C
:102970004FF00A02CCBF581C981CFFF7ECFE28460B
:1029800070BDF0B5027803462D2A13D14FF0FF3009
:10299000013300250A2702E007FB052501331C78D7
:1029A000A4F13002D6B2092EF6D9A4B98D4025443F
:1029B0006843F0BD0120ECE78A4002EB660292FB1F
:1029C000F6F20CFB06F6144413F8012F303AD7B296
:1029D000092FF1D9EAE70A260024B446F4E72DE9E5
:1029E000F04105460F46161E02DD0A46002108E0AA
:1029F0004FF0200813F001041BD0002422E0013125
:102A0000013210780028FAD1B14206DA761A13F0B2
:102A1000020F04D14FF02008ECE70026F7E74FF053
:102A20003008E7E72B681B68414628469847013481
:102A3000013E002EF6DC05E02B681B68284698470F
:102A40000134013739780029F6D106E02B681B687C
:102A50004146284698470134013E002EF6DC2046C8
:102A6000BDE8F08170B584B00646DDF828C059B1E4
:102A70001D460B4615B10A2A11D0002500218DF8FC
:102A80000D100DF10D0416E030238DF800308DF897
:102A90000110099B089A6946FFF7A1FF32E000295F
:102AA00001DB0025EAE74B420125E7E7303104F876
:102AB000011DB3FBF2F34BB1B3FBF2F102FB113199
:102AC0000929F3DDACF13A000144EFE79DB1089B21
:102AD00063B1099B13F0020F08D0304633681B68BE
:102AE0002D219847089B013B089304E02D2304F80F
:102AF000013C013C0025099B089A21463046FFF71E
:102B00006EFF284404B070BD08B50846FFF7C6FD47
:102B100008BDF0B585B0074616461D466846FFF766
:102B200003FF2B46324669463846FFF758FF05B08B
:102B3000F0BD000070B588B006460C460592002531
:102B400087E0A21C012391E000222178A1F1300C42
:102B50005FFA8CFCBCF1090F06D802EB8202303917
:102B600001EB42020134F0E773291AD0642923D023
:102B7000782930D058293DD075294AD0662957D0B8
:102B8000632965D10599081D059009688DF81C1009
:102B900000218DF81D1007A93046FFF720FF0544DE
:102BA00056E00599081D0590096801B93549304678
:102BB000FFF715FF05444BE00599081D05900968CE
:102BC000612002900193009201230A223046FFF710
:102BD00049FF05443CE00599081D059009686120FE
:102BE000029001930092002310223046FFF73AFF33
:102BF00005442DE00599081D0590096841200290C3
:102C000001930092002310223046FFF72BFF05446A
:102C10001EE00599081D0590096861200290019346
:102C2000009200230A223046FFF71CFF05440FE004
:102C30000599081D059009683046FFF76AFF0544AD
:102C400006E0144633681B68217830469847013502
:102C5000013423789BB1252BF4D1621C637873B1C6
:102C6000252BEED02D2B3FF46CAF00231446227899
:102C7000302A7FF469AF013443F00203F7E72846B6
:102C800008B070BDD49400080FB400B583B004AA96
:102C900052F8041B054B0193009201A8FFF74AFF6D
:102CA00003B05DF804EB04B0704700BF9C9B0008C4
:102CB0000EB400B582B003AA52F8041B0192FFF7CC
:102CC00039FF02B05DF804EB03B07047174B184AA8
:102CD0001360991C174A1160191D174A1160991D3C
:102CE000164A116003F10801154A116003F10A0147
:102CF000144A116003F10C01134A116003F10E0133
:102D0000124A116003F11001114A116003F112011E
:102D1000104A116003F114010F4A116003F116010A
:102D20000E4A116018330E4A136070478C0C002055
:102D3000880C0020840C0020800C00207C0C0020DB
:102D4000780C0020740C0020700C00206C0C00200B
:102D5000680C0020640C0020600C00205C0C00203B
:102D6000580C002030B583B0334B93E8030002AB1E
:102D700003E903000025002D2CDD304C304A0121F1
:102D8000204604F0A4F82F4A0121204604F0A8F8B8
:102D90004FF480720121204604F05CF84FF4806209
:102DA0000121204604F04AF89C220121204604F02B
:102DB000A7F80121204604F059F80121204604F02B
:102DC0005EF80121204604F070F81F4803F0EEFD84
:102DD00003B030BD02AB03EB850353F8084C20462B
:102DE00003F092FD204603F094FD204603F0A6FD7B
:102DF000204603F098FD0121204603F070FD204697
:102E000003F034FD204603F04DFD204603F05DFD48
:102E100005EB450305EB83030C4A1A440D212046BC
:102E200003F096FD204603F0CBFD4FF460212046D1
:102E300003F02EFD01359EE7A09B00080000024034
:102E40004C2401408C0C002000240140C40D0020C3
:102E5000884205DD914209DC90420ADD1046704748
:102E6000904206DC914203DD1046704708467047E9
:102E70000846704730B583B0046800250BE0A28E89
:102E8000618B2088FFF7E4FF02AB03EB450323F8D7
:102E9000080C01354E34032DF1DDBDF80000BDF8FE
:102EA00002301844BDF804301844BDF80630184408
:102EB000C0F38F0003B030BD08B50F4B98420BD064
:102EC00003F58063984211D0A3F50063984205D1C1
:102ED000072903DCC8B204E0012903DD03F0CEFCBE
:102EE000102008BDC9B20831C8B2FAE70529F5DCDF
:102EF000C9B20A31C8B2F4E7000C014070B505460A
:102F00000E461446012393409BB2002211463046E0
:102F100004F038F92B68054A9B1A5D1021463046AB
:102F2000FFF7CAFFABB2024AD05470BD8C0C002030
:102F3000C40D002008B5FFF7C9FE08BD08B503F0B1
:102F400059FF00F5FF3000F2FF10800208BD2DE9A7
:102F5000F043ADF2044DFFF7F1FF074602460023B0
:102F60004FF0FF3603E052F8041B0E400133FF2BF5
:102F7000F9DD03F023FF4FF480724FF0FF31684614
:102F8000FFF763FC002400E00134502C1AD8E5B2AE
:102F90002846FFF799F80028F6D12846FFF75CF895
:102FA00080462846FFF78AF80DEBC40989F803002C
:102FB000B8F818202DF834202846FEF7EFFFC9F89E
:102FC0000400E1E7FE21684603F006FFFE9004F0EE
:102FD000B3F8B6F1FF3F01D100240AE0384604F00F
:102FE00067F8F9E75DF8241007EB840004F0BEF8F9
:102FF0000134FF2CF6D904F0ABF8FE980DF2044D25
:10300000BDE8F083F8B5FFF799FF064603F0D6FE5A
:10301000FE21304603F0E0FED6F8F833834201D1BA
:10302000002503E04FF0FF3019E001357E2D15D863
:1030300036F83500FFF700F804465228F5D0FFF7C0
:1030400043F80028F1D106EBC50779682046FEF762
:10305000C9FFF9782046FFF71BF8E6E70020F8BD26
:10306000014B1860704700BFE40D00200D4B1B5C46
:10307000B3B90D4B196899B10C4B1870DFF830C01B
:10308000DCF800300B4A02F8330002EBC302516057
:10309000044A012111540B4403F00F03CCF8003013
:1030A000704700BFD40D0020E40D0020DF0D00208C
:1030B000E00D0020200A00200F280AD8064B03EB61
:1030C000C0035B680BB918467047034B13F8300018
:1030D00070470020704700BF200A00200F2801D948
:1030E00000207047024B03EBC0035868704700BFD5
:1030F000200A002008B5074B03EBC10292F804C078
:1031000053F83130044A52F82C2001460348FFF7A7
:10311000BBFD08BDB49B0008A89B0008DC94000818
:1031200010B50C4B5B680BB1002409E00A48FFF7AF
:10313000ABFD0DE0074B13F83410FFF7DBFF013454
:103140000F2C05D8034B03EBC40358680028F1D1BA
:1031500010BD00BF200A0020EC94000800B58BB021
:10316000104B01EB410203EB820C53F82220DCF8F8
:1031700004C001EB410103EB81039B68D0F85802C6
:103180000021089107910693CDF814C00492039191
:103190000291019100910B46012203F023FC0BB038
:1031A00000BD00BF209C0008F0B583B004460D466A
:1031B00016461F4672B60121D0F8580203F025FDCD
:1031C000019600970023B5F5006F34BF002201225D
:1031D0002946D4F8580203F01DFD002806DBD4F878
:1031E0005432002B18DC62B603B0F0BDD4F8543270
:1031F000132BF4DC03F1110204EB0212556097600B
:10320000316804EB0312C2F81C117168C2F8201176
:103210000133C4F85432E2E70121D4F8580203F034
:10322000F0FCE0E7012801DD00207047014B53F876
:1032300020007047E80D002030B58BB004460D46E5
:103240000AE09DF8213006AA0999204600F0B2FA5A
:1032500004F00CFAC4F8F8000023059306AB0493BD
:103260000DF12103039308AB02930DF122030193A7
:103270000DF12303009309AB0122E9B2D4F85802FF
:1032800003F03DFD0028DCD10BB030BD30B583B07C
:10329000044600F58A7504E0D4F85432013BC4F8C2
:1032A0005432D4F85432002B17DD03F18053013B24
:1032B0001A0105EB0313A9585A6808330193D2B2D7
:1032C00000920023B1F5006F34BF00220122D4F830
:1032D000580203F09FFC0028DEDAD4F854320BB118
:1032E00003B030BD0121D4F8580203F08EFCF7E79B
:1032F00070B584B00E4615461C461068B3F800C081
:103300005A889B88B4F806E05B019BB2520192B2E6
:103310004FEA4C1C1FFA8CF14FF0010CCDF808C09D
:1033200000EA0C0CCDF804C04FEA4E1C1FFA8CFCCE
:10333000CDF800C003F048FC002333602A68013256
:103340002A60E380A3806380238004B070BD70B5E1
:1033500084B00E4615461C461068B3F800C05A8863
:103360009B88B4F806E05B019BB2520192B24FEA2F
:103370004C1C1FFA8CF14FF0010CCDF808C000EA8C
:103380000C0CCDF804C04FEA4E1C1FFA8CFCCDF893
:1033900000C003F009FC002333602A6801322A6070
:1033A000A380238040F2FF73E380638004B070BD8C
:1033B00070B582B00E4615461C4610681968C900E3
:1033C0005A68D20001230093034042F0040241F006
:1033D000040103F009FC002333602A6801322A60EB
:1033E0006360236002B070BD30B58BB0054600232A
:1033F00008930993474906AA03C982E80300049386
:103400000593039302930193D5F85822424B9A42B5
:103410000AD0A3F58063D3F8003AC3F305230093E1
:103420000024C2F81C4221E00023F8E704F11E0248
:1034300005EB8202516871B3029A501C02900DF1A3
:10344000280C0CEB420C2CF8103C023202920AAB16
:1034500003EB400020F8101C039B042B24D0029B9C
:10346000022B28D0019B022B2CD00134D5F8F4304C
:10347000A3422EDD05EB84035B68B3F5006FD5D363
:10348000019A23F060430AA901EB820141F8183C3C
:1034900001320192E0E7039A0AA901EB420121F807
:1034A000083C01320392D7E708AB6A4603A92846D5
:1034B000FFF71EFFD3E706AB6A4602A92846FFF7CF
:1034C00046FFCFE704AB6A4601A92846FFF770FF25
:1034D000CBE7039B002B07DC029B002B0BDC019B43
:1034E000002B0FDC0BB030BD08AB6A4603A92846A1
:1034F000FFF7FEFEF0E706AB6A4601A92846FFF794
:1035000026FFECE704AB6A4601A92846FFF750FF07
:10351000E8E700BF5C9C000800640040F8B5044682
:103520000D4616461F4600F0E3F8544B2360002377
:10353000C4F85432C4F85852514B9D422FD003F571
:1035400080639D4258D1002F00F082804D4D202392
:1035500002220021284603F015FE2021284603F010
:1035600046FE402302220321284603F00BFE4020A2
:1035700004F088FBF021402004F090FB412004F08F
:1035800081FBF021412004F089FB3F2004F07AFB0D
:10359000F0213F2004F082FB3B4B5C602CE0002FCD
:1035A00041D0384D4FF4807302220021284603F0A9
:1035B000E9FD4FF48071284603F019FE4FF40073C3
:1035C00002220321284603F0DDFD142004F05AFBFB
:1035D000F021142004F062FB152004F053FBF021CD
:1035E000152004F05BFB132004F04CFBF0211320AA
:1035F00004F054FB244B1C60D4F8580203F0E6F9A5
:1036000031462046FFF7AAFD2046FFF7EDFE0221D6
:10361000D4F8580203F0F5FA1021D4F8580203F058
:10362000F0FA2046F8BD194D4FF400630222002144
:10363000284603F0A7FD4FF40061284603F0D7FDAC
:103640004FF4805302220321284603F09BFDBCE780
:103650000C4D4FF4805302220021284603F092FDC6
:103660004FF48051284603F0C2FD4FF4005302226C
:103670000321284603F086FD79E700BF149C00086B
:1036800000640040000C0140E80D002000080140EB
:1036900008B50020FFF7C6FD0021FFF7CDFD08BDEE
:1036A00008B50020FFF7BEFD0121FFF7C5FD08BDED
:1036B00008B50020FFF7B6FDFFF7E8FD08BD08B527
:1036C0000120FFF7AFFD0021FFF7B6FD08BD08B5EB
:1036D0000120FFF7A7FD0121FFF7AEFD08BD08B5EA
:1036E0000120FFF79FFDFFF7D1FD08BD7047704730
:1036F000084B03600023C0F8F430C0F8FC3005E04C
:1037000003F14002044940F822100133042BF7DD95
:10371000704700BF6C9C0008A40A0020D0F8FC3061
:10372000042B01DD0020704703F1400240F8221015
:103730000133C0F8FC300120704710B51446D0F8B2
:10374000F4201D2A0CDD002010BD01339A420ADD51
:1037500000EB830CDCF804107145F6D10020F3E790
:103760008E460023F2E700EB8203C3F804E002F187
:103770001E0300EB83035C600132C0F8F420036891
:103780009B6898470120DFE738B505460024C0F85C
:10379000F44003689B68984707E004F1400355F83C
:1037A000230003685B6898470134D5F8FC30A342D6
:1037B000F3DC38BD2DE9F8430546894690461F469F
:1037C00000240AE004F1400355F8230003681E6852
:1037D0003B4642464946B0470134D5F8FC00A0427A
:1037E000F0DCBDE8F88370B5054600F130063446DC
:1037F0000BE034F8043BC3F3C02123F40063002240
:1038000003EB41716868FFF798FFA31B242B02DCD0
:10381000A378322BEDD170BD2DE9F04182B0054681
:1038200000F108073E46F31B242B00F39380B37886
:10383000322B00F08F80002300930193B37803EBC9
:103840004304A40058342C441AE0C0F307231B049B
:1038500043EA0063C0F3074243EA022343EA1063EA
:10386000E2791F2A3DD8C2F11F0223FA02F2009B1F
:1038700013430093647A04EB4404A40058342C44AA
:10388000637AFF2B5DD0354B1B78002B62D12079FA
:10389000FEF792FB0146206804F044FF804694F94D
:1038A000060004F0EBFE414604F034FE05F000F99A
:1038B00094F908C08CEAEC71A1EBEC71C9B24FF03D
:1038C000FF328A4020EA0200BCF1000FBDDBE27942
:1038D0001F2A20D9203A00FA02F2019B13430193D8
:1038E000C8E79444BCF11E0F07DDC2F13F0223FA82
:1038F00002F2019B13430193BCE7A2F11F0003FAFC
:1039000000F0009901430091C2F13F02D340019AB7
:103910001A430192AEE702EB0C03202B05DC00FA00
:1039200002F2009B13430093A4E700FA02F1009B0C
:103930000B430093C2F12002D040019B034301934B
:1039400098E7686803685C6808236A4636F8041BD1
:10395000A04768E702B0BDE8F08100BFF00D00208D
:1039600010B509B302F10C0E00EB8E0E0A2A46D8F0
:103970009EF80210322944D001EB410C4FEA8C0C26
:103980000CF1580C844400210C469CF80910FF29C6
:1039900033D073B1013BDBB201EB410189005831F7
:1039A000644600EB010CF0E702F1020E00EB8E0E14
:1039B000DCE72CB16172FF238CF8093001201FE095
:1039C000322904D08EF80210F5E70133DBB29918E2
:1039D000092904DC0EEB830189783229F5D1013BFA
:1039E000DBB20EEB830291788EF802103EF82330A2
:1039F000AEF8003032239370DDE7002000E00020B5
:103A000010BD0020FCE7F8B500F10803002634469D
:103A1000354637463DBB1A462C46A2EB030CBCF19B
:103A2000240F27DC92F802C0BCF1320F22D00CEB3D
:103A30004C0E4FEA8E0E0EF1580E8644002609E019
:103A40000136F6B20CEB4C0C4FEA8C0C0CF1580C16
:103A500000EB0C0E9EF809C0BCF1FF0F06D0BEF8BB
:103A600004E08E45ECD15DB10020F8BD0134E4B234
:103A70000432D2E700F130033D4601221746C9E780
:103A8000334622463946FFF76BFFEEE770B5144622
:103A90001E460023079A137000F10805002B46D13B
:103AA0002A46531B242B3ADC92F802C0BCF1320F99
:103AB00035D00CEB4C0E4FEA8E0E0EF1580E8644AC
:103AC00007E00CEB4C0C4FEA8C0C0CF1580C00EBA3
:103AD0000C0E9EF809C0BCF1FF0F1ED0BEF80430DA
:103AE0008B42EED11388C3F3C022236023F400631A
:103AF000236043EA427323609EF8073033709EF9D7
:103B00000820049B1A70DEF80020059B1A609EF9BD
:103B10000620069B1A70012070BD0432C1E7079B86
:103B20001B780122079D2A7000F13005B6E70020BE
:103B3000F2E78446D9B102F10C0100EB81010A2AB7
:103B400027D88A78322A26D002EB420292005832D5
:103B50000CEB0200427AFF2A19D063B1013BDBB2C1
:103B600002EB4202920058320CEB0200F2E7911C89
:103B700000EB8101E3E70B88C3F3C02200990B60DF
:103B800023F400630B6043EA42730B60704700202C
:103B9000704700207047002070472DE9F04385B042
:103BA0000646884600F1080900273B462FE02B888F
:103BB000C3F3C02C23F4006194F90830E279207932
:103BC000029794F906E0CDF804E0D4F800E0CDF8CF
:103BD00000E041EA4C71C047647A04EB4404A4005D
:103BE00058343444637AFF2BE1D10435A5EB090343
:103BF000242B08DCAB78322B05D003EB4304A40064
:103C000058343444EEE706F130093B4601270BB93E
:103C10004D46EBE705B0BDE8F083002306E001EB7D
:103C200083024FF0320C82F802C00133092BF6DD1B
:103C3000002307E003EB430200EB8202FF2182F83E
:103C400061100133322BF5DD704710B5044600F1E9
:103C50000801FFF7E2FF04F130012046FFF7DDFF26
:103C60006068FFF791FD10BD2DE9F0410F46154644
:103C70001E460024A0460AE0286803F0A7F8804604
:103C800055F8041B07EB840003F070FA0134B442CA
:103C9000F2DB4046BDE8F081084600E00430431AFC
:103CA000242B0ADC8378322B05D00388534033F46D
:103CB0000063F3D102E0002070470020704700004D
:103CC0004B4B1B7803B170472DE9F0410546164672
:103CD0000A4600F13001FFF7DFFF002800F0858081
:103CE000837803EB4304A40058342C4442E01F2B98
:103CF00053D83068C0F30722120442EA0062C0F3CE
:103D0000074742EA072242EA1062C3F11F03DBB20F
:103D100001208840013822FA03F3184004F0AAFC7D
:103D2000074694F9060004F0A9FC394604F0F2FBBA
:103D30000146206804F0F6FC07462079FEF7C4F936
:103D400020B12079FEF7C0F9012849D1B4F80480E8
:103D50004FF08441384604F0E5FC04F0A9FE01462A
:103D60005FFA88F0FEF7FCF8647A04EB4404A400E0
:103D700058342C44637AFF2B37D0E37994F9082028
:103D800082EAE271A1EBE271C9B2002AAFDB1F2B1C
:103D900018D97268203BDBB2BAE71A441F2A03DD48
:103DA0007068203BDBB2A5E75B1ADBB20133DBB204
:103DB0003068D8407268C3F120039A4010434B1E0C
:103DC000DBB297E71A44202A01DC3268A0E73268A8
:103DD000DA407068C3F1200398400243002397E75C
:103DE00039462079FEF704F9BEE7BDE8F08100BF4F
:103DF000F00D00202DE9F8439DF820709DF9246016
:103E0000002E76D004460D469146984686EAE67323
:103E1000A3EBE673DBB2202B6ED8002E0BDDBB19B3
:103E2000402B6CDC424629462046FFF735FF84468E
:103E300058B100221BE03F2F64D87BB23344B3F16A
:103E4000FF3FEFDA6FF0010051E00021092907DCA4
:103E500005EB81039A78322A01D00131F6E79C46BE
:103E6000BCF1000F51D0ACF80080E2E70132312AFA
:103E700007DC02EB420304EB830393F86130FF2B72
:103E8000F4D1322A44D09CF8023000210AE003EB3E
:103E9000430189005831214403EB430304EB8303BE
:103EA00093F86130322BF2D102EB420304EB83042E
:103EB000A4F85C900A9BA3659DF92C3084F85E30D1
:103EC00084F85F7084F86060322384F8613019B13F
:103ED0004A722B46002004E08CF80220F9E70130FA
:103EE00004335A1B242A02DC9A78322AF7D1BDE81F
:103EF000F8836FF00200FAE76FF00200F7E76FF067
:103F00000100F4E76FF00100F1E76FF00300EEE766
:103F10006FF00400EBE7B2F5006F16D200B585B084
:103F20009DF920C0CDF80CC0DDF81CC0CDF808C04C
:103F30009DF918C0CDF804C0009313460A4600F15D
:103F40000801FFF757FF05B000BD4FF0FF30704785
:103F500070B584B005461446C2F3407022F000529A
:103F6000B2F5006F1DD29DF928C0CDF80CC0DDF868
:103F700024C0CDF808C09DF920C0CDF804C000933E
:103F800042EAC0230A4605F130012846FFF732FF16
:103F90000646002221466868FFF7CFFB304604B092
:103FA00070BD4FF0FF331E46F8E72DE9F04F89B0A2
:103FB0008346059206938A46079131E0B4F90200E0
:103FC00004F05CFB002303930290CDF8048000957D
:103FD0003B46049A05993046FFF70CFF0634A4EBE4
:103FE00009032A2B1ADC94F90530002B16DD2088F2
:103FF000FEF722F80490DBF80060BAF8007025792B
:1040000094F90580069B002BD8D0B4F9020004F087
:1040100035FB4FF0745104F085FBD3E70AF1320A07
:10402000079BAAEB0303B3F5E17F0ADCBAF80010A3
:104030004FF6FF73994204D00AF102052C46A946B7
:10404000CDE709B0BDE8F08F08B502F0D3FE00F56A
:10405000FF3000F5FF70800208BD70B582B00646E3
:104060000190FFF7F1FF0446D0F8E85302F0A6FEF6
:10407000FA21204602F0B0FE854202D0002002B0B4
:1040800070BD01AD00233246083221462846FFF7B5
:104090008CFF01233246303204F5FA712846FFF7CF
:1040A00084FF0120EBE7F8B505460F460E460EE00B
:1040B0002079FDF7D1FF038BA380647A04EB4404DD
:1040C000A40058342C44637AFF2BF1D10436F31B3F
:1040D000242B08DCB378322B05D003EB4304A40077
:1040E00058342C44EFE7F8BDF8B505460F460E46A8
:1040F0000DE0A088FDF7A0FFA080647A04EB4404E3
:10410000A40058342C44637AFF2BF2D10436F31BFD
:10411000242B08DCB378322B05D003EB4304A40036
:1041200058342C44EFE7F8BDF0B583B00546FFF7EF
:104130008BFF064602462A4B0121197000234FF0DF
:10414000FF3403E052F8041B0C400133FF2BF9DD70
:1041500002F034FE02F0F0FF022002F0E3FFB4F1BF
:10416000FF3F38D105F1080739462846FFF79BFF86
:1041700005F1300421462846FFF795FF0A233A4609
:1041800031462846FFF770FD0A23224606F1280132
:104190002846FFF769FD0190962305F1580206F1C4
:1041A00050012846FFF760FD0190012301AA06F5A2
:1041B0002D712846FFF758FD02F0CAFF3946284600
:1041C000FFF792FF21462846FFF78EFF044B00229F
:1041D0001A7003B0F0BD304602F06AFFC2E700BFBC
:1041E000F00D0020F8B50646FFF72EFF0446D0F884
:1041F000B45202F0E3FDAA21204602F0EDFD854213
:1042000003D03046FFF729FFF8BD06F108070A2260
:1042100021463846FEF70EFB06F130050A2204F16E
:1042200028012846FEF706FB962204F1500106F10C
:104230005800FEF7FFFA39463046FFF755FF29468A
:104240003046FFF751FF0120DEE7000038B5044695
:10425000084615460D4B23600D4B236061602146D7
:10426000FFF75CFA04F108012046FFF7D6FC04F1E1
:1042700030012046FFF7D1FC25B92046FFF7B3FAFD
:10428000204638BD2046FFF7ADFFF6E70C8B00084F
:10429000909C0008036ED3B14FF47A73036604E078
:1042A000036E002B07DD01233BB1826DC36D9A4283
:1042B000F6D00023F8E70023F6E7836D5A1C8265E9
:1042C00003F03F03034419764FF0FF334361704717
:1042D000A0F10400FFF7DEBF10B50446017C002208
:1042E00001F5C0618068FFF728FA617C3F2900D999
:1042F00010BD002201F5B061A068FFF71EFAF7E7D4
:1043000010B504460846144B2360144B6360144BED
:10431000236014336360A160E26001232374FF23F0
:1043200063744FF0FF3363610023A3654022E265AD
:104330004FF47A722266522284F86420A36684F8CD
:104340007830E36784F888302146FFF7E7F92046A4
:10435000FFF7C2FF204610BD0C8B0008A49A00088E
:10436000A09C000808B501748068FFF70DFA08BD2D
:1043700010B582B004468DF80010ADF801309DF8FC
:1043800010308DF80330059B0193437C93420DD18F
:10439000002384F87830A068617C03685C68082397
:1043A0006A4601F5C061A04702B010BD4274806842
:1043B000FFF7EAF9ECE738B504460A468068217C45
:1043C00003685D68082301F5B061A847002384F8FD
:1043D000883038BDB1F8012045F201039A4211D06E
:1043E000012380F888300B7880F88030B1F80130F4
:1043F000A0F88130CB7880F883304B68C0F88430E7
:10440000002070470B78402B01D0002070474FF000
:10441000FF330B714B7100238B71CB7141220A70FA
:104420004FF47A72026683654023C365CB7843619B
:10443000012070472DE9F04184B007460C46B1F8E1
:104440000120C2F3C0131E46CD7825B1013D05EB16
:10445000D575C5F3470503AB00932B4602F03F0229
:104460003146F868FFF765FB80462378402B0DD076
:10447000232B3DD0802323700023237163710223FB
:10448000A3710623E37104B0BDE8F08130B3007975
:10449000FDF7E2FD028BE37823B9039B63604323BE
:1044A0002370F0E713F0010F09D098F8073042EAC3
:1044B000034298F9083042EA03626260EFE7154967
:1044C000D8F8000004F02EF904F0F2FA20F07F434F
:1044D00098F9062043EA02636360E0E780232370D3
:1044E0000023237163710223A3710623E371CAE7DA
:1044F0000028BFD06368002BBCD1B4F801202B4644
:1045000002F03F023146F868FFF72AFA6023237071
:10451000B9E700BF00007A440B78232B00D0704726
:104520002DE9F04184B005460C461646CB7883B998
:104530004B68B3F1005F04D323F00052B2F5006F73
:1045400003D2AB666023237019E04FF0FF3383661C
:104550000CE0826E1746B2F1FF3F01D0012B11D063
:1045600095F9742090460AB1022B1DD08023237048
:104570000023237163710223A3710623E37104B046
:10458000BDE8F081486880B2FDF756FDA5F87000DF
:104590006368C3F3054385F8733063681B1685F8B9
:1045A00074305028CED9E1E7606840F3170004F07A
:1045B00065F8154904F06AF9E86663681B1685F822
:1045C0007230A6B102930190CDF8008095F8733057
:1045D0003A4695F87010E868FFF7BAFC002385F8B2
:1045E00074304FF0FF33AB660028ABDABEE70293BE
:1045F0000190CDF8008095F873303A4695F8701028
:10460000E868FFF788FCE9E700007A4438B504461B
:104610000D460A7802F06003602B31D0B1F801300A
:10462000B3F5005F5AD003F47F40B0F5045F55D076
:10463000E16819B1B3F5405F00F0858021B143F224
:10464000010C634500F0858019B1B0F5445F00F0BE
:10465000868045F203018B4200F0868045F204011A
:104660008B4240F09B80402A00F0918080232B7089
:1046700000232B716B710223AB710623EB7119E0E0
:1046800002F010020A700122072A0EDCE36DA16D10
:104690005B1A402B09D0E36D591CE16503F03F0321
:1046A00023441B7EAB540132EEE7E36DA16D5B1A30
:1046B000402B09D0A068217C03685C6808232A4647
:1046C00001F5B061A04738BD2B7843F001032B7092
:1046D000C2F1080243EA42032B70EBE7E87803F4E7
:1046E0007F42B2F5045F0CD0502822D82B78232BC0
:1046F0000DD0402BDED1FDF751FC686043232B70B9
:10470000D8E71B029BB21844FDF796FCECE76968FA
:10471000FDF726FC10B960232B70CBE780232B70AC
:1047200030232B7100236B710923AB710623EB71CE
:10473000C0E780232B7000232B716B710223AB71B8
:104740000623EB71B6E7002229462046FFF7E4FE78
:10475000B0E7012229462046FFF7DEFEAAE72946F8
:104760002046FFF767FEA5E7402A09D080232B707B
:1047700000232B716B710223AB710623EB7199E758
:10478000E878FEF799FC686043232B7092E7E8789D
:10479000FEF7A4FC686043232B708BE72946204674
:1047A000FFF718FE002885D18DE70000F0B583B033
:1047B00004461546037C03F5C0638B4207D0437C57
:1047C0001E4603F5B0638B4205D003B0F0BD114621
:1047D000FFF71CFFF9E7B2F801301F46A3F540537D
:1047E0009BB2012B08D92B78803B18BF012384F89A
:1047F00078306B68E367E8E7D378ABB1012BF2D18F
:104800001349C06E03F08EFF04F052F994F9723030
:1048100040EA03630193022300933B46324623217F
:104820002046FFF7A5FDDEE7B0F8703090F8732062
:1048300043EA024390F9742043EA0263019301239F
:1048400000933B4632462321FFF792FDCBE700BFA2
:1048500000007A4410B50446B0F80130B3F5A04F1B
:104860000DD045F20202934234D0802323700023FE
:10487000237163710223A3710623E37110BD0278D3
:10488000402AEED143230370C378022B13D007D8FC
:1048900063B1012B14D12E4BD3F8EC374360EDE715
:1048A000032B0DD1FDF71AFC6060E7E7284BD3F826
:1048B000E8374360E2E7264BD3F8F0374360DDE7A3
:1048C000802323700023237163710223A3710623C5
:1048D000E371D3E72378232BC7D160232370E378D8
:1048E000012B21D009D9022B26D0032B26D1FDF78D
:1048F000BBFB5120FCF78CFDC0E7FBB9154B1B78C7
:104900004BB172B6144B186808B1FFF70DFCFEF7F7
:104910001EFB62B6B2E7802323700023237163710C
:10492000A3710823E371A9E772B6FEF76BFB62B6C9
:104930005120FCF76DFDA1E703F09CF98023237063
:104940000023237163710223A3710623E37195E7AA
:1049500000F0FF1FA80A0020F40D00202DE9F0410F
:1049600084B00E46174698469DF83040FDF774FB1C
:1049700043681D461449154B1868FEF799F9ECB1C8
:104980001349124B1868FEF793F94FF084410A98C7
:1049900003F0C8FE0D4B1C689DF92C30039304F006
:1049A00087F80290CDF80480009733462A460949DB
:1049B0002046FEF77DF904B0BDE8F0810649034BBF
:1049C0001868FEF775F9E0E7B0960008FC0D0020C6
:1049D000B8960008C0960008BC96000870B5054659
:1049E0000846FDF7FBFE06462021FDF7ABFE0378E7
:1049F000A3B1002300F8013B0521FDF7C2FF0446E7
:104A00003046FDF705FB522812D02146FDF7A8FAE3
:104A100048B90A492846FEF74BF903E008492846F9
:104A2000FEF746F970BD07492846FEF741F9F9E758
:104A3000324605492846FEF73BF9F3E7F0960008B1
:104A4000D4960008FC96000814970008F8B50746AD
:104A50000846FDF7C3FE054609E02A460F493846D9
:104A6000FEF726F9254605F8016B2C2E14D12C21D2
:104A70002846FDF767FE04460678002303702846A3
:104A8000FDF7C6FA5228E8D0FDF788FA0246044935
:104A90003846FEF70DF9E5E7F8BD00BF349700088A
:104AA0002C9700082DE9F04106460846FDF796FED2
:104AB00007462021FDF746FE03789BB104460546D4
:104AC000002305F8013B3846FDF7A2FA804652283C
:104AD00029D06378212B0AD07E2B08D02F2B06D02B
:104AE000002406E013493046FEF7E2F80FE0A51C6B
:104AF000012429461048FDF707FE50B974B1012181
:104B00004046FDF7D3FA0D493046FEF7D1F8BDE82F
:104B1000F0810B493046FEF7CBF8F8E7012140461B
:104B2000FDF7BCFAEFE73A4606493046FEF7C0F813
:104B3000EDE700BF509700086097000878970008DD
:104B400068970008149700082DE9F04F8BB00746CE
:104B50000846FDF743FE0378059346493846FEF7BD
:104B6000A7F800264FF0200822E0434A0392029360
:104B70000190CDF800A04B46424640493846FEF72A
:104B800097F82846FDF7A0FA20B12846FDF79CFAD1
:104B900001285AD1E2682369616920680296019070
:104BA000009137493846FEF783F84FF02C0801365C
:104BB000502E51D8F5B22846FDF74EFA0446284645
:104BC000FDF77CFA10F0010F02D0059B682BEED1A7
:104BD000D4F80490D4F808A0B4F818B02846FDF72B
:104BE000DDF90290CDF804B0CDF800A04B46424666
:104BF00024493846FEF75CF80DF11F0303930DF1CD
:104C00001E03029309AB01930DF11D03009307AB43
:104C100008AA29461C480068FEF738FF0028B0D0D3
:104C2000DDF820809DF81C909DF91DA04FF0844177
:104C3000099803F077FD03F03BFF9DF91E309DF8C6
:104C40001F20002A91D0114A90E711493846FEF7FB
:104C50002FF84FF02C08AAE70E4BD3F8F0270E4997
:104C60003846FEF725F80D493846FEF721F80BB017
:104C7000BDE8F08F9C97000894970008D097000833
:104C800034980008A0970008F80D00208C970008C1
:104C90002098000800F0FF1F84980008C0980008C2
:104CA0002DE9F0478AB00746002305930693079342
:104CB000089309930846FDF791FD0478702C38D0CD
:104CC000632C44D02021FDF73DFD0378002B47D015
:104CD000FDF784FD06462021FDF734FD03780BB96E
:104CE000642C44D10546002305F8013B3046FDF70E
:104CF0008FF9064681462846FDF770FD8046522E04
:104D00003AD0642C3DD000231D464FF07E539A4686
:104D1000042D62DC20214046FDF714FD0646037891
:104D2000002B39D1022D37DC59493846FDF7C0FF39
:104D30001AE0584B1B68002BFBD1564C2760564994
:104D4000564B1868FEF729FF002323600CE0534BF5
:104D50001868FEF77AFF52493846FDF7A9FF03E0CD
:104D60004B493846FDF7A4FF0AB0BDE8F087484933
:104D70003846FDF79DFFF7E74A493846FDF798FFAB
:104D8000F2E73146454B1868FEF73DFE02464649BC
:104D90003846FDF78DFFE7E7002333704046FDF707
:104DA00004FD032D0DD00AAB03EB850343F8140C6F
:104DB00030460130FDF712FD80462B4601331D467B
:104DC000A6E710214046FDF7DCFD03F057FC4FF04D
:104DD0005E5103F0A7FC8246EAE7742C1FD09DF9D0
:104DE00024300293CDF804A09DF91C3000939DF867
:104DF0001830059A494629480068FFF7A9F810F1CC
:104E0000030F2ED01CDD10F1020F24D0B0F1FF3FB4
:104E100033D1059A25493846FDF74AFFA4E79DF9A5
:104E200024300293CDF804A09DF91C3000939DF826
:104E30001830059A494619480068FFF76CF8DEE714
:104E400010F1050F13D010F1040F16D11849384690
:104E5000FDF72EFF88E7069A16493846FDF728FF2A
:104E600082E7079A14493846FDF722FF7CE7059A46
:104E700012493846FDF71CFF76E7012806DD104B86
:104E8000024610493846FDF713FF6DE70E4BF7E772
:104E9000EC980008FC0D00205D490008F80D00208A
:104EA000C898000800990008149900082C99000877
:104EB00090990008409900085499000868990008E2
:104EC000208D0008AC9900088897000810B50D4B9C
:104ED0001B7893B1044672B60B4B1868FFF724F9A0
:104EE0000A492046FDF7E4FEFEF731F8024662B6B5
:104EF00007492046FDF7DCFE10BD0649FDF7D8FE48
:104F0000FAE700BFA90A0020F80D0020D899000890
:104F1000E8990008049A000810B5044672B6FEF736
:104F200071F862B638B95120FCF772FA044920468C
:104F3000FDF7BEFE10BD03492046FDF7B9FEF9E7B7
:104F4000489A00085C9A000808B502F093FE2DE923
:104F5000F843054688461746002604E023782C2BA4
:104F600016D1BE4214D22C212846FDF7EBFB044695
:104F700090F80090002303702846FDF749F8254675
:104F800005F8019B5228E9D008F806000136E5E74C
:104F90003046BDE8F88300002DE9F04184B00646B4
:104FA0000846FDF71BFC0446FDF7FFFB8046202169
:104FB0002046FDF7C7FB03784BB10A2201A9013057
:104FC000FFF7C5FF07463046FDF796F820E0184981
:104FD0003046FDF76DFE04B0BDE8F08104F110032A
:104FE0006B4413F80C0CFCF7D9FF03462A46114911
:104FF0003046FDF75DFE01340F4DBC42EEDB0F493C
:105000003046FDF755FEB8F1FF3F01D008F1FF38FB
:105010003046FDF76BF80028DDD1804502DD084DF4
:105020000024EAE7B8F1FF3FD5D1054D0024E4E7BD
:10503000749A0008949A0008CC970008449A0008D3
:105040008897000808B5042856D019DC02282FD00C
:1050500003283FD0012811D1394B3A4A1A603A4B04
:105060003A4A1A603A4B3B4A1A6023203A4B18607E
:10507000FCF79AFF394B1860012008BD0020FCE7BF
:1050800005284BD0062811D12D4B354A1A602E4BDE
:10509000344A1A602E4B344A1A6021202E4B186075
:1050A000FCF782FF2D4B18600120E6E70020E4E7C3
:1050B000234B2E4A1A60244B2D4A1A60244B2D4A4A
:1050C0001A602420244B1860FCF76EFF234B1860F5
:1050D0000120D2E71A4B284A1A601B4B274A1A6054
:1050E0001B4B274A1A601F201B4B1860FCF75CFF04
:1050F0001A4B18600120C0E7114B224A1A60124B6C
:10510000214A1A60124B214A1A602020124B186063
:10511000FCF74AFF114B18600120AEE7084B1C4A10
:105120001A60094B1B4A1A60094B1B4A1A6022205D
:10513000094B1860FCF738FF084B186001209CE70A
:10514000080E0020840B0020040E0020740B0020A9
:10515000000E00207C0B00203C0E0020400E0020A2
:105160009C0B00208C0B0020940B0020340C0020A2
:10517000240C00202C0C0020440C0020E40B002008
:10518000EC0B0020DC0B0020BC0B0020C40B00202B
:10519000B40B0020A40B0020AC0B002070B5002441
:1051A0000FE0174B1B689988186802F022F8154B1E
:1051B0001B689988186802F01AF8134B00221A70BD
:1051C0002C46052C1BDC651C2846FFF73BFFB0B1C5
:1051D0000E4B53F82430002BE3DD094E33689988D9
:1051E000186802F00CF83068FCF7B4F80028E7D033
:1051F000064A52F82430013B42F82430E0E770BD03
:10520000000E0020040E0020200E0020240E00209E
:105210002DE9F04104460D46FFF714FF48B1274B36
:105220001B7833B9631E1A461E46254B53F82230AD
:105230000BB1BDE8F081234B1878FCF7B5FE0746AB
:10524000C4B2FF220021284601F004F98046C3B20F
:105250001D469C4219D3AC42EBD91B4B1B68998865
:10526000186801F0C6FF194B1B689988186801F08F
:10527000C0FF5FFA88F1FBB25B1A114A42F8263090
:10528000104B1878FCF7A6FED3E70F4B1B689988E4
:10529000186801F0AEFF0D4B1B689988186801F083
:1052A000A6FF5FFA88F1FBB2CB1A054A42F8263016
:1052B000044B1878FCF78EFECDE700BF200E0020CF
:1052C000240E00203C0E0020040E0020080E0020BA
:1052D000F8B5134B01221A700024052C1EDC651C46
:1052E0002846FFF7AFFEC8B10E4F002647F82460EE
:1052F0000D4B1B689988186801F07BFF0B4B1B68EE
:105300009988186801F075FFFF2347F8243031466B
:10531000074B1878FCF75EFE2C46DEE7F8BD00BFB1
:10532000200E0020240E0020040E0020080E002075
:105330003C0E002008B5054B9988186801F057FF0E
:1053400000212520FCF746FE08BD00BF540B0020BD
:1053500008B5054B9988186801F04BFF01212520FD
:10536000FCF738FE08BD00BF540B002008B5094B00
:105370001B784BB90146052809D8074B18601A203D
:10538000FCF728FE002008BD4FF0FF30FBE74FF090
:10539000FF30F8E7140E00201C0E0020F8B55C4B1F
:1053A0001E68304603F0AAFB0546022401231F466F
:1053B00000E00134052C0ADC564B53F82400301A67
:1053C00003F09CFB8542F4DD05462746F1E7524B8E
:1053D0001F60524B1B7833BB514B1B68002B42D0D4
:1053E0004C4A52F82340A41B204603F087FB0A28AE
:1053F0007DDD02F03BF94B4B1B68B34244D0494B77
:105400001E60494B1860002C63DD484B01221A7066
:10541000474B9988186801F0EAFE464B998818684E
:1054200001F0E7FE2FE002F021F93E4B1B68B3428A
:1054300004D03C4B1E603C4B186024E03A4B1B6888
:10544000C01A63281FD93A4B9988186801F0D1FE19
:10545000384B9988186801F0CCFE00232C4A136061
:105460002E4A13700FE0324B9988186801F0C1FE84
:10547000304B9988186801F0BCFE2A4B1E6002F080
:10548000F5F8294B1860F8BD274B1B68C01A632834
:10549000B9D9274B9988186801F0ABFE254B99883C
:1054A000186801F0A6FE1E4B1B68012B06D0052BC9
:1054B0000BD1174B40F2B6321A6002E0144B0022B7
:1054C0001A60174B00221A60DDE70A20FDF7CEFDB7
:1054D000F7E7164B00221A70154B9988186801F0EF
:1054E00088FE144B9988186801F081FECBE7104BB9
:1054F0009988186801F07DFE0E4B9988186801F0B4
:1055000078FE084B1E6002F0B1F8074B1860BAE74E
:10551000E40A0020B89C0008180E0020140E002099
:105520001C0E00200C0E0020100E0020AA0A0020E5
:10553000D40B0020CC0B0020014B1868704700BF33
:10554000180E002008B50D4B01221A7000230C4ADA
:1055500013600C4A13700C4B9988186801F049FECF
:105560000A4B9988186801F042FE02F07FF8084B58
:105570001860084B1A68084B1A6008BD140E00200A
:105580001C0E0020AA0A0020D40B0020CC0B002007
:10559000100E0020E40A00200C0E0020CBB203EB1A
:1055A0001123002203E0815C0B449BB20132062AE6
:1055B000F9DDD8B27047000008B559B10122824028
:1055C00009490B7813430B70074B19784220FCF7FD
:1055D00001FD08BD01238340DB435BB202490A7829
:1055E00013400B70F0E700BF520E002030B583B0BF
:1055F00005460820FCF7D8FC04463F20FCF7D4FC05
:105600008DF8000003128DF801308DF8024024124D
:105610008DF8034000238DF80430984211DD0123FA
:105620008DF8053000238DF806308DF807302B6893
:105630005C6808236A4640F2A1212846A04703B0CF
:1056400030BD0023ECE7000010B504460920FCF74C
:10565000ABFC01280ED002280ED002F007F89528E6
:105660000CD9094B53F8243053B1C01A322809D948
:10567000012002E0012000E0002010BD0020FCE736
:105680000120FAE70020F8E7540E002030B583B07F
:1056900004460120FFF7D8FF054668B140F2FF132A
:1056A000009300230193204623685B681C46022375
:1056B0006A4640F2D121A04729460120FFF77CFF2E
:1056C00003B030BD30B583B0044689238DF8003077
:1056D00042238DF8013072238DF8023085238DF836
:1056E000033001238DF804302C238DF80530144B42
:1056F0001B781B0143F002038DF8063040F2A13104
:105700006846FFF74BFF8DF807000320FFF79CFF6B
:10571000054640B1204623685B681C4608236A465C
:1057200040F2A131A04729460320FFF745FF044A74
:105730001378013303F00F03137003B030BD00BFC3
:105740004F0E002030B583B004460220FFF77CFFE7
:10575000054668B1094B6A4693E80300CDE90001AC
:10576000204623685B681C46082340F22131A0478D
:1057700029460220FFF720FF03B030BDDC9C000863
:1057800030B583B00546002300930193274B1B7867
:10579000A3BB41238DF8003001238DF80130052390
:1057A0008DF80230224B1B781B018DF8063040F239
:1057B00021216846FFF7F2FE8DF807000020FFF771
:1057C00043FF044640B128462B685B689C4608238B
:1057D0006A4640F22121E04721460020FFF7ECFE17
:1057E000124A1378B3FA83F35B091370104A1378E3
:1057F000013303F00F03137003B030BD40238DF865
:10580000003041238DF8013005238DF80230152337
:105810008DF8033050238DF80530054B1B781B01A4
:1058200043F001038DF80630C1E700BF510E0020A0
:10583000500E002030B583B005462D4B1B78002B51
:105840003CD103238DF8003019238DF801306422F8
:105850008DF8022032228DF803208DF804300023C9
:105860008DF80530234B1B781B018DF8063040F274
:1058700045516846FFF792FE8DF807000420FFF7B8
:10588000E3FE044640B128462B685B689C4608232B
:105890006A4640F24551E04721460420FFF78CFE5E
:1058A000134A1378B3FA83F35B091370114A137820
:1058B000013303F00F03137003B030BD14238DF8D0
:1058C000003000238DF801303F238DF80230702323
:1058D0008DF803309F238DF8043001238DF80530B7
:1058E000044B1B781B0143F00A038DF80630BEE71A
:1058F0004E0E00204D0E00202DE9F843044601F025
:10590000B5FE304B186021786078030203F4E06341
:105910001943A278530103F4787343EAD007E5787A
:10592000ED0045EA521520796279130203F4807381
:1059300040EA0308A379DB0103F4F06343EA520968
:10594000E67906F00F0601EB810149003E20FCF7E5
:1059500041FB384602F092FE1B4902F0E3FE01468D
:105960004020FCF745FB404602F088FE164902F055
:10597000D9FE01464620FCF73BFB484602F07EFE7E
:105980004FF07C5102F0CEFE01464520FCF730FB83
:1059900031464320FCF71EFBE179C9094420FCF79E
:1059A00019FB05EB850569004120FCF713FB032E6D
:1059B00003D00F2E01D0BDE8F8830220FDF756FB7F
:1059C000F9E700BF6C0E0020CDCCCC3D03780A2B4C
:1059D00000D0704710B504460379417943EA0121AC
:1059E0004720FCF7F7FAA379E17943EA012148203F
:1059F000FCF7F0FA10BD000010B5044641784920CC
:105A0000FCF7E8FA617928394A20FCF7E3FAA17932
:105A100028394B20FCF7DEFA637813F0010F03D12D
:105A2000094B00221A6010BD01F020FE064B1B68D6
:105A300013B9054B1860F6E7C01A6428F3D90120A2
:105A4000FDF714FBEFE700BF680E002010B500243F
:105A5000042C0BDC064B33F81430834201D00134A4
:105A6000F6E701F003FE034B43F8240010BD00BF2E
:105A7000D09C0008540E002010B50446124B1B6841
:105A800083B92046FFF7B2FD2046FFF7FFFD204611
:105A9000FFF718FE0D4A13780133DBB21370092BA0
:105AA0000BD810BD01F0E2FD074B1B68C01A31286E
:105AB000E7D90120FDF7DAFAE3E7134600221A706E
:105AC0002046FFF73FFEECE76C0E00204C0E002056
:105AD00010B50446FFF754FE2046FFF7ABFE10BD9D
:105AE00008B56422002100F0B5FC00EB8000410005
:105AF0003F20FCF76FFA08BD10B504460146392077
:105B0000FCF768FA50220021204600F0A3FC4CF27A
:105B1000503300220249C0B200F0A6FC10BD00BF05
:105B20000008004010B5044601463B20FCF752FA3D
:105B300050220021204600F08DFC4CF2503302220E
:105B40000249C0B200F090FC10BD00BF0008004048
:105B500008B5074B1B6843B1054B186802F08AFD76
:105B60000146044802F092FE08BD0020FCE700BF99
:105B7000E00A0020C0E1E44B08B5074B1B6843B1C5
:105B8000054B186802F076FD0146044802F07EFEDF
:105B900008BD0020FCE700BFDC0A0020C0E1E44BA8
:105BA00010B501F063FD0446164B1B7823B1154B6D
:105BB00000221A70144B1860144B1B7823B1134B3E
:105BC00000221A70124B1C603920FCF7EDF90528F1
:105BD00004DD0D4B1B68E31AC72B0AD83B20FCF7EA
:105BE000E3F9052804DD0A4B1B68E41AC72C04D826
:105BF00010BD0820FDF73AFAF0E70920FDF736FA64
:105C0000F6E700BFDA0A0020480E0020D90A00207B
:105C1000440E002010B504460A4902F035FF50B981
:105C20000949204602F030FF38B90849204602F001
:105C30002BFF20B910BD0320FCE70220FAE701206A
:105C4000F8E700BF0000C0410000A841000020416B
:105C500008B5022300221146074801F093FA0748CD
:105C600000F0A4FE054800F063FE0028FAD00348C7
:105C700000F062FE80B208BD000C01400028014027
:105C800010B50446022300221946074801F07AFAAB
:105C900024B10221044801F0AAFA10BD02210248F1
:105CA00001F0A7FAF9E700BF000C01400000000076
:105CB00038B50024324D22462B46324800F026FDEE
:105CC00022462B46304800F021FD22462B462F4825
:105CD00000F01CFD22462B462D4800F017FD224601
:105CE0002B462C4800F012FD22462B462A4800F095
:105CF0000DFD22462B46294800F008FD22462B4682
:105D0000274800F003FD1CA3D3E90023254800F039
:105D1000FDFC22462B46244800F0F8FC22462B4688
:105D2000224800F0F3FC22462B46214800F0EEFC0E
:105D300022462B461F4800F0E9FC22462B461E480F
:105D400000F0E4FC22462B461C4800F0DFFC224613
:105D50002B461B4800F0DAFC22462B46194800F07F
:105D6000D5FC22462B46184800F0D0FC22462B4694
:105D7000164800F0CBFC38BD333333333333D33FD5
:105D80000000E03F38100020201000200810002004
:105D9000F00F0020D80F0020C00F0020A80F002017
:105DA000900F0020780F0020600F0020480F002087
:105DB000300F0020180F0020000F0020E80E0020F8
:105DC000D00E0020B80E0020A00E0020880E00206B
:105DD00038B501F04BFC0446304B1B78012B0BD03F
:105DE000022B17D03BB91846FFF74AFF2C4B1C601B
:105DF0002A4B01221A7038BD294B1B68C31A632B2A
:105E0000F9D90120FFF73CFF254B1C60234B0222F0
:105E10001A70F0E7FFF71CFF214B1B68E31A1A46C4
:105E20001D4640F2DB53984201D8632A31D9002045
:105E3000FFF726FF1A4B1C60184B01221A702846E8
:105E400002F018FC174902F06DFC174902F01EFD24
:105E5000164902F067FC164902F064FC02F09AF859
:105E600002460B46134800F062FC02F0FDFA0546BC
:105E7000FFF7D0FE044629463320FCF7B9F8214647
:105E80003220FCF7A7F8012CB5D80720FDF7EEF873
:105E9000B1E70120FFF7F4FEADE700BF780E002068
:105EA000740E00200AD7233C00401C46002474498D
:105EB00085EB513F780F00202DE9F04F89B0C6489F
:105EC000FCF7D8FF059002F0D5FB0746C348FCF766
:105ED000D1FF069002F0CEFB8146C148FCF7CAFF15
:105EE000079002F0C7FB834600264FF08B45DFF892
:105EF000F482BD4C2368009333462A464146384617
:105F000000F08CFA8246B94F3B68009333462A462C
:105F1000B749484600F082FA814623680093334629
:105F20002A464146584600F079FA0546206802F0B4
:105F3000BFFD0646504602F0BBFD3246002100F090
:105F400089FA02F09BFB0646386802F0B1FD07466D
:105F5000484602F0ADFD3A46002100F07BFA02F01F
:105F60008DFB0746206802F0A3FD0446284602F098
:105F70009FFD2246002100F06DFA02F07FFB0446EF
:105F8000304602F007F802460B469A4800F0CFFB75
:105F900002F06AFA01462620FCF72AF8384601F09A
:105FA000F9FF02460B46944800F0C1FB02F05CFA90
:105FB00001462720FCF71CF8204601F0EBFF0246C3
:105FC0000B468E4800F0B3FB02F04EFA0146282043
:105FD000FCF70EF88A48FCF74DFF042100F024FB83
:105FE00004468848FCF746FF042100F01DFB0546E7
:105FF0008548FCF73FFF042100F016FB80468348EC
:10600000FCF738FF062100F00FFB02908048FCF7F8
:1060100031FF062100F008FB03907E48FCF72AFFC1
:10602000062100F001FB04907B48FCF723FF0621CA
:1060300000F0FAFA83467948FCF71CFF062100F0CD
:10604000F3FA82467648FCF715FF062100F0ECFAD9
:106050008146204601F09EFF02460B46714800F043
:1060600066FB06460F46704B186801F093FF024628
:106070000B463046394601F02DFE02F0F5F9014697
:106080002920FBF7B5FF284601F084FF02460B46A6
:10609000664800F04CFB06460F46654B186801F059
:1060A00079FF02460B463046394601F013FE02F0F6
:1060B000DBF901462A20FBF79BFF404601F06AFF0F
:1060C00002460B465B4800F032FB06460F465A4B31
:1060D000186801F05FFF02460B463046394601F072
:1060E000F9FD02F0C1F901462B20FBF781FF029870
:1060F00001F050FF02460B46504800F018FB0646E0
:106100000F464F4B186801F045FF02460B463046DC
:10611000394601F0DFFD02F0A7F901462C20FBF71C
:1061200067FF039801F036FF02460B46454800F032
:10613000FEFA06460F46444B186801F02BFF024654
:106140000B463046394601F0C5FD02F08DF9014697
:106150002D20FBF74DFF049801F01CFF02460B4673
:106160003A4800F0E4FA02F07FF901462F20FBF7ED
:106170003FFF584601F00EFF02460B46344800F040
:10618000D6FA02F071F901462E20FBF731FF504696
:1061900001F000FF02460B462E4800F0C8FA02F05C
:1061A00063F901463020FBF723FF484601F0F2FE79
:1061B00002460B46284800F0BAFA02F055F90146AB
:1061C0003120FBF715FF059A052A53D940F6F973DC
:1061D0009A4200F2C38041E0600C0020880C00204D
:1061E000840C002000801344B80A0020BC0A002060
:1061F0000000B943381000202010002008100020B3
:106200006C0C0020680C0020640C0020700C002036
:10621000580C0020800C00207C0C0020780C002002
:10622000740C0020F00F0020B40A0020D80F0020CA
:10623000B00A0020C00F0020AC0A0020A80F0020E8
:10624000800E0020900F00207C0E0020000F002008
:10625000E80E0020A00E0020880E0020069A052AD5
:106260007ED99A427ED8079A052A7DD99A427DD84E
:10627000002600E001266149204602F0FBFB0028D1
:1062800076D15F49204602F0FFFB002840F087806E
:106290005A49284602F0EEFB002840F08280584917
:1062A000284602F0F1FB00287DD15449404602F017
:1062B000E1FB002879D15249404602F0E5FB002875
:1062C00075D15049029C204602F0D4FB002870D1C1
:1062D0004D49204602F0D8FB00286CD14949039C67
:1062E000204602F0C7FB002867D14749204602F04C
:1062F000CBFB002863D14349049C204602F0BAFB43
:1063000000285ED14049204602F0BEFB00285AD149
:106310003C49584602F0AEFB002856D13A4958464F
:1063200002F0B2FB002852D13649504602F0A2FBDF
:1063300000284ED13449504602F0A6FB00284AD12D
:106340003049484602F096FB002846D12E4948467F
:1063500002F09AFB002842D104460AE001268AE7AF
:10636000012688E7012686E7012684E7012682E7E1
:106370000124002E35D0254B1B8801339BB2234AC4
:106380001380132B2FD894B3214B1B8801339BB25E
:106390001F4A1380132B2CD809B0BDE8F08F0124BD
:1063A000E7E70124E5E70124E3E70124E1E701242D
:1063B000DFE70124DDE70124DBE70124D9E701243D
:1063C000D7E70124D5E70124D3E70124D1E701244D
:1063D000CFE70124CDE70124CBE70124C9E701245D
:1063E000C7E73346CBE70520FCF740FECBE7234663
:1063F000CEE70620FCF73AFECEE700BF0000F0C172
:106400000000DC42000020C20000F042720E0020BA
:10641000700E002008B5FFF74BFC08BDF8B50F461D
:1064200016461C4602F074F805462146069802F00E
:106430006FF80146284602F075F9054639463046A0
:1064400002F066F80146284602F020FA214602F0E2
:1064500061F8F8BD904202DC884202DB70471046CA
:10646000704708467047000038B584460846114614
:106470001A46BCF1640F01D94FF0640C541CACFBFC
:1064800004C4CCF3130E4FEA1C5343EA0433C3F3A2
:1064900013039E44C4F313239E440EEB147E114B4E
:1064A000A3FB0E53DB0803EB830303EB8303AEEB89
:1064B000030EBCEB0E0C64F10004DFF82CE00B4B78
:1064C00003FB0CF30EFB0433ACFB0ECE73444FEA1C
:1064D0009C0C4CEA837C624500D3624601F07DFA55
:1064E00038BD00BF1F85EB51295C8FC2F5285C8F3A
:1064F00010B5044601F0BAF8184B18602178342022
:10650000FBF768FD61783520FBF764FDA178362044
:10651000FBF760FDE1783720FBF75CFD2079431E37
:10652000DBB2FD2B05D96079431EDBB2FD2B0AD906
:1065300010BD02F09FF80A4901F0EAFF0146302041
:10654000FBF756FDEFE702F095F8054901F0E0FF93
:1065500001463120FBF74CFDEAE700BF5410002054
:1065600000002042F0B583B0074600260096019651
:106570004C20FBF719FD00F003054320FBF714FD49
:1065800004461B20FBF710FDA30003F03C032B4344
:1065900043EA80138DF80030344601E00134E4B260
:1065A0000F2C12D82046FCF787FD05462046FCF745
:1065B00095FD0028F2D0002DF0D0102DEED8013D31
:1065C0000123AB4033439EB2E8E78DF80160360A01
:1065D0008DF802601E20FBF7E7FC8DF803004120D8
:1065E000FBF7E2FC00F132030D4880FB0320DB17D0
:1065F000FF220021C3EB6010FFF72CFF8DF8040091
:10660000084A1378591C11708DF805303B685C6896
:1066100006236A4640F2E1613846A04703B0F0BD68
:106620001F85EB515010002006296AD82DE9F0474C
:106630000C46002398461D4639E087424ADB4DE070
:10664000012E27D0C01B02F019F88146012E26D05A
:106650004346D81B02F012F88246670004EB44035D
:10666000DFF8A48008EB83031E79304602F006F8B9
:10667000494602F057F8514602F008F9814627448E
:1066800038F9270005FB060001F0F8FF494601F044
:106690003FFF34E0381A01F0F1FF8146D6E7434668
:1066A000F81A01F0EBFF8246D7E70135B84604EB54
:1066B0004402154B03EB82035B79AB4218D904EB20
:1066C0004402114B03EB82039A6832F815709E79ED
:1066D000012EB2D0002EE8D18742E6DC002DAFD1EA
:1066E00004EB4404084B33F9240001F0C7FF06E033
:1066F000054B03EB8203B3F9020001F0BFFFBDE8D5
:10670000F0870020704700BFE49C00084DF804BDEE
:1067100093469C4600220023C0E90023C0E90223DF
:1067200000230374C0E902BC5DF804BB70472DE987
:10673000F041044610461946237CCBB1D4E90278D7
:10674000D4E900562A46334601F0C4FA02460B4605
:106750003846414601F076FC02460B462846314653
:1067600001F0BAFAC4E90001D4E90001BDE8F08102
:10677000C4E9000101232374F6E710B50A20FBF7F2
:1067800013FCC1B20120FEF743FD0B20FBF70CFC0C
:10679000C1B20220FEF73CFD0C20FBF705FCC1B2A4
:1067A0000320FEF735FD0D20FBF7FEFBC1B20420F0
:1067B000FEF72EFD0E20FBF7F7FBC1B20520FEF71A
:1067C00027FD0F20FBF7F0FBC1B20620FEF720FDEE
:1067D0001020FBF7E9FBC8BBFEF7ACFD1320FBF76D
:1067E000E3FBFEF7C3FD1120FBF7DEFBC0B2FFF7B2
:1067F00083F91220FBF7D8FBC0B2FFF793F91420FE
:10680000FBF7D2FB04460A20FBF7CEFB272820DC4F
:106810000023002C00DD2BB32046FFF761F9172081
:10682000FBF7C2FB4FF6FF7306224FF08041C0B268
:10683000FFF71AFE1820FBF7B7FB4FF6FF73042291
:106840004FF08041C0B2FFF70FFE10BDFEF780FD94
:10685000C4E70D20FBF7A8FB272801DD0123D8E7BB
:106860000023D6E71846FFF73BF9D8E78368DB0734
:106870005EBF836843F0010383607047034AD2F828
:10688000083443F40003C2F8083470470020014084
:10689000836823F460230B438360836843F480138D
:1068A00083607047836800F1080243F00803836047
:1068B00013681B07FCD47047836843F004038360AC
:1068C00070478068C0F38000704708B50246FFF744
:1068D000F3FF1046FFF7F5FF0028FAD108BD0022AC
:1068E000134610B501FA02F403321E2A43EA0403E8
:1068F000F8D10022036101FA02F40332182A43EAB4
:106900000403F8D1C36010BD836823F001038360E2
:106910007047436843F4807343607047436823F4CF
:10692000807343607047836823F40063836070471B
:106930000068C0F340007047C06C7047836843F044
:10694000020383607047836823F00203836070470B
:106950001029F0B510D800234FF0010E1F469C46B9
:106960001D465FFA8EF6B14207D2013945EA01555C
:10697000C562C0F830C04763F0BDBEF1060F1478A1
:1069800006D89C4027430EF1010E01320533E8E79B
:10699000073E052E95BFA3F11E06A3F13C06B440A9
:1069A000B44094BF4CEA040C2543ECE7836800F143
:1069B000080243F48003836013685B02FCD47047D1
:1069C000836843F48073836070470000044B9842EF
:1069D0000CBF40F2192040F21A2000F0D2BD00BFD7
:1069E000006400402DE9F34104689DF8208024F004
:1069F0000204046004689DF824E044F0010404608B
:106A00004FF6FF749DF828C09DF83C609DF84070DB
:106A10000194019C051D013C019414B14468E407F4
:106A2000F7D54468E40770D50024C461002951D02B
:106A3000016841F080010160002A4FD0026842F0F5
:106A400040020260002B4DD0036843F02003036036
:106A50000368B8F1000F49D043F0100303600368E6
:106A6000BEF1000F45D043F0080303600368BCF19A
:106A7000000F41D043F004030360C369002F3ED0F0
:106A800043F00043C361C369002E3BD043F0804311
:106A9000C3610E9B0D99013BC3F309030B430C9992
:106AA000C2690B430B990B431343C361036823F083
:106AB000010303604FF6FF730193019B013B0193B8
:106AC00013B12B68DB07F8D4406800F0010002B076
:106AD000BDE8F081016821F08001ACE7026822F096
